:100000000C94EA1E0C941B1F0C941B1F0C941B1FBA
:100010000C941B1F0C941B1F0C941B1F0C941B1F78
:100020000C941B1F0C941B1F0C941B1F0C941B1F68
:100030000C941B1F0D94B40A0C941B1F0C941B1FD3
:100040000C941B1F0C94AA760C941B1F0C941B1F62
:100050000C941B1F0C941B1F0C94B06E0D94990CE8
:100060000C941B1F0C94AA3A0C941B1F0C941B1F7E
:100070000C941B1F0C941B1F0C941B1F0C941B1F18
:100080000C941B1F0C941B1F0C941B1F0C941B1F08
:100090000C941B1F0C941B1F0C941B1F0C941B1FF8
:1000A0000C941B1F0C941B1F0C941B1F0C941B1FE8
:1000B0000C941B1F0C941B1F0C941B1F0C941B1FD8
:1000C0000C941B1F0C941B1F0C941B1F0C941B1FC8
:1000D0000C941B1F0C941B1F0C941B1F0C941B1FB8
:1000E0000C941B1F66636F63796382638B63A663E3
:1000F000B363BC6394639D631C9B549B569B639B3F
:10010000699B6C9B749BEB00FD002501D900F700F7
:100110001F0113010D01F1000101D700E1000301EE
:10012000FB001F01E30023010F01F9000B0119017E
:10013000D100D500CF00D3001501E900DB00090193
:100140001B011101E500CF00F3000701CD00084AB3
:10015000D73B3BCE016E84BCBFFDC12F3D6C7431DB
:100160009ABD56833DDA3D00C77F11BED9E4BB4C32
:100170003E916BAAAABE000000803F05A84CCDB2FC
:10018000D44EB93836A9020C50B9918688083CA6DD
:10019000AAAA2ABE000000803F000D94420C0D94D4
:1001A0004C0C0D94C90B0D94DD0B0D94D30B0D94D9
:1001B000F0090D94CD090D94F70B0D9417240D94AF
:1001C0005B0A0D94F6090D94040A0D94240C0D9409
:1001D0003D090D94ED0B0D94D7090D943E030D943C
:1001E000E40E0D94E8090D942E0C0D94180E0D9448
:1001F000D3090D94B50B0D94FE090D94DA090D94F5
:100200004D270D94EC090D94FA090D94370A0D94BD
:10021000380C0D94010C0D94BA0B0D94E2090D9459
:100220000C0A0D941A0C0D94DE090D94E50B0D9437
:10023000590A0D94BF0B0D940B0C0D9491090D945C
:10024000110A0D943F030D94080A0D94C9094E41FB
:100250004E494E495459494E46CDCCCC3D0AD72340
:100260003C17B7D13877CC2B329595E6241FB14F88
:100270000A000020410000C84200401C4620BCBECD
:100280004CCA1B0E5AAEC59D74434F4D4D554E4939
:10029000434154494F4E0044525952554E00455225
:1002A000524F525300494E464F004543484F004776
:1002B000322F47332062616420706172616D657412
:1002C0006572730A00536C6565702E2E2E00206FC8
:1002D0006620004D424C2047323920706F696E74A1
:1002E000200059206F7574206F662072616E6765FB
:1002F0002028312D32292E0A0058206F7574206F66
:10030000662072616E67652028312D32292E0A0021
:100310004D6573682070726F62696E6720646F6EDE
:10032000652E0A005374617274206D6573682070C5
:10033000726F62696E67207769746820224732396C
:10034000205331222066697273742E0A00473239B5
:100350002053320053746174653A20004D65736810
:1003600020626564206C6576656C696E67206861E3
:1003700073206E6F20646174612E0A0053206F75C4
:1003800074206F662072616E67652028302D3529D4
:100390002E0A004D65736820706F696E742063616A
:1003A0006E6E6F74206265207265736F6C76656423
:1003B0000A004E6F206D6F76652E005344207072D8
:1003C000696E74696E67206279746520004E6F747F
:1003D000205344207072696E74696E670A0050720F
:1003E000696E742074696D653A200050726F74658F
:1003F000637465642050696E0A006F6E2E0A006F88
:1004000066662E0A00473236204465627567200012
:100410006D0046696C616D656E7420757365643A34
:10042000200053746174733A20002C204C6F6E6767
:10043000657374206A6F623A2000546F74616C2097
:1004400074696D653A200053746174733A20002C0E
:10045000204661696C65643A20002C2046696E690B
:10046000736865643A20005072696E74733A2000B4
:1004700053746174733A2000452569202573004A3E
:10048000756C6961203230313820496E7465726D47
:100490006564696174652072656164792E00AA02E1
:1004A000A5029E02970289026F6666004445425586
:1004B000473A004B494C4C45442E20004D313133D6
:1004C0002053006F6B0048656174696E6720646F2C
:1004D0006E652E0020573A00452569202573004A95
:1004E000756C6961203230313820496E7465726DE7
:1004F0006564696174652072656164792E00426586
:100500006420646F6E652E0020573A0042656420B7
:1005100048656174696E672E00454D455247454EEA
:1005200043595F50415253455200434153455F4C3C
:10053000494748545F4252494748544E4553530037
:10054000544F47474C455F4C494748545300534F1D
:100550004654574152455F504F5745520042554906
:100560004C445F50455243454E54004C4556454C13
:10057000494E475F44415441005A5F50524F4245F3
:10058000004155544F4C4556454C005052494E542D
:100590005F4A4F420050524F475245535300415516
:1005A000544F5245504F52545F54454D5000564F92
:1005B0004C554D455452494300454550524F4D000E
:1005C00053455249414C5F584F4E5F584F46460085
:1005D0004649524D574152455F4E414D453A4D6156
:1005E000726C696E20312E312E382028476974686C
:1005F00075622920534F555243455F434F44455F31
:1006000055524C3A68747470733A2F2F6769746846
:1006100075622E636F6D2F4D61726C696E466972E3
:100620006D776172652F4D61726C696E2050524F0B
:10063000544F434F4C5F56455253494F4E3A312E1B
:1006400030204D414348494E455F545950453A4A40
:10065000756C6961203230313820496E7465726D75
:100660006564696174652045585452554445525F2C
:10067000434F554E543A3120555549443A636564C9
:1006800065326132662D343161322D343734382D84
:10069000396231322D63353563363266333637662B
:1006A000660A002F2F20007A5F6D61783A2000796A
:1006B0005F6D61783A2000785F6D696E3A20005274
:1006C00065706F7274696E6720656E6473746F70A5
:1006D000207374617475730A0053657474696E676E
:1006E0002054726176656C20416363656C6572614C
:1006F00074696F6E3A200053657474696E67205296
:1007000065747261637420416363656C65726174C2
:10071000696F6E3A200053657474696E6720507279
:10072000696E7420416363656C65726174696F6E94
:100730003A200053657474696E67205072696E7454
:1007400020616E642054726176656C20416363653C
:100750006C65726174696F6E3A2000205A002059EE
:1007600000580020204D61783A2000205A0020597E
:1007700000580020204D696E3A20004F6E20004F37
:10078000666600536F667420656E6473746F707371
:100790003A2000000136372603FF3C3D38FF0F2E7C
:1007A000303EFF13FF0C0809FFFFFF1A1C18FFFF64
:1007B00008440AFF43FFFFFFFFFFFF4F66667365B4
:1007C0007473206170706C696564004572723A20C0
:1007D000546F6F206661722100546F6F20666172E2
:1007E0002066726F6D207265666572656E63652046
:1007F000706F696E740A004D36303020486F746532
:100800006E6420746F6F20636F6C6420746F20635C
:1008100068616E67652066696C616D656E740A005B
:100820004163746976652045787472756465723ABF
:100830002000556E6B6E6F776E20636F6D6D616E0D
:10084000643A2022004B494C4C45442E2000202D78
:1008500020496E76616C6964206578747275646590
:1008600072206E756D62657220210A000000000022
:100870000000000000000000000000000000000078
:100880000000000000000000000000000000000068
:100890000000000000000000000000000000000058
:1008A00000001F0FC000000000000000000000005A
:1008B00000007F87F0000000000000000000000042
:1008C00000007FC7F80000000000000000000000EA
:1008D0000000FFE3FC00000000000000000000003A
:1008E0000001FFF1FC00000000000000000000001B
:1008F0000003FFF0FE000000000000000000000008
:100900000007FFF87F00000000000000000000006A
:100910000007FFFC7F8000000000000000000000D6
:10092000000FE1FE3F80000000000000000000001A
:10093000001F807F1FC000000000000000000000BA
:10094000003F9E3F0FE0000000000000000000009C
:10095000003F1F3F8FF0000000000000000000007B
:10096000007E3F1FC7F800000000000000000000EC
:1009700000FC7F8FE3F80000000000000000000092
:1009800001F8FF87F1FC00000000000000000000FB
:1009900003F9FF07F0FE0000000000000000000067
:1009A00003F00603F8FF0000000000000000000054
:1009B00007F00001FC7F8000000000000000000044
:1009C0000FF8FE00FE200000000000000000000004
:1009D0001FF87F007E000000000000000000000003
:1009E0001FFC7F807E3F80000000000000000000B0
:1009F0003FFE3F803C7F0000000000000000000040
:100A00007FFF1FC018E00000000000000000000091
:100A1000FE7F0FE001C1F8000000000000000000B0
:100A2000FC3F8FF00381FC0000000000000000018B
:100A3000F81FC7F80010FE000000000000000003CF
:100A4000F18FE3F80038FF0000000000000000070D
:100A5000E3C7E1F0003C7F00000000000000000F51
:100A6000E7E7F000007E3F80000000000000000F7C
:100A7000C7F3F07C007E1FC0000000000000001FD4
:100A80008FF1E3FC007F0FE0000000000000003F5A
:100A90001FF0C700003F8FF0000000000000007F43
:100AA0003FE04E01C01FC7F0000000000000007EC4
:100AB0003FE01E1FE00FE3F8000000000000007C94
:100AC0007FC0100FE007E1FC0000000000000038CC
:100AD000F00000C7F007F1FE000000000000003940
:100AE000800001C3F803F8FF0000000000000013BD
:100AF00007F003E3FC01FC7F00000000000000039E
:100B000007F803F1FE00FC3F800000000000000039
:100B100063F803F8FE007E1FC00000000000000024
:100B200071FC01F87F007F1FE00000000000000062
:100B3000F0FE00FC7F803F8FE0000000000000011D
:100B4000F87F007E3FC01FC7F000000000000001DA
:100B5000FC7F807F1FC00FC3F80000000000000072
:100B6000FE3F803F8FE007E3FC0000000000000034
:100B70007F1FC01F87F007F1FC000000000000008D
:100B80003F0FE00007F80003FE0000000000000037
:100B90003F87F00007FC0007FF0000000000000096
:100BA0001FC7FE0FFFFFFFFFFF0000000000000057
:100BB0000FE3FFFFFFFFFFFFFF000000000000004A
:100BC00007F1FFFFFFFFFFFFFF0000000000000034
:100BD00003F0FFFFFFFFFFFFFF0000000000000029
:100BE00003F83FFFFFFFFFFFFC00000000000000D4
:100BF00001FC0000000000000000000000000000F8
:100C000000FF800000000000000000000000000065
:100C1000007FFFFFFFFFFFFFF0000000000000006B
:100C2000003FFFFFFFFFFFFFF0000000000000009B
:100C3000001FFFFFFFFFFFFFE000000000000000BB
:100C4000000FFFFFFFFFFFFFC000000000000000DB
:100C50000000000000000000000000000000000094
:100C60000000000000000000000000000A005072B8
:100C7000696E7420526573746F7265204465627585
:100C80006720456E640A007072696E745F6A6F62F5
:100C90005F656C61707365643A20007364706F7394
:100CA0003A200073645F66696C656E616D653A2019
:100CB000003E2000636F6D6D616E64735F696E5FEF
:100CC00071756575653A2000636D645F7175657552
:100CD000655F696E6465785F723A2000626162796F
:100CE0007374657070696E673A2000206661646590
:100CF0003A20006C6576656C696E673A2000746115
:100D0000726765745F74656D706572617475726524
:100D10005F6265643A20003A200066616E53706538
:100D2000656473003A20007461726765745F74656E
:100D30006D70657261747572650066656564726177
:100D4000746520253A20003A200063757272656E42
:100D5000745F706F736974696F6E00494E56414CD1
:100D6000494420444154410A002076616C69645F23
:100D7000666F6F743A0076616C69645F6865616480
:100D80003A005072696E7420526573746F726520F8
:100D900044656275672053746172740A000A0049E1
:100DA0004E56414C494420524553544F52452042DF
:100DB000494E004D3237004D3234004D323620530B
:100DC000256C75004D3233202573004D32393020AB
:100DD0005A2573004D32323020532573004731209D
:100DE0005A25730047312059257300473120463179
:100DF00032303020582573004739322045257300A2
:100E000047393220463230302045350047312046C0
:100E100032303020453500473932204530004731E7
:100E2000205A2573004D3432302053310047323878
:100E3000004D343230205330205A30004D3131379C
:100E40002052657374617274696E67202573004D5A
:100E50003130362050256920532569004D31303915
:100E600020532569004D31393020532569004C6FDE
:100E700061646564207072696E745F726573746F0B
:100E800072655F696E666F0A00496E6974206A6FE9
:100E900062207265636F7665727920696E666F2E67
:100EA0002053697A653A20005072696E7420526549
:100EB00073746F72652047636F64652066696C6543
:100EC0003A20002020506C616E6E65724275666635
:100ED000657242797465733A200020467265652018
:100EE0004D656D6F72793A2000436F6D70696C6566
:100EF000643A2053657020203420323031380A00A3
:100F0000207C20417574686F723A20467261636B71
:100F100074616C20576F726B730A00323031372D59
:100F200031322D32352031323A303000204C61736D
:100F30007420557064617465643A2000312E312E3E
:100F4000380A004D61726C696E0020536F667477C9
:100F50006172652052657365740A0020576174637D
:100F600068646F672052657365740A002042726F6F
:100F7000776E206F75742052657365740A00204582
:100F8000787465726E616C2052657365740A0050E6
:100F90006F77657255700A0073746172740A004548
:100FA0006E6473746F70732025632025632025633E
:100FB00020256300205A3A0020593A0020583A0070
:100FC000656E6473746F7073206869743A200044AE
:100FD0006F6E6520736176696E672066696C652E39
:100FE0000A004D3239004D6573682056616C6964A2
:100FF0006174696F6E2053746F707065642E006940
:101000006E206D6F76655F746F2829206665656454
:101010005F76616C756520666F722058593A004C96
:10102000656176696E672047323600473236204860
:10103000656174696E67204E6F7A7A6C652E004721
:1010400032362048656174696E67204265642E00FF
:10105000446F6E65205072696D696E6700446F6EF3
:1010600065205072696D696E670046697865642015
:101070004C656E677468205072696D652E005573FB
:1010800065722D436F6E74726F6C6C656420507264
:10109000696D65002C2065793D0029202D3E2028B2
:1010A00065783D002C2073793D0020436F6E6E659E
:1010B0006374696E672077697468207665727469F5
:1010C00063616C206C696E65202873783D002C206C
:1010D00065793D0029202D3E202865783D002C2093
:1010E00073793D0020436F6E6E656374696E67208F
:1010F0007769746820686F72697A6F6E74616C20AA
:101100006C696E65202873783D004C656176696E68
:101110006720473236002C2079693D00202020448A
:101120006F696E6720636972636C652061743A2031
:101130002878693D003F537065636966696564207E
:10114000582C5920636F6F7264696E617465206FEB
:101150007574206F6620626F756E64732E0A003F8F
:1011600028522965706561742076616C7565206E02
:101170006F7420706C61757369626C653B206D756E
:101180007374206265206174206C65617374203112
:101190002E0A003F537065636966696564206E6F4F
:1011A0007A7A6C652074656D7065726174757265AC
:1011B000206E6F7420706C61757369626C652E0AA5
:1011C000003F5370656369666965642066696C6198
:1011D0006D656E742073697A65206E6F7420706C13
:1011E00061757369626C652E0A003F5370656369AF
:1011F00066696564207072696D65206C656E6774E0
:1012000068206E6F7420706C61757369626C652EF6
:101210000A003F537065636966696564206E6F7A82
:101220007A6C652073697A65206E6F7420706C61CA
:10123000757369626C652E0A003F53706563696659
:101240006965642052657472616374696F6E204DC4
:10125000756C7469706C696572206E6F7420706C47
:1012600061757369626C652E0A003F526574726124
:101270006374696F6E204D756C7469706C6965720A
:10128000206D75737420626520737065636966698B
:1012900065642E0A003F5370656369666965642062
:1012A0006C6179657220686569676874206E6F7417
:1012B00020706C61757369626C652E0A003F537013
:1012C00065636966696564206265642074656D7034
:1012D00065726174757265206E6F7420706C6175D3
:1012E0007369626C652E0A0047323620636F6D6D3C
:1012F000616E6420737461727465642E2057616935
:1013000074696E6720666F72206865617465722803
:1013100073292E0A00506C656173652072657365D0
:1013200074005052494E5445522048414C54454453
:10133000005072696E7465722068616C7465642E09
:10134000206B696C6C28292063616C6C6564210AD0
:101350000020746F74616C3A20004261627973748A
:1013600065703A2000000000000000484300005271
:101370004300004842000048420000A04100000035
:10138000005761726E696E673A20486F6D696E67CB
:101390002042756D702044697669736F72203C201D
:1013A000310A000202040000A0400000A04000003A
:1013B0000040000052430000484300005243FF0138
:1013C000017C3C3E5E2B3D3F2F5B5D3B2C2A225C2B
:1013D000004732380047323800416476616E6365F9
:1013E00064204C6576656C696E6700517569636B46
:1013F000204C6576656C696E67004D61696E0049C9
:101400006E697469616C697A6520454550524F4D2B
:1014100000436F6E74726F6C00526573746F726507
:10142000206661696C73616665004C6F616420734E
:10143000657474696E677300496E697469616C697B
:101440007A6520454550524F4D0053746F726520A8
:1014500073657474696E67730046696C616D656E5F
:1014600074004D6F74696F6E0054656D70657261C4
:1014700074757265004D61696E00507265686561D2
:10148000742041425320636F6E6600507265686538
:10149000617420504C4120636F6E66005049442DAA
:1014A00044005049442D44005049442D49005049BE
:1014B000442D49005049442D50005049442D5000BE
:1014C0002008204661637400200820466163740090
:1014D0002008204D6178002008204D617800200808
:1014E000204D6178002008204D696E002008204DB5
:1014F000696E002008204D696E004F6666004F6ED1
:1015000020004175746F74656D700046616E2073C4
:10151000706565640046616E2073706565640042A5
:10152000656400426564004E6F7A7A6C65004E6FA8
:101530007A7A6C6500436F6E74726F6C0053746FCF
:1015400072652073657474696E6773004265640028
:10155000426564004E6F7A7A6C65004E6F7A7A6CE1
:10156000650046616E2073706565640046616E209B
:1015700073706565640054656D7065726174757231
:101580006500436172642072656D6F766564004327
:1015900061726420696E73657274656400206E6F99
:1015A0007420656E74657265642E0A000A4D65616B
:1015B000737572656420706F696E74733A0A005AAD
:1015C000206F66667365743A20004E756D20582C46
:1015D000593A20322C320A00526573756D696E6774
:1015E000207072696E74004A756C69612032303106
:1015F0003820496E7465726D656469617465207226
:10160000656164792E00436C69636B20746F20728E
:101610006573756D652E2E2E00456E642066696CAF
:1016200065206C6973740A00426567696E2066699B
:101630006C65206C6973740A004D31343520533C5D
:10164000696E6465783E206F7574206F66207261E4
:101650006E67652028302D31290A004A756C696152
:10166000203230313820496E7465726D656469616D
:101670007465204F66662E00205A3A0020423A00D8
:1016800020436F756E7420413A0020453A00205A7D
:101690003A0020593A00583A0048656174696E670B
:1016A000206661696C65640048656174696E6720D5
:1016B0006661696C65640048656174696E6720667F
:1016C00061696C65640048656174696E6720666174
:1016D000696C6564001000600350012C01900122C8
:1016E00001D001180110020E0170020401E002FA9B
:1016F000006003F0000004E600B004DC00A005D2A6
:1017000000B006C8000008BE00A009B400800BAA03
:1017100000D00DA00090109600C0138C00701782AE
:1017200000901B780010206E00C0246400E02D5053
:101730000080353C00A03A2800A03D1400003F0086
:1017400000A03FECFF4572723A204D494E54454D82
:101750005020424544004572723A204D494E54454E
:101760004D50004D494E54454D5020747269676785
:1017700065726564004572723A204D415854454D7A
:101780005020424544004572723A204D415854451C
:101790004D50004D415854454D5020747269676753
:1017A0006572656400202F002042403A0020403AD4
:1017B0000024F4D43050C38E20C2A24017828B7014
:1017C00011127A910D816CD90AA861E108C7586697
:1017D00007615143061E4B5D05C145A7041A41111F
:1017E00004093D9803713931034036DB02653391BA
:1017F00002D4305402802E1D02632CEE01752AC5DE
:1018000001B028A001102781018F2564012B244BF2
:1018100001E0223401AC211F018D200D01801FFC4D
:1018200000841EED00971DDF00B81CD200E61BC629
:1018300000201BBC00641AB200B219A8000A19A04B
:10184000006A189900D117910040178B00B51684D3
:101850000031167E00B31579003A157300C7146F76
:101860000058146A00EE1366008813630025135EA7
:1018700000C7125B006C12570015125400C11151C1
:101880000070114F0021114B00D61049008D1047F8
:10189000004610440002104200C00F4000800F3E7E
:1018A00000420F3C00060F3B00CB0E3800930E3772
:1018B000005C0E3500270E3400F30D3200C10D31EF
:1018C00000900D3000600D2E00320D2D00050D2C06
:1018D00000D90C2B00AE0C2900850C29005C0C27CC
:1018E00000350C27000E0C2600E80B2400C40B2446
:1018F00000A00B23007D0B23005A0B2100390B2184
:1019000000180B2000F80A1F00D90A1E00BB0A1E8F
:10191000009D0A1D00800A1D00630A1C00470A1B67
:10192000002C0A1B00110A1A00F7091A00DD091918
:1019300000C4091900AB091900920917007B0918A6
:1019400000630917004C0916003609160020091615
:10195000000A091500F5081500E0081400CC081469
:1019600000B8081400A4081400900813007D0812A1
:10197000006B0813005808120046081200340811C2
:1019800000230811001208110001081100F00710CF
:1019900000E0071000D0071000C0071000B0070FCC
:1019A00000A107100091070E0083070F0074070FB6
:1019B0000065070E0057070E0049070E003B070D94
:1019C000002E070E0020070D0013070D0006070D5F
:1019D00000F9060C00ED060D00E0060C00D4060C24
:1019E00000C8060C00BC060C00B0060C00A4060BD8
:1019F0000099060C008D060B0082060B0077060B83
:101A0000006C060B0061060A0057060B004C060A24
:101A10000042060A0038060A002E060A0024060ABA
:101A2000001A060A001006090007060A00FD05094B
:101A300000F4050900EB050900E2050900D90509D4
:101A400000D0050900C7050900BE050900B5050855
:101A500000AD050800A50509009C050800940508CF
:101A6000008C050800840508007C05080074050842
:101A7000006C050700650508005D050700560508B0
:101A8000004E050700470507004005080038050718
:101A900000310507002A050700230507001C05067D
:101AA00000160507000F05070008050600020507D8
:101AB00000FB040600F5040700EE040600E8040637
:101AC00000E2040700DB040600D5040600CF04068C
:101AD00000C9040600C3040600BD040600B70406DE
:101AE00000B1040500AC040600A6040600A004052D
:101AF000009B04060095040500900406008A040576
:101B00000085040500800406007A040500750405BC
:101B100000700405006B04050066040500610405FF
:101B2000005C04050057040500520405004D04053F
:101B30000048040500430405003E0404003A04057F
:101B40000035040500300404002C040500270404BB
:101B500000230405001E0404001A040400160405F2
:101B600000110404000D0404000904050004040429
:101B70000000040400FC030400F8030400F4030460
:101B800000F0030400EC030400E8030400E4030491
:101B900000E0030400DC030400D8030400D40304C1
:101BA00000D0030400CC030400C8030300C50303F2
:101BB0000024F404D9201BC40C5C0E9804C4095FF3
:101BC0000265077101F405F900FB04B300480487BE
:101BD00000C10369005803550003034500BE023AE3
:101BE000008402310053022A002902250004022049
:101BF00000E4011C00C8011900AF0117009801148E
:101C00000084011300710110006101100051010EE8
:101C10000043010D0036010B002B010B0020010BCE
:101C200000150109000C01090003010800FB000870
:101C300000F3000800EB000700E4000600DE0006E9
:101C400000D8000600D2000600CC000500C7000541
:101C500000C2000500BD000400B9000400B5000486
:101C600000B1000400AD000400A9000400A50003B9
:101C700000A20003009F0004009B000300980003E3
:101C8000009500020093000300900003008D000205
:101C9000008B00030088000200860002008400031D
:101CA00000810002007F0002007D0002007B000234
:101CB0000079000200770001007600020074000243
:101CC0000072000100710002006F0002006D00014F
:101CD000006C0002006A0001006900020067000158
:101CE000006600010065000100640002006200015E
:101CF0000061000100600001005F0002005D000162
:101D0000005C0001005B0001005A00010059000165
:101D10000058000100570001005600010055000165
:101D20000054000100530000005300010052000164
:101D30000051000100500001004F0001004E000062
:101D4000004E0001004D0001004C0001004B00005E
:101D5000004B0001004A000100490001004800005A
:101D60000048000100470001004600000046000155
:101D70000045000000450001004400010043000050
:101D80000043000100420000004200010041000049
:101D90000041000100400001003F0000003F000141
:101DA000003E0000003E0001003D0000003D00013B
:101DB000003C0000003C0000003C0001003B000033
:101DC000003B0001003A0000003A00010039000029
:101DD0000039000100380000003800000038000120
:101DE0000037000000370001003600000036000018
:101DF000003600010035000000350000003500010C
:101E00000034000000340000003400010033000002
:101E100000330000003300010032000000320000F7
:101E200000320001003100000031000000310001EB
:101E3000003000000030000000300001002F0000E2
:101E4000002F0000002F0000002F0001002E0000D6
:101E5000002E0000002E0001002D0000002D0000CB
:101E6000002D0000002D0001002C0000002C0000BF
:101E7000002C0000002C0001002B0000002B0000B3
:101E8000002B0000002B0001002A0000002A0000A7
:101E9000002A0000002A000100290000002900009B
:101EA000002900000029000000290001002800008E
:101EB0000028000000280000002800000028000181
:101EC0000027000000270000002700000027000076
:101ED0000027000100260000002600000026000068
:101EE000002600000026000100250000002500005B
:101EF000002500000025000000250000002500014D
:101F00000024000000240000002400000024000041
:101F10000024000100230000002300000023000033
:101F20000023000000230000002300000023000124
:101F30000022000000220000002200000022000019
:101F4000002200000022000100210000002100000A
:101F500000210000002100000021000000210000FD
:101F600000210001002000000020000000200000EF
:101F700000200000002000000020000000200000E1
:101F800000200001001F0000001F0000001F0000D3
:101F9000001F0000001F0000001F0000001F0001C4
:101FA000001E0000001E0000001E0000001E0000B9
:101FB000004D383420582059205A2045006265646D
:101FC0000A002C2073797374656D2073746F7070C0
:101FD000656421204865617465725F49443A200058
:101FE0005053553A2047656E657269630050726FB1
:101FF000746F636F6C3A20312E3000426175643A21
:1020000020313135323030004D4B53203E20763177
:102010002E33004D657368204C6576656C696E677C
:10202000004578747275646572733A203100687483
:1020300074703A2F2F6D61726C696E66772E6F72B5
:1020400067004A756C6961203230313820496E74FE
:1020500065726D65646961746500323031372D31A8
:10206000322D32352031323A303000312E312E3897
:10207000004D61726C696E005072696E74657220F9
:10208000537461747300546865726D6973746F7210
:102090007300426F61726420496E666F005072690E
:1020A0006E74657220496E666F004D61696E002026
:1020B000204E6F7A7A6C653A200020004261636B93
:1020C000004D696E696D756D2054656D7020697382
:1020D000203137302E0048656174696E6720666173
:1020E000696C65640045787472756465206D6F7203
:1020F0006500526573756D65207072696E7400526B
:102100004553554D45204F5054494F4E533A0020AA
:10211000204E6F7A7A6C653A20006368616E67655D
:10212000006F66207468652066696C616D656E7409
:10213000005761697420666F722073746172740055
:102140005052494E54205041555345440020204E92
:102150006F7A7A6C653A2000200066696C616D6563
:102160006E7420756E6C6F616400576169742066CF
:102170006F72005052494E5420504155534544000F
:1021800020204E6F7A7A6C653A20002000506C65F2
:1021900061736520776169742E2E2E004865617425
:1021A000696E67206E6F7A7A6C65005052494E54A2
:1021B000205041555345440020204E6F7A7A6C657B
:1021C0003A2000200068656174206E6F7A7A6C6531
:1021D0002E00507265737320627574746F6E207474
:1021E0006F005052494E54205041555345440020F1
:1021F000204E6F7A7A6C653A2000746F20636F6EA0
:1022000074696E75652E2E2E00616E642070726585
:10221000737320627574746F6E00496E73657274A7
:102220002066696C616D656E74005052494E542091
:102230005041555345440020204E6F7A7A6C653AE0
:102240002000200066696C616D656E74206C6F61A2
:1022500064005761697420666F72005052494E5491
:10226000205041555345440020204E6F7A7A6C65CA
:102270003A2000200066696C616D656E7420657897
:102280007472756465005761697420666F720050DE
:1022900052494E542050415553454400746F2072AA
:1022A0006573756D65005761697420666F72207083
:1022B00072696E74005052494E5420504155534536
:1022C00044002569730025696D202569730025691F
:1022D000682025696D2025697300256964202569BA
:1022E000682025696D202569730025697920256995
:1022F00064202569682025696D20256973004C6973
:102300006E65204E756D626572206973206E6F7404
:10231000204C617374204C696E65204E756D62654A
:10232000722B312C204C617374204C696E653A20FD
:10233000004B494C4C45442E200053544F505045BF
:10234000442E20005072696E7465722073746F7031
:102350007065642064756520746F206572726F7299
:10236000732E2046697820746865206572726F72DA
:1023700020616E6420757365204D39393920746F82
:1023800020726573746172742E202854656D7065B7
:102390007261747572652069732072657365742E3D
:1023A00020536574206974206166746572207265BB
:1023B0007374617274696E67290A004E6F204368F6
:1023C00065636B73756D2077697468206C696E65E1
:1023D000206E756D6265722C204C617374204C699F
:1023E0006E653A2000636865636B73756D206D6977
:1023F000736D617463682C204C617374204C696E3A
:10240000653A20004D313130004D333100534420C6
:1024100072656164206572726F720A00446F6E6546
:10242000207072696E74696E672066696C650A0057
:1024300020496E76616C6964206578747275646594
:1024400072200000000000000000000000000000FA
:10245000005243000048430000524325753A25309E
:10246000327500253032753A253032750025756495
:1024700020253032753A25303275005A00590058FF
:102480000009200000000000000000000000000023
:102490007FFFE0000000000000000000000000706E
:1024A00000E000000000000000000000000061F8F3
:1024B0006000000000000000000000000041F82063
:1024C00000000000000000000000000040F02000BC
:1024D000000000000000000000000040602000003C
:1024E000000000000000000000005801A07F8000F4
:1024F0000000000000004104005C63A0FFC0000079
:1025000000000000002082005EF7A0FFC000000075
:10251000000000002082005EF7A0FFC00000000065
:102520000000004104005C63A07F80000000000008
:1025300000008208005801A07F8000000000000019
:1025400001041000406020FFC000000000000001F6
:1025500004100040F020FFC00000000000000082D6
:10256000080041F820FFC000000000000000410406
:102570000061F8603F000000000000000000000063
:102580007000E01E0000000000000001FFFF807FDF
:10259000FFE00C0000000000000001FFFF800000D1
:1025A000000000000000000000000000007FFFE0CD
:1025B0000000000000000000000000007000E000CB
:1025C0000000000000000000000000630C6000003C
:1025D00000000000000000000000470E2000000086
:1025E0000000000000000000004F0F20000000006D
:1025F00000000000000000005F0FA00000000000CD
:10260000000000000000005E07A07F8000000000C6
:10261000000000410400406020FFC00000000000F6
:10262000000020820040F020FFC0000000000000F9
:102630000020820040F020FFC000000000000000E9
:102640004104004060207F80000000000000008204
:1026500008005E07A07F8000000000000001041059
:10266000005F0FA0FFC00000000000000104100088
:102670004F0F20FFC000000000000000820800474C
:102680000E20FFC000000000000000410400630CA9
:10269000603F00000000000000000000007000E04B
:1026A0001E0000000000000001FFFF807FFFE00C23
:1026B0000000000000000001FFFF80000000000695
:1026C0000900FE000000000001090008FE000005EE
:1026D000080806000040F0C88888987810050808A7
:1026E000060000C0F88888888888F8050505060077
:1026F000012030F830200508080600002070F8207E
:10270000202020E00509090600FF2070A8A8B8884D
:102710008870200509090600FFE080C0B0A82830B5
:1027200028280509090600FFF8A88888888888A84D
:10273000F8050A0A0600FE205050505088A8A888C4
:102740007003030306000340A04000060900FE07D3
:1027500001920321207FFF07FF07FF000000060012
:10276000000107070602008080808080008003024D
:1027700002060105A0A00507070600005050F8500A
:10278000F850500507070600002078A07028F020B8
:10279000050707060000C0C8102040981805070765
:1027A0000600006090A040A89068020303060104A0
:1027B000C040800307070601002040808080402041
:1027C0000307070601008040202020408005050502
:1027D00006000120A870A82005050506000120209C
:1027E000F820200203030602FFC040800501010615
:1027F0000003F8020202060200C0C005050506003B
:1028000001081020408005070706000070888888AE
:1028100088887003070706010040C040404040E040
:10282000050707060000708808708080F805070714
:10283000060000F81020100808F005070706000041
:1028400010305090F81010050707060000F880F0CF
:1028500008088870050707060000708080F08888E7
:1028600070050707060000F8081020202020050743
:1028700007060000708888708888700507070600C2
:102880000070888878080870020505060200C0C03C
:1028900000C0C00206060602FFC0C000C04080049F
:1028A00007070600001020408040201005030306A3
:1028B0000002F800F80407070601008040201020FD
:1028C00040800507070600007088081020002005DA
:1028D000070706000070880868A8A87005070706A3
:1028E0000000708888F8888888050707060000F0CF
:1028F0008888F08888F005070706000070888080C7
:10290000808870050707060000F08888888888F0AE
:10291000050707060000F88080F08080F8050707AB
:10292000060000F88080F080808005070706000020
:10293000708880B888887005070706000088888836
:10294000F8888888010707060200808080808080E0
:10295000800507070600003810101010906005076A
:10296000070600008890A0C0A09088050707060011
:1029700000808080808080F805070706000088D8E6
:10298000A8888888880507070600008888C8A8984E
:102990008888050707060000708888888888700581
:1029A0000707060000F08888F0808080050707068A
:1029B000000070888888A89068050707060000F066
:1029C0008888F0A09088050707060000788080704E
:1029D0000808F0050707060000F820202020202026
:1029E000050707060000888888888888700507071B
:1029F00006000088888888885020050707060000A0
:102A00008888888888A850050707060000888850AD
:102A100020508888050707060000888888502020F5
:102A200020050707060000F80810204080F803077B
:102A300007060100E08080808080E0050505060033
:102A4000018040201008030707060100E020202035
:102A50002020E0050303060004205088050101063C
:102A60000000F80202020602058040050505060086
:102A70000070087888780507070600008080B0C8D5
:102A80008888F005050506000070808088700507BD
:102A9000070600000808689888887805050506007C
:102AA000007088F880700507070600003048E04095
:102AB0004040400506060600FF70888878087005CB
:102AC00007070600008080B0C888888801070706CD
:102AD0000200800080808080800308080601FF20BB
:102AE0000020202020A040040707060000808090DE
:102AF000A0C0A090030707060100C040404040402E
:102B0000E0050505060000D0A8A8A8A8050505064B
:102B10000000B0C888888805050506000070888810
:102B200088700506060600FFF08888F0808005069C
:102B3000060600FF78888878080805050506000065
:102B4000B0C880808005050506000070807008F020
:102B50000407070600004040E040404030050505FE
:102B600006000088888898680505050600008888A2
:102B70008850200505050600008888A8A85005058E
:102B80000506000088502050880506060600FF88CC
:102B90008888780870050505060000F8102040F8C0
:102BA000030707060100204040804040200107073E
:102BB0000602008080808080808003070706010075
:102BC00080404020404080050202060002689000DC
:102BD0000000060000FFE0FFD11000FFFEFFD0FF65
:102BE000E0FFC1FFD1E240A0C8A6A22FF8002381D8
:102BF00027AC00AFFF64A5FF64FF64A4FFD0FFFE15
:102C000053442063617264206F6B0A006F70656EBD
:102C1000526F6F74206661696C65640A00766F6C30
:102C2000756D652E696E6974206661696C65640AEC
:102C300000534420696E6974206661696C0A006102
:102C400075746F25692E67004D3234004D32332084
:102C500025730057726974696E6720746F20666906
:102C60006C653A20006F70656E206661696C656402
:102C70002C2046696C653A20006F70656E20666195
:102C8000696C65642C2046696C653A200046696C65
:102C9000652073656C65637465640A002053697A06
:102CA000653A200046696C65206F70656E65643A10
:102CB00020006F70656E206661696C65642C20462B
:102CC000696C653A20002066696C653A2000646F83
:102CD000696E67006672657368004E6F7720004505
:102CE0004E4420535542524F5554494E450A0022F6
:102CF00020706F73002220706172656E743A22003A
:102D0000535542524F5554494E452043414C4C2057
:102D10007461726765743A22004B494C4C45442EED
:102D20002000747279696E6720746F2063616C6C27
:102D3000207375622D67636F64652066696C6573C7
:102D4000207769746820746F6F206D616E79206CD4
:102D50006576656C732E204D4158206C6576656CE8
:102D60002069733A004572726F723A003A0043610B
:102D7000703A0020643A0020693A0020703A00431B
:102D8000290A0061626C656420286D696E20746593
:102D90006D702000436F6C64206578747275646593
:102DA0007320617265200023646566696E6520206A
:102DB00044454641554C545F4B642000236465668E
:102DC000696E65202044454641554C545F4B69204F
:102DD0000023646566696E65202044454641554C74
:102DE000545F4B702000504944204175746F7475D6
:102DF0006E652066696E697368656421205075741C
:102E000020746865206C617374204B702C204B69B2
:102E100020616E64204B6420636F6E7374616E7406
:102E2000732066726F6D2062656C6F7720696E74B7
:102E30006F20436F6E66696775726174696F6E2E7D
:102E4000680A00504944204175746F74756E65209E
:102E50006661696C6564212074696D656F75740ABB
:102E600000544845524D414C2052554E415741590E
:102E700000546865726D616C2052756E617761797E
:102E80000048656174696E67206661696C656400FD
:102E900048656174696E67206661696C656400509D
:102EA0004944204175746F74756E65206661696C64
:102EB0006564212054656D7065726174757265205A
:102EC000746F6F20686967680A00204B643A2000BD
:102ED000204B693A2000204B703A20000A20436CB6
:102EE000617373696320504944200A002054753A85
:102EF0002000204B753A2000206D61783A20002098
:102F00006D696E3A200020643A2000206269617386
:102F10003A2000426564204C6576656C696E6720D6
:102F2000004661696C656420746F20656E61626C37
:102F30006520426564204C6576656C696E670A00A1
:102F40004D65736820426564204C6576656C20642D
:102F50006174613A0A004D65736820706F696E7420
:102F60002063616E6E6F74206265207265736F6C92
:102F70007665640A004D34323120696E636F727277
:102F800065637420706172616D657465722075731C
:102F90006167650A004175746F0020452F443D004C
:102FA000416476616E6365204B3D004E6F20636126
:102FB0007365206C696768740A0043616E6E6F7494
:102FC000206F70656E207375626469722000656E93
:102FD0007175657565696E672022006563686F3A73
:102FE000005265636F766572792042494E20777290
:102FF000697465206661696C65642E0A006F70658E
:103000006E206661696C65642C2046696C653A20A7
:103010000057726974696E6720746F2066696C6509
:103020003A2000544845524D414C2052554E41578C
:10303000415900546865726D616C2052756E6177FC
:103040006179004573746570732F6D6D00457374FD
:103050006570732F6D6D005A73746570732F6D6D8D
:10306000005A73746570732F6D6D005973746570B9
:10307000732F6D6D005973746570732F6D6D0058EB
:1030800073746570732F6D6D005873746570732F52
:103090006D6D004D6F74696F6E0053746570732FA2
:1030A0006D6D004A65726B00416363656C657261AA
:1030B00074696F6E0056656C6F6369747900436F55
:1030C0006E74726F6C0046696C2E204469612E002C
:1030D00046696C2E204469612E004F6666004F6E73
:1030E00020004520696E206D6D3300416476616E6D
:1030F0006365204B00416476616E6365204B00413F
:103100006476616E6365204B00436F6E74726F6C02
:103110000043616E6E6F7420656E74657220737506
:10312000626469723A2000022E2E004D61696E00C1
:1031300000457874727564656420746F74616C3ACC
:103140002000256C642E25696D00004C6F6E67654C
:103150007374206A6F622074696D653A20000054B0
:103160006F74616C207072696E742074696D653A59
:103170002000436F6D706C657465643A2000507276
:10318000696E7420436F756E743A20004D6178202B
:1031900054656D703A20313530004D696E205465AC
:1031A0006D703A203500544265643A4D656E646531
:1031B0006C2D7061727473004D61782054656D7070
:1031C0003A20323735004D696E2054656D703A20D3
:1031D000350054303A204D656E64656C2D70617217
:1031E0007473004661696C656420726573737572EF
:1031F0006563742066696C653A20004D3331004D7B
:103200003234004D3233202573004F70656E696E85
:1032100067207265737375726563742066696C6587
:103220003A200053746F70207072696E740052659A
:1032300073756D65207072696E74005072696E747A
:103240002070617573656400005072696E7420614E
:10325000626F72746564004E6F2053442063617224
:1032600064005072696E742066726F6D2053440062
:1032700053746F70207072696E7400526573756D4F
:1032800065207072696E740041626F7574205072AF
:10329000696E746572005061757365207072696E35
:1032A0007400436F6E74726F6C00426564204361FA
:1032B0006C6962726174696F6E00507265706172E0
:1032C000650054756E650041646A757374205A2DEB
:1032D0006178697300496E666F2073637265656E0D
:1032E000004261627973746570205A004D36303047
:1032F000204230004368616E67652066696C616DCD
:10330000656E7400466C6F7700466C6F770046619F
:103310006E2073706565640046616E20737065652C
:10332000640042656400426564004E6F7A7A6C65A1
:10333000004E6F7A7A6C6500426564205A004265DF
:1033400064205A00537065656400537065656400BD
:103350004D61696E00526573656E643A20006F6B53
:103360000020746F6F206C6F6E67206578747275C3
:1033700073696F6E2070726576656E7465640A009D
:1033800020636F6C6420657874727573696F6E204A
:1033900070726576656E7465640A00627573793A59
:1033A0002070617573656420666F7220696E707538
:1033B000740A00627573793A2070617573656420D0
:1033C000666F7220757365720A00627573793A20B0
:1033D00070726F63657373696E670A004B494C4C7A
:1033E00045442E20004B494C4C2063617573656445
:1033F000206279204B494C4C20627574746F6E2F9B
:1034000070696E0A004B494C4C45442E20004B49D4
:103410004C4C2063617573656420627920746F6F12
:10342000206D75636820696E6163746976652074C8
:10343000696D65202D2063757272656E7420636FEF
:103440006D6D616E643A2000290A0020627974650E
:10345000733B20637263200053657474696E6773F5
:103460002053746F726564202800202863616C63A8
:10347000756C6174656429210A0020213D20004596
:103480004550524F4D20435243206D69736D617416
:103490006368202D202873746F72656429200029C9
:1034A0000A002062797465733B20637263200020F8
:1034B00073746F7265642073657474696E677320CA
:1034C000726574726965766564202800204D6172AA
:1034D0006C696E3D563437290A0028454550524FD5
:1034E0004D3D00454550524F4D2076657273696FD2
:1034F0006E206D69736D6174636820004861726449
:10350000636F6465642044656661756C74205365FF
:103510007474696E6773204C6F616465640A00E8B7
:10352000030000E803000032000000102700000044
:10353000004843000048430000A04100003442001E
:1035400000204300002043F0F77B4400008C432020
:10355000520020204D393030204B004C696E65619F
:103560007220416476616E63653A0A00204400204F
:10357000490020204D333031205000504944207301
:10358000657474696E67733A0A0020460020420031
:1035900020480020204D3134352053004D617465A2
:1035A0007269616C20686561747570207061726108
:1035B0006D65746572733A0A00205A002059002024
:1035C0002047323920533320580020204D343230E8
:1035D0002053004D65736820426564204C65766514
:1035E0006C696E673A0A00205A0020590020204D6D
:1035F000323036205800486F6D65206F66667365FF
:10360000743A0A00204500205A0020590020580032
:1036100020420020540020204D32303520530041FC
:103620006476616E6365643A20533C6D696E5F66D3
:10363000656564726174653E20543C6D696E5F74AB
:10364000726176656C5F66656564726174653E2063
:10365000423C6D696E5F7365676D656E745F74691A
:103660006D655F75733E20583C6D61785F78795F5A
:103670006A65726B3E205A3C6D61785F7A5F6A655D
:10368000726B3E20453C6D61785F655F6A65726B69
:103690003E0A0020540020520020204D32303420B9
:1036A0005000416363656C65726174696F6E2028B8
:1036B000756E6974732F7332293A20503C707269A9
:1036C0006E745F616363656C3E20523C7265747218
:1036D0006163745F616363656C3E20543C74726126
:1036E00076656C5F616363656C3E0A00204500206F
:1036F0005A0020590020204D3230312058004D61B1
:1037000078696D756D20416363656C65726174697C
:103710006F6E2028756E6974732F7332293A0A0010
:10372000204500205A0020590020204D32303320FF
:1037300058004D6178696D756D20666565647261CC
:103740007465732028756E6974732F73293A0A00A3
:10375000204500205A0020590020204D39322058A1
:103760000053746570732070657220756E69743AC9
:103770000A0020204D3230302044300A0020204DF5
:103780003230302044002044697361626C65640A01
:103790000046696C616D656E742073657474696E42
:1037A00067733A0020204D3134392043203B2055A7
:1037B0006E69747320696E2043656C736975730A52
:1037C000002020473231202020203B20556E697494
:1037D0007320696E206D6D0A0050726568656174B2
:1037E00020504C4120456E640050726568656174DC
:1037F00020504C41204265640050726568656174D8
:1038000020504C41005072657061726500507265C5
:10381000686561742041425320456E6400507265B2
:1038200068656174204142532042656400507265AE
:103830006865617420414253005072657061726521
:10384000004C6576656C696E6720446F6E6521007B
:103850004D6F7665205A00473239205332004E654D
:10386000787420506F696E74002569202F202575AB
:103870000047323920533100473239205332004358
:103880006C69636B20746F20426567696E004D340C
:103890003238005072656865617420504C410043B5
:1038A0006F6F6C646F776E004368616E676520664A
:1038B000696C616D656E740044697361626C65204A
:1038C0007374657070657273004D3834005365749D
:1038D00020686F6D65206F66667365747300507243
:1038E000656865617420414253004175746F2068BA
:1038F0006F6D6500473238004D6F766520617869DD
:1039000073004D61696E004D6F76652058004D6FF4
:1039100076652059004D6F7665205A00457874729F
:1039200075646572004D6F766520302E316D6D00C7
:103930004D6F766520316D6D004D6F7665203130AD
:103940006D6D004D6F766520617869730045787400
:103950007275646572004D6F7665205A004D6F7602
:10396000652059004D6F7665205800457874727552
:10397000646572004D6F7665205A004D6F76652044
:1039800059004D6F76652058005072657061726500
:1039900000473238004D343230205330205A300046
:1039A000473238004D343230205330205A300047EF
:1039B0003120583131302059313937205A300047C1
:1039C0003120583131302059313937004731205AB0
:1039D00032300047312046393030300047312058EE
:1039E00033352E3620593231205A30004731205895
:1039F00033352E3620593231004731205A323000CB
:103A00004731204639303030004731205831383185
:103A100020593231205A3000473120583138312076
:103A2000593231004731204639303030004731209B
:103A3000583130302059313030205A353000436C05
:103A400069636B20746F20426567696E00486F6D13
:103A5000696E672058595A005265636F76657279AE
:103A60002042494E2064656C657465642E0A0052DC
:103A700065636F766572792042494E2064656C6596
:103A80007465206661696C65642E0A006572726FE8
:103A9000722077726974696E6720746F2066696C32
:103AA000650A0046696C652064656C657465643AF6
:103AB0000044656C6574696F6E206661696C65644D
:103AC0002C2046696C653A20006F70656E20666137
:103AD000696C65642C2046696C653A2000486F6DFE
:103AE0006520257325732573206669727374002021
:103AF00066697273740A005A0059005800486F6D65
:103B00006520005654726176206D696E00565472BD
:103B10006176206D696E005654726176206D696E13
:103B200000566D696E00566D696E00566D696E00C7
:103B3000566D6178204500566D6178204500566DC0
:103B40006178204500566D6178205A00566D617885
:103B5000205A00566D6178205A00566D61782059C0
:103B600000566D6178205900566D617820590056D5
:103B70006D6178205800566D6178205800566D614F
:103B8000782058004D6F74696F6E00416D61782028
:103B90004500416D6178204500416D6178205A00F3
:103BA000416D6178205A00416D6178205900416D66
:103BB0006178205900416D6178205800416D61782D
:103BC000205800412D74726176656C00412D74722D
:103BD0006176656C00412D72657472616374004199
:103BE0002D7265747261637400416363656C00419A
:103BF0006363656C004D6F74696F6E0056652D6A66
:103C000065726B0056652D6A65726B0056652D6A8C
:103C100065726B00567A2D6A65726B00567A2D6A52
:103C200065726B0056792D6A65726B0056792D6A44
:103C300065726B0056792D6A65726B0056782D6A35
:103C400065726B0056782D6A65726B0056782D6A26
:103C500065726B004D6F74696F6E004572726F72A2
:103C60002077726974696E6720746F2045455052E1
:103C70004F4D210A0000002100240027002A002DBA
:103C8000003000330001010000040107010A0100B7
:103C9000002200250028002B002E003100340002F5
:103CA000010000050108010B01000020002300268F
:103CB0000029002C002F0032000001000003010643
:103CC00001090105050505070508080808020202A3
:103CD000020A0A08080404040401010101010101A7
:103CE000010303030303030303040707070C0C0C7E
:103CF0000C0C0C0C0C020202020606060606060656
:103D0000060B0B0B0B0B0B0B0B01021020200808F2
:103D1000102040102040800201020108040201012D
:103D20000204081020408080402010080402018016
:103D3000040201804020100804020108040201016D
:103D40000204081020408001020408102040800076
:103D5000000A0B02090C0D0E080703040100000005
:103D60000000000000000000000000000000000053
:103D70000000000000000000000000121110000010
:103D80000000000000000000000000000000000033
:103D900000000000000220746F6F206C6F6E6720BF
:103DA000657874727573696F6E2070726576656E72
:103DB0007465640A0020636F6C64206578747275A2
:103DC00073696F6E2070726576656E7465640A0043
:103DD000FF00DD0011241FBECFEFD1E2DEBFCDBF5B
:103DE00000E00CBF14E0A0E0B2E0E6E4FFE602E091
:103DF0000BBF02C007900D92AA3EB107D9F729E187
:103E0000AAEEB4E001C01D92AF35B207E1F71EE1A2
:103E1000C9EEDEE100E006C021970109802FFE0116
:103E20000F94ED36C83ED10780E00807A9F70F943C
:103E3000851A0D9492370C9400002F923F924F9266
:103E40005F926F927F928F929F92AF92BF92CF922A
:103E5000DF92EF92FF920F931F93CF93DF93CDB733
:103E6000DEB7C556D1090FB6F894DEBF0FBECDBF81
:103E700081E090E090932718809326188091A317F3
:103E80008D3411F40C949B28843511F40C94E03596
:103E9000873411F00C941B368091A1179091A217D2
:103EA0008B31910509F4EDC5B4F4843091053CF4EF
:103EB00082309105CCF597FF30C00C9432368430B7
:103EC000910509F497C54A9711F00C9432360E9477
:103ED000C63C0C9432368A32910511F40C940C28AD
:103EE0004CF48C31910509F4FCC54D9709F4FEC5DD
:103EF0000C9432368B35910511F40C948C278C354B
:103F0000910511F40C9491278A35910511F00C94C8
:103F100032361092EF040C943236809129028111CE
:103F20000C9439360C94323620912902222311F454
:103F30000C94323611E0029709F010E00E94856877
:103F400082E50E94693B882309F43EC10E94033B3D
:103F50006B017C014090490E50904A0E60904B0ED0
:103F600070904C0E20914D0E30914E0E40914F0EA0
:103F70005091500E2EA73FA748AB59AB80916D0EC4
:103F800090916E0EA0916F0EB091700E8AAB9BABAC
:103F9000ACABBDAB2091710E3091720E4091730E9F
:103FA0005091740E22962CAF3DAF4EAF5FAF22976B
:103FB00020E030E0A901C701B6010F94942F8823B7
:103FC00009F4FEC4A30192016AA97BA98CA99DA949
:103FD0000F94942F81110FC02EA53FA548A959A970
:103FE00022966CAD7DAD8EAD9FAD22970F94942F30
:103FF000882309F4E5C420E030E0A901C701B60137
:104000000F94942F881F8827881F18130BC080E0F7
:1040100090E0A0E8BFE32A968CAF9DAFAEAFBFAFF4
:104020002A970AC020E030E040E85FEB2A962CAFE8
:104030003DAF4EAF5FAF2A97A30192016AA97BA95A
:104040008CA99DA90F94FD336AAF7BAF8CAF9DAF58
:104050002EA53FA548A959A922966CAD7DAD8EAD80
:104060009FAD22970F94FD3326966CAF7DAF8EAF38
:104070009FAF26972AAD3BAD4CAD5DADCA01B901EE
:104080000F94F92F4B015C0126962CAD3DAD4EAD42
:104090005FAD2697CA01B9010F94F92F9B01AC01BE
:1040A000C501B4010F94FE330F9469366EAB7FAB3C
:1040B00088AF99AF20E030E040E05FE30F94F92F44
:1040C0004B015C01A7019601C701B6010F94F92FBE
:1040D0006B017C01A5019401C501B4010F94F92F76
:1040E0009B01AC01C701B6010F94FD330F946936F3
:1040F0009B01AC012A966CAD7DAD8EAD9FAD2A972C
:104100000F94F92F4B015C012AA93BA94CA95DA989
:10411000C301B2010F94FE3320E030E040E05FE3E2
:104120000F94F92F6B017C0126966CAD7DAD8EADA1
:104130009FAD269790582EA93FA948AD59AD0F9431
:10414000DA349B01AC01C501B4010F94F92F9B0136
:10415000AC01C701B6010F94FE33A30192010F9485
:10416000FD336B017C0122962CAD3DAD4EAD5FADB4
:1041700022976EA57FA588A999A90F94FE3320E008
:1041800030E040E05FE30F94F92F2B013C012EA9B2
:104190003FA948AD59AD6AAD7BAD8CAD9DAD0F94D7
:1041A000DA349B01AC01C501B4010F94F92F9B01D6
:1041B000AC01C301B2010F94FE332EA53FA548A95F
:1041C00059A90F94FD3314C089E40E94693B8823E8
:1041D00029F00E94033B6B017C0103C0C12CD12C50
:1041E00076018AE40E94693B8823F9F00E94033B30
:1041F00022966CAF7DAF8EAF9FAF229720E030E06C
:10420000A901C701B6010F94942F81111EC020E0AF
:1042100030E0A90122966CAD7DAD8EAD9FAD2297A9
:104220000F94942F811111C0CBC320E030E0A9017D
:10423000C701B6010F94942F882309F4C1C32296B5
:104240001CAE1DAE1EAE1FAE2297D701C601B058E0
:104250008EA79FA7A8ABB9AB22962CAD3DAD4EADB6
:104260005FAD229750582AAB3BAB4CAB5DAB9C018A
:10427000AD01BC01CD010F94F92F4B015C012AA9BE
:104280003BA94CA95DA9CA01B9010F94F92F9B0163
:10429000AC01C501B4010F94FE330F9469366A96E0
:1042A0006CAF7DAF8EAF9FAF6A978091490E9091B2
:1042B0004A0EA0914B0EB0914C0E8EAB9FABA8AFA7
:1042C000B9AFA7019601BC01CD010F94FE332A9628
:1042D0006CAF7DAF8EAF9FAF2A9720914D0E30917E
:1042E0004E0E40914F0E5091500E26962CAF3DAF82
:1042F0004EAF5FAF269722962CAD3DAD4EAD5FAD74
:10430000229726966CAD7DAD8EAD9FAD26970F940E
:10431000FE332E966CAF7DAF8EAF9FAF2E97809100
:104320006D0E90916E0EA0916F0EB091700E629610
:104330008CAF9DAFAEAFBFAF62972A962CAD3DADAF
:104340004EAD5FAD2A97BC01CD010F94FD336B01DB
:104350007C012091710E3091720E4091730E50913C
:10436000740E66962CAF3DAF4EAF5FAF66972E963C
:104370002CAD3DAD4EAD5FAD2E9766966CAD7DAD6F
:104380008EAD9FAD66970F94FD334B015C0180911C
:10439000510E9091520EA091530EB091540EA296D0
:1043A0008CAF9DAFAEAFBFAFA2979C01AD01609146
:1043B000750E7091760E8091770E9091780E0F9415
:1043C000FD336AAF7BAF8CAF9DAF2091790E3091FA
:1043D0007A0E40917B0E50917C0E6E962CAF3DAFC5
:1043E0004EAF5FAF6E978091550E9091560EA09193
:1043F000570EB091580EA6968CAF9DAFAEAFBFAF23
:10440000A697A70196016EA57FA588A999A90F94E3
:10441000F92F2B013C01A50194016AA97BA98CA964
:104420009DA90F94F92F9B01AC01C301B2010F9418
:10443000FE332B013C01A50194016EA57FA588A93F
:1044400099A90F94F92F4B015C01A70196016AA964
:104450007BA98CA99DA90F94F92F9B01AC01C501E3
:10446000B4010F94FD33A30192010F9471346B01D9
:104470007C0120E030E0A9010F94942F87FF0AC04F
:104480002BED3FE049EC50E4C701B6010F94FE3339
:104490006B017C01112351F02BED3FE049EC50E41E
:1044A000C701B6010F94FD336B017C0120E030E0C1
:1044B000A901C701B6010F94942F811126C06296FD
:1044C0002CAD3DAD4EAD5FAD62976EA97FA988ADB5
:1044D00099AD0F94942F811118C066962CAD3DAD07
:1044E0004EAD5FAD669726966CAD7DAD8EAD9FAD42
:1044F00026970F94942F811108C0FBEDCF2EFFE07B
:10450000DF2EF9ECEF2EF0E4FF2E6A962CAD3DADD8
:104510004EAD5FAD6A97C701B6010F94F92F9B01AD
:10452000AC010F94F92F4B015C012AAD3BAD4CADB2
:104530005DADCA01B9010F94F92F9B01AC01C50112
:10454000B4010F94FE330F9469364B015C012FE6E2
:1045500032E143E85AE30F94942F87FD2DC2C50141
:10456000B4010F9473350F9447351B01672B19F471
:1045700022242394312CB10180E090E00F94982FF5
:104580004B015C019B01AC01C701B6010F94DA3409
:104590006EAB7FAB88AF99AFA50194016AAD7BADDF
:1045A0008CAD9DAD0F94DA346A966CAF7DAF8EAF53
:1045B0009FAF6A97A6962CAD3DAD4EAD5FADA69769
:1045C0006E966CAD7DAD8EAD9FAD6E970F94FD3345
:1045D000A50194010F94DA346E966CAF7DAF8EAF67
:1045E0009FAF6E972EA93FA948AD59ADCA01B90139
:1045F0000F94F92F20E030E040E05FE30F94F92FB3
:104600009B01AC0160E070E080E89FE30F94FD3314
:1046100062966CAF7DAF8EAF9FAF6297A2962CADC6
:104620003DAD4EAD5FADA29729873A874B875C873A
:10463000A6968CAD9DADAEADBFADA6978D879E877E
:10464000AF87B88B6091080270910902072E000CA9
:10465000880B990B0F949A2F2091430230914402BA
:1046600040914502509146020F94F92F2AE037ED10
:1046700043E25CE30F94F92F6AA37BA38CA39DA371
:104680000F948D0C9B01AC0128533F4F4F4F5F4F50
:1046900066962CAF3DAF4EAF5FAF66974EA45FA45A
:1046A00068A879A841E050E024965FAF4EAF249708
:1046B00059E15AAF2496AEADBFAD2497A215B3050C
:1046C00009F43FC10E9416720F948D0CDC01CB01DE
:1046D00066962CAD3DAD4EAD5FAD6697821B930BDC
:1046E000A40BB50BB7FD11C00F948D0C9B01AC0151
:1046F00028533F4F4F4F5F4F66962CAF3DAF4EAFA5
:104700005FAF669780E00E94AEC63AAD31503AAFD7
:10471000332309F441C062962CAD3DAD4EAD5FAD83
:1047200062976AA97BA98CA99DA90F94F92F6B01A7
:104730007C012EA93FA948AD59ADB201C3010F9428
:10474000F92FA70196010F94FE337B018C0162962D
:104750002CAD3DAD4EAD5FAD6297B201C3010F947C
:10476000F92F4B015C012EA93FA948AD59AD6AA9AB
:104770007BA98CA99DA90F94F92F9B01AC01C501C0
:10478000B4010F94FD332B013C01C701D8018AAB62
:104790009BABACABBDAB57C024964EAD5FAD249781
:1047A000BA0180E090E00F94982F2EA93FA948AD60
:1047B00059AD0F94F92F4B015C010F94D7346B0165
:1047C0007C01C501B4010F945F364B015C01A70168
:1047D00096016EA57FA588A999A90F94F92F2B01A1
:1047E0003C01A501940122966CAD7DAD8EAD9FADCF
:1047F00022970F94F92F9B01AC01C301B2010F94D2
:10480000FE332B013C01A50194016EA57FA588A96B
:1048100099A90F94F92F4B015C01A70196012296EB
:104820006CAD7DAD8EAD9FAD22970F94F92F9B019E
:10483000AC01C501B4010F94FD336AAB7BAB8CAB0B
:104840009DAB59E15AAF9201A3012A966CAD7DADA3
:104850008EAD9FAD2A970F94FE3369837A838B8345
:104860009C832AA93BA94CA95DA92E966CAD7DAD70
:104870008EAD9FAD2E970F94FE336D837E838F8315
:1048800098876A962CAD3DAD4EAD5FAD6A97698550
:104890007A858B859C850F94FE3369877A878B8711
:1048A0009C876E962CAD3DAD4EAD5FAD6E976D8520
:1048B0007E858F8598890F94FE336D877E878F87DD
:1048C000988B80915A02882321F0CE0101960E9494
:1048D0001D4FE0907D1889819A81AB81BC818E8BC0
:1048E0009F8BA88FB98F8D819E81AF81B8858A8F6C
:1048F0009B8FAC8FBD8F89859A85AB85BC858E8F4C
:104900009F8FA8A3B9A3CE0146960E9410928E0154
:104910000E5D1F4F9E01235F3F4FAE01425E5F4F12
:10492000BE01665E7F4FCE0146960F9457122496C5
:104930008EAD9FAD2497019624969FAF8EAF24979E
:10494000B9CEE0907D1880916D0E90916E0EA09181
:104950006F0EB091700E8E8B9F8BA88FB98F809148
:10496000710E9091720EA091730EB091740E8A8F99
:104970009B8FAC8FBD8F8091750E9091760EA0911C
:10498000770EB091780E8E8F9F8FA8A3B9A3CE011A
:1049900046960E9410928E010E5D1F4F29E73EE061
:1049A000AE01425E5F4FBE01665E7F4FCE0146960E
:1049B0000F9457120E94BC3C0E9418920C943236FD
:1049C000E5E6FDE284918F010F5F1F4F882321F000
:1049D0000E94253AF801F6CFEFEAF2E084918F01C8
:1049E0000F5F1F4F882311F40C9432360E94253A32
:1049F000F801F4CF80E50E94693B882329F00E94EA
:104A000031916B017C0103C0C12CD12C760183E56F
:104A10000E94693B882361F00E94033B20E030E064
:104A20004AE754E40F94F92F0F9447356B017C014A
:104A30000E946C7680915C02811105C060E085EC7B
:104A400092E00E94EC5F0E94189280913018909141
:104A50003118A0913218B0913318C80ED91EEA1E31
:104A6000FB1E0F948D0CDC01CB018C199D09AE0946
:104A7000BF09B7FD02C00C94323680E00E94AEC67A
:104A8000F0CF0E94ABEB81110C94323680E090E0C5
:104A9000A0E2B1E489839A83AB83BC8380E090E099
:104AA000AEE3B3E48D839E83AF83B88780E090E06C
:104AB000A0EAB1E489879A87AB87BC8780E50E942A
:104AC000693B882319F00E94D33A01C060E06E8BE5
:104AD000BE016F5F7F4FCE0146960F9499180C94DC
:104AE000323680E00E94026B0C94323683E50E94DD
:104AF000693B882319F00E94E33A01C080E0E82E68
:104B0000F12CB6E0EB16F10470F0ECE7F3E08491E1
:104B10008F010F5F1F4F882311F40C9432360E94CF
:104B2000253AF801F4CF823009F44CC028F48823E8
:104B300071F0813081F1CDC1843009F4BBC108F43A
:104B400058C1853009F0C5C10E94096AC2C180916F
:104B50002D19882399F080912305811103C061E309
:104B600073E002C06DE273E084E593E00F940010FF
:104B70008AE00E94253A0E94D367ABC1ECE5F3E0DE
:104B800084918F010F5F1F4F882309F4A2C10E94F7
:104B9000253AF801F5CF0F943119109201021092C5
:104BA000000280917E1881110AC08DE493E09093F9
:104BB0008F1080938E100E94E98D0C94323672E033
:104BC000E72EF12C809100029091010297FF0EC018
:104BD000E4E2F3E084918F010F5F1F4F882311F40B
:104BE0000C9432360E94253AF801F4CF0097A1F4D4
:104BF00080915A028093F00419821A821B821C82CF
:104C00001E8A1F8A188E198EBE016F5F7F4FCE01DC
:104C100046960E94FB6A2CC08150982F917897FF8E
:104C200003C091509E6F9F5FE92F87FD8F5F859531
:104C300080FF02C0E1E0E91BEE0FFF0BE80FF11D62
:104C400087FDFA95EE0FFF1FEE0FFF1FE25DF64E98
:104C50008091510E9091520EA091530EB091540E2E
:104C600080839183A283B3838091F00480935A025E
:104C70002091000230910102243031050CF070C007
:104C800010925A02C901019690930102809300028A
:104C9000922F917897FF03C091509E6F9F5F892F4D
:104CA000022F27FF02C001E0020F059500FF02C09E
:104CB00081E0891B4091510E5091520E6091530E2C
:104CC0007091540E4AA35BA36CA37DA319821A8230
:104CD0001B821C8240E050E060EA70E44E8B5F8BE8
:104CE000688F798FE4E00E02800111240C5A1C4E6B
:104CF000F4E08F02C00111249C01245A3C4E69014A
:104D00009E012F5F3F4FAE014A5E5F4FB801C60163
:104D10000E94146A19821A821B821C82BE016F5F74
:104D20007F4FCE0182960E94FB6AF60180819181BD
:104D3000A281B3818093490E90934A0EA0934B0EAB
:104D4000B0934C0EF80180819181A281B381809350
:104D50004D0E90934E0EA0934F0EB093500E46C042
:104D600080E090E0A0EAB0E48093510E9093520E60
:104D7000A093530EB093540E0E94FD8C0E946C764B
:104D80008FEF9FEF9093010280930002E0E1F3E048
:104D900084918F010F5F1F4F882321F00E94253AD5
:104DA000F801F6CF83E992E09A83898304E610E064
:104DB0001F8B0E8BBE016F5F7F4FCE0146960E9408
:104DC0002FB48AEB92E09A8389831F8B0E8BBE01EE
:104DD0006F5F7F4FCE0146960E942FB481E0809393
:104DE0002D190E94026B81E00E94EE6910927E18DC
:104DF00070C088E50E94693B8823A1F00E94D33AE5
:104E00000FEF060F0230A8F0E9EFF2E084918F0176
:104E10000F5F1F4F882311F40C9432360E94253AFD
:104E2000F801F4CF88E50E94253A0F9400260C94EF
:104E3000323689E50E94693B8823A1F00E94D33A6B
:104E40001FEF160F1230A8F0E2EEF2E084918F010E
:104E50000F5F1F4F882311F40C9432360E94253ABD
:104E6000F801F4CF89E50E94253A0F9400260C94AE
:104E700032368AE50E94693B8823A9F00E94033BF1
:104E8000212F110F330B200F311D200F311D220F49
:104E9000331F220F331FF901E25DF64E60837183E9
:104EA0008283938316C08AE50E94253A0F940026D8
:104EB0000C9432368AE50E94693B8823A1F30E9454
:104EC000033B6093761770937717809378179093CE
:104ED0007917F1E0EF1AF10822E0E216F104C0F4CC
:104EE000609100027091010277FD12C0653071057A
:104EF00014F064E070E083ED92E00F94E70F64E05B
:104F000070E08EEC92E00F94E70F8AE00E94253A61
:104F10000E94BF630C94323681E08093EF040C94BE
:104F200032360E946C7636EA232E32E0332E49E385
:104F3000C42E47E0D42EE12CF12C00E010E01EA698
:104F4000D1018D911D010E94693B882309F451C054
:104F50000E94033B4B015C010330110559F0F7013E
:104F6000E351F24F20813181428153810F94FD330F
:104F70004B015C01F701E75BF14F208131814281F8
:104F80005381C501B4010F94FD332B013C012DEB7E
:104F900037E346E855EB0F94243687FD0AC02DEB26
:104FA00037E346E855E3C301B2010F94942F181676
:104FB00004F50330110559F48092550E9092560E67
:104FC000A092570EB092580EB1E0BEA712C0A30136
:104FD0009201F60160817181828193810F94FE3389
:104FE000D6016D937D938D939C931397C8010E9476
:104FF0004A8D0F5F1F4FB4E0CB0ED11CE4E0EE0EE4
:10500000F11C0430110509F09BCFFEA5FF2309F424
:105010007FCF0E9466A87CCF80912902882311F45B
:105020000C94323689E40E94693BF82E882321F0E3
:105030000E94D33A062F01C000E08AE40E94693B37
:10504000E82E882331F00E94D33A162FF11004C0C5
:105050000AC010E0FF20B1F0023010F40C94663961
:10506000E3E9F3E003C01230D8F70CC084918F015C
:105070000F5F1F4F882311F40C9432360E94253A9B
:10508000F801F4CF0E94753BFF2091F024E002026A
:10509000F0011124E45AFC4E80819181A281B381F8
:1050A00080936D0E90936E0EA0936F0EB093700E62
:1050B000EE2091F034E01302F0011124EC5AFC4E82
:1050C00080819181A281B3818093710E9093720E41
:1050D000A093730EB093740E80E50E94693B882301
:1050E00019F00E94F43A03C080E50E943A3B86E43E
:1050F0000E94693B8823D9F00E94033B6B017C012D
:1051000020E030E0A9010F942436181684F420E042
:1051100030E040E752E4C701B6010F94DA346093FF
:1051200043027093440280934502909346020E948A
:1051300042CA0C9432368091A1179091A2178237FF
:10514000910509F418C60CF0D4C08B34910509F40C
:1051500043C30CF076C08831910509F4F1C1ECF538
:105160008231910509F401C6F4F497FF02C00C9452
:105170003236823091050CF4C4C1419711F00C9481
:10518000323660E082EB93E00E94EC5F5F988A9891
:105190009FB7F894809108018E7F809308019FBF8C
:1051A00012980C9432368531910509F4AEC144F45D
:1051B000449711F00C9432360E9467660C94323694
:1051C0008631910509F4A5C1479711F00C94323648
:1051D000E0919F17F091A017A6C18E31910509F4B7
:1051E0000CC2C4F48A31910509F4BDC10CF4B3C1F9
:1051F0008B31910509F4C5C14C9711F00C943236EE
:1052000040E060E080919F179091A0170E9419A341
:105210000C9432368032910509F409C20CF453C261
:105220008A32910509F47BC2C19711F00C94323691
:10523000F090EA0481E0F826F092EA04E5E0F4E078
:10524000AEC28836910509F4E6C35CF58235910556
:1052500009F484C59CF48D34910509F4C7C20CF49B
:10526000BFC28E34910509F4C5C28135910511F094
:105270000C9432360E94AA650C943236843591051E
:1052800009F473C50CF46DC58535910509F470C535
:105290008C35910511F00C9432360E949C640C946C
:1052A00032368D36910509F424C59CF48A36910571
:1052B00009F44EC50CF4DBC48B36910509F44BC5DB
:1052C0008C36910511F00C94323610923C020C94FD
:1052D00032368F36910509F408C40CF4F3C38037D5
:1052E000910509F473C48137910509F477C40C94CE
:1052F0003236823E910511F40C9400320CF079C0E4
:105300008E3B910509F40CC5C4F58837910509F465
:1053100033C6CCF48537910509F483C544F483374B
:10532000910511F00C943236E0EDF5E029C5863791
:10533000910509F47EC58737910511F00C9432363A
:10534000EFEBF6E0B5C58C38910509F473C45CF455
:105350008937910511F00C94323610926513109232
:1053600064130C9432368139910509F40BC68B39DC
:10537000910509F499C40C9432368D3C910509F4D9
:105380008EC6C4F4893C910509F4FFC54CF4883CF1
:10539000910511F00C9432360E944AB10C943236C9
:1053A0008B3C910509F4F4C58C3C910509F40DC6BC
:1053B0000C943236833D910509F4F8C684F48E3C92
:1053C000910511F00C943236E6EACE2EE2E0DE2EA4
:1053D000FFE0EF2EF5E0FF2E00E010E0D5C68C3D9B
:1053E000910509F4C3C78D3D910509F4C2C70C941A
:1053F0003236853A41E0940711F40C9466320CF091
:1054000042C08F32A1E09A0711F40C946032ECF4A0
:105410008C32E1E09E0711F40C9434323CF4823279
:10542000914011F40C9429320C9432368D3231E0D3
:10543000930711F40C945D328E32914011F00C946C
:1054400032360E9426B00C943236803951E09507EE
:1054500011F40C9463324CF48336914011F00C94A7
:1054600032360E94ACA80C9432368A39E1E09E07AD
:1054700009F4B0C3843A914011F00C9432360E9482
:10548000E4AA0C943236873F21E0920711F40C9481
:105490004C33ECF4843F41E0940711F40C94463310
:1054A0003CF48C3A914011F40C9469320C943236ED
:1054B000853FB1E09B0711F40C944933863F91403E
:1054C00011F00C9432360E94E7DC0C9432368438AA
:1054D000F3E09F0711F40C94CB353CF488359240EF
:1054E00011F40C9456330C943236803A43E094070E
:1054F00009F4DCC0873E934011F40C94CE350C9433
:1055000032360E9437670C9432360E944BA60C94B8
:1055100032361092CE131092CF130C943236803262
:1055200009F41082319680818111F9CF40E061E069
:1055300080919F179091A0170E9419A30C94323666
:105540008091CF13882319F081E08093CE130E94BD
:105550003CED0C9432361092CE1384E893E10E9415
:1055600086750C9432368091CF13882311F40C94F5
:10557000323683E50E94693B81110C943E360C94CF
:1055800032368091CF13882351F1EBEBF3E0849115
:105590008F010F5F1F4F882321F00E94253AF801E9
:1055A000F6CF60914A1670914B1680914C169091EF
:1055B0004D164AE00E942C3A8FE20E94253A6091F3
:1055C00046167091471680914816909149164AE008
:1055D0000E942C3A8AE00E94253A0C943236EDEC77
:1055E000F3E084918F010F5F1F4F882311F40C9417
:1055F00032360E94253AF801F4CF8091CF138823E8
:1056000011F40C94323689E995E10F94E70689E9A3
:1056100095E10E94A3481092CD131092CC13809173
:105620009F179091A0170E9454EC0C9432368091F1
:10563000CE1381110E946C768091CF13882311F4D0
:105640000C94323680E50E94693B882319F00E9451
:10565000F43A03C080E50E943A3B182F482F61E0DE
:1056600080919F179091A0170E9419A383E50E9433
:10567000693B882381F00E94D33AAB01BC0140937F
:105680004A1650934B1660934C1670934D1689E949
:1056900095E10F9428078091CF13882319F081E0BA
:1056A0008093CE1311110C94323651CF80919F17F5
:1056B0009091A01721E02093CD1340E060E00E947C
:1056C00019A30C94323684E893E10E9459756E8BCD
:1056D0007F8B888F998FBE016F5F7F4FCE0146967B
:1056E0000E94419160E0CE0101960E940C60EBEDBA
:1056F000FFE284918F010F5F1F4F882321F00E94EA
:10570000253AF801F6CFBE016F5F7F4F8EED93E033
:105710000F9400108AE00E94253A0C94323683E5FB
:105720000E94693B882311F40C9432360E94E33ABC
:10573000E82E80E50E94693B882341F00E94D33A1D
:105740008B0177FF02C00C94323602C00DE010E0EE
:10575000902FE3E9F7E088E28E0F2491921729F069
:1057600031968E13FACF0C944E36E5E6FDE2849125
:105770008F010F5F1F4F882321F00E94253AF80107
:10578000F6CFEBEEF3E084918F010F5F1F4F88237C
:1057900011F40C9432360E94253AF801F4CF84912A
:1057A0008F010F5F1F4F882321F00E94253AF801D7
:1057B000F6CFF11003C0EFEFF3E002C0EAEFF3E041
:1057C00084918F010F5F1F4F882311F40C943236A0
:1057D0000E94253AF801F4CF0E943CED0C94323639
:1057E00084E893E10E9486750C9432360E94D7B10A
:1057F0000C94323683E50E94693B882359F00E945D
:10580000D33A6E34710531F484E893E10F94361085
:105810000C9432361E8A1F8A188E198EE0E7F4E047
:1058200084918F010F5F1F4F882321F00E94253A3A
:10583000F801F6CFE7E6F4E084918F010F5F1F4F88
:10584000882321F00E94253AF801F6CF6091921347
:105850007091931380E090E04AE00E942C3AEAE5D0
:10586000F4E084918F010F5F1F4F882321F00E9485
:10587000253AF801F6CF609194137091951380E06A
:1058800090E04AE00E942C3AEFE4F4E084918F012A
:105890000F5F1F4F882321F00E94253AF801F6CFB1
:1058A000609192137091931380919413909195133A
:1058B000681B790B8091841390918513019721E0E7
:1058C00030E0029710F020E030E0621B730B80E0C4
:1058D00090E04AE00E942C3A8AE00E94253AE7E4F0
:1058E000F4E084918F010F5F1F4F882321F00E9405
:1058F000253AF801F6CF8091961390919713A091D5
:105900009813B09199138E8B9F8BA88FB98FBE017E
:105910006F5F7F4FCE0146960E944191EAE3F4E02B
:1059200084918F010F5F1F4F811105C0CE01019639
:105930007C018C0104C00E94253AF801F1CFD80106
:105940008D918D01882319F00E94253AF8CF80911E
:105950009A1390919B13A0919C13B0919D138E8BE1
:105960009F8BA88FB98FBE016F5F7F4FCE01469688
:105970000E944191EAE2F4E084918F010F5F1F4F92
:10598000882321F00E94253AF801F6CFF701819192
:105990007F01882319F00E94253AF8CF8AE00E94FF
:1059A000253AE2E2F4E084918F010F5F1F4F8823D4
:1059B00021F00E94253AF801F6CFE2E1F4E084916B
:1059C0008F010F5F1F4F882321F00E94253AF801B5
:1059D000F6CF20E030E04AE754E460919E137091E6
:1059E0009F138091A0139091A1130F94DA3442E099
:1059F0000E943F92E0E1F4E084918F010F5F1F4F1E
:105A0000882321F00E94253AF801F6CF8AE00E940F
:105A1000253A0C94323688E690E00E948B8D8111F5
:105A20000C9432368091711783FF02C00C94323689
:105A300083E50E94693B882309F440C00E94033B30
:105A40000F944235709356196093551980E00E9467
:105A5000E3700E94033B20E030E04AEA52E40F94F6
:105A6000942F18163CF00E94D7B160E08FE794E0C5
:105A70000E94EC5F0E94033B20917F1830918018B8
:105A800040918118509182180F9424361816B4F45E
:105A900084E493E09F938F938091B30790E0019605
:105AA0009F938F9388E794E09F938F931F920E9418
:105AB0008EEB0FB6F894DEBF0FBECDBF0F94DF287C
:105AC0000C9432368EE40E94693B882311F40C94C6
:105AD00032360E94D33A60937F0E7093800E80938B
