:100000000C944B1E0C947C1E0C947C1E0C947C1E39
:100010000C947C1E0C947C1E0C947C1E0C947C1EF8
:100020000C947C1E0C947C1E0C947C1E0C947C1EE8
:100030000C947C1E0D94D6050C947C1E0C947C1E96
:100040000C947C1E0C9412B80C947C1E0C947C1E98
:100050000C947C1E0C947C1E0C941EE50D94BB0726
:100060000C947C1E0C94CD380C947C1E0C947C1E3D
:100070000C947C1E0C947C1E0C947C1E0C947C1E98
:100080000C947C1E0C947C1E0C947C1E0C947C1E88
:100090000C947C1E0C947C1E0C947C1E0C947C1E78
:1000A0000C947C1E0C947C1E0C947C1E0C947C1E68
:1000B0000C947C1E0C947C1E0C947C1E0C947C1E58
:1000C0000C947C1E0C947C1E0C947C1E0C947C1E48
:1000D0000C947C1E0C947C1E0C947C1E0C947C1E38
:1000E0000C947C1E3A6C436C4D6C566C5F6C7A6C55
:1000F000876C906C686C716CC598FD98FF980C9932
:10010000129915991D99D100F5000901DB001F0115
:10011000D700EB00F300E100D3000B010101230144
:100120001501D700FD00ED00FF00F900E500050115
:100130001B01D500F100DD0013010701FB000D01DB
:100140001101E300E900F100F700E7001D01084A92
:10015000D73B3BCE016E84BCBFFDC12F3D6C7431DB
:100160009ABD56833DDA3D00C77F11BED9E4BB4C32
:100170003E916BAAAABE000000803F05A84CCDB2FC
:10018000D44EB93836A9020C50B9918688083CA6DD
:10019000AAAA2ABE000000803F000D947B050D94A2
:1001A000700B0D94F9040D940E050D94F5060D9445
:1001B00033050D945F040D94EF040D94FF060D9428
:1001C000511F0D940A050D943C070D94DC060D9407
:1001D0005A070D9446070D9400050D942A050D94B9
:1001E0003A090D946E070D9404050D94FC040D94CA
:1001F00050070D94D7060D9419070D9426050D94FC
:100200002E050D9418050D94AF1F0D94E1060D9465
:100210000F070D94EB040D9412050D9423070D9414
:100220007D050D942D070D9407070D9420050D9461
:10023000980B0D94B3040D94EB060D9464070D9484
:10024000F5040D9459050D941C054E414E494E4937
:100250005459494E46CDCCCC3D0AD7233C17B7D193
:100260003877CC2B329595E6241FB14F0A00002039
:10027000410000C84200401C4620BCBE4CCA1B0EB8
:100280005AAEC59D74434F4D4D554E494341544957
:100290004F4E0044525952554E004552524F525300
:1002A00000494E464F004543484F0047322F4733E1
:1002B0002062616420706172616D65746572730A99
:1002C00000536C6565702E2E2E00206F6620004D49
:1002D000424C2047323920706F696E7420005920DB
:1002E0006F7574206F662072616E67652028312DEE
:1002F00032292E0A0058206F7574206F66207261B3
:100300006E67652028312D32292E0A004D657368ED
:100310002070726F62696E6720646F6E652E0A00CE
:100320005374617274206D6573682070726F6269B6
:100330006E67207769746820224732392053312252
:100340002066697273742E0A0047323920533200D6
:1003500053746174653A20004D657368206265646A
:10036000206C6576656C696E6720686173206E6FBE
:1003700020646174612E0A0053206F7574206F66CB
:100380002072616E67652028302D35292E0A004DB8
:1003900065736820706F696E742063616E6E6F7430
:1003A000206265207265736F6C7665640A00526521
:1003B00073756D696E67207072696E74004A756C32
:1003C000696120323031382042617369632072657F
:1003D0006164792E00436C69636B20746F207265D1
:1003E00073756D652E2E2E004E6F206D6F76652E07
:1003F00000456E642066696C65206C6973740A0040
:10040000426567696E2066696C65206C6973740A61
:10041000005344207072696E74696E67206279744B
:100420006520004E6F74205344207072696E7469A9
:100430006E670A005072696E742074696D653A20A7
:100440000050726F7465637465642050696E0A00B1
:100450006F6E2E0A006F66662E0A00473236204401
:10046000656275672000452569202573004A756C13
:1004700069612032303138204261736963207265CE
:100480006164792E00A602A1029A02930285026F8E
:1004900066660044454255473A004B494C4C45443A
:1004A0002E20004D3131332053006F6B00454D45F8
:1004B0005247454E43595F504152534552004341C4
:1004C00053455F4C494748545F4252494748544E50
:1004D00045535300544F47474C455F4C4947485498
:1004E0005300534F4654574152455F504F57455262
:1004F000004255494C445F50455243454E54004CD0
:100500004556454C494E475F44415441005A5F505F
:10051000524F4245004155544F4C4556454C0050B2
:1005200052494E545F4A4F420050524F4752455332
:1005300053004155544F5245504F52545F54454D0E
:100540005000564F4C554D45545249430045455077
:10055000524F4D0053455249414C5F584F4E5F58E2
:100560004F4646004649524D574152455F4E414D18
:10057000453A4D61726C696E20312E312E3820283B
:100580004769746875622920534F555243455F434C
:100590004F44455F55524C3A68747470733A2F2F2C
:1005A0006769746875622E636F6D2F4D61726C6937
:1005B0006E4669726D776172652F4D61726C696EFE
:1005C0002050524F544F434F4C5F56455253494F62
:1005D0004E3A312E30204D414348494E455F5459E3
:1005E00050453A4A756C6961203230313820426199
:1005F0007369632045585452554445525F434F55E3
:100600004E543A3120555549443A63656465326128
:1006100032662D343161322D343734382D39623120
:10062000322D6335356336326633363766660A00F7
:100630002F2F20007A5F6D61783A2000795F6D611D
:10064000783A2000785F6D696E3A20005265706FCD
:100650007274696E6720656E6473746F7020737452
:10066000617475730A004D31343520533C696E64F2
:1006700065783E206F7574206F662072616E6765C5
:100680002028302D31290A0053657474696E672063
:1006900054726176656C20416363656C6572617448
:1006A000696F6E3A200053657474696E67205265F5
:1006B000747261637420416363656C65726174690F
:1006C0006F6E3A200053657474696E6720507269CA
:1006D0006E7420416363656C65726174696F6E3A14
:1006E000200053657474696E67205072696E7420BF
:1006F000616E642054726176656C20416363656C41
:1007000065726174696F6E3A2000205A00205900AA
:10071000580020204D61783A2000205A00205900CE
:10072000580020204D696E3A20004F6E20004F6621
:100730006600536F667420656E6473746F70733AED
:100740002000000136372603FF3C3D38FF0F2E30D6
:100750003EFF13FF0C0809FFFFFF1A1C18FFFF08DC
:10076000440AFF43FFFFFFFFFFFF20643A002069B8
:100770003A0020703A0043290A0061626C656420E7
:10078000286D696E2074656D702000436F6C642065
:1007900065787472756465732061726520004265C6
:1007A00064204C6576656C696E6720004661696CF3
:1007B000656420746F20656E61626C6520426564BB
:1007C000204C6576656C696E670A004D657368201C
:1007D000426564204C6576656C20646174613A0AF8
:1007E000004D36303020486F74656E6420746F6F32
:1007F00020636F6C6420746F206368616E6765208E
:1008000066696C616D656E740A004175746F0020D5
:10081000452F443D00416476616E6365204B3D0089
:100820004E6F2063617365206C696768740A0041CC
:1008300063746976652045787472756465723A20D0
:1008400000556E6B6E6F776E20636F6D6D616E64B9
:100850003A2022004B494C4C45442E2000202D20AC
:10086000496E76616C69642065787472756465722E
:10087000206E756D62657220210A00000000000084
:100880000000000000000000000000000000000068
:100890000000000000000000000000000000000058
:1008A0000000000000000000000000000000000048
:1008B000001F0FC00000000000000000000000004A
:1008C000007F87F000000000000000000000000032
:1008D000007FC7F8000000000000000000000000DA
:1008E00000FFE3FC0000000000000000000000002A
:1008F00001FFF1FC0000000000000000000000000B
:1009000003FFF0FE000000000000000000000000F7
:1009100007FFF87F0000000000000000000000005A
:1009200007FFFC7F800000000000000000000000C6
:100930000FE1FE3F8000000000000000000000000A
:100940001F807F1FC00000000000000000000000AA
:100950003F9E3F0FE000000000000000000000008C
:100960003F1F3F8FF000000000000000000000006B
:100970007E3F1FC7F80000000000000000000000DC
:10098000FC7F8FE3F8000000000000000000000181
:10099000F8FF87F1FC0000000000000000000003E9
:1009A000F9FF07F0FE000000000000000000000357
:1009B000F00603F8FF000000000000000000000740
:1009C000F00001FC7F800000000000000000000F2C
:1009D000F8FE00FE20000000000000000000001FE4
:1009E000F87F007E00000000000000000000001FF3
:1009F000FC7F807E3F800000000000000000003F80
:100A0000FE3F803C7F000000000000000000007FEF
:100A1000FF1FC018E000000000000000000000FE02
:100A20007F0FE001C1F8000000000000000000FCA2
:100A30003F8FF00381FC000000000000000001F87F
:100A40001FC7F80010FE000000000000000003F1C6
:100A50008FE3F80038FF000000000000000007E30B
:100A6000C7E1F0003C7F00000000000000000FE73D
:100A7000E7F000007E3F80000000000000000FC78C
:100A8000F3F07C007E1FC0000000000000001F8FFC
:100A9000F1E3FC007F0FE0000000000000003F1FBA
:100AA000F0C700003F8FF0000000000000007F3F13
:100AB000E04E01C01FC7F0000000000000007E3FB4
:100AC000E01E1FE00FE3F8000000000000007C7F44
:100AD000C0100FE007E1FC0000000000000038F04B
:100AE0000000C7F007F1FE000000000000003980A0
:100AF0000001C3F803F8FF00000000000000130726
:100B0000F003E3FC01FC7F0000000000000003078D
:100B1000F803F1FE00FC3F800000000000000063CD
:100B2000F803F8FE007E1FC0000000000000007106
:100B3000FC01F87F007F1FE000000000000000F0D3
:100B4000FE00FC7F803F8FE000000000000001F805
:100B50007F007E3FC01FC7F000000000000001FCC6
:100B60007F807F1FC00FC3F800000000000000FE60
:100B70003F803F8FE007E3FC000000000000007FA3
:100B80001FC01F87F007F1FC000000000000003FBD
:100B90000FE00007F80003FE000000000000003F27
:100BA00087F00007FC0007FF000000000000001FA6
:100BB000C7FE0FFFFFFFFFFF000000000000000F57
:100BC000E3FFFFFFFFFFFFFF000000000000000742
:100BD000F1FFFFFFFFFFFFFF000000000000000328
:100BE000F0FFFFFFFFFFFFFF000000000000000319
:100BF000F83FFFFFFFFFFFFC0000000000000001C6
:100C0000FC000000000000000000000000000000E8
:100C1000FF80000000000000000000000000000055
:100C20007FFFFFFFFFFFFFF000000000000000005B
:100C30003FFFFFFFFFFFFFF000000000000000008B
:100C40001FFFFFFFFFFFFFE00000000000000000AB
:100C50000FFFFFFFFFFFFFC00000000000000000CB
:100C60000000000000000000000000000000000084
:100C700000000000000000000000000A005072693F
:100C80006E7420526573746F726520446562756777
:100C900020456E640A007072696E745F6A6F625FED
:100CA000656C61707365643A20007364706F733AA9
:100CB000200073645F66696C656E616D653A200043
:100CC0003E2000636F6D6D616E64735F696E5F716E
:100CD000756575653A2000636D645F71756575654E
:100CE0005F696E6465785F723A2000626162797351
:100CF00074657070696E673A200020666164653AB9
:100D000020006C6576656C696E673A2000746172CC
:100D10006765745F74656D70657261747572655F27
:100D20006265643A20003A200066616E5370656522
:100D30006473003A20007461726765745F74656D56
:100D40007065726174757265006665656472617460
:100D50006520253A20003A200063757272656E7432
:100D60005F706F736974696F6E00494E56414C49EC
:100D70004420444154410A002076616C69645F66F6
:100D80006F6F743A0076616C69645F686561643A9C
:100D9000005072696E7420526573746F72652044DE
:100DA000656275672053746172740A000A00494EC7
:100DB00056414C494420524553544F5245204249D4
:100DC0004E004D3237004D3234004D32362053251F
:100DD0006C75004D3233202573004D323930205A66
:100DE0002573004D32323020532573004731205A8D
:100DF0002573004731205925730047312046313291
:100E0000303020582573004739322045257300477C
:100E100039322046323030204535004731204632C5
:100E200030302045350047393220453000473120E9
:100E30005A2573004D343230205331004732380088
:100E40004D343230205330205A30004D313137206C
:100E500052657374617274696E67202573004D3139
:100E600030362050256920532569004D3130392016
:100E7000532569004D31393020532569004C6F618D
:100E8000646564207072696E745F726573746F72EA
:100E9000655F696E666F0A00496E6974206A6F62E9
:100EA000207265636F7665727920696E666F2E2099
:100EB00053697A653A20005072696E7420526573E6
:100EC000746F72652047636F64652066696C653A6C
:100ED00020002020506C616E6E65724275666665FA
:100EE0007242797465733A20002046726565204D20
:100EF000656D6F72793A2000436F6D70696C65643F
:100F00003A2053657020313420323031380A0020C5
:100F10007C20417574686F723A20467261636B740D
:100F2000616C20576F726B730A00323031372D318C
:100F3000322D32352031323A303000204C6173741A
:100F400020557064617465643A2000312E312E386A
:100F50000A004D61726C696E0020536F6674776190
:100F600072652052657365740A0020576174636866
:100F7000646F672052657365740A002042726F7750
:100F80006E206F75742052657365740A0020457871
:100F90007465726E616C2052657365740A00506FDF
:100FA00077657255700A0073746172740A00526535
:100FB000636F766572792042494E20777269746555
:100FC000206661696C65642E0A00456E6473746FF7
:100FD000707320256320256320256320256300206E
:100FE0005A3A0020593A0020583A00656E647374EA
:100FF0006F7073206869743A2000446F6E652073C7
:101000006176696E672066696C652E0A004D32391B
:10101000004D6573682056616C69646174696F6E18
:101020002053746F707065642E00696E206D6F764A
:10103000655F746F282920666565645F76616C75ED
:101040006520666F722058593A004C656176696E6A
:10105000672047323600446F6E65205072696D69B3
:101060006E6700446F6E65205072696D696E67002F
:101070004669786564204C656E67746820507269B3
:101080006D652E00557365722D436F6E74726F6CB3
:101090006C6564205072696D65002C2065793D0097
:1010A00029202D3E202865783D002C2073793D00B5
:1010B00020436F6E6E656374696E6720776974682C
:1010C00020766572746963616C206C696E65202896
:1010D00073783D002C2065793D0029202D3E202885
:1010E00065783D002C2073793D0020436F6E6E655E
:1010F0006374696E67207769746820686F72697AB3
:101100006F6E74616C206C696E65202873783D0089
:101110004C656176696E6720473236002C2079690C
:101120003D00202020446F696E6720636972636C04
:10113000652061743A202878693D003F53706563EB
:10114000696669656420582C5920636F6F72646901
:101150006E617465206F7574206F6620626F756EA6
:1011600064732E0A003F28522965706561742076E9
:10117000616C7565206E6F7420706C617573696247
:101180006C653B206D757374206265206174206C02
:101190006561737420312E0A003F53706563696680
:1011A000696564206E6F7A7A6C652074656D706510
:1011B000726174757265206E6F7420706C617573E6
:1011C00069626C652E0A003F5370656369666965E4
:1011D000642066696C616D656E742073697A652040
:1011E0006E6F7420706C61757369626C652E0A0095
:1011F0003F537065636966696564207072696D65E7
:10120000206C656E677468206E6F7420706C6175F9
:101210007369626C652E0A003F5370656369666985
:101220006564206E6F7A7A6C652073697A65206ECA
:101230006F7420706C61757369626C652E0A003F73
:101240005370656369666965642052657472616391
:1012500074696F6E204D756C7469706C696572206D
:101260006E6F7420706C61757369626C652E0A0014
:101270003F52657472616374696F6E204D756C7452
:1012800069706C696572206D757374206265207376
:1012900070656369666965642E0A003F5370656313
:1012A0006966696564206C61796572206865696743
:1012B0006874206E6F7420706C61757369626C6500
:1012C0002E0A003F53706563696669656420626534
:1012D000642074656D7065726174757265206E6FDF
:1012E0007420706C61757369626C652E0A004732F8
:1012F0003620636F6D6D616E642073746172746506
:10130000642E2057616974696E6720666F72206869
:1013100065617465722873292E0A0020746F6F202E
:101320006C6F6E6720657874727573696F6E20706C
:10133000726576656E7465640A0020636F6C642064
:10134000657874727573696F6E2070726576656EFC
:101350007465640A004731205831303020593130EB
:1013600030205A353000436C69636B20746F204223
:101370006567696E00486F6D696E672058595A003D
:101380004732380047323800416476616E636564E5
:10139000204C6576656C696E6700517569636B20DA
:1013A0004C6576656C696E67004D61696E00496ECB
:1013B000697469616C697A6520454550524F4D00EA
:1013C000436F6E74726F6C00526573746F72652038
:1013D0006661696C73616665004C6F61642073655A
:1013E0007474696E677300496E697469616C697AB7
:1013F0006520454550524F4D0053746F7265207300
:10140000657474696E67730046696C616D656E74AE
:10141000004D6F74696F6E0054656D706572617414
:10142000757265004D61696E005072656865617422
:101430002041425320636F6E66005072656865619B
:101440007420504C4120636F6E66005049442D4417
:10145000005049442D44005049442D49005049440E
:101460002D49005049442D50005049442D50002032
:1014700008204661637400200820466163740020E0
:1014800008204D6178002008204D61780020082058
:101490004D6178002008204D696E002008204D69BC
:1014A0006E002008204D696E004F6666004F6E206A
:1014B000004175746F74656D700046616E207370C5
:1014C0006565640046616E207370656564004E6FEB
:1014D0007A7A6C65004E6F7A7A6C6500436F6E7431
:1014E000726F6C0053746F72652073657474696EEB
:1014F0006773004E6F7A7A6C65004E6F7A7A6C650E
:101500000046616E2073706565640046616E2073ED
:10151000706565640054656D70657261747572659F
:1015200000436172642072656D6F7665640043618B
:10153000726420696E736572746564002569730056
:1015400025696D20256973002569682025696D204E
:1015500025697300256964202569682025696D2047
:10156000256973002569792025696420256968202B
:1015700025696D20256973004C696E65204E756D77
:10158000626572206973206E6F74204C61737420E1
:101590004C696E65204E756D6265722B312C204C46
:1015A000617374204C696E653A20004B494C4C4580
:1015B000442E200053544F505045442E200050726A
:1015C000696E7465722073746F70706564206475E1
:1015D0006520746F206572726F72732E2046697871
:1015E00020746865206572726F7220616E64207568
:1015F0007365204D39393920746F207265737461B9
:1016000072742E202854656D7065726174757265F0
:101610002069732072657365742E20536574206988
:101620007420616674657220726573746172746986
:101630006E67290A004E6F20436865636B73756D92
:101640002077697468206C696E65206E756D6265BF
:10165000722C204C617374204C696E653A200063D3
:101660006865636B73756D206D69736D6174636814
:101670002C204C617374204C696E653A20004D310A
:101680003130004D33310053442072656164206570
:1016900072726F720A00446F6E65207072696E74A8
:1016A000696E672066696C650A0020496E76616C18
:1016B00069642065787472756465722000505355B2
:1016C0003A2047656E657269630050726F746F638C
:1016D0006F6C3A20312E3000426175643A2031310E
:1016E00035323030004D4B53203E2076312E3300C2
:1016F0004D657368204C6576656C696E670045784A
:10170000747275646572733A203100687474703A4B
:101710002F2F6D61726C696E66772E6F7267004A4B
:10172000756C696120323031382042617369630021
:10173000323031372D31322D32352031323A30309E
:1017400000312E312E38004D61726C696E0050727E
:10175000696E7465722053746174730054686572A5
:101760006D6973746F727300426F61726420496EA9
:10177000666F005072696E74657220496E666F0004
:101780004D61696E0020204E6F7A7A6C653A2000B8
:1017900020004261636B004D696E696D756D205468
:1017A000656D70206973203137302E004865617493
:1017B000696E67206661696C65640045787472754E
:1017C0006465206D6F726500526573756D6520707C
:1017D00072696E7400524553554D45204F5054491F
:1017E0004F4E533A0020204E6F7A7A6C653A2000B3
:1017F0006368616E6765006F66207468652066695E
:101800006C616D656E74005761697420666F72203B
:101810007374617274005052494E542050415553B4
:1018200045440020204E6F7A7A6C653A20002000F3
:1018300066696C616D656E7420756E6C6F616400B5
:101840005761697420666F72005052494E5420509F
:1018500041555345440020204E6F7A7A6C653A20FA
:10186000002000506C6561736520776169742E2ECD
:101870002E0048656174696E67206E6F7A7A6C65B8
:10188000005052494E5420504155534544002020A9
:101890004E6F7A7A6C653A2000200068656174208A
:1018A0006E6F7A7A6C652E00507265737320627564
:1018B00074746F6E20746F005052494E5420504122
:1018C000555345440020204E6F7A7A6C653A2000CB
:1018D000746F20636F6E74696E75652E2E2E0061B5
:1018E0006E6420707265737320627574746F6E001D
:1018F000496E736572742066696C616D656E740003
:101900005052494E54205041555345440020204EDA
:101910006F7A7A6C653A2000200066696C616D65AB
:101920006E74206C6F6164005761697420666F7219
:10193000005052494E5420504155534544002020F8
:101940004E6F7A7A6C653A2000200066696C616D92
:10195000656E74206578747275646500576169748A
:1019600020666F72005052494E54205041555345E5
:101970004400746F20726573756D650057616974FA
:1019800020666F72207072696E74005052494E5416
:101990002050415553454400000000000000000065
:1019A0000000000000005243000048430000524382
:1019B000206E6F7420656E74657265642E0A000A6D
:1019C0004D6561737572656420706F696E74733AEA
:1019D0000A005A206F66667365743A20004E756D72
:1019E00020582C593A20322C320A006D0046696C7E
:1019F000616D656E7420757365643A20005374617F
:101A000074733A20002C204C6F6E67657374206AE3
:101A10006F623A2000546F74616C2074696D653A8E
:101A2000200053746174733A20002C204661696C65
:101A300065643A20002C2046696E69736865643AD3
:101A400020005072696E74733A200053746174738D
:101A50003A200048656174696E6720646F6E652E78
:101A60000020573A00452569202573004A756C69A6
:101A700061203230313820426173696320726561C0
:101A800064792E0025753A2530327500253032757F
:101A90003A253032750025756420253032753A2597
:101AA000303275005A00590058000920000000002B
:101AB0000000000000000000007FFFE000000000C8
:101AC00000000000000000007000E00000000000C6
:101AD0000000000000000061F8600000000000004D
:101AE00000000000000041F820000000000000009D
:101AF000000000000040F020000000000000000096
:101B00000000000040602000000000000000000015
:101B10000000005801A07F800000000000000000CD
:101B200000005C63A0FFC000000000000000000097
:101B3000005EF7A0FFC000000000000000000000F1
:101B40005EF7A0FFC0000000000000000000005C85
:101B500063A07F800000000000000000000058012A
:101B6000A07F800000000000000000000040602016
:101B7000FFC00000000000000000000040F020FF57
:101B8000C00000000000000000000041F820FFC07D
:101B90000000000000000000000061F8603F00004D
:101BA0000000000000000000007000E01E000000C7
:101BB00000000000000000007FFFE00C00000000BB
:101BC0000000000000000000000000000000000015
:101BD0000000000000007FFFE000000000000000A7
:101BE00000000000007000E00000000000000000A5
:101BF00000000000630C6000000000000000000016
:101C0000000000470E20000000000000000000005F
:101C100000004F0F20000000000000000000000046
:101C2000005F0FA0000000000000000000000000A6
:101C30005E07A07F80000000000000000000004060
:101C40006020FFC00000000000000000000040F025
:101C500020FFC00000000000000000000040F02055
:101C6000FFC0000000000000000000004060207F76
:101C700080000000000000000000005E07A07F80E0
:101C8000000000000000000000005F0FA0FFC00087
:101C90000000000000000000004F0F20FFC0000007
:101CA0000000000000000000470E20FFC000000000
:101CB00000000000000000630C603F000000000016
:101CC0000000000000007000E01E000000000000A6
:101CD00000000000007FFFE00C000000000000009A
:101CE0000000000000000000060900FE00000000E7
:101CF0000001090008FE000005080806000040F089
:101D0000C88888987810050808060000C0F88888F8
:101D1000888888F80505050600012030F830200580
:101D200008080600002070F820202020E00509099E
:101D30000600FF2070A8A8B8888870200509090649
:101D400000FFE080C0B0A828302828050909060057
:101D5000FFF8A88888888888A8F8050A0A0600FE7F
:101D6000205050505088A8A8887003030306000331
:101D700040A04020746F74616C3A20004261627927
:101D8000737465703A2000000000000000484300B2
:101D900000524300004842000048420000A04100B9
:101DA0000000005761726E696E673A20486F6D6976
:101DB0006E672042756D702044697669736F72207A
:101DC0003C20310A000202040000A0400000A040B4
:101DD000000000400000524300004843000052430E
:101DE000FF01017C3C3E5E2B3D3F2F5B5D3B2C2A7F
:101DF000225C0000060900FE0701920321207FFFFC
:101E000007FF07FF000000060000010707060200A9
:101E100080808080800080030202060105A0A0056A
:101E200007070600005050F850F850500507070605
:101E300000002078A07028F020050707060000C0E9
:101E4000C810204098180507070600006090A040C1
:101E5000A89068020303060104C040800307070638
:101E60000100204080808040200307070601008099
:101E700040202020408005050506000120A870A80C
:101E8000200505050600012020F820200203030696
:101E900002FFC04080050101060003F802020206AD
:101EA0000200C0C00505050600010810204080059D
:101EB000070706000070888888888870030707066F
:101EC000010040C040404040E005070706000070A8
:101ED0008808708080F8050707060000F8102010B9
:101EE0000808F005070706000010305090F81010A1
:101EF000050707060000F880F00808887005070746
:101F0000060000708080F0888870050707060000D2
:101F1000F808102020202005070706000070888898
:101F200070888870050707060000708888780808A0
:101F300070020505060200C0C000C0C00206060609
:101F400002FFC0C000C04080040707060000102048
:101F50004080402010050303060002F800F8040743
:101F6000070601008040201020408005070706007A
:101F70000070880810200020050707060000708800
:101F80000868A8A870050707060000708888F88808
:101F90008888050707060000F08888F08888F00523
:101FA0000707060000708880808088700507070694
:101FB0000000F08888888888F0050707060000F888
:101FC0008080F08080F8050707060000F88080F028
:101FD000808080050707060000708880B8888870B8
:101FE000050707060000888888F8888888010707A1
:101FF0000602008080808080808005070706000040
:10200000381010101090600507070600008890A097
:10201000C0A090880507070600008080808080802F
:10202000F805070706000088D8A88888888805076B
:10203000070600008888C8A8988888050707060052
:102040000070888888888870050707060000F08877
:1020500088F080808005070706000070888888A8BF
:102060009068050707060000F08888F0A0908805B2
:102070000707060000788080700808F0050707064B
:102080000000F820202020202005070706000088F7
:1020900088888888887005070706000088888888EF
:1020A0008850200507070600008888888888A8507F
:1020B0000507070600008888502050888805070714
:1020C00006000088888850202020050707060000A9
:1020D000F80810204080F8030707060100E0808020
:1020E000808080E00505050600018040201008037F
:1020F0000707060100E02020202020E0050303065A
:102100000004205088050101060000F802020206C2
:1021100002058040050505060000700878887805EE
:1021200007070600008080B0C88888F0050505060E
:1021300000007080808870050707060000080868A6
:10214000988888780505050600007088F880700575
:1021500007070600003048E04040404005060606FC
:1021600000FF7088887808700507070600008080E7
:10217000B0C8888888010707060200800080808038
:1021800080800308080601FF200020202020A040B6
:10219000040707060000808090A0C0A090030707F6
:1021A000060100C04040404040E005050506000033
:1021B000D0A8A8A8A8050505060000B0C88888888A
:1021C000050505060000708888887005060606006B
:1021D000FFF08888F080800506060600FF78888872
:1021E000780808050505060000B0C8808080050550
:1021F0000506000070807008F00407070600004024
:1022000040E0404040300505050600008888889879
:102210006805050506000088888850200505050624
:1022200000008888A8A850050505060000885020F1
:1022300050880506060600FF88888878087005051E
:1022400005060000F8102040F803070706010020EB
:1022500040408040402001070706020080808080C7
:1022600080808003070706010080404020404080B6
:102270000502020600026890000000060000FFE070
:10228000FFD11000FFFEFFD0FFE0FFC1FFD1E24011
:10229000A0C8A6A22FF800238127AC00AFFF64A539
:1022A000FF64FF64A4FFD0FFFE53442063617264A7
:1022B000206F6B0A006F70656E526F6F74206661DD
:1022C000696C65640A00766F6C756D652E696E6960
:1022D00074206661696C65640A00534420696E6904
:1022E00074206661696C0A006175746F25692E67D8
:1022F000004D3234004D323320257300577269741B
:10230000696E6720746F2066696C653A20006F7093
:10231000656E206661696C65642C2046696C653A5F
:1023200020006F70656E206661696C65642C2046C4
:10233000696C653A200046696C652073656C65635D
:102340007465640A002053697A653A200046696C16
:1023500065206F70656E65643A20006F70656E2051
:102360006661696C65642C2046696C653A200020C2
:1023700066696C653A2000646F696E670066726515
:102380007368004E6F772000454E442053554252EB
:102390004F5554494E450A002220706F7300222089
:1023A000706172656E743A2200535542524F555413
:1023B000494E452043414C4C207461726765743A24
:1023C00022004B494C4C45442E2000747279696EB2
:1023D0006720746F2063616C6C207375622D676376
:1023E0006F64652066696C65732077697468207412
:1023F0006F6F206D616E79206C6576656C732E2031
:102400004D4158206C6576656C2069733A004572C1
:10241000726F723A004261627973746570205A007B
:102420004D363030204230004368616E676520666B
:10243000696C616D656E7400466C6F7700466C6FF9
:10244000770046616E2073706565640046616E209A
:102450007370656564004E6F7A7A6C65004E6F7AB2
:102460007A6C6500426564205A00426564205A0017
:102470005370656564005370656564004D61696EF5
:10248000004C6576656C696E6720446F6E6521004F
:102490004D6F7665205A00473239205332004E6521
:1024A000787420506F696E74002569202F2025757F
:1024B000004732392053310047323920533200432C
:1024C0006C69636B20746F20426567696E004D34E0
:1024D0003238005072656865617420504C4100507C
:1024E0007265686561742041425300436F6F6C648C
:1024F0006F776E004368616E67652066696C616D19
:10250000656E740044697361626C652073746570F4
:1025100070657273004D38340053657420686F6DB8
:1025200065206F666673657473004175746F20680B
:102530006F6D6500473238004D6F766520617869B0
:1025400073004D61696E004A756C696120323031EB
:1025500038204261736963204F66662E00205A3A24
:102560000020423A0020436F756E7420413A0020EB
:10257000453A00205A3A0020593A00583A003A00A9
:102580004361703A0023646566696E6520204445A6
:102590004641554C545F4B64200023646566696E68
:1025A00065202044454641554C545F4B692000232B
:1025B000646566696E65202044454641554C545F0C
:1025C0004B702000504944204175746F74756E65DE
:1025D0002066696E69736865642120507574207483
:1025E0006865206C617374204B702C204B692061EE
:1025F0006E64204B6420636F6E7374616E7473201D
:1026000066726F6D2062656C6F7720696E746F20E3
:10261000436F6E66696775726174696F6E2E680AC2
:1026200000504944204175746F74756E6520666171
:10263000696C6564212074696D656F75740A005456
:102640004845524D414C2052554E41574159005436
:102650006865726D616C2052756E617761790048B2
:10266000656174696E67206661696C6564004865C0
:102670006174696E67206661696C656400504944E5
:10268000204175746F74756E65206661696C656450
:10269000212054656D706572617475726520746F68
:1026A0006F20686967680A00204B643A2000204B5D
:1026B000693A2000204B703A20000A20436C617375
:1026C00073696320504944200A002054753A200061
:1026D000204B753A2000206D61783A2000206D690A
:1026E0006E3A200020643A200020626961733A202B
:1026F000004D65736820706F696E742063616E6E43
:102700006F74206265207265736F6C7665640A0071
:102710004D34323120696E636F727265637420705C
:102720006172616D657465722075736167650A0019
:102730004F666673657473206170706C69656400C0
:102740004572723A20546F6F206661722100546F97
:102750006F206661722066726F6D207265666572A9
:10276000656E636520706F696E740A0024F4D4305E
:1027700050C38E20C2A24017828B7011127A910D25
:10278000816CD90AA861E108C75866076151430600
:102790001E4B5D05C145A7041A411104093D98036C
:1027A000713931034036DB0265339102D430540273
:1027B000802E1D02632CEE01752AC501B028A001F0
:1027C000102781018F2564012B244B01E022340165
:1027D000AC211F018D200D01801FFC00841EED0027
:1027E000971DDF00B81CD200E61BC600201BBC00F2
:1027F000641AB200B219A8000A19A0006A18990058
:10280000D117910040178B00B516840031167E0059
:10281000B31579003A157300C7146F0058146A0095
:10282000EE1366008813630025135E00C7125B0079
:102830006C12570015125400C111510070114F0055
:1028400021114B00D61049008D104700461044005E
:1028500002104200C00F4000800F3E00420F3C00BB
:10286000060F3B00CB0E3800930E37005C0E350090
:10287000270E3400F30D3200C10D3100900D3000F1
:10288000600D2E00320D2D00050D2C00D90C2B00F3
:10289000AE0C2900850C29005C0C2700350C2700A4
:1028A0000E0C2600E80B2400C40B2400A00B230010
:1028B0007D0B23005A0B2100390B2100180B20003F
:1028C000F80A1F00D90A1E00BB0A1E009D0A1D003F
:1028D000800A1D00630A1C00470A1B002C0A1B000B
:1028E000110A1A00F7091A00DD091900C4091900B4
:1028F000AB091900920917007B091800630917003A
:102900004C09160036091600200916000A091500A0
:10291000F5081500E0081400CC081400B8081400ED
:10292000A4081400900813007D0812006B0813001F
:10293000580812004608120034081100230811003C
:102940001208110001081100F0071000E007100044
:10295000D0071000C0071000B0070F00A10710003B
:1029600091070E0083070F0074070F0065070E0024
:1029700057070E0049070E003B070D002E070E00FB
:1029800020070D0013070D0006070D00F9060C00C7
:10299000ED060D00E0060C00D4060C00C8060C0085
:1029A000BC060C00B0060C00A4060B0099060C0037
:1029B0008D060B0082060B0077060B006C060B00E1
:1029C00061060A0057060B004C060A0042060A0080
:1029D00038060A002E060A0024060A001A060A0013
:1029E0001006090007060A00FD050900F4050900A4
:1029F000EB050900E2050900D9050900D005090029
:102A0000C7050900BE050900B5050800AD050800A9
:102A1000A50509009C050800940508008C05080020
:102A2000840508007C050800740508006C05070093
:102A3000650508005D050700560508004E050700FE
:102A40004705070040050800380507003105070065
:102A50002A050700230507001C05060016050700C8
:102A60000F0507000805060002050700FB04060025
:102A7000F5040700EE040600E8040600E20407007F
:102A8000DB040600D5040600CF040600C9040600D6
:102A9000C3040600BD040600B7040600B104050027
:102AA000AC040600A6040600A00405009B04060072
:102AB00095040500900406008A04050085040500BD
:102AC000800406007A040500750405007004050002
:102AD0006B04050066040500610405005C04050044
:102AE00057040500520405004D0405004804050084
:102AF000430405003E0404003A04050035040500C3
:102B0000300404002C0405002704040023040500FD
:102B10001E0404001A040400160405001104040035
:102B20000D0404000904050004040400000404006A
:102B3000FC030400F8030400F4030400F0030400A1
:102B4000EC030400E8030400E4030400E0030400D1
:102B5000DC030400D8030400D4030400D003040001
:102B6000CC030400C8030300C503030024F404D904
:102B7000201BC40C5C0E9804C4095F026507710138
:102B8000F405F900FB04B30048048700C1036900A1
:102B90005803550003034500BE023A008402310089
:102BA00053022A002902250004022000E4011C002F
:102BB000C8011900AF011700980114008401130027
:102BC000710110006101100051010E0043010D0060
:102BD00036010B002B010B0020010B001501090031
:102BE0000C01090003010800FB000800F3000800C5
:102BF000EB000700E4000600DE000600D800060037
:102C0000D2000600CC000500C7000500C200050088
:102C1000BD000400B9000400B5000400B1000400C8
:102C2000AD000400A9000400A5000300A2000300F9
:102C30009F0004009B000300980003009500020021
:102C400093000300900003008D0002008B0003003E
:102C50008800020086000200840003008100020058
:102C60007F0002007D0002007B000200790002006C
:102C7000770001007600020074000200720001007B
:102C8000710002006F0002006D0001006C00020084
:102C90006A0001006900020067000100660001008F
:102CA0006500010064000200620001006100010093
:102CB000600001005F0002005D0001005C00010097
:102CC0005B0001005A00010059000100580001009A
:102CD000570001005600010055000100540001009A
:102CE0005300000053000100520001005100010098
:102CF000500001004F0001004E0000004E00010096
:102D00004D0001004C0001004B0000004B00010091
:102D10004A0001004900010048000000480001008D
:102D20004700010046000000460001004500000089
:102D30004500010044000100430000004300010081
:102D4000420000004200010041000000410001007B
:102D5000400001003F0000003F0001003E00000075
:102D60003E0001003D0000003D0001003C0000006D
:102D70003C0000003C0001003B0000003B00010063
:102D80003A0000003A00010039000000390001005B
:102D90003800000038000000380001003700000053
:102DA0003700010036000000360000003600010048
:102DB000350000003500000035000100340000003F
:102DC0003400000034000100330000003300000034
:102DD0003300010032000000320000003200010028
:102DE000310000003100000031000100300000001F
:102DF00030000000300001002F0000002F00000014
:102E00002F0000002F0001002E0000002E00000007
:102E10002E0001002D0000002D0000002D000000FC
:102E20002D0001002C0000002C0000002C000000F0
:102E30002C0001002B0000002B0000002B000000E4
:102E40002B0001002A0000002A0000002A000000D8
:102E50002A000100290000002900000029000000CC
:102E600029000000290001002800000028000000BF
:102E700028000000280000002800010027000000B2
:102E800027000000270000002700000027000100A5
:102E9000260000002600000026000000260000009A
:102EA000260001002500000025000000250000008C
:102EB000250000002500000025000100240000007E
:102EC0002400000024000000240000002400010071
:102ED0002300000023000000230000002300000066
:102EE0002300000023000000230001002200000056
:102EF000220000002200000022000000220000004A
:102F0000220001002100000021000000210000003B
:102F1000210000002100000021000000210001002C
:102F20002000000020000000200000002000000021
:102F30002000000020000000200000002000010010
:102F40001F0000001F0000001F0000001F00000005
:102F50001F0000001F0000001F0001001E000000F5
:102F60001E0000001E0000001E0000004D3834202E
:102F7000582059205A204500526573656E643A20E6
:102F8000006F6B0020746F6F206C6F6E6720657828
:102F900074727573696F6E2070726576656E746594
:102FA000640A0020636F6C642065787472757369BD
:102FB0006F6E2070726576656E7465640A00627566
:102FC00073793A2070617573656420666F72206949
:102FD0006E7075740A00627573793A20706175734A
:102FE000656420666F7220757365720A006275737E
:102FF000793A2070726F63657373696E670A004B6C
:10300000494C4C45442E20004B494C4C2063617583
:10301000736564206279204B494C4C20627574744E
:103020006F6E2F70696E0A004B494C4C45442E2040
:10303000004B494C4C2063617573656420627920B4
:10304000746F6F206D75636820696E616374697653
:10305000652074696D65202D2063757272656E74CC
:1030600020636F6D6D616E643A2000506C65617312
:1030700065207265736574005052494E5445522064
:1030800048414C544544005072696E746572206822
:10309000616C7465642E206B696C6C2829206361F7
:1030A0006C6C6564210A0043616E6E6F74206F70F2
:1030B000656E207375626469722000656E71756556
:1030C0007565696E672022006563686F3A00526516
:1030D000636F766572792042494E2064656C657431
:1030E00065642E0A005265636F76657279204249E5
:1030F0004E2064656C657465206661696C65642E3C
:103100000A00544845524D414C2052554E415741BA
:103110005900546865726D616C2052756E617761FB
:1031200079004573746570732F6D6D004573746518
:1031300070732F6D6D005A73746570732F6D6D0011
:103140005A73746570732F6D6D0059737465707365
:103150002F6D6D005973746570732F6D6D0058730A
:10316000746570732F6D6D005873746570732F6D77
:103170006D004D6F74696F6E0053746570732F6DC1
:103180006D004A65726B00416363656C65726174C2
:10319000696F6E0056656C6F6369747900436F6E7A
:1031A00074726F6C0046696C2E204469612E004673
:1031B000696C2E204469612E004F6666004F6E20B8
:1031C000004520696E206D6D3300416476616E6349
:1031D00065204B00416476616E6365204B0041645D
:1031E00076616E6365204B00436F6E74726F6C0086
:1031F00043616E6E6F7420656E74657220737562C4
:103200006469723A2000022E2E004D61696E000042
:10321000457874727564656420746F74616C3A20CB
:1032200000256C642E25696D00004C6F6E67657318
:1032300074206A6F622074696D653A200000546FD3
:1032400074616C207072696E742074696D653A20C7
:1032500000436F6D706C657465643A20005072694C
:103260006E7420436F756E743A20004D617820545F
:10327000656D703A20323735004D696E2054656DAA
:10328000703A20350054303A204D656E64656C2DDF
:10329000706172747300290A002062797465733B4F
:1032A00020637263200053657474696E67732053E2
:1032B000746F726564202800202863616C63756CEC
:1032C0006174656429210A0020213D200045455094
:1032D000524F4D20435243206D69736D6174636892
:1032E000202D202873746F726564292000290A003C
:1032F0002062797465733B206372632000207374CD
:103300006F7265642073657474696E67732072658B
:1033100074726965766564202800204D61726C695D
:103320006E3D563437290A0028454550524F4D3DD1
:1033300000454550524F4D2076657273696F6E207F
:103340006D69736D61746368200010006003500143
:103350002C0190012201D001180110020E0170020F
:103360000401E002FA006003F0000004E600B0048B
:10337000DC00A005D200B006C8000008BE00A0090D
:10338000B400800BAA00D00DA00090109600C013CE
:103390008C0070178200901B780010206E00C024F3
:1033A0006400E02D500080353C00A03A2800A03D8C
:1033B0001400003F0000A03FECFF6265640A002C8F
:1033C0002073797374656D2073746F7070656421F8
:1033D000204865617465725F49443A200048656120
:1033E00074696E67206661696C6564004865617424
:1033F000696E67206661696C6564004572723A2087
:103400004D494E54454D50004D494E54454D502068
:10341000747269676765726564004572723A204D1F
:10342000415854454D50004D415854454D5020741D
:10343000726967676572656400202F0020403A005A
:1034400048617264636F6465642044656661756C8D
:10345000742053657474696E6773204C6F61646582
:10346000640A00E8030000E80300003200000010D6
:1034700027000000004843000048430000A041002E
:103480000034420000204300002043F0F77B44005A
:10349000008C4320520020204D393030204B004C0E
:1034A000696E65617220416476616E63653A0A00F7
:1034B00020440020490020204D333031205000505E
:1034C00049442073657474696E67733A0A00204634
:1034D0000020420020480020204D31343520530088
:1034E0004D6174657269616C2068656174757020E6
:1034F000706172616D65746572733A0A00205A00DA
:1035000020590020204732392053332058002020F2
:103510004D3432302053004D65736820426564207D
:103520004C6576656C696E673A0A00205A0020592E
:103530000020204D323036205800486F6D65206FD6
:1035400066667365743A0A00204500205A002059C7
:103550000020580020420020540020204D323035F9
:10356000205300416476616E6365643A20533C6D7C
:10357000696E5F66656564726174653E20543C6D7A
:10358000696E5F74726176656C5F666565647261B1
:1035900074653E20423C6D696E5F7365676D656E54
:1035A000745F74696D655F75733E20583C6D61781A
:1035B0005F78795F6A65726B3E205A3C6D61785F17
:1035C0007A5F6A65726B3E20453C6D61785F655F2E
:1035D0006A65726B3E0A0020540020520020204D84
:1035E000323034205000416363656C6572617469E8
:1035F0006F6E2028756E6974732F7332293A2050CC
:103600003C7072696E745F616363656C3E20523C0E
:10361000726574726163745F616363656C3E2054AC
:103620003C74726176656C5F616363656C3E0A0031
:10363000204500205A0020590020204D32303120F2
:1036400058004D6178696D756D20416363656C65E7
:10365000726174696F6E2028756E6974732F73328E
:10366000293A0A00204500205A0020590020204D08
:103670003230332058004D6178696D756D20666574
:10368000656472617465732028756E6974732F7335
:10369000293A0A00204500205A0020590020204DD8
:1036A000393220580053746570732070657220752C
:1036B0006E69743A0A0020204D3230302044300ABE
:1036C0000020204D32303020440020446973616274
:1036D0006C65640A0046696C616D656E7420736583
:1036E0007474696E67733A0020204D313439204379
:1036F000203B20556E69747320696E2043656C739E
:103700006975730A002020473231202020203B2099
:10371000556E69747320696E206D6D0A006F706557
:103720006E206661696C65642C2046696C653A2080
:103730000057726974696E6720746F2066696C65E2
:103740003A20006572726F722077726974696E67D1
:1037500020746F2066696C650A0046696C65206498
:10376000656C657465643A0044656C6574696F6E78
:10377000206661696C65642C2046696C653A20009E
:103780006F70656E206661696C65642C2046696C9B
:10379000653A2000486F6D652025732573257320D9
:1037A0006669727374002066697273740A005A0045
:1037B00059005800486F6D6520004D6F76652058A0
:1037C000004D6F76652059004D6F7665205A004593
:1037D00078747275646572004D6F766520302E3195
:1037E0006D6D004D6F766520316D6D004D6F7665A6
:1037F0002031306D6D004D6F766520617869730002
:103800004578747275646572004D6F7665205A0054
:103810004D6F76652059004D6F76652058004578CC
:10382000747275646572004D6F7665205A004D6F35
:1038300076652059004D6F7665205800507265708E
:1038400061726500473238004D34323020533020E9
:103850005A3000473238004D343230205330205A2D
:103860003000473120583131302059313937205A12
:103870003000473120583131302059313937004735
:1038800031205A323000473120463930303000473D
:1038900031205833352E3620593231205A300047E6
:1038A00031205833352E3620593231004731205AD5
:1038B000323000473120463930303000473120580F
:1038C00031383120593231205A30004731205831B7
:1038D00038312059323100473120463930303000FC
:1038E0005654726176206D696E005654726176206E
:1038F0006D696E005654726176206D696E00566D6A
:10390000696E00566D696E00566D696E00566D6188
:1039100078204500566D6178204500566D6178200D
:103920004500566D6178205A00566D6178205A0026
:10393000566D6178205A00566D6178205900566D99
:103940006178205900566D6178205900566D617874
:10395000205800566D6178205800566D61782058C7
:10396000004D6F74696F6E00416D617820450041B4
:103970006D6178204500416D6178205A00416D618C
:1039800078205A00416D6178205900416D6178209E
:103990005900416D6178205800416D6178205800D0
:1039A000412D74726176656C00412D74726176658B
:1039B0006C00412D7265747261637400412D7265F3
:1039C000747261637400416363656C004163636595
:1039D0006C004D6F74696F6E0056652D6A65726B71
:1039E0000056652D6A65726B0056652D6A65726BAF
:1039F00000567A2D6A65726B00567A2D6A65726B75
:103A00000056792D6A65726B0056792D6A65726B66
:103A10000056792D6A65726B0056782D6A65726B57
:103A20000056782D6A65726B0056782D6A65726B48
:103A3000004D6F74696F6E004572726F72207772FD
:103A40006974696E6720746F20454550524F4D214F
:103A50000A0000002100240027002A002D00300069
:103A6000330001010000040107010A0100002200E7
:103A7000250028002B002E00310034000201000038
:103A8000050108010B010000200023002600290089
:103A90002C002F0032000001000003010601090183
:103AA00005050505070508080808020202020A0ABA
:103AB00008080404040401010101010101010303D8
:103AC000030303030303040707070C0C0C0C0C0C83
:103AD0000C0C0202020206060606060606060B0B80
:103AE0000B0B0B0B0B0B01021020200808102040C1
:103AF00010204080020102010804020101020408B2
:103B0000102040808040201008040201800402013F
:103B10008040201008040201080402010102040888
:103B200010204080010204081020408000000A0B91
:103B300002090C0D0E08070304010000000000003C
:103B40000000000000000000000000000000000075
:103B50000000000000000000121110000000000032
:103B60000000000000000000000000000000000055
:103B70000000024661696C6564207265737375723A
:103B80006563742066696C653A20004D3331004DE1
:103B90003234004D3233202573004F70656E696EEC
:103BA00067207265737375726563742066696C65EE
:103BB0003A20000A00466C757368696E67206A6F68
:103BC00062207265636F7665727920696E666F2E0A
:103BD0002E2E0A0053746F70207072696E7400523A
:103BE0006573756D65207072696E74005072696ED0
:103BF000742070617573656400005072696E742082
:103C000061626F72746564004E6F2053442063617B
:103C10007264005072696E742066726F6D20534436
:103C20000053746F70207072696E74005265737502
:103C30006D65207072696E740041626F75742050FA
:103C400072696E7465720050617573652070726977
:103C50006E7400436F6E74726F6C00426564204333
:103C6000616C6962726174696F6E00507265706137
:103C700072650054756E650041646A757374205AEC
:103C80002D6178697300496E666F20736372656594
:103C90006E000301DF0011241FBECFEFD1E2DEBFB3
:103CA000CDBF00E00CBF15E0A0E0B2E0E0EDFEE526
:103CB00002E00BBF02C007900D92AE31B107D9F7F9
:103CC00029E1AEE1B5E001C01D92AE37B207E1F7E0
:103CD0001EE1CAE4DEE100E006C021970109802F61
:103CE000FE010F94B22EC934D10780E00807A9F76E
:103CF0000F9447120D94572F0C9400002F923F926F
:103D00004F925F926F927F928F929F92AF92BF92EB
:103D1000CF92DF92EF92FF920F931F93CF93DF9397
:103D2000CDB7DEB7CF56D1090FB6F894DEBF0FBEC0
:103D3000CDBF81E090E090936111809360118091FC
:103D4000DD108D3411F40C942628843511F40C9474
:103D50002E37873411F00C9470378091DB109091DE
:103D6000DC108B31910509F415C6B4F4843091054B
:103D70003CF482309105CCF597FF30C00C948A3723
:103D80008430910509F4BFC54A9711F00C948A3725
:103D90000E94EA3A0C948A378A32910511F40C9405
:103DA00097274CF48C31910509F424C64D9709F4FA
:103DB00026C60C948A378B35910511F40C9415277F
:103DC0008C35910511F40C941A278A35910511F060
:103DD0000C948A37109223050C948A3780915302F1
:103DE00081110C9491370C948A372091530222232D
:103DF00011F40C948A3711E0029709F010E00E9448
:103E00002B8382E50E948C39882309F44AC10E94E1
:103E100026396B017C014090FA085090FB086090B5
:103E2000FC087090FD082091FE083091FF08409139
:103E300000095091010928AF39AF4AAF5BAF8091BB
:103E40001E0990911F09A0912009B09121098CAF02
:103E50009DAFAEAFBFAF20912209309123094091B1
:103E60002409509125092C962CAF3DAF4EAF5FAF82
:103E70002C9720E030E0A901C701B6010F94592723
:103E8000882309F426C5A30192016CAD7DAD8EADEA
:103E90009FAD0F94592781110FC028AD39AD4AADA0
:103EA0005BAD2C966CAD7DAD8EAD9FAD2C970F9418
:103EB0005927882309F40DC520E030E0A901C70186
:103EC000B6010F945927881F8827881F18130BC025
:103ED00080E090E0A0E8BFE364968CAF9DAFAEAF0A
:103EE000BFAF64970AC020E030E040E85FEB649623
:103EF0002CAF3DAF4EAF5FAF6497A30192016CADA5
:103F00007DAD8EAD9FAD0F94C22B28966CAF7DAF6B
:103F10008EAF9FAF289728AD39AD4AAD5BAD2C96DB
:103F20006CAD7DAD8EAD9FAD2C970F94C22B60967E
:103F30006CAF7DAF8EAF9FAF609728962CAD3DAD37
:103F40004EAD5FAD2897CA01B9010F94BE274B0152
:103F50005C0160962CAD3DAD4EAD5FAD6097CA0182
:103F6000B9010F94BE279B01AC01C501B4010F94A8
:103F7000C32B0F942E2E24966CAF7DAF8EAF9FAFC8
:103F8000249720E030E040E05FE30F94BE274B0130
:103F90005C01A7019601C701B6010F94BE276B0112
:103FA0007C01A5019401C501B4010F94BE279B01BA
:103FB000AC01C701B6010F94C22B0F942E2E9B01AA
:103FC000AC0164966CAD7DAD8EAD9FAD64970F94E2
:103FD000BE274B015C012CAD3DAD4EAD5FADC301C5
:103FE000B2010F94C32B20E030E040E05FE30F9478
:103FF000BE276B017C0160966CAD7DAD8EAD9FAD33
:104000006097905824962CAD3DAD4EAD5FAD249792
:104010000F949F2C9B01AC01C501B4010F94BE27E6
:104020009B01AC01C701B6010F94C32BA301920100
:104030000F94C22B6B017C012C962CAD3DAD4EAD87
:104040005FAD2C9768AD79AD8AAD9BAD0F94C32B56
:1040500020E030E040E05FE30F94BE272B013C01FD
:1040600024962CAD3DAD4EAD5FAD249728966CAD3A
:104070007DAD8EAD9FAD28970F949F2C9B01AC0119
:10408000C501B4010F94BE279B01AC01C301B2016D
:104090000F94C32B28AD39AD4AAD5BAD0F94C22B45
:1040A00014C089E40E948C39882329F00E942639A3
:1040B0006B017C0103C0C12CD12C76018AE40E94E3
:1040C0008C398823F9F00E9426392C966CAF7DAF8D
:1040D0008EAF9FAF2C9720E030E0A901C701B60159
:1040E0000F94592781111EC020E030E0A9012C96C1
:1040F0006CAD7DAD8EAD9FAD2C970F94592781117E
:1041000011C0E7C320E030E0A901C701B6010F9458
:104110005927882309F4DDC32C961CAE1DAE1EAEB4
:104120001FAE2C97D701C601B05888AF99AFAAAF80
:10413000BBAF2C962CAD3DAD4EAD5FAD2C9750581E
:104140002CAF3DAF4EAF5FAF9C01AD01BC01CD01C7
:104150000F94BE274B015C012CAD3DAD4EAD5FAD64
:10416000CA01B9010F94BE279B01AC01C501B4017E
:104170000F94C32B0F942E2EA0966CAF7DAF8EAFF5
:104180009FAFA0978091FA089091FB08A091FC083E
:10419000B091FD0824968CAF9DAFAEAFBFAF249712
:1041A000A7019601BC01CD010F94C32B64966CAF9F
:1041B0007DAF8EAF9FAF64972091FE083091FF08CE
:1041C000409100095091010960962CAF3DAF4EAF70
:1041D0005FAF60972C962CAD3DAD4EAD5FAD2C978B
:1041E00060966CAD7DAD8EAD9FAD60970F94C32B87
:1041F000A8966CAF7DAF8EAF9FAFA89780911E0938
:1042000090911F09A0912009B091210968968CAF67
:104210009DAFAEAFBFAF689764962CAD3DAD4EADD0
:104220005FAD6497BC01CD010F94C22B6B017C0183
:1042300020912209309123094091240950912509A8
:104240006C962CAF3DAF4EAF5FAF6C97A8962CAD80
:104250003DAD4EAD5FADA8976C966CAD7DAD8EADAE
:104260009FAD6C970F94C22B4B015C0180910209AA
:1042700090910309A0910409B0910509AC968CAF07
:104280009DAFAEAFBFAFAC979C01AD016091260969
:104290007091270980912809909129090F94C22BC8
:1042A00028966CAF7DAF8EAF9FAF289720912A09DB
:1042B00030912B0940912C0950912D09A4962CAFD7
:1042C0003DAF4EAF5FAFA49780910609909107096B
:1042D000A0910809B0910909E0968CAF9DAFAEAFEF
:1042E000BFAFE097A701960168AD79AD8AAD9BADF0
:1042F0000F94BE272B013C01A50194016CAD7DAD4F
:104300008EAD9FAD0F94BE279B01AC01C301B201DE
:104310000F94C32B2B013C01A501940168AD79AD2D
:104320008AAD9BAD0F94BE274B015C01A70196019E
:104330006CAD7DAD8EAD9FAD0F94BE279B01AC01E2
:10434000C501B4010F94C22BA30192010F94362C26
:104350006B017C0120E030E0A9010F94592787FF11
:104360000AC02BED3FE049EC50E4C701B6010F94C1
:10437000C32B6B017C01112351F02BED3FE049EC85
:1043800050E4C701B6010F94C22B6B017C0120E001
:1043900030E0A901C701B6010F945927811128C047
:1043A00068962CAD3DAD4EAD5FAD689724966CAD73
:1043B0007DAD8EAD9FAD24970F945927811118C004
:1043C0006C962CAD3DAD4EAD5FAD6C9760966CAD0F
:1043D0007DAD8EAD9FAD60970F945927811108C0B8
:1043E0000BEDC02E0FE0D02E09ECE02E00E4F02EF5
:1043F000A0962CAD3DAD4EAD5FADA097C701B60107
:104400000F94BE279B01AC010F94BE274B015C01AA
:1044100028962CAD3DAD4EAD5FAD2897CA01B901D0
:104420000F94BE279B01AC01C501B4010F94C32BAF
:104430000F942E2E4B015C012FE632E143E85AE344
:104440000F94592787FD41C2C501B4010F94382D3F
:104450000F940C2D1B01672B19F422242394312C6B
:10446000B10180E090E00F945D274B015C019B015E
:10447000AC01C701B6010F949F2C24966CAF7DAFA1
:104480008EAF9FAF2497A501940128966CAD7DADAA
:104490008EAD9FAD28970F949F2CA0966CAF7DAFEB
:1044A0008EAF9FAFA097E0962CAD3DAD4EAD5FAD0A
:1044B000E097A4966CAD7DAD8EAD9FADA4970F94A3
:1044C000C22BA50194010F949F2CA4966CAF7DAFD5
:1044D0008EAF9FAFA49724962CAD3DAD4EAD5FAD92
:1044E0002497CA01B9010F94BE2720E030E040E0D4
:1044F0005FE30F94BE279B01AC0160E070E080E8B1
:104500009FE30F94C22B68966CAF7DAF8EAF9FAFC9
:104510006897AC962CAD3DAD4EAD5FADAC9729879D
:104520003A874B875C87E0968CAD9DADAEADBFAD55
:10453000E0978D879E87AF87B88B60910602709158
:104540000702072E000C880B990B0F945F27209110
:1045500038023091390240913A0250913B020F9457
:10456000BE272AE037ED43E25CE30F94BE276CA739
:104570007DA78EA79FA70F94AF079B01AC0128537F
:104580003F4F4F4F5F4F6C962CAF3DAF4EAF5FAF7D
:104590006C9748AC59AC6AAC7BAC41E050E02E96CD
:1045A0005FAF4EAF2E9759E125965FAF25972E96B8
:1045B000AEADBFAD2E97A215B30509F44BC10E9455
:1045C000AEE60F94AF07DC01CB016C962CAD3DAD90
:1045D0004EAD5FAD6C97821B930BA40BB50BB7FD73
:1045E00011C00F94AF079B01AC0128533F4F4F4FB1
:1045F0005F4F6C962CAF3DAF4EAF5FAF6C9780E0D6
:104600000E9438C225963FAD2597315025963FAF81
:104610002597332309F445C068962CAD3DAD4EADCA
:104620005FAD68976CAD7DAD8EAD9FAD0F94BE272D
:104630006B017C0124962CAD3DAD4EAD5FAD249752
:10464000B201C3010F94BE27A70196010F94C32B9B
:104650007B018C0168962CAD3DAD4EAD5FAD68978A
:10466000B201C3010F94BE274B015C0124962CAD0F
:104670003DAD4EAD5FAD24976CAD7DAD8EAD9FADC4
:104680000F94BE279B01AC01C501B4010F94C22B4E
:104690002B013C01C701D8018CAF9DAFAEAFBFAFBE
:1046A0005BC02E964EAD5FAD2E97BA0180E090E0D4
:1046B0000F945D2724962CAD3DAD4EAD5FAD249794
:1046C0000F94BE274B015C010F949C2C6B017C0165
:1046D000C501B4010F94242E4B015C01A701960182
:1046E00068AD79AD8AAD9BAD0F94BE272B013C011F
:1046F000A50194012C966CAD7DAD8EAD9FAD2C9730
:104700000F94BE279B01AC01C301B2010F94C32BD0
:104710002B013C01A501940168AD79AD8AAD9BAD3B
:104720000F94BE274B015C01A70196012C966CAD3E
:104730007DAD8EAD9FAD2C970F94BE279B01AC0134
:10474000C501B4010F94C22B6CAF7DAF8EAF9FAF8C
:1047500059E125965FAF25979201A30164966CAD50
:104760007DAD8EAD9FAD64970F94C32B69837A8323
:104770008B839C832CAD3DAD4EAD5FADA8966CADEB
:104780007DAD8EAD9FADA8970F94C32B6D837E83B7
:104790008F839887A0962CAD3DAD4EAD5FADA097B1
:1047A00069857A858B859C850F94C32B69877A8769
:1047B0008B879C87A4962CAD3DAD4EAD5FADA49785
:1047C0006D857E858F8598890F94C32B6D877E8735
:1047D0008F87988B80912E02882321F0CE0101963D
:1047E0000E94DE94E0904C0B89819A81AB81BC8160
:1047F00088A399A3AAA3BBA38D819E81AF81B8850D
:104800008CA39DA3AEA3BFA389859A85AB85BC85E8
:1048100088A799A7AAA7BBA7CE0180960E94E4719A
:104820008E01045D1F4F9E01235F3F4FAE01485D27
:104830005F4FBE016C5D7F4FCE0180960E94E356B4
:104840002E968EAD9FAD2E9701962E969FAF8EAF72
:104850002E97ADCEE0904C0B80911E0990911F09D0
:10486000A0912009B091210988A399A3AAA3BBA371
:104870008091220990912309A0912409B0912509E2
:104880008CA39DA3AEA3BFA3809126099091270975
:10489000A0912809B091290988A799A7AAA7BBA721
:1048A000CE0180960E94E4718E01045D1F4F2AE2C2
:1048B00039E0AE01485D5F4FBE016C5D7F4FCE01B8
:1048C00080960E94E3560E94E03A0E94EC710C949C
:1048D0008A37EEE0F4E284918F010F5F1F4F882347
:1048E00021F00E94F771F801F6CFEBEAF2E0849133
:1048F0008F010F5F1F4F882311F40C948A370E9499
:10490000F771F801F4CF80E50E948C39882329F0F3
:104910000E9405716B017C0103C0C12CD12C760172
:1049200083E50E948C39882361F00E94263920E0BB
:1049300030E04AE754E40F94BE270F940C2D6B012E
:104940007C010E949BE880915902811105C060E0C2
:1049500081EC92E00E94C1680E94EC7180916A1122
:1049600090916B11A0916C11B0916D11C80ED91E70
:10497000EA1EFB1E0F94AF07DC01CB018C199D09C9
:10498000AE09BF09B7FD02C00C948A3780E00E94CF
:1049900038C2F0CF0E94CAEF81110C948A3780E0B0
:1049A00090E0A0E2B1E489839A83AB83BC8380E08A
:1049B00090E0AEE3B3E48D839E83AF83B88780E05D
:1049C00090E0A0EAB1E489879A87AB87BC8780E54D
:1049D0000E948C39882319F00E94F63801C060E0EB
:1049E00068A3BE016F5F7F4FCE0180960F94891040
:1049F0000C948A3780E00E9444860C948A3783E5C1
:104A00000E948C39882319F00E94063901C080E089
:104A1000E82EF12CB6E0EB16F10470F0E8E7F3E0D5
:104A200084918F010F5F1F4F882311F40C948A37F4
:104A30000E94F771F801F4CF823009F44CC028F4D9
:104A4000882371F0813081F1CDC1843009F4BBC17C
:104A500008F458C1853009F0C5C10E94AF84C2C1B5
:104A600080915219882399F080915505811103C0D6
:104A70006FE273E002C06BE273E080E593E00E94B6
:104A800085C18AE00E94F7710F947E1DABC1E8E5F5
:104A9000F3E084918F010F5F1F4F882309F4A2C1B7
:104AA0000E94F771F801F5CF0F94211110920102C5
:104AB0001092000280914D0B81110AC089E493E0AD
:104AC0009093400B80933F0B0E9465700C948A3743
:104AD000B2E0EB2EF12C809100029091010297FF41
:104AE0000EC0E0E2F3E084918F010F5F1F4F882337
:104AF00011F40C948A370E94F771F801F4CF0097F3
:104B0000A1F480912E028093240519821A821B82BF
:104B10001C8218A219A21AA21BA2BE016F5F7F4FAE
:104B2000CE0180960E943D862CC08150982F9178AE
:104B300097FF03C091509E6F9F5FE92F87FD8F5FA6
:104B4000859580FF02C0E1E0E91BEE0FFF0BE80F47
:104B5000F11D87FDFA95EE0FFF1FEE0FFF1FED5AB7
:104B6000F64E8091020990910309A0910409B09139
:104B7000050980839183A283B38380912405809368
:104B80002E022091000230910102243031050CF0F8
:104B900070C010922E02C901019690930102809379
:104BA0000002922F917897FF03C091509E6F9F5FF4
:104BB000892F022F27FF02C001E0020F059500FF99
:104BC00002C081E0891B4091020950910309609164
:104BD0000409709105094CA75DA76EA77FA71982EC
:104BE0001A821B821C8240E050E060EA70E448A315
:104BF00059A36AA37BA3E4E00E02800111240559A6
:104C00001B4EF4E08F02C00111249C012D583B4E35
:104C100069019E012F5F3F4FAE01405E5F4FB801BB
:104C2000C6010E94598519821A821B821C82BE010C
:104C30006F5F7F4FCE018C960E943D86F60180818A
:104C40009181A281B3818093FA089093FB08A0938D
:104C5000FC08B093FD08F80180819181A281B381A5
:104C60008093FE089093FF08A0930009B093010978
:104C700046C080E090E0A0EAB0E4809302099093FF
:104C80000309A0930409B09305090E940C850E94B2
:104C90009BE88FEF9FEF9093010280930002ECE07E
:104CA000F3E084918F010F5F1F4F882321F00E9452
:104CB000F771F801F6CF83E992E09A83898304E6DD
:104CC00010E019A308A3BE016F5F7F4FCE0180964D
:104CD0000E94ADCC8AEB92E09A83898319A308A342
:104CE000BE016F5F7F4FCE0180960E94ADCC81E008
:104CF000809352190E94448681E00E94948410920D
:104D00004D0B70C088E50E948C398823A1F00E9469
:104D1000F6380FEF060F0230A8F0E5EFF2E08491CD
:104D20008F010F5F1F4F882311F40C948A370E9464
:104D3000F771F801F4CF88E50E94F7710F94301EE7
:104D40000C948A3789E50E948C398823A1F00E944F
:104D5000F6381FEF160F1230A8F0EEEDF2E0849156
:104D60008F010F5F1F4F882311F40C948A370E9424
:104D7000F771F801F4CF89E50E94F7710F94301EA6
:104D80000C948A378AE50E948C398823A9F00E9406
:104D90002639212F110F330B200F311D200F311D0C
:104DA000220F331F220F331FF901ED5AF64E608395
:104DB00071838283938316C08AE50E94F7710F94F2
:104DC000301E0C948A378AE50E948C398823A1F31F
:104DD0000E9426396093480B7093490B80934A0BCD
:104DE00090934B0BF1E0EF1AF10822E0E216F10488
:104DF000C0F4609100027091010277FD12C065302D
:104E0000710514F064E070E08FEC92E00E946CC1D8
:104E100064E070E08AEC92E00E946CC18AE00E943B
:104E2000F7710E94DBB40C948A3781E080932305EC
:104E30000C948A370E949BE844EA242E42E0342EE8
:104E400055EDC52E58E0D52E00E010E0E12CF12CF8
:104E500018AED1018D911D010E948C39882309F46F
:104E600052C00E9426394B015C01B3E0EB16F104FD
:104E700059F0F801EE56F74F20813181428153817C
:104E80000F94C22B4B015C01F801E650F74F2081D3
:104E9000318142815381C501B4010F94C22B2B0192
:104EA0003C012DEB37E346E855EB0F94E92D87FDE8
:104EB0000AC02DEB37E346E855E3C301B2010F9476
:104EC0005927181604F5E3E0EE16F10459F4809220
:104ED000060990920709A0920809B0920909F1E029
:104EE000F8AF11C0A3019201D6016D917D918D9112
:104EF0009C910F94C32BF60160837183828393830B
:104F0000C7010E941487FFEFEF1AFF0A24E0C20EC8
:104F1000D11C0C5F1F4F34E0E316F10409F099CF68
:104F200048AD442309F47DCF0E940FA67ACF80912B
:104F30005302882311F40C948A3789E40E948C3937
:104F4000F82E882321F00E94F638062F01C000E0D9
:104F50008AE40E948C39E82E882331F00E94F638CA
:104F6000162FF11004C00AC010E0FF20B1F002308B
:104F700010F40C94F637EFE8F3E003C01230D8F7E2
:104F80000CC084918F010F5F1F4F882311F40C9484
:104F90008A370E94F771F801F4CF0E949839FF20F8
:104FA00091F054E00502F0011124ED58FB4E808190
:104FB0009181A281B38180931E0990931F09A093D0
:104FC0002009B0932109EE2091F084E01802F0014D
:104FD0001124E559FB4E80819181A281B381809398
:104FE000220990932309A0932409B093250980E511
:104FF0000E948C39882319F00E94173903C080E57C
:105000000E945D3986E40E948C398823D9F00E9481
:1050100026396B017C0120E030E0A9010F94E92DD5
:10502000181684F420E030E040E752E4C701B601EE
:105030000F949F2C609338027093390280933A0248
:1050400090933B020E94B9C50C948A378091DB1083
:105050009091DC108237910509F488C50CF0D3C01B
:105060008B34910509F4F4C30CF075C088319105B7
:1050700009F4A2C2E4F58231910509F46FC5F4F494
:1050800097FF02C00C948A37823091050CF4AAC1B4
:10509000419711F00C948A3760E088EE93E00E940B
:1050A000C1685F988A989FB7F894809108018E7FB5
:1050B000809308019FBF12980C948A37853191051F
:1050C00009F45FC23CF4449711F00C948A37E0E095
:1050D000F4E014C28631910509F457C2479711F0E4
:1050E0000C948A37E091D910F091DA1058C28E31C1
:1050F000910509F4BEC2C4F48A31910509F46FC266
:105100000CF465C28B31910509F477C24C9711F00C
:105110000C948A3740E060E08091D9109091DA10C9
:105120000E94C2A00C948A378032910509F4BBC258
:105130000CF405C38A32910509F42DC3C19711F00F
:105140000C948A37F0901E0581E0F826F0921E0537
:10515000EBE5F4E060C38836910509F48BC35CF598
:105160008235910509F4F1C49CF48D34910509F45C
:1051700079C30CF471C38E34910509F477C381357A
:10518000910511F00C948A370E94CEB70C948A379F
:105190008435910509F4E2C40CF4DBC4853591052E
:1051A00009F4E0C48C35910511F00C948A370E9403
:1051B000C0B60C948A378D36910509F4BAC49CF4B4
:1051C0008A36910509F4B9C40CF492C48B36910562
:1051D00009F4B7C48C36910511F00C948A371092FB
:1051E0009D020C948A378F36910509F4ADC30CF4F7
:1051F00098C38037910509F430C48137910509F4CB
:1052000034C40C948A37823E910511F40C94D23147
:105210000CF063C08B39910509F487C41CF58737FE
:10522000910509F443C574F48537910509F4F6C472
:105230000CF0FDC48337910511F00C948A37E4E635
:10524000F5E09AC48937910509F49DC50CF494C51D
:105250008C38910509F435C48139910509F499C553
:105260000C948A378D3C910509F4E4C6ACF4893C72
:10527000910509F437C634F4883C910509F4EAC570
:105280000C948A378B3C910509F44DC68C3C9105F2
:1052900009F466C60C948A37833D910509F451C719
:1052A00084F48E3C910511F00C948A3774EAC72E71
:1052B00072E0D72EE1E4EE2EE5E0FE2E00E010E0F5
:1052C0002EC78C3D910511F40C9481318D3D9105D3
:1052D00011F40C948D310C948A37853AA1E09A0729
:1052E00011F40C949033F4F58F32E1E09E0711F441
:1052F0000C940B33DCF48C3221E0920711F40C9403
:1053000000323CF48232914011F40C94F7310C9449
:105310008A378D3251E0950711F40C9425328E3284
:10532000914011F40C94BB320C948A378039B1E06F
:105330009B0711F40C940E334CF48336914011F01A
:105340000C948A37EEE0F4E20C9405378A3921E0B8
:10535000920709F486C3843A914011F40C941133F6
:105360000C948A37873F41E0940711F40C949933E9
:10537000FCF4843FA1E09A0711F40C9493334CF4AD
:105380008C3A914011F00C948A370E94B8B50C9475
:105390008A37853FF1E09F0711F40C949633863FDE
:1053A000914011F00C948A370E9401ED0C948A37D9
:1053B000843833E0930711F40C9413363CF48835A9
:1053C000924011F40C949C330C948A37803AA3E0F9
:1053D0009A0709F4A7C1873E934011F40C941C3737
:1053E0000C948A37A090D910B090DA1080E50E9412
:1053F0008C39882359F00E9405716B017C0111E002
:10540000672B682B692B31F410E004C010E0C12C2D
:10541000D12C760183E50E948C398823F1F00E941B
:10542000263920E030E04AE754E40F94BE270F9479
:105430000C2D6B017C01111112C0672B682B692B9D
:1054400071F4A114B10459F0F5018081882339F079
:1054500061E0C5010E94E16807C0112391F360E09B
:1054600085ED93E00E94C16883E090E09093611124
:105470008093601181E08093D3070E949BE80E9493
:10548000EC71C114D104E104F104F1F080916A11CE
:1054900090916B11A0916C11B0916D11C80ED91E35
:1054A000EA1EFB1E0F94AF07DC01CB018C199D098E
:1054B000AE09BF09B7FF1EC08091D3078823D1F082
:1054C00080E00E9438C2EECF8091D307882321F07C
:1054D00080E00E9438C2F8CF80919B1490919C1478
:1054E00060E0029719F48DEB93E002C08EEA93E03E
:1054F0000E94C1681092D3070C948A3784918F015F
:105500000F5F1F4F882321F00E94F771F801F6CF3B
:1055100010926B1710926A1740E050E0BA0186E1D2
:1055200095E10F944A028BE1E6E1F5E1DE01159683
:1055300001900D928A95E1F78091141590911515BF
:105540009C838B8385EC92E09A83898340E050E0D2
:10555000BE016F5F7F4F8CEE93E00E94CACDCE01FB
:1055600001960E94B096E1EFF3E084918F010F5F06
:105570001F4F882311F40C948A370E94F771F801A9
:10558000F4CF0E94F4A30C948A371092E514109281
:10559000E6140C948A37803209F4108231968081A7
:1055A0008111F9CF40E061E08091D9109091DA103B
:1055B0000E94C2A00C948A378091E614882319F0C7
:1055C00081E08093E5140E945BF10C948A3710927D
:1055D000E5148BE994E10E94B5E70C948A37809139
:1055E000E614882311F40C948A3783E50E948C39E1
:1055F00081110C9496370C948A378091E614882395
:1056000051F1E1E1F4E084918F010F5F1F4F882396
:1056100021F00E94F771F801F6CF60916117709147
:10562000621780916317909164174AE00E94977403
:105630008FE20E94F77160915D1770915E17809103
:105640005F17909160174AE00E9497748AE00E9469
:10565000F7710C948A37E3E2F4E084918F010F5FD5
:105660001F4F882311F40C948A370E94F771F801B8
:10567000F4CF8091E614882311F40C948A3780EBE0
:1056800096E10F94090280EB96E10E94648E1092DD
:10569000E4141092E3148091D9109091DA100E94D2
:1056A00073F00C948A378091E51481110E949BE875
:1056B0008091E614882311F40C948A3780E50E94C7
:1056C0008C39882319F00E94173903C080E50E94A5
:1056D0005D39182F482F61E08091D9109091DA1030
:1056E0000E94C2A083E50E948C39882381F00E9429
:1056F000F638AB01BC014093611750936217609379
:1057000063177093641780EB96E10F944A028091BF
:10571000E614882319F081E08093E51411110C94AC
:105720008A3751CF8091D9109091DA1021E02093DF
:10573000E41440E060E00E94C2A00C948A378BE938
:1057400094E10E9488E768A379A38AA39BA3BE0182
:105750006F5F7F4FCE0180960E94157160E0CE0191
:1057600001960E94E168E8ECF0E384918F010F5FFD
:105770001F4F882321F00E94F771F801F6CFBE0178
:105780006F5F7F4F84E394E00E9485C18AE00E94AE
:10579000F7710C948A3783E50E948C39882311F4C1
:1057A0000C948A370E940639E82E80E50E948C39D5
:1057B000882341F00E94F6388B0177FF02C00C94D9
:1057C0008A3702C00DE010E0902FE2E4F7E088E2B3
:1057D0008E0F2491921729F031968E13FACF0C94E4
:1057E000A637EEE0F4E284918F010F5F1F4F88230C
:1057F00021F00E94F771F801F6CFE1E4F4E0849122
:105800008F010F5F1F4F882311F40C948A370E9479
:10581000F771F801F4CF84918F010F5F1F4F882338
:1058200021F00E94F771F801F6CFF11003C0E5E511
:10583000F4E002C0E0E5F4E084918F010F5F1F4FB8
:10584000882311F40C948A370E94F771F801F4CF81
:105850000E945BF10C948A378BE994E10E94B5E7D2
:105860000C948A370E9474CA0C948A370E948C81E7
:105870000C948A3788E690E00E94FD7481110C94A4
:105880008A378091430B83FF02C00C948A3783E5EB
:105890000E948C39882309F440C00E9426390F9455
:1058A000072D70935B0560935A0580E00E943AE4EF
:1058B0000E94263920E030E04AEA52E40F9459274A
:1058C00018163CF00E9474CA60E08DE694E00E94D5
:1058D000C1680E94263920914E0B30914F0B4091A8
:1058E000500B5091510B0F94E92D1816B4F486E427
:1058F00093E09F938F9380919B1890E001969F93E4
:105900008F9386E694E09F938F931F920E94ADEF52
:105910000FB6F894DEBF0FBECDBF0E94E4540C94C6
:105920008A378EE40E948C39882311F40C948A37CC
:105930000E94F638609330097093310980933209E0
:10594000909333090C948A3783E50E945D3988234C
:1059500059F083E50E948C39882319F00E9406399A
:1059600001C080E08093430BE8ECF0E384918F0169
:105970000F5F1F4F882321F00E94F771F801F6CFC7
:10598000E3E9F4E084918F010F5F1F4F882321F03A
:105990000E94F771F801F6CF8091430B8823A1F1A3
:1059A00035E8C32E34E0D32EE12CF12C20E0809199
:1059B000430B90E00E2C02C0959587950A94E2F770
:1059C00080FF17C0BB24B394B20E222319F08CE2DF
:1059D0000E94F771F60125913491F90184918901B2
:1059E0000F5F1F4F882321F00E94F7719801F5CFB8
:1059F0002B2DFFEFEF1AFF0A32E0C30ED11C45E05A
:105A0000E416F104A1F624C0EFE8F4E084918F01DC
:105A10000F5F1F4F8823E1F00E94F771F801F6CF66
:105A2000C0907107D0907207E0907307F0907407F0
:105A300020E030E0A901C701B6010F94592788235F
:105A400011F40C94F73642E0C701B6010E94557577
:105A50008AE00E94F7710C948A378AE994E00E94E8
:105A6000CDC10E94F9AF0C948A3783E50E948C392E
:105A7000882369F00E9406398D3320F480933C021C
:105A80000C948A378CE380933C020C948A37E8ECC0
:105A9000F0E384918F010F5F1F4F882321F00E9454
:105AA000F771F801F6CF40913C0250E060E070E001
:105AB00083EA94E00E9415C18AE00E94F7710C9479
:105AC0008A378091430B83FF02C00C948A3783E5A9
:105AD0000E948C39882311F40C948A370E9426394D
