:100000000C9447210C9478210C9478210C9478213D
:100010000C9478210C9478210C9478210C947821FC
:100020000C9478210C9478210C9478210C947821EC
:100030000C9478210D944B100C9478210C94782119
:100040000C9478210D948E1B0C9478210C947821BB
:100050000C9478210C9478210C94F9D40D943012DE
:100060000C9478210C9401470C9478210C947821FD
:100070000C9478210C9478210C9478210C9478219C
:100080000C9478210C9478210C9478210C9478218C
:100090000C9478210C9478210C9478210C9478217C
:1000A0000C9478210C9478210C9478210C9478216C
:1000B0000C9478210C9478210C9478210C9478215C
:1000C0000C9478210C9478210C9478210C9478214C
:1000D0000C9478210C9478210C9478210C9478213C
:1000E0000C947821F774DD74E074E374E674F274B0
:1000F000E9740375EC74EF740A78427844785178A7
:1001000057785A786278EB00DD000B01F7000F0199
:10011000D90027010901F1001D01F50007010101C6
:100120001F01D900D100E1002F011B01330129017A
:10013000FD00DF00DB000501FF001701E7001501EE
:1001400035013101ED00DB00D3002D01CF00084A5D
:10015000D73B3BCE016E84BCBFFDC12F3D6C7431DB
:100160009ABD56833DDA3D00C77F11BED9E4BB4C32
:100170003E916BAAAABE000000803F05A84CCDB2FC
:10018000D44EB93836A9020C50B9918688083CA6DD
:10019000AAAA2ABE000000803F000D946F300D9483
:1001A000D9110D949B0F0D94C5110D94C6020D9499
:1001B000C9020D94A80F0D94E3110D94710F0D94C5
:1001C0006A110D949F0F0D94F20F0D94280F0D944A
:1001D0008E110D9438200D946E0F0D94BB110D945B
:1001E000CE0F0D947F0F0D94B0130D94870F0D94C7
:1001F000640F0D94F00F0D9416310D9460110D9451
:100200007C110D94910F0D94161A0D9474110D9488
:100210008D0F0D94790F0D94600F0D94E21A0D94CB
:100220006A0F0D943D200D94C2190D9498110D94F0
:1002300084110D943A200D944C110D94830F0D945C
:10024000950F0D9450200D94C4020D9412210D941D
:10025000750F0D9456110D94AF130D94CF110D948D
:10026000A30F0D94B1110D9451110D94A2114E4193
:100270004E494E495459494E46CDCCCC3D0AD72320
:100280003C17B7D13877CC2B329595E6241FB14F68
:100290000A000020410000C84200401C4620BCBEAD
:1002A0004CCA1B0E5AAEC59D74434F4D4D554E4919
:1002B000434154494F4E0044525952554E00455205
:1002C000524F525300494E464F004543484F004756
:1002D000322F47332062616420706172616D6574F2
:1002E0006572730A00536C6565702E2E2E00206FA8
:1002F0006620004D424C2047323920706F696E7481
:10030000200059206F7574206F662072616E6765DA
:100310002028312D32292E0A0058206F7574206F45
:10032000662072616E67652028312D32292E0A0001
:100330004D6573682070726F62696E6720646F6EBE
:10034000652E0A005374617274206D6573682070A5
:10035000726F62696E67207769746820224732394C
:10036000205331222066697273742E0A0047323995
:100370002053320053746174653A20004D657368F0
:1003800020626564206C6576656C696E67206861C3
:1003900073206E6F20646174612E0A0053206F75A4
:1003A00074206F662072616E67652028302D3529B4
:1003B0002E0A004D65736820706F696E742063614A
:1003C0006E6E6F74206265207265736F6C76656403
:1003D0000A00436C69636B20746F20726573756DDE
:1003E000652E2E2E004E6F206D6F76652E00456EA9
:1003F000642066696C65206C6973740A00426567E5
:10040000696E2066696C65206C6973740A00286ED9
:100410006F2066696C6529005344207072696E74A0
:10042000696E67206279746520004E6F74205344B2
:10043000207072696E74696E670A00437572726526
:100440006E742066696C653A200046696C652064AC
:10045000656C657465643A0044656C6574696F6EBB
:10046000206661696C65642C2046696C653A2000E1
:100470005072696E742074696D653A20006F6E2E3B
:100480000A006F66662E0A004732362044656275A0
:1004900067200046696C616D656E742075736564D4
:1004A0003A200053746174733A20002C204C6F6E14
:1004B00067657374206A6F623A2000546F74616CD0
:1004C0002074696D653A200053746174733A20009A
:1004D0002C204661696C65643A20002C2046696EC8
:1004E00069736865643A20005072696E74733A20CB
:1004F0000053746174733A2000CA02C502BE02B789
:1005000002A9026F66660044454255473A004B49CE
:100510004C4C45442E20004D3131332053006F6B3D
:100520000020573A004520436F6F6C696E672E2E8E
:100530002E00452048656174696E672E2E2E0020BE
:10054000573A0042656420636F6F6C696E672E2EA8
:100550002E004265642068656174696E672E2E2ED8
:10056000004A756C696120496E7465726D656469D5
:10057000617465204F66662E00544845524D414CCB
:100580005F50524F54454354494F4E004155544FCC
:100590005245504F52545F53445F53544154555346
:1005A00000454D455247454E43595F5041525345D2
:1005B0005200434153455F4C494748545F425249BA
:1005C0004748544E45535300544F47474C455F4CA2
:1005D000494748545300534F4654574152455F5082
:1005E0004F574552004255494C445F504552434590
:1005F0004E54004C4556454C494E475F444154418A
:10060000005A5F50524F4245004155544F4C455699
:10061000454C005052494E545F4A4F420050524F91
:100620004752455353004155544F5245504F525431
:100630005F54454D5000564F4C554D45545249431B
:1006400000454550524F4D0053455249414C5F586B
:100650004F4E5F584F4646004649524D574152450E
:100660005F4E414D453A4D61726C696E20312E31BD
:100670002E3920284769746875622920534F5552D6
:1006800043455F434F44455F55524C3A687474701C
:10069000733A2F2F6769746875622E636F6D2F4DE3
:1006A00061726C696E4669726D776172652F4D611A
:1006B000726C696E2050524F544F434F4C5F5645F9
:1006C0005253494F4E3A312E30204D414348494E06
:1006D000455F545950453A4A756C696120496E74BA
:1006E00065726D656469617465204558545255445E
:1006F00045525F434F554E543A3120555549443A7F
:1007000063656465326132662D343161322D343770
:1007100034382D396231322D6335356336326633E4
:10072000363766660A002F2F20007A5F6D61783AAF
:100730002000795F6D61783A2000785F6D696E3ACC
:1007400020005265706F7274696E6720656E647305
:10075000746F70207374617475730A004D31343591
:1007600020533C696E6465783E206F7574206F6617
:100770002072616E67652028302D31290A002054CF
:1007800000205200416363656C65726174696F6E2D
:100790003A2050005741524E494E4721204C6F7726
:1007A000205A204A65726B206D6179206C65616406
:1007B00020746F20756E77616E746564207061754A
:1007C0007365732E0A004F666673657473206170DB
:1007D000706C696564004572723A20546F6F2066D0
:1007E00061722100546F6F206661722066726F6DB6
:1007F000207265666572656E636520706F696E74E0
:100800000A00205A00205900580020204D61783AF3
:100810002000205A00205900580020204D696E3ACF
:1008200020004F6E20004F666600536F667420658F
:100830006E6473746F70733A200020466C6F773A61
:100840002000000136372603FFFFFF353C3D38FF0F
:100850000FFFFF312E303EFF13FFFFFF28FF0C0874
:1008600009FFFFFF1A1C18FFFF2A08440AFF434331
:10087000290A0061626C656420286D696E207465C8
:100880006D702000436F6C642065787472756465C8
:100890007320617265200041637469766520457834
:1008A0007472756465723A2000496E76616C696491
:1008B0002065787472756465720A004B494C4C452A
:1008C000442E2000202D20496E76616C69642065DD
:1008D00078747275646572206E756D626572202120
:1008E0000A000000000000000000000000000000FE
:1008F00000000000000000000000000000000000F8
:1009000000000000000000000000000000000000E7
:1009100000000000000000001F0FC00000000000E9
:1009200000000000000000007F87F00000000000D1
:1009300000000000000000007FC7F8000000000079
:100940000000000000000000FFE3FC0000000000C9
:100950000000000000000001FFF1FC0000000000AA
:100960000000000000000003FFF0FE000000000097
:100970000000000000000007FFF87F0000000000FA
:100980000000000000000007FFFC7F800000000066
:10099000000000000000000FE1FE3F8000000000AA
:1009A000000000000000001F807F1FC0000000004A
:1009B000000000000000003F9E3F0FE0000000002C
:1009C000000000000000003F1F3F8FF0000000000B
:1009D000000000000000007E3F1FC7F8000000007C
:1009E00000000000000000FC7F8FE3F80000000022
:1009F00000000000000001F8FF87F1FC000000008B
:100A000000000000000003F9FF07F0FE00000000F6
:100A100000000000000003F00603F8FF00000000E3
:100A200000000000000007F00001FC7F80000000D3
:100A30000000000000000FF8FE00FE200000000093
:100A40000000000000001FF87F007E000000000092
:100A50000000000000001FFC7F807E3F800000003F
:100A60000000000000003FFE3F803C7F00000000CF
:100A70000000000000007FFF1FC018E00000000021
:100A8000000000000000FE7F0FE001C1F800000040
:100A9000000000000000FC3F8FF00381FC0000001C
:100AA000000000000001F81FC7F80010FE00000061
:100AB000000000000003F18FE3F80038FF000000A1
:100AC000000000000007E3C7E1F0003C7F000000E9
:100AD00000000000000FE7E7F000007E3F8000000C
:100AE00000000000000FC7F3F07C007E1FC0000074
:100AF00000000000001F8FF1E3FC007F0FE000000A
:100B000000000000003F1FF0C700003F8FF0000012
:100B100000000000007F3FE04E01C01FC7F0000052
:100B200000000000007E3FE01E1FE00FE3F8000021
:100B300000000000007C7FC0100FE007E1FC000017
:100B4000000000000038F00000C7F007F1FE0000D0
:100B5000000000000039800001C3F803F8FF000026
:100B600000000000001307F003E3FC01FC7F00001D
:100B700000000000000307F803F1FE00FC3F8000C6
:100B800000000000000063F803F8FE007E1FC000B4
:100B900000000000000071FC01F87F007F1FE000F2
:100BA000000000000000F0FE00FC7F803F8FE000AE
:100BB000000000000001F87F007E3FC01FC7F0006A
:100BC000000000000001FC7F807F1FC00FC3F80001
:100BD000000000000000FE3F803F8FE007E3FC00C4
:100BE0000000000000007F1FC01F87F007F1FC001D
:100BF0000000000000003F0FE00007F80003FE00C7
:100C00000000000000003F87F00007FC0007FF0025
:100C10000000000000001FC7FE0FFFFFFFFFFF00E6
:100C20000000000000000FE3FFFFFFFFFFFFFF00D9
:100C300000000000000007F1FFFFFFFFFFFFFF00C3
:100C400000000000000003F0FFFFFFFFFFFFFF00B8
:100C500000000000000003F83FFFFFFFFFFFFC0063
:100C600000000000000001FC000000000000000087
:100C700000000000000000FF8000000000000000F5
:100C8000000000000000007FFFFFFFFFFFFFF000FB
:100C9000000000000000003FFFFFFFFFFFFFF0002B
:100CA000000000000000001FFFFFFFFFFFFFE0004B
:100CB000000000000000000FFFFFFFFFFFFFC0006B
:100CC0000000000000000000000000000000000024
:100CD0000000000000000000000000000000000014
:100CE00000000A005072696E7420526573746F724E
:100CF0006520446562756720456E640A00707269FC
:100D00006E745F6A6F625F656C61707365643A20D0
:100D1000007364706F733A200073645F66696C657A
:100D20006E616D653A20003E2000636F6D6D616EEF
:100D300064735F696E5F71756575653A2000636DF8
:100D4000645F71756575655F696E6465785F723A39
:100D50002000626162797374657070696E673A2011
:100D60000020666164653A20006C6576656C696E8A
:100D7000673A20007461726765745F74656D7065B1
:100D80007261747572655F6265643A20003A200092
:100D900066616E537065656473003A200074617219
:100DA0006765745F74656D706572617475726500F6
:100DB000666565647261746520253A20003A2000FA
:100DC00063757272656E745F706F736974696F6E4C
:100DD00000494E56414C494420444154410A0020A8
:100DE00076616C69645F666F6F743A0076616C69F6
:100DF000645F686561643A005072696E7420526580
:100E000073746F72652044656275672053746172F4
:100E1000740A000A00494E56414C49442052455339
:100E2000544F52452042494E004D3237004D323426
:100E3000004D32362053256C75004D32332025731A
:100E4000004D323930205A2573004D323230205354
:100E50002573004731205A257300473120592573E7
:100E60000047312046313230302058257300473951
:100E70003220452573004739322046323030204534
:100E80003500473120463230302045350047393271
:100E9000204530004731205A2573004D3432302030
:100EA000533100473238004D343230205330205A0D
:100EB00030004D3131372052657374617274696E40
:100EC00067202573004D3130362050256920532589
:100ED00069004D31303920532569004D31393020BA
:100EE000532569004C6F61646564207072696E748B
:100EF0005F726573746F72655F696E666F0A004931
:100F00006E6974206A6F62207265636F76657279AC
:100F100020696E666F2E2053697A653A2000507200
:100F2000696E7420526573746F72652047636F64D5
:100F3000652066696C653A20002020506C616E6EF9
:100F4000657242756666657242797465733A20000F
:100F50002046726565204D656D6F72793A200043B9
:100F60006F6D70696C65643A204E6F762020362074
:100F7000323031380A00207C20417574686F723A33
:100F800020467261636B74616C20576F726B730AD9
:100F900000323031382D30382D303100204C617323
:100FA0007420557064617465643A2000312E312ECE
:100FB000390A004D61726C696E0020536F66747758
:100FC0006172652052657365740A0020576174630D
:100FD00068646F672052657365740A002042726FFF
:100FE000776E206F75742052657365740A00204512
:100FF000787465726E616C2052657365740A005076
:101000006F77657255700A0073746172740A0061BB
:1010100075746F25692E6700456E6473746F707305
:1010200020256320256320256320256300205A3A6C
:101030000020593A0020583A00656E6473746F704E
:1010400073206869743A2000446F6E65207361767E
:10105000696E672066696C652E0A004D323900247E
:10106000F4D43050C38E20C2A24017828B7011126C
:101070007A910D816CD90AA861E108C758660761A9
:101080005143061E4B5D05C145A7041A41110409D1
:101090003D9803713931034036DB0265339102D448
:1010A000305402802E1D02632CEE01752AC501B05A
:1010B00028A001102781018F2564012B244B01E01A
:1010C000223401AC211F018D200D01801FFC008402
:1010D0001EED00971DDF00B81CD200E61BC60020E5
:1010E0001BBC00641AB200B219A8000A19A0006A59
:1010F000189900D117910040178B00B51684003164
:10110000167E00B31579003A157300C7146F0058A6
:10111000146A00EE1366008813630025135E00C78F
:10112000125B006C12570015125400C1115100706F
:10113000114F0021114B00D61049008D1047004679
:1011400010440002104200C00F4000800F3E0042D9
:101150000F3C00060F3B00CB0E3800930E37005CAF
:101160000E3500270E3400F30D3200C10D31009012
:101170000D3000600D2E00320D2D00050D2C00D914
:101180000C2B00AE0C2900850C29005C0C270035C7
:101190000C27000E0C2600E80B2400C40B2400A032
:1011A0000B23007D0B23005A0B2100390B21001863
:1011B0000B2000F80A1F00D90A1E00BB0A1E009D62
:1011C0000A1D00800A1D00630A1C00470A1B002C30
:1011D0000A1B00110A1A00F7091A00DD091900C4D8
:1011E000091900AB091900920917007B091800635F
:1011F0000917004C09160036091600200916000AC6
:10120000091500F5081500E0081400CC081400B812
:10121000081400A4081400900813007D0812006B45
:101220000813005808120046081200340811002361
:101230000811001208110001081100F0071000E069
:10124000071000D0071000C0071000B0070F00A162
:1012500007100091070E0083070F0074070F006549
:10126000070E0057070E0049070E003B070D002E22
:10127000070E0020070D0013070D0006070D00F9EB
:10128000060C00ED060D00E0060C00D4060C00C8AC
:10129000060C00BC060C00B0060C00A4060B00995E
:1012A000060C008D060B0082060B0077060B006C07
:1012B000060B0061060A0057060B004C060A0042A6
:1012C000060A0038060A002E060A0024060A001A3A
:1012D000060A001006090007060A00FD050900F4C9
:1012E000050900EB050900E2050900D9050900D050
:1012F000050900C7050900BE050900B5050800ADD0
:10130000050800A50509009C050800940508008C47
:10131000050800840508007C050800740508006CB9
:10132000050700650508005D050700560508004E25
:10133000050700470507004005080038050700318C
:101340000507002A050700230507001C05060016EF
:101350000507000F0507000805060002050700FB4A
:10136000040600F5040700EE040600E8040600E2A7
:10137000040700DB040600D5040600CF040600C9FC
:10138000040600C3040600BD040600B7040600B14D
:10139000040500AC040600A6040600A00405009B9A
:1013A00004060095040500900406008A04050085E3
:1013B000040500800406007A040500750405007029
:1013C0000405006B04050066040500610405005C6B
:1013D00004050057040500520405004D04050048AB
:1013E000040500430405003E0404003A04050035EA
:1013F000040500300404002C040500270404002325
:101400000405001E0404001A04040016040500115B
:101410000404000D04040009040500040404000091
:10142000040400FC030400F8030400F4030400F0C7
:10143000030400EC030400E8030400E4030400E0F8
:10144000030400DC030400D8030400D4030400D028
:10145000030400CC030400C8030300C503030024F5
:10146000F404D9201BC40C5C0E9804C4095F026507
:10147000077101F405F900FB04B30048048700C1BB
:101480000369005803550003034500BE023A008477
:1014900002310053022A002902250004022000E440
:1014A000011C00C8011900AF011700980114008445
:1014B000011300710110006101100051010E004381
:1014C000010D0036010B002B010B0020010B001554
:1014D0000109000C01090003010800FB000800F3EA
:1014E000000800EB000700E4000600DE000600D85C
:1014F000000600D2000600CC000500C7000500C2AF
:10150000000500BD000400B9000400B5000400B1EE
:10151000000400AD000400A9000400A5000300A21F
:101520000003009F0004009B000300980003009547
:1015300000020093000300900003008D0002008B66
:10154000000300880002008600020084000300817E
:101550000002007F0002007D0002007B0002007993
:1015600000020077000100760002007400020072A1
:10157000000100710002006F0002006D0001006CAC
:101580000002006A000100690002006700010066B5
:1015900000010065000100640002006200010061BA
:1015A000000100600001005F0002005D0001005CBE
:1015B0000001005B0001005A0001005900010058C1
:1015C00000010057000100560001005500010054C1
:1015D00000010053000000530001005200010051BF
:1015E000000100500001004F0001004E0000004EBD
:1015F0000001004D0001004C0001004B0000004BB9
:101600000001004A000100490001004800000048B4
:1016100000010047000100460000004600010045AF
:1016200000000045000100440001004300000043A9
:1016300000010042000000420001004100000041A2
:10164000000100400001003F0000003F0001003E9B
:101650000000003E0001003D0000003D0001003C94
:101660000000003C0000003C0001003B0000003B8B
:101670000001003A0000003A000100390000003982
:101680000001003800000038000000380001003779
:101690000000003700010036000000360000003670
:1016A0000001003500000035000000350001003465
:1016B000000000340000003400010033000000335B
:1016C0000000003300010032000000320000003250
:1016D0000001003100000031000000310001003045
:1016E00000000030000000300001002F0000002F3B
:1016F0000000002F0000002F0001002E0000002E2F
:101700000000002E0001002D0000002D0000002D23
:101710000000002D0001002C0000002C0000002C17
:101720000000002C0001002B0000002B0000002B0B
:101730000000002B0001002A0000002A0000002AFF
:101740000000002A000100290000002900000029F3
:1017500000000029000000290001002800000028E6
:1017600000000028000000280000002800010027D9
:1017700000000027000000270000002700000027CD
:1017800000010026000000260000002600000026C0
:1017900000000026000100250000002500000025B3
:1017A00000000025000000250000002500010024A5
:1017B0000000002400000024000000240000002499
:1017C000000100230000002300000023000000238C
:1017D000000000230000002300000023000100227D
:1017E0000000002200000022000000220000002271
:1017F0000000002200010021000000210000002163
:101800000000002100000021000000210000002154
:101810000001002000000020000000200000002047
:101820000000002000000020000000200000002038
:101830000001001F0000001F0000001F0000001F2B
:101840000000001F0000001F0000001F0001001E1C
:101850000000001E0000001E0000001E000000230B
:101860002C0000B8220000561800003A0F0000B803
:10187000080000B1040000710200003E0100004DAC
:101880006573682056616C69646174696F6E20537A
:10189000746F707065642E00696E206D6F76655F81
:1018A000746F282920666565645F76616C756520B4
:1018B000666F722058593A004C656176696E6720F0
:1018C000473236004732362048656174696E6720BA
:1018D0004E6F7A7A6C652E00473236204865617407
:1018E000696E67204265642E00446F6E65205072F9
:1018F000696D696E67004669786564204C656E673E
:101900007468205072696D652E00557365722D43A1
:101910006F6E74726F6C6C6564205072696D6500D7
:101920002C2065793D0029202D3E202865783D003A
:101930002C2073793D0020436F6E6E656374696E71
:1019400067207769746820766572746963616C20BA
:101950006C696E65202873783D002C2065793D0008
:1019600029202D3E202865783D002C2073793D00EC
:1019700020436F6E6E656374696E67207769746863
:1019800020686F72697A6F6E74616C206C696E6525
:10199000202873783D004C656176696E6720473278
:1019A00036003F53706563696669656420582C5939
:1019B00020636F6F7264696E617465206F75742047
:1019C0006F6620626F756E64732E0A003F2852297D
:1019D00065706561742076616C7565206E6F74202A
:1019E000706C61757369626C653B206D75737420F2
:1019F0006265206174206C6561737420312E0A0069
:101A00003F537065636966696564206E6F7A7A6CAE
:101A1000652074656D7065726174757265206E6F96
:101A20007420706C61757369626C652E0A003F5397
:101A300070656369666965642066696C616D656E71
:101A4000742073697A65206E6F7420706C61757391
:101A500069626C652E0A003F53706563696669654B
:101A600064207072696D65206C656E677468206EA5
:101A70006F7420706C61757369626C652E0A003F2B
:101A8000537065636966696564206E6F7A7A6C6508
:101A90002073697A65206E6F7420706C617573694C
:101AA000626C652E0A003F53706563696669656400
:101AB0002052657472616374696F6E204D756C7429
:101AC00069706C696572206E6F7420706C617573DB
:101AD00069626C652E0A003F5265747261637469B5
:101AE0006F6E204D756C7469706C696572206D75D0
:101AF0007374206265207370656369666965642E1E
:101B00000A003F537065636966696564206C61799A
:101B1000657220686569676874206E6F7420706CE8
:101B200061757369626C652E0A003F537065636965
:101B300066696564206265642074656D70657261B4
:101B400074757265206E6F7420706C617573696254
:101B50006C65202834302D31343043292E0A00475B
:101B6000323620636F6D6D616E64207374617274C0
:101B700065642E2057616974696E6720666F7220F4
:101B80006865617465722873292E0A00506C65615E
:101B90007365207265736574005052494E54455206
:101BA0002048414C544544005072696E746572205F
:101BB00068616C7465642E206B696C6C28292063E5
:101BC000616C6C6564210A0020746F74616C3A204A
:101BD0000042616279737465703A2000656E7175B8
:101BE000657565696E6720220000000000000048EE
:101BF000430000524300004842000048420000A059
:101C000041000000005761726E696E673A20486FAC
:101C10006D696E672042756D702044697669736FD7
:101C200072203C20310A000202040000A0400000A3
:101C3000A040000000400000524300004843000064
:101C40005243FF01017C3C3E5E2B3D3F2F5B5D3BE1
:101C50002C2A225C004368616E67652066696C61AE
:101C60006D656E74004368616E67652066696C61BE
:101C70006D656E74004D3630302042300042616236
:101C80007973746570205A00466C6F7700466C6FEC
:101C9000770046616E2073706565640046616E2052
:101CA00073706565640042656400426564004E6F50
:101CB0007A7A6C65004E6F7A7A6C650042656420B2
:101CC0005A00426564205A00537065656400537081
:101CD000656564004D61696E005072656865617488
:101CE00020504C4120456E640050726568656174F7
:101CF00020504C41204265640050726568656174F3
:101D000020504C41005072657061726500507265E0
:101D1000686561742041425320456E6400507265CD
:101D200068656174204142532042656400507265C9
:101D3000686561742041425300507265706172653C
:101D4000004C6576656C696E6720446F6E65210096
:101D50004D6F7665205A00473239205332004E6568
:101D6000787420506F696E74002569202F202575C6
:101D70000047323920533100473239205332004373
:101D80006C69636B20746F20426567696E00486FF1
:101D90006D696E672058595A004732380053746F86
:101DA00072652073657474696E6773004C6F61644B
:101DB0002073657474696E677300426564205A000D
:101DC000426564205A004F6666004F6E20004265EF
:101DD00064204C6576656C696E67004C6576656C51
:101DE000206265640050726570617265004D343226
:101DF00038005072656865617420504C4100436F33
:101E00006F6C646F776E0050726568656174204115
:101E10004253004368616E67652066696C616D6559
:101E20006E74004368616E67652066696C616D65FC
:101E30006E74004D36303020423000446973616268
:101E40006C65207374657070657273004D38340072
:101E500053657420686F6D65206F66667365747373
:101E600000426564204C6576656C696E670041755B
:101E7000746F20686F6D6500473238004D6F76656E
:101E80002061786973004D61696E004D6F76652041
:101E900058004D6F76652059004D6F7665205A00C9
:101EA0004578747275646572004D6F766520302ECA
:101EB000316D6D004D6F766520316D6D004D6F7623
:101EC000652031306D6D004D6F76652061786973E6
:101ED000004578747275646572004D6F7665205A9E
:101EE000004D6F76652059004D6F7665205800458E
:101EF00078747275646572004D6F7665205A004D76
:101F00006F76652059004D6F7665205800507265D8
:101F10007061726500473238004D343230205330E2
:101F2000205A3000473238004D34323020533020B0
:101F30005A3000473120583131302059313937205B
:101F40005A3000473120583131302059313937006B
:101F50004731205A32300047312046393030300086
:101F60004731205833352E3620593231205A30002F
:101F70004731205833352E36205932310047312031
:101F80005A32300047312046393030300047312056
:101F90005831383120593231205A300047312058D9
:101FA0003138312059323100473120463930303014
:101FB000004D3234004D323320257300556E6B6E68
:101FC0006F776E20636F6D6D616E643A20220048FA
:101FD0006F74656E6420746F6F20636F6C640A00A9
:101FE0006572726F722077726974696E6720746FA0
:101FF0002066696C650A00486F6D6520257325733E
:102000002573206669727374002066697273740A9E
:10201000005A0059005800486F6D65200053442055
:1020200063617264206F6B0A006F70656E526F6F30
:1020300074206661696C65640A00766F6C756D6505
:102040002E696E6974206661696C65640A00534488
:1020500020696E6974206661696C0A005772697440
:10206000696E6720746F2066696C653A20006F7036
:10207000656E206661696C65642C2046696C653A02
:1020800020006F70656E206661696C65642C204667
:10209000696C653A200046696C652073656C656300
:1020A0007465640A002053697A653A200046696CB9
:1020B00065206F70656E65643A20002066696C6506
:1020C0003A2000646F696E67006672657368004E3F
:1020D0006F772000454E4420535542524F55544986
:1020E0004E450A002220706F7300222070617265D5
:1020F0006E743A2200535542524F5554494E452072
:1021000043414C4C207461726765743A22004B491C
:102110004C4C45442E2000747279696E6720746FB0
:102120002063616C6C207375622D67636F6465203A
:1021300066696C6573207769746820746F6F206DB1
:10214000616E79206C6576656C732E204D41582048
:102150006C6576656C2069733A004572726F723AED
:102160000000060900FE0701920321207FFF07FF00
:1021700007FF00000006000001070706020080803C
:102180008080800080030202060105A0A0050707E9
:102190000600005050F850F85050050707060000A0
:1021A0002078A07028F020050707060000C0C8109E
:1021B000204098180507070600006090A040A890EE
:1021C00068020303060104C04080030707060100FC
:1021D00020408080804020030707060100804020C7
:1021E0002020408005050506000120A870A82005D4
:1021F00005050600012020F820200203030602FF47
:10220000C04080050101060003F802020206020038
:10221000C0C005050506000108102040800507071D
:102220000600007088888888887003070706010008
:1022300040C040404040E0050707060000708808A5
:10224000708080F8050707060000F81020100808C5
:10225000F005070706000010305090F81010050731
:1022600007060000F880F0080888700507070600D8
:1022700000708080F0888870050707060000F80865
:10228000102020202005070706000070888870882D
:1022900088700507070600007088887808087002B3
:1022A0000505060200C0C000C0C00206060602FF07
:1022B000C0C000C040800407070600001020408016
:1022C000402010050303060002F800F80407070683
:1022D00001008040201020408005070706000070A4
:1022E000880810200020050707060000708808688D
:1022F000A8A870050707060000708888F8888888F5
:10230000050707060000F08888F08888F0050707B1
:10231000060000708880808088700507070600002E
:10232000F08888888888F0050707060000F8808014
:10233000F08080F8050707060000F88080F08080B4
:1023400080050707060000708880B8888870050738
:1023500007060000888888F8888888010707060231
:10236000008080808080808005070706000038108C
:1023700010101090600507070600008890A0C0A00C
:102380009088050707060000808080808080F8051F
:10239000070706000088D8A88888888805070706E8
:1023A00000008888C8A8988888050707060000707C
:1023B000888888888870050707060000F08888F0FC
:1023C00080808005070706000070888888A89068CC
:1023D000050707060000F08888F0A0908805070729
:1023E000060000788080700808F0050707060000E6
:1023F000F820202020202005070706000088888874
:1024000088888870050707060000888888888850B3
:10241000200507070600008888888888A8500507D7
:1024200007060000888850205088880507070600A6
:102430000088888850202020050707060000F8083B
:1024400010204080F8030707060100E080808080AC
:1024500080E00505050600018040201008030707FD
:10246000060100E02020202020E0050303060004F0
:10247000205088050101060000F80202020602054C
:102480008040050505060000700878887805070774
:102490000600008080B0C88888F0050505060000A9
:1024A0007080808870050707060000080868988813
:1024B00088780505050600007088F8807005070714
:1024C0000600003048E0404040400506060600FF98
:1024D0007088887808700507070600008080B0C8FB
:1024E000888888010707060200800080808080803D
:1024F0000308080601FF200020202020A040040738
:1025000007060000808090A0C0A090030707060186
:1025100000C04040404040E0050505060000D0A84E
:10252000A8A8A8050505060000B0C8888888050584
:102530000506000070888888700506060600FFF012
:102540008888F080800506060600FF78888878086D
:1025500008050505060000B0C88080800505050651
:10256000000070807008F00407070600004040E09B
:1025700040404030050505060000888888986805B9
:10258000050506000088888850200505050600001E
:102590008888A8A8500505050600008850205088A6
:1025A0000506060600FF8888887808700505050678
:1025B0000000F8102040F803070706010020404003
:1025C00080404020010707060200808080808080D4
:1025D000800307070601008040402040408005023C
:1025E000020600026890000000060000FFE0FFD134
:1025F0001000FFFEFFD0FFE0FFC1FFD1E240A0C806
:10260000A6A22FF800238127AC00AFFF64A5FF64CA
:10261000FF64A4FFD0FFFE20746F6F206C6F6E67A5
:1026200020657874727573696F6E20707265766557
:102630006E7465640A0020636F6C64206578747240
:102640007573696F6E2070726576656E7465640A65
:1026500000473120583130302059313030205A3540
:102660003000436C69636B20746F20426567696E4C
:1026700000486F6D696E672058595A00473238001C
:1026800047323800416476616E636564204C65763C
:10269000656C696E6700517569636B204C65766582
:1026A0006C696E67004D61696E00496E697469619D
:1026B0006C697A6520454550524F4D00436F6E74EA
:1026C000726F6C00526573746F7265206661696C1D
:1026D00073616665004C6F61642073657474696E24
:1026E000677300496E697469616C697A6520454554
:1026F00050524F4D0053746F726520736574746946
:102700006E67730046696C616D656E74004D6F7421
:10271000696F6E0054656D706572617475726500E5
:102720004D61696E00507265686561742041425365
:1027300020636F6E66005072656865617420504C4E
:102740004120636F6E66005049442D440050494457
:102750002D44005049442D49005049442D49005012
:1027600049442D50005049442D5000200820466116
:1027700063740020082046616374002008204D61C6
:1027800078002008204D6178002008204D617800F5
:102790002008204D696E002008204D696E00200839
:1027A000204D696E004F6666004F6E2000417574C3
:1027B0006F74656D700046616E20737065656400AE
:1027C00046616E2073706565640042656400426511
:1027D00064004E6F7A7A6C65004E6F7A7A6C650091
:1027E000436F6E74726F6C0053746F726520736503
:1027F0007474696E67730042656400426564004EDC
:102800006F7A7A6C65004E6F7A7A6C650046616EFD
:102810002073706565640046616E20737065656441
:102820000054656D70657261747572650025753A46
:102830002530327500253032753A25303275002545
:10284000756420253032753A2530327500202020FD
:10285000202020005A005900202020200058000984
:1028600020000000000000000000000000003FFF0A
:10287000F0000000000000000000000000380070C0
:1028800000000000000000000000000030FC3000EC
:10289000000000000000000000000020FC1000000C
:1028A0000000000000000000000020781000000080
:1028B00000000000000000000020301000000000B8
:1028C00000000000000000002C00D03FC00000000D
:1028D000000000002082002E31D07FE000000000C8
:1028E0000000001041002F7BD07FE00000000000BE
:1028F00000001041002F7BD07FE0000000000000AE
:10290000002082002E31D03FC000000000000000F7
:102910004104002C00D03FC00000000000000082F5
:1029200008002030107FE000000000000000820856
:10293000002078107FE0000000000000004104004B
:1029400020FC107FE000000000000000208200302A
:10295000FC301F8000000000000000000000380074
:10296000700F0000000000000000FFFFC03FFFF0FC
:10297000060000000000000000FFFFC00000000093
:1029800000000000000000000000003FFFF0000019
:10299000000000000000000000003800700000008F
:1029A0000000000000000000003186300000000040
:1029B000000000000000000023871000000000005D
:1029C00000000000000000278790000000000000C9
:1029D0000000000000002F87D00000000000000071
:1029E00000000000002F03D03FC0000000000000E6
:1029F000002082002030107FE00000000000000076
:102A00001041002078107FE000000000000000105E
:102A100041002078107FE0000000000000002082CC
:102A2000002030103FC00000000000000041040002
:102A30002F03D03FC0000000000000008208002FDC
:102A400087D07FE000000000000000820800278798
:102A5000907FE00000000000000041040023871088
:102A60007FE0000000000000002082003186301F5F
:102A700080000000000000000000003800700F001F
:102A800000000000000000FFFFC03FFFF006000054
:102A9000000000000000FFFFC00000000006090069
:102AA000FE000000000001090008FE000005080803
:102AB00006000040F0C888889878100508080600CD
:102AC00000C0F88888888888F80505050600012078
:102AD00030F830200508080600002070F82020207B
:102AE00020E00509090600FF2070A8A8B8888870B2
:102AF000200509090600FFE080C0B0A8283028287A
:102B00000509090600FFF8A88888888888A8F805BC
:102B10000A0A0600FE205050505088A8A88870036A
:102B2000030306000340A040746F20726573756D47
:102B300065005761697420666F72207072696E74E7
:102B400000436172642072656D6F76656400436155
:102B5000726420696E7365727465640020496E76D4
:102B6000616C696420657874727564657220000018
:102B700000000000000000000000000000524300C0
:102B800000484300005243486F6D696E67206661DC
:102B9000696C656400206E6F7420656E7465726583
:102BA000642E0A0050726F74656374656420506906
:102BB0006E0A00205A3A0020423A0020436F756E98
:102BC0007420413A0020453A00205A3A0020593AF0
:102BD00000583A003A004361703A0020643A0020FD
:102BE000693A0020703A00496E76616C696420652C
:102BF000787472756465720A0023646566696E652F
:102C00002044454641554C545F4B64200023646585
:102C100066696E652044454641554C545F4B6920BA
:102C20000023646566696E652044454641554C54F1
:102C30005F4B702000504944204175746F74756E6D
:102C4000652066696E69736865642120507574201B
:102C5000746865206C617374204B702C204B692064
:102C6000616E64204B6420636F6E7374616E747365
:102C70002066726F6D2062656C6F7720696E746F6D
:102C800020436F6E66696775726174696F6E2E6836
:102C90000A00504944204175746F74756E65206652
:102CA00061696C6564212074696D656F75740A00D3
:102CB000453120544845524D414C2052554E4157C4
:102CC000415900546865726D616C2052756E617770
:102CD00061790045312048656174696E67206661DD
:102CE000696C65640048656174696E672066616936
:102CF0006C656400504944204175746F74756E654D
:102D0000206661696C6564212054656D706572612F
:102D10007475726520746F6F20686967680A002097
:102D20004B643A2000204B693A2000204B703A2037
:102D3000000A20436C617373696320504944200A80
:102D4000002054753A2000204B753A2000206D6118
:102D5000783A2000206D696E3A200020643A200005
:102D600020626961733A2000504944204175746FB4
:102D700074756E65206661696C65642120426164CA
:102D8000206578747275646572206E756D62657207
:102D90000A00504944204175746F74756E65207344
:102DA000746172740A004D61782054656D703A2028
:102DB000313530004D696E2054656D703A20350014
:102DC000544265643A4D656E64656C2D7061727431
:102DD00073004D61782054656D703A2032373500AC
:102DE0004D696E2054656D703A20350054303A209C
:102DF0004D656E64656C2D7061727473005053552F
:102E00003A2047656E657269630050726F746F6334
:102E10006F6C3A20312E3000426175643A203131B6
:102E200035323030004D4B532047454E203E3D203B
:102E300076312E33004D657368204C6576656C697C
:102E40006E67004578747275646572733A2031005C
:102E5000687474703A2F2F6D61726C696E66772E8C
:102E60006F7267004A756C696120496E7465726D96
:102E700065646961746500323031382D30382D3029
:102E80003100312E312E39004D61726C696E005067
:102E900072696E746572205374617473005468654E
:102EA000726D6973746F727300426F61726420494E
:102EB0006E666F005072696E74657220496E666F3F
:102EC000004D61696E004D3630302042302054256F
:102ED00064004D37303120542564004D37303220A6
:102EE0003B2564004D37303220542564004368612F
:102EF0006E67652066696C616D656E740050726501
:102F00006865617420414253005072656865617460
:102F100020504C41004368616E67652066696C61B2
:102F20006D656E74005052494E54205041555345C2
:102F30004400554E4C4F41442046494C414D454E6E
:102F400054004C4F41442046494C414D454E54009D
:102F50005075726765206D6F726500436F6E74699E
:102F60006E756500524553554D45204F5054494F9D
:102F70004E533A0020204E6F7A7A6C653A200063F7
:102F800068616E6765006F66207468652066696CAD
:102F9000616D656E74005761697420666F7220738D
:102FA000746172740020204E6F7A7A6C653A20004A
:102FB000200066696C616D656E7420756E6C6F6162
:102FC00064005761697420666F720020204E6F7A2A
:102FD0007A6C653A20002000506C6561736520773B
:102FE0006169742E2E2E0048656174696E67206ECB
:102FF0006F7A7A6C650020204E6F7A7A6C653A2081
:1030000000200068656174206E6F7A7A6C652E000E
:10301000507265737320627574746F6E20746F00E4
:1030200020204E6F7A7A6C653A2000746F20636FAF
:103030006E74696E75652E2E2E00616E642070723E
:1030400065737320627574746F6E00496E73657278
:10305000742066696C616D656E740020204E6F7A15
:103060007A6C653A2000200066696C616D656E744B
:10307000206C6F6164005761697420666F72002074
:10308000204E6F7A7A6C653A2000200066696C6188
:103090006D656E7420707572676500576169742084
:1030A000666F7200526573656E643A20006F6B0044
:1030B00020746F6F206C6F6E672065787472757303
:1030C000696F6E2070726576656E7465640A0020A3
:1030D000636F6C6420657874727573696F6E2070AD
:1030E000726576656E7465640A00627573793A205C
:1030F00070617573656420666F7220696E70757497
:103100000A00627573793A20706175736564206690
:103110006F7220757365720A00627573793A207058
:10312000726F63657373696E670A004B494C4C4557
:10313000442E20004B494C4C20636175736564201C
:103140006279204B494C4C20627574746F6E2F70FD
:10315000696E0A004B494C4C45442E20004B494CAB
:103160004C2063617573656420627920746F6F20F1
:103170006D75636820696E61637469766520746932
:103180006D65202D2063757272656E7420636F6D9E
:103190006D616E643A20006F70656E206661696CC7
:1031A00065642C2046696C653A200043616E6E6F41
:1031B00074206F70656E207375626469722000659B
:1031C00063686F3A005265636F7665727920424991
:1031D0004E207772697465206661696C65642E0A99
:1031E000006F70656E206661696C65642C204669AD
:1031F0006C653A200057726974696E6720746F209D
:1032000066696C653A2000453120544845524D416D
:103210004C2052554E415741590042454420544894
:1032200045524D414C2052554E415741590054682A
:1032300065726D616C2052756E61776179004265CF
:10324000642068656174696E67206661696C656495
:103250000048656174696E67206661696C65640029
:1032600045312048656174696E67206661696C65E7
:10327000640048656174696E67206661696C6564A5
:10328000001000600350012C0190012201D00118B0
:103290000110020E0170020401E002FA006003F066
:1032A000000004E600B004DC00A005D200B006C8AF
:1032B000000008BE00A009B400800BAA00D00DA039
:1032C0000090109600C0138C0070178200901B783D
:1032D0000010206E00C0246400E02D500080353CBA
:1032E00000A03A2800A03D1400003F0000A03FECE1
:1032F000FF4531204572723A204D415854454D509A
:10330000004572723A204D415854454D5020424577
:1033100044004D415854454D5020747269676765AB
:10332000726564004531204572723A204D494E5411
:10333000454D50004572723A204D494E54454D500E
:1033400020424544004D494E54454D502074726909
:10335000676765726564004D383420582059205ADB
:10336000204500202F002042403A0020403A00250E
:1033700069730025696D202569730025696820251A
:10338000696D2025697300256964202569682025F9
:10339000696D2025697300256979202569642025D8
:1033A00069682025696D20256973004E6F20436888
:1033B00065636B73756D2077697468206C696E65E1
:1033C000206E756D6265722C204C617374204C699F
:1033D0006E653A20004B494C4C45442E2000535416
:1033E0004F505045442E20005072696E7465722013
:1033F00073746F707065642064756520746F2065E8
:1034000072726F72732E2046697820746865206529
:1034100072726F7220616E6420757365204D393948
:103420003920746F20726573746172742E20285471
:10343000656D70657261747572652069732072655F
:103440007365742E205365742069742061667465F9
:10345000722072657374617274696E67290A004E16
:103460006F20436865636B73756D2077697468209E
:103470006C696E65206E756D6265722C204C61738F
:1034800074204C696E653A2000636865636B7375E0
:103490006D206D69736D617463682C204C61737469
:1034A000204C696E653A20004C696E65204E756D42
:1034B000626572206973206E6F74204C6173742092
:1034C0004C696E65204E756D6265722B312C204CF7
:1034D000617374204C696E653A20004D31313000C3
:1034E0004D33310053442072656164206572726F00
:1034F000720A00446F6E65207072696E74696E673F
:103500002066696C650A00454550524F4D20646144
:10351000746173697A65206572726F722E0A002970
:103520000A002062797465733B2063726320005344
:10353000657474696E67732053746F7265642028B4
:1035400000290A002062797465733B20637263204E
:10355000002073746F7265642073657474696E679C
:10356000732072657472696576656420280020286E
:1035700063616C63756C6174656429210A002021A4
:103580003D2000454550524F4D20435243206D6928
:10359000736D61746368202D202873746F72656485
:1035A0002920002053697A653A2000496E646578C5
:1035B0003A2000204D61726C696E3D563535290AFE
:1035C0000028454550524F4D3D00454550524F4D06
:1035D0002076657273696F6E206D69736D617463B7
:1035E000682000426564204C6576656C696E6720D2
:1035F000004661696C656420746F20656E61626C61
:103600006520426564204C6576656C696E670A00CA
:103610004D65736820426564204C6576656C206456
:103620006174613A0A004D65736820706F696E7449
:103630002063616E6E6F74206265207265736F6CBB
:103640007665640A004D34323120696E636F7272A0
:1036500065637420706172616D6574657220757345
:103660006167650A00454550524F4D204F4B0A0097
:103670004D3630303A20546F6F20636F6C640048D1
:103680006F74656E6420746F6F20636F6C640A00E2
:10369000496E736572742066696C616D656E742025
:1036A000616E6420707265737320627574746F6EDE
:1036B0000A00507265737320627574746F6E2074A3
:1036C0006F2068656174206E6F7A7A6C650A0049B4
:1036D0006E736572742066696C616D656E742061CD
:1036E0006E6420707265737320627574746F6E20DF
:1036F000286F72204D313038290A00496E73657287
:10370000742066696C616D656E7420616E642070F2
:103710007265737320627574746F6E20286F7220E7
:103720004D313038290A003F4B2076616C75652099
:103730006F7574206F662072616E67652028302D6A
:103740003130292E0A00416476616E6365204B3D5D
:10375000004E6F2063617365206C696768740A00AE
:103760004573746570732F6D6D0045737465707368
:103770002F6D6D005A73746570732F6D6D005A73E1
:10378000746570732F6D6D005973746570732F6D50
:103790006D005973746570732F6D6D005873746587
:1037A00070732F6D6D005873746570732F6D6D009D
:1037B0004D6F74696F6E0053746570732F6D6D007B
:1037C0004A65726B00416363656C65726174696F11
:1037D0006E0056656C6F6369747900436F6E747226
:1037E0006F6C004C6F6164206D6D004C6F616420E4
:1037F0006D6D004C6F6164206D6D00556E6C6F6176
:1038000064206D6D00556E6C6F6164206D6D0055A8
:103810006E6C6F6164206D6D0046696C2E2044698A
:10382000612E0046696C2E204469612E004F666649
:10383000004F6E20004520696E206D6D330041649D
:1038400076616E6365204B00416476616E6365202E
:103850004B00436F6E74726F6C0043616E6E6F74D9
:1038600020656E746572207375626469723A200017
:10387000022E2E004D61696E0000457874727564E9
:10388000656420746F74616C3A2000256C642E2589
:10389000696D00004C6F6E67657374206A6F6220FB
:1038A00074696D653A200000546F74616C20707209
:1038B000696E742074696D653A2000436F6D706C99
:1038C000657465643A20005072696E7420436F75A8
:1038D0006E743A20005654726176206D696E0056FF
:1038E00054726176206D696E005654726176206D57
:1038F000696E00566D696E00566D696E00566D6991
:103900006E00566D6178204500566D617820450047
:10391000566D6178204500566D6178205A00566DCD
:103920006178205A00566D6178205A00566D617892
:10393000205900566D6178205900566D61782059E4
:1039400000566D6178205800566D617820580056F9
:103950006D61782058004D6F74696F6E00416D6124
:1039600078204500416D6178204500416D617820E7
:103970005A00416D6178205A00416D6178205900EC
:10398000416D6178205900416D6178205800416D8A
:103990006178205800412D74726176656C00412D6C
:1039A00074726176656C00412D7265747261637426
:1039B00000412D7265747261637400416363656CCC
:1039C00000416363656C004D6F74696F6E005665EE
:1039D0002D6A65726B0056652D6A65726B005665BF
:1039E0002D6A65726B00567A2D6A65726B00567A85
:1039F0002D6A65726B0056792D6A65726B00567977
:103A00002D6A65726B0056792D6A65726B00567867
:103A10002D6A65726B0056782D6A65726B00567858
:103A20002D6A65726B004D6F74696F6E000A4D658B
:103A300061737572656420706F696E74733A0A0001
:103A40005A206F66667365743A20004E756D205873
:103A50002C593A20322C320A00FFFDFCFAF8F6F419
:103A6000F2F0EEECEAE9E7E5E3E1E0DEDCDAD9D713
:103A7000D5D4D2D0CFCDCBCAC8C7C5C3C2C0BFBDB5
:103A8000BCBAB9B7B6B4B3B2B0AFADACAAA9A8A628
:103A9000A5A4A2A1A09E9D9C9A9998979594939273
:103AA000908F8E8D8B8A8988878684838281807FA0
:103AB0007E7D7B7A797877767574737271706F6EAC
:103AC0006D6C6B6A696867666564636261605F5E9E
:103AD0005D5C5B5A59585857565554535251505083
:103AE0004F4E4D4C4B4A4A4948474646454443424F
:103AF0004241403F3E3E3D3C3B3B3A393838373609
:103B00003535343332323130302F2E2E2D2C2B2BB5
:103B10002A29292827272625252423232221212055
:103B2000201F1E1E1D1C1C1B1B1A191918181716E6
:103B300016151514131312121111100F0F0E0E0D6E
:103B40000D0C0C0B0A0A09090808070706060505EB
:103B50000404030302020100000000000100000051
:103B600001000080005555550000004000333333FC
:103B700000AAAA2A004992240000002000C7711C54
:103B80000099991900D1451700555515003BB113FF
:103B9000002449120011111100000010000F0F0F36
:103BA00000E3380E0043790D00CCCC0C00C3300C80
:103BB00000E8A20B0064210B00AAAA0A00703D0ACB
:103BC000009DD80900427B090092240900DCD3083B
:103BD00000888808001042080000000800F0C107B3
:103BE000008787070075500700711C07003EEB0631
:103BF00000A1BC06006990060066660600703E06DD
:103C0000006118060017F4050074D105005BB005CB
:103C100000B290050062720500555505007839051F
:103C200000B81E0500050505004EEC040087D4040D
:103C300000A1BD040090A7040049920400C17D04C6
:103C400000EE690400C7560400444404005C3204DA
:103C5000000821040041100400000004003FF003AC
:103C600000F8E0030026D20300C3C30300CCB50371
:103C7000003AA803000A9B0300388E0300C08103AA
:103C8000009F750300D0690300505E03001D5303BD
:103C90000034480300913D03003333030016290329
:103CA00000381F030097150300300C0300030303C3
:103CB000000BFA020049F10200BAE802005CE002DF
:103CC000002DD802002DD0020059C80200B0C00259
:103CD0000031B90200DAB10200AAAA0200A0A302D0
:103CE00000BC9C0200FA9502005C8F0200DF880293
:103CF0000082820200457C020027760200277002C3
:103D000000436A02007C640200D05E02003F590258
:103D100000C853020048617264636F6465642044A4
:103D2000656661756C742053657474696E67732081
:103D30004C6F616465640A00E8030000E80300005A
:103D400032000000102700000000484300004843F4
:103D50000000A04100003442000020430000204346
:103D6000F0F77B4400008C4320286D6D2900202053
:103D70004D36303320002055004C0046696C616D93
:103D8000656E74206C6F61642F756E6C6F6164205A
:103D90006C656E677468733A0A0020204D393030C4
:103DA000204B004C696E65617220416476616E63E0
:103DB000653A0A0020440020490020204D3330316C
:103DC0002050005049442073657474696E67733ADB
:103DD0000A0020460020420020480020204D3134B7
:103DE000352053004D6174657269616C20686561AE
:103DF00074757020706172616D65746572733A0AD2
:103E000000205A0020590020204732392053332007
:103E1000580020204D3432302053004D6573682007
:103E2000426564204C6576656C696E673A0A0020CD
:103E30005A0020590020204D323036205800486F5B
:103E40006D65206F66667365743A0A002045002030
:103E50005A002059002058002054002053002020F0
:103E60004D32303520420020453C6D61785F655F02
:103E70006A65726B3E0020583C6D61785F785F6ABE
:103E800065726B3E20593C6D61785F795F6A65723F
:103E90006B3E205A3C6D61785F7A5F6A65726B3E5B
:103EA00000416476616E6365643A20423C6D696EE0
:103EB0005F7365676D656E745F74696D655F75735B
:103EC0003E20533C6D696E5F666565647261746522
:103ED0003E20543C6D696E5F74726176656C5F66FE
:103EE000656564726174653E0020540020520020B4
:103EF000204D323034205000416363656C6572613F
:103F000074696F6E2028756E6974732F7332293A45
:103F100020503C7072696E745F616363656C3E2013
:103F2000523C726574726163745F616363656C3E79
:103F300020543C74726176656C5F616363656C3EAE
:103F40000A00204500205A0020590020204D323020
:103F5000312058004D6178696D756D20416363654E
:103F60006C65726174696F6E2028756E6974732F49
:103F70007332293A0A00204500205A0020590020B7
:103F8000204D3230332058004D6178696D756D20B9
:103F90006665656472617465732028756E697473F3
:103FA0002F73293A0A00204500205A00205900208A
:103FB000204D39322058005374657073207065723B
:103FC00020756E69743A0A0020204D32303020444A
:103FD000300A0020204D32303020440020446973E4
:103FE00061626C65640A0046696C616D656E74207F
:103FF00073657474696E67733A0020204D313439EB
:104000002043203B20556E69747320696E20436500
:104010006C736975730A00202047323120202020FC
:104020003B0000002100240027002A002D00300062
:10403000330001010000040107010A010000220011
:10404000250028002B002E00310034000201000062
:10405000050108010B0100002000230026002900B3
:104060002C002F00320000010000030106010901AD
:1040700005050505070508080808020202020A0AE4
:104080000808040404040101010101010101030302
:10409000030303030303040707070C0C0C0C0C0CAD
:1040A0000C0C0202020206060606060606060B0BAA
:1040B0000B0B0B0B0B0B01021020200808102040EB
:1040C00010204080020102010804020101020408DC
:1040D000102040808040201008040201800402016A
:1040E00080402010080402010804020101020408B3
:1040F00010204080010204081020408000000A0BBC
:1041000002090C0D0E080703040100000000000066
:10411000000000000000000000000000000000009F
:10412000000000000000000012111000000000005C
:10413000000000000000000000000000000000007F
:104140000000024572726F722077726974696E673F
:1041500020746F20454550524F4D210A004A756C1E
:10416000696120496E7465726D656469617465206A
:1041700052656164792E005072696E74696E672EA3
:104180002E2E005072696E74207061757365640024
:104190005265636F766572792042494E2064656C82
:1041A000657465642E0A005265636F7665727920C6
:1041B00042494E2064656C657465206661696C6572
:1041C000642E0A005072696E742061626F727465A9
:1041D00064004E6F20534420636172640050726922
:1041E0006E742066726F6D2053440053746F70209C
:1041F0007072696E7400526573756D6520707269B6
:104200006E740041626F7574205072696E746572CD
:10421000005061757365207072696E7400436F6E33
:1042200074726F6C004265642043616C69627261F4
:1042300074696F6E00507265706172650054756EBE
:10424000650041646A757374205A2D617869730042
:10425000496E666F2073637265656E0042616279B4
:1042600073746570205A006265640A002C207379AB
:104270007374656D2073746F707065642120486578
:10428000617465725F49443A2000FB00CD0011243F
:104290001FBECFEFD1E2DEBFCDBF00E00CBF14E008
:1042A000A0E0B2E0E6E5F3E802E00BBF02C0079051
:1042B0000D92AE38B107D9F72AE1AEE8B4E001C0FB
:1042C0001D92A138B207E1F711E2C6E4D1E200E0A5
:1042D00006C021970109802FFE010F94F540C534D7
:1042E000D10780E00807A9F70F94C6270D949A41DB
:1042F0000C9400002F923F924F925F926F927F92A8
:104300008F929F92AF92BF92CF92DF92EF92FF92E5
:104310000F931F93CF93DF93CDB7DEB7C954D10965
:104320000FB6F894DEBF0FBECDBF21E020935B0B2C
:104330008091D80A8D3409F461C5843511F40C9448
:104340007135873411F00C94BD358091D60A909167
:10435000D70A8B31910509F414C2A4F48430910575
:1043600034F48230910594F597FF29C043C5843019
:10437000910509F4C7C14A9709F03CC50E9440491C
:104380000C94BF358A32910509F42DC444F48C3164
:10439000910509F426C24D9709F428C22BC58B3527
:1043A000910509F4AFC48C35910509F4AFC48A3581
:1043B000910509F01FC5109293040C94BF358091AC
:1043C000610281110C94C4350C94BF3520916102B7
:1043D000222311F40C94BF3511E0029709F010E08C
:1043E0000E94D4B119821A821B821C821D821E82F5
:1043F0001F82188682E50E94E747882309F432C1AC
:104400000E9469476B017C012091D2073091D3074C
:104410004091D4075091D5072EA33FA348A759A791
:104420008090D6079090D707A090D807B090D90772
:104430004091E6075091E7076091E8077091E9071E
:104440004AA75BA76CA77DA76091EA077091EB076D
:104450008091EC079091ED076EA77FA788AB99AB91
:1044600020E030E0A901C701B6010F949C398823F0
:1044700009F40EC12EA13FA148A559A56AA57BA5A7
:104480008CA59DA50F949C3981110BC0A5019401A9
:104490006EA57FA588A999A90F949C39882309F452
:1044A000F7C020E030E0A901C701B6010F949C39A4
:1044B000881F8827881F18130BC080E090E0A0E8B1
:1044C000BFE322968CAF9DAFAEAFBFAF22970AC0BD
:1044D00020E030E040E85FEB22962CAF3DAF4EAFDE
:1044E0005FAF22972EA13FA148A559A56AA57BA53C
:1044F0008CA59DA50F94053E6EAB7FAB88AF99AFA1
:10450000A50194016EA57FA588A999A90F94053EE0
:104510006AAF7BAF8CAF9DAF2EA93FA948AD59AD17
:10452000CA01B9010F94013A2B013C012AAD3BAD00
:104530004CAD5DADCA01B9010F94013A9B01AC01CC
:10454000C301B2010F94063E0F9471406AAB7BAB7E
:104550008CAB9DAB20E030E040E05FE30F94013A8C
:104560002B013C01A7019601C701B6010F94013A46
:104570006B017C01A3019201C301B2010F94013AC6
:104580009B01AC01C701B6010F94053E0F94714029
:104590009B01AC0122966CAD7DAD8EAD9FAD229797
:1045A0000F94013A6B017C012AA53BA54CA55DA5A2
:1045B0006EA17FA188A599A50F94063E20E030E06A
:1045C00040E05FE30F94013A2B013C016AAD7BAD03
:1045D0008CAD9DAD90582AA93BA94CA95DA90F941B
:1045E000E23E9B01AC01C701B6010F94013A9B0169
:1045F000AC01C301B2010F94063E2EA13FA148A514
:1046000059A50F94053E69837A838B839C832EA5DD
:104610003FA548A959A9C501B4010F94063E20E061
:1046200030E040E05FE30F94013A2B013C012AA9FE
:104630003BA94CA95DA96EA97FA988AD99AD0F943E
:10464000E23E9B01AC01C701B6010F94013A9B0108
:10465000AC01C301B2010F94063EA50194010F9471
:10466000053E12C089E40E94E747882331F00E948A
:10467000694769837A838B839C838AE40E94E74736
:10468000882331F00E9469476D837E838F839887EA
:1046900020E030E0A90169817A818B819C810F94AF
:1046A0009C3981110BC020E030E0A9016D817E8131
:1046B0008F8198850F949C39882351F0412FBE013A
:1046C0006F5F7F4F86EE97E00E94B3C00C94BF35BA
:1046D000EAE5F1E284918F010F5F1F4F882321F0FB
:1046E0000E9480DDF801F6CFEFECF2E084918F01BB
:1046F0000F5F1F4F882311F40C94BF350E9480DD9B
:10470000F801F4CF80E50E94E747882329F00E9452
:10471000AADC6B017C0103C0C12CD12C760183E59E
:104720000E94E747882361F00E94694720E030E05B
:104730004AE754E40F94013A0F944F3F6B017C0118
:104740000E94669080917C07811105C060E085EE33
:1047500092E00E94EFA60F942412C60ED71EE81E08
:10476000F91E0F942412DC01CB018C199D09AE09AE
:10477000BF09B7FD02C00C94BF3580E00E9417BD91
:10478000F0CF0E945E7381110C94BF3580E090E001
:10479000A0E2B1E489839A83AB83BC8380E090E09C
:1047A000AEE3B3E48D839E83AF83B88780E090E06F
:1047B000A0EAB1E489879A87AB87BC8780E50E942D
:1047C000E747882319F00E94394701C060E068A3D9
:1047D000BE016F5F7F4FCE0180960F9460070C94EF
:1047E000BF3580E00E940AB50C94BF3583E50E9476
:1047F000E747882311F10E944947863070F0ECE9C1
:10480000F3E084918F010F5F1F4F882311F40C9404
:10481000BF350E9480DDF801F4CF833009F469C10F
:1048200034F4813071F1823009F43FC006C0843025
:1048300009F4C0C1853009F4CDC10E9455B3882365
:1048400099F08091D204811103C061E473E002C049
:104850006DE373E084E793E00F94F91C8AE00E9413
:1048600080DD0F940708BBC1ECE7F3E084918F0172
:104870000F5F1F4F882309F4B2C10E9480DDF80149
:10488000F5CF0F94B90810920102109200028091A6
:10489000420781110AC08DE693E0909369078093E7
:1048A00068070E9404DC0C94BF358091000290914F
:1048B000010297FF0EC0E4E4F3E084918F010F5FE3
:1048C0001F4F882311F40C94BF350E9480DDF8013E
:1048D000F4CF0097A1F480912D0280939404198263
:1048E0001A821B821C8218A219A21AA21BA2BE0144
:1048F0006F5F7F4FCE0180960E94ECB42CC0815038
:10490000982F917897FF03C091509E6F9F5FE92F7A
:1049100087FD8F5F859580FF02C0E1E0E91BEE0F08
:10492000FF0BE80FF11D87FDFA95EE0FFF1FEE0F4D
:10493000FF1FE759FC4E8091DA079091DB07A091A9
:10494000DC07B091DD0780839183A283B3838091DC
:10495000940480932D024091000250910102443052
:1049600051050CF073C010922D02CA01019690936C
:10497000010280930002842F817887FF03C0815059
:104980008E6F8F5F682FA42E47FF03C0AA24A394C5
:10499000A40E2A2D259520FF03C031E0632F681B4C
:1049A0008091DA079091DB07A091DC07B091DD07D9
:1049B00088A399A3AAA3BBA319821A821B821C8273
:1049C00034E02302C0011124AC014C5A514F5A016A
:1049D000DA012D913D914D915C91B4E06B02C001E3
:1049E0001124FC01E45AF14F4F01608171818281F1
:1049F0009381DE0111966D01E12CF12C00EA10E4A7
:104A00000E9410B419821A821B821C82B601CE0148
:104A100080960E94ECB4F40180819181A281B381DF
:104A20008093D2079093D307A093D407B093D50770
:104A3000F50180819181A281B3818093D607909303
:104A4000D707A093D807B093D90744C080E090E07F
:104A5000A0EAB0E48093DA079093DB07A093DC0729
:104A6000B093DD070E94B9B30E9466908FEF9FEF6D
:104A70009093010280930002E0E3F3E084918F01C0
:104A80000F5F1F4F882321F00E9480DDF801F6CFD1
:104A900083E992E09A83898304E610E019A308A3CE
:104AA000BE016F5F7F4FCE0180960E9431CC8AEBB2
:104AB00092E09A83898319A308A3BE016F5F7F4F99
:104AC000CE0180960E9431CC81E00E940AB581E03F
:104AD0000E9499B310924207609100027091010206
:104AE0006530710514F40C94C93564E070E00C94E1
:104AF000C93588E50E94E7478823A1F00E9439471D
:104B00000FEF060F0230A8F0E9E1F3E084918F0186
:104B10000F5F1F4F882311F40C94BF350E9480DD76
:104B2000F801F4CF88E50E9480DD0F94F7300C94F3
:104B3000BF3589E50E94E7478823A1F00E943947E5
:104B40001FEF160F1230A8F0E2E0F3E084918F011E
:104B50000F5F1F4F882311F40C94BF350E9480DD36
:104B6000F801F4CF89E50E9480DD0F94F7300C94B2
:104B7000BF358AE50E94E7478823A9F00E9469476C
:104B8000212F110F330B200F311D200F311D220F4C
:104B9000331F220F331FF901E759FC4E60837183E5
:104BA000828393831CC08AE50E9480DD0F94F730D6
:104BB0000C94BF358AE50E94E7478823A1F30E9441
:104BC0006947609343077093440780934507909328
:104BD000460705C080E00E9499B30F94B9080E946F
:104BE000D9AF0C94BF3580916102882311F40C94E5
:104BF000BF3589E40E94E747F82E882321F00E9400
:104C00003947062F01C000E08AE40E94E747E82EFA
:104C1000882331F00E943947162FF11004C00AC0D2
:104C200010E0FF20B1F0023010F40C94A939E3EB4E
:104C3000F3E003C01230D8F70CC084918F010F5FEE
:104C40001F4F882311F40C94BF350E9480DDF801BA
:104C5000F4CF0E94F347FF2091F024E00202F0011C
:104C60001124E45AF14F80819181A281B381809314
:104C7000E6079093E707A093E807B093E907EE20D3
:104C800091F034E01302F0011124EC5AF14F8081CD
:104C90009181A281B3818093EA079093EB07A0935F
:104CA000EC07B093ED0780E50E94E747882319F0F1
:104CB0000E945A4703C080E50E94A04786E40E94F4
:104CC000E7478823D9F00E9469476B017C0120E007
:104CD00030E0A9010F942C40181684F420E030E055
:104CE00040E752E4C701B6010F94E23E60933F02F1
:104CF0007093400280934102909342020E94E5C467
:104D00000C94BF35209393040C94BF35A6E62A2E4D
:104D1000A2E03A2EB2E3CB2EB7E0DB2EE12CF12C51
:104D200000E010E0D1018D911D010E94E74788232A
:104D300009F44EC00E9469472B013C01133059F021
:104D4000F701E85BF84F20813181428153810F9454
:104D5000053E2B013C01F701EE52F84F20813181D5
:104D600042815381C301B2010F94053E4B015C01A6
:104D70002DEB37E346E855EB0F942C4087FD0AC036
:104D80002DEB37E346E855E3C501B4010F949C3998
:104D90001816F4F4133051F44092DE075092DF07F6
:104DA0006092E0077092E10701E012C0A501940152
:104DB000F60160817181828193810F94063ED60154
:104DC0006D937D938D939C931397812F0E94F9B5DA
:104DD0001F5FB4E0CB0ED11CE4E0EE0EF11C1430EA
:104DE00009F0A0CF002309F4FACE8EED97E00E94DF
:104DF000E172F5CE0E9484750C94BF358091D60A7D
:104E00009091D70A8337910511F40C94312F0CF04F
:104E1000D8C08B34910509F4DDC40CF054C089313D
:104E2000910509F4D6C21CF58431910509F463C2D9
:104E30007CF48131910509F44FC22CF4029708F4F7
:104E4000D1C10C946E35429709F440C70C946E356D
:104E50008631910509F496C20CF490C28731910510
:104E600009F496C2489709F4A9C20C946E358E31A4
:104E7000910509F466C384F48B31910509F4BDC230
:104E80000CF4ADC28C31910509F451C34D9711F466
:104E90000C94BF350C946E358032910509F4BFC374
:104EA0000CF409C48A32910509F42FC4C19711F09A
:104EB0000C946E35F0908E0481E0F826F0928E040A
:104EC000E8E8F4E06AC48836910509F490C50CF06E
:104ED00042C08235910509F4F2C624F58D3491055E
:104EE00009F480C40CF47AC48E34910509F47EC4AC
:104EF0008135910511F00C946E350E94C6D50E9443
:104F0000D19010924F1A10924E1A68EE73E080E022
:104F100090E00E943B7E60E081E695E00E94EFA673
:104F20000C94BF358435910509F4D0C60CF4CAC67B
:104F30008535910509F4FDC68C35910511F00C9469
:104F40006E3536E6C32E32E0D32E4AEBE42E47E030
:104F5000F42E10E007C78D36910509F448C69CF47D
:104F60008A36910509F47FC60CF401C68B3691058B
:104F700009F495C68C36910511F00C946E3510929B
:104F80002E020C94BF358037910509F4C0C554F446
:104F90008E36910509F45AC58F36910509F469C515
:104FA0000C946E358137910509F4B5C582379105AA
:104FB00011F00C946E350E9466900E94D9AF0C944B
:104FC000BF358C32F1E09F0711F40C94C7340CF01C
:104FD00083C0883C910511F40C94CB30BCF5893723
:104FE000910511F40C944F30DCF48637910509F4E7
:104FF000A4C734F48537910509F490C70C946E3535
:105000008737910509F4E5C78837910511F00C94AD
:105010006E3581E08093BB048093BA040C94BF3555
:105020008139910511F40C94543034F48C38910585
:1050300009F4F4C50C946E358B39910509F4B2C5A9
:105040008E3B910509F4FDC50C946E358E3C91059F
:1050500011F40C943A3214F58B3C910511F40C9434
:10506000293184F4893C910511F00C946E35ADE33F
:10507000EA2EA3E1FA2E06E612E0B4E0DB2ED00E13
:105080000C9411318C3C910511F40C9446318D3CFB
:10509000910511F40C94BB310C946E358D3D910546
:1050A00011F40C94253464F4833D910511F40C94AF
:1050B00038338C3D910511F40C9418340C946E35F2
:1050C000823E910511F40C9493348232914011F494
:1050D0000C94BC340C946E35843F41E0940711F479
:1050E0000C945335E4F5803961E0960711F40C9483
:1050F0004A35C4F48E32A1E09A0711F40C94F334CB
:1051000014F40C94F0348F32E1E09E0711F40C9407
:1051100047358336914011F00C946E350E94A1EB17
:105120000C94BF35843A21E0920711F40C944D356C
:105130004CF48A39914011F00C946E350E941CF4A5
:105140000C94BF35853A51E0950711F40C94503515
:105150008C3A914011F40C945C320C946E35883585
:1051600072E0970711F40C946835C4F4863FB1E0FF
:105170009B0711F40C94593514F40C945635873F61
:10518000F1E09F0711F40C945C35883F914011F0D9
:105190000C946E350E9418F10C94BF358B3833E0B7
:1051A000930711F40C94BF357CF48B3552E09507CE
:1051B00011F40C946B358438934011F00C946E35D7
:1051C0000E94BCEB0C94BF35803A73E0970709F45A
:1051D00065C2873E934011F00C946E350E948CEBB3
:1051E0000C94BF35A090D40AB090D50A80E50E94F7
:1051F000E747882359F00E94AADC6B017C0111E08B
:10520000672B682B692B31F410E004C010E0C12C2F
:10521000D12C760183E50E94E747882311F40C9492
:10522000D8350E94694720E030E04AE754E40F9403
:10523000013A0F944F3F6B017C0111110BC0672B9A
:10524000682B692B39F4A114B10421F0F501808198
:10525000811102C010E001C011E00E94669011238C
:1052600029F061E0C5010E942BA705C060E082ED36
:1052700093E00E94EFA683E080935B0B81E0809334
:10528000930AC114D104E104F104F1F00F94241243
:10529000C60ED71EE81EF91E0F942412DC01CB01A6
:1052A0008C199D09AE09BF09B7FD06C00F94F12006
:1052B0001092930A0C94BF358091930A8823B1F31E
:1052C00080E00E9417BDE8CF8091930A882371F394
:1052D00080E00E9417BDF8CF60E085EE93E00E9469
:1052E000EFA65F988A9880910801817080930601EB
:1052F00012980C94BF35EDEFF3E084918F010F5FAE
:105300001F4F882321F00E9480DDF801F6CF109214
:10531000201140E050E0BA0183ED9EE00F94AD17FC
:105320008BE1E3EDFEE0DE01159601900D928A958A
:10533000E1F78091D10E9091D20E9C838B8389EA04
:1053400092E09A83898340E050E0BE016F5F7F4F17
:1053500080E090E00E9489CDCE0101960E948D5C94
:10536000EEEEF3E084918F010F5F1F4F882311F45D
:105370000C94BF350E9480DDF801F4CF0E94B06F1D
:105380000C94BF351092A30E1092A40E0C94BF354E
:10539000E091D40AF091D50A8081882329F08032E7
:1053A00009F410823196F8CF40E061E08091D40A90
:1053B0009091D50A0E94C86D0C94BF358091A40EBF
:1053C000882319F081E08093A30E0F94211D0C9483
:1053D000BF351092A30E0F9413270C94BF35809104
:1053E000A40E882311F40C94BF3583E50E94E7478F
:1053F00081110C94DD350C94BF3583E40E94A047E5
:10540000882309F454C0EBE3F4E084918F010F5F2B
:105410001F4F882321F00E9480DDF801F6CF809194
:105420006E10882391F0BE016F5F7F4F8BE690E195
:105430000E94E8538E010F5F1F4FD8018D918D019F
:10544000882381F10E9480DDF8CFEEE0F4E08491C2
:105450008F010F5F1F4F882329F10E9480DDF80123
:10546000F6CF80917507882309F444C3F9EFCF2E56
:10547000F4E0DF2EE12CF12C20E08091750790E024
:105480000E2C02C0959587950A94E2F780FD1AC309
:10549000FFEFEF1AFF0A32E0C30ED11C45E0E4161D
:1054A000F10459F78AE00E9480DD0C94BF358091A9
:1054B000A40E882371F18091A30E882351F1E8E1B5
:1054C000F4E084918F010F5F1F4F882321F00E9429
:1054D00080DDF801F6CF60911C1170911D11809153
:1054E0001E1190911F114AE00E9424E08FE20E9459
:1054F00080DD609118117091191180911A119091AD
:105500001B114AE00E9424E08AE00E9480DD0C9496
:10551000BF35EAE2F4E084918F010F5F1F4F8823CB
:1055200011F40C94BF350E9480DDF801F4CF40E007
:1055300060E08091D40A9091D50A0E94C86D0C94C5
:10554000BF358091A40E882311F40C94BF358BE6EF
:1055500090E10F946C178BE690E10E943854109202
:10556000A20E1092A10E0091D40A1091D50A80913A
:10557000A40E882311F40C94BF350E946AD0B801A0
:10558000CE0101960E94B2CF8C01892B11F40C94AC
:10559000BF3589819A81009709F00496B8010F946C
:1055A000D319882311F1EAE4F4E084917F01BFEF7D
:1055B000EB1AFB0A882321F00E9480DDF701F5CF6A
:1055C000F80181918F01882319F00E9480DDF8CFC6
:1055D0008AE00E9480DD10921C1110921D11109221
:1055E0001E1110921F110C94BF35E8E5F4E0849170
:1055F0007F012FEFE21AF20A882321F00E9480DD5A
:10560000F701F5CFD8018D918D01882319F00E9403
:1056100080DDF8CF8EE20E9480DD0C94BF35809152
:10562000A30E81110E9466908091A40E882311F42C
:105630000C94BF3580E50E94E747882319F00E944B
:105640005A4703C080E50E94A047182F482F61E009
:105650008091D40A9091D50A0E94C86D83E50E947A
:10566000E747882381F00E943947AB01BC01409392
:105670001C1150931D1160931E1170931F118BE626
:1056800090E10F94AD178091A40E882319F081E06A
:105690008093A30E11110C94BF3597CE8091D40A3C
:1056A0009091D50A21E02093A20E40E060E00E9494
:1056B000C86D0C94BF350F94DF2668A379A38AA325
:1056C0009BA3BE016F5F7F4FCE0180960E94BADC24
:1056D00060E0CE0101960E942BA7EFEBF1E38491ED
:1056E0008F010F5F1F4F882321F00E9480DDF8019A
:1056F000F6CFBE016F5F7F4F80E794E00F94F91CF7
:105700008AE00E9480DD0C94BF3583E50E94E74764
:10571000882311F40C94BF350E944947E82E80E598
:105720000E94E747882339F00E944947182F87FFD6
:1057300003C00C94BF351DE089E40E94E74788232D
:1057400049F00E945A47811111C0E2E4F8E08DE26D
:105750008E0F07C089E40E94A047F5CF31968E17BF
:1057600029F094911913FACF0C94493961E0812FF3
:105770000F94E9106E2D812F0F941C10F12CB7019E
:10578000812F0F942511193011F00C94BF35F09230
:105790004F1AE0924E1A0C94BF3584918F010F5F1F
:1057A0001F4F882321F00E9480DDF801F6CFF11011
:1057B00003C0E2E8F4E002C0EDE7F4E084918F0179
:1057C0000F5F1F4F882311F40C94BF350E9480DDBA
:1057D000F801F4CF0F94211D0C94BF350F941327BB
:1057E0000C94BF350F947F1D0C94BF3583E50E9448
:1057F000E747811103C0E1EFF4E009C00E94394797
:105800006E347105C1F70F94EF1D0C94BF35849170
:105810008F010F5F1F4F882321F00E9480DDF80168
:10582000F6CFE8EEF4E084918F010F5F1F4F8823DD
:1058300021F00E9480DDF801F6CF6091AA047091FA
:10584000AB0480E090E04AE00E9424E0EBEDF4E05D
:1058500084918F010F5F1F4F882321F00E9480DD0C
:10586000F801F6CF6091AC047091AD0480E090E057
:105870004AE00E9424E0E0EDF4E084918F010F5FA4
:105880001F4F882321F00E9480DDF801F6CF609140
:10589000AA047091AB048091AC049091AD04681B94
:1058A000790B8091A804815021E030E0823010F023
:1058B00020E030E0621B730B80E090E04AE00E9441
:1058C00024E08AE00E9480DDE8ECF4E084918F011E
:1058D0000F5F1F4F882321F00E9480DDF801F6CF73
:1058E0008091AE049091AF04A091B004B091B10446
:1058F00088A399A3AAA3BBA3BE016F5F7F4FCE016C
:1059000080960E94BADCEBEBF4E084918F010F5F8C
:105910001F4F811105C0FE0131967F018F0104C028
:105920000E9480DDF801F1CFD8018D918D0188238F
:1059300019F00E9480DDF8CF8091B2049091B304F9
:10594000A091B404B091B50488A399A3AAA3BBA362
:10595000BE016F5F7F4FCE0180960E94BADCEBEAFA
:10596000F4E084918F010F5F1F4F882321F00E9484
:1059700080DDF801F6CFF70181917F01882319F0CE
:105980000E9480DDF8CF8AE00E9480DDE3EAF4E047
:1059900084918F010F5F1F4F882321F00E9480DDCB
:1059A000F801F6CFE3E9F4E084918F010F5F1F4F18
:1059B000882321F00E9480DDF801F6CF20E030E05E
:1059C0004AE754E46091B6047091B7048091B8043A
:1059D0009091B9040F94E23E42E00E94A4E08DE66B
:1059E0000E9480DD8AE00E9480DD0C94BF3588E64D
:1059F00090E00E9439B681110C94BF3580917507F3
:105A000083FF02C00C94BF3583E50E94E7478823DB
:105A1000C9F00E9469470F944A3F709374076093DE
:105A2000730780E00E947BD50E94694720E030E048
:105A30004AEA52E40F949C39181624F00F947F1D03
:105A40000F94F1200F94C1320C94BF358EE40E9464
:105A5000E747882311F40C94BF350E9439476093BF
:105A6000030A7093040A8093050A9093060A0C9423
:105A7000BF3583E50E94A047882359F083E50E9443
:105A8000E747882319F00E94494701C080E08093CE
:105A90007507EFEBF1E384918F010F5F1F4F8823B0
:105AA00021F00E9480DDF801F6CFE7E0F5E0849177
:105AB0008F010F5F1F4F882309F4D3CC0E9480DD34
:105AC000F801F5CFBB24B394B20E222319F08CE277
:105AD0000E9480DDF60125913491F90184918901BC
