:100000000C94181E0C94491E0C94491E0C94491E05
:100010000C94491E0C94491E0C94491E0C94491EC4
:100020000C94491E0C94491E0C94491E0C94491EB4
:100030000C94491E0D94F9050C94491E0C94491E0C
:100040000C94491E0C94347E0C94491E0C94491E49
:100050000C94491E0C94491E0C943B760D94DE07BB
:100060000C94491E0C94CA390C94491E0C94491ED8
:100070000C94491E0C94491E0C94491E0C94491E64
:100080000C94491E0C94491E0C94491E0C94491E54
:100090000C94491E0C94491E0C94491E0C94491E44
:1000A0000C94491E0C94491E0C94491E0C94491E34
:1000B0000C94491E0C94491E0C94491E0C94491E24
:1000C0000C94491E0C94491E0C94491E0C94491E14
:1000D0000C94491E0C94491E0C94491E0C94491E04
:1000E0000C94491E56735F73697372737B739673B6
:1000F000A373AC7384738D73A6A2DEA2E0A2EDA2FB
:10010000F3A2F6A2FEA2D500DB001F011501CD006F
:10011000E100EF00F100DF000D01FF001D01D10043
:10012000F300E100E300D900010111010701D30050
:10013000FD00FB00D7001B01F500ED0017010901D0
:100140000B01F900E900D7001901E7002101084A75
:10015000D73B3BCE016E84BCBFFDC12F3D6C7431DB
:100160009ABD56833DDA3D00C77F11BED9E4BB4C32
:100170003E916BAAAABE000000803F05A84CCDB2FC
:10018000D44EB93836A9020C50B9918688083CA6DD
:10019000AAAA2ABE000000803F000D9418050D9405
:1001A0009E050D943F050D9404070D941C050D94B8
:1001B00091070D944D050D941F050D945D090D9447
:1001C0002D050D9456050D9449050D9434210D947B
:1001D0007D070D9469070D9482040D9432070D94E8
:1001E00023050D9427050D9443050D942A070D94BE
:1001F000A0050D945F070D9418070D940E070D943C
:1002000035050D9451050D946A240D947C050D94CB
:10021000FF060D9446070D9450070D9431050D947B
:10022000D6040D94FA060D94930B0D9412050D94BB
:100230003C070D9473070D9422070D943B050D9414
:100240000E050D9487074E414E494E495459494E6B
:1002500046CDCCCC3D0AD7233C17B7D13877CC2B31
:10026000329595E6241FB14F0A000020410000C8D6
:100270004200401C4620BCBE4CCA1B0E5AAEC59D57
:1002800074434F4D4D554E49434154494F4E0044E0
:10029000525952554E004552524F525300494E4604
:1002A0004F004543484F0047322F47332062616477
:1002B00020706172616D65746572730A00536C65BC
:1002C00065702E2E2E00206F6620004D424C204778
:1002D000323920706F696E74200059206F75742058
:1002E0006F662072616E67652028312D32292E0AD3
:1002F0000058206F7574206F662072616E676520EC
:1003000028312D32292E0A004D6573682070726FD6
:1003100062696E6720646F6E652E0A0053746172A5
:1003200074206D6573682070726F62696E672077E4
:10033000697468202247323920533122206669725D
:1003400073742E0A0047323920533200537461749B
:10035000653A20004D65736820626564206C65769F
:10036000656C696E6720686173206E6F20646174CC
:10037000612E0A0053206F7574206F662072616EC3
:1003800067652028302D35292E0A004D65736820B9
:10039000706F696E742063616E6E6F742062652089
:1003A0007265736F6C7665640A00526573756D696A
:1003B0006E67207072696E74004A756C69612032D4
:1003C00030313820496E7465726D65646961746599
:1003D0002072656164792E00436C69636B20746FD1
:1003E00020726573756D652E2E2E004E6F206D6F19
:1003F00076652E00456E642066696C65206C6973B5
:10040000740A00426567696E2066696C65206C69D4
:1004100073740A005344207072696E74696E6720A9
:100420006279746520004E6F7420534420707269A5
:100430006E74696E670A005072696E742074696D1B
:10044000653A2000000136372603FF3C3D38FF0F98
:100450002E303EFF13FF0C0809FFFFFF1A1C18FF88
:10046000FF08440AFF43FFFFFFFFFFFF50726F7456
:1004700065637465642050696E0A006F6E2E0A0011
:100480006F66662E0A004732362044656275672023
:10049000006D0046696C616D656E742075736564EE
:1004A0003A200053746174733A20002C204C6F6E14
:1004B00067657374206A6F623A2000546F74616CD0
:1004C0002074696D653A200053746174733A20009A
:1004D0002C204661696C65643A20002C2046696EC8
:1004E00069736865643A20005072696E74733A20CB
:1004F0000053746174733A20004525692025730008
:100500004A756C6961203230313820496E746572E9
:100510006D6564696174652072656164792E00A2FD
:10052000029D0296028F0281026F66660044454278
:1005300055473A004B494C4C45442E2000426564D7
:1005400020646F6E652E0020573A00426564204893
:10055000656174696E672E004A756C69612032307E
:10056000313820496E7465726D6564696174652007
:100570004F66662E00454D455247454E43595F50E4
:10058000415253455200434153455F4C49474854FB
:100590005F4252494748544E45535300544F4747D2
:1005A0004C455F4C494748545300534F46545741BC
:1005B00052455F504F574552004255494C445F5099
:1005C000455243454E54004C4556454C494E475FB5
:1005D00044415441005A5F50524F424500415554E6
:1005E0004F4C4556454C005052494E545F4A4F427D
:1005F0000050524F4752455353004155544F5245B6
:10060000504F52545F54454D5000564F4C554D4538
:100610005452494300454550524F4D0053455249AD
:10062000414C5F584F4E5F584F4646004649524D29
:10063000574152455F4E414D453A4D61726C696E6E
:1006400020312E312E3820284769746875622920A0
:10065000534F555243455F434F44455F55524C3AC3
:1006600068747470733A2F2F6769746875622E63AB
:100670006F6D2F4D61726C696E4669726D77617234
:10068000652F4D61726C696E2050524F544F434F2D
:100690004C5F56455253494F4E3A312E30204D4112
:1006A0004348494E455F545950453A4A756C696113
:1006B000203230313820496E7465726D656469612D
:1006C00074652045585452554445525F434F554E2A
:1006D000543A3120555549443A6365646532613274
:1006E000662D343161322D343734382D3962313250
:1006F0002D6335356336326633363766660A002F2A
:100700002F20007A5F6D61783A2000795F6D617803
:100710003A2000785F6D696E3A20005265706F7202
:1007200074696E6720656E6473746F702073746192
:100730007475730A004D31343520533C696E64651D
:10074000783E206F7574206F662072616E67652039
:1007500028302D31290A0053657474696E6720545E
:10076000726176656C20416363656C657261746962
:100770006F6E3A200053657474696E672052657419
:100780007261637420416363656C65726174696F43
:100790006E3A200053657474696E67205072696EFA
:1007A0007420416363656C65726174696F6E3A2091
:1007B0000053657474696E67205072696E742061AD
:1007C0006E642054726176656C20416363656C656C
:1007D000726174696F6E3A20004F66667365747358
:1007E000206170706C696564004572723A20546FC4
:1007F0006F206661722100546F6F206661722066FF
:10080000726F6D207265666572656E636520706FCC
:10081000696E740A004D36303020486F74656E641E
:1008200020746F6F20636F6C6420746F2063686145
:100830006E67652066696C616D656E740A0041754E
:10084000746F0020452F443D00416476616E6365FE
:10085000204B3D004E6F2063617365206C696768B3
:10086000740A004163746976652045787472756412
:1008700065723A2000556E6B6E6F776E20636F6DF8
:100880006D616E643A2022004D6573682056616C7C
:1008900069646174696F6E2053746F707065642E43
:1008A00000696E206D6F76655F746F28292066651C
:1008B00065645F76616C756520666F722058593A81
:1008C000004C656176696E672047323600473236E4
:1008D0002048656174696E67204E6F7A7A6C652E68
:1008E000004732362048656174696E67204265644E
:1008F0002E00446F6E65205072696D696E6700440A
:100900006F6E65205072696D696E67004669786523
:1009100064204C656E677468205072696D652E00A6
:10092000557365722D436F6E74726F6C6C656420C5
:100930005072696D65002C2065793D0029202D3E9F
:10094000202865783D002C2073793D0020436F6E90
:100950006E656374696E6720776974682076657266
:10096000746963616C206C696E65202873783D0042
:100970002C2065793D0029202D3E202865783D00FA
:100980002C2073793D0020436F6E6E656374696E31
:1009900067207769746820686F72697A6F6E746116
:1009A0006C206C696E65202873783D004C6561761B
:1009B000696E6720473236002C2079693D0020207F
:1009C00020446F696E6720636972636C652061748F
:1009D0003A202878693D003F537065636966696510
:1009E0006420582C5920636F6F7264696E6174655E
:1009F000206F7574206F6620626F756E64732E0AA7
:100A0000003F28522965706561742076616C7565B8
:100A1000206E6F7420706C61757369626C653B2029
:100A20006D757374206265206174206C65617374E8
:100A300020312E0A003F5370656369666965642042
:100A40006E6F7A7A6C652074656D7065726174750D
:100A50007265206E6F7420706C61757369626C656D
:100A60002E0A003F53706563696669656420666994
:100A70006C616D656E742073697A65206E6F742089
:100A8000706C61757369626C652E0A003F53706506
:100A9000636966696564207072696D65206C656E56
:100AA000677468206E6F7420706C61757369626C16
:100AB000652E0A003F537065636966696564206E40
:100AC0006F7A7A6C652073697A65206E6F74207016
:100AD0006C61757369626C652E0A003F53706563C3
:100AE00069666965642052657472616374696F6ECA
:100AF000204D756C7469706C696572206E6F74201E
:100B0000706C61757369626C652E0A003F52657482
:100B100072616374696F6E204D756C7469706C6975
:100B20006572206D757374206265207370656369EA
:100B3000666965642E0A003F53706563696669657E
:100B400064206C6179657220686569676874206EDD
:100B50006F7420706C61757369626C652E0A003F5A
:100B600053706563696669656420626564207465B5
:100B70006D7065726174757265206E6F7420706C33
:100B800061757369626C652E0A0047323620636FA7
:100B90006D6D616E6420737461727465642E20578C
:100BA000616974696E6720666F722068656174653B
:100BB000722873292E0A004B494C4C45442E2000C4
:100BC000202D20496E76616C696420657874727599
:100BD000646572206E756D62657220210A000000E6
:100BE0000000000000000000000000000000000005
:100BF00000000000000000000000000000000000F5
:100C000000000000000000000000000000000000E4
:100C1000000000001F0FC0000000000000000000E6
:100C2000000000007F87F0000000000000000000CE
:100C3000000000007FC7F800000000000000000076
:100C400000000000FFE3FC000000000000000000C6
:100C500000000001FFF1FC000000000000000000A7
:100C600000000003FFF0FE00000000000000000094
:100C700000000007FFF87F000000000000000000F7
:100C800000000007FFFC7F80000000000000000063
:100C90000000000FE1FE3F800000000000000000A7
:100CA0000000001F807F1FC0000000000000000047
:100CB0000000003F9E3F0FE0000000000000000029
:100CC0000000003F1F3F8FF0000000000000000008
:100CD0000000007E3F1FC7F8000000000000000079
:100CE000000000FC7F8FE3F800000000000000001F
:100CF000000001F8FF87F1FC000000000000000088
:100D0000000003F9FF07F0FE0000000000000000F3
:100D1000000003F00603F8FF0000000000000000E0
:100D2000000007F00001FC7F8000000000000000D0
:100D300000000FF8FE00FE20000000000000000090
:100D400000001FF87F007E0000000000000000008F
:100D500000001FFC7F807E3F80000000000000003C
:100D600000003FFE3F803C7F0000000000000000CC
:100D700000007FFF1FC018E000000000000000001E
:100D80000000FE7F0FE001C1F8000000000000003D
:100D90000000FC3F8FF00381FC0000000000000019
:100DA0000001F81FC7F80010FE000000000000005E
:100DB0000003F18FE3F80038FF000000000000009E
:100DC0000007E3C7E1F0003C7F00000000000000E6
:100DD000000FE7E7F000007E3F8000000000000009
:100DE000000FC7F3F07C007E1FC000000000000071
:100DF000001F8FF1E3FC007F0FE000000000000007
:100E0000003F1FF0C700003F8FF00000000000000F
:100E1000007F3FE04E01C01FC7F00000000000004F
:100E2000007E3FE01E1FE00FE3F80000000000001E
:100E3000007C7FC0100FE007E1FC00000000000014
:100E40000038F00000C7F007F1FE000000000000CD
:100E50000039800001C3F803F8FF00000000000023
:100E6000001307F003E3FC01FC7F0000000000001A
:100E7000000307F803F1FE00FC3F800000000000C3
:100E8000000063F803F8FE007E1FC00000000000B1
:100E9000000071FC01F87F007F1FE00000000000EF
:100EA0000000F0FE00FC7F803F8FE00000000000AB
:100EB0000001F87F007E3FC01FC7F0000000000067
:100EC0000001FC7F807F1FC00FC3F80000000000FE
:100ED0000000FE3F803F8FE007E3FC0000000000C1
:100EE00000007F1FC01F87F007F1FC00000000001A
:100EF00000003F0FE00007F80003FE0000000000C4
:100F000000003F87F00007FC0007FF000000000022
:100F100000001FC7FE0FFFFFFFFFFF0000000000E3
:100F200000000FE3FFFFFFFFFFFFFF0000000000D6
:100F3000000007F1FFFFFFFFFFFFFF0000000000C0
:100F4000000003F0FFFFFFFFFFFFFF0000000000B5
:100F5000000003F83FFFFFFFFFFFFC000000000060
:100F6000000001FC00000000000000000000000084
:100F7000000000FF800000000000000000000000F2
:100F80000000007FFFFFFFFFFFFFF00000000000F8
:100F90000000003FFFFFFFFFFFFFF0000000000028
:100FA0000000001FFFFFFFFFFFFFE0000000000048
:100FB0000000000FFFFFFFFFFFFFC0000000000068
:100FC0000000000000000000000000000000000021
:100FD00000000000000000000000000000004D3292
:100FE00037004D3234004D32362053256C75004D9C
:100FF0003233202573004731205A257300473120B2
:1010000059257300494E56414C494420524553548A
:101010004F52452042494E00473120463132303050
:10102000205825730047393220452573004739324F
:1010300020463230302045350047312046323030AE
:1010400020453500473932204530004731205A25A8
:1010500073004D34323020533100473238004D3464
:101060003230205330205A30004D31313720526514
:101070007374617274696E67202573004D31303668
:101080002050256920532569004D313039205325E2
:1010900069005072696E7420526573746F726520B6
:1010A00047636F64652066696C653A2000202050B4
:1010B0006C616E6E657242756666657242797465C2
:1010C000733A20002046726565204D656D6F727918
:1010D0003A2000436F6D70696C65643A204A756C04
:1010E00020333020323031380A00207C20417574A2
:1010F000686F723A20467261636B74616C20576F3F
:10110000726B730A00323031372D31322D32352077
:1011100031323A303000204C617374205570646174
:101120007465643A2000312E312E380A004D617208
:101130006C696E0020536F6674776172652052652A
:101140007365740A00205761746368646F67205286
:10115000657365740A002042726F776E206F757434
:101160002052657365740A002045787465726E615B
:101170006C2052657365740A00506F776572557004
:101180000A0073746172740A00456E6473746F7040
:101190007320256320256320256320256300205AC2
:1011A0003A0020593A0020583A00656E6473746F13
:1011B0007073206869743A2000446F6E6520736113
:1011C00076696E672066696C652E0A004D323900BB
:1011D000506C656173652072657365740050524987
:1011E0004E5445522048414C544544005072696E5B
:1011F0007465722068616C7465642E206B696C6C18
:1012000028292063616C6C6564210A0000000000DD
:10121000000048430000524300004842000048429A
:101220000000A041000000005761726E696E673ACD
:1012300020486F6D696E672042756D702044697635
:1012400069736F72203C20310A000202040000A082
:10125000400000A040000000400000524300004851
:101260004300005243FF01017C3C3E5E2B3D3F2F7B
:101270005B5D3B2C2A225C00473238004732380045
:10128000416476616E636564204C6576656C696E59
:101290006700517569636B204C6576656C696E6794
:1012A000004D61696E00496E697469616C697A65A7
:1012B00020454550524F4D00436F6E74726F6C0065
:1012C000526573746F7265206661696C73616665DF
:1012D000004C6F61642073657474696E67730053AA
:1012E000746F72652073657474696E677300496EFC
:1012F000697469616C697A6520454550524F4D00AB
:1013000046696C616D656E74004D6F74696F6E0037
:1013100054656D7065726174757265004D61696EBA
:1013200000507265686561742041425320636F6E9E
:1013300066005072656865617420504C4120636F8F
:101340006E66005049442D44005049442D440050DD
:1013500049442D49005049442D49005049442D50DD
:10136000005049442D50002008204661637400203D
:10137000082046616374002008204D617800200831
:10138000204D6178002008204D6178002008204D14
:10139000696E002008204D696E002008204D696E9E
:1013A000004F6666004F6E20004175746F74656D66
:1013B000700046616E2073706565640046616E2042
:1013C00073706565640042656400426564004E6F39
:1013D0007A7A6C65004E6F7A7A6C6500436F6E7432
:1013E000726F6C0053746F72652073657474696EEC
:1013F00067730042656400426564004E6F7A7A6CE0
:1014000065004E6F7A7A6C650046616E2073706578
:1014100065640046616E2073706565640054656D97
:10142000706572617475726500206E6F7420656EF0
:1014300074657265642E0A000A4D65617375726584
:101440006420706F696E74733A0A005A206F666682
:101450007365743A20004E756D20582C593A20322D
:101460002C320A006F6B0048656174696E672064F6
:101470006F6E652E0020573A0045256920257300C0
:101480004A756C6961203230313820496E7465725A
:101490006D6564696174652072656164792E004DC3
:1014A000313133205300205A3A0020423A00204381
:1014B0006F756E7420413A0020453A00205A3A0078
:1014C00020593A00583A004D34323800507265685D
:1014D00065617420504C4100436F6F6C646F776E90
:1014E000004368616E67652066696C616D656E7446
:1014F000005072656865617420414253004469730D
:1015000061626C65207374657070657273004D382C
:10151000340053657420686F6D65206F666673656F
:101520007473004175746F20686F6D6500473238C1
:10153000004D6F76652061786973004D61696E00BA
:101540004D6F76652058004D6F76652059004D6FC0
:101550007665205A004578747275646572004D6F27
:10156000766520302E316D6D004D6F766520316DC2
:101570006D004D6F76652031306D6D004D6F766575
:101580002061786973004578747275646572004DE6
:101590006F7665205A004D6F76652059004D6F7645
:1015A000652058004578747275646572004D6F76D9
:1015B00065205A004D6F76652059004D6F76652085
:1015C00058005072657061726500473120583131A2
:1015D000302059313937205A3000473120583131C5
:1015E000302059313937004731205A3230004731E5
:1015F000204639303030004731205833352E3620E0
:10160000593231205A30004731205833352E362098
:10161000593231004731205A3230004731204639A3
:1016200030303000473120583138312059323120A4
:101630005A30004731205831383120593231004773
:101640003120463930303000473120583130302099
:1016500059313030205A353000436C69636B207447
:101660006F20426567696E00486F6D696E6720582C
:10167000595A00436172642072656D6F766564002B
:101680004361726420696E736572746564004865B5
:101690006174696E67206661696C656400486561A4
:1016A00074696E67206661696C6564004865617481
:1016B000696E67206661696C65640048656174697C
:1016C0006E67206661696C656400100060035001FC
:1016D0002C0190012201D001180110020E017002AC
:1016E0000401E002FA006003F0000004E600B00428
:1016F000DC00A005D200B006C8000008BE00A009AA
:10170000B400800BAA00D00DA00090109600C0136A
:101710008C0070178200901B780010206E00C0248F
:101720006400E02D500080353C00A03A2800A03D28
:101730001400003F0000A03FECFF4572723A204DBC
:10174000494E54454D5020424544004572723A205E
:101750004D494E54454D50004D494E54454D502035
:10176000747269676765726564004572723A204DEC
:10177000415854454D5020424544004572723A202C
:101780004D415854454D50004D415854454D502001
:1017900074726967676572656400202F002042409B
:1017A0003A0020403A0024F4D43050C38E20C2A224
:1017B0004017828B7011127A910D816CD90AA86141
:1017C000E108C7586607615143061E4B5D05C145D8
:1017D000A7041A411104093D9803713931034036B9
:1017E000DB0265339102D4305402802E1D02632C3B
:1017F000EE01752AC501B028A001102781018F25AF
:1018000064012B244B01E0223401AC211F018D2007
:101810000D01801FFC00841EED00971DDF00B81C29
:10182000D200E61BC600201BBC00641AB200B2192D
:10183000A8000A19A0006A189900D1179100401752
:101840008B00B516840031167E00B31579003A1569
:101850007300C7146F0058146A00EE1366008813F3
:10186000630025135E00C7125B006C12570015124F
:101870005400C111510070114F0021114B00D610BE
:1018800049008D1047004610440002104200C00F6E
:101890004000800F3E00420F3C00060F3B00CB0E85
:1018A0003800930E37005C0E3500270E3400F30D20
:1018B0003200C10D3100900D3000600D2E00320D50
:1018C0002D00050D2C00D90C2B00AE0C2900850C29
:1018D00029005C0C2700350C27000E0C2600E80BB5
:1018E0002400C40B2400A00B23007D0B23005A0B03
:1018F0002100390B2100180B2000F80A1F00D90A1B
:101900001E00BB0A1E009D0A1D00800A1D00630AFE
:101910001C00470A1B002C0A1B00110A1A00F709B9
:101920001A00DD091900C4091900AB091900920950
:1019300017007B091800630917004C0916003609C7
:101940001600200916000A091500F5081500E00820
:101950001400CC081400B8081400A408140090085F
:1019600013007D0812006B08130058081200460887
:101970001200340811002308110012081100010898
:101980001100F0071000E0071000D0071000C0079A
:101990001000B0070F00A107100091070E00830789
:1019A0000F0074070F0065070E0057070E00490768
:1019B0000E003B070D002E070E0020070D00130739
:1019C0000D0006070D00F9060C00ED060D00E006FF
:1019D0000C00D4060C00C8060C00BC060C00B006B7
:1019E0000C00A4060B0099060C008D060B00820665
:1019F0000B0077060B006C060B0061060A00570609
:101A00000B004C060A0042060A0038060A002E06A1
:101A10000A0024060A001A060A0010060900070632
:101A20000A00FD050900F4050900EB050900E205BF
:101A30000900D9050900D0050900C7050900BE0540
:101A40000900B5050800AD050800A50509009C05BD
:101A50000800940508008C050800840508007C0532
:101A60000800740508006C050700650508005D05A1
:101A70000700560508004E0507004705070040050A
:101A8000080038050700310507002A05070023056F
:101A900007001C050600160507000F0507000805CE
:101AA000060002050700FB040600F5040700EE042B
:101AB0000600E8040600E2040700DB040600D50483
:101AC0000600CF040600C9040600C3040600BD04D6
:101AD0000600B7040600B1040500AC040600A60425
:101AE0000600A00405009B04060095040500900470
:101AF00006008A04050085040500800406007A04B7
:101B0000050075040500700405006B0405006604FB
:101B10000500610405005C0405005704050052043B
:101B200005004D04050048040500430405003E047B
:101B300004003A04050035040500300404002C04B8
:101B4000050027040400230405001E0404001A04F1
:101B5000040016040500110404000D040400090427
:101B600005000404040000040400FC030400F8035E
:101B70000400F4030400F0030400EC030400E80391
:101B80000400E4030400E0030400DC030400D803C1
:101B90000400D4030400D0030400CC030400C803F1
:101BA0000300C503030024F404D9201BC40C5C0EFD
:101BB0009804C4095F0265077101F405F900FB048C
:101BC000B30048048700C1036900580355000303AC
:101BD0004500BE023A008402310053022A00290265
:101BE000250004022000E4011C00C8011900AF0117
:101BF00017009801140084011300710110006101A5
:101C0000100051010E0043010D0036010B002B01A5
:101C10000B0020010B00150109000C010900030154
:101C20000800FB000800F3000800EB000700E400D8
:101C30000600DE000600D8000600D2000600CC0038
:101C40000500C7000500C2000500BD000400B90082
:101C50000400B5000400B1000400AD000400A900B8
:101C60000400A5000300A20003009F0004009B00E5
:101C70000300980003009500020093000300900009
:101C800003008D0002008B00030088000200860024
:101C9000020084000300810002007F0002007D003A
:101CA00002007B000200790002007700010076004C
:101CB00002007400020072000100710002006F0057
:101CC00002006D0001006C0002006A000100690062
:101CD0000200670001006600010065000100640069
:101CE00002006200010061000100600001005F006D
:101CF00002005D0001005C0001005B0001005A0071
:101D00000100590001005800010057000100560071
:101D10000100550001005400010053000000530071
:101D200001005200010051000100500001004F006D
:101D300001004E0000004E0001004D0001004C006B
:101D400001004B0000004B0001004A000100490067
:101D50000100480000004800010047000100460063
:101D6000000046000100450000004500010044005D
:101D70000100430000004300010042000000420057
:101D800001004100000041000100400001003F004F
:101D900000003F0001003E0000003E0001003D0049
:101DA00000003D0001003C0000003C0000003C0041
:101DB00001003B0000003B0001003A0000003A0037
:101DC000010039000000390001003800000038002F
:101DD0000000380001003700000037000100360025
:101DE000000036000000360001003500000035001C
:101DF0000000350001003400000034000000340011
:101E00000100330000003300000033000100320005
:101E100000003200000032000100310000003100FB
:101E200000003100010030000000300000003000F0
:101E300001002F0000002F0000002F0000002F00E5
:101E400001002E0000002E0000002E0001002D00D9
:101E500000002D0000002D0000002D0001002C00CE
:101E600000002C0000002C0000002C0001002B00C2
:101E700000002B0000002B0000002B0001002A00B6
:101E800000002A0000002A0000002A0001002900AA
:101E9000000029000000290000002900000029009E
:101EA0000100280000002800000028000000280091
:101EB0000000280001002700000027000000270084
:101EC0000000270000002700010026000000260077
:101ED000000026000000260000002600010025006A
:101EE000000025000000250000002500000025005E
:101EF0000000250001002400000024000000240050
:101F00000000240000002400010023000000230042
:101F10000000230000002300000023000000230035
:101F20000000230001002200000022000000220027
:101F30000000220000002200000022000100210019
:101F4000000021000000210000002100000021000D
:101F500000002100000021000100200000002000FE
:101F600000002000000020000000200000002000F1
:101F7000000020000000200001001F0000001F00E2
:101F800000001F0000001F0000001F0000001F00D5
:101F900000001F0001001E0000001E0000001E00C7
:101FA00000001E0000004D383420582059205A20CF
:101FB00045006265640A002C2073797374656D2096
:101FC00073746F7070656421204865617465725F19
:101FD00049443A20005053553A2047656E6572696E
:101FE000630050726F746F636F6C3A20312E300053
:101FF000426175643A203131353230300052414D02
:10200000505320312E33004D657368204C65766542
:102010006C696E67004578747275646572733A20F6
:102020003100687474703A2F2F6D61726C696E663E
:10203000772E6F7267004A756C69612032303138D3
:1020400020496E7465726D65646961746500323033
:1020500031372D31322D32352031323A30300031A6
:102060002E312E38004D61726C696E005072696EAF
:1020700074657220537461747300546865726D697D
:1020800073746F727300426F61726420496E666F81
:10209000005072696E74657220496E666F004D6102
:1020A000696E0020204E6F7A7A6C653A200020001D
:1020B0004261636B004D696E696D756D2054656D8D
:1020C00070206973203137302E0048656174696E65
:1020D00067206661696C6564004578747275646533
:1020E000206D6F726500526573756D652070726941
:1020F0006E7400524553554D45204F5054494F4E34
:10210000533A0020204E6F7A7A6C653A200063685B
:10211000616E6765006F66207468652066696C6132
:102120006D656E74005761697420666F72207374F8
:10213000617274005052494E5420504155534544E9
:102140000020204E6F7A7A6C653A20002000666984
:102150006C616D656E7420756E6C6F6164005761A3
:10216000697420666F72005052494E542050415598
:102170005345440020204E6F7A7A6C653A20002047
:1021800000506C6561736520776169742E2E2E0096
:1021900048656174696E67206E6F7A7A6C6500506D
:1021A00052494E54205041555345440020204E6F13
:1021B0007A7A6C653A2000200068656174206E6F41
:1021C0007A7A6C652E005072657373206275747430
:1021D0006F6E20746F005052494E54205041555339
:1021E00045440020204E6F7A7A6C653A2000746F67
:1021F00020636F6E74696E75652E2E2E00616E649D
:1022000020707265737320627574746F6E00496E0E
:10221000736572742066696C616D656E74005052EE
:10222000494E54205041555345440020204E6F7A6A
:102230007A6C653A2000200066696C616D656E7489
:10224000206C6F6164005761697420666F72005082
:1022500052494E54205041555345440020204E6F62
:102260007A7A6C653A2000200066696C616D656E53
:1022700074206578747275646500576169742066AE
:102280006F72005052494E542050415553454400FE
:10229000746F20726573756D65005761697420668F
:1022A0006F72207072696E74005052494E54205003
:1022B0004155534544002569730025696D20256902
:1022C00073002569682025696D20256973002569DB
:1022D00064202569682025696D20256973002569BA
:1022E0007920256964202569682025696D20256984
:1022F00073004C696E65204E756D6265722069735E
:10230000206E6F74204C617374204C696E65204E92
:10231000756D6265722B312C204C617374204C6991
:102320006E653A20004B494C4C45442E20005354D6
:102330004F505045442E20005072696E74657220D3
:1023400073746F707065642064756520746F2065A8
:1023500072726F72732E20466978207468652065EA
:1023600072726F7220616E6420757365204D393909
:102370003920746F20726573746172742E20285432
:10238000656D706572617475726520697320726520
:102390007365742E205365742069742061667465BA
:1023A000722072657374617274696E67290A004ED7
:1023B0006F20436865636B73756D2077697468205F
:1023C0006C696E65206E756D6265722C204C617350
:1023D00074204C696E653A2000636865636B7375A1
:1023E0006D206D69736D617463682C204C6173742A
:1023F000204C696E653A20004D313130004D33314B
:102400000053442072656164206572726F720A0025
:10241000446F6E65207072696E74696E67206669BC
:102420006C650A0020496E76616C69642065787479
:10243000727564657220000000000000000000005A
:1024400000000000005243000048430000524325B2
:10245000753A2530327500253032753A253032759F
:102460000025756420253032753A25303275005AC2
:102470000059005800092000000000000000000082
:10248000000000007FFFE0000000000000000000EE
:102490000000007000E000000000000000000000EC
:1024A000000061F860000000000000000000000073
:1024B0000041F820000000000000000000000000C3
:1024C00040F020000000000000000000000000407C
:1024D0006020000000000000000000000000580123
:1024E000A07F80000000000000004104005C63A0A9
:1024F000FFC0000000000000002082005EF7A0FF87
:10250000C0000000000000002082005EF7A0FFC0B5
:10251000000000000000004104005C63A07F800018
:102520000000000000008208005801A07F80000029
:102530000000000001041000406020FFC000000007
:102540000000000104100040F020FFC00000000067
:1025500000000082080041F820FFC00000000000D9
:10256000000041040061F8603F000000000000002E
:10257000000000007000E01E0000000000000001EC
:10258000FFFF807FFFE00C0000000000000001FF63
:10259000FF800000000000000000000000000000BC
:1025A000007FFFE0000000000000000000000000CD
:1025B0007000E00000000000000000000000006368
:1025C0000C60000000000000000000000000470E4A
:1025D000200000000000000000000000004F0F205D
:1025E0000000000000000000000000005F0FA000DD
:1025F00000000000000000000000005E07A07F80D7
:1026000000000000000000410400406020FFC00006
:1026100000000000000020820040F020FFC0000009
:10262000000000000020820040F020FFC0000000F9
:10263000000000004104004060207F800000000096
:102640000000008208005E07A07F800000000000FC
:1026500000010410005F0FA0FFC000000000000098
:10266000010410004F0F20FFC00000000000000018
:10267000820800470E20FFC000000000000000415B
:102680000400630C603F0000000000000000000038
:10269000007000E01E0000000000000001FFFF804D
:1026A0007FFFE00C0000000000000001FFFF800041
:1026B000000000060900FE000000000001090008FB
:1026C000FE000005080806000040F0C888889878D9
:1026D00010050808060000C0F88888888888F80572
:1026E00005050600012030F8302005080806000026
:1026F0002070F820202020E00509090600FF207046
:10270000A8A8B8888870200509090600FFE080C0E5
:10271000B0A8283028280509090600FFF8A88888ED
:10272000888888A8F8050A0A0600FE2050505050F4
:1027300088A8A8887003030306000340A040000691
:102740000900FE0701920321207FFF07FF07FF001A
:1027500000000600000107070602008080808080DC
:102760000080030202060105A0A00507070600007D
:102770005050F850F850500507070600002078A088
:102780007028F020050707060000C0C810204098F8
:10279000180507070600006090A040A89068020393
:1027A00003060104C04080030707060100204080A3
:1027B0008080402003070706010080402020204041
:1027C0008005050506000120A870A820050505065E
:1027D00000012020F820200203030602FFC04080F1
:1027E000050101060003F8020202060200C0C0054E
:1027F00005050600010810204080050707060000B7
:102800007088888888887003070706010040C040E8
:10281000404040E00507070600007088087080808F
:10282000F8050707060000F81020100808F0050753
:102830000706000010305090F8101005070706003A
:1028400000F880F00808887005070706000070800F
:1028500080F0888870050707060000F8081020201F
:10286000202005070706000070888870888870059A
:1028700007070600007088887808087002050506BA
:102880000200C0C000C0C00206060602FFC0C000B1
:10289000C040800407070600001020408040201040
:1028A000050303060002F800F8040707060100808C
:1028B000402010204080050707060000708808109F
:1028C00020002005070706000070880868A8A87087
:1028D000050707060000708888F8888888050707BC
:1028E000060000F08888F08888F0050707060000D9
:1028F00070888080808870050707060000F088884F
:10290000888888F0050707060000F88080F080803E
:10291000F8050707060000F88080F0808080050732
:1029200007060000708880B88888700507070600D1
:1029300000888888F8888888010707060200808058
:102940008080808080050707060000381010101076
:1029500090600507070600008890A0C0A090880539
:102960000707060000808080808080F80507070642
:10297000000088D8A888888888050707060000888E
:1029800088C8A89888880507070600007088888886
:10299000888870050707060000F08888F08080802E
:1029A00005070706000070888888A8906805070753
:1029B000060000F08888F0A0908805070706000050
:1029C000788080700808F0050707060000F82020CE
:1029D000202020200507070600008888888888882E
:1029E000700507070600008888888888502005073A
:1029F000070600008888888888A850050707060011
:102A000000888850205088880507070600008888BD
:102A10008850202020050707060000F808102040F5
:102A200080F8030707060100E08080808080E005D1
:102A30000505060001804020100803070706010075
:102A4000E02020202020E005030306000420508819
:102A5000050101060000F802020206020580400599
:102A6000050506000070087888780507070600004D
:102A70008080B0C88888F005050506000070808059
:102A80008870050707060000080868988888780598
:102A900005050600007088F880700507070600002D
:102AA0003048E0404040400506060600FF70888838
:102AB0007808700507070600008080B0C8888888FD
:102AC00001070706020080008080808080030808DC
:102AD0000601FF200020202020A040040707060058
:102AE00000808090A0C0A090030707060100C040AE
:102AF00040404040E0050505060000D0A8A8A8A871
:102B0000050505060000B0C888888805050506008B
:102B10000070888888700506060600FFF08888F037
:102B200080800506060600FF788888780808050575
:102B300005060000B0C8808080050505060000700D
:102B4000807008F00407070600004040E040404065
:102B50003005050506000088888898680505050683
:102B6000000088888850200505050600008888A890
:102B7000A850050505060000885020508805060667
:102B80000600FF888888780870050505060000F8AB
:102B9000102040F803070706010020404080404015
:102BA0002001070706020080808080808080030764
:102BB00007060100804040204040800502020600D8
:102BC000026890000000060000FFE0FFD11000FF47
:102BD000FEFFD0FFE0FFC1FFD1E240A0C8A6A22FB8
:102BE000F800238127AC00AFFF64A5FF64FF64A455
:102BF000FFD0FFFE53442063617264206F6B0A00B4
:102C00006F70656E526F6F74206661696C65640ADF
:102C100000766F6C756D652E696E697420666169EA
:102C20006C65640A00534420696E697420666169AA
:102C30006C0A006175746F25692E67004D3234008F
:102C40004D32332025730057726974696E672074A2
:102C50006F2066696C653A20006F70656E20666152
:102C6000696C65642C2046696C653A20006F70655C
:102C70006E206661696C65642C2046696C653A203B
:102C80000046696C652073656C65637465640A0051
:102C90002053697A653A200046696C65206F70653B
:102CA0006E65643A20006F70656E206661696C65C0
:102CB000642C2046696C653A20002066696C653A90
:102CC0002000646F696E67006672657368004E6FFE
:102CD000772000454E4420535542524F5554494E9B
:102CE000450A002220706F73002220706172656EA9
:102CF000743A2200535542524F5554494E45204391
:102D0000414C4C207461726765743A22004B494C07
:102D10004C45442E2000747279696E6720746F20D0
:102D200063616C6C207375622D67636F64652066E8
:102D3000696C6573207769746820746F6F206D61AA
:102D40006E79206C6576656C732E204D4158206C31
:102D50006576656C2069733A004572726F723A004D
:102D60003A004361703A00205A0020590058002070
:102D7000204D61783A2000205A0020590058002048
:102D8000204D696E3A20004F6E20004F666600535A
:102D90006F667420656E6473746F70733A200020E0
:102DA000643A0020693A0020703A0043290A006121
:102DB000626C656420286D696E2074656D702000FA
:102DC000436F6C64206578747275646573206172FA
:102DD00065200023646566696E6520204445464190
:102DE000554C545F4B64200023646566696E652012
:102DF0002044454641554C545F4B6920002364658F
:102E000066696E65202044454641554C545F4B70C1
:102E10002000504944204175746F74756E652066BA
:102E2000696E6973686564212050757420746865E3
:102E3000206C617374204B702C204B6920616E6490
:102E4000204B6420636F6E7374616E7473206672BE
:102E50006F6D2062656C6F7720696E746F20436FB1
:102E60006E66696775726174696F6E2E680A0050CC
:102E70004944204175746F74756E65206661696C94
:102E80006564212074696D656F75740A0054484546
:102E9000524D414C2052554E41574159005468659E
:102EA000726D616C2052756E617761790048656161
:102EB00074696E67206661696C6564004865617459
:102EC000696E67206661696C656400504944204101
:102ED00075746F74756E65206661696C6564212018
:102EE00054656D706572617475726520746F6F20C2
:102EF000686967680A00204B643A2000204B693AF1
:102F00002000204B703A20000A20436C61737369E3
:102F10006320504944200A002054753A2000204B79
:102F2000753A2000206D61783A2000206D696E3A74
:102F3000200020643A200020626961733A20004238
:102F40006564204C6576656C696E67200046616932
:102F50006C656420746F20656E61626C65204265EB
:102F600064204C6576656C696E670A004D65736810
:102F700020426564204C6576656C20646174613A1A
:102F80000A004D65736820706F696E742063616E0E
:102F90006E6F74206265207265736F6C7665640A6B
:102FA000004D34323120696E636F72726563742034
:102FB000706172616D657465722075736167650A11
:102FC000004573746570732F6D6D00457374657083
:102FD000732F6D6D005A73746570732F6D6D005A89
:102FE00073746570732F6D6D005973746570732FF2
:102FF0006D6D005973746570732F6D6D0058737427
:103000006570732F6D6D005873746570732F6D6DDF
:10301000004D6F74696F6E0053746570732F6D6D22
:10302000004A65726B00416363656C657261746927
:103030006F6E0056656C6F6369747900436F6E74D0
:10304000726F6C0046696C2E204469612E004669DF
:103050006C2E204469612E004F6666004F6E200082
:103060004520696E206D6D3300416476616E636545
:10307000204B00416476616E6365204B00416476AD
:10308000616E6365204B00436F6E74726F6C00431A
:10309000616E6E6F7420656E746572207375626404
:1030A00069723A2000022E2E004D61696E000045C3
:1030B0007874727564656420746F74616C3A200072
:1030C000256C642E25696D00004C6F6E6765737406
:1030D000206A6F622074696D653A200000546F7435
:1030E000616C207072696E742074696D653A20009D
:1030F000436F6D706C657465643A20005072696E40
:103100007420436F756E743A20004D6178205465C9
:103110006D703A20313530004D696E2054656D7008
:103120003A203500544265643A4D656E64656C2DF5
:103130007061727473004D61782054656D703A202F
:10314000323735004D696E2054656D703A20350078
:1031500054303A204D656E64656C2D7061727473E5
:103160000043616E6E6F74206F70656E20737562C0
:103170006469722000656E7175657565696E67209A
:1031800022006563686F3A005265636F76657279F5
:103190002042494E207772697465206661696C65CA
:1031A000642E0A006F70656E206661696C65642C20
:1031B0002046696C653A200057726974696E672011
:1031C000746F2066696C653A2000544845524D4141
:1031D0004C2052554E4157415900546865726D61FB
:1031E0006C2052756E617761790042616279737407
:1031F0006570205A004D36303020423000436861FF
:103200006E67652066696C616D656E7400466C6FF3
:103210007700466C6F770046616E20737065656459
:103220000046616E2073706565640042656400420B
:103230006564004E6F7A7A6C65004E6F7A7A6C65C1
:1032400000426564205A00426564205A005370654C
:103250006564005370656564004D61696E0050726D
:10326000656865617420504C4120456E6400507261
:10327000656865617420504C41204265640050725D
:10328000656865617420504C4100507265706172D0
:103290006500507265686561742041425320456E37
:1032A0006400507265686561742041425320426534
:1032B0006400507265686561742041425300507229
:1032C0006570617265004C6576656C696E67204457
:1032D0006F6E6521004D6F7665205A0047323920A8
:1032E0005332004E65787420506F696E7400256902
:1032F000202F2025750047323920533100473239BD
:1033000020533200436C69636B20746F2042656701
:10331000696E00526573656E643A20006F6B002021
:10332000746F6F206C6F6E67206578747275736947
:103330006F6E2070726576656E7465640A00206336
:103340006F6C6420657874727573696F6E2070722B
:103350006576656E7465640A00627573793A2070EB
:10336000617573656420666F7220696E7075740A8A
:1033700000627573793A2070617573656420666FB9
:103380007220757365720A00627573793A207072E3
:103390006F63657373696E670A004B494C4C454413
:1033A0002E20004B494C4C2063617573656420628C
:1033B00079204B494C4C20627574746F6E2F706984
:1033C0006E0A004B494C4C45442E20004B494C4C56
:1033D0002063617573656420627920746F6F206D5E
:1033E00075636820696E6163746976652074696DC0
:1033F00065202D2063757272656E7420636F6D6D2C
:10340000616E643A2000290A002062797465733B7A
:1034100020637263200053657474696E6773205370
:10342000746F726564202800202863616C63756C7A
:103430006174656429210A0020213D200045455022
:10344000524F4D20435243206D69736D6174636820
:10345000202D202873746F726564292000290A00CA
:103460002062797465733B2063726320002073745B
:103470006F7265642073657474696E67732072651A
:1034800074726965766564202800204D61726C69EC
:103490006E3D563437290A0028454550524F4D3D60
:1034A00000454550524F4D2076657273696F6E200E
:1034B0006D69736D61746368200048617264636F45
:1034C0006465642044656661756C7420536574742A
:1034D000696E6773204C6F616465640A00E80300DD
:1034E00000E8030000320000001027000000004840
:1034F00043000048430000A0410000344200002087
:103500004300002043F0F77B4400008C432052002E
:1035100020204D393030204B004C696E656172209F
:10352000416476616E63653A0A00204400204900D8
:1035300020204D33303120500050494420736574B1
:1035400074696E67733A0A002046002042002048E2
:103550000020204D3134352053004D61746572696F
:10356000616C2068656174757020706172616D6551
:10357000746572733A0A00205A00205900202047CF
:10358000323920533320580020204D34323020531C
:10359000004D65736820426564204C6576656C69F2
:1035A0006E673A0A00205A0020590020204D323020
:1035B00036205800486F6D65206F66667365743AF3
:1035C0000A00204500205A002059002058002042BF
:1035D0000020540020204D323035205300416476C5
:1035E000616E6365643A20533C6D696E5F66656524
:1035F00064726174653E20543C6D696E5F747261E3
:1036000076656C5F66656564726174653E20423CF8
:103610006D696E5F7365676D656E745F74696D6506
:103620005F75733E20583C6D61785F78795F6A659D
:10363000726B3E205A3C6D61785F7A5F6A65726B8F
:103640003E20453C6D61785F655F6A65726B3E0A3E
:103650000020540020520020204D323034205000F1
:10366000416363656C65726174696F6E2028756E65
:103670006974732F7332293A20503C7072696E74EA
:103680005F616363656C3E20523C72657472616376
:10369000745F616363656C3E20543C74726176654F
:1036A0006C5F616363656C3E0A00204500205A0030
:1036B00020590020204D3230312058004D6178696A
:1036C0006D756D20416363656C65726174696F6EC1
:1036D0002028756E6974732F7332293A0A002045C9
:1036E00000205A0020590020204D3230332058004D
:1036F0004D6178696D756D2066656564726174658C
:10370000732028756E6974732F73293A0A00204557
:1037100000205A0020590020204D393220580053F3
:10372000746570732070657220756E69743A0A0052
:1037300020204D3230302044300A0020204D3230DD
:10374000302044002044697361626C65640A00465D
:10375000696C616D656E742073657474696E6773EE
:103760003A0020204D3134392043203B20556E69EA
:10377000747320696E2043656C736975730A002049
:1037800020473231202020203B20556E6974732061
:10379000696E206D6D0A005265636F7665727920DF
:1037A00042494E2064656C657465642E0A0052655A
:1037B000636F766572792042494E2064656C65744A
:1037C00065206661696C65642E0A006572726F72AD
:1037D0002077726974696E6720746F2066696C6502
:1037E0000A0046696C652064656C657465643A001E
:1037F00044656C6574696F6E206661696C65642CE4
:103800002046696C653A20006F70656E20666169BC
:103810006C65642C2046696C653A2000486F6D65C4
:1038200020257325732573206669727374002066E2
:10383000697273740A005A0059005800486F6D6528
:1038400020005654726176206D696E005654726184
:1038500076206D696E005654726176206D696E0037
:10386000566D696E00566D696E00566D696E005634
:103870006D6178204500566D6178204500566D6178
:1038800078204500566D6178205A00566D61782089
:103890005A00566D6178205A00566D6178205900A3
:1038A000566D6178205900566D6178205900566D2B
:1038B0006178205800566D6178205800566D617807
:1038C0002058004D6F74696F6E00416D617820451E
:1038D00000416D6178204500416D6178205A0041BA
:1038E0006D6178205A00416D6178205900416D6109
:1038F00078205900416D6178205800416D61782031
:103900005800412D74726176656C00412D747261AE
:1039100076656C00412D7265747261637400412D8F
:103920007265747261637400416363656C00416326
:1039300063656C004D6F74696F6E0056652D6A6526
:10394000726B0056652D6A65726B0056652D6A654F
:10395000726B00567A2D6A65726B00567A2D6A6515
:10396000726B0056792D6A65726B0056792D6A6507
:10397000726B0056792D6A65726B0056782D6A65F8
:10398000726B0056782D6A65726B0056782D6A65E9
:10399000726B004D6F74696F6E004572726F7220AA
:1039A00077726974696E6720746F20454550524F75
:1039B0004D210A0000002100240027002A002D00CC
:1039C0003000330001010000040107010A0100007A
:1039D0002200250028002B002E00310034000201B7
:1039E0000000050108010B01000020002300260053
:1039F00029002C002F003200000100000301060105
:103A00000901050505050705080808080202020264
:103A10000A0A08080404040401010101010101016A
:103A20000303030303030303040707070C0C0C0C35
:103A30000C0C0C0C0202020206060606060606061E
:103A40000B0B0B0B0B0B0B0B0102102020080810AB
:103A500020401020408002010201080402010102FE
:103A600004081020408080402010080402018004D7
:103A70000201804020100804020108040201010232
:103A8000040810204080010204081020408000003B
:103A90000A0B02090C0D0E080703040100000000C8
:103AA0000000000000000000000000000000000016
:103AB00000000000000000000000121110000000D3
:103AC00000000000000000000000000000000000F6
:103AD00000000000024661696C65642072657373C2
:103AE00075726563742066696C653A20004D3331E8
:103AF000004D3234004D3233202573004F70656E17
:103B0000696E672072657373757265637420666988
:103B10006C653A20004A756C69612032303138207A
:103B2000496E7465726D6564696174652072656162
:103B300064792E00526573756D65207072696E74BC
:103B40000053746F70207072696E74005072696EE9
:103B5000742070617573656400005072696E742022
:103B600061626F72746564004E6F2053442063611C
:103B70007264005072696E742066726F6D205344D7
:103B80000053746F70207072696E740052657375A3
:103B90006D65207072696E740041626F757420509B
:103BA00072696E7465720050617573652070726918
:103BB0006E7400436F6E74726F6C004265642043D4
:103BC000616C6962726174696F6E005072657061D8
:103BD00072650054756E650041646A757374205A8D
:103BE0002D6178697300496E666F20736372656535
:103BF0006E0020746F6F206C6F6E67206578747232
:103C00007573696F6E2070726576656E7465640A8F
:103C10000020636F6C6420657874727573696F6ED1
:103C20002070726576656E7465640A000301E500B4
:103C300011241FBECFEFD1E2DEBFCDBF00E00CBF2D
:103C400014E0A0E0B2E0E0E1F9E602E00BBF02C060
:103C500007900D92AA3EB107D9F729E1AAEEB4E088
:103C600001C01D92A535B207E1F71EE1C7E1DEE113
:103C700000E006C021970109802FFE010F94D23386
:103C8000C631D10780E00807A9F70F940D1A0D94EB
:103C900077340C9400002F923F924F925F926F9274
:103CA0007F928F929F92AF92BF92CF92DF92EF92CC
:103CB000FF920F931F93CF93DF93CDB7DEB7CF560D
:103CC000D1090FB6F894DEBF0FBECDBF81E090E002
:103CD00090933B1880933A188091B7178D3411F464
:103CE0000C94F127843511F40C94C736873411F005
:103CF0000C9402378091B5179091B6178B319105CE
:103D000009F415C6B4F4843091053CF48230910571
:103D1000CCF597FF30C00C9419378430910509F425
:103D2000BFC54A9711F00C9419370E94E63B0C94DA
:103D300019378A32910511F40C9462274CF48C31B6
:103D4000910509F424C64D9709F426C60C94193739
:103D50008B35910511F40C94E2268C35910511F404
:103D60000C94E7268A35910511F00C9419371092BE
:103D7000EF040C94193780913C0281110C94203788
:103D80000C94193720913C02222311F40C9419371A
:103D900011E0029709F010E00E94DE5D82E50E94CA
:103DA000893A882309F44AC10E94233A6B017C01B5
:103DB00040905B0E50905C0E60905D0E70905E0EB9
:103DC00020915F0E3091600E4091610E5091620E15
:103DD00028AF39AF4AAF5BAF80917F0E9091800ED4
:103DE000A091810EB091820E8CAF9DAFAEAFBFAFF0
:103DF0002091830E3091840E4091850E5091860E55
:103E00002C962CAF3DAF4EAF5FAF2C9720E030E04B
:103E1000A901C701B6010F94792C882309F426C59E
:103E2000A30192016CAD7DAD8EAD9FAD0F94792C49
:103E300081110FC028AD39AD4AAD5BAD2C966CAD8C
:103E40007DAD8EAD9FAD2C970F94792C882309F40E
:103E50000DC520E030E0A901C701B6010F94792C0F
:103E6000881F8827881F18130BC080E090E0A0E807
:103E7000BFE364968CAF9DAFAEAFBFAF64970AC08F
:103E800020E030E040E85FEB64962CAF3DAF4EAFF2
:103E90005FAF6497A30192016CAD7DAD8EAD9FAD18
:103EA0000F94E23028966CAF7DAF8EAF9FAF28970E
:103EB00028AD39AD4AAD5BAD2C966CAD7DAD8EAD08
:103EC0009FAD2C970F94E23060966CAF7DAF8EAFB4
:103ED0009FAF609728962CAD3DAD4EAD5FAD289756
:103EE000CA01B9010F94DE2C4B015C0160962CAD28
:103EF0003DAD4EAD5FAD6097CA01B9010F94DE2CA8
:103F00009B01AC01C501B4010F94E3300F944E3313
:103F100024966CAF7DAF8EAF9FAF249720E030E04A
:103F200040E05FE30F94DE2C4B015C01A70196019A
:103F3000C701B6010F94DE2C6B017C01A501940131
:103F4000C501B4010F94DE2C9B01AC01C701B60181
:103F50000F94E2300F944E339B01AC0164966CAD2C
:103F60007DAD8EAD9FAD64970F94DE2C4B015C014F
:103F70002CAD3DAD4EAD5FADC301B2010F94E3304A
:103F800020E030E040E05FE30F94DE2C6B017C0129
:103F900060966CAD7DAD8EAD9FAD609790582496C8
:103FA0002CAD3DAD4EAD5FAD24970F94BF319B015D
:103FB000AC01C501B4010F94DE2C9B01AC01C7011B
:103FC000B6010F94E330A30192010F94E2306B012C
:103FD0007C012C962CAD3DAD4EAD5FAD2C9768AD00
:103FE00079AD8AAD9BAD0F94E33020E030E040E046
:103FF0005FE30F94DE2C2B013C0124962CAD3DADEC
:104000004EAD5FAD249728966CAD7DAD8EAD9FAD66
:1040100028970F94BF319B01AC01C501B4010F94E7
:10402000DE2C9B01AC01C301B2010F94E33028AD3B
:1040300039AD4AAD5BAD0F94E23014C089E40E9403
:10404000893A882329F00E94233A6B017C0103C03E
:10405000C12CD12C76018AE40E94893A8823F9F098
:104060000E94233A2C966CAF7DAF8EAF9FAF2C97FA
:1040700020E030E0A901C701B6010F94792C81112D
:104080001EC020E030E0A9012C966CAD7DAD8EAD58
:104090009FAD2C970F94792C811111C0E7C320E0BC
:1040A00030E0A901C701B6010F94792C882309F4E7
:1040B000DDC32C961CAE1DAE1EAE1FAE2C97D701D5
:1040C000C601B05888AF99AFAAAFBBAF2C962CAD44
:1040D0003DAD4EAD5FAD2C9750582CAF3DAF4EAFC0
:1040E0005FAF9C01AD01BC01CD010F94DE2C4B01F3
:1040F0005C012CAD3DAD4EAD5FADCA01B9010F9471
:10410000DE2C9B01AC01C501B4010F94E3300F9488
:104110004E33A4966CAF7DAF8EAF9FAFA4978091C6
:104120005B0E90915C0EA0915D0EB0915E0E249698
:104130008CAF9DAFAEAFBFAF2497A7019601BC0176
:10414000CD010F94E33064966CAF7DAF8EAF9FAF1F
:10415000649720915F0E3091600E4091610E5091F6
:10416000620E60962CAF3DAF4EAF5FAF60972C965E
:104170002CAD3DAD4EAD5FAD2C9760966CAD7DAD79
:104180008EAD9FAD60970F94E33068966CAF7DAFB6
:104190008EAF9FAF689780917F0E9091800EA09117
:1041A000810EB091820E6C968CAF9DAFAEAFBFAF5B
:1041B0006C9764962CAD3DAD4EAD5FAD6497BC0180
:1041C000CD010F94E2306B017C012091830E309180
:1041D000840E4091850E5091860EA0962CAF3DAF77
:1041E0004EAF5FAFA09768962CAD3DAD4EAD5FADC5
:1041F0006897A0966CAD7DAD8EAD9FADA0970F94E6
:10420000E2304B015C018091630E9091640EA091AD
:10421000650EB091660EAC968CAF9DAFAEAFBFAFE2
:10422000AC979C01AD016091870E7091880E8091D2
:10423000890E90918A0E0F94E23028966CAF7DAF74
:104240008EAF9FAF289720918B0E30918C0E4091AE
:104250008D0E50918E0EA8962CAF3DAF4EAF5FAF36
:10426000A8978091670E9091680EA091690EB09109
:104270006A0EE0968CAF9DAFAEAFBFAFE097A701DF
:10428000960168AD79AD8AAD9BAD0F94DE2C2B0104
:104290003C01A50194016CAD7DAD8EAD9FAD0F9439
:1042A000DE2C9B01AC01C301B2010F94E3302B0162
:1042B0003C01A501940168AD79AD8AAD9BAD0F9429
:1042C000DE2C4B015C01A70196016CAD7DAD8EAD7E
:1042D0009FAD0F94DE2C9B01AC01C501B4010F947E
:1042E000E230A30192010F9456316B017C0120E072
:1042F00030E0A9010F94792C87FF0AC02BED3FE035
:1043000049EC50E4C701B6010F94E3306B017C0126
:10431000112351F02BED3FE049EC50E4C701B60109
:104320000F94E2306B017C0120E030E0A901C7016D
:10433000B6010F94792C811128C06C962CAD3DAD3F
:104340004EAD5FAD6C9724966CAD7DAD8EAD9FADDF
:1043500024970F94792C811118C0A0962CAD3DADF7
:104360004EAD5FADA09760966CAD7DAD8EAD9FAD4F
:1043700060970F94792C811108C09BEDC92E9FE0A6
:10438000D92E99ECE92E90E4F92EA4962CAD3DADF2
:104390004EAD5FADA497C701B6010F94DE2C9B0113
:1043A000AC010F94DE2C4B015C0128962CAD3DAD89
:1043B0004EAD5FAD2897CA01B9010F94DE2C9B0169
:1043C000AC01C501B4010F94E3300F944E334B019F
:1043D0005C012FE632E143E85AE30F94792C87FD24
:1043E00041C2C501B4010F9458320F942C321B0105
:1043F000672B19F422242394312CB10180E090E042
:104400000F947D2C4B015C019B01AC01C701B601EF
:104410000F94BF3124966CAF7DAF8EAF9FAF2497C2
:10442000A501940128966CAD7DAD8EAD9FAD28970A
:104430000F94BF31A4966CAF7DAF8EAF9FAFA497A2
:10444000E0962CAD3DAD4EAD5FADE097A8966CAD5E
:104450007DAD8EAD9FADA8970F94E230A50194017C
:104460000F94BF31A8966CAF7DAF8EAF9FAFA8976A
:1044700024962CAD3DAD4EAD5FAD2497CA01B90178
:104480000F94DE2C20E030E040E05FE30F94DE2C60
:104490009B01AC0160E070E080E89FE30F94E230A4
:1044A0006C966CAF7DAF8EAF9FAF6C97AC962CAD1A
:1044B0003DAD4EAD5FADAC9729873A874B875C87A2
:1044C000E0968CAD9DADAEADBFADE0978D879E877C
:1044D000AF87B88B60910C0270910D02072E000C13
:1044E000880B990B0F947F2C20910E0230910F02B4
:1044F00040911002509111020F94DE2C2AE037ED0A
:1045000043E25CE30F94DE2C6CA77DA78EA79FA7E8
:104510000F94D2079B01AC0128533F4F4F4F5F4F81
:10452000A0962CAF3DAF4EAF5FAFA09748AC59AC53
:104530006AAC7BAC41E050E02E965FAF4EAF2E9759
:1045400059E125965FAF25972E96AEADBFAD2E975C
:10455000A215B30509F44BC10E94A0790F94D207AC
:10456000DC01CB01A0962CAD3DAD4EAD5FADA0976B
:10457000821B930BA40BB50BB7FD11C00F94D20790
:104580009B01AC0128533F4F4F4F5F4FA0962CAF7C
:104590003DAF4EAF5FAFA09780E00E94EECD259675
:1045A0003FAD2597315025963FAF2597332309F42A
:1045B00045C06C962CAD3DAD4EAD5FAD6C976CAD0E
:1045C0007DAD8EAD9FAD0F94DE2C6B017C012496EA
:1045D0002CAD3DAD4EAD5FAD2497B201C3010F943C
:1045E000DE2CA70196010F94E3307B018C016C96C1
:1045F0002CAD3DAD4EAD5FAD6C97B201C3010F94D4
:10460000DE2C4B015C0124962CAD3DAD4EAD5FAD73
:1046100024976CAD7DAD8EAD9FAD0F94DE2C9B01CC
:10462000AC01C501B4010F94E2302B013C01C7017C
:10463000D8018CAF9DAFAEAFBFAF5BC02E964EAD75
:104640005FAD2E97BA0180E090E00F947D2C249608
:104650002CAD3DAD4EAD5FAD24970F94DE2C4B01DC
:104660005C010F94BC316B017C01C501B4010F9456
:1046700044334B015C01A701960168AD79AD8AAD69
:104680009BAD0F94DE2C2B013C01A50194012C96CF
:104690006CAD7DAD8EAD9FAD2C970F94DE2C9B0144
:1046A000AC01C301B2010F94E3302B013C01A50121
:1046B000940168AD79AD8AAD9BAD0F94DE2C4B01B2
:1046C0005C01A70196012C966CAD7DAD8EAD9FADC2
:1046D0002C970F94DE2C9B01AC01C501B4010F9403
:1046E000E2306CAF7DAF8EAF9FAF59E125965FAFE3
:1046F00025979201A30164966CAD7DAD8EAD9FAD03
:1047000064970F94E33069837A838B839C832CAD09
:104710003DAD4EAD5FAD68966CAD7DAD8EAD9FADE0
:1047200068970F94E3306D837E838F839887A49678
:104730002CAD3DAD4EAD5FADA49769857A858B8577
:104740009C850F94E33069877A878B879C87A8962E
:104750002CAD3DAD4EAD5FADA8976D857E858F8547
:1047600098890F94E3306D877E878F87988B80912F
:104770002C02882321F0CE0101960E943D4EE0904C
:104780008B1789819A81AB81BC8188A399A3AAA345
:10479000BBA38D819E81AF81B8858CA39DA3AEA361
:1047A000BFA389859A85AB85BC8588A799A7AAA749
:1047B000BBA7CE0180960E949A998E01045D1F4F7F
:1047C0009E01235F3F4FAE01485D5F4FBE016C5DB0
:1047D0007F4FCE0180960F9468102E968EAD9FADC0
:1047E0002E9701962E969FAF8EAF2E97ADCEE0906E
:1047F0008B1780917F0E9091800EA091810EB091C9
:10480000820E88A399A3AAA3BBA38091830E909143
:10481000840EA091850EB091860E8CA39DA3AEA3AD
:10482000BFA38091870E9091880EA091890EB091C0
:104830008A0E88A799A7AAA7BBA7CE0180960E9437
:104840009A998E01045D1F4F2BE83EE0AE01485D52
:104850005F4FBE016C5D7F4FCE0180960F94681054
:104860000E94DC3B0E94A2990C941937E9E5FDE215
:1048700084918F010F5F1F4F882321F00E944539DB
:10488000F801F6CFE7EAF2E084918F010F5F1F4F46
:10489000882311F40C9419370E944539F801F4CF9C
:1048A00080E50E94893A882329F00E94BB986B0119
:1048B0007C0103C0C12CD12C760183E50E94893A8A
:1048C000882361F00E94233A20E030E04AE754E474
:1048D0000F94DE2C0F942C326B017C010E94F67D2C
:1048E00080915B02811105C060E08DEB92E00E9437
:1048F000DF6F0E94A2998091441890914518A09171
:104900004618B0914718C80ED91EEA1EFB1E0F9418
:10491000D207DC01CB018C199D09AE09BF09B7FD97
:1049200002C00C94193780E00E94EECDF0CF0E94B7
:10493000F0E681110C94193780E090E0A0E2B1E438
:1049400089839A83AB83BC8380E090E0AEE3B3E4D9
:104950008D839E83AF83B88780E090E0A0EAB1E4C6
:1049600089879A87AB87BC8780E50E94893A88232C
:1049700019F00E94F33901C060E068A3BE016F5FC7
:104980007F4FCE0180960F94AA160C94193780E0C1
:104990000E945B600C94193783E50E94893A882352
:1049A00019F00E94033A01C080E0E82EF12CB6E035
:1049B000EB16F10470F0E4E7F3E084918F010F5FF0
:1049C0001F4F882311F40C9419370E944539F801C0
:1049D000F4CF823009F44CC028F4882371F0813080
:1049E00081F1CDC1843009F4BBC108F458C18530D0
:1049F00009F0C5C10E94625FC2C18091231988235A
:104A000099F080919505811103C061E373E002C0C4
:104A10006DE273E08CE493E00F94720D8AE00E94E3
:104A200045390E942C5DABC1E4E5F3E084918F0130
:104A30000F5F1F4F882309F4A2C10E944539F80176
:104A4000F5CF0F944217109201021092000280914C
:104A50008C1781110AC085E493E09093A110809394
:104A6000A0100E9473950C94193702E0E02EF12CEF
:104A7000809100029091010297FF0EC0ECE1F3E0FB
:104A800084918F010F5F1F4F882311F40C94193705
:104A90000E944539F801F4CF0097A1F480912C02CF
:104AA0008093F00419821A821B821C8218A219A218
:104AB0001AA21BA2BE016F5F7F4FCE0180960E949B
:104AC00054602CC08150982F917897FF03C091506B
:104AD0009E6F9F5FE92F87FD8F5F859580FF02C0E6
:104AE000E1E0E91BEE0FFF0BE80FF11D87FDFA95E2
:104AF000EE0FFF1FEE0FFF1FEC5DF64E8091630E71
:104B00009091640EA091650EB091660E80839183A2
:104B1000A283B3838091F00480932C022091000241
:104B200030910102243031050CF070C010922C023B
:104B3000C90101969093010280930002922F91780F
:104B400097FF03C091509E6F9F5F892F022F27FF11
:104B500002C001E0020F059500FF02C081E0891B41
:104B60004091630E5091640E6091650E7091660ED7
:104B70004CA75DA76EA77FA719821A821B821C8291
:104B800040E050E060EA70E448A359A36AA37BA325
:104B9000E4E00E028001112401591C4EF4E08F0262
:104BA000C00111249C0129583C4E69019E012F5FD0
:104BB0003F4FAE01405E5F4FB801C6010E946D5F7E
:104BC00019821A821B821C82BE016F5F7F4FCE0149
:104BD0008C960E945460F60180819181A281B381FC
:104BE00080935B0E90935C0EA0935D0EB0935E0E6F
:104BF000F80180819181A281B38180935F0E9093AF
:104C0000600EA093610EB093620E46C080E090E00B
:104C1000A0EAB0E48093630E9093640EA093650EB7
:104C2000B093660E0E9487940E94F67D8FEF9FEFEF
:104C30009093010280930002E8E0F3E084918F01F9
:104C40000F5F1F4F882321F00E944539F801F6CFEE
:104C500083E992E09A83898304E610E019A308A30C
:104C6000BE016F5F7F4FCE0180960E94D4C38AEB56
:104C700092E09A83898319A308A3BE016F5F7F4FD7
:104C8000CE0180960E94D4C381E0809323190E94B4
:104C90005B6081E00E94475F10928C1770C088E5CE
:104CA0000E94893A8823A1F00E94F3390FEF060F82
:104CB0000230A8F0E1EFF2E084918F010F5F1F4F07
:104CC000882311F40C9419370E944539F801F4CF68
:104CD00088E50E9445390F94B1210C94193789E574
:104CE0000E94893A8823A1F00E94F3391FEF160F22
:104CF0001230A8F0EAEDF2E084918F010F5F1F4FB0
:104D0000882311F40C9419370E944539F801F4CF27
:104D100089E50E9445390F94B1210C9419378AE531
:104D20000E94893A8823A9F00E94233A212F110F6B
:104D3000330B200F311D200F311D220F331F220F87
:104D4000331FF901EC5DF64E608371838283938398
:104D500016C08AE50E9445390F94B1210C94193789
:104D60008AE50E94893A8823A1F30E94233A60933E
:104D70008717709388178093891790938A17F1E0AB
:104D8000EF1AF10822E0E216F104C0F4609100028B
:104D90007091010277FD12C06530710514F064E076
:104DA00070E08BEC92E00F94590D64E070E086ECBB
:104DB00092E00F94590D8AE00E9445390E948D5867
:104DC0000C94193781E08093EF040C9419370E94FA
:104DD000F67DF6EA2F2EF2E03F2EA5E3CA2EA7E0DD
:104DE000DA2EE12CF12C00E010E018AED1018D910B
:104DF0001D010E94893A882309F451C00E94233A78
:104E00004B015C010330110559F0F701E150F24FFD
:104E100020813181428153810F94E2304B015C014A
:104E2000F701E55AF14F2081318142815381C5015B
:104E3000B4010F94E2302B013C012DEB37E346E83F
:104E400055EB0F94093387FD0AC02DEB37E346E895
:104E500055E3C301B2010F94792C181604F5033001
:104E6000110559F48092670E9092680EA092690E17
:104E7000B0926A0EB1E0B8AF12C0A3019201F60180
:104E800060817181828193810F94E330D6016D93AB
:104E90007D938D939C931397C8010E94D4940F5FC8
:104EA0001F4FB4E0CB0ED11CE4E0EE0EF11C043039
:104EB000110509F09BCFF8ADFF2309F47FCF0E94C5
:104EC000F0AF7CCF80913C02882311F40C94193709
:104ED00089E40E94893AF82E882321F00E94F33950
:104EE000062F01C000E08AE40E94893AE82E882358
:104EF00031F00E94F339162FF11004C00AC010E0FF
:104F0000FF20B1F0023010F40C94AF38EBE8F3E07E
:104F100003C01230D8F70CC084918F010F5F1F4F70
:104F2000882311F40C9419370E944539F801F4CF05
:104F30000E94953AFF2091F024E00202F001112432
:104F4000E958FC4E80819181A281B38180937F0ECC
:104F50009093800EA093810EB093820EEE2091F07C
:104F600034E01302F0011124E159FC4E808191815B
:104F7000A281B3818093830E9093840EA093850EBB
:104F8000B093860E80E50E94893A882319F00E942A
:104F9000143A03C080E50E945A3A86E40E94893A96
:104FA0008823D9F00E94233A6B017C0120E030E095
:104FB000A9010F940933181684F420E030E040E78B
:104FC00052E4C701B6010F94BF3160930E02709393
:104FD0000F0280931002909311020E9482D10C94D0
:104FE00019378091B5179091B6178237910509F45A
:104FF000D5C60CF0E9C08B34910509F42AC40CF035
:1050000075C08831910509F4D8C2E4F58231910563
:1050100009F4A5C6F4F497FF02C00C941937823046
:1050200091050CF4E0C1419711F00C94193760E040
:105030008BEE93E00E94DF6F5F988A989FB7F89499
:10504000809108018E7F809308019FBF12980C9475
:1050500019378531910509F495C23CF4449711F054
:105060000C941937E3E0F4E04AC28631910509F463
:105070008DC2479711F00C941937E091B317F09156
:10508000B4178EC28E31910509F4F4C2C4F48A318A
:10509000910509F4A5C20CF49BC28B31910509F46A
:1050A000ADC24C9711F00C94193740E060E080914C
:1050B000B3179091B4170E94A3AA0C9419378032A9
:1050C000910509F4F1C20CF43BC38A32910509F44D
:1050D00063C3C19711F00C941937F090EA0481E092
:1050E000F826F092EA04E6E8F4E096C388369105E3
:1050F00009F4CEC4F4F58235910509F427C634F5D8
:105100008D34910509F4AFC30CF4A7C38E34910517
:1051100009F4ADC38135910511F00C9419370E9443
:10512000B8780E94F67D0E9472D110924E191092AA
:105130004D1968EE73E080E090E00E9425A860E0E1
:1051400088E595E00E94DF6F0C941937843591054E
:1051500009F405C60CF4FEC58535910509F403C6AE
:105160008C35910511F00C9419370E946A590C94F2
:1051700019378D36910509F492C59CF48A3691054C
:1051800009F4ADC50CF483C58B36910509F4CCC583
:105190008C36910511F00C94193710929F020C94E3
:1051A00019378F36910509F4DDC40CF4C8C4803773
:1051B000910509F460C58137910511F00C941937F8
:1051C0000E94795A0C941937823E910511F40C947F
:1051D00019320CF07EC08E3B910509F464C5DCF5F4
:1051E0008837910509F4DCC6CCF48537910509F4BC
:1051F0002CC644F48337910511F00C941937ECE276
:10520000F6E0D2C58637910509F427C687379105A0
:1052100011F00C941937EBE1F7E05EC68C3891057C
:1052200009F431C55CF48937910511F00C941937F4
:105230001092801310927F130C94193781399105C5
:1052400009F4B4C68B39910511F00C9419370E94FA
:105250006B5C0C9419378D3C910511F40C943B3127
:10526000ACF4893C910509F45EC734F4883C91059F
:1052700009F413C70C9419378B3C910509F474C7D2
:105280008C3C910509F48DC70C941937833D910529
:1052900011F40C94C2318CF48E3C910511F00C94F5
:1052A0001937B6EACB2EB2E0DB2E15E8E12E15E079
:1052B000F12E00E010E00C94B0318C3D910511F41A
:1052C0000C94C5318D3D910511F40C94D2310C94A0
:1052D0001937853A41E0940711F40C944C320CF0E4
:1052E00044C08F32A1E09A0711F40C944632FCF4CA
:1052F0008C32E1E09E0711F40C941C324CF48232A3
:10530000914011F00C9419370E945BB70C94193737
:105310008D3231E0930711F40C9443328E32914078
:1053200011F00C9419370E9468B60C941937803923
:1053300051E0950711F40C9449324CF483369140B6
:1053400011F00C941937E9E5FDE20C94A0368A3986
:10535000E1E09E0709F493C4843A914011F00C9463
:1053600019370E941AB10C941937873F21E0920730
:1053700011F40C943233ECF4843F41E0940711F4BF
:105380000C942C333CF48C3A914011F40C944F3231
:105390000C941937853FB1E09B0711F40C942F331F
:1053A000863F914011F00C9419370E9427E40C9429
:1053B00019378438F3E09F0711F40C94B1353CF4AD
:1053C0008835924011F40C943C330C941937803A90
:1053D00043E0940709F4A7C1873E934011F40C946D
:1053E000B5360C941937A090B317B090B41780E578
:1053F0000E94893A882359F00E94BB986B017C0176
:1054000011E0672B682B692B31F410E004C010E029
:10541000C12CD12C760183E50E94893A8823F1F0D2
:105420000E94233A20E030E04AE754E40F94DE2C57
:105430000F942C326B017C01111112C0672B682B69
:10544000692B71F4A114B10459F0D5018C91882312
:1054500039F061E0C5010E94FF6F07C0112391F38D
:1054600060E088ED93E00E94DF6F83E090E090932E
:105470003B1880933A1881E08093A5070E94F67D3F
:105480000E94A299C114D104E104F104F1F08091C9
:10549000441890914518A0914618B0914718C80E2D
:1054A000D91EEA1EFB1E0F94D207DC01CB018C191A
:1054B0009D09AE09BF09B7FF1EC08091A5078823CB
:1054C000D1F080E00E94EECDEECF8091A507882339
:1054D00021F080E00E94EECDF8CF80919F13909153
:1054E000A01360E0029719F489EB93E002C08AEA06
:1054F00093E00E94DF6F1092A5070C9419378491F6
:105500008F010F5F1F4F882321F00E944539F8015A
:10551000F6CF10926F1610926E1640E050E0BA016E
:105520008AE194E10F946D028BE1EAE1F4E1DE019E
:10553000159601900D928A95E1F78091181490913B
:1055400019149C838B8387EC92E09A83898340E0D3
:1055500050E0BE016F5F7F4F85E694E00E9415C565
:10556000CE0101960E94C94FE4EFF3E084918F01D0
:105570000F5F1F4F882311F40C9419370E9445398F
:10558000F801F4CF0E94D5AD0C9419371092E913AD
:105590001092EA130C941937803209F41082319674
:1055A00080818111F9CF40E061E08091B317909143
:1055B000B4170E94A3AA0C9419378091EA13882388
:1055C00019F081E08093E9130E9481E80C94193767
:1055D0001092E9138FE993E10E94107D0C94193722
:1055E0008091EA13882311F40C94193783E50E9403
:1055F000893A81110C9425370C9419378091EA135C
:10560000882351F1E4E1F4E084918F010F5F1F4F93
:10561000882321F00E944539F801F6CF6091651684
:105620007091661680916716909168164AE00E9404
:105630004C398FE20E944539609161167091621673
:1056400080916316909164164AE00E944C398AE07A
:105650000E9445390C941937E6E2F4E084918F01F9
:105660000F5F1F4F882311F40C9419370E9445399E
:10567000F801F4CF8091EA13882311F40C941937C0
:1056800084EB95E10F942C0284EB95E10E94C347D3
:105690001092E8131092E7138091B3179091B4170A
:1056A0000E9499E70C9419378091E91381110E94A7
:1056B000F67D8091EA13882311F40C94193780E564
:1056C0000E94893A882319F00E94143A03C080E5A9
:1056D0000E945A3A182F482F61E08091B317909199
:1056E000B4170E94A3AA83E50E94893A882381F017
:1056F0000E94F339AB01BC014093651650936616C6
:10570000609367167093681684EB95E10F946D02B1
:105710008091EA13882319F081E08093E913111135
:105720000C94193751CF8091B3179091B41721E0A1
:105730002093E81340E060E00E94A3AA0C9419377C
:105740008FE993E10E94E37C68A379A38AA39BA3DA
:10575000BE016F5F7F4FCE0180960E94CB9860E0C4
:10576000CE0101960E94FF6FE2E8F1E384918F0180
:105770000F5F1F4F882321F00E944539F801F6CFB3
:10578000BE016F5F7F4F87E394E00F94720D8AE054
:105790000E9445390C94193783E50E94893A882381
:1057A00011F40C9419370E94033AE82E80E50E9408
:1057B000893A882341F00E94F3398B0177FF02C0B8
:1057C0000C94193702C00DE010E0902FE4E4F4E0EF
:1057D00088E28E0F2491921729F031968E13FACF1A
:1057E0000C943537E9E5FDE284918F010F5F1F4F7F
:1057F000882321F00E944539F801F6CFECE6F4E069
:1058000084918F010F5F1F4F882311F40C94193777
:105810000E944539F801F4CF84918F010F5F1F4F2B
:10582000882321F00E944539F801F6CFF11003C01A
:10583000E0E8F4E002C0EBE7F4E084918F010F5F51
:105840001F4F882311F40C9419370E944539F80131
:10585000F4CF0E9481E80C9419378FE993E10E94FC
:10586000107D0C9419370E947CC10C94193783E584
:105870000E94893A882359F00E94F3396E347105E9
:1058800031F48FE993E10F94A80D0C94193718A205
:1058900019A21AA21BA2E1EFF4E084918F010F5F1D
:1058A0001F4F882321F00E944539F801F6CFE8EE1A
:1058B000F4E084918F010F5F1F4F882321F00E9435
:1058C0004539F801F6CF6091AD137091AE1380E0C9
:1058D00090E04AE00E944C39EBEDF4E084918F01B6
:1058E0000F5F1F4F882321F00E944539F801F6CF42
:1058F0006091AF137091B01380E090E04AE00E9495
:105900004C39E0EDF4E084918F010F5F1F4F882345
:1059100021F00E944539F801F6CF6091AD137091E6
:10592000AE138091AF139091B013681B790B8091E7
:105930009F139091A013019721E030E0029710F09F
:1059400020E030E0621B730B80E090E04AE00E94B0
:105950004C398AE00E944539E8ECF4E084918F01EB
:105960000F5F1F4F882321F00E944539F801F6CFC1
:105970008091B1139091B213A091B313B091B4136D
:1059800088A399A3AAA3BBA3BE016F5F7F4FCE01DB
:1059900080960E94CB98EBEBF4E084918F010F5F2F
:1059A0001F4F811105C0FE0131967F018F0104C098
:1059B0000E944539F801F1CFD8018D918D018823DE
:1059C00019F00E944539F8CF8091B5139091B61324
:1059D000A091B713B091B81388A399A3AAA3BBA3AE
:1059E000BE016F5F7F4FCE0180960E94CB98EBEA9D
:1059F000F4E084918F010F5F1F4F882321F00E94F4
:105A00004539F801F6CFF70181917F01882319F01C
:105A10000E944539F8CF8AE00E944539E3EAF4E074
:105A200084918F010F5F1F4F882321F00E94453919
:105A3000F801F6CFE3E9F4E084918F010F5F1F4F87
:105A4000882321F00E944539F801F6CF20E030E0AC
:105A50004AE754E46091B9137091BA138091BB1373
:105A60009091BC130F94BF3142E00E94C999E1E9C3
:105A7000F4E084918F010F5F1F4F882321F00E9473
:105A80004539F801F6CF8AE00E9445390C94193760
:105A900088E690E00E94159581110C941937809149
:105AA000821783FF02C00C94193783E50E94893A5C
:105AB000882309F440C00E94233A0F942732709340
:105AC0004C1960934B1980E00E946D780E94233A34
:105AD00020E030E04AEA52E40F94792C18163CF0AA
