:100000000C942C1F0C945D1F0C945D1F0C945D1FB1
:100010000C945D1F0C945D1F0C945D1F0C945D1F70
:100020000C945D1F0C945D1F0C945D1F0C945D1F60
:100030000C945D1F0D94E5080C945D1F0C945D1FDE
:100040000C945D1F0C945E810C945D1F0C945D1FDD
:100050000C945D1F0C945D1F0C9464790D94CA0A76
:100060000C945D1F0C94443D0C945D1F0C945D1F1B
:100070000C945D1F0C945D1F0C945D1F0C945D1F10
:100080000C945D1F0C945D1F0C945D1F0C945D1F00
:100090000C945D1F0C945D1F0C945D1F0C945D1FF0
:1000A0000C945D1F0C945D1F0C945D1F0C945D1FE0
:1000B0000C945D1F0C945D1F0C945D1F0C945D1FD0
:1000C0000C945D1F0C945D1F0C945D1F0C945D1FC0
:1000D0000C945D1F0C945D1F0C945D1F0C945D1FB0
:1000E0000C945D1FCB6ED46EDE6EE76EF06E0B6F00
:1000F000186F216FF96E026F0BA543A545A552A598
:1001000058A55BA563A51B01FD001701E7000B01C6
:100110002501DB00D9001501DF00D7000501CD0066
:10012000E9002501D500E300F500F3000D01090108
:100130001D010701CF00FF00D1001901ED001F01D3
:1001400011010F01EB00CF000101F100F700084A97
:10015000D73B3BCE016E84BCBFFDC12F3D6C7431DB
:100160009ABD56833DDA3D00C77F11BED9E4BB4C32
:100170003E916BAAAABE000000803F05A84CCDB2FC
:10018000D44EB93836A9020C50B9918688083CA6DD
:10019000AAAA2ABE000000803F000D942B080D94EF
:1001A0007D0A0D94160A0D9455260D9435080D946C
:1001B00021080D9413080D940F080D94C7130D9486
:1001C0001D080D94C4290D9439080D9470010D94E7
:1001D000FE070D942F080D94550A0D94280A0D94CE
:1001E000490C0D94690A0D94E6090D943D080D948F
:1001F000730A0D946F010D948A080D940B080D94E9
:100200000E0A0D945F0A0D946E070D9427080D9445
:10021000040A0D94F0090D9404080D94EB090D9453
:100220004B0A0D943C0A0D9401160D9419080D9477
:10023000FA070D941E0A0D9408080D94FA090D94FE
:10024000320A0D948C080D94150D0D9442080D94EE
:10025000C2070D9468084E414E494E495459494EC3
:1002600046CDCCCC3D0AD7233C17B7D13877CC2B21
:10027000329595E6241FB14F0A000020410000C8C6
:100280004200401C4620BCBE4CCA1B0E5AAEC59D47
:1002900074434F4D4D554E49434154494F4E0044D0
:1002A000525952554E004552524F525300494E46F4
:1002B0004F004543484F0047322F47332062616467
:1002C00020706172616D65746572730A00536C65AC
:1002D00065702E2E2E00206F6620004D424C204768
:1002E000323920706F696E74200059206F75742048
:1002F0006F662072616E67652028312D32292E0AC3
:100300000058206F7574206F662072616E676520DB
:1003100028312D32292E0A004D6573682070726FC6
:1003200062696E6720646F6E652E0A005374617295
:1003300074206D6573682070726F62696E672077D4
:10034000697468202247323920533122206669724D
:1003500073742E0A0047323920533200537461748B
:10036000653A20004D65736820626564206C65768F
:10037000656C696E6720686173206E6F20646174BC
:10038000612E0A0053206F7574206F662072616EB3
:1003900067652028302D35292E0A004D65736820A9
:1003A000706F696E742063616E6E6F742062652079
:1003B0007265736F6C7665640A00526573756D695A
:1003C0006E67207072696E74004A756C69612032C4
:1003D00030313820496E7465726D65646961746589
:1003E0002072656164792E00436C69636B20746FC1
:1003F00020726573756D652E2E2E004E6F206D6F09
:1004000076652E00456E642066696C65206C6973A4
:10041000740A00426567696E2066696C65206C69C4
:1004200073740A005344207072696E74696E672099
:100430006279746520004E6F742053442070726995
:100440006E74696E670A005072696E742074696D0B
:10045000653A2000000136372603FF3C3D38FF0F88
:100460002E303EFF13FF0C080907FFFF1A1C18FF70
:10047000FF08440AFF43FFFFFFFFFFFF50726F7446
:1004800065637465642050696E0A006F6E2E0A0001
:100490006F66662E0A004732362044656275672013
:1004A000006D0046696C616D656E742075736564DE
:1004B0003A200053746174733A20002C204C6F6E04
:1004C00067657374206A6F623A2000546F74616CC0
:1004D0002074696D653A200053746174733A20008A
:1004E0002C204661696C65643A20002C2046696EB8
:1004F00069736865643A20005072696E74733A20BB
:100500000053746174733A200045256920257300F7
:100510004A756C6961203230313820496E746572D9
:100520006D6564696174652072656164792E00B2DD
:1005300002AD02A6029F0291026F66660044454228
:1005400055473A004B494C4C45442E2000426564C7
:1005500020646F6E652E0020573A00426564204883
:10056000656174696E672E007A5F6D61783A20006C
:10057000795F6D61783A2000785F6D696E3A20008E
:100580005265706F7274696E6720656E6473746F04
:1005900070207374617475730A0053657474696EA6
:1005A000672054726176656C20416363656C657287
:1005B0006174696F6E3A200053657474696E6720C8
:1005C0005265747261637420416363656C65726126
:1005D00074696F6E3A200053657474696E672050B9
:1005E00072696E7420416363656C65726174696FD2
:1005F0006E3A200053657474696E67205072696E9C
:100600007420616E642054726176656C204163636E
:10061000656C65726174696F6E3A200020643A00FF
:1006200020693A0020703A0043290A0061626C6533
:100630006420286D696E2074656D702000436F6CB6
:10064000642065787472756465732061726520003A
:1006500023646566696E65202044454641554C54C7
:100660005F4B64200023646566696E652020444505
:100670004641554C545F4B69200023646566696EA2
:1006800065202044454641554C545F4B7020005036
:100690004944204175746F74756E652066696E6992
:1006A00073686564212050757420746865206C61DE
:1006B0007374204B702C204B6920616E64204B6456
:1006C00020636F6E7374616E74732066726F6D2039
:1006D00062656C6F7720696E746F20436F6E666918
:1006E0006775726174696F6E2E680A005049442004
:1006F0004175746F74756E65206661696C656421FF
:100700002074696D656F75740A00544845524D41F7
:100710004C2052554E4157415900546865726D61E5
:100720006C2052756E617761790048656174696EFD
:1007300067206661696C65640048656174696E670D
:10074000206661696C656400504944204175746F8E
:1007500074756E65206661696C6564212054656DF1
:10076000706572617475726520746F6F2068696757
:10077000680A00204B643A2000204B693A20002090
:100780004B703A20000A20436C61737369632050F8
:100790004944200A002054753A2000204B753A2025
:1007A00000206D61783A2000206D696E3A200020AB
:1007B000643A200020626961733A20004265642037
:1007C0004C6576656C696E6720004661696C65648E
:1007D00020746F20656E61626C6520426564204CF8
:1007E0006576656C696E670A004D657368204265C1
:1007F00064204C6576656C20646174613A0A004D32
:1008000065736820706F696E742063616E6E6F74BB
:10081000206265207265736F6C7665640A004D34E2
:10082000323120696E636F72726563742070617219
:10083000616D657465722075736167650A004F6646
:100840006673657473206170706C696564004572CD
:10085000723A20546F6F206661722100546F6F20CE
:100860006661722066726F6D207265666572656E74
:10087000636520706F696E740A004175746F0020A3
:10088000452F443D00416476616E6365204B3D0019
:100890004E6F2063617365206C696768740A00415C
:1008A00063746976652045787472756465723A2060
:1008B00000556E6B6E6F776E20636F6D6D616E6449
:1008C0003A2022004B494C4C45442E2000202D203C
:1008D000496E76616C6964206578747275646572BE
:1008E000206E756D62657220210A00000000000014
:1008F00000000000000000000000000000000000F8
:1009000000000000000000000000000000000000E7
:1009100000000000000000000000000000000000D7
:10092000001F0FC0000000000000000000000000D9
:10093000007F87F0000000000000000000000000C1
:10094000007FC7F800000000000000000000000069
:1009500000FFE3FC000000000000000000000000B9
:1009600001FFF1FC0000000000000000000000009A
:1009700003FFF0FE00000000000000000000000087
:1009800007FFF87F000000000000000000000000EA
:1009900007FFFC7F80000000000000000000000056
:1009A0000FE1FE3F8000000000000000000000009A
:1009B0001F807F1FC000000000000000000000003A
:1009C0003F9E3F0FE000000000000000000000001C
:1009D0003F1F3F8FF00000000000000000000000FB
:1009E0007E3F1FC7F800000000000000000000006C
:1009F000FC7F8FE3F8000000000000000000000111
:100A0000F8FF87F1FC000000000000000000000378
:100A1000F9FF07F0FE0000000000000000000003E6
:100A2000F00603F8FF0000000000000000000007CF
:100A3000F00001FC7F800000000000000000000FBB
:100A4000F8FE00FE20000000000000000000001F73
:100A5000F87F007E00000000000000000000001F82
:100A6000FC7F807E3F800000000000000000003F0F
:100A7000FE3F803C7F000000000000000000007F7F
:100A8000FF1FC018E000000000000000000000FE92
:100A90007F0FE001C1F8000000000000000000FC32
:100AA0003F8FF00381FC000000000000000001F80F
:100AB0001FC7F80010FE000000000000000003F156
:100AC0008FE3F80038FF000000000000000007E39B
:100AD000C7E1F0003C7F00000000000000000FE7CD
:100AE000E7F000007E3F80000000000000000FC71C
:100AF000F3F07C007E1FC0000000000000001F8F8C
:100B0000F1E3FC007F0FE0000000000000003F1F49
:100B1000F0C700003F8FF0000000000000007F3FA2
:100B2000E04E01C01FC7F0000000000000007E3F43
:100B3000E01E1FE00FE3F8000000000000007C7FD3
:100B4000C0100FE007E1FC0000000000000038F0DA
:100B50000000C7F007F1FE0000000000000039802F
:100B60000001C3F803F8FF000000000000001307B5
:100B7000F003E3FC01FC7F0000000000000003071D
:100B8000F803F1FE00FC3F8000000000000000635D
:100B9000F803F8FE007E1FC0000000000000007196
:100BA000FC01F87F007F1FE000000000000000F063
:100BB000FE00FC7F803F8FE000000000000001F895
:100BC0007F007E3FC01FC7F000000000000001FC56
:100BD0007F807F1FC00FC3F800000000000000FEF0
:100BE0003F803F8FE007E3FC000000000000007F33
:100BF0001FC01F87F007F1FC000000000000003F4D
:100C00000FE00007F80003FE000000000000003FB6
:100C100087F00007FC0007FF000000000000001F35
:100C2000C7FE0FFFFFFFFFFF000000000000000FE6
:100C3000E3FFFFFFFFFFFFFF0000000000000007D1
:100C4000F1FFFFFFFFFFFFFF0000000000000003B7
:100C5000F0FFFFFFFFFFFFFF0000000000000003A8
:100C6000F83FFFFFFFFFFFFC000000000000000155
:100C7000FC00000000000000000000000000000078
:100C8000FF800000000000000000000000000000E5
:100C90007FFFFFFFFFFFFFF00000000000000000EB
:100CA0003FFFFFFFFFFFFFF000000000000000001B
:100CB0001FFFFFFFFFFFFFE000000000000000003B
:100CC0000FFFFFFFFFFFFFC000000000000000005B
:100CD0000000000000000000000000000000000014
:100CE00000000000000000000000000A00507269CF
:100CF0006E7420526573746F726520446562756707
:100D000020456E640A007072696E745F6A6F625F7C
:100D1000656C61707365643A20007364706F733A38
:100D2000200073645F66696C656E616D653A2000D2
:100D30003E2000636F6D6D616E64735F696E5F71FD
:100D4000756575653A2000636D645F7175657565DD
:100D50005F696E6465785F723A20006261627973E0
:100D600074657070696E673A200020666164653A48
:100D700020006C6576656C696E673A20007461725C
:100D80006765745F74656D70657261747572655FB7
:100D90006265643A20003A200066616E53706565B2
:100DA0006473003A20007461726765745F74656DE6
:100DB00070657261747572650066656564726174F0
:100DC0006520253A20003A200063757272656E74C2
:100DD0005F706F736974696F6E00494E56414C497C
:100DE0004420444154410A002076616C69645F6686
:100DF0006F6F743A0076616C69645F686561643A2C
:100E0000005072696E7420526573746F726520446D
:100E1000656275672053746172740A000A00494E56
:100E200056414C494420524553544F524520424963
:100E30004E004D3237004D3234004D3236205325AE
:100E40006C75004D3233202573004D323930205AF5
:100E50002573004D32323020532573004731205A1C
:100E60002573004731205925730047312046313220
:100E7000303020582573004739322045257300470C
:100E80003932204632303020453500473120463255
:100E90003030204535004739322045300047312079
:100EA0005A2573004D343230205331004732380018
:100EB0004D343230205330205A30004D31313720FC
:100EC00052657374617274696E67202573004D31C9
:100ED00030362050256920532569004D31303920A6
:100EE000532569004D31393020532569004C6F611D
:100EF000646564207072696E745F726573746F727A
:100F0000655F696E666F0A00496E6974206A6F6278
:100F1000207265636F7665727920696E666F2E2028
:100F200053697A653A20005072696E742052657375
:100F3000746F72652047636F64652066696C653AFB
:100F400020002020506C616E6E6572427566666589
:100F50007242797465733A20002046726565204DAF
:100F6000656D6F72793A2000436F6D70696C6564CE
:100F70003A2041756720313820323031380A00205C
:100F80007C20417574686F723A20467261636B749D
:100F9000616C20576F726B730A00323031372D311C
:100FA000322D32352031323A303000204C617374AA
:100FB00020557064617465643A2000312E312E38FA
:100FC0000A004D61726C696E0020536F6674776120
:100FD00072652052657365740A00205761746368F6
:100FE000646F672052657365740A002042726F77E0
:100FF0006E206F75742052657365740A0020457801
:101000007465726E616C2052657365740A00506F6E
:1010100077657255700A0073746172740A004261D8
:101020006279737465703A2000456E6473746F70F2
:101030007320256320256320256320256300205A23
:101040003A0020593A0020583A00656E6473746F74
:101050007073206869743A2000446F6E6520736174
:1010600076696E672066696C652E0A004D3239001C
:101070004D6573682056616C69646174696F6E2098
:1010800053746F707065642E00696E206D6F7665A5
:101090005F746F282920666565645F76616C75658D
:1010A00020666F722058593A004C656176696E6708
:1010B00020473236004732362048656174696E67D2
:1010C000204E6F7A7A6C652E004732362048656173
:1010D00074696E67204265642E00446F6E6520500F
:1010E00072696D696E6700446F6E65205072696D3C
:1010F000696E67004669786564204C656E67746840
:10110000205072696D652E00557365722D436F6EA8
:1011100074726F6C6C6564205072696D65002C2070
:1011200065793D0029202D3E202865783D002C2042
:1011300073793D0020436F6E6E656374696E67203E
:101140007769746820766572746963616C206C6974
:101150006E65202873783D002C2065793D0029209C
:101160002D3E202865783D002C2073793D002043DA
:101170006F6E6E656374696E672077697468206846
:101180006F72697A6F6E74616C206C696E6520286D
:1011900073783D004C656176696E67204732360092
:1011A0002C2079693D00202020446F696E67206300
:1011B0006972636C652061743A202878693D003F4C
:1011C00053706563696669656420582C5920636FA4
:1011D0006F7264696E617465206F7574206F66202C
:1011E000626F756E64732E0A003F28522965706520
:1011F00061742076616C7565206E6F7420706C610F
:10120000757369626C653B206D757374206265202F
:101210006174206C6561737420312E0A003F537035
:1012200065636966696564206E6F7A7A6C6520749F
:10123000656D7065726174757265206E6F74207073
:101240006C61757369626C652E0A003F537065634B
:1012500069666965642066696C616D656E7420738A
:10126000697A65206E6F7420706C61757369626C49
:10127000652E0A003F537065636966696564207076
:1012800072696D65206C656E677468206E6F74207E
:10129000706C61757369626C652E0A003F537065EE
:1012A000636966696564206E6F7A7A6C652073691C
:1012B0007A65206E6F7420706C61757369626C65FD
:1012C0002E0A003F53706563696669656420526544
:1012D0007472616374696F6E204D756C7469706CA3
:1012E000696572206E6F7420706C61757369626CD1
:1012F000652E0A003F52657472616374696F6E20D7
:101300004D756C7469706C696572206D75737420AD
:101310006265207370656369666965642E0A003FC3
:10132000537065636966696564206C6179657220D4
:10133000686569676874206E6F7420706C6175737E
:1013400069626C652E0A003F537065636966696562
:1013500064206265642074656D7065726174757275
:1013600065206E6F7420706C61757369626C652E98
:101370000A0047323620636F6D6D616E64207374AE
:1013800061727465642E2057616974696E672066A6
:101390006F72206865617465722873292E0A005087
:1013A0006C65617365207265736574005052494EB7
:1013B0005445522048414C544544005072696E7463
:1013C00065722068616C7465642E206B696C6C2892
:1013D000292063616C6C6564210A00000000000034
:1013E00000484300005243000048420000484200C9
:1013F00000A041000000005761726E696E673A20DC
:10140000486F6D696E672042756D7020446976691A
:10141000736F72203C20310A000202040000A040D9
:101420000000A0400000004000005243000048437C
:1014300000005243FF01017C3C3E5E2B3D3F2F5B91
:101440005D3B2C2A225C00486F6D696E67205859FD
:101450005A004732380047323800416476616E6383
:101460006564204C6576656C696E670051756963CB
:101470006B204C6576656C696E67004D61696E0026
:10148000496E697469616C697A6520454550524FAF
:101490004D00436F6E74726F6C00526573746F729F
:1014A00065206661696C7361666500496E6974697F
:1014B000616C697A6520454550524F4D004C6F6113
:1014C000642073657474696E67730053746F72651A
:1014D0002073657474696E67730046696C616D652D
:1014E0006E74004D6F74696F6E0054656D70657237
:1014F0006174757265004D61696E00507265686552
:1015000061742041425320636F6E660050726568BB
:1015100065617420504C4120636F6E6600504944F1
:101520002D44005049442D44005049442D49005059
:1015300049442D49005049442D50005049442D50F4
:10154000002008204661637400200820466163740F
:10155000002008204D6178002008204D617800208F
:1015600008204D6178002008204D696E0020082079
:101570004D696E002008204D696E004F6666004F71
:101580006E20004175746F74656D700046616E2049
:10159000737065656420320046616E207370656506
:1015A0006420320046616E207370656564203200ED
:1015B00046616E20737065656420310046616E205F
:1015C000737065656420310046616E2073706565D7
:1015D0006420310042656400426564004E6F7A7A8F
:1015E0006C65004E6F7A7A6C6500436F6E74726F33
:1015F0006C0053746F72652073657474696E6773E1
:10160000004265640042656400426564004E6F7A82
:101610007A6C65004E6F7A7A6C65004E6F7A7A6CE0
:10162000650046616E2073706565640046616E20DA
:1016300073706565640046616E2073706565640053
:1016400054656D706572617475726500473239203A
:1016500053310047323920533200436C69636B20A9
:10166000746F20426567696E004D343238005072E5
:10167000656865617420504C4100436F6F6C646F06
:10168000776E005072656865617420414253004373
:1016900068616E67652066696C616D656E74004493
:1016A000697361626C652073746570706572730034
:1016B0004D38340053657420686F6D65206F666621
:1016C00073657473004175746F20686F6D650047B2
:1016D0003238004D6F76652061786973004D61691D
:1016E0006E004D6F76652058004D6F76652059006D
:1016F0004D6F7665205A0045787472756465720086
:101700004D6F766520302E316D6D004D6F76652002
:10171000316D6D004D6F76652031306D6D004D6F10
:1017200076652061786973004578747275646572B6
:10173000004D6F7665205A004D6F76652059004D3B
:101740006F76652058004578747275646572004D37
:101750006F7665205A004D6F76652059004D6F7683
:1017600065205800507265706172650047312058DD
:101770003131302059313937205A30004731205823
:101780003131302059313937004731205A32300059
:101790004731204639303030004731205833352E1C
:1017A0003620593231205A30004731205833352EF7
:1017B0003620593231004731205A3230004731202B
:1017C00046393030300047312058313831205932D5
:1017D00031205A30004731205831383120593231C8
:1017E0000047312046393030300047312058313001
:1017F000302059313030205A353000436C69636BEA
:1018000020746F20426567696E00436172642072C4
:10181000656D6F766564004361726420696E7365FF
:101820007274656400205A3A0020423A0020436FE7
:10183000756E7420413A0020453A00205A3A002043
:10184000593A00583A003A004361703A00454D4514
:101850005247454E43595F50415253455200434110
:1018600053455F4C494748545F4252494748544E9C
:1018700045535300544F47474C455F4C49474854E4
:101880005300534F4654574152455F504F574552AE
:10189000004255494C445F50455243454E54004C1C
:1018A0004556454C494E475F44415441005A5F50AC
:1018B000524F4245004155544F4C4556454C0050FF
:1018C00052494E545F4A4F420050524F475245537F
:1018D00053004155544F5245504F52545F54454D5B
:1018E0005000564F4C554D455452494300454550C4
:1018F000524F4D0053455249414C5F584F4E5F582F
:101900004F4646004649524D574152455F4E414D64
:10191000453A4D61726C696E20312E312E38202887
:101920004769746875622920534F555243455F4398
:101930004F44455F55524C3A68747470733A2F2F78
:101940006769746875622E636F6D2F4D61726C6983
:101950006E4669726D776172652F4D61726C696E4A
:101960002050524F544F434F4C5F56455253494FAE
:101970004E3A312E30204D414348494E455F54592F
:1019800050453A4A756C6961203230313820496ED1
:101990007465726D6564696174652045585452556B
:1019A0004445525F434F554E543A312055554944B2
:1019B0003A63656465326132662D343161322D34AB
:1019C0003734382D396231322D633535633632661E
:1019D00033363766660A002F2F2000205A00205920
:1019E00000580020204D61783A2000205A002059EC
:1019F00000580020204D696E3A20004F6E20004FA5
:101A0000666600536F667420656E6473746F7073DE
:101A10003A20004D36303020486F74656E64207473
:101A20006F6F20636F6C6420746F206368616E67F2
:101A3000652066696C616D656E740A004865617445
:101A4000696E67206661696C6564004865617469E8
:101A50006E67206661696C65640048656174696ED3
:101A600067206661696C65640048656174696E67CA
:101A7000206661696C6564001000600350012C01F0
:101A800090012201D001180110020E017002040120
:101A9000E002FA006003F0000004E600B004DC009D
:101AA000A005D200B006C8000008BE00A009B4001E
:101AB000800BAA00D00DA00090109600C0138C00DF
:101AC00070178200901B780010206E00C024640004
:101AD000E02D500080353C00A03A2800A03D1400C5
:101AE000003F0000A03FECFF4572723A204D494E86
:101AF00054454D5020424544004572723A204D49AC
:101B00004E54454D50004D494E54454D5020747231
:101B100069676765726564004572723A204D415885
:101B200054454D5020424544004572723A204D4183
:101B30005854454D50004D415854454D50207472F5
:101B40006967676572656400202F002042403A0093
:101B500020403A0024F4D43050C38E20C2A2401753
:101B6000828B7011127A910D816CD90AA861E108FB
:101B7000C7586607615143061E4B5D05C145A70462
:101B80001A411104093D9803713931034036DB02D3
:101B900065339102D4305402802E1D02632CEE0175
:101BA000752AC501B028A001102781018F25640185
:101BB0002B244B01E0223401AC211F018D200D01AB
:101BC000801FFC00841EED00971DDF00B81CD200B2
:101BD000E61BC600201BBC00641AB200B219A800A4
:101BE0000A19A0006A189900D117910040178B00BC
:101BF000B516840031167E00B31579003A157300CE
:101C0000C7146F0058146A00EE136600881363004F
:101C100025135E00C7125B006C12570015125400AA
:101C2000C111510070114F0021114B00D610490015
:101C30008D1047004610440002104200C00F4000C3
:101C4000800F3E00420F3C00060F3B00CB0E3800D9
:101C5000930E37005C0E3500270E3400F30D320072
:101C6000C10D3100900D3000600D2E00320D2D00A1
:101C7000050D2C00D90C2B00AE0C2900850C290079
:101C80005C0C2700350C27000E0C2600E80B240006
:101C9000C40B2400A00B23007D0B23005A0B210052
:101CA000390B2100180B2000F80A1F00D90A1E006A
:101CB000BB0A1E009D0A1D00800A1D00630A1C004D
:101CC000470A1B002C0A1B00110A1A00F7091A0008
:101CD000DD091900C4091900AB09190092091700A0
:101CE0007B091800630917004C0916003609160015
:101CF000200916000A091500F5081500E00814006F
:101D0000CC081400B8081400A408140090081300AC
:101D10007D0812006B0813005808120046081200D4
:101D200034081100230811001208110001081100E5
:101D3000F0071000E0071000D0071000C0071000E7
:101D4000B0070F00A107100091070E0083070F00D6
:101D500074070F0065070E0057070E0049070E00B5
:101D60003B070D002E070E0020070D0013070D0086
:101D700006070D00F9060C00ED060D00E0060C004C
:101D8000D4060C00C8060C00BC060C00B0060C0003
:101D9000A4060B0099060C008D060B0082060B00B2
:101DA00077060B006C060B0061060A0057060B0055
:101DB0004C060A0042060A0038060A002E060A00EF
:101DC00024060A001A060A001006090007060A007F
:101DD000FD050900F4050900EB050900E20509000D
:101DE000D9050900D0050900C7050900BE0509008D
:101DF000B5050800AD050800A50509009C0508000B
:101E0000940508008C050800840508007C0508007E
:101E1000740508006C050700650508005D050700EE
:101E2000560508004E050700470507004005080055
:101E300038050700310507002A05070023050700BC
:101E40001C050600160507000F050700080506001B
:101E500002050700FB040600F5040700EE04060077
:101E6000E8040600E2040700DB040600D5040600CF
:101E7000CF040600C9040600C3040600BD04060022
:101E8000B7040600B1040500AC040600A604060071
:101E9000A00405009B0406009504050090040600BC
:101EA0008A04050085040500800406007A04050004
:101EB00075040500700405006B0405006604050048
:101EC000610405005C040500570405005204050088
:101ED0004D04050048040500430405003E040400C9
:101EE0003A04050035040500300404002C04050004
:101EF00027040400230405001E0404001A0404003F
:101F000016040500110404000D0404000904050072
:101F10000404040000040400FC030400F8030400AB
:101F2000F4030400F0030400EC030400E8030400DD
:101F3000E4030400E0030400DC030400D80304000D
:101F4000D4030400D0030400CC030400C80303003E
:101F5000C503030024F404D9201BC40C5C0E9804B0
:101F6000C4095F0265077101F405F900FB04B300C1
:101F700048048700C1036900580355000303450066
:101F8000BE023A008402310053022A0029022500D1
:101F900004022000E4011C00C8011900AF01170071
:101FA00098011400840113007101100061011000F8
:101FB00051010E0043010D0036010B002B010B00F7
:101FC00020010B00150109000C01090003010800A4
:101FD000FB000800F3000800EB000700E400060027
:101FE000DE000600D8000600D2000600CC00050086
:101FF000C7000500C2000500BD000400B9000400D0
:10200000B5000400B1000400AD000400A900040004
:10201000A5000300A20003009F0004009B00030032
:102020009800030095000200930003009000030055
:102030008D0002008B000300880002008600020071
:1020400084000300810002007F0002007D00020086
:102050007B00020079000200770001007600020098
:102060007400020072000100710002006F000200A3
:102070006D0001006C0002006A00010069000200AE
:1020800067000100660001006500010064000200B5
:102090006200010061000100600001005F000200B9
:1020A0005D0001005C0001005B0001005A000100BE
:1020B00059000100580001005700010056000100BE
:1020C00055000100540001005300000053000100BE
:1020D0005200010051000100500001004F000100BA
:1020E0004E0000004E0001004D0001004C000100B8
:1020F0004B0000004B0001004A00010049000100B4
:1021000048000000480001004700010046000000B0
:1021100046000100450000004500010044000100A8
:1021200043000000430001004200000042000100A3
:102130004100000041000100400001003F0000009C
:102140003F0001003E0000003E0001003D00000095
:102150003D0001003C0000003C0000003C0001008C
:102160003B0000003B0001003A0000003A00010083
:10217000390000003900010038000000380000007C
:102180003800010037000000370001003600000071
:102190003600000036000100350000003500000068
:1021A000350001003400000034000000340001005C
:1021B0003300000033000000330001003200000053
:1021C0003200000032000100310000003100000048
:1021D000310001003000000030000000300001003C
:1021E0002F0000002F0000002F0000002F00010032
:1021F0002E0000002E0000002E0001002D00000027
:102200002D0000002D0000002D0001002C0000001A
:102210002C0000002C0000002C0001002B0000000E
:102220002B0000002B0000002B0001002A00000002
:102230002A0000002A0000002A00010029000000F6
:1022400029000000290000002900000029000100E9
:1022500028000000280000002800000028000000DE
:1022600028000100270000002700000027000000D0
:1022700027000000270001002600000026000000C3
:1022800026000000260000002600010025000000B6
:1022900025000000250000002500000025000000AA
:1022A000250001002400000024000000240000009C
:1022B000240000002400010023000000230000008F
:1022C0002300000023000000230000002300000082
:1022D0002300010022000000220000002200000074
:1022E0002200000022000000220001002100000066
:1022F000210000002100000021000000210000005A
:10230000210000002100010020000000200000004A
:10231000200000002000000020000000200000003D
:1023200020000000200001001F0000001F0000002E
:102330001F0000001F0000001F0000001F00000021
:102340001F0001001E0000001E0000001E00000013
:102350001E0000004D383420582059205A204500D6
:102360006265640A002C2073797374656D20737440
:102370006F7070656421204865617465725F4944BF
:102380003A20005053553A2047656E6572696300E4
:1023900050726F746F636F6C3A20312E300042615F
:1023A00075643A20313135323030004D4B53203E88
:1023B0002076312E33004D657368204C6576656C50
:1023C000696E67004578747275646572733A20317E
:1023D00000687474703A2F2F6D61726C696E667745
:1023E0002E6F7267004A756C696120323031382077
:1023F000496E7465726D656469617465003230316F
:10240000372D31322D32352031323A303000312EF5
:10241000312E38004D61726C696E005072696E74B5
:10242000657220537461747300546865726D6973CA
:10243000746F727300426F61726420496E666F0040
:102440005072696E74657220496E666F004D6169E5
:102450006E0020204E6F7A7A6C653A200020004290
:1024600061636B004D696E696D756D2054656D70AB
:10247000206973203137302E0048656174696E67BA
:10248000206661696C6564004578747275646520C6
:102490006D6F726500526573756D65207072696E3F
:1024A0007400524553554D45204F5054494F4E539B
:1024B0003A0020204E6F7A7A6C653A20006368619A
:1024C0006E6765006F66207468652066696C616D73
:1024D000656E74005761697420666F722073746151
:1024E0007274005052494E54205041555345440097
:1024F00020204E6F7A7A6C653A2000200066696C65
:10250000616D656E7420756E6C6F616400576169F2
:102510007420666F72005052494E542050415553FA
:1025200045440020204E6F7A7A6C653A20002000E6
:10253000506C6561736520776169742E2E2E00489A
:10254000656174696E67206E6F7A7A6C65005052AF
:10255000494E54205041555345440020204E6F7A37
:102560007A6C653A2000200068656174206E6F7A8D
:102570007A6C652E00507265737320627574746F87
:102580006E20746F005052494E54205041555345AF
:10259000440020204E6F7A7A6C653A2000746F20D8
:1025A000636F6E74696E75652E2E2E00616E6420E9
:1025B000707265737320627574746F6E00496E7308
:1025C0006572742066696C616D656E740050524965
:1025D0004E54205041555345440020204E6F7A7A86
:1025E0006C653A2000200066696C616D656E742030
:1025F0006C6F6164005761697420666F720050529D
:10260000494E54205041555345440020204E6F7A86
:102610007A6C653A2000200066696C616D656E74A5
:102620002065787472756465005761697420666FFF
:1026300072005052494E5420504155534544007445
:102640006F20726573756D65005761697420666FE0
:1026500072207072696E74005052494E542050417D
:10266000555345440025753A2530327500253032E2
:10267000753A253032750025756420253032753A5B
:1026800025303275005A005900580009200000001A
:10269000000000000000000000007FFFE0000000DC
:1026A0000000000000000000007000E000000000DA
:1026B000000000000000000061F860000000000061
:1026C0000000000000000041F820000000000000B1
:1026D00000000000000040F02000000000000000AA
:1026E000000000000040602000000000000000002A
:1026F000000000005801A07F8000000000000000E2
:102700004104005C63A0FFC0000000000000002046
:1027100082005EF7A0FFC0000000000000002082E1
:10272000005EF7A0FFC000000000000000410400B0
:102730005C63A07F80000000000000008208005859
:1027400001A07F8000000000000001041000406034
:1027500020FFC00000000000000104100040F02035
:10276000FFC00000000000000082080041F820FFC8
:10277000C00000000000000041040061F8603F005C
:10278000000000000000000000007000E01E0000DB
:10279000000000000001FFFF807FFFE00C00000050
:1027A0000000000001FFFF800000000000000000AA
:1027B000000000000000007FFFE0000000000000BB
:1027C0000000000000007000E000000000000000B9
:1027D0000000000000630C6000000000000000002A
:1027E00000000000470E2000000000000000000074
:1027F0000000004F0F20000000000000000000005B
:1028000000005F0FA00000000000000000000000BA
:10281000005E07A07F80000000000000004104006F
:10282000406020FFC0000000000000002082004047
:10283000F020FFC00000000000000020820040F0F7
:1028400020FFC000000000000000410400406020A4
:102850007F80000000000000008208005E07A07F6B
:1028600080000000000000010410005F0FA0FFC006
:10287000000000000000010410004F0F20FFC00006
:10288000000000000000820800470E20FFC000008A
:102890000000000000410400630C603F00000000E5
:1028A000000000000000007000E01E0000000000BA
:1028B000000001FFFF807FFFE00C0000000000002F
:1028C0000001FFFF8000000000060900FE0000007C
:1028D000000001090008FE0000050808060000408D
:1028E000F0C88888987810050808060000C0F888A5
:1028F00088888888F80505050600012030F8302012
:102900000508080600002070F820202020E00509B6
:10291000090600FF2070A8A8B8888870200509095A
:102920000600FFE080C0B0A8283028280509090665
:1029300000FFF8A88888888888A8F8050A0A060091
:10294000FE205050505088A8A8887003030306004A
:102950000340A04020496E76616C696420657874FC
:102960007275646572200000000000000000000025
:102970000000000000524300004843000052432082
:102980006E6F7420656E74657265642E0A000A4D60
:102990006561737572656420706F696E74733A0A4D
:1029A000005A206F66667365743A20004E756D207C
:1029B000582C593A20322C320A006F6B004865615E
:1029C00074696E6720646F6E652E0020573A00456B
:1029D0002569202573004A756C69612032303138D1
:1029E00020496E7465726D656469617465207265F5
:1029F0006164792E004D3131332053004D3134352F
:102A000020533C696E6465783E206F7574206F6654
:102A10002072616E67652028302D31290A004A75C1
:102A20006C6961203230313820496E7465726D6591
:102A30006469617465204F66662E0000060900FE19
:102A40000701920321207FFF07FF07FF0000000618
:102A5000000001070706020080808080800080035C
:102A60000202060105A0A00507070600005050F865
:102A700050F850500507070600002078A07028F095
:102A800020050707060000C0C81020409818050759
:102A9000070600006090A040A890680203030601AA
:102AA00004C040800307070601002040808080406A
:102AB00020030707060100804020202040800505F4
:102AC0000506000120A870A82005050506000120C4
:102AD00020F820200203030602FFC0408005010108
:102AE000060003F8020202060200C0C00505050642
:102AF0000001081020408005070706000070888844
:102B00008888887003070706010040C040404040A5
:102B1000E0050707060000708808708080F8050748
:102B200007060000F81020100808F0050707060047
:102B30000010305090F81010050707060000F880CC
:102B4000F008088870050707060000708080F0888C
:102B50008870050707060000F808102020202005CF
:102B600007070600007088887088887005070706C8
:102B7000000070888878080870020505060200C009
:102B8000C000C0C00206060602FFC0C000C04080F0
:102B900004070706000010204080402010050303B2
:102BA000060002F800F80407070601008040201024
:102BB00020408005070706000070880810200020CC
:102BC00005070706000070880868A8A870050707B1
:102BD000060000708888F8888888050707060000C6
:102BE000F08888F08888F005070706000070888064
:102BF00080808870050707060000F088888888882C
:102C0000F0050707060000F88080F08080F80507CF
:102C100007060000F88080F0808080050707060026
:102C200000708880B88888700507070600008888CB
:102C300088F88888880107070602008080808080E5
:102C400080800507070600003810101010906005FE
:102C500007070600008890A0C0A090880507070617
:102C60000000808080808080F805070706000088CB
:102C7000D8A8888888880507070600008888C8A81B
:102C800098888805070706000070888888888870FB
:102C9000050707060000F08888F080808005070798
:102CA00006000070888888A890680507070600005D
:102CB000F08888F0A09088050707060000788080DB
:102CC000700808F0050707060000F82020202020E3
:102CD000200507070600008888888888887005070F
:102CE00007060000888888888850200507070600A6
:102CF000008888888888A85005070706000088880B
:102D000050205088880507070600008888885020D2
:102D10002020050707060000F80810204080F8036F
:102D20000707060100E08080808080E00505050639
:102D300000018040201008030707060100E0202062
:102D4000202020E00503030600042050880501012F
:102D5000060000F80202020602058040050505068D
:102D6000000070087888780507070600008080B0AA
:102D7000C88888F005050506000070808088700509
:102D80000707060000080868988888780505050682
:102D900000007088F880700507070600003048E0E2
:102DA000404040400506060600FF7088887808709D
:102DB0000507070600008080B0C8888888010707DB
:102DC000060200800080808080800308080601FFE2
:102DD000200020202020A04004070706000080805B
:102DE00090A0C0A090030707060100C040404040EB
:102DF00040E0050505060000D0A8A8A8A80505051F
:102E0000060000B0C888888805050506000070889F
:102E10008888700506060600FFF08888F080800527
:102E200006060600FF78888878080805050506006C
:102E300000B0C8808080050505060000708070081D
:102E4000F00407070600004040E040404030050520
:102E50000506000088888898680505050600008832
:102E6000888850200505050600008888A8A8500518
:102E7000050506000088502050880506060600FF5C
:102E8000888888780870050505060000F81020403D
:102E9000F80307070601002040408040402001075A
:102EA000070602008080808080808003070706017B
:102EB00000804040204040800502020600026890E9
:102EC000000000060000FFE0FFD11000FFFEFFD071
:102ED000FFE0FFC1FFD1E240A0C8A6A22FF8002367
:102EE0008127AC00AFFF64A5FF64FF64A4FFD0FF9F
:102EF000FE53442063617264206F6B0A006F70653B
:102F00006E526F6F74206661696C65640A00766F3B
:102F10006C756D652E696E6974206661696C656497
:102F20000A00534420696E6974206661696C0A0066
:102F30006175746F25692E67004D3234004D323350
:102F40002025730057726974696E6720746F20665C
:102F5000696C653A20006F70656E206661696C650A
:102F6000642C2046696C653A20006F70656E20669F
:102F700061696C65642C2046696C653A200046697D
:102F80006C652073656C65637465640A0020536921
:102F90007A653A200046696C65206F70656E6564DD
:102FA0003A20006F70656E206661696C65642C2044
:102FB00046696C653A20002066696C653A200064B9
:102FC0006F696E67006672657368004E6F772000E8
:102FD000454E4420535542524F5554494E450A00E0
:102FE0002220706F73002220706172656E743A2225
:102FF00000535542524F5554494E452043414C4C85
:10300000207461726765743A22004B494C4C454408
:103010002E2000747279696E6720746F2063616C72
:103020006C207375622D67636F64652066696C65DB
:1030300073207769746820746F6F206D616E7920DA
:103040006C6576656C732E204D4158206C657665F5
:103050006C2069733A004572726F723A0025697389
:103060000025696D20256973002569682025696D33
:103070002025697300256964202569682025696D0C
:1030800020256973002569792025696420256968F0
:103090002025696D20256973004C696E65204E7589
:1030A0006D626572206973206E6F74204C61737459
:1030B000204C696E65204E756D6265722B312C2037
:1030C0004C617374204C696E653A20004B494C4C3E
:1030D00045442E200053544F505045442E2000505C
:1030E00072696E7465722073746F707065642064A9
:1030F000756520746F206572726F72732E20466939
:103100007820746865206572726F7220616E642029
:10311000757365204D39393920746F207265737469
:103120006172742E202854656D70657261747572B9
:10313000652069732072657365742E205365742051
:10314000697420616674657220726573746172744B
:10315000696E67290A004E6F20436865636B73755B
:103160006D2077697468206C696E65206E756D627C
:1031700065722C204C617374204C696E653A200096
:10318000636865636B73756D206D69736D617463DE
:10319000682C204C617374204C696E653A20004D98
:1031A000313130004D333100534420726561642069
:1031B0006572726F720A00446F6E65207072696E7C
:1031C00074696E672066696C650A0043616E6E6F94
:1031D00074206F70656E207375626469722000657B
:1031E0006E7175657565696E672022006563686F2D
:1031F0003A005265636F766572792042494E2077B6
:1032000072697465206661696C65642E0A006F706E
:10321000656E206661696C65642C2046696C653A50
:10322000200057726974696E6720746F2066696C3C
:10323000653A2000544845524D414C2052554E416C
:1032400057415900546865726D616C2052756E610A
:10325000776179004573746570732F6D6D004573E8
:10326000746570732F6D6D005A73746570732F6D74
:103270006D005A73746570732F6D6D0059737465AA
:1032800070732F6D6D005973746570732F6D6D00C1
:103290005873746570732F6D6D0058737465707317
:1032A0002F6D6D004D6F74696F6E00537465707390
:1032B0002F6D6D004A65726B00416363656C6572CA
:1032C0006174696F6E0056656C6F63697479004351
:1032D0006F6E74726F6C0046696C2E204469612EAB
:1032E0000046696C2E204469612E004F6666004FCF
:1032F0006E20004520696E206D6D3300416476615B
:103300006E6365204B00416476616E6365204B00FF
:10331000416476616E6365204B00436F6E74726F1B
:103320006C0043616E6E6F7420656E7465722073FD
:1033300075626469723A2000022E2E004D61696E3A
:103340000000457874727564656420746F74616CF4
:103350003A2000256C642E25696D00004C6F6E6765
:10336000657374206A6F622074696D653A2000008D
:10337000546F74616C207072696E742074696D652D
:103380003A2000436F6D706C657465643A2000509C
:1033900072696E7420436F756E743A20004D6178C7
:1033A0002054656D703A20313530004D696E2054DF
:1033B000656D703A203500544265643A4D656E641F
:1033C000656C2D7061727473004D61782054656D69
:1033D000703A20323735004D696E2054656D703A71
:1033E00020350054303A204D656E64656C2D706157
:1033F00072747300526573656E643A20006F6B00DF
:1034000020746F6F206C6F6E6720657874727573AF
:10341000696F6E2070726576656E7465640A00204F
:10342000636F6C6420657874727573696F6E207059
:10343000726576656E7465640A00627573793A2008
:1034400070617573656420666F7220696E70757443
:103450000A00627573793A2070617573656420663D
:103460006F7220757365720A00627573793A207005
:10347000726F63657373696E670A004B494C4C4504
:10348000442E20004B494C4C2063617573656420C9
:103490006279204B494C4C20627574746F6E2F70AA
:1034A000696E0A004B494C4C45442E20004B494C58
:1034B0004C2063617573656420627920746F6F209E
:1034C0006D75636820696E616374697665207469DF
:1034D0006D65202D2063757272656E7420636F6D4B
:1034E0006D616E643A2000290A0020627974657368
:1034F0003B20637263200053657474696E677320A8
:1035000053746F726564202800202863616C6375B2
:103510006C6174656429210A0020213D2000454525
:1035200050524F4D20435243206D69736D61746357
:1035300068202D202873746F726564292000290A81
:10354000002062797465733B2063726320002073EE
:10355000746F7265642073657474696E677320722A
:103560006574726965766564202800204D61726C0F
:10357000696E3D563437290A0028454550524F4D53
:103580003D00454550524F4D2076657273696F6E10
:10359000206D69736D6174636820004261627973A4
:1035A000746570205A004D36303020423000436838
:1035B000616E67652066696C616D656E7400466C4E
:1035C0006F7700466C6F770046616E20737065659B
:1035D0006420320046616E2073706565642032009D
:1035E00046616E20737065656420320046616E200E
:1035F000737065656420310046616E207370656587
:103600006420310046616E2073706565642031006E
:1036100042656400426564004E6F7A7A6C65004EC4
:103620006F7A7A6C6500426564205A0042656420B6
:103630005A0053706565640053706565640053708B
:10364000656564004D61696E0050726568656174FE
:1036500020504C4120426564005072656865617479
:1036600020504C4120456E6400507265686561745D
:1036700020504C4100507265706172650050726557
:10368000686561742041425320456E640050726544
:103690006865617420414253204265640050726540
:1036A00068656174204142530050726570617265B3
:1036B000004C6576656C696E6720446F6E6521000D
:1036C0004D6F7665205A00473239205332004E65DF
:1036D000787420506F696E74002569202F2025753D
:1036E0000048617264636F64656420446566617557
:1036F0006C742053657474696E6773204C6F6164D9
:1037000065640A00E8030000E803000032000000DE
:103710001027000000004843000048430000A0417B
:10372000000034420000204300002043F0F77B44B7
:1037300000008C4320520020204D393030204B00B7
:103740004C696E65617220416476616E63653A0A08
:103750000020440020490020204D3330312050000B
:103760005049442073657474696E67733A0A002087
:10377000460020420020480020204D31343520539F
:10378000004D6174657269616C2068656174757063
:1037900020706172616D65746572733A0A00205A17
:1037A0000020590020204732392053332058002070
:1037B000204D3432302053004D65736820426564DB
:1037C000204C6576656C696E673A0A00205A0020C5
:1037D000590020204D323036205800486F6D65204A
:1037E0006F66667365743A0A00204500205A00200F
:1037F000590020580020420020540020204D323033
:1038000035205300416476616E6365643A20533C11
:103810006D696E5F66656564726174653E20543CD7
:103820006D696E5F74726176656C5F666565647202
:103830006174653E20423C6D696E5F7365676D65BE
:103840006E745F74696D655F75733E20583C6D6181
:10385000785F78795F6A65726B3E205A3C6D61785B
:103860005F7A5F6A65726B3E20453C6D61785F658B
:103870005F6A65726B3E0A002054002052002020CF
:103880004D323034205000416363656C6572617461
:10389000696F6E2028756E6974732F7332293A2010
:1038A000503C7072696E745F616363656C3E205258
:1038B0003C726574726163745F616363656C3E2022
:1038C000543C74726176656C5F616363656C3E0A3B
:1038D00000204500205A0020590020204D32303170
:1038E0002058004D6178696D756D20416363656C8A
:1038F00065726174696F6E2028756E6974732F73B9
:1039000032293A0A00204500205A00205900202080
:103910004D3230332058004D6178696D756D2066E9
:1039200065656472617465732028756E6974732FA0
:1039300073293A0A00204500205A0020590020200F
:103940004D393220580053746570732070657220B1
:10395000756E69743A0A0020204D323030204430B0
:103960000A0020204D323030204400204469736129
:10397000626C65640A0046696C616D656E742073E3
:10398000657474696E67733A0020204D31343920B4
:1039900043203B20556E69747320696E2043656C2B
:1039A000736975730A002020473231202020203BA4
:1039B00020556E69747320696E206D6D0A00526522
:1039C000636F766572792042494E2064656C657438
:1039D00065642E0A005265636F76657279204249EC
:1039E0004E2064656C657465206661696C65642E43
:1039F0000A006572726F722077726974696E67204F
:103A0000746F2066696C650A0046696C65206465A0
:103A10006C657465643A0044656C6574696F6E200A
:103A20006661696C65642C2046696C653A20006F9C
:103A300070656E206661696C65642C2046696C65F2
:103A40003A2000486F6D6520257325732573206625
:103A500069727374002066697273740A005A00599F
:103A6000005800486F6D6520005654726176206DD5
:103A7000696E005654726176206D696E00565472FC
:103A80006176206D696E00566D696E00566D696EC7
:103A900000566D696E00566D6178204500566D6167
:103AA00078204500566D6178204500566D6178207C
:103AB0005A00566D6178205A00566D6178205A0080
:103AC000566D6178205900566D6178205900566D09
:103AD0006178205900566D6178205800566D6178E4
:103AE000205800566D61782058004D6F74696F6ED4
:103AF00000416D6178204500416D617820450041AD
:103B00006D6178205A00416D6178205A00416D61E5
:103B100078205900416D6178205900416D6178200D
:103B20005800416D6178205800412D7472617665AE
:103B30006C00412D74726176656C00412D72657464
:103B40007261637400412D72657472616374004127
:103B50006363656C00416363656C004D6F74696FEE
:103B60006E0056652D6A65726B0056652D6A65722A
:103B70006B0056652D6A65726B00567A2D6A657208
:103B80006B00567A2D6A65726B0056792D6A6572E4
:103B90006B0056792D6A65726B0056792D6A6572D5
:103BA0006B0056782D6A65726B0056782D6A6572C7
:103BB0006B0056782D6A65726B004D6F74696F6E7D
:103BC000004572726F722077726974696E67207433
:103BD0006F20454550524F4D210A0000002100241E
:103BE0000027002A002D00300033000101000004EE
:103BF0000107010A0100002200250028002B002EE9
:103C0000003100340002010000050108010B010031
:103C10000020002300260029002C002F0032000085
:103C20000100000301060109010505050507050856
:103C3000080808020202020A0A080804040404012F
:103C40000101010101010103030303030303030451
:103C50000707070C0C0C0C0C0C0C0C0202020206E1
:103C6000060606060606060B0B0B0B0B0B0B0B01D1
:103C7000021020200808102040102040800201027D
:103C80000108040201010204081020408080402045
:103C90001008040201800402018040201008040280
:103CA00001080402010102040810204080010204FE
:103CB000081020408000000A0B02090C0D0E0807B6
:103CC00003040100000000000000000000000000EC
:103CD00000000000000000000000000000000000E4
:103CE00000121110000000000000000000000000A1
:103CF00000000000000000000000000220746F6F50
:103D0000206C6F6E6720657874727573696F6E20B2
:103D100070726576656E7465640A0020636F6C640A
:103D200020657874727573696F6E20707265766540
:103D30006E7465640A004661696C6564207265731F
:103D40007375726563742066696C653A20004D3343
:103D500031004D3234004D3233202573004F7065F1
:103D60006E696E6720726573737572656374206621
:103D7000696C653A20004A756C69612032303138CF
:103D800020496E7465726D65646961746520726541
:103D90006164792E00526573756D65207072696E6D
:103DA000740053746F70207072696E740050726981
:103DB0006E742070617573656400005072696E7472
:103DC0002061626F72746564004E6F2053442063FB
:103DD000617264005072696E742066726F6D205358
:103DE000440053746F70207072696E740052657372
:103DF000756D65207072696E740050617573652011
:103E00007072696E740041626F7574205072696ED1
:103E100074657200436F6E74726F6C00426564204B
:103E200043616C6962726174696F6E005072657093
:103E30006172650054756E650041646A7573742023
:103E40005A2D6178697300496E666F2073637265DD
:103E5000656E0000E100D30011241FBECFEFD1E258
:103E6000DEBFCDBF00E00CBF14E0A0E0B2E0E2E2B4
:103E7000F4E702E00BBF02C007900D92AA3EB10723
:103E8000D9F729E1AAEEB4E001C01D92A338B20728
:103E9000E1F71FE1CBE2DFE100E006C02197010975
:103EA000802FFE010F945B39CA32D10780E00807EA
:103EB000A9F70F949E1C0D94003A0C9400002F92C9
:103EC0003F924F925F926F927F928F929F92AF92AA
:103ED000BF92CF92DF92EF92FF920F931F93CF93F7
:103EE000DF93CDB7DEB7C958D1090FB6F894DEBF5E
:103EF0000FBECDBF81E090E09093501880934F1893
:103F00008091CC178D3411F40C94DD28843511F494
:103F10000C943839873411F00C947A398091CA178F
:103F20009091CB178B31910509F4EDC5B4F4843031
:103F300091053CF482309105CCF597FF30C00C948C
:103F400094398430910509F497C54A9711F00C947F
:103F500094390E94613F0C9494398A32910511F48E
:103F60000C944E284CF48C31910509F4FCC54D9706
:103F700009F4FEC50C9494398B35910511F40C9419
:103F8000CE278C35910511F40C94D3278A359105F1
:103F900011F00C9494391092EF040C9494398091A0
:103FA000380281110C949B390C9494392091380279
:103FB000222311F40C94943911E0029709F010E0D7
:103FC0000E94799C82E50E94033E882309F43EC149
:103FD0000E949D3D6B017C014090010E5090020EAD
:103FE0006090030E7090040E2091050E3091060E25
:103FF0004091070E5091080E28AB39AB4AAB5BAB32
:104000008091250E9091260EA091270EB091280E3A
:104010008CAB9DABAEABBFAB2091290E30912A0E7D
:1040200040912B0E50912C0E24962CAF3DAF4EAFED
:104030005FAF249720E030E0A901C701B6010F94DB
:104040000232882309F4FEC4A30192016CA97DA960
:104050008EA99FA90F94023281110FC028A939A9F6
:104060004AA95BA924966CAD7DAD8EAD9FAD24971A
:104070000F940232882309F4E5C420E030E0A9015E
:10408000C701B6010F940232881F8827881F1813B2
:104090000BC080E090E0A0E8BFE32C968CAF9DAF12
:1040A000AEAFBFAF2C970AC020E030E040E85FEB36
:1040B0002C962CAF3DAF4EAF5FAF2C97A301920172
:1040C0006CA97DA98EA99FA90F946B366CAF7DAFAB
:1040D0008EAF9FAF28A939A94AA95BA924966CADD8
:1040E0007DAD8EAD9FAD24970F946B3628966CAF47
:1040F0007DAF8EAF9FAF28972CAD3DAD4EAD5FAD80
:10410000CA01B9010F9467324B015C0128962CADAE
:104110003DAD4EAD5FAD2897CA01B9010F9467322E
:104120009B01AC01C501B4010F946C360F94D738D4
:1041300068AF79AF8AAF9BAF20E030E040E05FE34B
:104140000F9467324B015C01A7019601C701B601CC
:104150000F9467326B017C01A5019401C501B40184
:104160000F9467329B01AC01C701B6010F946B3607
:104170000F94D7389B01AC012C966CAD7DAD8EAD04
:104180009FAD2C970F9467324B015C012CA93DA980
:104190004EA95FA9C301B2010F946C3620E030E054
:1041A00040E05FE30F9467326B017C0128966CADB1
:1041B0007DAD8EAD9FAD2897905828AD39AD4AADF5
:1041C0005BAD0F9448379B01AC01C501B4010F945E
:1041D00067329B01AC01C701B6010F946C36A30195
:1041E00092010F946B366B017C0124962CAD3DAD92
:1041F0004EAD5FAD249768A979A98AA99BA90F94B0
:104200006C3620E030E040E05FE30F9467322B0132
:104210003C0128AD39AD4AAD5BAD6CAD7DAD8EAD29
:104220009FAD0F9448379B01AC01C501B4010F94B9
:1042300067329B01AC01C301B2010F946C3628A90F
:1042400039A94AA95BA90F946B3614C089E40E946E
:10425000033E882329F00E949D3D6B017C0103C031
:10426000C12CD12C76018AE40E94033E8823F9F008
:104270000E949D3D24966CAF7DAF8EAF9FAF24977B
:1042800020E030E0A901C701B6010F94023281118C
:104290001EC020E030E0A90124966CAD7DAD8EAD4E
:1042A0009FAD24970F940232811111C0CBC320E03F
:1042B00030E0A901C701B6010F940232882309F446
:1042C000C1C324961CAE1DAE1EAE1FAE2497D701EF
:1042D000C601B05888AB99ABAAABBBAB24962CAD4A
:1042E0003DAD4EAD5FAD249750582CAB3DAB4EABC2
:1042F0005FAB9C01AD01BC01CD010F9467324B0156
:104300005C012CA93DA94EA95FA9CA01B9010F946E
:1043100067329B01AC01C501B4010F946C360F9458
:10432000D7386C966CAF7DAF8EAF9FAF6C97809196
:10433000010E9091020EA091030EB091040E88AF71
:1043400099AFAAAFBBAFA7019601BC01CD010F94F5
:104350006C362C966CAF7DAF8EAF9FAF2C972091B3
:10436000050E3091060E4091070E5091080E2896CA
:104370002CAF3DAF4EAF5FAF289724962CAD3DAD2F
:104380004EAD5FAD249728966CAD7DAD8EAD9FADE3
:1043900028970F946C3660966CAF7DAF8EAF9FAF51
:1043A00060978091250E9091260EA091270EB091D6
:1043B000280E64968CAF9DAFAEAFBFAF64972C96BE
:1043C0002CAD3DAD4EAD5FAD2C97BC01CD010F9432
:1043D0006B366B017C012091290E30912A0E4091A1
:1043E0002B0E50912C0E68962CAF3DAF4EAF5FAFA9
:1043F000689760962CAD3DAD4EAD5FAD6097689609
:104400006CAD7DAD8EAD9FAD68970F946B364B0153
:104410005C018091090E90910A0EA0910B0EB09153
:104420000C0EA4968CAF9DAFAEAFBFAFA4979C010E
:10443000AD0160912D0E70912E0E80912F0E9091F6
:10444000300E0F946B366CAF7DAF8EAF9FAF209167
:10445000310E3091320E4091330E5091340EA096B1
:104460002CAF3DAF4EAF5FAFA09780910D0E9091F6
:104470000E0EA0910F0EB091100EA8968CAF9DAFAE
:10448000AEAFBFAFA897A701960168A979A98AA97D
:104490009BA90F9467322B013C01A50194016CA9E3
:1044A0007DA98EA99FA90F9467329B01AC01C3011E
:1044B000B2010F946C362B013C01A501940168A94F
:1044C00079A98AA99BA90F9467324B015C01A701C6
:1044D00096016CA97DA98EA99FA90F9467329B01B3
:1044E000AC01C501B4010F946B36A30192010F9486
:1044F000DF366B017C0120E030E0A9010F9402322D
:1045000087FF0AC02BED3FE049EC50E4C701B6013C
:104510000F946C366B017C01112351F02BED3FE0C1
:1045200049EC50E4C701B6010F946B366B017C0176
:1045300020E030E0A901C701B6010F9402328111D9
:1045400026C064962CAD3DAD4EAD5FAD649768ADB1
:1045500079AD8AAD9BAD0F940232811118C0689677
:104560002CAD3DAD4EAD5FAD689728966CAD7DAD81
:104570008EAD9FAD28970F940232811108C08BED4C
:10458000C82E8FE0D82E89ECE82E80E4F82E6C96A9
:104590002CAD3DAD4EAD5FAD6C97C701B6010F942C
:1045A00067329B01AC010F9467324B015C012CAD6B
:1045B0003DAD4EAD5FADCA01B9010F9467329B01AD
:1045C000AC01C501B4010F946C360F94D7384B0180
:1045D0005C012FE632E143E85AE30F94023287FD93
:1045E0002DC2C501B4010F94E1370F94B5371B01FB
:1045F000672B19F422242394312CB10180E090E040
:104600000F9406324B015C019B01AC01C701B6015E
:104610000F94483768AF79AF8AAF9BAFA50194017B
:104620006CAD7DAD8EAD9FAD0F9448376C966CAF81
:104630007DAF8EAF9FAF6C97A8962CAD3DAD4EADC4
:104640005FADA897A0966CAD7DAD8EAD9FADA097E8
:104650000F946B36A50194010F944837A0966CAF68
:104660007DAF8EAF9FAFA09728AD39AD4AAD5BADA2
:10467000CA01B9010F94673220E030E040E05FE307
:104680000F9467329B01AC0160E070E080E89FE32B
:104690000F946B3664966CAF7DAF8EAF9FAF64970F
:1046A000A4962CAD3DAD4EAD5FADA49729873A875A
:1046B0004B875C87A8968CAD9DADAEADBFADA8977E
:1046C0008D879E87AF87B88B609108027091090231
:1046D000072E000C880B990B0F94083220914B0287
:1046E00030914C0240914D0250914E020F9467322E
:1046F0002AE037ED43E25CE30F9467326CA77DA7B5
:104700008EA79FA70F94BE0A9B01AC0128533F4F71
:104710004F4F5F4F68962CAF3DAF4EAF5FAF68977E
:1047200048A859A86AA87BA841E050E026965FAF48
:104730004EAF269759E15CAF2696AEADBFAD26973A
:10474000A215B30509F43FC10E94CA7C0F94BE0AAA
:10475000DC01CB0168962CAD3DAD4EAD5FAD6897E9
:10476000821B930BA40BB50BB7FD11C00F94BE0AAF
:104770009B01AC0128533F4F4F4F5F4F68962CAFC2
:104780003DAF4EAF5FAF689780E00E9450C93CAD2F
:1047900031503CAF332309F441C064962CAD3DAD9C
:1047A0004EAD5FAD64976CA97DA98EA99FA90F94AA
:1047B00067326B017C0128AD39AD4AAD5BADB2010A
:1047C000C3010F946732A70196010F946C367B01E9
:1047D0008C0164962CAD3DAD4EAD5FAD6497B201DA
:1047E000C3010F9467324B015C0128AD39AD4AAD6E
:1047F0005BAD6CA97DA98EA99FA90F9467329B011F
:10480000AC01C501B4010F946B362B013C01C7010B
:10481000D8018CAB9DABAEABBFAB57C026964EADAF
:104820005FAD2697BA0180E090E00F94063228AD84
:1048300039AD4AAD5BAD0F9467324B015C010F940B
:1048400045376B017C01C501B4010F94CD384B0194
:104850005C01A701960168A979A98AA99BA90F946F
:1048600067322B013C01A501940124966CAD7DAD0E
:104870008EAD9FAD24970F9467329B01AC01C301AD
:10488000B2010F946C362B013C01A501940168A97B
:1048900079A98AA99BA90F9467324B015C01A701F2
:1048A000960124966CAD7DAD8EAD9FAD24970F948F
:1048B00067329B01AC01C501B4010F946B366CAB40
:1048C0007DAB8EAB9FAB59E15CAF9201A3012C96FF
:1048D0006CAD7DAD8EAD9FAD2C970F946C3669831A
:1048E0007A838B839C832CA93DA94EA95FA96096EE
:1048F0006CAD7DAD8EAD9FAD60970F946C366D83C2
:104900007E838F8398876C962CAD3DAD4EAD5FADA9
:104910006C9769857A858B859C850F946C36698741
:104920007A878B879C87A0962CAD3DAD4EAD5FAD51
:10493000A0976D857E858F8598890F946C366D87DD
:104940007E878F87988B80912802882321F0CE0163
:1049500001960E94C551E0907C1989819A81AB81B2
:10496000BC8188A399A3AAA3BBA38D819E81AF819B
:10497000B8858CA39DA3AEA3BFA389859A85AB857B
:10498000BC8588A799A7AAA7BBA7CE0180960E943D
:10499000E0B78E01045D1F4F9E01235F3F4FAE01C4
:1049A000485D5F4FBE016C5D7F4FCE0180960F94D6
:1049B000B81026968EAD9FAD2697019626969FAF8E
:1049C0008EAF2697B9CEE0907C198091250E9091FC
:1049D000260EA091270EB091280E88A399A3AAA312
:1049E000BBA38091290E90912A0EA0912B0EB0911D
:1049F0002C0E8CA39DA3AEA3BFA380912D0E9091EE
:104A00002E0EA0912F0EB091300E88A799A7AAA7BD
:104A1000BBA7CE0180960E94E0B78E01045D1F4FB8
:104A200021E33EE0AE01485D5F4FBE016C5D7F4F0C
:104A3000CE0180960F94B8100E94573F0E94E8B7AD
:104A40000C949439E6E5F0E384918F010F5F1F4FDA
:104A5000882321F00E94F3B7F801F6CFE7EBF2E0EC
:104A600084918F010F5F1F4F882311F40C949439A8
:104A70000E94F3B7F801F4CF80E50E94033E88233B
:104A800029F00E9401B76B017C0103C0C12CD12C1D
:104A9000760183E50E94033E882361F00E949D3DDC
:104AA00020E030E04AE754E40F9467320F94B537C2
:104AB0006B017C010E94208180915B02811105C005
:104AC00060E08DEC92E00E94516B0E94E8B780910B
:104AD000591890915A18A0915B18B0915C18C80EA3
:104AE000D91EEA1EFB1E0F94BE0ADC01CB018C19F5
:104AF0009D09AE09BF09B7FD02C00C94943980E04E
:104B00000E9450C9F0CF0E94D1E981110C949439D0
:104B100080E090E0A0E2B1E489839A83AB83BC8318
:104B200080E090E0AEE3B3E48D839E83AF83B887EB
:104B300080E090E0A0EAB1E489879A87AB87BC87E0
:104B400080E50E94033E882319F00E946D3D01C05C
:104B500060E068A3BE016F5F7F4FCE0180960F9427
:104B6000A71A0C94943980E00E94C89F0C94943941
:104B700083E50E94033E882319F00E947D3D01C019
:104B800080E0E82EF12CB6E0EB16F10470F0E4E8DA
:104B9000F3E084918F010F5F1F4F882311F40C9471
:104BA00094390E94F3B7F801F4CF823009F44CC075
:104BB00028F4882371F0813081F1CDC1843009F46B
:104BC000BBC108F458C1853009F0C5C10E94FD9DE4
:104BD000C2C180914E19882399F0809112058111EC
:104BE00003C061E373E002C06DE273E08CE593E023
:104BF0000F94310E8AE00E94F3B70F94D628ABC110
:104C0000E4E6F3E084918F010F5F1F4F882309F4DE
:104C1000A2C10E94F3B7F801F5CF0F943F1B109289
:104C200001021092000280915F0781110AC085E5A0
:104C300093E090934710809346100E9461B60C94C5
:104C4000943912E0E12EF12C809100029091010242
:104C500097FF0EC0ECE2F3E084918F010F5F1F4FCE
:104C6000882311F40C9494390E94F3B7F801F4CF1F
:104C70000097A1F4809128028093F00419821A828F
:104C80001B821C8218A219A21AA21BA2BE016F5F6E
:104C90007F4FCE0180960E94C19F2CC08150982FDB
:104CA000917897FF03C091509E6F9F5FE92F87FD1A
:104CB0008F5F859580FF02C0E1E0E91BEE0FFF0BDF
:104CC000E80FF11D87FDFA95EE0FFF1FEE0FFF1F96
:104CD000E15BF64E8091090E90910A0EA0910B0EA9
:104CE000B0910C0E80839183A283B3838091F004F2
:104CF0008093280220910002309101022430310576
:104D00000CF070C010922802C90101969093010224
:104D100080930002922F917897FF03C091509E6F6D
:104D20009F5F892F022F27FF02C001E0020F059528
:104D300000FF02C081E0891B4091090E50910A0ECC
:104D400060910B0E70910C0E4CA75DA76EA77FA70C
:104D500019821A821B821C8240E050E060EA70E4F3
:104D600048A359A36AA37BA3E4E00E0280011124A7
:104D700002571C4EF4E08F02C00111249C012A56F8
:104D80003C4E69019E012F5F3F4FAE01405E5F4F79
:104D9000B801C6010E94DD9E19821A821B821C8204
:104DA000BE016F5F7F4FCE018C960E94C19FF601BE
:104DB00080819181A281B3818093010E9093020E34
:104DC000A093030EB093040EF80180819181A2811B
:104DD000B3818093050E9093060EA093070EB093B7
:104DE000080E46C080E090E0A0EAB0E48093090E8F
:104DF00090930A0EA0930B0EB0930C0E0E94909EFF
:104E00000E9420818FEF9FEF909301028093000218
:104E1000E8E1F3E084918F010F5F1F4F882321F0B9
:104E20000E94F3B7F801F6CF83E992E09A83898371
:104E300004E610E019A308A3BE016F5F7F4FCE0107
:104E400080960E94E4BD8AEB92E09A83898319A33D
:104E500008A3BE016F5F7F4FCE0180960E94E4BD24
:104E600081E080934E190E94C89F81E00E94E29DDC
:104E700010925F0770C088E50E94033E8823A1F06E
:104E80000E946D3D0FEF060F0230A8F0E1E0F3E065
:104E900084918F010F5F1F4F882311F40C94943974
:104EA0000E94F3B7F801F4CF88E50E94F3B70F949E
:104EB00088290C94943989E50E94033E8823A1F047
:104EC0000E946D3D1FEF160F1230A8F0EAEEF2E0DF
:104ED00084918F010F5F1F4F882311F40C94943934
:104EE0000E94F3B7F801F4CF89E50E94F3B70F945D
:104EF00088290C9494398AE50E94033E8823A9F0FE
:104F00000E949D3D212F110F330B200F311D200FCB
:104F1000311D220F331F220F331FF901E15BF64EC3
:104F2000608371838283938316C08AE50E94F3B7FE
:104F30000F9488290C9494398AE50E94033E8823B3
:104F4000A1F30E949D3D6093B1187093B2188093B5
:104F5000B3189093B418F1E0EF1AF10822E0E216CA
:104F6000F104C0F4609100027091010277FD12C05B
:104F70006530710514F064E070E08BED92E00F9401
:104F8000180E64E070E086ED92E00F94180E8AE04F
:104F90000E94F3B70E9431750C94943981E080939C
:104FA000EF040C9494390E942081E6EA2E2EE2E070
:104FB0003E2EF8E2CF2EF7E0DF2EE12CF12C00E0C0
:104FC00010E018AAD1018D911D010E94033E882393
:104FD00009F451C00E949D3D4B015C010330110555
:104FE00059F0F701E656F24F208131814281538119
:104FF0000F946B364B015C01F701EF5FF14F20819D
:10500000318142815381C501B4010F946B362B016C
:105010003C012DEB37E346E855EB0F94923887FDC2
:105020000AC02DEB37E346E855E3C301B2010F9404
:105030000232181604F50330110559F480920D0E52
:1050400090920E0EA0920F0EB092100EB1E0B8AB7F
:1050500012C0A3019201F601608171818281938166
:105060000F946C36D6016D937D938D939C9313971B
:10507000C8010E9498A00F5F1F4FB4E0CB0ED11C57
:10508000E4E0EE0EF11C0430110509F09BCFF8A905
:10509000FF2309F47FCF0E9449B27CCF8091380270
:1050A000882311F40C94943989E40E94033EF82E6D
:1050B000882321F00E946D3D062F01C000E08AE4A4
:1050C0000E94033EE82E882331F00E946D3D162F8A
:1050D000F11004C00AC010E0FF20B1F0023010F45B
:1050E0000C94963CEBE9F3E003C01230D8F70CC007
:1050F00084918F010F5F1F4F882311F40C94943912
:105100000E94F3B7F801F4CF0E940F3EFF2091F008
:1051100024E00202F0011124EA56FC4E80819181C4
:10512000A281B3818093250E9093260EA093270E23
:10513000B093280EEE2091F034E01302F001112418
:10514000E257FC4E80819181A281B3818093290E28
:1051500090932A0EA0932B0EB0932C0E80E50E9404
:10516000033E882319F00E948E3D03C080E50E9413
:10517000D43D86E40E94033E8823D9F00E949D3DE1
:105180006B017C0120E030E0A9010F9492381816E1
:1051900084F420E030E040E752E4C701B6010F9408
:1051A000483760934B0270934C0280934D0290936A
:1051B0004E020E94F4CC0C9494398091CA179091BD
:1051C000CB178237910509F4C3C60CF0D6C08B34D7
:1051D000910509F408C40CF075C08831910509F4F3
:1051E000B6C2E4F58231910509F4AAC6F4F497FF3A
:1051F00002C00C949439823091050CF4BEC14197E1
:1052000011F00C94943960E08BEF93E00E94516BA5
:105210005F988A989FB7F894809108018E7F809359
:1052200008019FBF12980C9494398531910509F4B7
:1052300073C23CF4449711F00C949439E3E1F4E028
:1052400028C28631910509F46BC2479711F00C947E
:105250009439E091C817F091C9176CC28E3191054D
:1052600009F4D2C2C4F48A31910509F483C20CF462
:1052700079C28B31910509F48BC24C9711F00C94D3
:10528000943940E060E08091C8179091C9170E945E
:1052900008AD0C9494398032910509F4CFC20CF416
:1052A00019C38A32910509F441C3C19711F00C94D6
:1052B0009439F090EA0481E0F826F092EA04E6E9F5
:1052C000F4E074C38836910509F4ACC45CF582350A
:1052D000910509F42CC69CF48D34910509F48DC315
:1052E0000CF485C38E34910509F48BC38135910587
:1052F00011F00C9494390E94C59A0C949439843519
:10530000910509F41DC60CF416C68535910509F4FE
:105310001BC68C35910511F00C9494390E943A7695
:105320000C9494398D36910509F49DC59CF48A3608
:10533000910509F4B8C50CF48EC58B36910509F4B6
:10534000DEC58C36910511F00C94943910929F02B1
:105350000C9494398F36910509F4CEC40CF4B9C479
:105360008037910509F451C58137910511F00C94EE
:1053700094390E94539B0C949439823E910509F410
:10538000D4C70CF076C08E3B910509F470C5E4F5E6
:105390008837910509F453C6D4F48537910509F48B
:1053A000DDC54CF48337910511F00C9494390E94BB
:1053B000EA740C9494398637910509F4D8C5873777
:1053C000910511F00C949439E0E8F5E0D4C58C38DF
:1053D000910509F422C55CF48937910511F00C940C
:1053E000943910929F1310929E130C949439813922
:1053F000910509F42BC68B39910511F00C94943961
:105400000E947D9B0C9494398D3C910509F418C73A
:10541000ACF4893C910509F465C634F4883C9105E7
:1054200009F418C60C9494398B3C910509F47DC697
:105430008C3C910509F498C60C949439833D9105F0
:1054400009F46BC74CF48E3C910511F00C9494391F
:105450000E940E760C9494398C3D910509F461C735
:105460008D3D910511F00C9494390E9475730C9444
:105470009439853A41E0940711F40C945D36ECF5CB
:105480008F32A1E09A0711F40C948D32D4F48C324F
:10549000E1E09E0709F44CC74CF48232914011F0D0
:1054A0000C9494390E94AD720C9494398D3231E091
:1054B000930709F440C78E32914009F4DAC70C947F
:1054C0009439803951E0950711F40C94CF354CF4A0
:1054D0008336914011F00C949439E6E5F0E30C9496
:1054E0000F398A39E1E09E0709F493C4843A914068
:1054F00011F40C94D2350C949439873F21E0920733
:1055000011F40C941338ECF4843F41E0940711F447
:105510000C940D383CF48C3A914011F40C942E37D5
:105520000C949439853FB1E09B0711F40C9410382A
:10553000863F914011F00C9494390E9408E70C9436
:1055400094398438F3E09F0711F40C941D384CF41F
:105550008835924011F00C9494390E94686F0C9435
:105560009439803A43E0940709F4A7C1873E9340F9
:1055700011F40C9426390C949439A090C817B0906B
:10558000C91780E50E94033E882359F00E9401B7A5
:105590006B017C0111E0672B682B692B31F410E063
:1055A00004C010E0C12CD12C760183E50E94033E9B
:1055B0008823F1F00E949D3D20E030E04AE754E46A
:1055C0000F9467320F94B5376B017C01111112C033
:1055D000672B682B692B71F4A114B10459F0D50124
:1055E0008C91882339F061E0C5010E94716B07C07E
:1055F000112391F360E088EE93E00E94516B83E009
:1056000090E09093501880934F1881E080938F071B
:105610000E9420810E94E8B7C114D104E104F10482
:10562000F1F08091591890915A18A0915B18B0919F
:105630005C18C80ED91EEA1EFB1E0F94BE0ADC01C0
:10564000CB018C199D09AE09BF09B7FF1EC080911F
:105650008F078823D1F080E00E9450C9EECF80915F
:105660008F07882321F080E00E9450C9F8CF8091F5
:10567000BE139091BF1360E0029719F489EC93E098
:1056800002C08AEB93E00E94516B10928F070C943A
:10569000943984918F010F5F1F4F882321F00E945E
:1056A000F3B7F801F6CF10928E1610928D1640E0E7
:1056B00050E0BA0189E394E10F9459058BE1E9E3E5
:1056C000F4E1DE01159601900D928A95E1F7809143
:1056D0003714909138149C838B8387EC92E09A83E3
:1056E000898340E050E0BE016F5F7F4F85EA94E020
:1056F0000E941FBFCE0101960E945153E4E0F4E0E6
:1057000084918F010F5F1F4F882311F40C949439FB
:105710000E94F3B7F801F4CF0E9439B00C94943989
:1057200010920814109209140C949439803209F4E0
:105730001082319680818111F9CF40E061E0809143
:10574000C8179091C9170E9408AD0C9494398091A4
:105750000914882319F081E0809308140E9462EBF9
:105760000C949439109208148EEB93E10E943A80C5
:105770000C94943980910914882311F40C94943971
:1057800083E50E94033E81110C94A0390C94943956
:1057900080910914882351F1E4E2F4E084918F01AF
:1057A0000F5F1F4F882321F00E94F3B7F801F6CF57
:1057B0006091841670918516809186169091871657
:1057C0004AE00E949BBA8FE20E94F3B76091801674
:1057D0007091811680918216909183164AE00E9402
:1057E0009BBA8AE00E94F3B70C949439E6E3F4E0A4
:1057F00084918F010F5F1F4F882311F40C9494390B
:105800000E94F3B7F801F4CF80910914882311F4B2
:105810000C94943983ED95E10F94180583ED95E18F
:105820000E944B4B10920714109206148091C817D7
:105830009091C9170E947AEA0C94943980910814C7
:1058400081110E94208180910914882311F40C9405
:10585000943980E50E94033E882319F00E948E3D12
:1058600003C080E50E94D43D182F482F61E080914D
:10587000C8179091C9170E9408AD83E50E94033EA6
:10588000882381F00E946D3DAB01BC0140938416DA
:1058900050938516609386167093871683ED95E175
:1058A0000F94590580910914882319F081E08093A1
:1058B000081411110C94943951CF8091C81790910C
:1058C000C91721E02093071440E060E00E9408AD72
:1058D0000C9494398EEB93E10E940D8068A379A318
:1058E0008AA39BA3BE016F5F7F4FCE0180960E946B
:1058F00011B760E0CE0101960E94716BECEEF1E30E
:1059000084918F010F5F1F4F882321F00E94F3B70E
:10591000F801F6CFBE016F5F7F4F87E494E00F94EC
:10592000310E8AE00E94F3B70C94943983E50E940B
:10593000033E882311F40C9494390E947D3DE82E97
:1059400080E50E94033E882341F00E946D3D8B015B
:1059500077FF02C00C94943902C00DE010E0902F44
:10596000E4E5F4E088E28E0F2491921729F0319655
:105970008E13FACF0C94B039E6E5F0E384918F01F1
:105980000F5F1F4F882321F00E94F3B7F801F6CF75
:10599000ECE7F4E084918F010F5F1F4F882311F42F
:1059A0000C9494390E94F3B7F801F4CF84918F01DD
:1059B0000F5F1F4F882321F00E94F3B7F801F6CF45
:1059C000F11003C0E0E9F4E002C0EBE8F4E08491F8
:1059D0008F010F5F1F4F882311F40C9494390E949C
:1059E000F3B7F801F4CF0E9462EB0C9494398EEB7C
:1059F00093E10E943A800C9494390E948CBB0C94E1
:105A0000943983E50E94033E882359F00E946D3D3E
:105A10006E34710531F48EEB93E10F94670E0C94A4
:105A2000943918A219A21AA21BA2E1E0F5E0849110
:105A30008F010F5F1F4F882321F00E94F3B7F801F9
:105A4000F6CFE8EFF4E084918F010F5F1F4F8823BA
:105A500021F00E94F3B7F801F6CF6091CC1370915A
:105A6000CD1380E090E04AE00E949BBAEBEEF4E0B8
:105A700084918F010F5F1F4F882321F00E94F3B79D
:105A8000F801F6CF6091CE137091CF1380E090E0D3
:105A90004AE00E949BBAE0EEF4E084918F010F5F30
:105AA0001F4F882321F00E94F3B7F801F6CF6091D1
:105AB000CC137091CD138091CE139091CF13681BAE
:105AC000790B8091BE139091BF13019721E030E0D4
:105AD000029710F020E030E0621B730B80E090E052
