:100000000C940D200C943E200C943E200C943E2029
:100010000C943E200C943E200C943E200C943E20E8
:100020000C943E200C943E200C943E200C943E20D8
:100030000C943E200C94A1B70C943E200C943E20CE
:100040000C943E200D94C3030C943E200C943E204F
:100050000C943E200C943E200C9422870C9486B97C
:100060000C943E200C9432430C943E200C943E2081
:100070000C943E200C943E200C943E200C943E2088
:100080000C943E200C943E200C943E200C943E2078
:100090000C943E200C943E200C943E200C943E2068
:1000A0000C943E200C943E200C943E200C943E2058
:1000B0000C943E200C943E200C943E200C943E2048
:1000C0000C943E200C943E200C943E200C943E2038
:1000D0000C943E200C943E200C943E200C943E2028
:1000E0000C943E20905B765B795B7C5B7F5B8B5BEB
:1000F000825B9C5B855B885BDA5C125D145D215DD5
:10010000275D2A5D325D49B54CB53BB53FB545B578
:1001100083B550B554B55AB55EB562B568B56CB522
:1001200070B583B576B57AB57EB5A2B8A7B8ACB8C8
:10013000B6B8C0B839B9CAB8D2B8DAB8E4B8EEB807
:10014000F8B807B911B939B91BB925B92FB9084A97
:10015000D73B3BCE016E84BCBFFDC12F3D6C7431DB
:100160009ABD56833DDA3D00C77F11BED9E4BB4C32
:100170003E916BAAAABE000000803F05A84CCDB2FC
:10018000D44EB93836A9020C50B9918688083CA6DD
:10019000AAAA2ABE000000803F000D94A8090D9471
:1001A000431C0D944E1D0D941B0B0D94DE094E4106
:1001B0004E494E495459494E46CDCCCC3D0AD723E1
:1001C0003C17B7D13877CC2B329595E6241FB14F29
:1001D0000A000020410000C84200401C4620BCBE6E
:1001E0004CCA1B0E5AAEC59D74434F4D4D554E49DA
:1001F000434154494F4E0044525952554E004552C6
:10020000524F525300494E464F004543484F00530A
:100210006C6565702E2E2E00206F6620004D424CBE
:100220002047323920706F696E74200059206F7535
:1002300074206F662072616E67652028312D322927
:100240002E0A0058206F7574206F662072616E67E9
:10025000652028312D32292E0A004D6573682070E3
:10026000726F62696E6720646F6E652E0A00537448
:10027000617274206D6573682070726F62696E6759
:100280002077697468202247323920533122206652
:10029000697273742E0A0047323920533200537446
:1002A0006174653A20004D65736820626564206C56
:1002B0006576656C696E6720686173206E6F206477
:1002C0006174612E0A0053206F7574206F6620726E
:1002D000616E67652028302D35292E0A004D657323
:1002E0006820706F696E742063616E6E6F74206237
:1002F00065207265736F6C7665640A00436C696390
:100300006B20746F20726573756D652E2E2E004EF6
:100310006F206D6F76652E00456E642066696C6592
:10032000206C6973740A00426567696E2066696CA7
:1003300065206C6973740A00286E6F2066696C65AD
:1003400029005344207072696E74696E6720627967
:10035000746520004E6F74205344207072696E746F
:10036000696E670A0043757272656E742066696C07
:10037000653A20005072696E742074696D653A2088
:100380000046696C616D656E7420757365643A2012
:100390000053746174733A20002C204C6F6E6765B3
:1003A0007374206A6F623A2000546F74616C207419
:1003B000696D653A200053746174733A20002C20F3
:1003C0004661696C65643A20002C2046696E697349
:1003D0006865643A20005072696E74733A20005365
:1003E000746174733A20000A020502FE01F701E904
:1003F000016F66660044454255473A004B494C4CF4
:1004000045442E20004D31313320530020573A000F
:1004100042656420636F6F6C696E672E2E2E0042FA
:1004200065642068656174696E672E2E2E004A75BA
:100430006C696120496E7465726D6564696174658B
:10044000204F66662E00544845524D414C5F505235
:100450004F54454354494F4E004155544F52455017
:100460004F52545F53445F53544154555300454DCC
:10047000455247454E43595F504152534552004300
:100480004153455F4C494748545F4252494748549D
:100490004E45535300544F47474C455F4C494748DE
:1004A000545300534F4654574152455F504F5745A0
:1004B00052004255494C445F50455243454E54000A
:1004C0004C4556454C494E475F44415441005A5FA4
:1004D00050524F4245004155544F4C4556454C00F3
:1004E0005052494E545F4A4F420050524F47524576
:1004F0005353004155544F5245504F52545F544549
:100500004D5000564F4C554D4554524943004545BA
:1005100050524F4D0053455249414C5F584F4E5F2A
:10052000584F4646004649524D574152455F4E414D
:100530004D453A4D61726C696E204A313847425FD1
:100540003230303330335F313934305F48412053FB
:100550004F555243455F434F44455F55524C3A68AF
:10056000747470733A2F2F6769746875622E636FA5
:100570006D2F61686172736861632F46574A756CAD
:100580006961323031384D61726C696E2050524F62
:10059000544F434F4C5F56455253494F4E3A312EBC
:1005A00030204D414348494E455F545950453A4AE1
:1005B000756C696120496E7465726D6564696174FA
:1005C000652045585452554445525F434F554E544B
:1005D0003A3120555549443A326533303263313629
:1005E0002D613361632D346136662D626162632D46
:1005F0003734386532633566386461620A002F2FFC
:1006000020007A5F6D61783A2000795F6D61783AF9
:100610002000785F6D696E3A20005265706F7274C9
:10062000696E6720656E6473746F70207374617493
:1006300075730A004D31343520533C696E6465781A
:100640003E206F7574206F662072616E676520288A
:10065000302D31290A002054002052004163636587
:100660006C65726174696F6E3A2050003F4A206F6A
:100670007574206F662072616E67652028302E3099
:100680003120746F20302E33290A004F666673655F
:100690007473206170706C696564004572723A20F1
:1006A000546F6F206661722100546F6F2066617213
:1006B0002066726F6D207265666572656E63652077
:1006C000706F696E740A00205A002059005800208B
:1006D000204D61783A2000205A002059005800200F
:1006E000204D696E3A20004F6E20004F6666005321
:1006F0006F667420656E6473746F70733A200020A7
:10070000466C6F773A2000000136372603FFFFFF63
:10071000353C3D38FF0FFFFF312E303EFF13FFFF0A
:10072000FF28FF0C0809FFFFFF1A1C18FFFF2A080B
:10073000440AFF4320643A0020693A0020703A00DE
:10074000496E76616C69642065787472756465724F
:100750000A0043290A0061626C656420286D696E95
:100760002074656D702000436F6C6420657874722E
:100770007564657320617265200023646566696E27
:10078000652044454641554C545F4B64200023642A
:100790006566696E652044454641554C545F4B691A
:1007A000200023646566696E652044454641554CCA
:1007B000545F4B702000504944204175746F74752C
:1007C0006E652066696E6973686564212050757472
:1007D00020746865206C617374204B702C204B6909
:1007E00020616E64204B6420636F6E7374616E745D
:1007F000732066726F6D2062656C6F7720696E740E
:100800006F20436F6E66696775726174696F6E2ED3
:10081000680A00504944204175746F74756E6520F4
:100820006661696C6564212074696D656F75740A11
:1008300000453120544845524D414C2052554E41BF
:1008400057415900546865726D616C2052756E6134
:100850007761790045312048656174696E6720666B
:1008600061696C65640048656174696E67206661E2
:10087000696C656400504944204175746F74756EED
:1008800065206661696C6564212054656D706572D0
:10089000617475726520746F6F20686967680A00FB
:1008A000204B643A2000204B693A2000204B703ADC
:1008B00020000A20436C617373696320504944200F
:1008C0000A002054753A2000204B753A2000206D14
:1008D00061783A2000206D696E3A200020643A2049
:1008E0000020626961733A200050494420417574C8
:1008F0006F74756E65206661696C65642120426164
:1009000064206578747275646572206E756D6265B9
:10091000720A00504944204175746F74756E6520E9
:1009200073746172740A004E6F2063617365206C8A
:10093000696768740A00454550524F4D204F4B0A75
:1009400000416374697665204578747275646572D8
:100950003A2000496E76616C69642065787472751E
:100960006465720A004B494C4C45442E2000202DF2
:1009700020496E76616C696420657874727564656F
:1009800072206E756D62657220210A000000000001
:100990000000000000000000000000000000000057
:1009A0000000000000000000000000000000000047
:1009B0000000000000000000000000000000000037
:1009C00000001F0FC0000000000000000000000039
:1009D00000007F87F0000000000000000000000021
:1009E00000007FC7F80000000000000000000000C9
:1009F0000000FFE3FC000000000000000000000019
:100A00000001FFF1FC0000000000000000000000F9
:100A10000003FFF0FE0000000000000000000000E6
:100A20000007FFF87F000000000000000000000049
:100A30000007FFFC7F8000000000000000000000B5
:100A4000000FE1FE3F8000000000000000000000F9
:100A5000001F807F1FC00000000000000000000099
:100A6000003F9E3F0FE0000000000000000000007B
:100A7000003F1F3F8FF0000000000000000000005A
:100A8000007E3F1FC7F800000000000000000000CB
:100A900000FC7F8FE3F80000000000000000000071
:100AA00001F8FF87F1FC00000000000000000000DA
:100AB00003F9FF07F0FE0000000000000000000046
:100AC00003F00603F8FF0000000000000000000033
:100AD00007F00001FC7F8000000000000000000023
:100AE0000FF8FE00FE2000000000000000000000E3
:100AF0001FF87F007E0000000000000000000000E2
:100B00001FFC7F807E3F800000000000000000008E
:100B10003FFE3F803C7F000000000000000000001E
:100B20007FFF1FC018E00000000000000000000070
:100B3000FE7F0FE001C1F80000000000000000008F
:100B4000FC3F8FF00381FC0000000000000000016A
:100B5000F81FC7F80010FE000000000000000003AE
:100B6000F18FE3F80038FF000000000000000007EC
:100B7000E3C7E1F0003C7F00000000000000000F30
:100B8000E7E7F000007E3F80000000000000000F5B
:100B9000C7F3F07C007E1FC0000000000000001FB3
:100BA0008FF1E3FC007F0FE0000000000000003F39
:100BB0001FF0C700003F8FF0000000000000007F22
:100BC0003FE04E01C01FC7F0000000000000007EA3
:100BD0003FE01E1FE00FE3F8000000000000007C73
:100BE0007FC0100FE007E1FC0000000000000038AB
:100BF000F00000C7F007F1FE00000000000000391F
:100C0000800001C3F803F8FF00000000000000139B
:100C100007F003E3FC01FC7F00000000000000037C
:100C200007F803F1FE00FC3F800000000000000018
:100C300063F803F8FE007E1FC00000000000000003
:100C400071FC01F87F007F1FE00000000000000041
:100C5000F0FE00FC7F803F8FE000000000000001FC
:100C6000F87F007E3FC01FC7F000000000000001B9
:100C7000FC7F807F1FC00FC3F80000000000000051
:100C8000FE3F803F8FE007E3FC0000000000000013
:100C90007F1FC01F87F007F1FC000000000000006C
:100CA0003F0FE00007F80003FE0000000000000016
:100CB0003F87F00007FC0007FF0000000000000075
:100CC0001FC7FE0FFFFFFFFFFF0000000000000036
:100CD0000FE3FFFFFFFFFFFFFF0000000000000029
:100CE00007F1FFFFFFFFFFFFFF0000000000000013
:100CF00003F0FFFFFFFFFFFFFF0000000000000008
:100D000003F83FFFFFFFFFFFFC00000000000000B2
:100D100001FC0000000000000000000000000000D6
:100D200000FF800000000000000000000000000044
:100D3000007FFFFFFFFFFFFFF0000000000000004A
:100D4000003FFFFFFFFFFFFFF0000000000000007A
:100D5000001FFFFFFFFFFFFFE0000000000000009A
:100D6000000FFFFFFFFFFFFFC000000000000000BA
:100D70000000000000000000000000000000000073
:100D80000000000000000000000000000A00507297
:100D9000696E7420526573746F7265204465627564
:100DA0006720456E640A007072696E745F6A6F62D4
:100DB0005F656C61707365643A20007364706F7373
:100DC0003A200073645F66696C656E616D653A20F8
:100DD000003E2000636F6D6D616E64735F696E5FCE
:100DE00071756575653A2000636D645F7175657531
:100DF000655F696E6465785F723A200020666164A1
:100E0000653A20006C6576656C696E673A200074FF
:100E100061726765745F74656D7065726174757217
:100E2000655F6265643A20003A200066616E537027
:100E300065656473003A20007461726765745F745D
:100E4000656D706572617475726500666565647262
:100E500061746520253A20003A200063757272653E
:100E60006E745F706F736974696F6E00494E56419E
:100E70004C494420444154410A002076616C696425
:100E80005F666F6F743A0076616C69645F68656174
:100E9000643A005072696E7420526573746F7265A3
:100EA0002044656275672053746172740A000A00F9
:100EB0004D3237004D3234004D32362053256C759B
:100EC000004D3233202573004D32323020532573CC
:100ED000004731205A2573004731205925730049B6
:100EE0004E56414C494420524553544F524520429E
:100EF000494E0047312046313230302058257300AA
:100F00004739322045257300473932204632303088
:100F100020453500473120463230302045350047E6
:100F20003932204530004731205A2573004D343284
:100F30003020533100473238004D343230205330A6
:100F4000205A30004D31313720526573746172740C
:100F5000696E67202573004D313036205025692099
:100F6000532569004D31303920532569004D313901
:100F70003020532569004D31303420532569004D10
:100F800031343020532569004C6F616465642070F2
:100F900072696E745F726573746F72655F696E6695
:100FA0006F0A00496E6974206A6F62207265636F10
:100FB0007665727920696E666F2E2053697A653A7C
:100FC00020005072696E7420526573746F726520D0
:100FD00047636F64652066696C653A200020205085
:100FE0006C616E6E65724275666665724279746593
:100FF000733A20002046726565204D656D6F7279E9
:101000003A2000436F6D70696C65643A204D6172DF
:1010100020203320323032300A00207C2041757489
:10102000686F723A20467261636B74616C20576F0F
:10103000726B730A00323032302D30332D30332052
:1010400031393A343000204C61737420557064613A
:101050007465643A20004275696C643A204A3138FC
:1010600047425F3230303330335F313934305F489C
:10107000410A00467261636B74616C20576F726B3A
:1010800073204A756C696120496E7465726D656480
:10109000696174650A00312E312E390A004D617282
:1010A0006C696E0020536F667477617265205265BB
:1010B0007365740A00205761746368646F67205217
:1010C000657365740A002042726F776E206F7574C5
:1010D0002052657365740A002045787465726E61EC
:1010E0006C2052657365740A00506F776572557095
:1010F0000A0073746172740A006175746F25692E39
:101100006700456E6473746F7073202563202563D8
:1011100020256320256300205A3A0020593A0020F8
:10112000583A00656E6473746F7073206869743A1E
:101130002000446F6E6520736176696E6720666972
:101140006C652E0A004D3239002569730025696DE2
:1011500020256973002569682025696D202569733C
:1011600000256964202569682025696D202569733B
:101170000025697920256964202569682025696D25
:101180002025697300656E7175657565696E6720E8
:1011900022004E6F20436865636B73756D2077691D
:1011A0007468206C696E65206E756D6265722C20A6
:1011B0004C617374204C696E653A20004B494C4C6D
:1011C00045442E200053544F505045442E2000508B
:1011D00072696E7465722073746F707065642064D8
:1011E000756520746F206572726F72732E20466968
:1011F0007820746865206572726F7220616E642059
:10120000757365204D39393920746F207265737498
:101210006172742E202854656D70657261747572E8
:10122000652069732072657365742E205365742080
:10123000697420616674657220726573746172747A
:10124000696E67290A004E6F20436865636B73758A
:101250006D2077697468206C696E65206E756D62AB
:1012600065722C204C617374204C696E653A2000C5
:10127000636865636B73756D206D69736D6174630D
:10128000682C204C617374204C696E653A20004CC8
:10129000696E65204E756D626572206973206E6F90
:1012A00074204C617374204C696E65204E756D62BC
:1012B00065722B312C204C617374204C696E653A39
:1012C00020004D313130004D3331005344207265E0
:1012D0006164206572726F720A00446F6E652070DF
:1012E00072696E74696E672066696C650A0025759F
:1012F0003A2530327500253032753A253032750086
:1013000025756420253032753A253032750020204D
:1013100020202020005A00590020202020005800C2
:101320000920000000000000000000000000003F55
:10133000FFF0000000000000000000000000380086
:101340007000000000000000000000000030FC30D1
:1013500000000000000000000000000020FC100061
:1013600000000000000000000000002078100000D5
:10137000000000000000000000002030100000000D
:101380000000000000000000002C00D03FC0000062
:1013900000000000002082002E31D07FE00000001D
:1013A000000000001041002F7BD07FE00000000013
:1013B0000000001041002F7BD07FE0000000000003
:1013C00000002082002E31D03FC00000000000004D
:1013D000004104002C00D03FC000000000000000CD
:1013E0008208002030107FE0000000000000008232
:1013F00008002078107FE000000000000000410499
:101400000020FC107FE000000000000000208200AF
:1014100030FC301F80000000000000000000003899
:1014200000700F0000000000000000FFFFC03FFF41
:10143000F0060000000000000000FFFFC0000000F8
:101440000000000000000000000000003FFFF0006E
:1014500000000000000000000000003800700000E4
:101460000000000000000000000031863000000095
:1014700000000000000000000023871000000000B2
:10148000000000000000000027879000000000001E
:10149000000000000000002F87D0000000000000C6
:1014A0000000000000002F03D03FC000000000003B
:1014B00000002082002030107FE0000000000000CB
:1014C000001041002078107FE000000000000000C4
:1014D0001041002078107FE0000000000000002094
:1014E00082002030103FC0000000000000004104D6
:1014F000002F03D03FC00000000000000082080061
:101500002F87D07FE0000000000000008208002745
:1015100087907FE000000000000000410400238766
:10152000107FE000000000000000208200318630C3
:101530001F80000000000000000000003800700F55
:101540000000000000000000FFFFC03FFFF00600A9
:1015500000000000000000FFFFC0000000000609BE
:1015600000FE000000000001090008FE0000050860
:101570000806000040F0C88888987810050808061A
:101580000000C0F88888888888F8050505060001ED
:101590002030F830200508080600002070F82020D0
:1015A0002020E00509090600FF2070A8A8B8888857
:1015B00070200509090600FFE080C0B0A828302887
:1015C000280509090600FFF8A88888888888A8F8EF
:1015D000050A0A0600FE205050505088A8A88870BE
:1015E00003030306000340A040506C65617365204F
:1015F0007265736574005052494E544552204841FB
:101600004C544544005072696E7465722068616C78
:101610007465642E206B696C6C28292063616C6C86
:101620006564210A000000000000004843000052E9
:101630004300004842000048420000A04100000072
:10164000005761726E696E673A20486F6D696E6708
:101650002042756D702044697669736F72203C205A
:10166000310A000202040000A0400000A040000077
:101670000040000048430000484300005243FF017F
:10168000017C3C3E5E2B3D3F2F5B5D3B2C2A225C68
:10169000005265636F766572792042494E20646519
:1016A0006C657465642E0A005265636F76657279A5
:1016B0002042494E2064656C657465206661696CE2
:1016C00065642E0A004D3234004D323320257300FC
:1016D000556E6B6E6F776E20636F6D6D616E643AE1
:1016E000202200486F74656E6420746F6F20636FF2
:1016F0006C640A006572726F722077726974696E29
:101700006720746F2066696C650A00486F6D6520FC
:1017100025732573257320666972737400206669CA
:101720007273740A005A0059005800486F6D6520A2
:101730000053442063617264206F6B0A006F706510
:101740006E526F6F74206661696C65640A00766F13
:101750006C756D652E696E6974206661696C65646F
:101760000A00534420696E6974206661696C0A003E
:1017700057726974696E6720746F2066696C653A88
:1017800020006F70656E206661696C65642C204670
:10179000696C653A20006F70656E206661696C65E2
:1017A000642C2046696C653A200046696C6520739C
:1017B000656C65637465640A002053697A653A2034
:1017C0000046696C65206F70656E65643A20002084
:1017D00066696C653A2000646F696E6700667265C1
:1017E0007368004E6F772000454E44205355425297
:1017F0004F5554494E450A002220706F7300222035
:10180000706172656E743A2200535542524F5554BE
:10181000494E452043414C4C207461726765743ACF
:1018200022004B494C4C45442E2000747279696E5D
:101830006720746F2063616C6C207375622D676321
:101840006F64652066696C657320776974682074BD
:101850006F6F206D616E79206C6576656C732E20DC
:101860004D4158206C6576656C2069733A0045726D
:10187000726F723A00436172642072656D6F7665B3
:1018800064004361726420696E73657274656400FC
:1018900000060900FE0701920321207FFF07FF07D2
:1018A000FF0000000600000107070602008080809C
:1018B00080800080030202060105A0A0050707063C
:1018C00000005050F850F85050050707060000205F
:1018D00078A07028F020050707060000C0C8102077
:1018E0004098180507070600006090A040A890687F
:1018F000020303060104C04080030707060100201D
:10190000408080804020030707060100804020209F
:1019100020408005050506000120A870A8200505C7
:10192000050600012020F820200203030602FFC064
:101930004080050101060003F8020202060200C011
:10194000C0050505060001081020408005070706B0
:1019500000007088888888887003070706010040A7
:10196000C040404040E0050707060000708808704E
:101970008080F8050707060000F81020100808F01E
:1019800005070706000010305090F81010050707F3
:10199000060000F880F008088870050707060000B8
:1019A000708080F0888870050707060000F808102E
:1019B000202020200507070600007088887088888E
:1019C000700507070600007088887808087002050F
:1019D00005060200C0C000C0C00206060602FFC025
:1019E000C000C0408004070706000010204080406F
:1019F0002010050303060002F800F804070706019B
:101A000000804020102040800507070600007088F5
:101A1000081020002005070706000070880868A845
:101A2000A870050707060000708888F88888880570
:101A30000707060000F08888F08888F00507070689
:101A4000000070888080808870050707060000F01D
:101A50008888888888F0050707060000F88080F0ED
:101A60008080F8050707060000F88080F0808080FD
:101A7000050707060000708880B88888700507078A
:101A8000060000888888F888888801070706020011
:101A90008080808080808005070706000038101055
:101AA000101090600507070600008890A0C0A09065
:101AB00088050707060000808080808080F8050781
:101AC0000706000088D8A8888888880507070600C8
:101AD000008888C8A89888880507070600007088CD
:101AE0008888888870050707060000F08888F080DD
:101AF000808005070706000070888888A890680520
:101B00000707060000F08888F0A090880507070600
:101B10000000788080700808F0050707060000F8CC
:101B200020202020202005070706000088888888BC
:101B300088887005070706000088888888885020F4
:101B40000507070600008888888888A850050707C9
:101B50000600008888502050888805070706000086
:101B600088888850202020050707060000F8081004
:101B7000204080F8030707060100E0808080808015
:101B8000E005050506000180402010080307070650
:101B90000100E02020202020E005030306000420AF
:101BA0005088050101060000F802020206020580C5
:101BB00040050505060000700878887805070706C7
:101BC00000008080B0C88888F00505050600007018
:101BD00080808870050707060000080868988888D4
:101BE000780505050600007088F88070050707066F
:101BF00000003048E0404040400506060600FF7007
:101C000088887808700507070600008080B0C888BB
:101C1000888801070706020080008080808080039A
:101C200008080601FF200020202020A0400407070C
:101C3000060000808090A0C0A09003070706010066
:101C4000C04040404040E0050505060000D0A8A87F
:101C5000A8A8050505060000B0C888888805050500
:101C600006000070888888700506060600FFF08868
:101C700088F080800506060600FF788888780808C6
:101C8000050505060000B0C8808080050505060032
:101C90000070807008F00407070600004040E04034
:101CA00040403005050506000088888898680505CD
:101CB0000506000088888850200505050600008874
:101CC00088A8A85005050506000088502050880502
:101CD00006060600FF888888780870050505060056
:101CE00000F8102040F8030707060100204040805C
:101CF00040402001070706020080808080808080AD
:101D00000307070601008040402040408005020292
:101D1000060002689000000006000024F4D4305051
:101D2000C38E20C2A24017828B7011127A910D814E
:101D30006CD90AA861E108C7586607615143061EBD
:101D40004B5D05C145A7041A411104093D98037173
:101D50003931034036DB0265339102D430540280BE
:101D60002E1D02632CEE01752AC501B028A00110BA
:101D70002781018F2564012B244B01E0223401AC23
:101D8000211F018D200D01801FFC00841EED009796
:101D90001DDF00B81CD200E61BC600201BBC00647F
:101DA0001AB200B219A8000A19A0006A189900D145
:101DB00017910040178B00B516840031167E00B3D2
:101DC0001579003A157300C7146F0058146A00EEB5
:101DD0001366008813630025135E00C7125B006C56
:101DE00012570015125400C111510070114F0021FB
:101DF000114B00D61049008D1047004610440002D8
:101E0000104200C00F4000800F3E00420F3C000611
:101E10000F3B00CB0E3800930E37005C0E350027C9
:101E20000E3400F30D3200C10D3100900D30006012
:101E30000D2E00320D2D00050D2C00D90C2B00AEFF
:101E40000C2900850C29005C0C2700350C27000E9E
:101E50000C2600E80B2400C40B2400A00B23007DFB
:101E60000B23005A0B2100390B2100180B2000F81E
:101E70000A1F00D90A1E00BB0A1E009D0A1D008011
:101E80000A1D00630A1C00470A1B002C0A1B0011D4
:101E90000A1A00F7091A00DD091900C4091900AB74
:101EA000091900920917007B091800630917004CF3
:101EB00009160036091600200916000A091500F552
:101EC000081500E0081400CC081400B8081400A499
:101ED000081400900813007D0812006B08130058C6
:101EE00008120046081200340811002308110012DD
:101EF00008110001081100F0071000E0071000D0E1
:101F0000071000C0071000B0070F00A107100091D4
:101F1000070E0083070F0074070F0065070E0057B8
:101F2000070E0049070E003B070D002E070E00208C
:101F3000070D0013070D0006070D00F9060C00ED54
:101F4000060D00E0060C00D4060C00C8060C00BC10
:101F5000060C00B0060C00A4060B0099060C008DC0
:101F6000060B0082060B0077060B006C060B006167
:101F7000060A0057060B004C060A0042060A003803
:101F8000060A002E060A0024060A001A060A001095
:101F900006090007060A00FD050900F4050900EB23
:101FA000050900E2050900D9050900D0050900C7A7
:101FB000050900BE050900B5050800AD050800A526
:101FC0000509009C050800940508008C050800849C
:101FD0000508007C050800740508006C050700650D
:101FE0000508005D050700560508004E0507004777
:101FF0000507004005080038050700310507002ADD
:10200000050700230507001C050600160507000F3D
:102010000507000805060002050700FB040600F599
:10202000040700EE040600E8040600E2040700DBF3
:10203000040600D5040600CF040600C9040600C348
:10204000040600BD040600B7040600B1040500AC98
:10205000040600A6040600A00405009B04060095E3
:10206000040500900406008A04050085040500802C
:102070000406007A04050075040500700405006B71
:1020800004050066040500610405005C04050057B2
:10209000040500520405004D0405004804050043F2
:1020A0000405003E0404003A040500350405003030
:1020B0000404002C04050027040400230405001E6A
:1020C0000404001A04040016040500110404000DA1
:1020D000040400090405000404040000040400FCD6
:1020E000030400F8030400F4030400F0030400EC0C
:1020F000030400E8030400E4030400E0030400DC3C
:10210000030400D8030400D4030400D0030400CC6B
:10211000030400C8030300C503030024F404D9200A
:102120001BC40C5C0E9804C4095F0265077101F4BE
:1021300005F900FB04B30048048700C10369005897
:1021400003550003034500BE023A008402310053E8
:10215000022A002902250004022000E4011C00C814
:10216000011900AF011700980114008401130071D8
:102170000110006101100051010E0043010D0036F5
:10218000010B002B010B0020010B00150109000CB5
:1021900001090003010800FB000800F3000800EB40
:1021A000000700E4000600DE000600D8000600D2AA
:1021B000000600CC000500C7000500C2000500BDF8
:1021C000000400B9000400B5000400B1000400AD33
:1021D000000400A9000400A5000300A20003009F62
:1021E0000004009B00030098000300950002009388
:1021F000000300900003008D0002008B00030088A4
:102200000002008600020084000300810002007FBB
:102210000002007D0002007B0002007900020077CE
:1022200000010076000200740002007200010071DB
:102230000002006F0002006D0001006C0002006AE5
:1022400000010069000200670001006600010065EE
:1022500000010064000200620001006100010060F2
:102260000001005F0002005D0001005C0001005BF6
:102270000001005A000100590001005800010057F8
:1022800000010056000100550001005400010053F8
:1022900000000053000100520001005100010050F5
:1022A0000001004F0001004E0000004E0001004DF3
:1022B0000001004C0001004B0000004B0001004AEF
:1022C00000010049000100480000004800010047EB
:1022D00000010046000000460001004500000045E6
:1022E00000010044000100430000004300010042DF
:1022F00000000042000100410000004100010040D8
:102300000001003F0000003F0001003E0000003ED1
:102310000001003D0000003D0001003C0000003CC9
:102320000000003C0001003B0000003B0001003ABF
:102330000000003A000100390000003900010038B7
:1023400000000038000000380001003700000037AE
:1023500000010036000000360000003600010035A4
:10236000000000350000003500010034000000349A
:10237000000000340001003300000033000000338F
:102380000001003200000032000000320001003184
:10239000000000310000003100010030000000307A
:1023A000000000300001002F0000002F0000002F6F
:1023B0000000002F0001002E0000002E0000002E63
:1023C0000001002D0000002D0000002D0000002D58
:1023D0000001002C0000002C0000002C0000002C4C
:1023E0000001002B0000002B0000002B0000002B40
:1023F0000001002A0000002A0000002A0000002A34
:102400000001002900000029000000290000002927
:10241000000000290001002800000028000000281A
:10242000000000280000002800010027000000270D
:102430000000002700000027000000270001002600
:1024400000000026000000260000002600000026F4
:1024500000010025000000250000002500000025E7
:1024600000000025000000250001002400000024D9
:1024700000000024000000240000002400010023CC
:1024800000000023000000230000002300000023C0
:1024900000000023000000230001002200000022B1
:1024A00000000022000000220000002200000022A4
:1024B0000001002100000021000000210000002197
:1024C0000000002100000021000000210001002088
:1024D000000000200000002000000020000000207C
:1024E0000000002000000020000000200001001F6C
:1024F0000000001F0000001F0000001F0000001F60
:102500000000001F0000001F0001001E0000001E50
:102510000000001E0000001E0000003930000033E3
:1025200025000087190000B00F0000DB080000BD87
:10253000040000740200003F0100004E6578742022
:10254000506F696E74002569202F20257500473271
:10255000392053310047323920533200436C6963CC
:102560006B20746F20426567696E00486F6D696EFD
:10257000672058595A004732380053746F726520EB
:1025800073657474696E6773004C6F616420736562
:102590007474696E677300426564205A0042656412
:1025A000205A004F6666004F6E2000426564204C42
:1025B0006576656C696E67004C6576656C20626552
:1025C000640050726570617265004D34323800509D
:1025D00072656865617420504C4100436F6F6C6494
:1025E0006F776E004368616E67652066696C616D28
:1025F000656E74004368616E67652066696C616D25
:10260000656E74004D36303020423000446973618D
:10261000626C65207374657070657273004D383438
:102620000053657420686F6D65206F66667365740E
:1026300073005072656865617420414253004265C1
:1026400064204C6576656C696E67004175746F2017
:10265000686F6D6500473238004D6F766520617890
:102660006973004D61696E004D6F76652058004DAD
:102670006F76652059004D6F7665205A0045787455
:102680007275646572004D6F766520302E316D6D08
:10269000004D6F766520316D6D004D6F7665203190
:1026A000306D6D004D6F76652061786973004578F7
:1026B000747275646572004D6F7665205A004D6FB7
:1026C00076652059004D6F76652058004578747204
:1026D00075646572004D6F7665205A004D6F7665A2
:1026E0002059004D6F7665205800507265706172F8
:1026F0006500205A3A0020423A0020436F756E74FC
:1027000020413A0020453A00205A3A0020593A0028
:10271000583A003A004361703A00426564204C65C3
:1027200076656C696E6720004661696C656420742B
:102730006F20656E61626C6520426564204C657631
:10274000656C696E670A004D657368204265642098
:102750004C6576656C20646174613A0A004D65735E
:102760006820706F696E742063616E6E6F74206292
:1027700065207265736F6C7665640A004D34323182
:1027800020696E636F727265637420706172616D2F
:10279000657465722075736167650A004D36303067
:1027A0003A20546F6F20636F6C6400486F74656EDD
:1027B0006420746F6F20636F6C640A00496E7365E8
:1027C00072742066696C616D656E7420616E642040
:1027D000707265737320627574746F6E0A00507244
:1027E00065737320627574746F6E20746F206865F2
:1027F0006174206E6F7A7A6C650A00496E73657237
:10280000742066696C616D656E7420616E64207001
:102810007265737320627574746F6E20286F7220F6
:102820004D313038290A00496E736572742066692B
:102830006C616D656E7420616E6420707265737377
:1028400020627574746F6E20286F72204D3130389D
:10285000290A001000600350012C0190012201D0D0
:1028600001180110020E0170020401E002FA00607A
:1028700003F0000004E600B004DC00A005D200B0C4
:1028800006C8000008BE00A009B400800BAA00D052
:102890000DA00090109600C0138C0070178200905D
:1028A0001B780010206E00C0246400E02D500080D2
:1028B000353C00A03A2800A03D1400003F0000A0D5
:1028C0003FECFF4531204572723A204D4158544546
:1028D0004D50004572723A204D415854454D50209C
:1028E000424544004D415854454D5020747269672B
:1028F0006765726564004531204572723A204D4922
:102900004E54454D50004572723A204D494E544543
:102910004D5020424544004D494E54454D50207481
:102920007269676765726564004D383420582059B4
:10293000205A204500202F002042403A0020403AF3
:102940000020204E6F7A7A6C653A20006368616ED1
:102950006765006F66207468652066696C616D65E7
:102960006E74005761697420666F722073746172AF
:10297000740020204E6F7A7A6C653A200020006641
:10298000696C616D656E7420756E6C6F6164005763
:1029900061697420666F720020204E6F7A7A6C65D0
:1029A0003A20002000506C6561736520776169747E
:1029B0002E2E2E0048656174696E67206E6F7A7ADC
:1029C0006C650020204E6F7A7A6C653A20002000FA
:1029D00068656174206E6F7A7A6C652E005072653E
:1029E000737320627574746F6E20746F0020204EB4
:1029F0006F7A7A6C653A2000746F20636F6E746929
:102A00006E75652E2E2E00616E6420707265737374
:102A100020627574746F6E00496E736572742066FF
:102A2000696C616D656E740020204E6F7A7A6C65FA
:102A30003A2000200066696C616D656E74206C6FD1
:102A40006164005761697420666F720020204E6FC8
:102A50007A7A6C653A2000200066696C616D656E5B
:102A600074207075726765005761697420666F72B3
:102A700000746F20726573756D650057616974200D
:102A8000666F72207072696E740043616E6E6F744F
:102A900020656E746572207375626469723A2000F5
:102AA000022E2E004D61696E0000457874727564C7
:102AB000656420746F74616C3A2000256C642E2567
:102AC000696D00004C6F6E67657374206A6F6220D9
:102AD00074696D653A200000546F74616C207072E7
:102AE000696E742074696D653A2000436F6D706C77
:102AF000657465643A20005072696E7420436F7586
:102B00006E743A20004D61782054656D703A203122
:102B10003530004D696E2054656D703A2035005493
:102B20004265643A4D656E64656C2D7061727473B4
:102B3000004D61782054656D703A20323735004D74
:102B4000696E2054656D703A20350054303A204D3E
:102B5000656E64656C2D7061727473005053553AE4
:102B60002047656E657269630050726F746F636FA2
:102B70006C3A20312E3000426175643A2031313593
:102B8000323030004D4B532047454E203E3D20769D
:102B9000312E33004D657368204C6576656C696E27
:102BA00067004578747275646572733A2031004A23
:102BB000313847425F3230303330335F313934306F
:102BC0005F4841004A756C696120496E7465726D99
:102BD0006564696174650068747470733A2F2F6658
:102BE0007261636B74616C2E696E00467261636B17
:102BF00074616C20576F726B73004D61726C696EFB
:102C000020312E312E39005072696E746572205356
:102C10007461747300546865726D6973746F727354
:102C200000426F61726420496E666F005072696E77
:102C300074657220496E666F004D61696E004D3695
:102C4000303020423020542564004D37303120543C
:102C50002564004D373032203B2564004D3730323B
:102C600020542564004368616E67652066696C6165
:102C70006D656E74005072656865617420414253E1
:102C8000005072656865617420504C410043686172
:102C90006E67652066696C616D656E74005052499F
:102CA0004E542050415553454400554E4C4F4144DD
:102CB0002046494C414D454E54004C4F414420461E
:102CC000494C414D454E54005075726765206D6FFB
:102CD000726500436F6E74696E7565005245535599
:102CE0004D45204F5054494F4E533A0020746F6F5A
:102CF000206C6F6E6720657874727573696F6E20D3
:102D000070726576656E7465640A0020636F6C642A
:102D100020657874727573696F6E20707265766560
:102D20006E7465640A00454550524F4D20646174CD
:102D30006173697A65206572726F722E0A00290AC2
:102D4000002062797465733B2063726320005365D1
:102D50007474696E67732053746F72656420280001
:102D6000290A002062797465733B20637263200036
:102D70002073746F7265642073657474696E677311
:102D80002072657472696576656420280020286366
:102D9000616C63756C6174656429210A0020213DB2
:102DA0002000454550524F4D20435243206D6973DA
:102DB0006D61746368202D202873746F72656429B7
:102DC00020002053697A653A2000496E6465783A9C
:102DD0002000204D61726C696E3D563535290A0020
:102DE00028454550524F4D3D00454550524F4D20CE
:102DF00076657273696F6E206D69736D6174636857
:102E00002000FFE0FFD11000FFFEFFD0FFE0FFC178
:102E1000FFD1E240A0C8A6A22FF800238127AC0072
:102E2000AFFF64A5FF64FF64A4FFD0FFFE00002194
:102E300000240027002A002D00300033000101008B
:102E400000040107010A0100002200250028002BD0
:102E5000002E003100340002010000050108010BC2
:102E600001000020002300260029002C002F003242
:102E70000000010000030106010901050505050721
:102E80000508080808020202020A0A0808040404E5
:102E90000401010101010101010303030303030311
:102EA00003040707070C0C0C0C0C0C0C0C020202A0
:102EB0000206060606060606060B0B0B0B0B0B0B93
:102EC0000B01021020200808102040102040800232
:102ED0000102010804020101020408102040808060
:102EE00040201008040201800402018040201008E4
:102EF00004020108040201010204081020408001BC
:102F00000204081020408000000A0B02090C0D0E7C
:102F1000080703040100000000000000000000009A
:102F200000000000000000000000000000000000A1
:102F3000000000121110000000000000000000005E
:102F40000000000000000000000000000002204916
:102F50006E76616C69642065787472756465722040
:102F60000000000000000000000000000000004819
:102F7000430000484300005243486F6D696E67206C
:102F80006661696C65640047322F47332062616473
:102F900020706172616D65746572730A00206E6FD6
:102FA0007420656E74657265642E0A0050726F74C9
:102FB00065637465642050696E0A006F6B0020576A
:102FC0003A004520436F6F6C696E672E2E2E0045C8
:102FD0002048656174696E672E2E2E0043616E6E07
:102FE0006F74206F70656E20737562646972200063
:102FF0006563686F3A005265636F76657279204247
:10300000494E207772697465206661696C65642E2B
:103010000A006F70656E206661696C65642C2046DD
:10302000696C653A200057726974696E6720746F25
:103030002066696C653A2000453120544845524D60
:10304000414C2052554E415741590042454420546D
:103050004845524D414C2052554E4157415900541C
:103060006865726D616C2052756E6177617900469A
:10307000696C652064656C657465643A0044656CD0
:103080006574696F6E206661696C65642C204669A1
:103090006C653A20006F70656E206661696C6564CE
:1030A0002C2046696C653A20005072656865617431
:1030B0002041425320636F6E6600507265686561FF
:1030C0007420504C4120636F6E66005049442D447B
:1030D000005049442D44005049442D490050494472
:1030E0002D49005049442D50005049442D50002096
:1030F0000820466163740020082046616374002044
:1031000008204D6178002008204D617800200820BB
:103110004D6178002008204D696E002008204D691F
:103120006E002008204D696E004F6666004F6E20CD
:10313000004175746F74656D700046616E20737028
:103140006565640046616E20737065656400426564
:103150006400426564004E6F7A7A6C65004E6F7A47
:103160007A6C6500436F6E74726F6C0053746F728B
:10317000652073657474696E67730042656400420C
:103180006564004E6F7A7A6C65004E6F7A7A6C6572
:103190000046616E2073706565640046616E207341
:1031A000706565640054656D7065726174757265F3
:1031B000005654726176206D696E005654726176C5
:1031C000206D696E005654726176206D696E0056EE
:1031D0006D696E00566D696E00566D696E00566DB4
:1031E0006178204500566D6178204500566D617804
:1031F000204500566D6178205A00566D6178205A3E
:1032000000566D6178205A00566D6178205900563D
:103210006D6178205900566D6178205900566D61B6
:1032200078205800566D6178205800566D617820DE
:1032300058004D6F74696F6E00416D6178204500D4
:10324000416D6178204500416D6178205A00416DE3
:103250006178205A00416D6178205900416D617894
:10326000205900416D6178205800416D61782058E7
:1032700000412D74726176656C00412D7472617627
:10328000656C00412D7265747261637400412D722A
:1032900065747261637400416363656C00416363CC
:1032A000656C004D6F74696F6E004A756E6374696A
:1032B0006F6E20446576004A756E6374696F6E2088
:1032C000446576004D6F74696F6E00457374657068
:1032D000732F6D6D004573746570732F6D6D005A9B
:1032E00073746570732F6D6D005A73746570732FEE
:1032F0006D6D005973746570732F6D6D0059737423
:103300006570732F6D6D005873746570732F6D6DDC
:10331000005873746570732F6D6D004D6F74696F15
:103320006E0053746570732F6D6D004A65726B008B
:10333000416363656C65726174696F6E0056656C9C
:103340006F6369747900436F6E74726F6C004C6FB9
:103350006164206D6D004C6F6164206D6D004C6F79
:103360006164206D6D00556E6C6F6164206D6D0041
:10337000556E6C6F6164206D6D00556E6C6F61648D
:10338000206D6D0046696C2E204469612E004669EF
:103390006C2E204469612E004F6666004F6E20003F
:1033A0004520696E206D6D3300436F6E74726F6CD3
:1033B0000054756E65204D657368205A0042616245
:1033C0007973746570205A004368616E6765206682
:1033D000696C616D656E74004368616E6765206637
:1033E000696C616D656E74004D363030204230007E
:1033F0004261627973746570205A00466C6F770081
:10340000466C6F770046616E207370656564004698
:10341000616E207370656564004265640042656496
:10342000004E6F7A7A6C65004E6F7A7A6C65004256
:103430006564205A00426564205A005370656564D3
:10344000005370656564004D61696E005072656877
:1034500065617420504C4120456E6400507265686F
:1034600065617420504C412042656400507265686B
:1034700065617420504C4100507265706172650046
:10348000507265686561742041425320456E640046
:103490005072656865617420414253204265640042
:1034A00050726568656174204142530050726570C6
:1034B000617265004C6576656C696E6720446F6E5D
:1034C0006521004D6F7665205A004732392053320E
:1034D00000526573656E643A20006F6B0020746F54
:1034E0006F206C6F6E6720657874727573696F6E8C
:1034F0002070726576656E7465640A0020636F6C77
:103500006420657874727573696F6E207072657669
:10351000656E7465640A00627573793A207061752E
:1035200073656420666F7220696E7075740A00623C
:103530007573793A2070617573656420666F7220C7
:10354000757365720A00627573793A2070726F63E1
:10355000657373696E670A004B494C4C45442E20D5
:10356000004B494C4C20636175736564206279207F
:103570004B494C4C20627574746F6E2F70696E0AE3
:10358000004B494C4C45442E20004B494C4C206389
:10359000617573656420627920746F6F206D756347
:1035A0006820696E6163746976652074696D652051
:1035B0002D2063757272656E7420636F6D6D616E20
:1035C000643A2000436F6D706C657465642100413E
:1035D0006476616E636564204C6576656C696E67C0
:1035E00000473238004D343230205330205A3000FA
:1035F0006E657874203420706F696E74730074681F
:1036000065206469616C20617420746865006E6F68
:103610007A7A6C65207768696C65207475726E695A
:103620006E6700536C69646520612070617065721B
:1036300020756E64657200436F6D706C65746564AF
:103640002100517569636B204C6576656C696E6706
:1036500000473238004D343230205330205A300089
:10366000616E6420636C69636B20746865206469B3
:10367000616C006B6E6F6220636C6F636B77697354
:1036800065004C6F636B206261636B206C657665CF
:103690006C696E670047312058313030205931391C
:1036A00037205A30004731205831303020593139D5
:1036B00037004731205A3230004731204639303008
:1036C0003000616E6420636C69636B2074686520F0
:1036D0006469616C006B6E6F6220636C6F636B7703
:1036E000697365004C6F636B206C656674206C6554
:1036F00076656C696E67004731205832352E36206A
:10370000593231205A30004731205832352E362078
:10371000593231004731205A323000473120463982
:1037200030303000616E6420636C69636B207468B4
:1037300065206469616C006B6E6F6220636C6F63FF
:103740006B77697365004C6F636B2072696768748F
:10375000206C6576656C696E67004731205831379B
:103760003120593231205A30004731205831373119
:103770002059323100473120463930303000616EF7
:103780006420636C69636B20746865206469616C94
:10379000006B6E6F627320616E74692D636C6F6372
:1037A0006B7769736500556E6C6F636B20616C6C31
:1037B000206C6576656C696E670047312058313042
:1037C000302059313030205A353000436C69636BFA
:1037D00020746F20426567696E00486F6D696E677F
:1037E0002058595A00473238004732380041647631
:1037F000616E636564204C6576656C696E67005127
:103800007569636B204C6576656C696E67004D6108
:10381000696E00496E697469616C697A6520454515
:1038200050524F4D00436F6E74726F6C005265734F
:10383000746F7265206661696C73616665004C6FB8
:1038400061642073657474696E677300496E69748E
:1038500069616C697A6520454550524F4D0053743B
:103860006F72652073657474696E67730046696C66
:10387000616D656E74004D6F74696F6E0054656D97
:103880007065726174757265004D61696E000A4DF4
:103890006561737572656420706F696E74733A0A3E
:1038A000005A206F66667365743A20004E756D206D
:1038B000582C593A20322C320A00FFFDFCFAF8F657
:1038C000F4F2F0EEECEAE9E7E5E3E1E0DEDCDAD998
:1038D000D7D5D4D2D0CFCDCBCAC8C7C5C3C2C0BF3D
:1038E000BDBCBAB9B7B6B4B3B2B0AFADACAAA9A8B3
:1038F000A6A5A4A2A1A09E9D9C9A99989795949301
:1039000092908F8E8D8B8A8988878684838281802E
:103910007F7E7D7B7A797877767574737271706F3C
:103920006E6D6C6B6A696867666564636261605F2F
:103930005E5D5C5B5A595858575655545352515016
:10394000504F4E4D4C4B4A4A4948474646454443E2
:10395000424241403F3E3E3D3C3B3B3A393838379E
:10396000363535343332323130302F2E2E2D2C2B4C
:103970002B2A2929282727262525242323222121EC
:1039800020201F1E1E1D1C1C1B1B1A19191818177E
:103990001616151514131312121111100F0F0E0E07
:1039A0000D0D0C0C0B0A0A09090808070706060585
:1039B00005040403030202010000000000010000EE
:1039C00000010000800055555500000040003333D1
:1039D0003300AAAA2A004992240000002000C771DF
:1039E0001C0099991900D1451700555515003BB198
:1039F00013002449120011111100000010000F0FD4
:103A00000F00E3380E0043790D00CCCC0C00C3301E
:103A10000C00E8A20B0064210B00AAAA0A00703D6A
:103A20000A009DD80900427B090092240900DCD3DA
:103A30000800888808001042080000000800F0C153
:103A400007008787070075500700711C07003EEBD1
:103A50000600A1BC06006990060066660600703E7E
:103A600006006118060017F4050074D105005BB06C
:103A70000500B290050062720500555505007839C1
:103A80000500B81E0500050505004EEC040087D4AE
:103A90000400A1BD040090A7040049920400C17D68
:103AA0000400EE690400C7560400444404005C327C
:103AB00004000821040041100400000004003FF04D
:103AC0000300F8E0030026D20300C3C30300CCB513
:103AD00003003AA803000A9B0300388E0300C0814C
:103AE00003009F750300D0690300505E03001D535F
:103AF000030034480300913D0300333303001629CB
:103B00000300381F030097150300300C0300030364
:103B100003000BFA020049F10200BAE802005CE07F
:103B200002002DD802002DD0020059C80200B0C0FA
:103B3000020031B90200DAB10200AAAA0200A0A371
:103B40000200BC9C0200FA9502005C8F0200DF8834
:103B5000020082820200457C020027760200277064
:103B60000200436A02007C640200D05E02003F59FA
:103B70000200C85302004572726F72207772697436
:103B8000696E6720746F20454550524F4D210A00E1
:103B900048617264636F6465642044656661756C36
:103BA000742053657474696E6773204C6F6164652B
:103BB000640A00200300002003000032000000100F
:103BC00027000000004843000048430000A04100D7
:103BD0000034420000204300002043F0F77B440003
:103BE000008C4320286D6D290020204D3630332075
:103BF000002055004C0046696C616D656E74206C48
:103C00006F61642F756E6C6F6164206C656E677494
:103C100068733A0A0020440020490020204D3330C8
:103C2000312050005049442073657474696E677385
:103C30003A0A0020460020420020480020204D3152
:103C400034352053004D6174657269616C2068657C
:103C50006174757020706172616D65746572733A1C
:103C60000A00205A002059002020473239205333BF
:103C700020580020204D3432302053004D657368A9
:103C800020426564204C6576656C696E673A0A006F
:103C9000205A0020590020204D323036205800484C
:103CA0006F6D65206F66667365743A0A00204A007E
:103CB00020540020530020204D3230352042002077
:103CC0004A3C6A756E635F6465763E004164766166
:103CD0006E6365643A20423C6D696E5F7365676D23
:103CE000656E745F74696D655F75733E20533C6DDE
:103CF000696E5F66656564726174653E20543C6DF3
:103D0000696E5F74726176656C5F66656564726129
:103D100074653E0020540020520020204D32303483
:103D2000205000416363656C65726174696F6E2039
:103D300028756E6974732F7332293A20503C707263
:103D4000696E745F616363656C3E20523C7265749A
:103D5000726163745F616363656C3E20543C74728E
:103D60006176656C5F616363656C3E0A00204500A7
:103D7000205A0020590020204D3230312058004D6B
:103D80006178696D756D20416363656C65726174FE
:103D9000696F6E2028756E6974732F7332293A0A21
:103DA00000204500205A0020590020204D32303399
:103DB0002058004D6178696D756D20666565647287
:103DC000617465732028756E6974732F73293A0ABC
:103DD00000204500205A0020590020204D39322073
:103DE000580053746570732070657220756E697425
:103DF0003A0A0020204D3230302044300A00202082
:103E00004D3230302044002044697361626C656437
:103E10000A0046696C616D656E742073657474691F
:103E20006E67733A0020204D3134392043203B2007
:103E3000556E69747320696E2043656C7369757380
:103E40000A002020473231202020203B004A756C98
:103E5000696120496E7465726D656469617465207D
:103E600052656164792E005072696E74696E672EB6
:103E70002E2E005072696E74207061757365640037
:103E80007265636F7665727920696E666F00616E28
:103E90006420666C75736800726573746172742057
:103EA0007072696E74657200436C69636B2064693B
:103EB000616C20746F004661696C65642072657383
:103EC0007375726563742066696C653A20004D33C2
:103ED00031004D3234004D3233202573004F706570
:103EE0006E696E67207265737375726563742066A0
:103EF000696C653A200053746F70207072696E743B
:103F000000526573756D65207072696E7400507231
:103F1000696E742061626F72746564004E6F205325
:103F2000442063617264005072696E742066726F1F
:103F30006D2053440053746F70207072696E74006A
:103F4000526573756D65207072696E740041626FA1
:103F50007574205072696E74657200506175736576
:103F6000207072696E7400436F6E74726F6C0050D3
:103F70007265706172650054756E650042656420FB
:103F800043616C6962726174696F6E00426162794B
:103F900073746570205A0054756E65204D657368A2
:103FA000205A00496E666F2073637265656E006209
:103FB00065640A002C2073797374656D2073746FC7
:103FC0007070656421204865617465725F49443A88
:103FD00020004265642068656174696E67206661CF
:103FE000696C65640048656174696E672066616923
:103FF0006C65640045312048656174696E672066B0
:1040000061696C65640048656174696E672066610A
:10401000696C65640000D100CF0011241FBECFEF92
:10402000D1E2DEBFCDBF00E00CBF13E0A0E0B2E004
:10403000E0E2F9E502E00BBF02C007900D92A4395F
:10404000B107D9F728E1A4E9B3E001C01D92A83374
:10405000B207E1F710E2CCE0D0E200E006C0219721
:104060000109802FFE010F94D42BCB30D10780E0C3
:104070000807A9F70F946D130D947F2C0C94000082
:104080002F923F924F925F926F927F928F929F9268
:10409000AF92BF92CF92DF92EF92FF920F931F9356
:1040A000CF93DF93CDB7DEB7C356D1090FB6F894DF
:1040B000DEBF0FBECDBF41E040939A118091171132
:1040C0008D3409F4B3C3843511F40C946B35873403
:1040D00011F00C94B73520911511309116112B3138
:1040E000310509F47BC06CF42430310534F42230FE
:1040F000310564F537FF23C095C32430310579F1CC
:1041000091C32A32310509F486C24CF42C313105B1
:1041100009F494C02D31310509F495C083C32B35C2
:10412000310509F407C32C35310509F407C32A35D5
:10413000310509F077C3109298030C94B93580913A
:104140004F0281110C94BE350C94B93581E02230B8
:10415000310509F080E00E94EDBC0C94B93580E592
:104160000E943A3E882329F00E94803D6B017C0129
:1041700003C0C12CD12C760183E50E943A3E8823EE
:1041800061F00E94C03D20E030E04AE754E40F9423
:10419000E6240F94122A6B017C010E949BA9809156
:1041A0009506811105C060E08FE092E00E944063B7
:1041B0000E947AB9C60ED71EE81EF91E0E947AB96F
:1041C000DC01CB018C199D09AE09BF09B7FD02C006
:1041D0000C94B93580E00E94D9E3F0CF0E94C45915
:1041E00081110C94B93580E090E0A0E2B1E48983BC
:1041F0009A83AB83BC8380E090E0AEE3B3E48D832D
:104200009E83AF83B88780E090E0A0EAB1E489871D
:104210009A87AB87BC8780E50E943A3E882319F0D5
:104220000E94903D01C060E068A3BE016F5F7F4FB8
:10423000CE0180960E9438F60C94B93580E00E9439
:1042400028C50C94B93583E50E943A3E882311F1C4
:104250000E94A03D863070F0E6ECF2E084918F0180
:104260000F5F1F4F882311F40C94B9350E94203F33
:10427000F801F4CF833009F454C134F4813071F182
:10428000823009F43FC006C0843009F4ABC18530E8
:1042900009F4B8C10E9473C3882399F08091D303B5
:1042A000811103C069E373E002C065E373E08EE946
:1042B00092E00F943A058AE00E94203F0E94DFF6C8
:1042C000A6C1E6EAF2E084918F010F5F1F4F8823B9
:1042D00009F49DC10E94203FF801F5CF0E9491F79B
:1042E00010920102109200028091500981110AC0BF
:1042F00087E992E090936206809361060E944F3FA7
:104300000C94B935809100029091010297FF0EC084
:10431000EEE6F2E084918F010F5F1F4F882311F4C6
:104320000C94B9350E94203FF801F4CF0097A1F416
:10433000809121028093990319821A821B821C8228
:1043400018A219A21AA21BA2BE016F5F7F4FCE0155
:1043500080960E940AC52CC08150982F917897FFB3
:1043600003C091509E6F9F5FE92F87FD8F5F8595FA
:1043700080FF02C0E1E0E91BEE0FFF0BE80FF11D2B
:1043800087FDFA95EE0FFF1FEE0FFF1FE152FE4E65
:104390008091DC039091DD03A091DE03B091DF03F7
:1043A00080839183A283B3838091990380932102B8
:1043B0004091000250910102443051050CF062C05E
:1043C00010922102CA01019690930102809300028B
:1043D000842F817887FF03C081508E6F8F5F682F95
:1043E000A42E47FF03C0AA24A394A40E9A2D95954A
:1043F00090FF03C031E0632F681B19821A821B8271
:104400001C82E090DC03F090DD030091DE0310914C
:10441000DF0324E09202C0011124AC014A56534F3D
:104420005A01DA012D913D914D915C91B4E06B02FE
:10443000C0011124FC01E256F34F4F0160817181EC
:1044400082819381DE0111966D010E942EC4F401D8
:1044500080819181A281B3818093D4039093D5030D
:10446000A093D603B093D703F50180819181A281F7
:10447000B3818093D8039093D903A093DA03B093C8
:10448000DB0340C01092DC031092DD031092DE03C8
:104490001092DF030E94D7C30E949BA98FEF9FEF6A
:1044A0009093010280930002EAE5F2E084918F018B
:1044B0000F5F1F4F882321F00E94203FF801F6CFA5
:1044C00083E992E09A83898304E610E019A308A3A4
:1044D000BE016F5F7F4FCE0180960E945D598AEBCF
:1044E00092E09A83898319A308A3BE016F5F7F4F6F
:1044F000CE0180960E945D5981E00E9428C581E02E
:104500000E94B7C31092500960910002709101029D
:104510006530710514F40C94C33564E070E00C94BC
:10452000C33588E50E943A3E8823A1F00E94903D61
:104530000FEF060F0230A8F0E3E4F2E084918F0160
:104540000F5F1F4F882311F40C94B9350E94203F50
:10455000F801F4CF88E50E94203F0F943E1D0C9493
:10456000B93589E50E943A3E8823A1F00E94903D2A
:104570001FEF160F1230A8F0ECE2F2E084918F01E9
:104580000F5F1F4F882311F40C94B9350E94203F10
:10459000F801F4CF89E50E94203F0F943E1D0C9452
:1045A000B9358AE50E943A3E8823A9F00E94C03DB1
:1045B000212F110F330B200F311D200F311D220F22
:1045C000331F220F331FF901E152FE4E60837183C6
:1045D000828393831CC08AE50E94203F0F943E1D76
:1045E0000C94B9358AE50E943A3E8823A1F30E94D3
:1045F000C03D60935209709353098093540990937E
:10460000550905C080E00E94B7C30E9491F70E943F
:10461000F97E0C94B93580914F02882311F40C94E3
:10462000B93589E40E943A3EF82E882321F00E9491
:10463000903D062F01C000E08AE40E943A3EE82E39
:10464000882331F00E94903D162FF11004C00AC05B
:1046500010E0FF20B1F0023010F40C943339EDED8E
:10466000F2E003C01230D8F70CC084918F010F5FC5
:104670001F4F882311F40C94B9350E94203FF80194
:10468000F4CF0E940C3FFF2091F024E00202F001E1
:104690001124E256F34F80819181A281B3818093EE
:1046A000510690935206A0935306B0935406EE2001
:1046B00091F034E01302F0011124EA56F34F8081A7
:1046C0009181A281B3818093550690935606A09361
:1046D0005706B093580680E50E943A3E882319F0A9
:1046E0000E94B13D03C080E50E94F33D86E40E9434
:1046F0003A3E8823D9F00E94C03D6B017C0120E046
:1047000030E0A9010F94EF2A181684F420E030E07D
:1047100040E752E4C701B6010F94A52960934A020D
:1047200070934B0280934C0290934D020E9474E769
:104730000C94B935409398030C94B935E2E52E2ECC
:10474000E2E03E2EF5E4CF2EF6E0DF2EE12CF12C58
:1047500000E010E0D1018D911D010E943A3E8823B6
:1047600009F44EC00E94C03D2B013C01133059F0AA
:10477000F701EA5AF64F20813181428153810F942B
:10478000C8282B013C01F701EC52FC4F20813181FC
:1047900042815381C301B2010F94C8284B015C01CF
:1047A0002DEB37E346E855EB0F94EF2A87FD0AC05F
:1047B0002DEB37E346E855E3C501B4010F9481249E
:1047C0001816F4F4133051F44092E0035092E103D0
:1047D0006092E2037092E30301E012C0A50194012C
:1047E000F60160817181828193810F94C928D6017D
:1047F0006D937D938D939C931397812F0E9411C687
:104800001F5FB4E0CB0ED11CE4E0EE0EF11C1430BF
:1048100009F0A0CF002309F4FACE80EE93E00E94C5
:10482000655AF5CE0E941D5C0C94B9358091151126
:10483000909116118337910509F463C70CF0B0C04D
:104840008C34910509F440C40CF050C089319105B5
:1048500009F4B3C21CF58431910509F440C27CF41B
:104860008131910509F42CC22CF4029708F4AEC1F1
:104870000C946835429709F47FC60C9468358631EC
:10488000910509F473C20CF46DC28731910509F4E6
:1048900073C2489709F486C20C9468358E3191052D
:1048A00009F443C384F48B31910509F49AC20CF4E2
:1048B0008AC28C31910509F42EC34D9711F40C94E2
:1048C000B9350C9468358032910509F448C30CF46D
:1048D00089C38A32910509F4AFC38B34910511F075
:1048E0000C9468350F9462050C94B935893691059E
:1048F00009F4BCC544F58335910509F439C69CF427
:104900008E34910509F4E8C30CF4E2C381359105B6
:1049100009F419C68235910511F00C94683510928E
:1049200097030C94B9358535910509F45AC60CF4F2
:1049300023C68C35910509F46FC68836910509F4B4
:10494000CDC40C9468358E36910509F4F6C49CF4F8
:104950008B36910509F4E5C50CF4C5C58C36910577
:1049600009F44CC58D36910511F00C9468350E9400
:1049700093C60C94B9358037910509F443C50CF4FE
:10498000EFC48137910509F445C58237910511F0CF
:104990000C9468350E949BA90E94F97E0C94B9354D
:1049A0008232F1E09F0711F40C9402310CF07EC0CA
:1049B000883C910511F40C94222DACF589379105B2
:1049C00009F4C0C7DCF48637910509F409C734F44B
:1049D0008537910509F4F3C60C946835873791053E
:1049E00009F44AC78837910511F00C94683581E0C5
:1049F0008093C0038093BF030C94B935813991052E
:104A000009F4A6C734F48C38910509F439C50C941F
:104A100068358B39910509F42FC58E3B910509F452
:104A20004DC50C9468358E3C910511F40C94812E83
:104A300014F58B3C910511F40C94832D84F4893C7E
:104A4000910511F00C946835AAEAEA2EA0E1FA2E3D
:104A500002E512E0B4E0DB2ED00E0C946A2D8C3C03
:104A6000910511F40C94A12D8D3C910511F40C9439
:104A7000162E0C9468358C3D910511F40C945E3023
:104A80004CF4833D910511F00C946835E0EFFFE2A2
:104A90000C94802F8D3D910511F40C946B30823E67
:104AA000910511F40C94D9300C9468358C3A31E0AE
:104AB000930711F40C94A32E0CF040C0833661E0F0
:104AC000960711F40C941535DCF48D32A1E09A07A9
:104AD00011F40C9436313CF48C32914011F40C9466
:104AE0000D310C9468358E32F1E09F0711F40C946F
:104AF000D7318F32914011F40C942B320C946835DD
:104B00008A3931E0930709F481C44CF4803991402B
:104B100011F00C9468350E949BA90C94B935843A25
:104B200061E0960711F40C942E35853A914011F00E
:104B30000C9468350E94747D0C94B935883FA1E0CF
:104B40009A0711F40C944335ECF4853FE1E09E079D
:104B500011F40C9431354CF4843F914011F00C94D5
:104B600068350E9451B00C94B935863F31E0930707
:104B700011F40C943435873F914011F40C9437357F
:104B80000C9468358B3853E0950711F40C94B935C3
:104B90007CF4883572E0970711F40C9465358B35F9
:104BA000924011F00C9468350E947E780C94B935CF
:104BB000803AB3E09B0709F411C2873E934011F09D
:104BC0000C9468350E9469780C94B935A090131143
:104BD000B090141180E50E943A3E882359F00E945B
:104BE000803D6B017C0111E0672B682B692B31F450
:104BF00010E004C010E0C12CD12C760183E50E94A6
:104C00003A3E882311F40C94D2350E94C03D20E036
:104C100030E04AE754E40F94E6240F94122A6B0123
:104C20007C0111110BC0672B682B692B39F4A1147F
:104C3000B10421F0D5018C91811102C010E001C0B6
:104C400011E00E949BA9112329F061E0C5010E9497
:104C50007C6305C060E08CEF92E00E94406383E0DB
:104C600080939A1181E08093E708C114D104E10494
:104C7000F104F1F00E947AB9C60ED71EE81EF91EA3
:104C80000E947AB9DC01CB018C199D09AE09BF09DC
:104C9000B7FD06C00F94FA0A1092E7080C94B935D4
:104CA0008091E7088823B1F380E00E94D9E3E8CF40
:104CB0008091E708882371F380E00E94D9E3F8CF60
:104CC00060E08FE093E00E9440635F988A98809153
:104CD000080181708093060112980C94B935E7E2BF
:104CE000F3E084918F010F5F1F4F882321F00E9412
:104CF000203FF801F6CF1092620F40E050E0BA0179
:104D000085E19DE00E9403FC8BE1E5E1FDE0DE0131
:104D1000159601900D928A95E1F78091130D90916F
:104D2000140D9C838B8383E093E09A83898340E016
:104D300050E0BE016F5F7F4F80E090E00E9450CC5A
:104D4000CE0101960E942554E8E1F3E084918F01A1
:104D50000F5F1F4F882311F40C94B9350E94203F38
:104D6000F801F4CF0E941B580C94B9351092E50C51
:104D70001092E60C0C94B935E0911311F0911411D6
:104D80008081882329F0803209F410823196F8CF8F
:104D900040E061E080911311909114110E9400563F
:104DA0000C94B9358091E60C882319F081E080934A
:104DB000E50C0F9462050C94B9351092E50C0F9434
:104DC000CF100C94B9358091E60C882311F40C9423
:104DD000B93583E50E943A3E81110C94D7350C9485
:104DE000B93583E40E94F33D882309F454C0E5E615
:104DF000F3E084918F010F5F1F4F882321F00E9401
:104E0000203FF801F6CF8091B00E882391F0BE01CB
:104E10006F5F7F4F8DEA9EE00E94E74B8E010F5F30
:104E20001F4FF80181918F01882381F10E94203F5B
:104E3000F8CFE8E3F3E084918F010F5F1F4F8823E1
:104E400029F10E94203FF801F6CF80916E06882359
:104E500009F4C7C277EEC72E73E0D72EE12CF12CF0
:104E600020E080916E0690E00E2C02C0959587950B
:104E70000A94E2F780FD9DC2FFEFEF1AFF0A32E0CD
:104E8000C30ED11C45E0E416F10459F78AE00E94F4
:104E9000203F0C94B9358091E60C882371F1809104
:104EA000E50C882351F1E2E4F3E084918F010F5F78
:104EB0001F4F882321F00E94203FF801F6CF609118
:104EC0005E0F70915F0F8091600F9091610F4AE0CB
:104ED0000E9441428FE20E94203F60915A0F7091E0
:104EE0005B0F80915C0F90915D0F4AE00E94414200
:104EF0008AE00E94203F0C94B935E4E5F3E0849108
:104F00008F010F5F1F4F882311F40C94B9350E9455
:104F1000203FF801F4CF40E060E0809113119091C0
:104F200014110E9400560C94B9358091E60C882328
:104F300011F40C94B9358DEA9EE00E94C2FB8DEA13
:104F40009EE00E94374C1092E40C1092E30C80918A
:104F50001311909114110E94D7C90C94B935809106
:104F6000E50C81110E949BA98091E60C882311F425
:104F70000C94B93580E50E943A3E882319F00E94CE
:104F8000B13D03C080E50E94F33D182F482F61E03A
:104F900080911311909114110E94005683E50E9494
:104FA0003A3E882381F00E94903DAB01BC014093C2
:104FB0005E0F50935F0F6093600F7093610F8DEAE7
:104FC0009EE00E9403FC8091E60C882319F081E0AA
:104FD0008093E50C11110C94B935EBCE0E9422BBE5
:104FE0000C94B9350F949B1068A379A38AA39BA353
:104FF000BE016F5F7F4FCE0180960E94463E60E00B
:10500000CE0101960E947C63E0EFFFE284918F0164
:105010000F5F1F4F882321F00E94203FF801F6CF39
:10502000BE016F5F7F4F84E793E00F943A058AE0FB
:105030000E94203F0C94B93583E50E943A3E8823B4
:1050400011F40C94B9350E94A03DE82E80E50E9431
:105050003A3E882339F00E94A03D182F87FF03C0F5
:105060000C94B9351DE089E40E943A3E882349F04A
:105070000E94B13D811111C0E7E0F7E08DE28E0F93
:1050800007C089E40E94F33DF5CF31968E1729F0D1
:1050900094911913FACF0C94913761E0812F0E94FB
:1050A0003FB86E2D812F0E9472B7F12CB701812F6E
:1050B0000E947BB8193011F00C94B935F0922F187A
:1050C000E0922E180C94B9350F94CF100C94B9358A
:1050D0000F94C0050C94B93583E50E943A3E8111C6
:1050E00003C0EFEDF3E009C00E94903D6E347105FE
:1050F000C1F70F9430060C94B93584918F010F5F7E
:105100001F4F882321F00E94203FF801F6CFE6EDE3
:10511000F3E084918F010F5F1F4F882321F00E94DD
:10512000203FF801F6CF6091AF037091B00380E0AB
:1051300090E04AE00E944142E9ECF3E084918F0163
:105140000F5F1F4F882321F00E94203FF801F6CF08
:105150006091B1037091B20380E090E04AE00E9458
:105160004142EEEBF3E084918F010F5F1F4F8823E4
:1051700021F00E94203FF801F6CF6091AF037091BB
:10518000B0038091B1039091B203681B790B8091B9
:10519000AD03815021E030E0823010F020E030E0BB
:1051A000621B730B80E090E04AE00E9441428AE07B
:1051B0000E94203FE6EBF3E084918F010F5F1F4FC9
:1051C000882321F00E94203FF801F6CF8091B3039D
:1051D0009091B403A091B503B091B60388A399A3AD
:1051E000AAA3BBA3BE016F5F7F4FCE0180960E9432
:1051F000463EE9EAF3E084918F010F5F1F4F811172
:1052000006C09E012F5F3F4F7901890104C00E94B3
:10521000203FF801F0CFD8018D918D01882319F03E
:105220000E94203FF8CF8091B7039091B803A091DE
:10523000B903B091BA0388A399A3AAA3BBA3BE01E3
:105240006F5F7F4FCE0180960E94463EE9E9F3E012
:1052500084918F010F5F1F4F882321F00E94203F10
:10526000F801F6CFF70181917F01882319F00E94A0
:10527000203FF8CF8AE00E94203FE1E9F3E08491EB
:105280008F010F5F1F4F882321F00E94203FF801FC
:10529000F6CFE1E8F3E084918F010F5F1F4F882381
:1052A00021F00E94203FF801F6CF20E030E04AE7ED
:1052B00054E46091BB037091BC038091BD03909155
:1052C000BE030F94A52942E00E94C1428DE60E94D0
:1052D000203F8AE00E94203F0C94B93588E690E098
:1052E0000E9451C681110C94B93580916E0683FFDE
:1052F00002C00C94B93583E50E943A3E8823C9F078
:105300000E94C03D0F940D2A70936D0660936C0649
:1053100080E00E94A4870E94C03D20E030E04AEA7D
:1053200052E40F948124181624F00F94C0050F94B2
:10533000FA0A0F94B8070C94B9358EE40E943A3EED
:10534000882311F40C94B9350E94903D6093D008E5
:105350007093D1088093D2089093D3080C94B935F8
:1053600083E50E94F33D882359F083E50E943A3E8D
:10537000882319F00E94A03D01C080E080936E0652
:10538000E0EFFFE284918F010F5F1F4F882321F030
:105390000E94203FF801F6CFE5EFF3E084918F0102
:1053A0000F5F1F4F882309F450CD0E94203FF80162
:1053B000F5CFBB24B394B20E222319F08CE20E94E5
:1053C000203FF60125913491F901849189010F5F05
:1053D0001F4F882321F00E94203F9801F5CF2B2DED
:1053E0004BCDE1EFF3E084918F010F5F1F4F8823D6
:1053F00009F44CCD0E94203FF801F5CF10920A022B
:105400000C94B9358CEF93E00E942D540E94587E85
:105410000C94B93583E50E943A3E882369F00E94D6
:10542000A03D8D3320F480934E020C94B9358CE36B
:1054300080934E020C94B935E0EFFFE284918F0126
:105440000F5F1F4F882321F00E94203FF801F6CF05
:1054500040914E0250E060E070E085E094E00F94EF
:10546000E7048AE00E94203F0C94B9350E946AC884
:1054700010929A110C9439390E94F5BA0C94B935EE
:1054800080916E0683FF02C00C94B93583E50E94BB
:105490003A3E882311F40C94B9350E94C03D0F9414
:1054A0000D2A6639710514F066E970E070932D18C5
:1054B00060932C180E9459870C94B93580916E0620
:1054C00083FF02C00C94B93583E50E943A3E8AAB53
:1054D00081110C94E73582E50E943A3E81110C94CB
:1054E000E7350C94B93580E50E943A3E811106C03B
:1054F00083E50E943A3E882361F006C00E94A03DE9
:1055000081110C94B935F4CF0E94903D6F3F710525
:1055100010F06FEF70E070932F1860932E180C94BA
:10552000B93580E50E943A3E811106C010922F18CD
:1055300010922E180C94B9350E94903D672B11F0F3
:105540000C94B935F3CF0E94EF870E9406AA1092FF
:105550002F1810922E1868EE73E080E090E00E9401
:10556000526260E08EE294E00E9440630C94B93590
:10557000409397030C94B93583E50E943A3E882303
:10558000A1F00E94C03D20E030E04AE754E40F94CF
:10559000E6240F94122A60939B1170939C118093C0
:1055A0009D1190939E110C94B93588E50E94F33DAE
:1055B00081110C94643789E50E94F33D81110C94AC
:1055C00064378AE50E94F33D81110C94643785E4C9
:1055D0000E94F33D81110C9464370E9406AA0C943A
:1055E000B93583E50E94F33D882311F40C94B93555
:1055F0000E94C03D20E030E04AE754E40F94E624E6
:105600000F94122A6093A3117093A4118093A51193
:105610009093A6110C94B93532E5C32E32E0D32E07
:1056200043E8E42E46E0F42E10E0D6018D916D01A2
:105630000E94F33D882309F459C0133009F04FC08C
:105640000E94C03D4B015C0120E030E040EA51E4A3
:105650000F94812487FF3AC0A501940160918F06C1
:105660007091900680919106909192060F94A529D1
:105670002B013C019B01AC016091A6107091A71019
:105680008091A8109091A9100F94E6246093A61021
:105690007093A7108093A8109093A91060910112A5
:1056A0007091021280910312909104120F9485243C
:1056B000A30192010F94E6240F94122A6093011221
:1056C00070930212809303129093041280928F06BB
:1056D00090929006A0929106B092920607C00E9406
:1056E000C03DF70160837183828393831F5FF4E081
:1056F000EF0EF11C143009F098CF0F9437090C9479
:10570000B935E5E2F5E084918F010F5F1F4F8823E3
:1057100021F00E94203FF801F6CF60E085E195E09E
:105720000E94B57E61E08EE095E00E94B57E61E06A
:1057300083E095E00E94B57E61E083EF94E00E94F3
:10574000B57E60E08AEE94E00E94B57E61E080EE76
:1057500094E00E94B57E60E086ED94E00E94B57E04
:1057600060E08EEC94E00E94B57E61E080EC94E015
:105770000E94B57E60E082EB94E00E94B57E60E01E
:1057800083EA94E00E94B57E60E085E994E00E949F
:10579000B57E60E08FE794E00E94B57E60E08EE623
:1057A00094E00E94B57E60E089E594E00E94B57EB9
:1057B00061E086E494E00E94B57E0C94B935809156
:1057C000131190911411DC012C91211104C00F943C
:1057D000FA0A0C94B93560E00E947C630C94B935E8
:1057E000009113111091141183E0D12C40E08150ED
:1057F000E1F0F8019081292F2B7F2134C1F721811D
:105800002133A9F7913421F0953421F441E002C00D
:10581000DD24D39498012E5F3F4F89012F5F3F4FC6
:10582000D8019C919032C9F3E2CF442369F0E0EFB4
:10583000FFE284917F01BFEFEB1AFB0A882321F07E
:105840000E94203FF701F5CFDD2069F0EEEFF5E093
:1058500084917F012FEFE21AF20A882321F00E943F
:10586000203FF701F5CFD8018D918D01882309F4F0
:105870000DCB0E94203FF7CFEAE1F6E084918F0143
:105880000F5F1F4F882321F00E94203FF801F6CFC1
:10589000E2E1F6E084918F010F5F1F4F882321F032
:1058A0000E94203FF801F6CF659903C00DE313E095
:1058B00002C002E413E0F80181918F01882319F0FE
:1058C0000E94203FF8CF8AE00E94203FEAE0F6E005
:1058D00084918F010F5F1F4F882321F00E94203F8A
:1058E000F801F6CF8091030180FD03C00DE313E0C2
:1058F00002C002E413E0D8018D918D01882319F0D4
:105900000E94203FF8CF8AE00E94203FE2E0F6E0CC
:1059100084918F010F5F1F4F882321F00E94203F49
:10592000F801F6CF4A9903C00DE313E002C002E488
:1059300013E0F80181918F01882309F4A7CA0E941E
:10594000203FF7CF1092C0031092BF030C94B935DB
:1059500083E50E943A3E882319F00E94903D02C0E0
:1059600060E070E08B01112702301105D4F0EEE603
:10597000F8E184918F010F5F1F4F882321F00E946F
:10598000203FF801F6CFE4E3F6E084918F010F5F4A
:105990001F4F882311F40C94B9350E94203FF80161
:1059A000F4CF88E40E943A3E8823A9F00E94903DFB
:1059B0006A3A71053CF06530F1E07F072CF064E055
:1059C00071E002C06AEA70E0F801EE0FFF1FE657CF
:1059D000FF4E7183608386E40E943A3E8823A9F0DB
:1059E0000E94903DF801EE0FFF1FE257FF4E7183BA
:1059F00060836F3F710519F014F06FEF70E077FF6F
:105A000002C060E070E07183608382E40E943A3EED
:105A1000882311F40C94B9350E94903D65307105CE
:105A200034F0683871052CF067E870E002C065E07A
:105A300070E0000F111FF801EA57FF4E7183608379
:105A40000C94B93588EC90E00E9451C681110C94F9
:105A5000B93584E40E94F33D8823C1F10E94C03D22
:105A600011E020E030E0A9010F948124811101C0F0
:105A700010E01093D610112349F10E94C03DE0912F
:105A8000A10924E0E29FF0011124EE52FF4E608351
:105A900071838283938320E030E0A9016091D2106A
:105AA0007091D3108091D4109091D5100F948124CF
:105AB00081110CC080E090E0A0EEBFE38093D21093
:105AC0009093D310A093D410B093D5100E940B994B
:105AD0000C94B935D8018D918D010E94F33D882336
