:100000000C94490F0C947A0F0C947A0F0C947A0F7D
:100010000C947A0F0C947A0F0C947A0F0C947A0F3C
:100020000C947A0F0C947A0F0C947A0F0C947A0F2C
:100030000C947A0F0C947A0F0C947A0F0C947A0F1C
:100040000C947A0F0C94F4610C947A0F0C947A0F40
:100050000C947A0F0C947A0F0C94F3310C94DD2EDF
:100060000C947A0F0C94EA190C947A0F0C947A0F72
:100070000C947A0F0C947A0F0C947A0F0C947A0FDC
:100080000C947A0F0C947A0F0C947A0F0C947A0FCC
:100090000C947A0F0C947A0F0C947A0F0C947A0FBC
:1000A0000C947A0F0C947A0F0C947A0F0C947A0FAC
:1000B0000C947A0F0C947A0F0C947A0F0C947A0F9C
:1000C0000C947A0F0C947A0F0C947A0F0C947A0F8C
:1000D0000C947A0F0C947A0F0C947A0F0C947A0F7C
:1000E0000C947A0F462C492C382C3C2C422C802C1A
:1000F0004D2C512C572C5B2C5F2C652C692C6D2CB6
:10010000802C732C772C7B2C602D652D6A2D742D03
:100110007E2DF72D882D902D982DA22DAC2DB62D4E
:10012000C52DCF2DF72DD92DE32DED2D084AD73B29
:100130003BCE016E84BCBFFDC12F3D6C74319ABDB6
:1001400056833DDA3D00C77F11BED9E4BB4C3E91DA
:100150006BAAAABE000000803F05A84CCDB2D44EC9
:10016000B93836A9020C50B9918688083CA6AAAACB
:100170002ABE000000803F004E414E494E4954596E
:10018000494E46CDCCCC3D0AD7233C17B7D1387762
:10019000CC2B329595E6241FB14F0A000020410078
:1001A00000C84200401C4620BCBE4CCA1B0E5AAEC2
:1001B000C59D74434F4D4D554E49434154494F4E93
:1001C0000044525952554E004552524F5253004925
:1001D0004E464F004543484F0047322F4733206279
:1001E000616420706172616D65746572730A0020CC
:1001F0006F6620004D424C2047323920706F696E87
:1002000074200059206F7574206F662072616E67CC
:10021000652028312D33292E0A0058206F7574204F
:100220006F662072616E67652028312D33292E0A92
:10023000004D6573682070726F62696E6720646F2D
:100240006E652E0A005374617274206D65736820A8
:1002500070726F62696E6720776974682022473216
:1002600039205331222066697273742E0A00473296
:10027000392053320053746174653A20004D657320
:100280006820626564206C6576656C696E672068BD
:100290006173206E6F20646174612E0A0053206FB9
:1002A0007574206F662072616E67652028302D3569
:1002B000292E0A004D65736820706F696E74206383
:1002C000616E6E6F74206265207265736F6C766507
:1002D000640A005072696E742074696D653A20007A
:1002E000D401CF01C801C101B3016F666600444566
:1002F0004255473A004B494C4C45442E20004D3165
:1003000031332053006F6B0020573A0020573A00DA
:10031000544845524D414C5F50524F544543544907
:100320004F4E004155544F5245504F52545F534425
:100330005F53544154555300454D455247454E4334
:10034000595F50415253455200434153455F4C4918
:100350004748545F4252494748544E45535300540E
:100360004F47474C455F4C494748545300534F460D
:1003700054574152455F504F574552004255494CE2
:10038000445F50455243454E54004C4556454C49F8
:100390004E475F44415441005A5F50524F4245001E
:1003A0004155544F4C4556454C005052494E545FB0
:1003B0004A4F420050524F47524553530041555403
:1003C0004F5245504F52545F54454D5000564F4C7C
:1003D000554D455452494300454550524F4D0053E9
:1003E000455249414C5F584F4E5F584F4646004674
:1003F00049524D574152455F4E414D453A4D61720C
:100400006C696E204A313850535F323030333037A8
:100410005F313434365F484120534F555243455F76
:10042000434F44455F55524C3A68747470733A2F89
:100430002F6769746875622E636F6D2F61686172D2
:10044000736861632F46574A756C69613230313881
:100450004D61726C696E2050524F544F434F4C5F48
:1004600056455253494F4E3A312E30204D41434864
:10047000494E455F545950453A4A756C6961205060
:10048000726F2053696E676C65204558545255440D
:1004900045525F434F554E543A3120555549443AE1
:1004A00039653639626530622D643736632D3432F2
:1004B00034662D396332382D30666264316266618C
:1004C000663735610A002F2F20002054002052008B
:1004D000416363656C65726174696F6E3A205000A8
:1004E0003F4A206F7574206F662072616E676520C9
:1004F00028302E303120746F20302E33290A00002E
:1005000000A0C10000C8430000C843546F6F2066BC
:1005100061722066726F6D207265666572656E63CA
:100520006520706F696E740A00FF0101205A002077
:100530005900580020204D61783A2000205A0020B0
:100540005900580020204D696E3A20004F6E20005F
:100550004F666600536F667420656E6473746F70C7
:10056000733A200020466C6F773A2000000136373E
:100570002603FFFFFF353C3D38FF0FFFFF312E30D4
:100580003EFF13FFFFFF28FF0C0809FFFFFF1A1CA7
:1005900018FFFF2A08440AFF4320643A0020693A02
:1005A0000020703A00496E76616C69642065787449
:1005B00072756465720A0043290A0061626C6564A1
:1005C00020286D696E2074656D702000436F6C6427
:1005D0002065787472756465732061726520004EC1
:1005E0006F2063617365206C696768740A004D65EC
:1005F000736820706F696E742063616E6E6F742013
:100600006265207265736F6C7665640A004D3432E2
:100610003120696E636F72726563742070617261FC
:100620006D657465722075736167650A0045455094
:10063000524F4D204F4B0A00416374697665204547
:10064000787472756465723A2000496E76616C69DF
:10065000642065787472756465720A00205A3A00E5
:1006600020593A0020583A00656E6473746F7073B5
:10067000206869743A20002569730025696D20257A
:100680006973002569682025696D20256973002537
:100690006964202569682025696D20256973002516
:1006A000697920256964202569682025696D2025E0
:1006B000697300656E7175657565696E67202200E6
:1006C0004C696E65204E756D626572206973206E8F
:1006D0006F74204C617374204C696E65204E756D8B
:1006E0006265722B312C204C617374204C696E65ED
:1006F0003A20004B494C4C45442E20005072696E04
:100700007465722073746F70706564206475652001
:10071000746F206572726F72732E20466978207430
:100720006865206572726F7220616E6420757365F2
:10073000204D39393920746F207265737461727479
:100740002E202854656D706572617475726520691C
:10075000732072657365742E20536574206974204C
:1007600061667465722072657374617274696E6714
:10077000290A004E6F20436865636B73756D20779F
:10078000697468206C696E65206E756D6265722C87
:10079000204C617374204C696E653A200063686573
:1007A000636B73756D206D69736D617463682C2064
:1007B0004C617374204C696E653A20004D313130C4
:1007C0000020496E76616C69642065787472756486
:1007D0006572200000000000000000000000000022
:1007E0000000C8430000C8430000C843486F6D695B
:1007F0006E67206661696C656400206E6F742065A9
:100800006E74657265642E0A0050726F746563744D
:1008100065642050696E0A0046696C616D656E748E
:1008200020757365643A200053746174733A200034
:100830002C204C6F6E67657374206A6F623A2000DB
:10084000546F74616C2074696D653A200053746153
:1008500074733A20002C204661696C65643A20006C
:100860002C2046696E69736865643A20005072698D
:100870006E74733A200053746174733A200024F448
:10088000D43050C38E20C2A24017828B7011127ACE
:10089000910D816CD90AA861E108C75866076151BA
:1008A00043061E4B5D05C145A7041A411104093DCD
:1008B0009803713931034036DB0265339102D4303D
:1008C0005402802E1D02632CEE01752AC501B0284A
:1008D000A001102781018F2564012B244B01E02208
:1008E0003401AC211F018D200D01801FFC00841EEE
:1008F000ED00971DDF00B81CD200E61BC600201BD0
:10090000BC00641AB200B219A8000A19A0006A1843
:100910009900D117910040178B00B516840031164D
:100920007E00B31579003A157300C7146F00581490
:100930006A00EE1366008813630025135E00C71279
:100940005B006C12570015125400C1115100701158
:100950004F0021114B00D61049008D104700461062
:10096000440002104200C00F4000800F3E00420FC2
:100970003C00060F3B00CB0E3800930E37005C0E98
:100980003500270E3400F30D3200C10D3100900DFB
:100990003000600D2E00320D2D00050D2C00D90CFD
:1009A0002B00AE0C2900850C29005C0C2700350CAF
:1009B00027000E0C2600E80B2400C40B2400A00B1B
:1009C00023007D0B23005A0B2100390B2100180B4B
:1009D0002000F80A1F00D90A1E00BB0A1E009D0A4B
:1009E0001D00800A1D00630A1C00470A1B002C0A18
:1009F0001B00110A1A00F7091A00DD091900C409C1
:100A00001900AB091900920917007B091800630946
:100A100017004C09160036091600200916000A09AD
:100A20001500F5081500E0081400CC081400B808FB
:100A30001400A4081400900813007D0812006B082D
:100A40001300580812004608120034081100230849
:100A500011001208110001081100F0071000E00752
:100A60001000D0071000C0071000B0070F00A1074A
:100A7000100091070E0083070F0074070F00650731
:100A80000E0057070E0049070E003B070D002E070A
:100A90000E0020070D0013070D0006070D00F906D4
:100AA0000C00ED060D00E0060C00D4060C00C80694
:100AB0000C00BC060C00B0060C00A4060B00990646
:100AC0000C008D060B0082060B0077060B006C06EF
:100AD0000B0061060A0057060B004C060A0042068E
:100AE0000A0038060A002E060A0024060A001A0622
:100AF0000A001006090007060A00FD050900F405B2
:100B00000900EB050900E2050900D9050900D00537
:100B10000900C7050900BE050900B5050800AD05B7
:100B20000800A50509009C050800940508008C052F
:100B30000800840508007C050800740508006C05A1
:100B40000700650508005D050700560508004E050D
:100B50000700470507004005080038050700310574
:100B600007002A050700230507001C0506001605D7
:100B700007000F0507000805060002050700FB0433
:100B80000600F5040700EE040600E8040600E2048F
:100B90000700DB040600D5040600CF040600C904E4
:100BA0000600C3040600BD040600B7040600B10435
:100BB0000500AC040600A6040600A00405009B0482
:100BC000060095040500900406008A0405008504CB
:100BD0000500800406007A04050075040500700411
:100BE00005006B04050066040500610405005C0453
:100BF000050057040500520405004D040500480493
:100C00000500430405003E0404003A0405003504D1
:100C10000500300404002C0405002704040023040C
:100C200005001E0404001A04040016040500110443
:100C300004000D0404000904050004040400000479
:100C40000400FC030400F8030400F4030400F003B0
:100C50000400EC030400E8030400E4030400E003E0
:100C60000400DC030400D8030400D4030400D00310
:100C70000400CC030400C8030300C503030024F4EC
:100C800004D9201BC40C5C0E9804C4095F026507DC
:100C90007101F405F900FB04B30048048700C103A7
:100CA00069005803550003034500BE023A00840260
:100CB000310053022A002902250004022000E40129
:100CC0001C00C8011900AF0117009801140084012D
:100CD0001300710110006101100051010E00430169
:100CE0000D0036010B002B010B0020010B0015013C
:100CF00009000C01090003010800FB000800F300D3
:100D00000800EB000700E4000600DE000600D80043
:100D10000600D2000600CC000500C7000500C20096
:100D20000500BD000400B9000400B5000400B100D6
:100D30000400AD000400A9000400A5000300A20007
:100D400003009F0004009B0003009800030095002F
:100D5000020093000300900003008D0002008B004E
:100D60000300880002008600020084000300810066
:100D700002007F0002007D0002007B00020079007B
:100D80000200770001007600020074000200720089
:100D90000100710002006F0002006D0001006C0094
:100DA00002006A000100690002006700010066009D
:100DB00001006500010064000200620001006100A2
:100DC0000100600001005F0002005D0001005C00A6
:100DD00001005B0001005A000100590001005800A9
:100DE00001005700010056000100550001005400A9
:100DF00001005300000053000100520001005100A7
:100E00000100500001004F0001004E0000004E00A4
:100E100001004D0001004C0001004B0000004B00A0
:100E200001004A000100490001004800000048009C
:100E30000100470001004600000046000100450097
:100E40000000450001004400010043000000430091
:100E5000010042000000420001004100000041008A
:100E60000100400001003F0000003F0001003E0083
:100E700000003E0001003D0000003D0001003C007C
:100E800000003C0000003C0001003B0000003B0073
:100E900001003A0000003A0001003900000039006A
:100EA0000100380000003800000038000100370061
:100EB0000000370001003600000036000000360058
:100EC000010035000000350000003500010034004D
:100ED0000000340000003400010033000000330043
:100EE0000000330001003200000032000000320038
:100EF000010031000000310000003100010030002D
:100F0000000030000000300001002F0000002F0022
:100F100000002F0000002F0001002E0000002E0016
:100F200000002E0001002D0000002D0000002D000B
:100F300000002D0001002C0000002C0000002C00FF
:100F400000002C0001002B0000002B0000002B00F3
:100F500000002B0001002A0000002A0000002A00E7
:100F600000002A00010029000000290000002900DB
:100F700000002900000029000100280000002800CE
:100F800000002800000028000000280001002700C1
:100F900000002700000027000000270000002700B5
:100FA00001002600000026000000260000002600A8
:100FB000000026000100250000002500000025009B
:100FC000000025000000250000002500010024008D
:100FD0000000240000002400000024000000240081
:100FE0000100230000002300000023000000230074
:100FF0000000230000002300000023000100220065
:101000000000220000002200000022000000220058
:10101000000022000100210000002100000021004A
:10102000000021000000210000002100000021003C
:10103000010020000000200000002000000020002F
:101040000000200000002000000020000000200020
:1010500001001F0000001F0000001F0000001F0013
:1010600000001F0000001F0000001F0001001E0004
:1010700000001E0000001E0000001E0000003930AD
:1010800000003325000087190000B00F0000DB08C6
:101090000000BD040000740200003F010000627502
:1010A00073793A2070617573656420666F72206988
:1010B0006E7075740A00627573793A207061757389
:1010C000656420666F7220757365720A00627573BD
:1010D000793A2070726F63657373696E670A004BAB
:1010E000494C4C45442E20004B494C4C20636175C3
:1010F00073656420627920746F6F206D756368205A
:10110000696E6163746976652074696D65202D2050
:1011100063757272656E7420636F6D6D616E643A93
:1011200020005072696E7465722068616C74656429
:101130002E206B696C6C28292063616C6C656421BE
:101140000A002020506C616E6E657242756666659D
:101150007242797465733A20002046726565204DAD
:10116000656D6F72793A2000436F6D70696C6564CC
:101170003A204D617220203720323032300A002070
:101180007C20417574686F723A20467261636B749B
:10119000616C20576F726B730A00323032302D3021
:1011A000332D30372031343A343600204C6173749B
:1011B00020557064617465643A20004275696C64FE
:1011C0003A204A313850535F3230303330375F3154
:1011D0003434365F48410A00467261636B74616C57
:1011E00020576F726B73204A756C69612050726F63
:1011F0002053696E676C650A00312E312E390A0062
:101200004D61726C696E0020536F66747761726510
:101210002052657365740A00205761746368646FB7
:10122000672052657365740A002042726F776E20E2
:101230006F75742052657365740A00204578746573
:10124000726E616C2052657365740A00506F776529
:101250007255700A0073746172740A00000048428B
:10126000000048420000A041000000005761726E7B
:10127000696E673A20486F6D696E672042756D70C0
:101280002044697669736F72203C20310A000202A3
:10129000040000A0400000A040000000400000C882
:1012A000430000C8430000C8434572726F72207744
:1012B000726974696E6720746F20454550524F4DB6
:1012C000210A001000600350012C0190012201D07E
:1012D00001180110020E0170020401E002FA006020
:1012E00003F0000004E600B004DC00A005D200B06A
:1012F00006C8000008BE00A009B400800BAA00D0F8
:101300000DA00090109600C0138C00701782009002
:101310001B780010206E00C0246400E02D50008077
:10132000353C00A03A2800A03D1400003F0000A07A
:101330003FECFF4B494C4C45442E2000202D2049CA
:101340006E76616C6964206578747275646572206C
:101350006E756D62657220210A00453120457272FA
:101360003A204D415854454D50004572723A204D37
:10137000415854454D5020424544004D4158544534
:101380004D5020747269676765726564004531204D
:101390004572723A204D494E54454D500045727287
:1013A0003A204D494E54454D5020424544004D4948
:1013B0004E54454D502074726967676572656400CC
:1013C000202F002042403A0020403A000000210037
:1013D000240027002A002D00300033000101000006
:1013E000040107010A0100002200250028002B004B
:1013F0002E003100340002010000050108010B013C
:10140000000020002300260029002C002F003200BD
:101410000001000003010601090105050505070596
:1014200008080808020202020A0A08080404040460
:10143000010101010101010103030303030303038C
:10144000040707070C0C0C0C0C0C0C0C020202021B
:1014500006060606060606060B0B0B0B0B0B0B0B04
:1014600001021020200808102040102040800201B6
:10147000020108040201010204081020408080409B
:10148000201008040201800402018040201008049A
:101490000201080402010102040810204080010238
:1014A00004081020408000000A0B02090C0D0E08F1
:1014B000070304010000000000000000000000001D
:1014C000000000000000000000000000000000001C
:1014D00000001211100000000000000000000000D9
:1014E00000000000000000000000000020746F6F8A
:1014F000206C6F6E6720657874727573696F6E20EB
:1015000070726576656E7465640A0020636F6C6442
:1015100020657874727573696F6E20707265766578
:101520006E7465640A00454550524F4D20646174E5
:101530006173697A65206572726F722E0A00290ADA
:10154000002062797465733B2063726320005365E9
:101550007474696E67732053746F72656420280019
:10156000290A002062797465733B2063726320004E
:101570002073746F7265642073657474696E677329
:10158000207265747269657665642028002028637E
:10159000616C63756C6174656429210A0020213DCA
:1015A0002000454550524F4D20435243206D6973F2
:1015B0006D61746368202D202873746F72656429CF
:1015C00020002053697A653A2000496E6465783AB4
:1015D0002000204D61726C696E3D563535290A0038
:1015E00028454550524F4D3D00454550524F4D20E6
:1015F00076657273696F6E206D69736D617463686F
:101600002000205A3A0020423A0020436F756E7441
:1016100020413A0020453A00205A3A0020593A0029
:10162000583A003A004361703A0023646566696E77
:10163000652044454641554C545F4B64200023646B
:101640006566696E652044454641554C545F4B695B
:10165000200023646566696E652044454641554C0B
:10166000545F4B702000504944204175746F74756D
:101670006E652066696E69736865642120507574B3
:1016800020746865206C617374204B702C204B694A
:1016900020616E64204B6420636F6E7374616E749E
:1016A000732066726F6D2062656C6F7720696E744F
:1016B0006F20436F6E66696775726174696F6E2E15
:1016C000680A00504944204175746F74756E652036
:1016D0006661696C6564212074696D656F75740A53
:1016E00000453120544845524D414C2052554E4101
:1016F00057415900546865726D616C2052756E6176
:101700007761790045312048656174696E672066AC
:1017100061696C65640048656174696E6720666123
:10172000696C656400504944204175746F74756E2E
:1017300065206661696C6564212054656D70657211
:10174000617475726520746F6F20686967680A003C
:10175000204B643A2000204B693A2000204B703A1D
:1017600020000A20436C6173736963205049442050
:101770000A002054753A2000204B753A2000206D55
:1017800061783A2000206D696E3A200020643A208A
:101790000020626961733A20005049442041757409
:1017A0006F74756E65206661696C656421204261A5
:1017B00064206578747275646572206E756D6265FB
:1017C000720A00504944204175746F74756E65202B
:1017D00073746172740A00426564204C6576656CAE
:1017E000696E6720004661696C656420746F2065CE
:1017F0006E61626C6520426564204C6576656C693B
:101800006E670A004D65736820426564204C6576FA
:10181000656C20646174613A0A00526573656E6498
:101820003A20006F6B0020746F6F206C6F6E672022
:10183000657874727573696F6E2070726576656E07
:101840007465640A0020636F6C6420657874727537
:1018500073696F6E2070726576656E7465640A00D8
:101860007A5F6D61783A2000795F6D61783A200087
:10187000785F6D696E3A20005265706F7274696EA0
:101880006720656E6473746F702073746174757310
:101890000A000A4D6561737572656420706F696E28
:1018A00074733A0A005A206F66667365743A2000B2
:1018B0004E756D20582C593A20332C330A00FFFD09
:1018C000FCFAF8F6F4F2F0EEECEAE9E7E5E3E1E041
:1018D000DEDCDAD9D7D5D4D2D0CFCDCBCAC8C7C5F4
:1018E000C3C2C0BFBDBCBAB9B7B6B4B3B2B0AFAD76
:1018F000ACAAA9A8A6A5A4A2A1A09E9D9C9A9998CD
:101900009795949392908F8E8D8B8A898887868401
:10191000838281807F7E7D7B7A7978777675747318
:101920007271706F6E6D6C6B6A696867666564630F
:101930006261605F5E5D5C5B5A59585857565554FA
:1019400053525150504F4E4D4C4B4A4A49484746CE
:1019500046454443424241403F3E3E3D3C3B3B3A8C
:1019600039383837363535343332323130302F2E3E
:101970002E2D2C2B2B2A29292827272625252423E1
:101980002322212120201F1E1E1D1C1C1B1B1A1977
:101990001918181716161515141313121211111001
:1019A0000F0F0E0E0D0D0C0C0B0A0A090908080783
:1019B00007060605050404030302020100000000F7
:1019C0000001000000010000800055555500000096
:1019D000400033333300AAAA2A00499224000000B1
:1019E0002000C7711C0099991900D1451700555561
:1019F00015003BB113002449120011111100000021
:101A000010000F0F0F00E3380E0043790D00CCCC0F
:101A10000C00C3300C00E8A20B0064210B00AAAA42
:101A20000A00703D0A009DD80900427B09009224FB
:101A30000900DCD308008888080010420800000074
:101A40000800F0C107008787070075500700711C68
:101A500007003EEB0600A1BC060069900600666622
:101A60000600703E06006118060017F4050074D1E8
:101A700005005BB00500B290050062720500555587
:101A8000050078390500B81E0500050505004EEC77
:101A9000040087D40400A1BD040090A7040049926B
:101AA0000400C17D0400EE690400C75604004444EC
:101AB00004005C320400082104004110040000000E
:101AC00004003FF00300F8E0030026D20300C3C384
:101AD0000300CCB503003AA803000A9B0300388E2C
:101AE0000300C08103009F750300D0690300505EAE
:101AF00003001D53030034480300913D03003333BA
:101B0000030016290300381F030097150300300C4B
:101B10000300030303000BFA020049F10200BAE8D4
:101B200002005CE002002DD802002DD0020059C84E
:101B30000200B0C0020031B90200DAB10200AAAA64
:101B40000200A0A30200BC9C0200FA9502005C8F78
:101B50000200DF88020082820200457C02002776B4
:101B6000020027700200436A02007C640200D05E1B
:101B700002003F590200C853020048617264636F5B
:101B80006465642044656661756C74205365747483
:101B9000696E6773204C6F616465640A00F401002C
:101BA00000F4010000320000001027000000009641
:101BB00043000096430000A0410000344200002092
:101BC0004300002043F0F77B4400008C4320286D45
:101BD0006D290020440020490020204D3330312061
:101BE00050005049442073657474696E67733A0AF3
:101BF00000205A002059002020473239205333203A
:101C0000580020204D3432302053004D6573682039
:101C1000426564204C6576656C696E673A0A0020FF
:101C20005A0020590020204D323036205800486F8D
:101C30006D65206F66667365743A0A00204A00205D
:101C4000540020530020204D323035204200204ADD
:101C50003C6A756E635F6465763E00416476616ED2
:101C60006365643A20423C6D696E5F7365676D65BC
:101C70006E745F74696D655F75733E20533C6D696A
:101C80006E5F66656564726174653E20543C6D6983
:101C90006E5F74726176656C5F66656564726174AF
:101CA000653E0020540020520020204D3230342068
:101CB0005000416363656C65726174696F6E2028C2
:101CC000756E6974732F7332293A20503C707269B3
:101CD0006E745F616363656C3E20523C7265747222
:101CE0006163745F616363656C3E20543C74726130
:101CF00076656C5F616363656C3E0A002045002079
:101D00005A0020590020204D3230312058004D61BA
:101D100078696D756D20416363656C657261746986
:101D20006F6E2028756E6974732F7332293A0A001A
:101D3000204500205A0020590020204D3230332009
:101D400058004D6178696D756D20666565647261D6
:101D50007465732028756E6974732F73293A0A00AD
:101D6000204500205A0020590020204D39322058AB
:101D70000053746570732070657220756E69743AD3
:101D80000A0020204D3230302044300A0020204DFF
:101D90003230302044002044697361626C65640A0B
:101DA0000046696C616D656E742073657474696E4C
:101DB00067733A002020473231202020203B006208
:101DC00065640A002C2073797374656D2073746FD9
:101DD0007070656421204865617465725F49443A9A
:101DE00020004265642068656174696E67206661E1
:101DF000696C65640048656174696E672066616935
:101E00006C65640045312048656174696E672066C1
:101E100061696C65640048656174696E672066611C
:101E2000696C656400556E6B6E6F776E20636F6DC5
:101E30006D616E643A2022002066697273740A0034
:101E40005A0059005800486F6D6520006563686F3F
:101E50003A004572726F723A00453120544845523B
:101E60004D414C2052554E41574159004245442066
:101E7000544845524D414C2052554E41574159000E
:101E8000546865726D616C2052756E61776179007E
:101E9000FA8A11241FBECFEFD1E2DEBFCDBF00E032
:101EA0000CBF12E0A0E0B2E0ECE4FEE201E00BBF08
:101EB00002C007900D92A83FB107D9F72EE0A8EF16
:101EC000B2E001C01D92A833B207E1F71FE0C9E4F8
:101ED000DFE000E006C021970109802FFE010E948B
:101EE000CF96C834D10780E00807A9F70E944A704E
:101EF0000C9424970C94000080918607909187079A
:101F0000891759F0E92FF0E0EA5FF84F80819F5F71
:101F10009F779093870790E008958FEF9FEF089544
:101F2000FF920F931F93CF93DF93FC0120812B33FC
:101F300019F1D091CC05D430F8F4F62EBC01C09143
:101F4000E3050C2F10E0F0E6CF9FC0011124865B63
:101F50009B4F0E940497F801E356F94FF082CF5F40
:101F6000C43018F4C093E30502C01092E305DF5FAC
:101F7000D093CC0581E001C080E0DF91CF911F912B
:101F80000F91FF900895CF93DF93CCE1D4E020E050
:101F900030E0A901688179818A819B810E94828FCA
:101FA00081111DC020E030E0A9016C817D818E810E
:101FB0009F810E94828F811112C020E030E0A90130
:101FC000688579858A859B850E94828F811107C0EB
:101FD0002C9684E0C034D807D1F680E001C081E0BF
:101FE000DF91CF910895CF93909142048917C9F062
:101FF000C82F0E94FB43C11112C04FEC53E06BECA1
:1020000073E087EC93E00E94BE4480E0809342043A
:10201000882339F087EC93E0CF910C94A344B3DF8D
:10202000F5CFCF910895CF92DF92EF920F931F9348
:10203000CF93DF93CDB7DEB760970FB6F894DEBFCE
:102040000FBECDBFE0904104E7ECF3E080859185C1
:10205000A285B38544815581668177810081118194
:102060002281338109831A832B833C834D835E83D2
:102070006F83788789879A87AB87BC871D861E8682
:102080001F86188AAE01475F5F4FBE016B5F7F4FAF
:10209000CE0101960E94BE44CE010D966C0102E075
:1020A00012E023ED33E0AE01475F5F4FBE016B5F8F
:1020B0007F4F0C970E949D3360960FB6F894DEBF59
:1020C0000FBECDBFDF91CF911F910F91EF90DF90A9
:1020D000CF9008954F925F926F927F928F929F92CE
:1020E000AF92BF92CF92DF92EF92FF920F931F9326
:1020F000CF93DF93CDB7DEB72C970FB6F894DEBF42
:102100000FBECDBF6D837E838F83988729873A87E3
:102110004B875C87470158013601809102029091FC
:102120000302A0910402B091050289839A83AB83D4
:10213000BC83D601CD90DD90ED90FC9020E030E0A6
:10214000A901C701B6010E94828F811106C0E4E691
:10215000F2E1C590D590E590F490A50194016091CD
:10216000CF037091D0038091D1039091D2030E944C
:10217000828F87FF11C0C0920202D0920302E092C8
:102180000402F09205028092CF039092D003A092B5
:10219000D103B092D20347DFF301408051806280C7
:1021A000738020E030E0A901C301B2010E94828F58
:1021B000811107C085E5482E542C85E0682E83E404
:1021C000782E4092020250920302609204027092B2
:1021D00005028D819E81AF81B8858093C70390935E
:1021E000C803A093C903B093CA0389859A85AB85B8
:1021F000BC858093CB039093CC03A093CD03B09385
:10220000CE0311DFA50194016091CF037091D0033B
:102210008091D1039091D2030E94F09518168CF40E
:10222000C0920202D0920302E0920402F0920502F0
:102230008092CF039092D003A092D103B092D203A8
:10224000F2DE0E94FB4389819A81AB81BC8180933D
:10225000020290930302A0930402B09305022C960D
:102260000FB6F894DEBF0FBECDBFDF91CF911F91A7
:102270000F91FF90EF90DF90CF90BF90AF909F9025
:102280008F907F906F905F904F900895CF92DF92E4
:10229000EF92FF920F931F936B01FC01E080F1809E
:1022A00002811381E7ECF3E0248135814681578177
:1022B00060817181828193810DDF1F910F91FF9069
:1022C000EF90DF90CF9008950F931F93CF93DF93FC
:1022D00094E0899FE00111248E0109521C4FFE01F8
:1022E000E554FC4FDE01A85CBC4F2D913D914D9112
:1022F0005C9160817181828193810E94CA93F8010F
:102300006083718382839383FE01EC52F84F859141
:102310009591A591B491FE01ED51FC4F808391837D
:10232000A283B383FE01E052F84F85919591A59168
:10233000B491C95FDD4F88839983AA83BB83DF9102
:10234000CF911F910F9108950F931F93CF93DF9318
:10235000CDB7DEB72C970FB6F894DEBF0FBECDBF5A
:10236000E7ECF3E080859185A285B38544815581B2
:1023700066817781008111812281338109831A83EB
:102380002B833C834D835E836F83788789879A870D
:10239000AB87BC87AE01475F5F4FBE016B5F7F4F6E
:1023A000CE0101960E94BE4423ED33E0AE01475FAB
:1023B0005F4FBE016B5F7F4FCE0101960E94E864C4
:1023C0002C960FB6F894DEBF0FBECDBFDF91CF9134
:1023D0001F910F9108952F923F924F925F926F92AB
:1023E0007F929F92AF92BF92CF92DF92EF92FF9235
:1023F0000F931F93CF93DF93CDB7DEB764970FB6DC
:10240000F894DEBF0FBECDBF2A013B01902EA12E56
:102410006901082F10E0F801E75DFA4FE491BB2451
:10242000B3941E160CF4B12CFF24F39420E030E09A
:10243000A901C301B2010E94F09518160CF0F12C0D
:10244000000F111F000F111FC80189539C4F1C0161
:10245000FC01108211821282138276DFF101408228
:10246000518262827382E090410420E030E0A90151
:10247000692D7A2DC6010E94828F811108C0F80152
:10248000E45AFD4E85919591A591B49103C0892D93
:102490009A2DD601898B9A8BAB8BBC8B8091CF0305
:1024A0009091D003A091D103B091D2034091CB037E
:1024B0005091CC036091CD037091CE030091C7037E
:1024C0001091C8032091C9033091CA0309831A836C
:1024D0002B833C834D835E836F83788789879A87BC
:1024E000AB87BC871D861E861F86188AAE01475F94
:1024F0005F4FBE016B5F7F4FCE0101960E94BE44CD
:10250000CE010D966C018E010F5E1F4F23ED33E05F
:10251000AE01475F5F4FBE016B5F7F4F0C970E941C
:102520009D330E94FB43BF1459F08091CA05882354
:1025300019F01092CA0504C08CEE97E00E94CB28D7
:1025400064960FB6F894DEBF0FBECDBFDF91CF917A
:102550001F910F91FF90EF90DF90CF90BF90AF90C1
:102560009F907F906F905F904F903F902F90089535
:102570008091E1059091E205009731F04AE050E04A
:1025800060E070E00C94D68D60E070E0CB010895BF
:102590008091E1059091E205009731F04AE050E02A
:1025A00060E070E00C94AE8C60E070E0CB010895C8
:1025B000EFDF97FD0AC0ECDF6F3F710581059105E4
:1025C00009F02CF4E5DF862F089580E008958FEF61
:1025D00008958091E1059091E205892B31F0E8DFC3
:1025E00091E0811103C090E001C091E0892F08952E
:1025F0000F931F93CF938091E1059091E20500978F
:10260000F1F0FC018F01C1912C2F2F7D89F0C53491
:1026100011F0C536B9F7F801108260E070E00E9451
:10262000488BF801C083562F472F382F292F0BC016
:1026300060E070E0CF911F910F910C94488B50E0B7
:1026400040E030E020E0652F742F832F922FCF9150
:102650001F910F91089581548A3108F041C0A82F2D
:10266000B0E04091120350911303609114037091F4
:10267000150304C076956795579547958A95D2F7C7
:1026800040FF2EC0E091E00DF091E10DA850BD4F4C
:102690008C918823E9F0E80FF11D808190ED980F6F
:1026A0009A3098F08E3211F481810CC08D3211F085
:1026B0008B3271F4818190ED980F9A3030F08E3228
:1026C00039F4828180538A3018F49E2F8F2F02C0F4
:1026D00090E080E09093E1058093E20581E0089529
:1026E00080E00895B8DF882341F081E02091E10582
:1026F0003091E205232B09F480E00895AF92BF9258
:10270000CF92DF92EF92FF920F931F93CF93DF93BD
:102710008AE3A82E82E0B82E98E1E92E93E0F92E04
:1027200007EC13E027EDC22E23E0D22EC0E0D0E06C
:10273000F50181915F018FDF882319F159DFFE01D7
:10274000ED5BFB4F2081211104C02091470422231F
:1027500041F0F80120813181428153810E94CA9366
:102760000AC0C330D10539F0F601208131814281A0
:1027700053810E94C993F70160837183828393839D
:102780000AC0F80180819181A281B381F701808321
:102790009183A283B3832196F4E0EF0EF11C0C5FCA
:1027A0001F4F84E0C80ED11CC430D10509F0C0CF42
:1027B00086E498DF8823B9F01BDF20E030E0A90130
:1027C0000E94F09518167CF413DF20E030E040E71B
:1027D00052E40E94A69460930202709303028093D5
:1027E0000402909305028091490483FD2AC0609100
:1027F0002403709125038091260390912703209153
:10280000D3033091D4034091D5035091D603E09186
:10281000B507EE23B1F00E94C9939B01AC01609112
:10282000C6077091C7078091C8079091C9070E9499
:10283000CA936093C6077093C7078093C8079093A5
:10284000C907DF91CF911F910F91FF90EF90DF901B
:10285000CF90BF90AF9008954F925F926F927F920A
:10286000AF92BF92CF92DF92EF92FF92CF93DF931E
:10287000EB01FC0160817181828193812CE3C22E86
:10288000D12CE12CF12CA70196010E948E93B62E3B
:10289000A72ECA01B901A70196010E948E936B0170
:1028A0007C01CA01B90128E130E040E050E00E941B
:1028B0008E932B013C01C9016DE671E00E949F9649
:1028C00061157105D9F0AF92BF92DF92CF925F92FE
:1028D0004F929F938F937F936F938FE996E09F938F
:1028E0008F93DF93CF930E94538F8DB79EB70E9631
:1028F0000FB6F8949EBF0FBE8DBF61C00097C9F0A0
:10290000AF92BF92DF92CF925F924F929F938F933D
:102910008FE896E09F938F93DF93CF930E94538F1E
:10292000EDB7FEB73C960FB6F894FEBF0FBEEDBFF5
:1029300046C04114510461047104B9F0AF92BF92D2
:10294000DF92CF925F924F9283E896E09F938F93AE
:10295000DF93CF930E94538F8DB79EB70A960FB621
:10296000F8949EBF0FBE8DBF2AC0C114D104E104EC
:10297000F104A9F0AF92BF92DF92CF928BE796E07D
:102980009F938F93DF93CF930E94538FEDB7FEB742
:1029900038960FB6F894FEBF0FBEEDBF10C0AF92D1
:1029A000BF9287E796E09F938F93DF93CF930E9428
:1029B000538F0F900F900F900F900F900F90DF910B
:1029C000CF91FF90EF90DF90CF90BF90AF907F902E
:1029D0006F905F904F90089580E1E7ECF3E0A8E1FD
:1029E000B3E001900D928A95E1F708958F929F923E
:1029F000AF92BF92FF920F931F93CF93DF9300D0BC
:102A00001F921F92CDB7DEB7182F9091FA039770DF
:102A1000973051F48FE466DE882311F0DADD02C0CE
:102A20008FE419DE8111AFC00E94FB4380E0DBDA46
:102A30008091020290910302A0910402B0910502DC
:102A400080934B0690934C06A0934D06B0934E0690
:102A5000809114029091150290934A068093490642
:102A600084E690E0909315028093140281E08093B5
:102A70007903111115C088E5EEDDF82E89E5EBDD4F
:102A8000082F8AE5E8DDF11006C001110FC08111A1
:102A90000EC0F02E09C0002349F0F02E182F07C0F9
:102AA000FF24F39401E081E011E001C010E08D8388
:102AB00093DF8D81111102C0882319F082E00E94FA
:102AC0001C2582E50FDE882381F192DD4B015C013C
:102AD00020E030E0A9010E94828F882331F111119A
:102AE00004C0F11002C0002379F18092200390927B
:102AF0002103A0922203B09223032091CF033091AF
:102B0000D0034091D1035091D203C501B4010E947A
:102B1000F095181654F419821A821B821C82BE0189
:102B20006F5F7F4F80E293E0B1DB111105C00111AF
:102B300003C0F11006C008C081E00E941C251123CB
:102B4000C1F380E00E941C25FFDB80917803809315
:102B5000790380914B0690914C06A0914D06B0915F
:102B60004E068093020290930302A0930402B09356
:102B700005028091490690914A0690931502809330
:102B800014020E9454580F900F900F900F900F90C6
:102B9000DF91CF911F910F91FF90BF90AF909F90C9
:102BA0008F90089591E090939C069091C00095FFBE
:102BB000FCCF8093C6000895CF93DF93E2E5FEE15A
:102BC0008491EF012196882319F0ECDFFE01F8CF04
:102BD000E9E0F8E08491EF012196882319F0E2DF23
:102BE000FE01F8CFDF91CF910895CF93DF93EAEF05
:102BF000F7E08491EF012196882319F0D3DFFE01DD
:102C0000F8CFDF91CF910895BF92CF92DF92EF92EC
:102C1000FF920F931F93CF93DF93CDB7DEB76E97DD
:102C20000FB6F894DEBF0FBECDBF60911603709152
:102C300017036115710551F14DE150E0CE01019688
:102C40007C010E942A8F1E8EF7018F010E191F0929
:102C5000B190BB2021F19AE0B912F7CF20C0B701A3
:102C600083EB96E00E94486382E29CDF8AE09ADF71
:102C7000BB2051F10F5F1F4F8091160390911703F6
:102C8000080F191F109317030093160381E020917A
:102C9000160330911703232BD1F480E018C0F701FD
:102CA000E00FF11F108260E0C7013AD9882371F369
:102CB000ECE4FEE184916F019FEFC91AD90A8823E1
:102CC00071F270DFF601F6CF00E010E0DBCF6E9618
:102CD0000FB6F894DEBF0FBECDBFDF91CF911F912D
:102CE0000F91FF90EF90DF90CF90BF9008958F925B
:102CF0009F92AF92BF92CF92DF92EF92FF920F938B
:102D00001F93CF93DF9380DF811128C18091CC0581
:102D1000843008F023C1F0D8AC0197FD1FC1982F73
:102D20002091E30D3091E40D8A3019F09D3009F0C7
:102D3000E3C0109248062115310519F40E94686C11
:102D4000E5CFF901E851FA4F10821092E40D10928C
:102D5000E30D28EE35E0E90188812F5F3F4F803297
:102D6000D1F38E018E3409F086C0209709F483C018
:102D70006CEB77E0CE010E94398FFF24F394892B0E
:102D800011F4F12C09C06EE470E0CE0104960E94AB
:102D9000F096009709F0EC014AE050E060E070E046
:102DA000CE0101960E94AE8C6093E4057093E50518
:102DB0008093E6059093E7058090E50D9090E60DF1
:102DC000A090E70DB090E80D2FEF821A920AA20AA8
:102DD000B20A681579058A059B0529F0F11003C030
:102DE00080EC96E02AC06AE270E0C8010E94199760
:102DF0009C01009701F1982F901BC0E0992339F0B6
:102E00009150F801E90FF11D8081C827F7CF4AE002
:102E100050E060E070E0C90101960E94AE8CCC2EBB
:102E2000D12CE12CF12C6C157D058E059F0599F0B8
:102E30008DE997E002C083E797E0DF91CF911F9182
:102E40000F91FF90EF90DF90CF90BF90AF909F9049
:102E50008F900C94656F8091E4059091E505A091A9
:102E6000E605B091E7058093E50D9093E60DA093FC
:102E7000E70DB093E80D80911E0281111BC067E43D
:102E800070E0C8010E94F0960097A1F04AE050E07F
:102E900060E070E001960E94AE8C6430710550F4E1
:102EA000ECEFF6E08491EF012196882319F07ADEA9
:102EB000FE01F8CF6AED72E0C8010E94FB96892BF3
:102EC00011F410921F026FED72E0C8010E94FB9690
:102ED000892B21F483EF96E00E94CB2864EE72E008
:102EE000C8010E94FB96892B11F40E94985361E05F
:102EF00088EE95E015D80ACF2F3531050CF006CFB6
:102F00009C35C1F40E947C0F97FD00CF20914806AC
:102F10002111FCCE2091E30D3091E40DA9014F5F0A
:102F20005F4F5093E40D4093E30DF901E851FA4FE0
:102F30008083ECCE9B3319F481E080934806809126
:102F400048068111E3CEC90101969093E40D809368
:102F5000E30DF901E851FA4F4083D8CEDF91CF91CC
:102F60001F910F91FF90EF90DF90CF90BF90AF90A7
:102F70009F908F9008958F929F92AF92BF92EF9201
:102F8000FF921F93CF93DF93CDB7DEB7A0970FB615
:102F9000F894DEBF0FBECDBF6115710581059105A7
:102FA00079F110E0842E912CA12CB12CEE24E39425
:102FB000F12CEC0EFD1EE10EF11C17FDFA94A5019B
:102FC00094010E948E93F7016083B901CA011F5FCB
:102FD000611571058105910549F7115010F1E1E086
:102FE000F0E0EC0FFD1FE10FF11D17FDFA95808158
:102FF0008A3010F097E301C090E3890FD3DDEDCF65
:1030000080E3A0960FB6F894DEBF0FBECDBFDF9170
:10301000CF911F91FF90EF90BF90AF909F908F90B6
:10302000C1CDA0960FB6F894DEBF0FBECDBFDF9125
:10303000CF911F91FF90EF90BF90AF909F908F9096
:103040000895EF92FF920F931F93CF93DF937C012C
:1030500084E548DBD82F882321F1AADAC82F181677
:10306000E4F4ECE4FEE184918F010F5F1F4F8823AD
:1030700019F098DDF801F7CF8DE494DDB70180E019
:1030800090E04AE078DF6C2FCC0F770B81EC97E073
:103090000E942F638AE086DD08C08093F303D0E0AE
:1030A00004C0809141048093F3038D2FDF91CF9171
:1030B0001F910F91FF90EF900895CF92DF92EF92C2
:1030C000FF926B017C0197FF0AC08DE26BDDF094EB
:1030D000E094D094C094C11CD11CE11CF11C4AE0C6
:1030E000C701B601FF90EF90DF90CF9044CF8F9251
:1030F0009F92AF92BF92CF92DF92EF92FF92CF93C7
:103100006B017C01B42E20E030E0A9010E94828F87
:1031100087FF06C08DE246DDF7FAF094F7F8F094E9
:10312000C0E060E070E080E09FE3CB1541F02DEC63
:103130003CEC4CEC5DE30E94E78FCF5FF6CF9B0148
:10314000AC01C701B6010E94CA936B017C010E94C9
:1031500013954B015C014AE00EDFCC2379F1C501E8
:10316000B4010E94868F9B01AC01C701B6010E9489
:10317000C9936B017C018EE215DD20E030E040E276
:1031800051E4C701B6010E94E78F4B015C010E9428
:103190000E956B01770FEE08FF08C701B6018DDFB2
:1031A000C701B6010E94888F9B01AC01C501B40123
:1031B0000E94C9936B017C01C150F9F6CF91FF9039
:1031C000EF90DF90CF90BF90AF909F908F90089539
:1031D000EF92FF920F931F93CF93DF93CDB7DEB79C
:1031E00069970FB6F894DEBF0FBECDBF83E57ADADC
:1031F000811103C0E6E7F8E007C0CAD96E34710553
:10320000C9F70E943E64D9C084918F010F5F1F4FA0
:10321000882319F0C7DCF801F7CFEDE6F8E08491D8
:103220008F010F5F1F4F882319F0BCDCF801F7CF27
:103230006091BA077091BB0780E090E04AE09BDEA6
:10324000E0E6F8E084918F010F5F1F4F882319F0AB
:10325000A9DCF801F7CF6091BC077091BD0780E051
:1032600090E04AE088DEE5E5F8E084918F010F5FA9
:103270001F4F882319F096DCF801F7CF6091BA0749
:103280007091BB078091BC079091BD07681B790BBB
:1032900080914803815021E030E0823010F020E03E
:1032A00030E0621B730B80E090E04AE064DE8AE06D
:1032B00079DCEDE4F8E084918F010F5F1F4F8823E4
:1032C00019F070DCF801F7CF8091BE079091BF072D
:1032D000A091C007B091C1078E8B9F8BA88FB98F2B
:1032E000BE016F5F7F4FCE014696B6DAE0E4F8E0AC
:1032F00084918F010F5F1F4F811105C0CE01019690
:103300007C018C0103C04EDCF801F2CFF801819101
:103310008F01882311F046DCF9CF8091C20790918C
:10332000C307A091C407B091C5078E8B9F8BA88F50
:10333000B98FBE016F5F7F4FCE0146968DDAE0E315
:10334000F8E084918F010F5F1F4F882319F02ADC6A
:10335000F801F7CFF70181917F01882311F022DC7A
:10336000F9CF8AE01FDCE8E2F8E084918F010F5F7B
:103370001F4F882319F016DCF801F7CFE8E1F8E0D9
:1033800084918F010F5F1F4F882319F00BDCF80128
:10339000F7CF20E030E04AE754E46091C60770912F
:1033A000C7078091C8079091C9070E94A69442E080
:1033B0009EDE8DE6F7DB8AE0F5DB69960FB6F894C2
:1033C000DEBF0FBECDBFDF91CF911F910F91FF9058
:1033D000EF9008951F920F920FB60F9211240BB623
:1033E0000F922F938F939F93EF93FF9320918707D3
:1033F000E091860781E08E0F8F779091C60082174B
:1034000029F0F0E0EA5FF84F9083E82FE093860719
:10341000FF91EF919F918F912F910F900BBE0F9085
:103420000FBE0F901F9018954F925F926F927F92F0
:103430008F929F92AF92BF92CF92DF92EF92FF92C4
:103440000F931F93CF93DF93F8948FEF9FEF909399
:103450008900809388000AE0D02EC0E0D0E0CC2420
:10346000C39478948091980690919906A0919A06B9
:10347000B0919B06892B8A2B8B2B09F0D6C18091AA
:10348000A00D8823D1F01092A00D80919E0D9091F7
:103490009F0D892B91F01092580610929F0D10925B
:1034A0009E0D9091EC0D8091ED0D981731F080916B
:1034B000ED0D8F5F8F708093ED0D80919E0D90913B
:1034C0009F0D892B09F4B1C1409194065091950646
:1034D00060919606709197069091870600919006EC
:1034E000109191062091920630919306041B150BC2
:1034F000260B370B892F90E0A0E0B0E008171907E2
:103500002A073B0710F4D901C801282F840F951F03
:10351000A61FB71F8093940690939506A0939606D6
:10352000B093970680918400909185008C9680904E
:103530006E0690906F06A0907006B0907106409154
:103540005E0650915F066091600670916106480DBD
:10355000591D6A1D7B1D40936E0650936F06609344
:1035600070067093710677FD1CC0889A80902803BE
:1035700090902903A0902A03B0902B0340914F060E
:10358000042E000C550B660B770B480D591D6A1D58
:103590007B1D409328035093290360932A03709363
:1035A0002B038090720690907306A0907406B090E2
:1035B00075064091620650916306609164067091B1
:1035C0006506480D591D6A1D7B1D40937206509378
:1035D0007306609374067093750677FD1CC08E9A0F
:1035E00080902C0390902D03A0902E03B0902F0379
:1035F00040915006042E000C550B660B770B480DBE
:10360000591D6A1D7B1D40932C0350932D0360931D
:103610002E0370932F038090760690907706A090EB
:103620007806B090790640916606509167066091E1
:10363000680670916906480D591D6A1D7B1D4093EF
:10364000760650937706609378067093790677FD37
:1036500021C030910B013095387030930901809072
:10366000300390903103A0903203B0903303409127
:103670005106042E000C550B660B770B480D591D97
:103680006A1D7B1D409330035093310360933203D6
:103690007093330380907A0690907B06A0907C060E
:1036A000B0907D0640916A0650916B0660916C0661
:1036B00070916D06480D591D6A1D7B1D40937A0659
:1036C00050937B0660937C0670937D0677FD1CC04B
:1036D000149A8090340390903503A0903603B090F4
:1036E000370340915206042E000C550B660B770BE6
:1036F000480D591D6A1D7B1D4093340350933503BB
:103700006093360370933703409184005091850095
:1037100048175907C8F340916E0650916F066091A3
:1037200070067091710677FD15C080905A069090D2
:103730005B06A0905C06B0905D06481959096A09BD
:103740007B0940936E0650936F06609370067093EA
:1037500071068898409172065091730660917406C4
:103760007091750677FD15C080905A0690905B06A3
:10377000A0905C06B0905D06481959096A097B095A
:1037800040937206509373066093740670937506A7
:103790008E984091760650917706609178067091E8
:1037A000790677FD19C080905A0690905B06A0902C
:1037B0005C06B0905D06481959096A097B09409377
:1037C0007606509377066093780670937906309169
:1037D0000B0138703093090140917A0650917B06B5
:1037E00060917C0670917D0677FD15C080905A0629
:1037F00090905B06A0905C06B0905D064819590950
:103800006A097B0940937A0650937B0660937C0695
:1038100070937D061498215041F04091840050919E
:10382000850048175907C8F381CE8091980690917A
:103830009906A0919A06B0919B06892B8A2B8B2B17
:1038400009F0D9C5E0919E0DF0919F0D309739F1A7
:103850008091940690919506A0919606B091970656
:103860004091900650919106609192067091930656
:1038700084179507A607B707C8F01092580610924C
:103880009F0D10929E0D9091EC0D8091ED0D98176B
:1038900031F08091ED0D8F5F8F708093ED0D10ED05
:1038A000412E17E0512E612C712CD7C340918C060C
:1038B00050918D0660918E0670918F0648175907BA
:1038C0006A077B0708F49CC180908806909089065F
:1038D000A0908A06B0908B0686A997A9A0ADB1AD3D
:1038E00088169906AA06BB0608F06EC181149104D9
:1038F000A104B10449F48091540690915506A09119
:103900005606B09157065CC190E040E0882D392DF5
:103910002A2D50E060E070E0E0E0F0E0A0E0B0E0F0
:10392000F0919A0DF89F712DEE27A0919B0DA89F05
:10393000700DE11D10909C0D189EE00DF39F700D11
:10394000E11DA39FE00DF29FE00D572F6E2F579FB3
:10395000F12DAA27BB275E9FF00DA11DB91F679F00
:10396000F00DA11DB91F6E9FA00DB11D5A2F6B2F19
:10397000579F412DAA27BB275E9F400DA11DB91F50
:10398000679F400DA11DB91F6E9FA00DB11D5A2F3D
:103990006B2FFF27809154063091550620915606D3
:1039A0000090D405092A09F483C0A091D505A59FEC
:1039B000F119890B390B290BB091D605B59FF01978
:1039C0008109390B290B4091D705459F8019310991
:1039D000290BA69FF0198109390B290BB69F801975
:1039E0003109290B469F30192109579F412DAA27DC
:1039F000BB275E9F400DA11DB91F679F400DA11DF4
:103A0000B91F6E9FA00DB11D5A2F6B2FA091D90524
:103A1000A59FF10D891F391F291FB091DA05B59FA8
:103A2000F00D811D391F291F4091DB05459F800D39
:103A3000311D291FA69FF00D811D391F291FB69F1B
:103A4000800D311D291F469F300D211D579F412D8F
:103A5000AA27BB275E9F400DA11DB91F679F400D80
:103A6000A11DB91F6E9FA00DB11D5A2F6B2FA091E4
:103A7000DD05A59FF119890B390B290BB091DE05E6
:103A8000B59FF0198109390B290B4091DF05459F3E
:103A900080193109290BA69FF0198109390B290BCF
:103AA000B69F80193109290B469F3019210982C020
:103AB000A091D505A59FF10D891F391F291FB09130
:103AC000D605B59FF00D811D391F291F4091D705DF
:103AD000459F800D311D291FA69FF00D811D391FA7
:103AE000291FB69F800D311D291F469F300D211DB6
:103AF000579F412DAA27BB275E9F400DA11DB91FCF
:103B0000679F400DA11DB91F6E9FA00DB11D5A2FBB
:103B10006B2FA091D905A59FF119890B390B290BA2
:103B2000B091DA05B59FF0198109390B290B409145
:103B3000DB05459F80193109290BA69FF0198109E2
:103B4000390B290BB69F80193109290B469F301973
:103B50002109579F412DAA27BB275E9F400DA11D1C
:103B6000B91F679F400DA11DB91F6E9FA00DB11D0C
:103B70005A2F6B2FA091DD05A59FF10D891F391FCD
:103B8000291FB091DE05B59FF00D811D391F291F3A
:103B90004091DF05459F800D311D291FA69FF00D27
:103BA000811D391F291FB69F800D311D291F469F7A
:103BB000300D211D112490E0932BA0E0B0E0A22B4A
:103BC0002EE730E141E011C082A993A9A4A9B5A9CB
:103BD000F7CFB695A79597958795440F2C5F3F4FE4
:103BE00050E12A39350709F44CC4F9014590559044
:103BF00065907490481659066A067B0650F341C4D6
:103C000040918306509184066091850670918606E6
:103C1000481759076A077B0708F0B4C180918206EC
:103C200081111EC0DF01AE5BBF4FED90FD900D9185
:103C30001C9113971D962D913D914D915C9162A918
:103C400073A984A995A90E943462C0928206E0916A
:103C50009E0DF0919F0D82A993A9A4A9B5A983C136
:103C600080907E0690907F06A0908006B09081069E
:103C700082AD93ADA4ADB5AD88169906AA06BB0674
:103C800008F06BC181149104A104B10449F480913E
:103C9000540690915506A0915606B091570663C1FF
:103CA00090E040E0882D392D2A2D50E060E070E052
:103CB000E0E0F0E0A0E0B0E0F0919A0DF89F712D07
:103CC000EE27A0919B0DA89F700DE11D10909C0DFB
:103CD000189EE00DF39F700DE11DA39FE00DF29F74
:103CE000E00D572F6E2F579FF12DAA27BB275E9F00
:103CF000F00DA11DB91F679FF00DA11DB91F6E9F8B
:103D0000A00DB11D5A2F6B2F579F412DAA27BB27FE
:103D10005E9F400DA11DB91F679F400DA11DB91FDA
:103D20006E9FA00DB11D5A2F6B2FFF278091540657
:103D300030915506209156060090D405092A09F4C1
:103D400083C0A091D505A59FF119890B390B290BCB
:103D5000B091D605B59FF0198109390B290B409117
:103D6000D705459F80193109290BA69FF0198109B4
:103D7000390B290BB69F80193109290B469F301941
:103D80002109579F412DAA27BB275E9F400DA11DEA
:103D9000B91F679F400DA11DB91F6E9FA00DB11DDA
:103DA0005A2F6B2FA091D905A59FF10D891F391F9F
:103DB000291FB091DA05B59FF00D811D391F291F0C
:103DC0004091DB05459F800D311D291FA69FF00DF9
:103DD000811D391F291FB69F800D311D291F469F48
:103DE000300D211D579F412DAA27BB275E9F400DF7
:103DF000A11DB91F679F400DA11DB91F6E9FA00D8A
:103E0000B11D5A2F6B2FA091DD05A59FF119890BCC
:103E1000390B290BB091DE05B59FF0198109390BDB
:103E2000290B4091DF05459F80193109290BA69F79
:103E3000F0198109390B290BB69F80193109290B1B
:103E4000469F3019210982C0A091D505A59FF10D8B
:103E5000891F391F291FB091D605B59FF00D811D0F
:103E6000391F291F4091D705459F800D311D291FFE
:103E7000A69FF00D811D391F291FB69F800D311D92
:103E8000291F469F300D211D579F412DAA27BB2773
:103E90005E9F400DA11DB91F679F400DA11DB91F59
:103EA0006E9FA00DB11D5A2F6B2FA091D905A59F14
:103EB000F119890B390B290BB091DA05B59FF0196F
:103EC0008109390B290B4091DB05459F8019310988
:103ED000290BA69FF0198109390B290BB69F801970
:103EE0003109290B469F30192109579F412DAA27D7
:103EF000BB275E9F400DA11DB91F679F400DA11DEF
:103F0000B91F6E9FA00DB11D5A2F6B2FA091DD051B
:103F1000A59FF10D891F391F291FB091DE05B59F9F
:103F2000F00D811D391F291F4091DF05459F800D30
:103F3000311D291FA69FF00D811D391F291FB69F16
:103F4000800D311D291F469F300D211D112490E049
:103F5000932BA0E0B0E0A22B06C0E15BFF4F808175
:103F60009181A281B3812EE730E141E0F901859092
:103F70009590A590B49088169906AA06BB0608F4F9
:103F8000E3C2EEC28091210290912202A09123020D
:103F9000B0912402B7FF59C0E95BFF4F8081918146
:103FA000A281B3812EE730E141E0F901859095903F
:103FB000A590B49088169906AA06BB0658F4B69543
:103FC000A79597958795440F2C5F3F4FF0E12A39CD
:103FD0003F0759F74093870680329105A105B10547
:103FE00008F44FC38097A109B1098115F8E09F0734
:103FF000A105B10508F420C324E0929FF00111242B
:104000009F012258334FF901329645915491EE2782
:10401000859FB001849F610D7E1F06946E1F7E1FD9
:104020001124AB0160E070E0F90185919491A0E06A
:10403000B0E0841B950BA60BB70B809321029093E5
:104040002202A0932302B0932402409021025090B8
:104050002202609023027090240280919E0D909124
:104060009F0D892B09F0BFC10E94C06290939F0DE4
:1040700080939E0D892B09F4B6C1E0919E0DF091BD
:104080009F0D808183FF48C085899689A789B08D5F
:10409000418D528D638D748D8C019D01040F151F10
:1040A000261F371F009328031093290320932A0308
:1040B00030932B03841B950BA60BB70B80932C031B
:1040C00090932D03A0932E03B0932F03858D968D8F
:1040D000A78DB0A18093300390933103A093320356
:1040E000B093330381A192A1A3A1B4A1809334031F
:1040F00090933503A0933603B09337039091EC0D62
:104100008091ED0D981709F4AFCF8091ED0D8F5F81
:104110008F708093ED0DA8CF458956896789708D82
:10412000018D128D238D348DCF018A5B9F4F7C01D1
:10413000401751076207730789F44115510561055E
:10414000710579F0DC019C91A92FA1708A2F8C2533
:10415000969591708927A91302C004C081E08260FE
:1041600001C080E0858C968CA78CB0A0811491044E
:10417000A104B10409F084608093580610927E0671
:1041800010927F0610928006109281061092880687
:104190001092890610928A0610928B0685A196A12C
:1041A000A7A1B0A58093900690939106A093920644
:1041B000B0939306442455243201481A590A6A0AD6
:1041C0007B0A40927A0650927B0660927C0670923F
:1041D0007D0640927606509277066092780670923D
:1041E000790640927206509273066092740670923D
:1041F000750640926E0650926F066092700670923D
:104200007106440F551F661F771F40935E0650933B
:104210005F066093600670936106000F111F221FF6
:10422000331F009362061093630620936406309355
:104230006506880C991CAA1CBB1C8092660690928D
:104240006706A0926806B092690641A152A163A1D7
:1042500074A1440F551F661F771F40936A06509341
:104260006B0660936C0670936D06880F991FAA1FEA
:10427000BB1F80935A0690935B06A0935C06B09395
:104280005D06109294061092950610929606109272
:10429000970682A593A5A4A5B5A580938C069093B7
:1042A0008D06A0938E06B0938F0686A597A5A0A92C
:1042B000B1A98093830690938406A0938506B0935A
:1042C000860681A580935906F701908120915306B7
:1042D00092130AC02091200230E0482F082E000CD3
:1042E000550B4217530731F09093530680932002E9
:1042F0000E9486628091790381110E9438618FEF5C
:104300009FEFDC018093210290932202A09323026D
:10431000B0932402E0919E0DF0919F0DDF01DE9697
:10432000ED90FD900D911C9122A933A944A955A9A6
:10433000E55BFF4F60817181828193810E943462CD
:1043400010928206E0919E0DF0919F0DE55BFF4F6C
:1043500080819181A281B3812EE730E141E0F901B2
:1043600085909590A590B49088169906AA06BB06EC
:1043700058F4B695A79597958795440F2C5F3F4FB6
:1043800050E12A39350759F7409387068032910565
:10439000A105B10508F49DC18097A109B109811556
:1043A000E8E09E07A105B10508F470C1F4E09F9F05
:1043B000900111242258334FF901329645915491BE
:1043C000EE27859FB001849F610D7E1F06946E1FAE
:1043D0007E1F1124F90145905490612C712C461ACE
:1043E000570A6108710840929806509299066092A7
:1043F0009A0670929B068091980690919906A091DA
:104400009A06B0919B06AC01BD01009721E0A2077E
:10441000B10520F04FEF5FEF60E070E0841B950B7B
:10442000A60BB70B8093980690939906A0939A06D3
:10443000B0939B06F89480918400909185004096FB
:10444000DA94DD2039F0C40FD51FC817D90708F456
:1044500008C801C0EC01D0938900C093880078940B
:10446000DF91CF911F910F91FF90EF90DF90CF9050
:10447000BF90AF909F908F907F906F905F904F9084
:1044800008954093870680329105A105B10508F48F
:1044900056C08097A109B109811528E09207A105AE
:1044A000B105F0F044E0949F900111242258334F5D
:1044B000F901329645915491EE27859FB001849F72
:1044C000610D7E1F06946E1F7E1F1124F901459019
:1044D0005490612C712C461A570A6108710822C049
:1044E000AC01BD017695679557954795FA01EC7F2C
:1044F000AF014258574FFA0125913491FA01329693
:10450000659174918770869FA001879F500D11243B
:10451000B3E056954795BA95E1F7241B350B290171
:10452000612C712C840C951CA61CB71C80928806EB
:1045300090928906A0928A06B0928B068ECD80E278
:1045400090E0A0E0B0E0A5CFB695A79597958795A8
:10455000440F2C5F3F4FE0E12A393E0709F006CDBA
:104560004093870680329105A105B10508F45FC02C
:104570008097A109B109811558E09507A105B105FA
:10458000F0F0E4E09E9F900111242258334FF9018E
:10459000329645915491EE27859FB001849F610D1D
:1045A0007E1F06946E1F7E1F1124F90145905490C2
:1045B000612C712C461A570A6108710823C0AC019E
:1045C000BD017695679557954795FA01EC7FAF0148
:1045D0004258574FFA0125913491FA01329645918C
:1045E00054918770849FB001859F700D1124CB0179
:1045F000F3E096958795FA95E1F7281B390B290189
:10460000612C712C80917E0690917F06A09180068E
:10461000B0918106840D951DA61DB71D80937E0661
:1046200090937F06A0938006B093810616CD80E21A
:1046300090E0A0E0B0E09CCFAC01BD01769567951D
:1046400057954795FA01EC7FAF014258574FFA0151
:1046500025913491FA013296459154918770849F47
:10466000B001859F700D1124CB0143E0969587958D
:104670004A95E1F7A901481B590BCA01A0E0B0E037
:10468000DCCC80E290E0A0E0B0E0ACCCAC01BD01BD
:104690007695679557954795FA01EC7F9F012258CB
:1046A000374FF90145905490F90132962591349194
:1046B0008770829FA001839F500D1124CA01A3E03F
:1046C00096958795AA95E1F7481A590A612C712C9D
:1046D0008ACE80E290E0A0E0B0E05ECE8F929F9222
:1046E000AF92BF92CF92DF92EF92FF920F93CF9350
:1046F000DF931F92CDB7DEB77C015B016A014901F0
:10470000809105078823F1F0F70140815181C40EA3
:10471000D51ED182C08223C001111EC0BE016F5FB1
:104720007F4FC4010E94A46FF701408151814F5F08
:104730005F4F51834083FFEFAF1ABF0A81E0C81A71
:10474000D10869F0F701808191810E9448938983A3
:10475000909140049111E0CFF5018083DFCF0F905D
:10476000DF91CF910F91FF90EF90DF90CF90BF90AE
:10477000AF909F908F9008958F929F92AF92BF922B
:10478000CF92DF92EF92FF920F931F93CF93DF931D
:104790001F921F92CDB7DEB7E0910507E11107C068
:1047A00069017C015B018B01040F151F22C0FC0114
:1047B00020813181420F531F5183408342C0F70152
:1047C00080809180F50161915F016983C4016A83F2
:1047D0000E9448936A81681310C0BE016F5F7F4FCB
:1047E000C6010E94A46FF701808191810196918397
:1047F0008083A016B10619F724C0C4010E947193EA
:10480000C4010E9448939981891739F3ECE4FEE1D1
:1048100084918F010F5F1F4F882321F00E94D215D2
:10482000F801F6CFE9EAF2E184918F010F5F1F4FA3
:10483000882321F00E94D215F801F6CF81E0809301
:1048400005070F900F90DF91CF911F910F91FF906F
:10485000EF90DF90CF90BF90AF909F908F90089592
:10486000CF93DF93CDB7DEB72C970FB6F894DEBFAA
:104870000FBECDBF8091C7039091C803A091C9031B
:10488000B091CA0389839A83AB83BC838091CB03A5
:104890009091CC03A091CD03B091CE038D839E83E4
:1048A000AF83B8878091CF039091D003A091D103BB
:1048B000B091D20389879A87AB87BC870E947E64B8
:1048C0000E94D64480E00E94641181E00E9464113D
:1048D00082E00E9464110E94CD654CE050E067ECDC
:1048E00073E0CE0101960E94E396892B51F02C963D
:1048F0000FB6F894DEBF0FBECDBFDF91CF910C9401
:1049000054582C960FB6F894DEBF0FBECDBFDF9182
:10491000CF910895CF92DF92EF92FF92CF93DF93E2
:10492000EC01C090E303D090E403E090E503F09045
:10493000E603A7019601688179818A819B810E94A3
:10494000828F87FF04C0C882D982EA82FB82C0902E
:10495000E703D090E803E090E903F090EA03A701B1
:1049600096016C817D818E819F810E94828F87FF5D
:1049700004C0CC82DD82EE82FF82C0900702D0901C
:104980000802E0900902F0900A02A70196016881EE
:1049900079818A819B810E94F095181624F4C8823F
:1049A000D982EA82FB82C0900B02D0900C02E09088
:1049B0000D02F0900E02A70196016C817D818E811F
:1049C0009F810E94F095181624F4CC82DD82EE823D
:1049D000FF82C090EB03D090EC03E090ED03F090E9
:1049E000EE03A7019601688579858A859B850E94DB
:1049F000828F87FF04C0C886D986EA86FB86C0906E
:104A00000F02D0901002E0901102F0901202A70164
:104A10009601688579858A859B850E94F095181690
:104A200024F4C886D986EA86FB86DF91CF91FF9071
:104A3000EF90DF90CF9008954F925F926F927F92A8
:104A40008F929F92AF92BF92DF92EF92FF920F935D
:104A50001F93CF93DF93D82EC82FD0E0FE01E75DE0
:104A6000FA4F64917E01EE0CFF1CEE0CFF1CF70167
:104A7000E356FD4E4590559065907490062E000CBF
:104A8000770B880B990B0E94888F4B015C0120E00B
:104A900030E040EC5FE3C301B2010E94E78FA50163
:104AA00094010E94E78FAB01BC0100E010E0980187
:104AB0008D2D0E94EB11F701EF56FD4E259135919A
:104AC00045915491C501B4010E94E78F4B015C01EF
:104AD00020E030E0A9010E94828F882309F448C0B9
:104AE00000E010E09801B501A40170588D2D0E94DE
:104AF000EB11FE01E257FD4E4491411117C0ECE469
:104B0000FEE18491EF012196882321F00E94D215C5
:104B1000FE01F7CFECE6F2E18491EF0121968823C4
:104B200021F00E94D215FE01F7CF4AE0F701E45AC6
:104B3000FD4E4590559065907490642F70E080E034
:104B400090E00E94888F9B01AC01C301B2010E94DA
:104B5000A6942B013C01A5019401C501B4010E945A
:104B6000CA93AB01BC01930182018D2D0E94EB1110
:104B700081E090E00D2C01C0880F0A94EAF7909133
:104B8000FA03982B9093FA039091E20D892B80936E
:104B9000E20DF701E85CFC4F108211821282138251
:104BA0008D2D0E946411F701E150FB4F8591959185
:104BB000A591B491E701C953DC4F88839983AA83F7
:104BC000BB830E94A411F701E85EFC4F88819981A4
:104BD000AA81BB8180839183A283B383DF91CF912C
:104BE0001F910F91FF90EF90DF90BF90AF909F903B
:104BF0008F907F906F905F904F900895EF92FF920B
:104C00000F931F93CF93DF931F921F92CDB7DEB701
:104C100082E08093C0001092C50080E18093C400C0
:104C20008091C10080618093C1008091C100886043
:104C30008093C1008091C10080688093C100109270
:104C40009C06E5E5F2E184918F010F5F1F4F8823F9
:104C500021F00E94D215F801F6CFECE4FEE1849138
:104C60008F010F5F1F4F882321F00E94D215F8019A
:104C7000F6CF14B710FF0DC0ECE4F2E184917F0190
:104C80009FEFE91AF90A882321F00E94D215F70153
:104C9000F5CF11FF0DC0EBE3F2E184917F019FEFAF
:104CA000E91AF90A882321F00E94D215F701F5CFFD
:104CB00012FF0DC0E9E2F2E184917F019FEFE91A52
:104CC000F90A882321F00E94D215F701F5CF13FFCE
:104CD0000DC0E8E1F2E184917F019FEFE91AF90A42
:104CE000882321F00E94D215F701F5CF15FF0CC0E3
:104CF000E7E0F2E184918F010F5F1F4F882321F0DD
:104D00000E94D215F801F6CF14BEE0E0F2E18491E2
:104D10008F010F5F1F4F882321F00E94D215F801E9
:104D2000F6CF80E20E94D215E9EFF1E184918F0184
:104D30000F5F1F4F882321F00E94D215F801F6CF94
:104D4000ECE4FEE184918F010F5F1F4F882321F077
:104D50000E94D215F801F6CFE8EDF1E184918F01C0
:104D60000F5F1F4F882321F00E94D215F801F6CF64
:104D7000ECE4FEE184918F010F5F1F4F882321F047
:104D80000E94D215F801F6CFEBEBF1E184918F018F
:104D90000F5F1F4F882321F00E94D215F801F6CF34
:104DA0008AE00E94D215ECE4FEE184918F010F5F4E
:104DB0001F4F882321F00E94D215F801F6CFEBEAAD
:104DC000F1E184918F010F5F1F4F882321F00E9432
:104DD000D215F801F6CFEAE9F1E184918F010F5F76
:104DE0001F4F882321F00E94D215F801F6CFEFE77C
:104DF000F1E184918F010F5F1F4F882321F00E9402
:104E0000D215F801F6CFECE4FEE184918F010F5F3B
:104E10001F4F882321F00E94D215F801F6CFE8E653
:104E2000F1E184918F010F5F1F4F882321F00E94D1
:104E3000D215F801F6CFECE4FEE184918F010F5F0B
:104E40001F4F882321F00E94D215F801F6CF209140
:104E5000320E3091330ECE0101962115310519F431
:104E600088539E4002C0821B930B9A838983698179
:104E70007A8189E591E10E942F6360ED75E082E41B
:104E800091E10E942F638AE00E94D21581E0809315
:104E90009D0680939E0680939F068093A0060E94A5
:104EA000986A8CE0EBEBF3E0A7ECB3E001900D9295
:104EB0008A95E1F70E94A411249A809101018062F1
:104EC000809301018091010180648093010187ED4D
:104ED00080937A0010927E0010927D0080917D0078
:104EE000806280937D0080917D00806480937D004E
:104EF00080E888BD80916E00846080936E006AEFC8
:104F000070E080E090E0DED685E090E09093B60D12
:104F10008093B50D60E0809127029091280297D789
:104F200020E030E040EA50E40E94828F87FF0AC010
:104F300080912702909128024097909328028093B5
:104F40002702E8CF83E191E0909339028093380201
:104F500060E08091D0069091D10679D720E030E8CA
:104F600049E853E40E94F095181654F48091D00655
:104F70009091D10640969093D1068093D006E8CFC9
:104F800080912502909126020E94E23220E030E0DA
:104F900040EA50E40E94828F87FF0AC08091250278
:104FA0009091260240979093260280932502E8CFA5
:104FB0008091CE069091CF060E94E23220E030E050
:104FC00046E153E40E94F095181654F48091CE0601
:104FD0009091CF0640969093CF068093CE06E8CF6F
:104FE000109248031092B10D1092B20D1092B30DB1
:104FF0001092B40D10924403109245031092460390
:10500000109247031092AD0D1092AE0D1092AF0D9D
:105010001092B00D82E390E00E944893863119F01F
:105020000E943E6408C040E150E063E370E08AEB18
:1050300097E00E94389391E09093B5076D98759A28
:10504000809104018E7F80930401809105018095F9
:1050500081708093030152985A9A109279031092AA
:105060007803819A879A80910A01826080930A016D
:105070000E9A3B9A579A5F9A829A8A9A8091070170
:1050800081608093070180910801809581708093F1
:1050900006010A9A129A3F9A479A809A88985F9ACC
:1050A0008091FA038E7F8093FA03869A8E988A9A6B
:1050B0008091FA038D7F8093FA0380910A018860C2
:1050C00080930A0180910B0188708093090180917F
:1050D000080180958170809306018091FA038B7F8F
:1050E0008093FA030C9A1498129A809180008C7F16
:1050F0008093800080918100877E8860809381000A
:10510000809180008F738093800080918100887FE0
:1051100082608093810020E030E430938900209306
:105120008800109285001092840080916F00826048
:1051300080936F009093790378940E94866298E23E
:1051400088E10FB6F894A895809360000FBE909305
:1051500060000F900F90DF91CF911F910F91FF9002
:10516000EF9008955F9A8091FA038E7F8093FA03FF
:105170008A9A8091FA038D7F8093FA0380910801C7
:1051800080958170809306018091FA038B7F8093D4
:10519000FA03129A0895E2E5FEE18491EF01219667
:1051A000882321F00E94D215FE01F7CFE2E2F1E15F
:1051B0008491EF012196882321F00E94D215FE01EF
:1051C000F7CF0E94BE32CEDF2FEF8BE49DE121505E
:1051D00080409040E1F700C00000F8942FEF84E396
:1051E0009CE0215080409040E1F700C000000E9408
:1051F000BE32A895FECF2F923F924F925F926F9250
:105200007F928F929F92AF92BF92CF92DF92EF9256
:10521000FF920F931F93CF93DF9300D0CDB7DEB7EC
:10522000C0D56B017C0180910602882309F468C017
:1052300080914804882309F463C04091A1065091ED
:10524000A2066091A3067091A40697018601041B33
:10525000150B260B370B37FD66C0833019F134F47C
:1052600081300CF44DC0ECE4FEE106C0843009F05E
:1052700047C0ECE4FEE12EC084918F010F5F1F4F09
:10528000882321F00E94D215F801F6CFEDECF0E171
:1052900084918F010F5F1F4F882391F10E94D215D7
:1052A000F801F6CFECE4FEE184918F010F5F1F4F10
:1052B000882321F00E94D215F801F6CFE6EBF0E149
:1052C00084918F010F5F1F4F8823D1F00E94D21568
:1052D000F801F6CF84918F010F5F1F4F882321F0D3
:1052E0000E94D215F801F6CFEEE9F0E184918F012A
:1052F0000F5F1F4F882321F00E94D215F801F6CFCF
:105300002091060230E0A8EEB3E00E94BA93C60EE8
:10531000D71EE81EF91EC092A106D092A206E09206
:10532000A306F092A4068091CC05843010F40E946C
:10533000771637D5C0906403D0906503E09066037C
:10534000F0906703C114D104E104F10471F10091FC
:1053500054031091550320915603309157030C0DBF
:105360001D1D2E1D3F1D6B017C01C01AD10AE20AD2
:10537000F30AF7FC1AC0E2E5FEE184918F010F5FAA
:105380001F4F882321F00E94D215F801F6CF6091BB
:10539000E00D7091E10D88EE90E10E9448638AE093
:1053A0000E94D2158FED90E1F6DEC0906003D090A0
:1053B0006103E0906203F0906303C114D104E1043F
:1053C000F104D9F13091EC0D2091ED0D321749F037
:1053D000609354037093550380935603909357033F
:1053E0002CC0009154031091550320915603309125
:1053F00057030C0D1D1D2E1D3F1DDC01CB01801B15
:10540000910BA20BB30BB7FD18C05F9A8091FA0302
:105410008E7F8093FA038A9A8091FA038D7F80931E
:10542000FA03809108018095817080930601809134
:10543000FA038B7F8093FA03129A9091EC0D80917E
:10544000ED0D981791F0E091ED0D0DE5E09FF00165
:105450001124EF5DF74F60818091ED0D9091EC0D7F
:10546000891729F08F5F8F70F9CF60915E0370E02C
:1054700089E0FFD28091CD06882309F4FEC0009117
:10548000300210913102C0903202CB82D0903302B0
:10549000DA8260915203709153036E5F7F4F072E43
:1054A000000C880B990B0E94888F9801A6010E941E
:1054B000828F87FDE2C0F090ED0D212C312CE12C84
:1054C00019828091EC0DF81609F462C08F2D90E0DE
:1054D0002DE5289FF001299FF00D1124E653F84F88
:1054E000458956896789708D452B462B472B81F45A
:1054F000418D528D638D748D452B462B472B41F486
:10550000458D568D678D70A1452B462B472BD9F1C4
:105510004DE5489F9001499F300D1124C9018653E4
:10552000984F6C01FC0161817281838194810E949A
:1055300035964B015C01F60161A172A183A194A192
:105540000E94868F2B013C01F60165A176A187A1FF
:1055500090A50E94868F9B01AC01C301B2010E94FD
:10556000A694A50194010E94E78F5B016C019B0149
:10557000AC01B1018E2D99810E94828F87FF03C0FB
:105580001501EC2CD98281E08F0D8F70F82E99CF08
:105590002091340230913502409136025091370209
:1055A000B1018E2D99810E94E78F9B01AC01B8015A
:1055B0008B819A810E94CA936B017C0198014B8177
:1055C0005A810E94828F87FD16C000912C02109193
:1055D0002D02F0912E02FB8320912F022A83980145
:1055E0004F2F5A81B601C7010E94F09518161CF082
:1055F0008601EB82FA82C090A506D090A606E090C4
:10560000A706F090A806A7019601B8018B819A81A0
:105610000E94828F87FF1CC020E037ED43EA5CE3E5
:10562000B8018B819A810E94E78F4B015C0128E4CD
:1056300031EE4AE75FE3C701B6010E94E78F9B01A5
:10564000AC01C501B4010E94CA938B018B839A837C
:10565000C801AB81BA818093A5069093A606A0935A
:10566000A706B093A806B801CD010E940E957093CD
:1056700053036093520380E037D70E94686C109107
:105680004803113009F08AC08091B90681110BC01E
:1056900088D36093B5067093B6068093B70690934F
:1056A000B8061093B9068091AD0681110CC079D36C
:1056B0006093A9067093AA068093AB069093AC06FC
:1056C00081E08093AD066DD36B017C018091B506BE
:1056D0009091B606A091B706B091B80697018601E1
:1056E000081B190B2A0B3B0BD901C80180319742CB
:1056F000A105B105A0F18090B6079090B707A090E2
:10570000B807B090B9070E94C06D6093B607709358
:10571000B7078093B8079093B9070091BE0710911F
:10572000BF072091C0073091C107081919092A093C
:105730003B09DC01CB01800F911FA21FB31F809397
:10574000BE079093BF07A093C007B093C107C09254
:10575000B506D092B606E092B706F092B8068091F0
:10576000A9069091AA06A091AB06B091AC06A7013C
:105770009601281B390B4A0B5B0BDA01C9018038F3
:105780009E4EA105B10550F0C092A906D092AA067E
:10579000E092AB06F092AC060E94C16380914D038B
:1057A000882309F442C0FDD20091490310914A03B5
:1057B00020914B0330914C03DC01CB01801B910BFA
:1057C000A20BB30BB7FD31C0ECD26B017C01209171
:1057D0004D0330E0A8EEB3E00E94BA93DC01CB01A8
:1057E0008C0D9D1DAE1DBF1D8093490390934A03F0
:1057F000A0934B03B0934C03C6D38AE00F900F9055
:105800000F90DF91CF911F910F91FF90EF90DF905C
:10581000CF90BF90AF909F908F907F906F905F9050
:105820004F903F902F900C94D2150F900F900F90A7
:10583000DF91CF911F910F91FF90EF90DF90CF906C
:10584000BF90AF909F908F907F906F905F904F90A0
:105850003F902F90089590E0FC013197E231F105DF
:1058600008F04EC08827EE58FF4F8F4F0C94CF960C
:10587000809180008F7703C0809180008F7D80931E
:105880008000089580918000877FF9CF84B58F775D
:1058900002C084B58F7D84BD08958091B0008F775C
:1058A00003C08091B0008F7D8093B00008958091F7
:1058B00090008F7707C0809190008F7D03C080910A
:1058C0009000877F8093900008958091A0008F774B
:1058D00007C08091A0008F7D03C08091A000877FCA
:1058E0008093A0000895809120018F7707C0809158
:1058F00020018F7D03C080912001877F809320014C
:1059000008953FB7F8948091F0069091F106A09128
:10591000F206B091F30626B5A89B05C02F3F19F0FB
:105920000196A11DB11D3FBFBA2FA92F982F88271F
:10593000820F911DA11DB11DBC01CD0142E0660F7A
:10594000771F881F991F4A95D1F70895CF93DF934A
:10595000282F30E0F901EA55FB4E8491F901E05A15
:10596000FB4ED491F901E65EFB4EC491CC2389F045
:10597000811171DFEC2FF0E0EE0FFF1FE050FC4EC5
:10598000A591B491EC91ED2381E090E021F480E0C9
:1059900002C080E090E0DF91CF9108951F93CF93F4
:1059A000DF93282F30E0F901EA55FB4E8491F9018D
:1059B000E05AFB4ED491F901E65EFB4EC491CC2334
:1059C000C1F0162F811147DFEC2FF0E0EE0FFF1F23
:1059D000EA51FC4EA591B4918FB7F894111105C00E
:1059E0009C91ED2FE095E92302C0EC91ED2BEC9317
:1059F0008FBFDF91CF911F910895CF93DF9390E0F8
:105A0000FC01E05AFB4E2491FC01E65EFB4E8491C2
:105A1000882361F190E0880F991FFC01E453FC4E4C
:105A2000C591D491FC01EA51FC4EA591B49161114C
:105A300009C09FB7F8948881209582238883EC91D0
:105A40002E230BC0623061F49FB7F8943881822F07
:105A5000809583238883EC912E2B2C939FBF06C0C7
:105A60008FB7F894E8812E2B28838FBFDF91CF91D9
:105A700008951F93CF93DF93182FEB0161E0BDDFF3
:105A8000209711F460E004C0CF3FD10531F461E00C
:105A9000812FDF91CF911F9181CFE12FF0E0EA5567
:105AA000FB4EE4914E2F50E0FA013197E231F105BF
:105AB00008F09DC08827EC57FF4F8F4F0C94CF966E
:105AC00084B5806884BDC7BD97C084B5806284BD3D
:105AD000C8BD92C080918000806880938000D09380
