:100000000C9411110C9442110C9442110C94421155
:100010000C9442110C9442110C9442110C94421114
:100020000C9442110C9442110C9442110C94421104
:100030000C9442110C9442110C9442110C944211F4
:100040000C9442110C943C860C9442110C94421175
:100050000C9442110C9442110C94C95E0C94CC5B2C
:100060000C9442110C94E42F0C9442110C94421104
:100070000C9442110C9442110C9442110C944211B4
:100080000C9442110C9442110C9442110C944211A4
:100090000C9442110C9442110C9442110C94421194
:1000A0000C9442110C9442110C9442110C94421184
:1000B0000C9442110C9442110C9442110C94421174
:1000C0000C9442110C9442110C9442110C94421164
:1000D0000C9442110C9442110C9442110C94421154
:1000E0000C944211E459E759D659DA59E0591E5A8D
:1000F000EB59EF59F559F959FD59035A075A0B5A5B
:100100001E5A115A155A195AB15AB65ABB5AC55ADB
:10011000CF5A485BD95AE15AE95AF35AFD5A075B5C
:10012000165B205B485B2A5B345B3E5B084AD73B2F
:100130003BCE016E84BCBFFDC12F3D6C74319ABDB6
:1001400056833DDA3D00C77F11BED9E4BB4C3E91DA
:100150006BAAAABE000000803F05A84CCDB2D44EC9
:10016000B93836A9020C50B9918688083CA6AAAACB
:100170002ABE000000803F004E414E494E4954596E
:10018000494E46CDCCCC3D0AD7233C17B7D1387762
:10019000CC2B329595E6241FB14F0A000020410078
:1001A00000C84200401C4620BCBE4CCA1B0E5AAEC2
:1001B000C59D74434F4D4D554E49434154494F4E93
:1001C0000044525952554E004552524F5253004925
:1001D0004E464F004543484F0047322F4733206279
:1001E000616420706172616D65746572730A0020CC
:1001F0006F6620004D424C2047323920706F696E87
:1002000074200059206F7574206F662072616E67CC
:10021000652028312D33292E0A0058206F7574204F
:100220006F662072616E67652028312D33292E0A92
:10023000004D6573682070726F62696E6720646F2D
:100240006E652E0A005374617274206D65736820A8
:1002500070726F62696E6720776974682022473216
:1002600039205331222066697273742E0A00473296
:10027000392053320053746174653A20004D657320
:100280006820626564206C6576656C696E672068BD
:100290006173206E6F20646174612E0A0053206FB9
:1002A0007574206F662072616E67652028302D3569
:1002B000292E0A004D65736820706F696E74206383
:1002C000616E6E6F74206265207265736F6C766507
:1002D000640A005072696E742074696D653A20007A
:1002E0006F6E2E0A006F66662E0A00473236204473
:1002F00065627567200046696C616D656E74207576
:100300007365643A200053746174733A20002C20A2
:100310004C6F6E67657374206A6F623A2000546F89
:1003200074616C2074696D653A2000537461747354
:100330003A20002C204661696C65643A20002C202C
:1003400046696E69736865643A20005072696E741C
:10035000733A200053746174733A2000D401CF01C2
:10036000C801C101B3016F66660044454255473A72
:10037000004B494C4C45442E20004D313133205325
:10038000006F6B0020573A0020573A0054484552FE
:100390004D414C5F50524F54454354494F4E0041DC
:1003A00055544F5245504F52545F53445F5354413C
:1003B00054555300454D455247454E43595F5041B2
:1003C0005253455200434153455F4C494748545F9F
:1003D0004252494748544E45535300544F47474CA7
:1003E000455F4C494748545300534F465457415278
:1003F000455F504F574552004255494C445F504568
:100400005243454E54004C4556454C494E475F4477
:10041000415441005A5F50524F4245004155544F9C
:100420004C4556454C005052494E545F4A4F42008D
:1004300050524F4752455353004155544F52455027
:100440004F52545F54454D5000564F4C554D4554F6
:1004500052494300454550524F4D00534552494182
:100460004C5F584F4E5F584F4646004649524D57D5
:100470004152455F4E414D453A4D61726C696E2067
:100480004A313850535F3138313231395F31363487
:10049000395F484120534F555243455F434F4445D0
:1004A0005F55524C3A68747470733A2F2F676974B1
:1004B0006875622E636F6D2F616861727368616326
:1004C0002F46574A756C6961323031384D61726C14
:1004D000696E2050524F544F434F4C5F5645525314
:1004E000494F4E3A312E30204D414348494E455FE9
:1004F000545950453A4A756C69612050726F2053C7
:10050000696E676C652045585452554445525F43A7
:100510004F554E543A3120555549443A396536398C
:10052000626530622D643736632D343234662D397E
:100530006332382D306662643162666166373561D8
:100540000A002F2F20007A5F6D61783A2000795FD2
:100550006D61783A2000785F6D696E3A20005265CF
:10056000706F7274696E6720656E6473746F70204B
:100570007374617475730A005741524E494E472196
:10058000204C6F77205A204A65726B206D6179206C
:100590006C65616420746F20756E77616E7465643C
:1005A000207061757365732E0A00546F6F20666149
:1005B000722066726F6D207265666572656E636526
:1005C00020706F696E740A00205A0020590058008C
:1005D00020204D61783A2000205A00205900580010
:1005E00020204D696E3A20004F6E20004F66660055
:1005F000536F667420656E6473746F70733A200075
:1006000020466C6F773A2000000136372603FFFF43
:10061000FF353C3D38FF0FFFFF312E303EFF13FF0B
:10062000FFFF28FF0C0809FFFFFF1A1C18FFFF2A15
:1006300008440AFF4320643A0020693A0020703AD7
:1006400000496E76616C69642065787472756465C2
:10065000720A0043290A0061626C656420286D6992
:100660006E2074656D702000436F6C642065787433
:100670007275646573206172652000236465666924
:100680006E652044454641554C545F4B6420002321
:10069000646566696E652044454641554C545F4B20
:1006A00069200023646566696E65204445464155AE
:1006B0004C545F4B702000504944204175746F7456
:1006C000756E652066696E69736865642120507572
:1006D0007420746865206C617374204B702C204BFF
:1006E0006920616E64204B6420636F6E7374616E69
:1006F00074732066726F6D2062656C6F7720696E0F
:10070000746F20436F6E66696775726174696F6E8E
:100710002E680A00504944204175746F74756E65E7
:10072000206661696C6564212074696D656F7574FC
:100730000A00453120544845524D414C2052554EF7
:100740004157415900546865726D616C2052756E55
:10075000617761790045312048656174696E672071
:100760006661696C65640048656174696E672066DE
:1007700061696C656400504944204175746F7475FB
:100780006E65206661696C6564212054656D7065D5
:1007900072617475726520746F6F20686967680A8A
:1007A00000204B643A2000204B693A2000204B7017
:1007B0003A20000A20436C617373696320504944F6
:1007C000200A002054753A2000204B753A20002062
:1007D0006D61783A2000206D696E3A200020643AFD
:1007E000200020626961733A20005049442041751D
:1007F000746F74756E65206661696C656421204252
:100800006164206578747275646572206E756D62BE
:1008100065720A00504944204175746F74756E65A5
:100820002073746172740A004E6F206361736520D7
:100830006C696768740A00426564204C6576656C73
:10084000696E6720004661696C656420746F20657D
:100850006E61626C6520426564204C6576656C69EA
:100860006E670A004D65736820426564204C6576AA
:10087000656C20646174613A0A00454550524F4DE1
:10088000204F4B0A003F4B2076616C7565206F75D9
:1008900074206F662072616E67652028302D3130BC
:1008A000292E0A00416476616E6365204B3D00414C
:1008B00063746976652045787472756465723A2050
:1008C00000496E76616C6964206578747275646540
:1008D000720A00696E206D6F76655F746F2829203B
:1008E000666565645F76616C756520666F72205819
:1008F000593A002C2065793D0029202D3E2028659D
:10090000783D002C2073793D0020436F6E6E656347
:1009100074696E672077697468207665727469639C
:10092000616C206C696E65202873783D002C206511
:10093000793D0029202D3E202865783D002C20732C
:10094000793D0020436F6E6E656374696E67207732
:1009500069746820686F72697A6F6E74616C206C5C
:10096000696E65202873783D003F53706563696642
:1009700069656420582C5920636F6F7264696E61D9
:100980007465206F7574206F6620626F756E647376
:100990002E0A003F28522965706561742076616CCB
:1009A0007565206E6F7420706C61757369626C651B
:1009B0003B206D757374206265206174206C6561E5
:1009C000737420312E0A003F2852296570656174C6
:1009D000206D757374206265207370656369666944
:1009E0006564207768656E206E6F74207573696E1C
:1009F0006720616E204C43442E0A003F53706563AC
:100A00006966696564206E6F7A7A6C652074656DBD
:100A10007065726174757265206E6F7420706C61A0
:100A2000757369626C652E0A003F53706563696671
:100A30006965642066696C616D656E742073697A9E
:100A400065206E6F7420706C61757369626C652EC1
:100A50000A003F5370656369666965642070726956
:100A60006D65206C656E677468206E6F7420706CA5
:100A700061757369626C652E0A003F5072696D651D
:100A8000206C656E677468206D75737420626520D4
:100A9000737065636966696564207768656E206E4A
:100AA0006F74207573696E6720616E204C43442E0D
:100AB0000A003F537065636966696564206E6F7AEA
:100AC0007A6C652073697A65206E6F7420706C6132
:100AD000757369626C652E0A003F537065636966C1
:100AE0006965642052657472616374696F6E204D2C
:100AF000756C7469706C696572206E6F7420706CAF
:100B000061757369626C652E0A003F52657472618B
:100B10006374696F6E204D756C7469706C69657271
:100B2000206D7573742062652073706563696669F2
:100B300065642E0A003F53706563696669656420C9
:100B40006C6179657220686569676874206E6F747E
:100B500020706C61757369626C652E0A003F53707A
:100B600065636966696564206265642074656D709B
:100B700065726174757265206E6F7420706C61753A
:100B80007369626C65202834302D31343043292E4E
:100B90000A0047323620636F6D6D616E6420737496
:100BA00061727465642E2057616974696E6720668E
:100BB0006F72206865617465722873292E0A00259A
:100BC00069730025696D20256973002569682025F2
:100BD000696D2025697300256964202569682025D1
:100BE000696D2025697300256979202569642025B0
:100BF00069682025696D2025697300656E717565CA
:100C00007565696E6720220024F4D43050C38E20AD
:100C1000C2A24017828B7011127A910D816CD90A91
:100C2000A861E108C7586607615143061E4B5D0580
:100C3000C145A7041A411104093D980371393103D4
:100C40004036DB0265339102D4305402802E1D02FF
:100C5000632CEE01752AC501B028A001102781017F
:100C60008F2564012B244B01E0223401AC211F01AC
:100C70008D200D01801FFC00841EED00971DDF00FC
:100C8000B81CD200E61BC600201BBC00641AB200D0
:100C9000B219A8000A19A0006A189900D11791008A
:100CA00040178B00B516840031167E00B31579000D
:100CB0003A157300C7146F0058146A00EE136600EB
:100CC0008813630025135E00C7125B006C12570087
:100CD00015125400C111510070114F0021114B0029
:100CE000D61049008D104700461044000210420003
:100CF000C00F4000800F3E00420F3C00060F3B003B
:100D0000CB0E3800930E37005C0E3500270E3400F2
:100D1000F30D3200C10D3100900D3000600D2E003A
:100D2000320D2D00050D2C00D90C2B00AE0C290026
:100D3000850C29005C0C2700350C27000E0C2600C2
:100D4000E80B2400C40B2400A00B23007D0B230020
:100D50005A0B2100390B2100180B2000F80A1F0044
:100D6000D90A1E00BB0A1E009D0A1D00800A1D0034
:100D7000630A1C00470A1B002C0A1B00110A1A00F8
:100D8000F7091A00DD091900C4091900AB09190097
:100D9000920917007B091800630917004C09160017
:100DA00036091600200916000A091500F508150075
:100DB000E0081400CC081400B8081400A4081400BB
:100DC000900813007D0812006B08130058081200E9
:100DD00046081200340811002308110012081100FF
:100DE00001081100F0071000E0071000D007100004
:100DF000C0071000B0070F00A107100091070E00F8
:100E000083070F0074070F0065070E0057070E00D9
:100E100049070E003B070D002E070E0020070D00AE
:100E200013070D0006070D00F9060C00ED060D0076
:100E3000E0060C00D4060C00C8060C00BC060C0032
:100E4000B0060C00A4060B0099060C008D060B00E2
:100E500082060B0077060B006C060B0061060A0089
:100E600057060B004C060A0042060A0038060A0024
:100E70002E060A0024060A001A060A0010060900B7
:100E800007060A00FD050900F4050900EB05090045
:100E9000E2050900D9050900D0050900C7050900C8
:100EA000BE050900B5050800AD050800A505090047
:100EB0009C050800940508008C05080084050800BE
:100EC0007C050800740508006C050700650508002E
:100ED0005D050700560508004E0507004705070099
:100EE0004005080038050700310507002A050700FE
:100EF000230507001C050600160507000F0507005F
:100F00000805060002050700FB040600F5040700BB
:100F1000EE040600E8040600E2040700DB04060015
:100F2000D5040600CF040600C9040600C304060069
:100F3000BD040600B7040600B1040500AC040600B9
:100F4000A6040600A00405009B0406009504050005
:100F5000900406008A04050085040500800406004C
:100F60007A04050075040500700405006B04050093
:100F700066040500610405005C04050057040500D3
:100F8000520405004D040500480405004304050013
:100F90003E0404003A040500350405003004040052
:100FA0002C04050027040400230405001E0404008B
:100FB0001A04040016040500110404000D040400C2
:100FC000090405000404040000040400FC030400F8
:100FD000F8030400F4030400F0030400EC0304002D
:100FE000E8030400E4030400E0030400DC0304005D
:100FF000D8030400D4030400D0030400CC0304008D
:10100000C8030300C503030024F404D9201BC40C47
:101010005C0E9804C4095F0265077101F405F900CC
:10102000FB04B30048048700C1036900580355005E
:1010300003034500BE023A008402310053022A0035
:101040002902250004022000E4011C00C801190047
:10105000AF01170098011400840113007101100002
:101060006101100051010E0043010D0036010B001B
:101070002B010B0020010B00150109000C010900D8
:1010800003010800FB000800F3000800EB00070064
:10109000E4000600DE000600D8000600D2000600CC
:1010A000CC000500C7000500C2000500BD0004001B
:1010B000B9000400B5000400B1000400AD00040054
:1010C000A9000400A5000300A20003009F00040083
:1010D0009B000300980003009500020093000300AA
:1010E000900003008D0002008B00030088000200C6
:1010F0008600020084000300810002007F000200DD
:101100007D0002007B0002007900020077000100F0
:1011100076000200740002007200010071000200FB
:101120006F0002006D0001006C0002006A00010007
:10113000690002006700010066000100650001000F
:101140006400020062000100610001006000010013
:101150005F0002005D0001005C0001005B00010017
:101160005A00010059000100580001005700010019
:10117000560001005500010054000100530000001A
:101180005300010052000100510001005000010015
:101190004F0001004E0000004E0001004D00010014
:1011A0004C0001004B0000004B0001004A00010010
:1011B000490001004800000048000100470001000C
:1011C0004600000046000100450000004500010007
:1011D0004400010043000000430001004200000001
:1011E00042000100410000004100010040000100F8
:1011F0003F0000003F0001003E0000003E000100F3
:101200003D0000003D0001003C0000003C000000EB
:101210003C0001003B0000003B0001003A000000E0
:101220003A000100390000003900010038000000D8
:1012300038000000380001003700000037000100CE
:1012400036000000360000003600010035000000C6
:1012500035000000350001003400000034000000BB
:1012600034000100330000003300000033000100AF
:1012700032000000320000003200010031000000A6
:10128000310000003100010030000000300000009B
:10129000300001002F0000002F0000002F00000090
:1012A0002F0001002E0000002E0000002E00010083
:1012B0002D0000002D0000002D0000002D00010079
:1012C0002C0000002C0000002C0000002C0001006D
:1012D0002B0000002B0000002B0000002B00010061
:1012E0002A0000002A0000002A0000002A00010055
:1012F000290000002900000029000000290000004A
:10130000290001002800000028000000280000003B
:10131000280000002800010027000000270000002E
:101320002700000027000000270001002600000021
:101330002600000026000000260000002600010014
:101340002500000025000000250000002500000009
:1013500025000000250001002400000024000000FA
:1013600024000000240000002400010023000000ED
:1013700023000000230000002300000023000000E1
:1013800023000000230001002200000022000000D2
:1013900022000000220000002200000022000100C4
:1013A00021000000210000002100000021000000B9
:1013B00021000000210000002100010020000000A9
:1013C000200000002000000020000000200000009D
:1013D0002000000020000000200001001F0000008D
:1013E0001F0000001F0000001F0000001F00000081
:1013F0001F0000001F0001001E0000001E00000072
:101400001E0000001E000000232C0000B822000077
:10141000561800003A0F0000B8080000B1040000A0
:10142000710200003E01000020746F6F206C6F6E2F
:101430006720657874727573696F6E207072657657
:10144000656E7465640A0020636F6C64206578744F
:10145000727573696F6E2070726576656E746564FF
:101460000A004265642068656174696E6720666180
:10147000696C65640048656174696E6720666169BE
:101480006C65640045312048656174696E6720664B
:1014900061696C65640048656174696E67206661A6
:1014A000696C6564001000600350012C01900122FA
:1014B00001D001180110020E0170020401E002FACD
:1014C000006003F0000004E600B004DC00A005D2D8
:1014D00000B006C8000008BE00A009B400800BAA36
:1014E00000D00DA00090109600C0138C00701782E1
:1014F00000901B780010206E00C0246400E02D5086
:101500000080353C00A03A2800A03D1400003F00B8
:1015100000A03FECFF4531204572723A204D415802
:1015200054454D50004572723A204D415854454D36
:101530005020424544004D415854454D502074724E
:1015400069676765726564004531204572723A20AB
:101550004D494E54454D50004572723A204D494E0A
:1015600054454D5020424544004D494E54454D5040
:101570002074726967676572656400202F002042DD
:10158000403A0020403A0000002100240027002AB1
:10159000002D003000330001010000040107010AA2
:1015A0000100002200250028002B002E003100340D
:1015B0000002010000050108010B014C696E652065
:1015C0004E756D626572206973206E6F74204C6178
:1015D0007374204C696E65204E756D6265722B3197
:1015E0002C204C617374204C696E653A20004B4985
:1015F0004C4C45442E20005072696E746572207305
:10160000746F707065642064756520746F206572F6
:10161000726F72732E204669782074686520657237
:10162000726F7220616E6420757365204D3939398F
:1016300020746F20726573746172742E2028546553
:101640006D7065726174757265206973207265735F
:1016500065742E2053657420697420616674657208
:101660002072657374617274696E67290A004E6F27
:1016700020436865636B73756D2077697468206CAF
:10168000696E65206E756D6265722C204C61737495
:10169000204C696E653A2000636865636B73756DF5
:1016A000206D69736D617463682C204C61737420C4
:1016B0004C696E653A20004D3131300020496E761C
:1016C000616C6964206578747275646572200000CD
:1016D00000000000000000000000000080C5430082
:1016E00080C5430080CA43486F6D696E672066619C
:1016F000696C656400206E6F7420656E7465726538
:10170000642E0A0050726F746563746564205069BA
:101710006E0A00205A3A0020423A0020436F756E4C
:101720007420413A0020453A00205A3A0020593AA4
:1017300000583A003A004361703A002054002052A9
:1017400000416363656C65726174696F6E3A205025
:10175000004D65736820706F696E742063616E6EF2
:101760006F74206265207265736F6C7665640A0021
:101770004D34323120696E636F727265637420700C
:101780006172616D657465722075736167650A00C9
:10179000454550524F4D206461746173697A6520EC
:1017A0006572726F722E0A00290A002062797465D0
:1017B000733B20637263200053657474696E6773B2
:1017C0002053746F726564202800290A0020627912
:1017D0007465733B2063726320002073746F7265BD
:1017E000642073657474696E6773207265747269BE
:1017F00065766564202800202863616C63756C61E0
:1018000074656429210A0020213D2000454550527D
:101810004F4D20435243206D69736D61746368209E
:101820002D202873746F7265642920002053697A13
:10183000653A2000496E6465783A2000204D617257
:101840006C696E3D563535290A0028454550524F82
:101850004D3D00454550524F4D2076657273696F7E
:101860006E206D69736D6174636820000000200054
:101870002300260029002C002F0032000001000068
:101880000301060109010505050507050808080803
:10189000020202020A0A0808040404040101010108
:1018A0000101010103030303030303030407070703
:1018B0000C0C0C0C0C0C0C0C0202020206060606A8
:1018C000060606060B0B0B0B0B0B0B0B0102102075
:1018D0002008081020401020408002010201080466
:1018E00002010102040810204080804020100804FA
:1018F0000201800402018040201008040201080453
:101900000201010204081020408001020408102096
:10191000408000000A0B02090C0D0E0807030401A9
:1019200000000000000000000000000000000000B7
:101930000000000000000000000000000000121184
:101940001000000000000000000000000000000087
:1019500000000000000000004B494C4C45442E2084
:1019600000202D20496E76616C6964206578747260
:1019700075646572206E756D62657220210A0020A3
:1019800020506C616E6E6572427566666572427952
:101990007465733A20002046726565204D656D6F51
:1019A00072793A2000436F6D70696C65643A204427
:1019B000656320313920323031380A00207C2041E3
:1019C0007574686F723A20467261636B74616C2043
:1019D000576F726B730A00323031382D31322D312E
:1019E000392031363A343900204C617374205570F7
:1019F00064617465643A20004275696C643A204AF7
:101A0000313850535F3138313231395F3136343902
:101A10005F48410A00467261636B74616C20576FC6
:101A2000726B73204A756C69612050726F20536924
:101A30006E676C650A00312E312E390A004D6172D5
:101A40006C696E0020536F66747761726520526511
:101A50007365740A00205761746368646F6720526D
:101A6000657365740A002042726F776E206F75741B
:101A70002052657365740A002045787465726E6142
:101A80006C2052657365740A00506F7765725570EB
:101A90000A0073746172740A00205A3A0020593A9D
:101AA0000020583A00656E6473746F707320686923
:101AB000743A20000A4D6561737572656420706F19
:101AC000696E74733A0A005A206F66667365743AD9
:101AD00020004E756D20582C593A20332C330A00C3
:101AE000FFFDFCFAF8F6F4F2F0EEECEAE9E7E5E3E4
:101AF000E1E0DEDCDAD9D7D5D4D2D0CFCDCBCAC89D
:101B0000C7C5C3C2C0BFBDBCBAB9B7B6B4B3B2B023
:101B1000AFADACAAA9A8A6A5A4A2A1A09E9D9C9A7F
:101B200099989795949392908F8E8D8B8A898887B8
:101B30008684838281807F7E7D7B7A7978777675D3
:101B400074737271706F6E6D6C6B6A6968676665CD
:101B500064636261605F5E5D5C5B5A5958585756BA
:101B6000555453525150504F4E4D4C4B4A4A494890
:101B7000474646454443424241403F3E3E3D3C3B52
:101B80003B3A393838373635353433323231303004
:101B90002F2E2E2D2C2B2B2A2929282727262525A9
:101BA00024232322212120201F1E1E1D1C1C1B1B41
:101BB0001A191918181716161515141313121211CD
:101BC00011100F0F0E0E0D0D0C0C0B0A0A0909084F
:101BD00008070706060505040403030202010000C6
:101BE0000000000100000001000080005555550074
:101BF0000000400033333300AAAA2A00499224008F
:101C000000002000C7711C0099991900D1451700E8
:101C1000555515003BB11300244912001111110054
:101C2000000010000F0F0F00E3380E0043790D0085
:101C3000CCCC0C00C3300C00E8A20B0064210B00DC
:101C4000AAAA0A00703D0A009DD80900427B09003B
:101C500092240900DCD3080088880800104208009C
:101C600000000800F0C107008787070075500700D3
:101C7000711C07003EEB0600A1BC0600699006003F
:101C800066660600703E06006118060017F405003F
:101C900074D105005BB00500B290050062720500CA
:101CA0005555050078390500B81E050005050500E5
:101CB0004EEC040087D40400A1BD040090A70400EA
:101CC00049920400C17D0400EE690400C756040077
:101CD000444404005C320400082104004110040064
:101CE000000004003FF00300F8E0030026D20300E8
:101CF000C3C30300CCB503003AA803000A9B03004A
:101D0000388E0300C08103009F750300D069030073
:101D1000505E03001D53030034480300913D03004F
:101D20003333030016290300381F030097150300FF
:101D3000300C0300030303000BFA020049F1020018
:101D4000BAE802005CE002002DD802002DD00200AB
:101D500059C80200B0C0020031B90200DAB1020075
:101D6000AAAA0200A0A30200BC9C0200FA950200ED
:101D70005C8F0200DF88020082820200457C020044
:101D80002776020027700200436A02007C6402008A
:101D9000D05E02003F590200C853020048617264DD
:101DA000636F6465642044656661756C7420536577
:101DB0007474696E6773204C6F616465640A0020F7
:101DC0000300002003000032000000102700000084
:101DD000004843000048430000A041000034420096
:101DE00000204300002043F0F77B4400008C432098
:101DF000286D6D290020204D393030204B004C6972
:101E00006E65617220416476616E63653A0A0020F6
:101E1000440020490020204D3330312050005049EB
:101E2000442073657474696E67733A0A00205A001F
:101E300020590020204732392053332058002020D9
:101E40004D3432302053004D657368204265642064
:101E50004C6576656C696E673A0A00205A00205915
:101E60000020204D323036205800486F6D65206FBD
:101E700066667365743A0A00204500205A002059AE
:101E80000020580020540020530020204D323035CF
:101E900020420020453C6D61785F655F6A65726B2A
:101EA0003E0020583C6D61785F785F6A65726B3EDA
:101EB00020593C6D61785F795F6A65726B3E205A8C
:101EC0003C6D61785F7A5F6A65726B3E0041647653
:101ED000616E6365643A20423C6D696E5F7365674D
:101EE0006D656E745F74696D655F75733E20533CFC
:101EF0006D696E5F66656564726174653E20543C11
:101F00006D696E5F74726176656C5F66656564723B
:101F10006174653E0020540020520020204D323074
:101F200034205000416363656C65726174696F6E43
:101F30002028756E6974732F7332293A20503C70D3
:101F400072696E745F616363656C3E20523C7265BA
:101F500074726163745F616363656C3E20543C74AA
:101F6000726176656C5F616363656C3E0A00204553
:101F700000205A0020590020204D323031205800D6
:101F80004D6178696D756D20416363656C65726143
:101F900074696F6E2028756E6974732F7332293AD5
:101FA0000A00204500205A0020590020204D3230E0
:101FB000332058004D6178696D756D2066656564E4
:101FC00072617465732028756E6974732F73293A72
:101FD0000A00204500205A0020590020204D3932A7
:101FE00020580053746570732070657220756E6997
:101FF000743A0A0020204D3230302044300A00204C
:10200000204D3230302044002044697361626C6599
:10201000640A0046696C616D656E74207365747442
:10202000696E67733A002020473231202020203B20
:1020300000627573793A2070617573656420666F0C
:102040007220696E7075740A00627573793A207037
:10205000617573656420666F7220757365720A001E
:10206000627573793A2070726F63657373696E6716
:102070000A004B494C4C45442E20004B494C4C2007
:1020800063617573656420627920746F6F206D756C
:10209000636820696E6163746976652074696D6533
:1020A000202D2063757272656E7420636F6D6D6193
:1020B0006E643A20005072696E7465722068616CBB
:1020C0007465642E206B696C6C28292063616C6CCC
:1020D0006564210A00000070C10080C5430080CA09
:1020E0004300004842000048420000A041000000B8
:1020F000005761726E696E673A20486F6D696E674E
:102100002042756D702044697669736F72203C209F
:10211000310A000202040000A0400000A0400000BC
:1021200000400080C5430080C5430080CA43FF01D2
:10213000014572726F722077726974696E672074DC
:102140006F20454550524F4D210A00526573656E10
:10215000643A20006F6B0020746F6F206C6F6E67A5
:1021600020657874727573696F6E2070726576651C
:102170006E7465640A0020636F6C64206578747205
:102180007573696F6E2070726576656E7465640A2A
:1021900000556E6B6E6F776E20636F6D6D616E6450
:1021A0003A2022002066697273740A005A005900AE
:1021B0005800486F6D6520006563686F3A0045728E
:1021C000726F723A00453120544845524D414C20BF
:1021D00052554E41574159004245442054484552BA
:1021E0004D414C2052554E4157415900546865723B
:1021F0006D616C2052756E61776179006265640A69
:10220000002C2073797374656D2073746F70706522
:102210006421204865617465725F49443A2000007A
:1022200064A011241FBECFEFD1E2DEBFCDBF00E01E
:102230000CBF12E0A0E0B2E0EAEEF9E501E00BBF6E
:1022400002C007900D92AC3FB107D9F72FE0ACEF79
:10225000B2E001C01D92A738B207E1F711E1C1E178
:10226000D1E100E006C021970109802FFE010E9404
:102270009EACC031D10780E00807A9F70E94F59A0B
:102280000C94F3AC0C9400002F923F924F925F920B
:102290006F927F928F929F92AF92BF92CF92DF9276
:1022A000EF92FF920F931F93CF93DF93CDB7DEB7DB
:1022B000CD56D1090FB6F894DEBF0FBECDBF21E0D9
:1022C00020930B0780915B058D3409F485C5843517
:1022D00011F40C948926873411F00C94CF26809148
:1022E000590590915A058B31910509F404C2A4F463
:1022F0008430910534F48230910594F597FF29C01C
:1023000067C58430910509F4C1C14A9709F060C5D9
:102310000E9410320C94D1268A32910509F453C4DC
:1023200044F48C31910509F485C24D9709F487C2B4
:102330004FC58B35910509F4D5C48C35910509F449
:10234000D5C48A35910509F043C510920F030C944A
:10235000D1268091490281110C94D6260C94D12665
:1023600020914902222311F40C94D12611E0029706
:1023700009F010E00E94B56419821A821B821C8247
:102380001D821E821F82188682E50E94B830882333
:1023900009F42CC10E943E306B017C012091C80ED3
:1023A0003091C90E4091CA0E5091CB0E2AA33BA387
:1023B0004CA35DA38090CC0E9090CD0EA090CE0E3D
:1023C000B090CF0E4091DC0E5091DD0E6091DE0E8C
:1023D0007091DF0E4EA35FA368A779A76091E00E0E
:1023E0007091E10E8091E20E9091E30E6AA77BA7B7
:1023F0008CA79DA720E030E0A901C701B6010E948B
:102400004BA5882309F408C12AA13BA14CA15DA1D9
:102410006EA17FA188A599A50E944BA581110BC033
:10242000A50194016AA57BA58CA59DA50E944BA53D
:10243000882309F4F1C020E030E0A901C701B6010A
:102440000E944BA5881F8827881F181309C080E0A9
:1024500090E0A0E8BFE38AAF9BAFACAFBDAF08C0D0
:1024600020E030E040E85FEB2AAF3BAF4CAF5DAF20
:102470002AA13BA14CA15DA16EA17FA188A599A530
:102480000E94B4A96AAB7BAB8CAB9DABA501940158
:102490006AA57BA58CA59DA50E94B4A96EAB7FAB58
:1024A00088AF99AF2AA93BA94CA95DA9CA01B90176
:1024B0000E94B0A52B013C012EA93FA948AD59AD02
:1024C000CA01B9010E94B0A59B01AC01C301B201D0
:1024D0000E94B5A90E9420AC6EA77FA788AB99ABDC
:1024E00020E030E040E05FE30E94B0A52B013C011A
:1024F000A7019601C701B6010E94B0A56B017C013E
:10250000A3019201C301B2010E94B0A59B01AC01DD
:10251000C701B6010E94B4A90E9420AC9B01AC0186
:102520006AAD7BAD8CAD9DAD0E94B0A56B017C0109
:102530002EA13FA148A559A56AA17BA18CA19DA16F
:102540000E94B5A920E030E040E05FE30E94B0A522
:102550002B013C016EA97FA988AD99AD90582EA59D
:102560003FA548A959A90E9491AA9B01AC01C701A6
:10257000B6010E94B0A59B01AC01C301B2010E944B
:10258000B5A92AA13BA14CA15DA10E94B4A9698370
:102590007A838B839C832AA53BA54CA55DA5C501A9
:1025A000B4010E94B5A920E030E040E05FE30E9462
:1025B000B0A52B013C012EA53FA548A959A96AA9A0
:1025C0007BA98CA99DA90E9491AA9B01AC01C7017E
:1025D000B6010E94B0A59B01AC01C301B2010E94EB
:1025E000B5A9A50194010E94B4A912C089E40E9472
:1025F000B830882331F00E943E3069837A838B8320
:102600009C838AE40E94B830882331F00E943E30D7
:102610006D837E838F83988720E030E0A9016981F4
:102620007A818B819C810E944BA581110BC020E097
:1026300030E0A9016D817E818F8198850E944BA534
:10264000882351F0412FBE016F5F7F4F8CED9EE0DC
:102650000E94868A0C94D126EEEBF1E284918F01E0
:102660000F5F1F4F882321F00E94622EF801F6CFE2
:10267000E9EDF1E084918F010F5F1F4F882311F482
:102680000C94D1260E94622EF801F4CF80E50E94BE
:10269000B830882329F00E94922D6B017C0103C081
:1026A000C12CD12C760183E50E94B830882361F0DB
:1026B0000E943E3020E030E04AE754E40E94B0A59A
:1026C0000E94FEAA6B017C010E9464580E94C05BBC
:1026D000C60ED71EE81EF91E0E94C05BDC01CB01AE
:1026E0008C199D09AE09BF09B7FD02C00C94D12613
:1026F0000E94FE82F1CF0E941B9681110C94D1267C
:1027000080E090E0A0E2B1E489839A83AB83BC834C
:1027100080E090E8A0ECB3E48D839E83AF83B8871C
:1027200080E090E0A0EAB1E489879A87AB87BC8714
:1027300080E50E94B830882319F00E940E3001C055
:1027400060E080E090E0A8ECB2E48E8F9F8FA8A3B9
:10275000B9A380E090E0A0EAB0E48A8F9B8FAC8FB1
:10276000BD8F613019F0623039F02AC0BE01665E5B
:102770007F4FCE01099645C029853A854B855C85FA
:102780006091D00E7091D10E8091D20E9091D30EA7
:102790000E94B5A96B017C0120E030E84AEC53E4CB
:1027A0000E944BA587FD07C0C12C10E8D12E1AEC62
:1027B000E12E13E4F12ECE8ADF8AE88EF98E1CC05A
:1027C000A090D00EB090D10EC090D20ED090D30E6B
:1027D000E984FA840B851C859501A601B701C8011F
:1027E0000E94DBAB181614F075018601C701D801F1
:1027F0008E8B9F8BA88FB98FBE01665E7F4FCE01F7
:1028000046960E94B967E090D00EF090D10E0091EC
:10281000D20E1091D30E2D813E814F815885698152
:102820007A818B819C81DE015E966D010E94DD665E
:102830000C94D12680E00E94D7670C94D12683E5C2
:102840000E94B830882311F10E941E30282F863054
:1028500070F0EDE9F2E084918F010F5F1F4F882344
:1028600011F40C94D1260E94622EF801F4CF83302B
:1028700009F42EC12CF4813069F18230D9F106C0FF
:10288000843009F487C1853009F494C10E9436660A
:10289000882399F08091F403811103C066ED72E002
:1028A00002C062ED72E085E792E00E9484878AE0D0
:1028B0000E94622E0E94F87982C1EDE7F2E08491D5
:1028C0008F010F5F1F4F882309F479C10E94622E88
:1028D000F801F5CF0E94AC7A10920102109200022A
:1028E0008EE692E09093FD028093FC020E946C2E93
:1028F0000C94D126809100029091010297FF0EC0A6
:10290000E5E4F2E084918F010F5F1F4F882311F4FB
:102910000C94D1260E94622EF801F4CF0097A1F406
:10292000809142028093100319821A821B821C82BA
:102930001E8A1F8A188E198EBE016F5F7F4FCE01CF
:1029400046960E94B9672AC0815063E00E947DAC20
:1029500080FF02C0291B922F292F990F330BF901F9
:10296000EE0FFF1FE20FF31FE80FF11D87FDFA9531
:10297000EE0FFF1FEE0FFF1FEB51F94F8091D00EAE
:102980009091D10EA091D20EB091D30E80839183FD
:10299000A283B3838091100380934202809100024E
:1029A00090910102893091050CF068C010924202AA
:1029B0009C012F5F3F4F309301022093000263E0A0
:1029C0000E947DAC80FF03C022E0291B922F409122
:1029D000D00E5091D10E6091D20E7091D30E4E8BCD
:1029E0005F8B688F798F19821A821B821C82B4E0F8
:1029F0008B0290011124F901E55DF04F4F01208118
:102A0000318142815381F4E09F02C0011124BC0155
:102A1000695C704F5B01DB016D917D918D919C91A3
:102A2000FE0131966F01E12CF12C00EA10E40E94C6
:102A3000DD6619821A821B821C82B601CE0146967F
:102A40000E94B967F50180819181A281B381809351
:102A5000C80E9093C90EA093CA0EB093CB0EF4018A
:102A600080819181A281B3818093CC0E9093CD0E11
:102A7000A093CE0EB093CF0E0C94DB2680E090E0B6
:102A8000A0EAB0E48093D00E9093D10EA093D20E22
:102A9000B093D30E0E9486660E9464588FEF9FEF1A
:102AA0009093010280930002E1E3F2E084918F01B0
:102AB0000F5F1F4F882321F00E94622EF801F6CF8E
:102AC00081E00E94D76781E00E9466660C94DB2655
:102AD00088E50E94B8308823A1F00E940E301FEFD5
:102AE000160F1330A8F0EAE1F2E084918F010F5F36
:102AF0001F4F882311F40C94D1260E94622EF801F6
:102B0000F4CF88E50E94622E0E94E59A0C94D126AB
:102B100089E50E94B8308823A1F00E940E300FEFA3
:102B2000060F0330A8F0E3E0F2E084918F010F5F1D
:102B30001F4F882311F40C94D1260E94622EF801B5
:102B4000F4CF89E50E94622E0E94E59A0C94D1266A
:102B50008AE50E94B8308823B1F00E943E30212FD0
:102B600030E0F901EE0FFF1FE20FF31FE00FF11D40
:102B7000EE0FFF1FEE0FFF1FEB51F94F60837183C4
:102B8000828393831CC08AE50E94622E0E94E59A8C
:102B90000C94D1268AE50E94B8308823A1F30E94C4
:102BA0003E306093E1067093E2068093E3069093D3
:102BB000E40605C080E00E9466660E94AC7A0E942E
:102BC000C8630C94D12680914902882311F40C9497
:102BD000D12689E40E94B830F82E882321F00E9483
:102BE0000E30062F01C000E08AE40E94B830E82EC3
:102BF000882331F00E940E30162FF11004C00AC055
:102C000010E0FF20B1F0033010F40C94932CE4EBAF
:102C1000F2E003C01330D8F70CC084918F010F5F2E
:102C20001F4F882311F40C94D1260E94622EF801C4
:102C3000F4CF0E94C430FF2091F024E00202F001A2
:102C40001124E95CF04F80819181A281B38180934E
:102C5000DC0E9093DD0EA093DE0EB093DF0EEE201F
:102C600091F034E01302F0011124E55DF04F808112
:102C70009181A281B3818093E00E9093E10EA093A5
:102C8000E20EB093E30E80E50E94B830882319F07D
:102C90000E942F3003C080E50E94713086E40E94BC
:102CA000B8308823D9F00E943E306B017C0120E0CF
:102CB00030E0A9010E94DBAB181684F420E030E07C
:102CC00040E752E4C701B6010E9491AA6093450211
:102CD0007093460280934702909348020E94B88EF8
:102CE0000C94D12620930F030C94D1265EE4252E5C
:102CF00052E0352E69E1C62E67E0D62EE12CF12C8C
:102D000000E010E0D1018D911D010E94B8308823B0
:102D100009F44EC00E943E302B013C01133059F0A3
:102D2000F701E150FD4F20813181428153810E94A2
:102D3000B4A92B013C01F701E853F14F2081318107
:102D400042815381C301B2010E94B4A94B015C01CD
:102D50002DEB37E346E855EB0E94DBAB87FD0AC05D
:102D60002DEB37E346E855E3C501B4010E944BA5BE
:102D70001816F4F4133051F44092D40E5092D50E3C
:102D80006092D60E7092D70E01E012C0A501940198
:102D9000F60160817181828193810E94B5A9D6017B
:102DA0006D937D938D939C931397812F0E94C3689D
:102DB0001F5FB4E0CB0ED11CE4E0EE0EF11C14302A
:102DC00009F0A0CF002309F4FACE0E94B695F7CE01
:102DD0000E94A4960C94D1268091590590915A0591
:102DE0008937910509F4BAC60CF099C08836910567
:102DF00009F4FDC20CF059C08D34910509F4F1C1FC
:102E000074F58A32910509F46EC1B4F482319105EA
:102E100009F4C0C48F31910509F440C1419711F004
:102E20000C9486265F988A9880910801817080931F
:102E3000060112980C94D1268B34910509F4B8C17F
:102E40000CF0BAC1C19711F00C948626F090FE02E6
:102E500081E0F826F092FE02EBEEF2E08CC18335C1
:102E6000910509F493C464F48135910509F469C4AA
:102E70000CF088C48E34910509F4B7C10C948626F1
:102E80008535910509F4B9C40CF484C48C359105D9
:102E900011F00C9486261EE4C12E12E0D12E00EB18
:102EA000E02E0EE0F02E10E0C3C48037910509F447
:102EB00053C39CF48C36910509F44AC33CF48A361A
:102EC000910509F40EC40CF47BC329C48E36910518
:102ED00009F4BAC20CF4B6C3CAC28537910511F41D
:102EE0000C94D12674F48237910509F421C50CF4B1
:102EF0003BC38337910511F00C948626EBE6F4E092
:102F00001DC58737910509F4BCC50CF020C600919A
:102F100057051091580583E0D12C40E071C58E32E1
:102F2000F1E09F0711F40C949F210CF05EC08D3CE2
:102F3000910509F49CC644F5883C910509F414C632
:102F400074F48B39910509F456C38E3B910509F44D
:102F5000B3C38C38910511F00C9486268FC38B3C3B
:102F6000910509F462C60CF07EC6893C910511F00A
:102F70000C948626A5E6EA2EA7E0FA2E0EE412E0CF
:102F8000B4E0DB2ED00E38C68D3D910511F40C94C3
:102F90005920C4F4833D910509F4AAC78C3D9105DD
:102FA00011F40C944C208E3C910511F00C94862663
:102FB0006EE4C62E62E0D62E79E2E72E75E0F72E9B
:102FC00010E0DEC6823241E0940711F40C94F12047
:102FD0008D3251E0950711F40C94FE20823E91054C
:102FE00011F00C9486260C94C620843F61E096076D
:102FF00011F40C94E9255CF58A39A1E09A0709F4EB
:10300000AFC29CF48336E1E09E0711F40C940C25CA
:103010008039F1E09F0711F40C9425258F329140FF
:1030200011F00C9486260C94F321853A31E0930735
:1030300011F40C94E6258C3A41E0940709F4B2C6E9
:10304000843A914011F00C9486260C942825883FF0
:1030500061E0960711F40C94FB256CF4863FA1E027
:103060009A0711F40C94EC2514F00C94EF250E94AF
:1030700018800C94D1268B38E3E09E0711F40C9451
:10308000D126873EF3E09F0711F40C947326843811
:10309000934011F00C9486260C941D260E9484986F
:1030A0006E8B7F8B888F998FBE016F5F7F4FCE01B4
:1030B00046960E94A22DE8EBF1E284918F010F5F0A
:1030C0001F4F882321F00E94622EF801F6CFBE0127
:1030D0006F5F7F4F83ED92E00E9484878AE00E94B9
:1030E000622E0C94D12683E50E94B830882311F417
:1030F0000C94D1260E941E30E82E80E50E94B83044
:10310000882339F00E941E30182F87FF03C00C94CB
:10311000D1261DE089E40E94B830882349F00E943E
:103120002F30811111C0E8E0F6E08DE28E0F07C06C
:1031300089E40E947130F5CF31968E1729F0949171
:103140001913FACF0C94082A61E0812F0E944E5A7D
:103150006E2D812F0E941F5AF12CB701812F0E94E2
:103160008A5A193011F00C94D126F0923204E09270
:1031700031040C94D12684918F010F5F1F4F882357
:1031800021F00E94622EF801F6CFF11003C0E5EEA7
:10319000F2E002C0E0EEF2E084918F010F5F1F4F7A
:1031A000882311F40C94D1260E94622EF801F4CFEA
:1031B0000E94AC870C94D12680911405813011F0C7
:1031C0000C94D12682E0809314050E94C05B60932A
:1031D0000C0570930D0580930E0590930F050C94CC
:1031E000D1260E940A880C94D12683E50E94B8302B
:1031F000811103C0E4E5F3E009C00E940E306E3493
:103200007105C1F70E947A880C94D12684918F01B0
:103210000F5F1F4F882321F00E94622EF801F6CF26
:10322000EBE4F3E084918F010F5F1F4F882321F0BF
:103230000E94622EF801F6CF609116057091170575
:1032400080E090E04AE00E94DF2EEEE3F3E084911C
:103250008F010F5F1F4F882321F00E94622EF8011B
:10326000F6CF609118057091190580E090E04AE072
:103270000E94DF2EE3E3F3E084918F010F5F1F4F85
:10328000882321F00E94622EF801F6CF6091160586
:10329000709117058091180590911905681B790B9D
:1032A00080911405815021E030E0823010F020E060
:1032B00030E0621B730B80E090E04AE00E94DF2E5A
:1032C0008AE00E94622EEBE2F3E084918F010F5FAF
:1032D0001F4F882321F00E94622EF801F6CF8091C3
:1032E0001A0590911B05A0911C05B0911D058E8BB0
:1032F0009F8BA88FB98FBE016F5F7F4FCE0146961F
:103300000E94A22DEEE1F3E084918F010F5F1F4F29
:10331000811106C0AE014F5F5F4F7A018A0104C080
:103320000E94622EF801F0CFD8018D918D01882383
:1033300019F00E94622EF8CF80911E0590911F0512
:10334000A0912005B09121058E8B9F8BA88FB98FFE
:10335000BE016F5F7F4FCE0146960E94A22DEEE028
:10336000F3E084918F010F5F1F4F882321F00E94AB
:10337000622EF801F6CFF70181917F01882319F0C1
:103380000E94622EF8CF8AE00E94622EE6E0F3E00F
:1033900084918F010F5F1F4F882321F00E94622EBE
:1033A000F801F6CFE6EFF2E084918F010F5F1F4F37
:1033B000882321F00E94622EF801F6CF20E030E051
:1033C0004AE754E460912205709123058091240519
:1033D000909125050E9491AA42E00E945F2F8DE600
:1033E0000E94622E8AE00E94622E0C94D12688E60A
:1033F00090E00E94036981110C94D12680915C05B4
:1034000083FF02C00C94D12683E50E94B830882344
:10341000B9F00E943E300E94F9AA70935004609364
:103420004F0480E00E944A5F0E943E3020E030E07E
:103430004AEA52E40E944BA5181614F00E940A882A
:103440000E9434A00C94D1268EE40E94B8308823C8
:1034500011F40C94D1260E940E306093EE0E7093FE
:10346000EF0E8093F00E9093F10E0C94D12683E52D
:103470000E947130882359F083E50E94B830882378
:1034800019F00E941E3001C080E080935C05E8EBDB
:10349000F1E284918F010F5F1F4F882321F00E947A
:1034A000622EF801F6CFEAE6F3E084918F010F5F18
:1034B0001F4F882321F00E94622EF801F6CF8091E1
:1034C0005C058823A1F14CE5C42E43E0D42EE12C09
:1034D000F12C20E080915C0590E00E2C02C09595C7
:1034E00087950A94E2F780FF17C0BB24B394B20E0D
:1034F000222319F08CE20E94622EF601259134916C
:10350000F901849189010F5F1F4F882321F00E94E8
:10351000622E9801F5CF2B2DFFEFEF1AFF0A32E054
:10352000C30ED11C45E0E416F104A1F60CC0E6E69A
:10353000F3E084918F010F5F1F4F882321F00E94D9
:10354000622EF801F6CF8AE00E94622E0C94D126FA
:10355000109202020C94D12681E793E00E94CE8261
:103560000E94B4620C94D12683E50E94B83088236F
:1035700069F00E941E308D3320F4809325020C9454
:10358000D1268CE3809325020C94D126E8EBF1E25E
:1035900084918F010F5F1F4F882321F00E94622EBC
:1035A000F801F6CF4091250250E060E070E08AE734
:1035B00093E00E9431878AE00E94622E0C94D1260B
:1035C00089E690E00E940369811111C0E1E8F3E00F
:1035D00084918F010F5F1F4F882321F00E94622E7C
:1035E000F801F6CF0E94B25C8AE00E94622E10922F
:1035F0000B070C94992C83E50E94B830882311F4B2
:103600000C94D1260E941E30182F8D3308F01CE335
:10361000109318070E94C05B6B017C01212F30E0E2
:10362000A8EEB3E00E94A5A9C60ED71EE81EF91E9B
:10363000C0921407D0921507E0921607F092170770
:103640000C94D1268DE690E00E94036981110C94C0
:10365000D12680915C0583FF02C00C94D12683E5BE
:103660000E94B8308AAF81110C94F22682E50E9444
:10367000B83081110C94F2260C94D12680915C050F
:1036800083FF02C00C94D12683E50E94B8308823C2
:1036900011F40C94D1260E943E300E94F9AA66399A
:1036A000710514F066E970E070934A046093490470
:1036B0000E94005F0C94D12680915C0583FF02C0BC
:1036C0000C94D12683E50E94B8308AAF81110C9406
:1036D000642882E50E94B83081110C9464280C940F
:1036E000D12680E50E94B830811106C083E50E9492
:1036F000B830882361F006C00E941E3081110C94FE
:10370000D126F4CF0E940E306F3F710510F06FEF9D
:1037100070E070933204609331040C94D12680E5FC
:103720000E94B830811106C0109232041092310408
:103730000C94D1260E940E30672B11F00C94D126E8
:10374000F3CF0E94945F0E94CE58109232041092E0
:10375000310400E010E062E370E080E090E00E945D
:10376000515B0E9473600F5F1F4F0331110599F782
:1037700062E370E080E090E00E94515B0E94736021
:103780000C94D12610920E030C94D12620930E0394
:103790000C94D12683E50E94B8308823A1F00E94C2
:1037A0003E3020E030E04AE754E40E94B0A50E9499
:1037B000FEAA6093260270932702809328029093BA
:1037C00029020C94D12688E50E94713081110C9455
:1037D000D82989E50E94713081110C94D8298AE595
:1037E0000E94713081110C94D82985E40E947130B7
:1037F00081110C94D8290C94052A83E50E9471301C
:10380000882311F40C94D1260E943E3020E030E051
:103810004AE754E40E94B0A50E94FEAA60931007F4
:103820007093110780931207909313070C94D1267D
:10383000D6018D916D010E947130882309F46DC00D
:10384000133009F063C00E943E304B015C0120E060
:1038500030E040EA51E40E944BA587FF4EC0A5012D
:1038600094016091BC0E7091BD0E8091BE0E90913E
:10387000BF0E0E9491AA2B013C019B01AC016091FB
:1038800001047091020480910304909104040E9449
:10389000B0A5609301047093020480930304909395
:1038A0000404A3019201609121047091220480918B
:1038B0002304909124040E94B0A560932104709386
:1038C00022048093230490932404609161077091F3
:1038D000620780916307909164070E944FA5A3013E
:1038E00092010E94B0A50E94FEAA609361077093A6
:1038F000620780936307909364078092BC0E909256
:10390000BD0EA092BE0EB092BF0E07C00E943E3008
:10391000F70160837183828393831F5FF4E0EF0E6E
:10392000F11C143009F084CF0E94158A0C94D12622
:103930000E9464580E94C8630C94D12684918F0120
:103940000F5F1F4F882321F00E94622EF801F6CFEF
:1039500060E08BE594E00E94846361E084E594E09C
:103960000E94846361E089E494E00E94846361E0E2
:1039700089E394E00E94846360E080E394E00E9425
:10398000846361E086E294E00E94846360E08CE1FD
:1039900094E00E94846360E084E194E00E94846388
:1039A00061E086E094E00E94846360E088EF93E049
:1039B0000E94846360E089EE93E00E94846360E08B
:1039C0008BED93E00E94846360E085EC93E00E94BD
:1039D000846360E084EB93E00E94846360E08FE99D
:1039E00093E00E94846361E08CE893E00E9484632A
:1039F0000C94D126D8019C91292F2B7F213419F0CA
:103A00008150C1F717C011962C912133C9F7913419
:103A100021F0953421F441E002C0DD24D3949801D3
:103A20002E5F3F4F89012F5F3F4FF8019081903209
:103A3000C9F3E6CF442369F0E8EBF1E284917F011A
:103A40002FEFE21AF20A882321F00E94622EF7017A
:103A5000F5CFDD2069F0E2E4F5E084917F013FEFEE
:103A6000E31AF30A882321F00E94622EF701F5CFB2
:103A7000D8018D918D01882309F465CD0E94622EB5
:103A8000F7CFEEE5F5E084918F010F5F1F4F88239C
:103A900021F00E94622EF801F6CFE6E5F5E0849170
:103AA0008F010F5F1F4F882321F00E94622EF801C3
:103AB000F6CF659903C00AED12E002C00FED12E0E7
:103AC000F80181918F01882319F00E94622EF8CFAE
:103AD0008AE00E94622EEEE4F5E084918F010F5F90
:103AE0001F4F882321F00E94622EF801F6CF8091AB
:103AF000030180FD03C00AED12E002C00FED12E0E9
:103B0000D8018D918D01882319F00E94622EF8CF83
:103B10008AE00E94622EE6E4F5E084918F010F5F57
:103B20001F4F882321F00E94622EF801F6CF4A9998
:103B300003C00AED12E002C00FED12E0F80181911E
:103B40008F01882309F4FFCC0E94622EF7CF81E019
:103B500080932705809326050C94D1261092270583
:103B6000109226050C94D12688EC90E00E940369FF
:103B700081110C94D12684E40E9471308823C1F114
:103B80000E943E3011E020E030E0A9010E944BA5E8
:103B9000811101C010E01093EB03112349F10E9441
:103BA0003E30E091440424E0E29FF0011124E05112
:103BB000FC4F608371838283938320E030E0A9010E
:103BC0006091F0037091F1038091F2039091F303FF
:103BD0000E944BA581110CC080E090E0A0EEBFE3F5
:103BE0008093F0039093F103A093F203B093F30357
:103BF0000E943F590C94D126D8018D918D010E94CD
:103C00007130882349F00E943E300E94FEAAF701DD
:103C10006083718382839383F4E0EF0EF11CD012F2
:103C2000EBCF0E948A880C94D126E5E1EE2EE4E0E9
:103C3000FE2E0EE412E0F4E0DF2ED00ED8018D91BE
:103C40008D010E947130882339F00E943E30F701C7
:103C50006083718382839383F4E0EF0EF11CD012B2
:103C6000EDCF0C94D1260E940D630C94D12682E4F2
:103C70000E947130882351F00E94922D6093250498
:103C800070932604809327049093280483E50E9470
:103C90007130882351F00E943E3060932D04709360
:103CA0002E0480932F049093300484E50E94713099
:103CB000882351F00E943E306093290470932A04B7
:103CC00080932B0490932C0488E50E947130882304
:103CD00051F00E943E306093F5037093F603809399
:103CE000F7039093F80389E50E947130882351F01F
:103CF0000E943E306093F9037093FA038093FB03B4
:103D00009093FC038AE50E9471308823F1F00E94B1
:103D10003E306093FD037093FE038093FF03909306
:103D200000042DEC3CEC4CEC5DE30E944BA5181616
:103D300064F0E8E7F5E084918F010F5F1F4F88235F
:103D400021F00E94622EF801F6CF85E40E947130C6
:103D5000882311F40C94D1260E943E306093010414
:103D60007093020480930304909304040C94D1266E
:103D70001F5FF4E0EF0EF11C133011F40C94DF150B
:103D8000D6018D916D010E947130882389F30E94C4
:103D90003E30F7016083718382839383812F0E9479
:103DA000C368E6CF0E941B968111FBC755ED852E97
:103DB00050E2952E28EC3EE03BA32AA3AE014F5FD4
:103DC0005F4F5A010EE211E21A0153E0500F5EA359
:103DD000F4016591759185919491AAA1BBA1CD90B3
:103DE000DD90ED90FD90BBA3AAA3A70196010E94D0
:103DF000B4A92B013C0120E030E040EA51EC0E94E4
:103E0000DBAB87FD10C020E030E040EA51E4C301A5
:103E1000B2010E944BA5181634F0F1014082518284
:103E2000628273820EC0F80184911816B4F7F7FA13
:103E3000F094F7F8F094D101CD92DD92ED92FC92DE
:103E40001397D101CD90DD90ED90FD901D0120E004
:103E500030E040EA51ECC701B6010E94DBAB87FFBE
:103E600003C0EEEBF1E20BC020E030E040EA51E4A9
:103E7000C701B6010E944BA51816C4F4F2CF849175
:103E80008F010F5F1F4F882321F00E94622EF801DF
:103E9000F6CFEAEAF5E084918F010F5F1F4F882388
:103EA00009F47FC70E94622EF801F5CFB4E08B0EB3
:103EB000911C0F5F1F4FEEA1E0138ACF49E2E42E61
:103EC00045E0F42E10E0F50181919191A191B1911D
:103ED0005F01F70181939193A193B1937F01812FAA
:103EE0000E94C3681F5F133071F70E94C86359C7EF
:103EF000E8EBF1E284918F010F5F1F4F882321F0DF
:103F00000E94622EF801F6CF83E50E94713088236B
:103F100021F00E942F3080934202E0EFF5E084917F
:103F20008F010F5F1F4F882321F00E94622EF8013E
:103F3000F6CF80914202811103C0ECEEF5E002C0A1
:103F4000E8EEF5E084918F010F5F1F4F882321F089
:103F50000E94622EF801F6CFE0EEF5E084918F0129
:103F60000F5F1F4F882321F00E94622EF801F6CFC9
:103F70004090FF0250900003609001037090020394
:103F80002091250730912607409127075091280757
:103F9000C301B2010E94B5A9AB01BC018EED95E051
:103FA0000E944E878090030390900403A090050325
:103FB000B09006032091290730912A0740912B07E2
:103FC00050912C07C501B4010E94B5A9AB01BC01F9
:103FD0008BED95E00E944E87C0900703D0900803B8
:103FE000E0900903F0900A0320912D0730912E07ED
:103FF00040912F0750913007C701B6010E94B5A923
:10400000AB01BC0188ED95E00E944E87E0EDF5E044
:1040100084918F010F5F1F4F882321F00E94622E31
:10402000F801F6CF20912A0230912B0240912C0208
:1040300050912D02C301B2010E94B5A9AB01BC0190
:104040008EEC95E00E944E8720912E0230912F0237
:104050004091300250913102C501B4010E94B5A9CE
:10406000AB01BC018BEC95E00E944E87209132029F
:10407000309133024091340250913502C701B601AC
:104080000E94B5A9AB01BC0188EC95E00E944E8767
:104090008AE00E94622E85C683E50E94B83088239C
:1040A00009F47FC60E940E3070934402609343026D
:1040B00078C68DED90E00E940369811172C683E598
:1040C0000E94B8308823D1F10091440410E00E948E
:1040D0000E30000F111FF801EC5EFD4F71836083FD
:1040E0008091440490E07C01EE0CFF1CEE0CFF1C60
:1040F00087010A5E1D4F880F991FFC01EC5EFD4F82
:1041000060817181072E000C880B990B0E9451A5CC
:104110002AE037ED43E25CE30E94B0A5F701E451E9
:10412000FC4F20813181428153810E94B0A5D8018A
:104130006D937D938D939C93139733C6E8EBF1E2D7
:1041400084918F010F5F1F4F882321F00E94622E00
:10415000F801F6CF85E40E94622E80914404805DD0
:104160000E94622EE0914404F0E0EE0FFF1FEC5E2F
:10417000FD4F6081718180E096E00E946B8785E24F
:104180000E94622E8AE00E94622E0BC680E50E9489
:104190007130882309F405C60E940E306B017C0142
:1041A00083E50E94B830882321F00E940E308B01F5
:1041B00002C00FEF1FEFC8010196039708F0F1C589
:1041C000D7FCEFC59C2DE8E0F6E08DE28E0F249140
:1041D000921711F40C94082A31968E13F8CF0C9490
:1041E0000B2A8AE50E94B83081110C94332A83E5AA
:1041F0000E94B83081110C94332AD3C585E40E9403
:10420000B830811110C080E50E947130882391F090
:104210000E943E3060935F0F7093600F8093610F38
:104220009093620F07C00E941E30882361F3EEEB6B
:10423000F1E26EC089E40E947130882381F00E940F
:104240003E302CEA35EC47E25EE30E94B0A5609375
:104250005B0F70935C0F80935D0F90935E0F84E40F
:104260000E947130882381F00E943E302CEA35ECA8
:1042700047E25EE30E9491AA6093630F7093640F1C
:104280008093650F9093660FE8EBF1E284918F01C4
:104290000F5F1F4F882321F00E94622EF801F6CF96
:1042A00040915F0F5091600F6091610F7091620FAC
:1042B0008DE396E00E944E872CEA35EC47E25EE300
:1042C00060915B0F70915C0F80915D0F90915E0F1C
:1042D0000E9491AAAB01BC0189E396E00E944E873F
:1042E0002CEA35EC47E25EE36091630F7091640F56
:1042F0008091650F9091660F0E94B0A5AB01BC0143
:1043000085E396E00E944E878AE00E94622E49C5AE
:1043100084918F010F5F1F4F882321F00E94622E2E
:10432000F801F6CFE1E4F6E084918F010F5F1F4FB3
:10433000882309F436C50E94622EF801F5CF83E583
:104340000E947130182F882371F00E943E300E9425
:10435000F9AA70931B0260931A0221E0672B09F0FF
:1043600020E02093330480E50E947130882359F0C7
:1043700020911A0230911B02232B11F00E942F3042
:10438000809333040EC511110CC5E8EBF1E2849162
:104390008F010F5F1F4F882321F00E94622EF801CA
:1043A000F6CF80913304811103C069EE72E002C040
:1043B0006CED72E088E696E00E94848760911A02B4
:1043C00070911B0287E596E00E946B87E3E5F6E0BB
:1043D00084918F010F5F1F4F882309F4E2C40E946C
:1043E000622EF801F5CF85E40E94B830882321F0D1
:1043F0000E940E307B0102C0E12CF12C83E40E946C
:10440000B830882331F00E940E3062966FAF629709
:1044100004C025E062962FAF629785E50E94B83010
:10442000882319F00E942F3003C085E50E94713067
:104430006E968FAF6E97F7FC07C0812C912CB6E17A
:10444000AB2EB3E4BB2E06C0812C912CACE8AA2E77
:10445000A2E4BA2E83E50E94B830882321F00E949E
:104460003E304B015C01E114F10411F4109244045C
:104470000E94C05B2B013C01EE2069F0EAEEF7E000
:1044800084918F010F5F1F4F882309F48AC40E9413
:10449000622EF801F5CFE4E1F8E084917F013FEF6F
:1044A000E31AF30A882321F00E94622EF701F5CF68
:1044B000C501B4010E94F9AA072E000C880B990BC4
:1044C0000E9451A56AA77EA78AAB9EABB301A20149
:1044D0004058574C6E4F7F4FAA964CAF5DAF6EAFB2
:1044E0007FAFAA970E94945F8FE78093430481E097
:1044F0008093020269964CAE5DAE6EAE7FAE699758
:10450000A2964CAE5DAE6EAE7FAEA29765961FAE24
:104510006597A6961CAE1DAE1EAE1FAEA6971EAE2C
:1045200050E423965FAF23976CE124966FAF2497F6
:1045300076E425967FAF259726961FAE2697279679
:104540001FAE279728961FAE289729961FAE29974A
:1045500061961CAE1DAE1EAE1FAE61972D961CAEB1
:104560001DAE1EAE1FAE2D97C12CD12C76018FE74C
:1045700090E0A0E0B0E08EA39FA3A8A7B9A7FFE7B3
:104580008F2E912CA12CB12C6D961CAE1DAE1EAEA3
:104590001FAE6D9791E064969FAF64971BAE1AAE05
:1045A00010E0212C312C00E06296AFAD62970A2E0C
:1045B000000CBB0B6396BFAFAEAF63978091020256
:1045C000882309F4EAC00E94C05B6AA37BA38CA382
:1045D0009DA380913A04882309F4C3C00E945460CB
:1045E00010914B0420904C0430904D0400914E04E7
:1045F000212F322D432D502F26966FAD26972796CB
:104600007FAD279728968FAD289729969FAD29973C
:104610000E944BA587FF0CC026961FAF26972796B2
:104620002FAE279728963FAE289729960FAF299748
:10463000212F322D432D502F6EAD23967FAD239722
:1046400024968FAD249725969FAD25970E94DBABCE
:10465000181654F41EAF23962FAE239724963FAE20
:10466000249725960FAF25976496BFAD64972AA52A
:104670003EA54AA95EA9612F722D832D902FBB23E1
:1046800009F455C00E94DBAB18160CF06AC02AA1D1
:104690003BA14CA15DA12419350946095709AE96E5
:1046A0002CAF3DAF4EAF5FAFAE97DA01C90188586E
:1046B0009341A109B109B7FD54C0D501C4014EA170
:1046C0005FA168A579A5841B950BA60BB70BB595C3
:1046D000A7959795879580934304AE966CAD7DAD75
:1046E0008EAD9FADAE976D966CAF7DAF8EAF9FAF29
:1046F0006D977AA526967FAF26978EA527968FAFC2
:1047000027979AA928969FAF2897AEA92996AFAF69
:1047100029972AA13BA14CA15DA169962CAF3DAF81
:104720004EAF5FAF699764961FAE64971AC00E9440
:104730004BA587FF16C08AA19BA1ACA1BDA169961C
:104740004CAD5DAD6EAD7FAD6997841B950BA60B2F
:10475000B70BAC01BD01485853416109710977FF9E
:10476000F9C620E030E040EA51E46AA57EA58AA9B6
:104770009EA90E94B5A99B01AC01612F722D832DCA
:10478000902F0E94DBAB18167CF4E6E7F7E08491EB
:104790008F010F5F1F4F811103C00E94945F01C3FF
:1047A0000E94622EF801F3CF8AA19BA1ACA1BDA10A
:1047B000A2962CAD3DAD4EAD5FADA297821B930B83
:1047C000A40BB50BB7FD90C00E94B25C8AE00E94BA
:1047D000622E4AA15BA16CA17DA14053584F6F4F3F
:1047E0007F4FA2964CAF5DAF6EAF7FAFA29765963D
:1047F0005FAD659751115DC0A6962CAD3DAD4EAD38
:104800005FADA697612F722D832D902F0E94DBAB99
:104810001816D4F520E030E040E050E4612F722D0E
:10482000832D902F0E94B5A9A6966CAF7DAF8EAF59
:104830009FAFA6976AA17BA18CA19DA16058774CE0
:104840008E4F9F4FAA966CAF7DAF8EAF9FAFAA974A
:1048500020E030E040EE50E46AA57EA58AA99EA93A
:104860000E94B4A99B01AC0171E065967FAF65978A
:10487000612F722D832D902F0E94DBAB1816A4F1AF
:1048800065961FAE659730C08AA19BA1ACA1BDA162
:10489000AA962CAD3DAD4EAD5FADAA97821B930B92
:1048A000A40BB50BB7FD20C045E557E067E677E000
:1048B00018C020E030E040EA51E46AA57EA58AA94C
:1048C0009EA90E94B4A99B01AC01612F722D832D7A
:1048D000902F0E944BA587FF07C042E357E065E495
:1048E00077E080E00E9417988AA19BA1ACA1BDA1AE
:1048F000880F991FAA1FBB1F69964CAD5DAD6EADA9
:104900007FAD6997841B950BA60BB70B841995098E
:10491000A609B70981389F44A241B10568F0E4E1D6
:10492000F7E084918F010F5F1F4F882309F435CF83
:104930000E94622EF801F5CF6AAD7BAD63968EAD15
:104940009FAD6397861797070CF038CEE7EBF6E03C
:1049500084918F010F5F1F4F882321F00E94622EE8
:10496000F801F6CFB701A60183EA96E00E944E87D0
:104970008AE00E94622E2D964CAD5DAD6EAD7FAD8E
:104980002D978FE896E00E944E878AE00E94622E63
:1049900061964CAD5DAD6EAD7FAD61978BE796E0F6
:1049A0000E944E878AE00E94622E6E969FAD6E979F
:1049B000992309F4F6C1C0925F0FD092600FE09284
:1049C000610FF092620F2CEA35EC47E25EE32D9620
:1049D0006CAD7DAD8EAD9FAD2D970E94B0A560935F
:1049E0005B0F70935C0F80935D0F90935E0F2CEACA
:1049F00035EC47E25EE361966CAD7DAD8EAD9FAD6B
:104A000061970E9491AA6093630F7093640F8093E3
:104A1000650F9093660FC5C1EEEBF1E284918F01B3
:104A20000F5F1F4F882321F00E94622EF801F6CFFE
:104A3000E8E2F8E084918F010F5F1F4F882309F4AB
:104A4000B0C10E94622EF801F5CF0E946458A9C13E
:104A500083E50E947130882349F00E942F30082F8F
:104A6000811106C080E00E94666602C00091F403D6
:104A70008091C80E9091C90EA091CA0EB091CB0E34
:104A800089839A83AB83BC838091CC0E9091CD0EA9
:104A9000A091CE0EB091CF0E8D839E83AF83B88749
:104AA0008091D00E9091D10EA091D20EB091D30EE4
:104AB00089879A87AB87BC870E943666882371F105
:104AC00083E40E9471308111A6C628C093014AA1D7
:104AD0005EA16AA5782D8EA59AA90E94B5A920E0AD
:104AE00030E040E05FE30E94B0A5A20191010E9486
:104AF000B5A94B015C012DEB37E346E855EB0E946D
:104B0000DBAB87FDD4C62DEB37E346E855E3C501A3
:104B1000B4010E944BA518160CF4C9C686E50E9484
:104B20007130882399F00E943666882379F0E4E694
:104B3000F8E084917F012FEFE21AF20A882321F036
:104B40000E94622EF701F5CF0E94F879802F0E9413
:104B50006666011103C0E8EBF1E210C08091F40336
:104B60008111F9CFE5E4F8E084918F010F5F1F4FC9
:104B7000882389F30E94622EF801F6CF84918F0179
:104B80000F5F1F4F882321F00E94622EF801F6CF9D
:104B90008091F403811103C066ED72E002C062ED02
:104BA00072E087E398E00E9484878AE00E94622E88
:104BB0004CE050E068EC7EE0CE0101960E94B2AC81
:104BC000892B09F4EEC00E94C863EBC00E94CC613F
:104BD000E8C00E942D70E5C00E94187FE2C083E506
:104BE0000E947130882321F00E942F3091E08927A4
:104BF0000E94167BD6C020930A070E94AD6A1092CD
:104C00000A07882309F4CDC0E8EBF1E284918F0113
:104C10000F5F1F4F882321F00E94622EF801F6CF0C
:104C2000EAE7F8E084918F010F5F1F4F882309F4B2
:104C3000B8C00E94622EF801F5CF8BE40E94B83014
:104C40008823B1F18BE40E94B8308823B1F00E9430
:104C50003E306B017C0120E030E0A9010E94DBAB1B
:104C600087FD19C020E030E040E251E4C701B60101
:104C70000E944BA518167CF003C0C12CD12C7601E4
:104C80000E946458C0920504D0920604E092070482
:104C9000F092080486C0E5E8F8E084918F010F5F88
:104CA0001F4F882309F47DC00E94622EF801F5CFC2
:104CB000E8EBF1E284918F010F5F1F4F882321F011
:104CC0000E94622EF801F6CF40910504509106042F
:104CD000609107047091080484EA98E00E944E876E
:104CE0008AE0F0D75EC081E08093490283E50E94AC
:104CF000B830882339F00E942F30811152C00E94B1
:104D00008F924FC083E50E947130F7CF0E94A49626
:104D100048C0F09059050E9464581091F40380E057
:104D20000E946666FF2009F1E8EBF1E284918F01B1
:104D30000F5F1F4F882319F0C5D7F801F7CF84E51F
:104D4000C1D76F2D70E080E090E04AE00E94DF2E36
:104D500080E2B8D7E1ECF8E084918F010F5F1F4F3C
:104D60008823F9F0AFD7F801F7CF10928F0E812F7B
:104D70000E946666E8EBF1E284918F010F5F1F4F9E
:104D8000882319F09FD7F801F7CF60918F0E70E05C
:104D90008FEA98E00E946B878AE094D702C00E9455
:104DA000A49610920B070E947292C3C50E94B5642C
:104DB0000E94B88EF6CF60910002709101026A30B5
:104DC000710514F069E070E084EF91E00E946B8758
:104DD00069E070E08FEE91E00E946B878AE072D705
:104DE0000C94DF150E943E300E94F9AA7093500483
:104DF00060934F0480E00E944A5F0E943E3020E0B2
:104E000030E04AEA52E40E944BA518161CF00E94BA
:104E10000A8802C00E94AC870E9434A081E080937F
:104E200002021EA21FA218A619A622961CAE1DAE33
:104E30001EAE1FAE22971AA223961FAE23975CE3E5
:104E400024965FAF24976CE125966FAF259776E4A3
:104E500026967FAF2697C12CD12C20E8E22E3FEB7F
:104E6000F32E812C912C540160914F0470915004C9
:104E7000072E000C880B990B0E9451A5162F072FA7
:104E8000782E692E262F372F482F592FB601C701AC
:104E90000E944BA58823D9F020914B0430914C04FB
:104EA00040914D0450914E04612F702F872D962D07
:104EB0000E944BA5881F8827881F8AA38AAD882354
:104EC00051F09AA1992339F0809102026ACF1C2DEA
:104ED0000D2D7E2C6F2C0E94C05B6B017C01DC01D0
:104EE000CB0122962CAD3DAD4EAD5FAD2297821B1E
:104EF000930BA40BB50BB7FD39C0B701A601485100
:104F00005C4F6F4F7F4F22964CAF5DAF6EAF7FAF60
:104F100022970E94B25CE4E8F3E084912F015FEFF6
:104F2000451A550A882319F0CDD6F201F6CF81141F
:104F30009104A104B104B1F0D501C40188519C4F82
:104F4000AF4FBF4FBC01CD016C197D098E099F0980
:104F500028EE33E040E050E00E9457A9CA01B901B1
:104F600094D702C08FE3AED68AE0ACD60E94FE8210
:104F70000E94C05B60930C0770930D0780930E072F
:104F800090930F0760914B046AA770914C047EA721
:104F900080914D048AAB90914E049EAB9B01AC0175
:104FA000612F702F872D962D0E94B4A91B012C0113
:104FB00020E030E0A9010E94DBAB87FF04C057FA74
:104FC000509457F8509481149104A104B10459F4F9
:104FD00020E030E040E85FE3C201B1010E944BA550
:104FE00087FF0DC00AC020E030E040E850E4C20175
:104FF000B1010E94DBAB181614F446015701AAA1B7
:10500000AA2309F445C02EA13FA148A559A5211501
:1050100031054105510541F0D701C601821B930BB3
:10502000A40BB50BB7FD34C02AA53EA54AA95EA9BD
:1050300023966FAD239724967FAD249725968FAD49
:10504000259726969FAD26970E94B4A920E030E0D0
:1050500040EC5FE30E944BA587FD36CFB701A60168
:10506000405A55416F4F7F4F4EA35FA368A779A762
:105070005AA523965FAF23976EA524966FAF24970A
:105080007AA925967FAF25978EA926968FAF26976A
:1050900080910202882309F417CF81149104A1049E
:1050A000B10429F4C12ED02EE72CF62CDDCE98EEDB
:1050B000C91A93E0D90AE108F108C818D908EA0822
:1050C000FB08F7FE01CFEECFD9D70E94F9AA6639C7
:1050D00071050CF06AC170934A04609349040E9400
:1050E000005FCCD720E030E040EA50E40E94DBAB28
:1050F000181614F40E94AC8781E08093020280911C
:105100008F0E809344041EA21FA218A619A62296F1
:105110001CAE1DAE1EAE1FAE22971AA223961FAE66
:105120002397ACE32496AFAF2497BCE12596BFAF9D
:105130002597E6E42696EFAF2697C12CD12C80E880
:10514000E82E9FEBF92E812C912C5401609149049B
:1051500070914A04072E000C880B990B0E9451A5F0
:10516000162F072F782E692E262F372F482F592FCD
:10517000B601C7010E944BA58823D1F020914504B8
:10518000309146044091470450914804612F702F9C
:10519000872D962D0E944BA5881F8827881F8AA3DC
:1051A000FAADFF2349F0882339F080910202F9CD4E
:1051B0001C2D0D2D7E2C6F2C0E94C05B6B017C0181
:1051C000DC01CB0122962CAD3DAD4EAD5FAD2297FB
:1051D000821B930BA40BB50BB7FD39C0B701A60119
:1051E00048515C4F6F4F7F4F22964CAF5DAF6EAF13
:1051F0007FAF22970E94B25CE8E8F3E084912F0130
:105200005FEF451A550A882319F05CD5F201F6CFF5
:1052100081149104A104B104B1F0D501C4018053FB
:10522000984FAF4FBF4FBC01CD016C197D098E095E
:105230009F0928EE33E040E050E00E9457A9CA01E0
:10524000B90123D602C08FE33DD58AE03BD50E9449
:10525000FE820E94C05B60930C0770930D078093E1
:105260000E0790930F07609145046AA7709146045A
:105270007EA7809147048AAB909148049EAB9B0126
:10528000AC01612F702F872D962D0E94B4A91B01B0
:105290002C0120E030E0A9010E94DBAB87FF04C0B5
:1052A00057FA509457F8509481149104A104B10412
:1052B00059F420E030E040E85FE3C201B1010E9410
:1052C0004BA587FF0DC00AC020E030E040E450E469
:1052D000C201B1010E94DBAB181614F4460157015C
:1052E000AAA1AA2309F445C02EA13FA148A559A50A
:1052F000211531054105510541F0D701C601821B39
:10530000930BA40BB50BB7FD34C02AA53EA54AA943
:105310005EA923966FAD239724967FAD249725969B
:105320008FAD259726969FAD26970E94B4A920E0C1
:1053300030E040EC5FE30E944BA587FD36CFB7011C
:10534000A601405A55416F4F7F4F4EA35FA368A7F8
:1053500079A75AA523965FAF23976EA524966FAFC2
:1053600024977AA925967FAF25978EA926968FAF89
:10537000269780910202882309F417CF81149104A3
:10538000A104B10429F4C12ED02EE72CF62CDECED8
:1053900090EDC91A97E0D90AE108F108C818D908B0
:1053A000EA08FB08F7FE01CFEECF66E970E093CE86
:1053B0000E94645888E595D6882331F05F9A8091E1
:1053C00028058E7F8093280589E58BD6882331F0C8
:1053D0008A9A809128058D7F809328058AE581D659
:1053E000882359F08091080180958170809306018F
:1053F000809128058B7F8093280585E472D68823C9
:1054000009F4CFCC0E94B482CCCC0E94CE58C9CC37
:105410000E94CA9AC6CC0E946458BC2C60E08C2DB5
:105420000E944E5A0F3FBFEF1B0759F48C2D0E946C
:10543000D17431E020E0892B09F030E0032F122FE6
:1054400005C00130110561F000E010E08B2D0E94D5
:10545000D1748017910709F4A4CC0E94FE82F6CF84
:1054600001E010E0F3CF0AD620E030E040E050EC5D
:105470000E944BA587FD10C001D620E030E040E03F
:1054800050E40E94DBAB181614F0F8D509C060E0B8
:1054900070E080E090E404C060E070E080E090ECB8
:1054A0002091F4032223D9F12091E1063091E20604
:1054B0004091E3065091E4060E94B5A96B017C017E
:1054C00020E030E040E85FE30E94DBAB18162CF4EC
:1054D00080E090E0A0E8BFE30EC020E030E040E8CC
:1054E0005FEBC701B6010E944BA587FF0DC080E0AE
:1054F00090E0A0E8BFEB8093E1069093E206A093D2
:10550000E306B093E40608C0C092E106D092E2063A
:10551000E092E306F092E4060E942D7042CC2091C6
:10552000B80E3091B90E4091BA0E5091BB0EE09179
:105530002805E2FF36CC00914104109142040E94FC
:10554000B0A50E94F9AA600F711F70934204609386
:10555000410427CC6AAD7BAD672B09F431C16D9650
:105560004CAC5DAC6EAC7FAC6D97480E591E6A1E9C
:105570007B1E6D962CAD3DAD4EAD5FAD6D97281B7E
:10558000390B4A0B5B0BCA01B9012EA13FA148A5FB
:1055900059A50E9448A9A30192010E9479A9D501A9
:1055A000C401820F931FA41FB51F84319105A1056B
:1055B000B105FCF04C015D018C3E9105A105B105E2
:1055C0002CF07BEE872E912CA12CB12C40E8841678
:1055D0009104A104B104DCF06EEF70E080E090E093
:1055E000681979098A099B096EA37FA388A799A7DF
:1055F00012C064E1862E912CA12CB12C84E190E0A4
:10560000A0E0B0E08EA39FA3A8A7B9A704C08EA274
:105610009FA2A8A6B9A6B501A40182EE97E00E94B8
:105620000DA04EA15FA168A579A58DED97E00E9420
:105630000DA04EAD23965FAD239724966FAD2497B2
:1056400025967FAD259786ED97E00E944E8726969A
:105650004FAD269727965FAD279728966FAD289771
:1056600029967FAD29978FEC97E00E944E87AAADCF
:10567000BBAD13970CF4A4C06EA17FA188A599A51A
:105680000E9451A520E030E040E850E40E94B0A51F
:105690006B017C012EAD23963FAD239724964FAD31
:1056A000249725965FAD259726966FAD269727966A
:1056B0007FAD279728968FAD289729969FAD29977C
:1056C0000E94B4A92BED3FE049E450E40E94B0A54C
:1056D00020E030E040E05FE30E94B0A59B01AC0118
:1056E000C701B6010E9491AA6B017C01C301B201FE
:1056F0000E9451A52FE632E143E85AE30E94B0A58B
:105700002B013C01B701A60189EC97E00E944E876E
:10571000B301A20183EC97E00E944E872AE939E9A0
:1057200049E15FE3C701B6010E94B0A56B017C01AE
:105730009B01AC010E94B5A9A30192010E9491AA0C
:105740002D966CAF7DAF8EAF9FAF2D97A3019201C9
:10575000C701B6010E94B0A520E030E040E05EE362
:105760000E94B0A561966CAF7DAF8EAF9FAF619781
:10577000E3EBF7E084913F01BFEF6B1A7B0A8823CC
:1057800019F0A0D2F301F6CFB701A6018DEA97E098
:105790000E944E872D964CAD5DAD6EAD7FAD2D97C1
:1057A00087EA97E00E944E8761964CAD5DAD6EAD85
:1057B0007FAD619781EA97E00E944E878AE082D2AE
:1057C0008EA19FA1A8A5B9A5880D991DAA1DBB1DD5
:1057D000B595A7959795879580934304EAADFBAD62
:1057E0003196FBAFEAAFFAA5FEAF2EA523962FAFF9
:1057F00023973AA924963FAF24974EA925964FAFF9
:1058000025974AA05BA06CA07DA051E064965FAF95
:1058100064970C94B12332D41B012C0113E0612C4A
:10582000712CE8ECEAA3F2ECFEA31AA6812C28EC7A
:105830002EA732E43AAB115008F448C923E0F22E07
:10584000812F90E06C01CC0CDD1CC80ED91EFA949F
:10585000F601EF0DF11DEE0FFF1FEE0FFF1FEB51D5
:10586000F94F9080A180B280E380292D3A2D4B2DF5
:105870005E2D6AA5782D8EA59AA90E94DBAB18161D
:1058800024F49AA68A2CBEA6EAAA292D3A2D4B2DDD
:105890005E2DB3018AA19EA10E944BA587FF04C083
:1058A000692C7A2CBAA2EEA2F110D1CFC4CF80E03D
:1058B0000E94666613E08CE0D82E1150D19EC00184
:1058C0001124DC01AB51B94F7D01A501940118965B
:1058D0006D917D918D919C911B970E94B4A9F701C8
:1058E0006087718782879387A501940164817581A0
:1058F000868197810E94B4A9D70114966D937D93F8
:105900008D939C931797A50194016D917D918D9135
:105910009C910E94B4A9F701608371838283938371
:105920001111CBCFFBC8E1100C940A162DD40C94A6
:105930001D16C359DF4F0FB6F894DEBF0FBECDBFA3
:10594000DF91CF911F910F91FF90EF90DF90CF905B
:10595000BF90AF909F908F907F906F905F904F908F
:105960003F902F900895CF92DF92EF92FF92CF93C6
:10597000DF936B017C01EA012FE632E143E85AEB49
:105980000E94DBAB87FD23C021E230E845EC53E405
:10599000C701B6010E944BA51816CCF0C880D9806B
:1059A000EA80FB802FE632E143E85AEBC701B601FB
:1059B0000E94DBAB87FD0BC0C1E021E230E845EC83
:1059C00053E4C701B6010E944BA518160CF4C0E0C1
:1059D0008C2FDF91CF91FF90EF90DF90CF900895C3
:1059E000CF92DF92EF92FF92C0904502D090460294
:1059F000E0904702F0904802FC0180819181A281F1
:105A0000B3818093450290934602A0934702B093DE
:105A100048020E94B88EC0924502D0924602E0929F
:105A20004702F0924802FF90EF90DF90CF900895E8
:105A3000FF920F931F93CF93DF93FC0120812B33B1
:105A400019F1D091DF06D430F8F4F62EBC01C091E4
:105A500095030C2F10E0F0E6CF9FC0011124835A6C
:105A60009A4F0E94D3ACF801EB5CFA4FF082CF5F03
:105A7000C43018F4C093950302C010929503DF5F01
:105A8000D093DF0681E001C080E0DF91CF911F91CC
:105A90000F91FF9008950F931F93CF93DF93CDB78E
:105AA000DEB72C970FB6F894DEBF0FBECDBFE8EC83
:105AB000FEE080859185A285B3854481558166810C
:105AC0007781008111812281338109831A832B839D
:105AD0003C834D835E836F83788789879A87AB8702
