:100000000C947A110C94AB110C94AB110C94AB11B1
:100010000C94AB110C94AB110C94AB110C94AB1170
:100020000C94AB110C94AB110C94AB110C94AB1160
:100030000C94AB110C94AB110C94AB110C94AB1150
:100040000C94AB110C942F7A0C94AB110C94AB1153
:100050000C94AB110C94AB110C94066D0C94FE68CF
:100060000C94AB110C9489310C94AB110C94AB1122
:100070000C94AB110C94AB110C94AB110C94AB1110
:100080000C94297C0C94AB110C94AB110C94AB1117
:100090000C94AB110C94AB110C94AB110C94AB11F0
:1000A0000C94AB110C94AB110C94FC7B0C94AB1125
:1000B0000C94AB110C94AB110C94AB110C94CF7B42
:1000C0000C94AB110C94AB110C94AB110C94AB11C0
:1000D0000C94AB110C94AB110C94AB110C94AB11B0
:1000E0000C94AB114567486737673B6741677F678B
:1000F0004C67506756675A675E67646768676C67E6
:100100007F67726776677A67E467E967EE67F86723
:1001100002687B680C6814681C68266830683A6856
:10012000496853687B685D68676871687C6B4A6C76
:100130004F6C7A6C866C626C676C6C6B084AD73B50
:100140003BCE016E84BCBFFDC12F3D6C74319ABDA6
:1001500056833DDA3D00C77F11BED9E4BB4C3E91CA
:100160006BAAAABE000000803F05A84CCDB2D44EB9
:10017000B93836A9020C50B9918688083CA6AAAABB
:100180002ABE000000803F004E414E494E4954595E
:10019000494E46CDCCCC3D0AD7233C17B7D1387752
:1001A000CC2B329595E6241FB14F0A000020410068
:1001B00000C84200401C4620BCBE4CCA1B0E5AAEB2
:1001C000C59D74434F4D4D554E49434154494F4E83
:1001D0000044525952554E004552524F5253004915
:1001E0004E464F004543484F0047322F4733206269
:1001F000616420706172616D65746572730A0020BC
:100200006F6620004D424C2047323920706F696E76
:1002100074200059206F7574206F662072616E67BC
:10022000652028312D33292E0A0058206F7574203F
:100230006F662072616E67652028312D33292E0A82
:10024000004D6573682070726F62696E6720646F1D
:100250006E652E0A005374617274206D6573682098
:1002600070726F62696E6720776974682022473206
:1002700039205331222066697273742E0A00473286
:10028000392053320053746174653A20004D657310
:100290006820626564206C6576656C696E672068AD
:1002A0006173206E6F20646174612E0A0053206FA9
:1002B0007574206F662072616E67652028302D3559
:1002C000292E0A004D65736820706F696E74206373
:1002D000616E6E6F74206265207265736F6C7665F7
:1002E000640A005072696E742074696D653A20006A
:1002F0006F6E2E0A006F66662E0A00473236204463
:1003000065627567200046696C616D656E74207565
:100310007365643A200053746174733A20002C2092
:100320004C6F6E67657374206A6F623A2000546F79
:1003300074616C2074696D653A2000537461747344
:100340003A20002C204661696C65643A20002C201C
:1003500046696E69736865643A20005072696E740C
:10036000733A200053746174733A2000E401DF0192
:10037000D801D101C3016F66660044454255473A32
:10038000004B494C4C45442E200020573A0054481D
:1003900045524D414C5F50524F54454354494F4E86
:1003A000004155544F5245504F52545F53445F5390
:1003B000544154555300454D455247454E43595FAE
:1003C00050415253455200434153455F4C494748C1
:1003D000545F4252494748544E45535300544F4787
:1003E000474C455F4C494748545300534F46545778
:1003F0004152455F504F574552004255494C445F6A
:1004000050455243454E54004C4556454C494E4785
:100410005F44415441005A5F50524F42450041559C
:10042000544F4C4556454C005052494E545F4A4F2C
:10043000420050524F4752455353004155544F527A
:1004400045504F52545F54454D5000564F4C554DFA
:10045000455452494300454550524F4D0053455273
:1004600049414C5F584F4E5F584F464600464952EF
:100470004D574152455F4E414D453A4D61726C6951
:100480006E20312E312E3920284769746875622913
:1004900020534F555243455F434F44455F55524C9F
:1004A0003A68747470733A2F2F6769746875622E96
:1004B000636F6D2F4D61726C696E4669726D776105
:1004C00072652F4D61726C696E2050524F544F43CC
:1004D0004F4C5F56455253494F4E3A312E30204DC6
:1004E000414348494E455F545950453A4A756C69F5
:1004F0006120323031382050726F204475616C2099
:1005000045585452554445525F434F554E543A3224
:1005100020555549443A63656465326132662D342D
:100520003161322D343734382D396231322D633513
:10053000356336326633363766660A002F2F200061
:100540007A5F6D61783A2000795F6D61783A2000BA
:10055000785F6D696E3A20005265706F7274696ED3
:100560006720656E6473746F702073746174757343
:100570000A00205400205200416363656C6572617B
:1005800074696F6E3A2050005741524E494E4721D0
:10059000204C6F77205A204A65726B206D6179205C
:1005A0006C65616420746F20756E77616E7465642C
:1005B000207061757365732E0A00546F6F20666139
:1005C000722066726F6D207265666572656E636516
:1005D00020706F696E740A00205A0020590058007C
:1005E00020204D61783A2000205A00205900580000
:1005F00020204D696E3A20004F6E20004F66660045
:10060000536F667420656E6473746F70733A200064
:10061000486F74656E64206F6666736574733A0024
:1006200020466C6F773A2000000136372603FFFF23
:10063000FF353C3D38FF0FFFFF312E303EFF13FFEB
:10064000FFFF28FF0C0809FFFFFF1A1C18FFFF2AF5
:1006500024221EFFFF2C08440AFF4307FF45206F9A
:100660007574206F662072616E67650A005365724B
:10067000766F20003A200020536572766F200020AC
:10068000643A0020693A0020703A00496E76616C45
:1006900069642065787472756465720A0043290A7A
:1006A0000061626C656420286D696E2074656D70F0
:1006B0002000436F6C6420657874727564657320E4
:1006C000617265200023646566696E652044454655
:1006D00041554C545F4B64200023646566696E6528
:1006E0002044454641554C545F4B692000236465C6
:1006F00066696E652044454641554C545F4B7020F9
:1007000000504944204175746F74756E65206669A8
:100710006E69736865642120507574207468652063
:100720006C617374204B702C204B6920616E6420C7
:100730004B6420636F6E7374616E74732066726FA6
:100740006D2062656C6F7720696E746F20436F6EE9
:1007500066696775726174696F6E2E680A00504928
:1007600044204175746F74756E65206661696C65AF
:1007700064212074696D656F75740A0042454420D8
:10078000544845524D414C2052554E415741590015
:10079000546865726D616C2052756E617761790085
:1007A000453120544845524D414C2052554E4157F9
:1007B000415900453220544845524D414C20525534
:1007C0004E41574159004265642068656174696E05
:1007D00067206661696C65640048656174696E676D
:1007E000206661696C656400453120486561746903
:1007F0006E67206661696C656400453220486561FA
:1008000074696E67206661696C65640050494420B4
:100810004175746F74756E65206661696C656421DD
:100820002054656D706572617475726520746F6FA8
:1008300020686967680A00204B643A2000204B69F1
:100840003A2000204B703A20000A20436C617373F9
:10085000696320504944200A002054753A20002042
:100860004B753A2000206D61783A2000206D696E4A
:100870003A200020643A200020626961733A200027
:10088000504944204175746F74756E6520666169C6
:100890006C656421204261642065787472756465BA
:1008A00072206E756D6265720A0050494420417570
:1008B000746F74756E652073746172740A004E6F84
:1008C0002063617365206C696768740A004265641F
:1008D000204C6576656C696E6720004661696C65C1
:1008E0006420746F20656E61626C652042656420CF
:1008F0004C6576656C696E670A004D6573682042C9
:100900006564204C6576656C20646174613A0A0008
:100910004D65736820706F696E742063616E6E6FD1
:1009200074206265207265736F6C7665640A004D91
:1009300034323120696E636F727265637420706146
:1009400072616D657465722075736167650A004533
:100950004550524F4D204F4B0A003F4B2076616C63
:100960007565206F7574206F662072616E676520F3
:1009700028302D3130292E0A00416476616E63657E
:10098000204B3D00696E206D6F76655F746F28297E
:1009900020666565645F76616C756520666F7220A0
:1009A00058593A002C2065793D0029202D3E2028F9
:1009B00065783D002C2073793D0020436F6E6E6595
:1009C0006374696E672077697468207665727469EC
:1009D00063616C206C696E65202873783D002C2063
:1009E00065793D0029202D3E202865783D002C208A
:1009F00073793D0020436F6E6E656374696E672086
:100A00007769746820686F72697A6F6E74616C20A0
:100A10006C696E65202873783D003F53706563698B
:100A20006669656420582C5920636F6F7264696E23
:100A3000617465206F7574206F6620626F756E64D7
:100A4000732E0A003F285229657065617420766113
:100A50006C7565206E6F7420706C61757369626C63
:100A6000653B206D757374206265206174206C6530
:100A700061737420312E0A003F2852296570656128
:100A800074206D7573742062652073706563696688
:100A9000696564207768656E206E6F742075736970
:100AA0006E6720616E204C43442E0A003F537065F0
:100AB000636966696564206E6F7A7A6C6520746517
:100AC0006D7065726174757265206E6F7420706CE4
:100AD00061757369626C652E0A003F5370656369C6
:100AE000666965642066696C616D656E7420736902
:100AF0007A65206E6F7420706C61757369626C65C5
:100B00002E0A003F537065636966696564207072E0
:100B1000696D65206C656E677468206E6F742070F7
:100B20006C61757369626C652E0A003F5072696D65
:100B300065206C656E677468206D757374206265DE
:100B400020737065636966696564207768656E20E7
:100B50006E6F74207573696E6720616E204C43441C
:100B60002E0A003F537065636966696564206E6F85
:100B70007A7A6C652073697A65206E6F7420706C68
:100B800061757369626C652E0A003F537065636915
:100B9000666965642052657472616374696F6E2062
:100BA0004D756C7469706C696572206E6F7420701D
:100BB0006C61757369626C652E0A003F52657472D0
:100BC000616374696F6E204D756C7469706C6965D2
:100BD00072206D7573742062652073706563696639
:100BE0006965642E0A003F537065636966696564D0
:100BF000206C6179657220686569676874206E6F22
:100C00007420706C61757369626C652E0A003F53C5
:100C10007065636966696564206265642074656DEA
:100C20007065726174757265206E6F7420706C618E
:100C3000757369626C65202834302D313430432956
:100C40002E0A0047323620636F6D6D616E6420732B
:100C50007461727465642E2057616974696E6720CF
:100C6000666F72206865617465722873292E0A00A8
:100C70002569730025696D20256973002569682041
:100C800025696D2025697300256964202569682020
:100C900025696D20256973002569792025696420FF
:100CA0002569682025696D2025697300656E717559
:100CB000657565696E672022004C696E65204E750A
:100CC0006D626572206973206E6F74204C6173745D
:100CD000204C696E65204E756D6265722B312C203B
:100CE0004C617374204C696E653A20004B494C4C42
:100CF00045442E20005072696E7465722073746FC3
:100D0000707065642064756520746F206572726F01
:100D100072732E2046697820746865206572726F40
:100D20007220616E6420757365204D3939392074E5
:100D30006F20726573746172742E202854656D7013
:100D4000657261747572652069732072657365746C
:100D50002E20536574206974206166746572207258
:100D6000657374617274696E67290A004E6F20435F
:100D70006865636B73756D2077697468206C696E44
:100D800065206E756D6265722C204C617374204C09
:100D9000696E653A2000636865636B73756D206DDD
:100DA00069736D617463682C204C617374204C69A5
:100DB0006E653A20004D3131300020496E76616C0D
:100DC000696420657874727564657220000000C8DB
:100DD000C1000020C2000000000000C8430080C520
:100DE000430080CA4324F4D43050C38E20C2A240B2
:100DF00017828B7011127A910D816CD90AA861E16A
:100E000008C7586607615143061E4B5D05C145A7DB
:100E1000041A411104093D9803713931034036DB4E
:100E20000265339102D4305402802E1D02632CEEF1
:100E300001752AC501B028A001102781018F256402
:100E4000012B244B01E0223401AC211F018D200D28
:100E500001801FFC00841EED00971DDF00B81CD22E
:100E600000E61BC600201BBC00641AB200B219A821
:100E7000000A19A0006A189900D117910040178B39
:100E800000B516840031167E00B31579003A15734B
:100E900000C7146F0058146A00EE136600881363CD
:100EA0000025135E00C7125B006C12570015125428
:100EB00000C111510070114F0021114B00D6104993
:100EC000008D1047004610440002104200C00F4041
:100ED00000800F3E00420F3C00060F3B00CB0E3857
:100EE00000930E37005C0E3500270E3400F30D32F0
:100EF00000C10D3100900D3000600D2E00320D2D1F
:100F000000050D2C00D90C2B00AE0C2900850C29F6
:100F1000005C0C2700350C27000E0C2600E80B2483
:100F200000C40B2400A00B23007D0B23005A0B21CF
:100F300000390B2100180B2000F80A1F00D90A1EE7
:100F400000BB0A1E009D0A1D00800A1D00630A1CCA
:100F500000470A1B002C0A1B00110A1A00F7091A85
:100F600000DD091900C4091900AB0919009209171D
:100F7000007B091800630917004C09160036091692
:100F800000200916000A091500F5081500E00814EC
:100F900000CC081400B8081400A40814009008132A
:100FA000007D0812006B0813005808120046081252
:100FB0000034081100230811001208110001081163
:100FC00000F0071000E0071000D0071000C0071065
:100FD00000B0070F00A107100091070E0083070F54
:100FE0000074070F0065070E0057070E0049070E33
:100FF000003B070D002E070E0020070D0013070D04
:101000000006070D00F9060C00ED060D00E0060CC9
:1010100000D4060C00C8060C00BC060C00B0060C80
:1010200000A4060B0099060C008D060B0082060B2F
:101030000077060B006C060B0061060A0057060BD2
:10104000004C060A0042060A0038060A002E060A6C
:101050000024060A001A060A001006090007060AFC
:1010600000FD050900F4050900EB050900E205098A
:1010700000D9050900D0050900C7050900BE05090A
:1010800000B5050800AD050800A50509009C050888
:1010900000940508008C050800840508007C0508FC
:1010A00000740508006C050700650508005D05076C
:1010B00000560508004E05070047050700400508D3
:1010C0000038050700310507002A0507002305073A
:1010D000001C050600160507000F05070008050699
:1010E0000002050700FB040600F5040700EE0406F5
:1010F00000E8040600E2040700DB040600D504064D
:1011000000CF040600C9040600C3040600BD04069F
:1011100000B7040600B1040500AC040600A60406EE
:1011200000A00405009B0406009504050090040639
:10113000008A04050085040500800406007A040581
:101140000075040500700405006B040500660405C5
:1011500000610405005C0405005704050052040505
:10116000004D04050048040500430405003E040446
:10117000003A04050035040500300404002C040581
:101180000027040400230405001E0404001A0404BC
:101190000016040500110404000D040400090405F0
:1011A000000404040000040400FC030400F8030429
:1011B00000F4030400F0030400EC030400E803045B
:1011C00000E4030400E0030400DC030400D803048B
:1011D00000D4030400D0030400CC030400C80303BC
:1011E00000C503030024F404D9201BC40C5C0E9832
:1011F00004C4095F0265077101F405F900FB04B33B
:101200000048048700C103690058035500030345E3
:1012100000BE023A008402310053022A002902254E
:101220000004022000E4011C00C8011900AF0117EE
:101230000098011400840113007101100061011075
:101240000051010E0043010D0036010B002B010B74
:101250000020010B00150109000C01090003010821
:1012600000FB000800F3000800EB000700E40006A4
:1012700000DE000600D8000600D2000600CC000503
:1012800000C7000500C2000500BD000400B900044D
:1012900000B5000400B1000400AD000400A9000482
:1012A00000A5000300A20003009F0004009B0003B0
:1012B00000980003009500020093000300900003D3
:1012C000008D0002008B00030088000200860002EF
:1012D0000084000300810002007F0002007D000204
:1012E000007B000200790002007700010076000216
:1012F000007400020072000100710002006F000221
:10130000006D0001006C0002006A0001006900022B
:101310000067000100660001006500010064000232
:10132000006200010061000100600001005F000236
:10133000005D0001005C0001005B0001005A00013B
:10134000005900010058000100570001005600013B
:10135000005500010054000100530000005300013B
:10136000005200010051000100500001004F000137
:10137000004E0000004E0001004D0001004C000135
:10138000004B0000004B0001004A00010049000131
:10139000004800000048000100470001004600002E
:1013A0000046000100450000004500010044000126
:1013B0000043000000430001004200000042000121
:1013C000004100000041000100400001003F00001A
:1013D000003F0001003E0000003E0001003D000013
:1013E000003D0001003C0000003C0000003C00010A
:1013F000003B0000003B0001003A0000003A000101
:1014000000390000003900010038000000380000F9
:1014100000380001003700000037000100360000EE
:1014200000360000003600010035000000350000E5
:1014300000350001003400000034000000340001D9
:1014400000330000003300000033000100320000D0
:1014500000320000003200010031000000310000C5
:1014600000310001003000000030000000300001B9
:10147000002F0000002F0000002F0000002F0001AF
:10148000002E0000002E0000002E0001002D0000A4
:10149000002D0000002D0000002D0001002C000098
:1014A000002C0000002C0000002C0001002B00008C
:1014B000002B0000002B0000002B0001002A000080
:1014C000002A0000002A0000002A00010029000074
:1014D0000029000000290000002900000029000167
:1014E000002800000028000000280000002800005C
:1014F000002800010027000000270000002700004E
:101500000027000000270001002600000026000040
:101510000026000000260000002600010025000033
:101520000025000000250000002500000025000027
:101530000025000100240000002400000024000019
:10154000002400000024000100230000002300000C
:1015500000230000002300000023000000230000FF
:1015600000230001002200000022000000220000F1
:1015700000220000002200000022000100210000E3
:1015800000210000002100000021000000210000D7
:1015900000210000002100010020000000200000C8
:1015A00000200000002000000020000000200000BB
:1015B0000020000000200001001F0000001F0000AC
:1015C000001F0000001F0000001F0000001F00009F
:1015D000001F0001001E0000001E0000001E000091
:1015E000001E000000232C0000B822000056180046
:1015F000003A0F0000B8080000B1040000710200BA
:10160000003E010000486F6D696E67206661696C7D
:10161000656400206E6F7420656E74657265642E5B
:101620000A0050726F7465637465642050696E0AB5
:10163000006F6B0020573A004D31313320530020AA
:101640005A3A0020423A0020436F756E7420413AA6
:101650000020453A00205A3A0020593A00583A00F2
:101660003A004361703A00496E76616C69642065A6
:10167000787472756465720A0041637469766520D6
:1016800045787472756465723A2000000022002566
:101690000028002B002E003100340002010000055C
:1016A0000108010B01000020002300260029002C66
:1016B000002F0032000001000003010601090105AE
:1016C000050505070508080808020202020A0A08BB
:1016D00008040404040101010101010101030303E1
:1016E0000303030303040707070C0C0C0C0C0C0C7E
:1016F0000C0202020206060606060606060B0B0B85
:101700000B0B0B0B0B0102102020080810204010BF
:1017100020408002010201080402010102040810B5
:1017200020408080402010080402018004020180D3
:1017300040201008040201080402010102040810FC
:10174000204080010204081020408000000A0B02A3
:10175000090C0D0E08070304010000000000000042
:101760000000000000000000000000000000000079
:101770000000000000000012111000000000000036
:101780000000000000000000000000000000000059
:10179000004B494C4C45442E2000202D20496E76AC
:1017A000616C6964206578747275646572206E7509
:1017B0006D62657220210A002020506C616E6E659A
:1017C0007242756666657242797465733A200020CC
:1017D00046726565204D656D6F72793A2000436FE2
:1017E0006D70696C65643A20536570202034203236
:1017F0003031380A00207C20417574686F723A20BD
:10180000467261636B74616C20576F726B730A0070
:10181000323031382D30382D303100204C61737426
:1018200020557064617465643A2000312E312E3980
:101830000A004D61726C696E0020536F66747761A7
:1018400072652052657365740A002057617463687D
:10185000646F672052657365740A002042726F7767
:101860006E206F75742052657365740A0020457888
:101870007465726E616C2052657365740A00506FF6
:1018800077657255700A0073746172740A00205A89
:101890003A0020593A0020583A00656E6473746F1C
:1018A0007073206869743A200020746F6F206C6F29
:1018B0006E6720657874727573696F6E20707265DB
:1018C00076656E7465640A0020636F6C64206578C9
:1018D00074727573696F6E2070726576656E74656B
:1018E000640A001000600350012C0190012201D015
:1018F00001180110020E0170020401E002FA0060FA
:1019000003F0000004E600B004DC00A005D200B043
:1019100006C8000008BE00A009B400800BAA00D0D1
:101920000DA00090109600C0138C007017820090DC
:101930001B780010206E00C0246400E02D50008051
:10194000353C00A03A2800A03D1400003F0000A054
:101950003FECFF4572723A204D415854454D50209E
:10196000424544004D415854454D502074726967BA
:101970006765726564004531204572723A204D41B9
:101980005854454D50004532204572723A204D4121
:101990005854454D50004572723A204D494E5445B9
:1019A0004D5020424544004D494E54454D50207401
:1019B0007269676765726564004531204572723AE5
:1019C000204D494E54454D50004532204572723AE3
:1019D000204D494E54454D5000202F0020400020FE
:1019E00042403A0020403A00000021002400270035
:1019F0002A002D003000330001010000040107011E
:101A00000A01454550524F4D206461746173697AF3
:101A100065206572726F722E0A00290A00206279B1
:101A20007465733B20637263200053657474696E40
:101A300067732053746F726564202800290A0020A0
:101A400062797465733B2063726320002073746F46
:101A50007265642073657474696E6773207265744F
:101A6000726965766564202800202863616C63755F
:101A70006C6174656429210A0020213D20004545E0
:101A800050524F4D20435243206D69736D61746312
:101A900068202D202873746F7265642920002053FC
:101AA000697A653A2000496E6465783A2000204DD5
:101AB00061726C696E3D563535290A0028454550DE
:101AC000524F4D3D00454550524F4D207665727343
:101AD000696F6E206D69736D617463682000486181
:101AE0007264636F6465642044656661756C74201C
:101AF00053657474696E6773204C6F616465640A22
:101B000000E8030000E80300003200000010270096
:101B10000000004843000048430000A0410000349A
:101B2000420000204300002043F0F77B4400008C7B
:101B30004320286D6D290020204D393030204B0086
:101B40004C696E65617220416476616E63653A0A24
:101B50000020440020490020204D33303120500027
:101B600020440020490020500020204D33303120F7
:101B700045005049442073657474696E67733A0A6E
:101B800000205A00205900202047323920533320AA
:101B9000580020204D3432302053004D65736820AA
:101BA000426564204C6576656C696E673A0A002070
:101BB0005A0020590020580020204D32313820543E
:101BC00000486F74656E64206F6666736574733A5F
:101BD0000A00205A0020590020204D32303620586B
:101BE00000486F6D65206F66667365743A0A002061
:101BF0004500205A0020590020580020540020534E
:101C00000020204D32303520420020453C6D617867
:101C10005F655F6A65726B3E0020583C6D61785F5E
:101C2000785F6A65726B3E20593C6D61785F795FC1
:101C30006A65726B3E205A3C6D61785F7A5F6A65B7
:101C4000726B3E00416476616E6365643A20423C8B
:101C50006D696E5F7365676D656E745F74696D65E0
:101C60005F75733E20533C6D696E5F666565647297
:101C70006174653E20543C6D696E5F747261766577
:101C80006C5F66656564726174653E002054002077
:101C9000520020204D323034205000416363656C87
:101CA00065726174696F6E2028756E6974732F7325
:101CB00032293A20503C7072696E745F61636365CB
:101CC0006C3E20523C726574726163745F61636341
:101CD000656C3E20543C74726176656C5F61636331
:101CE000656C3E0A00204500205A00205900202043
:101CF0004D3230312058004D6178696D756D20414D
:101D00006363656C65726174696F6E2028756E69B6
:101D100074732F7332293A0A00204500205A00209C
:101D2000590020204D3230332058004D6178696DC4
:101D3000756D206665656472617465732028756EC3
:101D40006974732F73293A0A00204500205A002035
:101D5000590020204D39322058005374657073208B
:101D600070657220756E69743A0A0020204D323019
:101D7000302044300A0020204D32303020543120B1
:101D8000440020204D3230302044002044697361EB
:101D9000626C65640A0046696C616D656E742073DF
:101DA000657474696E67733A0020204732312020D1
:101DB00020203B000A4D6561737572656420706F69
:101DC000696E74733A0A005A206F66667365743AD6
:101DD00020004E756D20582C593A20332C330A00C0
:101DE000FFFDFCFAF8F6F4F2F0EEECEAE9E7E5E3E1
:101DF000E1E0DEDCDAD9D7D5D4D2D0CFCDCBCAC89A
:101E0000C7C5C3C2C0BFBDBCBAB9B7B6B4B3B2B020
:101E1000AFADACAAA9A8A6A5A4A2A1A09E9D9C9A7C
:101E200099989795949392908F8E8D8B8A898887B5
:101E30008684838281807F7E7D7B7A7978777675D0
:101E400074737271706F6E6D6C6B6A6968676665CA
:101E500064636261605F5E5D5C5B5A5958585756B7
:101E6000555453525150504F4E4D4C4B4A4A49488D
:101E7000474646454443424241403F3E3E3D3C3B4F
:101E80003B3A393838373635353433323231303001
:101E90002F2E2E2D2C2B2B2A2929282727262525A6
:101EA00024232322212120201F1E1E1D1C1C1B1B3E
:101EB0001A191918181716161515141313121211CA
:101EC00011100F0F0E0E0D0D0C0C0B0A0A0909084C
:101ED00008070706060505040403030202010000C3
:101EE0000000000100000001000080005555550071
:101EF0000000400033333300AAAA2A00499224008C
:101F000000002000C7711C0099991900D1451700E5
:101F1000555515003BB11300244912001111110051
:101F2000000010000F0F0F00E3380E0043790D0082
:101F3000CCCC0C00C3300C00E8A20B0064210B00D9
:101F4000AAAA0A00703D0A009DD80900427B090038
:101F500092240900DCD30800888808001042080099
:101F600000000800F0C107008787070075500700D0
:101F7000711C07003EEB0600A1BC0600699006003C
:101F800066660600703E06006118060017F405003C
:101F900074D105005BB00500B290050062720500C7
:101FA0005555050078390500B81E050005050500E2
:101FB0004EEC040087D40400A1BD040090A70400E7
:101FC00049920400C17D0400EE690400C756040074
:101FD000444404005C320400082104004110040061
:101FE000000004003FF00300F8E0030026D20300E5
:101FF000C3C30300CCB503003AA803000A9B030047
:10200000388E0300C08103009F750300D069030070
:10201000505E03001D53030034480300913D03004C
:102020003333030016290300381F030097150300FC
:10203000300C0300030303000BFA020049F1020015
:10204000BAE802005CE002002DD802002DD00200A8
:1020500059C80200B0C0020031B90200DAB1020072
:10206000AAAA0200A0A30200BC9C0200FA950200EA
:102070005C8F0200DF88020082820200457C020041
:102080002776020027700200436A02007C64020087
:10209000D05E02003F590200C85302006275737996
:1020A0003A2070617573656420666F7220696E7086
:1020B00075740A00627573793A207061757365648E
:1020C00020666F7220757365720A00627573793AC3
:1020D0002070726F63657373696E670A004B494CB9
:1020E0004C45442E20004B494C4C20636175736570
:1020F0006420627920746F6F206D75636820696E4B
:102100006163746976652074696D65202D2063753F
:102110007272656E7420636F6D6D616E643A20003B
:102120005072696E7465722068616C7465642E20EB
:102130006B696C6C28292063616C6C6564210A00F2
:102140000000C8C10080C5430080CA430000484267
:10215000000048420000A041000000005761726E7C
:10216000696E673A20486F6D696E672042756D70C1
:102170002044697669736F72203C20310A000202A4
:10218000040000A0400000A040000000400080D4F7
:10219000430080D9430080CA43FF01016F6B0045B3
:1021A00072726F722077726974696E6720746F2023
:1021B000454550524F4D210A00556E6B6E6F776E3C
:1021C00020636F6D6D616E643A2022002066697233
:1021D00073740A005A0059005800486F6D6520005A
:1021E0006563686F3A004572726F723A0042454407
:1021F00020544845524D414C2052554E415741596B
:1022000000546865726D616C2052756E61776179FA
:1022100000453120544845524D414C2052554E41C5
:1022200057415900453220544845524D414C2052A7
:10223000554E4157415900526573656E643A20000E
:1022400020746F6F206C6F6E672065787472757381
:10225000696F6E2070726576656E7465640A002021
:10226000636F6C6420657874727573696F6E20702B
:10227000726576656E7465640A006265640A002C96
:102280002073797374656D2073746F707065642149
:10229000204865617465725F49443A200042656474
:1022A0002068656174696E67206661696C656400A9
:1022B00048656174696E67206661696C6564004891
:1022C000656174696E67206661696C65640045319B
:1022D0002048656174696E67206661696C65640099
:1022E00045322048656174696E67206661696C6576
:1022F00064001EAA11241FBECFEFD1E2DEBFCDBF06
:1023000000E00CBF13E0A0E0B2E0E6ECFDE601E087
:102310000BBF02C007900D92A432B107D9F720E19C
:10232000A4E2B3E001C01D92A737B207E1F711E1C3
:10233000CAE7D1E100E006C021970109802FFE0124
:102340000E9498B6C937D10780E00807A9F70E9414
:10235000F2A30C94E1B60C9400002F923F924F929E
:102360005F926F927F928F929F92AF92BF92CF9225
:10237000DF92EF92FF920F931F93CF93DF93CDB72E
:10238000DEB7C257D1090FB6F894DEBF0FBECDBF7E
:1023900011E01093170E8091E8048D3409F485C57F
:1023A000843511F40C943028873411F00C945C2897
:1023B0008091E6049091E7048B31910509F404C201
:1023C000A4F48430910534F48230910594F597FF9C
:1023D00029C067C58430910509F4C1C14A9709F045
:1023E00060C50E94F1330C945E288A32910509F48D
:1023F00053C444F48C31910509F485C24D9709F416
:1024000087C24FC58B35910509F4D5C48C3591052C
:1024100009F4D5C48A35910509F043C510923703F4
:102420000C945E288091530281110C946C280C94BA
:102430005E2820915302222311F40C945E2811E0AF
:10244000029709F010E00E94744E19821A821B82D2
:102450001C821D821E821F82188682E50E945D32C8
:10246000882309F42CC10E94E3316B017C01209187
:10247000890E30918A0E40918B0E50918C0E2AA3BA
:102480003BA34CA35DA380908D0E90908E0EA090E8
:102490008F0EB090900E40919D0E50919E0E6091C7
:1024A0009F0E7091A00E4EA35FA368A779A76091BD
:1024B000A10E7091A20E8091A30E9091A40E6AA716
:1024C0007BA78CA79DA720E030E0A901C701B6013A
:1024D0000E9439AF882309F408C12AA13BA14CA16D
:1024E0005DA16EA17FA188A599A50E9439AF811138
:1024F0000BC0A50194016AA57BA58CA59DA50E9492
:1025000039AF882309F4F1C020E030E0A901C70108
:10251000B6010E9439AF881F8827881F181309C089
:1025200080E090E0A0E8BFE38AAF9BAFACAFBDAF67
:1025300008C020E030E040E85FEB2AAF3BAF4CAF93
:102540005DAF2AA13BA14CA15DA16EA17FA188A591
:1025500099A50E94A2B36AAB7BAB8CAB9DABA501E6
:1025600094016AA57BA58CA59DA50E94A2B36EAB24
:102570007FAB88AF99AF2AA93BA94CA95DA9CA0135
:10258000B9010E949EAF2B013C012EA93FA948AD85
:1025900059ADCA01B9010E949EAF9B01AC01C301B4
:1025A000B2010E94A3B30E940EB66EA77FA788ABAC
:1025B00099AB20E030E040E05FE30E949EAF2B014A
:1025C0003C01A7019601C701B6010E949EAF6B01B5
:1025D0007C01A3019201C301B2010E949EAF9B0145
:1025E000AC01C701B6010E94A2B30E940EB69B01C6
:1025F000AC016AAD7BAD8CAD9DAD0E949EAF6B0111
:102600007C012EA13FA148A559A56AA17BA18CA15F
:102610009DA10E94A3B320E030E040E05FE30E9470
:102620009EAF2B013C016EA97FA988AD99AD905852
:102630002EA53FA548A959A90E947FB49B01AC01D2
:10264000C701B6010E949EAF9B01AC01C301B2015C
:102650000E94A3B32AA13BA14CA15DA10E94A2B3F9
:1026600069837A838B839C832AA53BA54CA55DA5B2
:10267000C501B4010E94A3B320E030E040E05FE375
:102680000E949EAF2B013C012EA53FA548A959A948
:102690006AA97BA98CA99DA90E947FB49B01AC016A
:1026A000C701B6010E949EAF9B01AC01C301B201FC
:1026B0000E94A3B3A50194010E94A2B312C089E4B1
:1026C0000E945D32882331F00E94E33169837A836E
:1026D0008B839C838AE40E945D32882331F00E94C0
:1026E000E3316D837E838F83988720E030E0A901FA
:1026F00069817A818B819C810E9439AF81110BC0E5
:1027000020E030E0A9016D817E818F8198850E9453
:1027100039AF882351F0412FBE016F5F7F4F8DE9A4
:102720009EE00E94DF950C945E28E6EEF1E2849133
:102730008F010F5F1F4F882321F00E94D82EF801D0
:10274000F6CFE9EEF1E084918F010F5F1F4F8823F0
:1027500011F40C945E280E94D82EF801F4CF80E585
:102760000E945D32882329F00E94082E6B017C01B3
:1027700003C0C12CD12C760183E50E945D328823F1
:1027800061F00E94E33120E030E04AE754E40E9427
:102790009EAF0E94ECB46B017C010E94A9650E946F
:1027A000F268C60ED71EE81EF91E0E94F268DC0110
:1027B000CB018C199D09AE09BF09B7FD02C00C946D
:1027C0005E280E94098EF1CF0E94B59481110C946D
:1027D0005E2880E090E0A0E7B1EC89839A83AB8328
:1027E000BC8380E090E8A0ECB3E48D839E83AF834C
:1027F000B88780E090E0A0EAB1E489879A87AB8748
:10280000BC8780E50E945D32882319F00E94B331B5
:1028100001C060E080E090E0A8ECB2E48E8F9F8F72
:10282000A8A3B9A380E090E0A0EAB0E48A8F9B8FD0
:10283000AC8FBD8F613019F0623039F02AC0BE0113
:10284000665E7F4FCE01099645C029853A854B8546
:102850005C856091910E7091920E8091930E909193
:10286000940E0E94A3B36B017C0120E030E84AEC97
:1028700053E40E9439AF87FD07C0C12C10E8D12E68
:102880001AECE12E13E4F12ECE8ADF8AE88EF98E5F
:102890001CC0A090910EB090920EC090930ED0905C
:1028A000940EE984FA840B851C859501A601B70175
:1028B000C8010E94C9B5181614F075018601C70138
:1028C000D8018E8B9F8BA88FB98FBE01665E7F4F1C
:1028D000CE0146960E947651E090910EF090920EB5
:1028E0000091930E1091940E2D813E814F81588559
:1028F00069817A818B819C81DE015E966D010E94E7
:102900009A500C945E2880E00E9484530C945E28B8
:1029100083E50E945D32882311F10E94C331282F84
:10292000863070F0EDEAF2E084918F010F5F1F4F67
:10293000882311F40C945E280E94D82EF801F4CF5D
:10294000833009F42EC12CF4813069F18230D9F141
:1029500006C0843009F487C1853009F494C10E940F
:10296000F44F882399F080917F06811103C06EEFA8
:1029700072E002C06AEF72E085E892E00E94A97CF2
:102980008AE00E94D82E0E946AA982C1EDE8F2E096
:1029900084918F010F5F1F4F882309F479C10E9432
:1029A000D82EF801F5CF0E94B28A1092010210923F
:1029B00000028EE792E090932503809324030E9407
:1029C000E22E0C945E28809100029091010297FF04
:1029D0000EC0E5E5F2E084918F010F5F1F4F882361
:1029E00011F40C945E280E94D82EF801F4CF0097C1
:1029F000A1F480914C028093380319821A821B82C1
:102A00001C821E8A1F8A188E198EBE016F5F7F4F2F
:102A1000CE0146960E9476512AC0815063E00E9402
:102A200077B680FF02C0291B922F292F990F330BF5
:102A3000F901EE0FFF1FE20FF31FE80FF11D87FDF5
:102A4000FA95EE0FFF1FEE0FFF1FEE50F24F809131
:102A5000910E9091920EA091930EB091940E80835E
:102A60009183A283B3838091380380934C02809139
:102A7000000290910102893091050CF068C010921B
:102A80004C029C012F5F3F4F3093010220930002C4
:102A900063E00E9477B680FF03C022E0291B922FDB
:102AA0004091910E5091920E6091930E7091940E00
:102AB0004E8B5F8B688F798F19821A821B821C82E2
:102AC000B4E08B0290011124F901E451F14F4F0160
:102AD0002081318142815381F4E09F02C0011124A1
:102AE000BC016850714F5B01DB016D917D918D914F
:102AF0009C91FE0131966F01E12CF12C00EA10E46B
:102B00000E949A5019821A821B821C82B601CE0141
:102B100046960E947651F50180819181A281B38110
:102B20008093890E90938A0EA0938B0EB0938C0E97
:102B3000F40180819181A281B38180938D0E909365
:102B40008E0EA0938F0EB093900E0C94712880E09F
:102B500090E0A0EAB0E48093910E9093920EA0933F
:102B6000930EB093940E0E9444500E94A9658FEF7B
:102B70009FEF9093010280930002E1E4F2E08491E0
:102B80008F010F5F1F4F882321F00E94D82EF8017C
:102B9000F6CF81E00E94845381E00E9424500C947F
:102BA000712888E50E945D328823A1F00E94B3312C
:102BB0001FEF160F1330A8F0EAE2F2E084918F01C4
:102BC0000F5F1F4F882311F40C945E280E94D82EAB
:102BD000F801F4CF88E50E94D82E0E94E2A30C945D
:102BE0005E2889E50E945D328823A1F00E94B331FE
:102BF0000FEF060F0330A8F0E3E1F2E084918F01BC
:102C00000F5F1F4F882311F40C945E280E94D82E6A
:102C1000F801F4CF89E50E94D82E0E94E2A30C941B
:102C20005E288AE50E945D328823B1F00E94E3317C
:102C3000212F30E0F901EE0FFF1FE20FF31FE00F2D
:102C4000F11DEE0FFF1FEE0FFF1FEE50F24F6083DE
:102C50007183828393831CC08AE50E94D82E0E94D0
:102C6000E2A30C945E288AE50E945D328823A1F3DA
:102C70000E94E3316093EE0D7093EF0D8093F00DA1
:102C80009093F10D05C080E00E9424500E94B28A0A
:102C90000E94434A0C945E2880915302882311F4C9
:102CA0000C945E2889E40E945D32F82E882321F07E
:102CB0000E94B331062F01C000E08AE40E945D3219
:102CC000E82E882331F00E94B331162FF11004C092
:102CD0000AC010E0FF20B1F0033010F40C94B52CC2
:102CE000E4ECF2E003C01330D8F70CC084918F01FC
:102CF0000F5F1F4F882311F40C945E280E94D82E7A
:102D0000F801F4CF0E94A532FF2091F024E00202E6
:102D1000F0011124E850F14F80819181A281B381AB
:102D200080939D0E90939E0EA0939F0EB093A00E45
:102D3000EE2091F034E01302F0011124E451F14F40
:102D400080819181A281B3818093A10E9093A20E84
:102D5000A093A30EB093A40E80E50E945D32882359
:102D600019F00E94D43103C080E50E94163286E437
:102D70000E945D328823D9F00E94E3316B017C010F
:102D800020E030E0A9010E94C9B5181684F420E0C3
:102D900030E040E752E4C701B6010E947FB460937F
:102DA0004F027093500280935102909352020E94FE
:102DB000109A0C945E28109337030C945E28F8E563
:102DC0002F2EF2E03F2EA5E2CA2EAEE0DA2EE12C45
:102DD000F12C00E010E0D1018D911D010E945D32C7
:102DE000882309F44EC00E94E3312B013C011330CB
:102DF00059F0F701E95DFC4F208131814281538117
:102E00000E94A2B32B013C01F701E757F14F20814B
:102E1000318142815381C301B2010E94A2B34B01AF
:102E20005C012DEB37E346E855EB0E94C9B587FD01
:102E30000AC02DEB37E346E855E3C501B4010E9413
:102E400039AF1816F4F4133051F44092950E5092A5
:102E5000960E6092970E7092980E01E012C0A50136
:102E60009401F60160817181828193810E94A3B3F4
:102E7000D6016D937D938D939C931397812F0E9420
:102E8000812D1F5FB4E0CB0ED11CE4E0EE0EF11CEF
:102E9000143009F0A0CF002309F4FACE0E94509418
:102EA000F7CE0E94C2950C945E288091E604909122
:102EB000E7048C38910509F406C40CF0A0C08836EC
:102EC000910509F40EC30CF054C08D34910509F43A
:102ED00002C27CF58A32910509F47FC1BCF48231CB
:102EE000910509F45FC48F31910509F451C14197EF
:102EF00011F00C942D285F988A98809108018170B8
:102F000080930601129847980C945E288B349105A3
:102F100009F4C8C10CF0CAC1C19711F00C942D2856
:102F2000F090260381E0F826F0922603EBEFF2E022
:102F30009CC18335910509F431C464F48135910550
:102F400009F424C40CF026C48E34910509F4C7C1D9
:102F50000C942D288535910509F428C40CF422C45D
:102F60008C35910511F00C942D280E94304B0C9457
:102F70005E288037910509F49AC3C4F48C36910514
:102F800009F491C364F48A36910509F4CFC30CF0B7
:102F9000EBC30E94574E1092170E0C94BB2C8E362A
:102FA000910509F4D2C20CF48AC3E2C285379105B7
:102FB00011F40C945E2874F48237910509F4FAC375
:102FC0000CF479C38337910511F00C942D28EDE6AC
:102FD000F4E0F6C38737910509F49BC40CF44CC4A4
:102FE0008837910509F4FBC48937910511F00C94D9
:102FF0002D281092B4041092B3040C945E288D32E4
:10300000F1E09F0711F40C9497210CF059C08E3C0D
:10301000910509F481C65CF5893C910509F44BC51D
:103020008CF48E3B910509F46CC3883C910509F43E
:10303000DDC48B39910511F00C942D280E94294E86
:103040000C945E288C3C910509F46DC50CF0E3C529
:103050008B3C910511F00C942D2800EAE02E06E03F
:10306000F02E08E512E084E0D82ED00E4DC58D3D3F
:10307000910511F40C94482084F48A3D910509F4DB
:10308000E9C78C3D910509F4F4C7833D910511F022
:103090000C942D28E0EEF1E20AC7883131E0930765
:1030A00011F40C94E020823241E0940711F40C9466
:1030B0008A21823E910511F00C942D280C94B520A4
:1030C0008C3A51E0950709F449C674F5803971E0EE
:1030D000970711F40C94F62594F48F32B1E09B0716
:1030E00011F40C948C2214F40C9438228336914001
:1030F00011F00C942D28E6EEF1E20C94DF25843AD1
:1031000021E0920711F40C94F925853A31E09307F8
:1031100011F40C94B7268A39914011F00C942D28A3
:103120000E94A6490C945E28873F51E0950711F450
:103130000C949A2794F4853F71E0970711F40C944E
:10314000942714F00C949727843F914011F00C942D
:103150002D280E94AE740C945E288438E3E09E070C
:1031600011F40C94C6273CF4883F914011F40C9460
:10317000A5270C942D288B3833E0930711F40C9479
:103180005E28873E934011F40C941A280C942D2845
:103190000E9481A16E8B7F8B888F998FBE016F5F9C
:1031A0007F4FCE0146960E94182EE0EEF1E2849108
:1031B0008F010F5F1F4F882321F00E94D82EF80146
:1031C000F6CFBE016F5F7F4F83EE92E00E94A97C35
:1031D0008AE00E94D82E0C945E2883E50E945D321E
:1031E000882311F40C945E280E94C331E82E80E5F8
:1031F0000E945D32882339F00E94C331182F87FF67
:1032000003C00C945E281DE089E40E945D3288238F
:1032100049F00E94D431811111C0E8E2F6E086E362
:103220008E0F07C089E40E941632F5CF31968E17B3
:1032300029F094911913FACF0C945C2A61E0812F44
:103240000E9480676E2D812F0E94AA54F12CB70135
:10325000812F0E94BC67193011F00C945E28F09207
:10326000BD06E092BC060C945E2884918F010F5F2E
:103270001F4F882321F00E94D82EF801F6CFF110BD
:1032800003C0E5EFF2E002C0E0EFF2E084918F01CD
:103290000F5F1F4F882311F40C945E280E94D82ED4
:1032A000F801F4CF0E94D17C0C945E288091A10497
:1032B000813011F00C945E2882E08093A1040E947A
:1032C000F2686093990470939A0480939B0490939E
:1032D0009C040C945E280E942F7D0C945E2883E54C
:1032E0000E945D32811103C0E4E6F3E009C00E9450
:1032F000B3316E347105C1F70E949F7D0C945E2836
:1033000084918F010F5F1F4F882321F00E94D82ED8
:10331000F801F6CFEBE5F3E084918F010F5F1F4FCB
:10332000882321F00E94D82EF801F6CF6091A304E3
:103330007091A40480E090E04AE00E949830EEE4AE
:10334000F3E084918F010F5F1F4F882321F00E94CB
:10335000D82EF801F6CF6091A5047091A60480E004
:1033600090E04AE00E949830E3E4F3E084918F011A
:103370000F5F1F4F882321F00E94D82EF801F6CF4F
:103380006091A3047091A4048091A5049091A60477
:10339000681B790B8091A104815021E030E08230DC
:1033A00010F020E030E0621B730B80E090E04AE018
:1033B0000E9498308AE00E94D82EEBE3F3E08491DB
:1033C0008F010F5F1F4F882321F00E94D82EF80134
:1033D000F6CF8091A7049091A804A091A904B09180
:1033E000AA048E8B9F8BA88FB98FBE016F5F7F4F12
:1033F000CE0146960E94182EEEE2F3E084918F01F2
:103400000F5F1F4F811106C0BE016F5F7F4F7B01B1
:103410008B0104C00E94D82EF801F0CFD8018D9105
:103420008D01882319F00E94D82EF8CF8091AB042B
:103430009091AC04A091AD04B091AE048E8B9F8BA3
:10344000A88FB98FBE016F5F7F4FCE0146960E9455
:10345000182EEEE1F3E084918F010F5F1F4F882358
:1034600021F00E94D82EF801F6CFF70181917F015B
:10347000882319F00E94D82EF8CF8AE00E94D82E17
:10348000E6E1F3E084918F010F5F1F4F882321F065
:103490000E94D82EF801F6CFE6E0F3E084918F0188
:1034A0000F5F1F4F882321F00E94D82EF801F6CF1E
:1034B00020E030E04AE754E46091AF047091B0043A
:1034C0008091B1049091B2040E947FB442E00E94C6
:1034D00018318DE60E94D82E8AE00E94D82E0C94D6
:1034E0005E2888E690E00E94693281110C945E2883
:1034F0008091E90483FF02C00C945E2883E50E945A
:103500005D328823F1F00E94E331F090F4060F2D34
:1035100010E0000F111F0051194F0E94E7B4D801AD
:103520006D937C938F2D0E94876D0E94E33120E084
:1035300030E04AEA52E40E9439AF181614F00E94B3
:103540002F7D0E94AF7D0C945E288EE40E945D3238
:10355000882311F40C945E280E94B3316093AF0E5F
:103560007093B00E8093B10E9093B20E0C945E28BF
:1035700083E50E941632882359F083E50E945D326C
:10358000882319F00E94C33101C080E08093E904D0
:10359000E0EEF1E284918F010F5F1F4F882321F04D
:1035A0000E94D82EF801F6CFEAE7F3E084918F016C
:1035B0000F5F1F4F882321F00E94D82EF801F6CF0D
:1035C0008091E9048823A1F15CE6C52E53E0D52E55
:1035D000E12CF12C20E08091E90490E00E2C02C057
:1035E000959587950A94E2F780FF17C0BB24B394A2
:1035F000B20E222319F08CE20E94D82EF6012591FA
:103600003491F901849189010F5F1F4F882321F0C4
:103610000E94D82E9801F5CF2B2DFFEFEF1AFF0A4D
:1036200032E0C30ED11C45E0E416F104A1F636C029
:10363000E6E7F3E084918F010F5F1F4F882371F15C
:103640000E94D82EF801F6CF06ED1DE080E20E9420
:10365000D82ED8016D917D918D919D918D0142E083
:103660000E9418318CE20E94D82EF8016481758185
:103670008681978142E00E9418318CE20E94D82E08
:10368000D8011C966D917D918D919C911F9742E080
:103690000E941831BDE00E3D1B07C1F68AE00E9472
:1036A000D82E0C945E28109202020C945E2881E8B9
:1036B00093E00E94D98D0E94514C0C945E280E9488
:1036C0007B4C0C945E288091E90483FF02C00C942B
:1036D0005E2883E50E945D32882311F40C945E28F5
:1036E0000E94E3310E94E7B46639710514F066E97F
:1036F00070E07093E7066093E6060E943D6D0C94BF
:103700005E288091E90483FF02C00C945E2883E563
:103710000E945D328AAF81110C94882882E50E9454
:103720005D3281110C9488280C945E2880E50E94FB
:103730005D32811106C083E50E945D32882361F00D
:1037400006C00E94C33181110C945E28F4CF0E9400
:10375000B3316F3F710510F06FEF70E07093BD06ED
:103760006093BC060C945E2880E50E945D32811156
:1037700006C01092BD061092BC060C945E280E94F2
:10378000B331672B11F00C945E28F3CF0E94434CA9
:103790000C945E28109236030C945E281093360326
:1037A0000C945E280E94E64B0C945E280E94CE4B3F
:1037B0000C945E280E94A9650E94434A0C945E28DE
:1037C00084918F010F5F1F4F882321F00E94D82E14
:1037D000F801F6CF60E08DE594E00E94FF4961E0DA
:1037E00086E594E00E94FF4961E08BE494E00E944A
:1037F000FF4961E08BE394E00E94FF4960E082E3CF
:1038000094E00E94FF4961E088E294E00E94FF4951
:1038100060E08EE194E00E94FF4960E086E194E080
:103820000E94FF4961E088E094E00E94FF4960E067
:103830008AEF93E00E94FF4960E08BEE93E00E94E4
:10384000FF4960E08DED93E00E94FF4960E087EC66
:1038500093E00E94FF4960E086EB93E00E94FF49FD
:1038600060E081EA93E00E94FF4961E08EE893E026
:103870000E94FF490C945E280091E4041091E50435
:1038800083E0D12C40E08150E9F0D8019C91292FB0
:103890002B7F2134C1F711962C912133A1F791345C
:1038A00021F0953421F441E002C0DD24D394980145
:1038B0002E5F3F4F89012F5F3F4FF801908190327B
:1038C000C9F3E1CF442369F0E0EEF1E284917F0196
:1038D0002FEFE21AF20A882321F00E94D82EF70176
:1038E000F5CFDD2069F0ECE3F5E084917F013FEF57
:1038F000E31AF30A882321F00E94D82EF701F5CFAE
:10390000D8018D918D01882309F4C8CE0E94D82E4C
:10391000F7CFE8E5F5E084918F010F5F1F4F882313
:1039200021F00E94D82EF801F6CFE0E5F5E0849171
:103930008F010F5F1F4F882321F00E94D82EF801BE
:10394000F6CF659903C002E013E002C007E013E080
:10395000F80181918F01882319F00E94D82EF8CFA9
:103960008AE00E94D82EE8E4F5E084918F010F5F91
:103970001F4F882321F00E94D82EF801F6CF8091A6
:10398000030180FD03C002E013E002C007E013E082
:10399000D8018D918D01882319F00E94D82EF8CF7F
:1039A0008AE00E94D82EE0E4F5E084918F010F5F59
:1039B0001F4F882321F00E94D82EF801F6CF4A9994
:1039C00003C002E013E002C007E013E0F8018191B8
:1039D0008F01882309F462CE0E94D82EF7CF81E0B0
:1039E0008093B4048093B3040C945E2888EC90E038
:1039F0000E94693281110C945E2884E40E94163280
:103A0000882309F454C00E94E33111E020E030E043
:103A1000A9010E9439AF811101C010E010936E0618
:103A2000112309F444C00E94E331E091F40624E03C
:103A3000E29FF0011124E958F94F6083718382837A
:103A4000938320E030E0A9016091770670917806B9
:103A50008091790690917A060E9439AF81110CC04D
:103A600080E090E0A0EEBFE3809377069093780625
:103A7000A0937906B0937A0620E030E0A901609126
:103A80007B0670917C0680917D0690917E060E9457
:103A900039AF81110CC080E090E0A0EEBFE38093CD
:103AA0007B0690937C06A0937D06B0937E060E94D1
:103AB00084660C945E289BE2E92E97E0F92E08E5D7
:103AC00012E024E0D22ED00ED8018D918D010E94FB
:103AD0001632882349F00E94E3310E94ECB4F701CA
:103AE0006083718382839383F4E0EF0EF11CD01224
:103AF000EBCF0E94DF7D0C945E28F4E0EF0EF11C0A
:103B0000D01611F40C945E28D8018D918D010E947D
:103B10001632882391F30E94E331F70160837183A9
:103B200082839383EACF83E50E945D328823A1F0EC
:103B30000E94E331609398067093990680939A06E9
:103B400090939B06609394067093950680939606D7
:103B50009093970610E001C011E080E50E945D326D
:103B6000882359F00E94E331609398067093990678
:103B700080939A0690939B0610E082E50E945D3246
:103B8000882359F00E94E33160939C0670939D0650
:103B900080939E0690939F0610E084E50E945D321C
:103BA000882361F00E94E331609394067093950638
:103BB00080939606909397060C945E28112311F437
:103BC0000C945E28409198065091990660919A064F
:103BD00070919B0688E795E00E94737C40919C065B
:103BE00050919D0660919E0670919F0685E795E035
:103BF0000E94737C409194065091950660919606C0
:103C00007091970682E795E00E94737C8AE00E949B
:103C1000D82E0C945E2882E40E941632882351F03C
:103C20000E94082E6093B0067093B1068093B2068E
:103C30009093B30683E50E941632882351F00E94C8
:103C4000E3316093B8067093B9068093BA069093F7
:103C5000BB0684E50E941632882351F00E94E331AE
:103C60006093B4067093B5068093B6069093B7063A
:103C700088E50E941632882351F00E94E331609358
:103C8000800670938106809382069093830689E56F
:103C90000E941632882351F00E94E331609384061B
:103CA0007093850680938606909387068AE50E9426
:103CB00016328823F1F00E94E331609388067093F6
:103CC000890680938A0690938B062DEC3CEC4CEC95
:103CD0005DE30E9439AF181664F0E8E8F5E08491DE
:103CE0008F010F5F1F4F882321F00E94D82EF8010B
:103CF000F6CF85E40E941632882311F40C945E28D6
:103D00000E94E33160938C0670938D0680938E063B
:103D100090938F060C945E28B8E5CB2EB2E0DB2E94
:103D200016EBE12E14E0F12E10E0D6018D916D011D
:103D30000E941632882351F00E94E331F70160831C
:103D4000718382839383812F0E94812D1F5FF4E012
:103D5000EF0EF11C133049F70C9448160E94B594ED
:103D600081110C945E28A0E48A2EA1E29A2E29E803
:103D70003EE03BA32AA3AE014F5F5F4F5A0109E922
:103D800011E21A0153E0500F5EA3F40165917591A1
:103D900085919491AAA1BBA1CD90DD90ED90FD906D
:103DA000BBA3AAA3A70196010E94A2B32B013C01C9
:103DB00020E030E040EA51EC0E94C9B587FD10C018
:103DC00020E030E040EA51E4C301B2010E9439AF83
:103DD000181634F0F10140825182628273820EC063
:103DE000F80184911816B4F7F7FAF094F7F8F09404
:103DF000D101CD92DD92ED92FC921397D101CD903D
:103E0000DD90ED90FD901D0120E030E040EA51ECA6
:103E1000C701B6010E94C9B587FF03C0E6EEF1E213
:103E20000BC020E030E040EA51E4C701B6010E9437
:103E300039AF1816CCF4F2CF84918F010F5F1F4F6A
:103E4000882321F00E94D82EF801F6CFEAEBF5E0A6
:103E500084918F010F5F1F4F882311F40C945E280B
:103E60000E94D82EF801F4CFB4E08B0E911C0F5FA6
:103E70001F4FEEA1E01389CFF6EBEF2EF4E0FF2EFB
:103E800010E0F50181919191A191B1915F01F7014C
:103E900081939193A193B1937F01812F0E94812DF2
:103EA0001F5F133071F70E94434A0C945E2884917F
:103EB0008F010F5F1F4F882321F00E94D82EF80139
:103EC000F6CF83E50E941632882321F00E94D43178
:103ED00080934C02E0E0F6E084918F010F5F1F4F6A
:103EE000882321F00E94D82EF801F6CF80914C0251
:103EF000811103C0ECEFF5E002C0E8EFF5E084913A
:103F00008F010F5F1F4F882321F00E94D82EF801E8
:103F1000F6CFE0EFF5E084918F010F5F1F4F88230C
:103F200021F00E94D82EF801F6CF40902703509040
:103F300028036090290370902A032091310E30915C
:103F4000320E4091330E5091340EC301B2010E94E3
:103F5000A3B3AB01BC018EEE95E00E94737C809010
:103F60002B0390902C03A0902D03B0902E03209152
:103F7000350E3091360E4091370E5091380EC501F6
:103F8000B4010E94A3B3AB01BC018BEE95E00E948B
:103F9000737CC0902F03D0903003E0903103F090F9
:103FA00032032091390E30913A0E40913B0E5091E0
:103FB0003C0EC701B6010E94A3B3AB01BC0188EE61
:103FC00095E00E94737CE0EEF5E084918F010F5F35
:103FD0001F4F882321F00E94D82EF801F6CF2091A0
:103FE0004002309141024091420250914302C3018C
:103FF000B2010E94A3B3AB01BC018EED95E00E941B
:10400000737C2091440230914502409146025091C8
:104010004702C501B4010E94A3B3AB01BC018BED03
:1040200095E00E94737C20914802309149024091B2
:104030004A0250914B02C701B6010E94A3B3AB01E3
:10404000BC0188ED95E00E94737C8AE00E94D82E26
:104050000C945E288AED90E00E94693281110C94E4
:104060005E288091F406882311F40C945E280C9449
:10407000FF2983E50E945D32882311F40C945E28A9
:104080000E94B33170934E0260934D020C945E28EF
:104090008DED90E00E94693281110C945E2883E5D9
:1040A0000E945D328823C9F10091F40610E00E945D
:1040B000B331000F111FF801E25EFD4F7183608381
:1040C0008091F40690E07C01EE0CFF1CEE0CFF1CCE
:1040D00087010E5D1D4F880F991FFC01E25EFD4FA9
:1040E00060817181072E000C880B990B0E943FAFF5
:1040F0002AE037ED43E25CE30E949EAFF701E1590D
:10410000F94F20813181428153810E949EAFF80195
:104110006083718382839383D1C7E0EEF1E284915F
:104120008F010F5F1F4F882321F00E94D82EF801C6
:10413000F6CF85E40E94D82E8091F406805D0E941F
:10414000D82EE091F406F0E0EE0FFF1FE25EFD4F87
:104150006081718180E296E00E94907C85E20E94FD
:10416000D82E8AE00E94D82EA9C780E50E94163278
:10417000882309F4A3C70E94B3316B017C0183E556
:104180000E945D32882321F00E94B3318B0102C06E
:104190000FEF1FEFC8010196039708F08FC7D7FCF8
:1041A0008DC79C2DE8E2F6E086E38E0F24919217EE
:1041B00011F40C945C2A31968E13F8CF0C945F2A7C
:1041C00080E50E941632882309F478C70E94B33133
:1041D0006B017C018B01672B09F07EC083E50E9497
:1041E0001632882339F00E94B33181E79FE00E94A4
:1041F000247B64C7E0EEF1E284917F012FEFE21AA5
:10420000F20A882321F00E94D82EF701F5CF60E052
:1042100070E087E796E00E94907C8091730F28E51C
:1042200032E06901C81AD10887FDD394CC0CDD1C9B
:10423000CC0CDD1C0D2C000CEE08FF088091720FD9
:1042400028E830E04901881A910887FD9394880C8A
:10425000991C880C991C092C000CAA08BB08809199
:10426000710F8F3FB9F090E0FC01EE0FFF1F8E0F32
:104270009F1FFC01EC5FF04F01811281E3E0000F12
:10428000111FEA95E1F7F4E016950795FA95E1F725
:104290000E5F1F4F98012F5F3F4FC901330FAA0BCD
:1042A000BB0B9C01AD01281939094A095B09A4EB34
:1042B000B0E00E9483B3A7019601281939094A0981
:1042C0005B090E9467B3B90184E796E00E94907C85
:1042D0008AE00E94D82EF2C6E6EEF1E284918F01C8
:1042E0000F5F1F4F882321F00E94D82EF801F6CFD0
:1042F000B6018DE696E00E94907CEEE5F6E08491B2
:104300008F010F5F1F4F882309F4D8C60E94D82E53
:10431000F801F5CF8AE50E945D3281110C94872A5D
:1043200083E50E945D3281110C94872AC7C685E41B
:104330000E945D32811110C080E50E9416328823F0
:1043400091F00E94E33160932310709324108093C6
:1043500025109093261007C00E94C331823060F36D
:10436000E6EEF1E26EC089E40E941632882381F005
:104370000E94E3312CEA35EC47E25EE30E949EAFF7
:1043800060931F107093201080932110909322103F
:1043900084E40E941632882381F00E94E3312CEAE3
:1043A00035EC47E25EE30E947FB460932710709380
:1043B00028108093291090932A10E0EEF1E2849166
:1043C0008F010F5F1F4F882321F00E94D82EF80124
:1043D000F6CF4091231050912410609125107091D8
:1043E000261087E896E00E94737C2CEA35EC47E2C1
:1043F0005EE360911F1070912010809121109091C8
:1044000022100E947FB4AB01BC0183E896E00E94B9
:10441000737C2CEA35EC47E25EE3609127107091E3
:1044200028108091291090912A100E949EAFAB0114
:10443000BC018FE796E00E94737C8AE00E94D82E30
:104440003DC684918F010F5F1F4F882321F00E948A
:10445000D82EF801F6CFEBE8F6E084918F010F5FDC
:104460001F4F882309F42AC60E94D82EF801F5CFE1
:1044700083E50E941632182F882371F00E94E331E1
:104480000E94E7B470932B0260932A0221E0672B0D
:1044900009F020E02093BE0680E50E9416328823B2
:1044A00059F020912A0230912B02232B11F00E9407
:1044B000D4318093BE0602C6111100C6E0EEF1E2CF
:1044C00084918F010F5F1F4F882321F00E94D82E07
:1044D000F801F6CF8091BE06811103C061E173E05F
:1044E00002C064E073E082EB96E00E94A97C6091D8
:1044F0002A0270912B0281EA96E00E94907CEDE9FD
:10450000F6E084918F010F5F1F4F882309F4D6C511
:104510000E94D82EF801F5CF85E40E945D328823F1
:1045200021F00E94B3318B0102C000E010E083E46F
:104530000E945D32882331F00E94B33165966FAFDF
:10454000659704C035E065963FAF659785E50E94A5
:104550005D32882319F00E94D43103C085E50E94A2
:104560001632A1968FAFA19717FD07C0812C912C11
:1045700066E1A62E63E4B62E06C0812C912C5CE881
:10458000A52E52E4B52E83E50E945D32882321F0EA
:104590000E94E3314B015C010230110510F40093DD
:1045A000F4060E94F2682B013C01023068F0E0E85A
:1045B000F8E084918F010F5F1F4F882309F47EC5B7
:1045C0000E94D82EF801F5CFEAEAF8E084916F0155
:1045D0004FEFC41AD40A882321F00E94D82EF60186
:1045E000F5CF0AAFC501B4010E94E7B4072E000C55
:1045F000880B990B0E943FAF6AA77EA78AAB9EAB40
:10460000C301B2016058774C8E4F9F4FAD966CAF8F
:104610007DAF8EAF9FAFAD970E94DE6D602F000F14
:10462000770BFB01E152F94F8FE7808381E08093A4
:1046300002026C964CAE5DAE6EAE7FAE6C97A596E8
:104640004CAE5DAE6EAE7FAEA59768961FAE689716
:10465000A9961CAE1DAE1EAE1FAEA99723961FAE27
:10466000239780E424968FAF24979CE125969FAFF3
:104670002597A6E42696AFAF269727961FAE2797D5
:1046800028961FAE289729961FAE29972A961FAE07
:104690002A9762961CAE1DAE1EAE1FAE62972E9676
:1046A0001CAE1DAE1EAE1FAE2E97C12CD12C7601B6
:1046B0002FE730E040E050E02EA33FA348A759A7E2
:1046C0003FE7832E912CA12CB12CA0961CAE1DAEE1
:1046D0001EAE1FAEA09731E067963FAF67971FAE43
:1046E0001EAE10E0212C312C00E0660F771F660F04
:1046F000771FAB014851594F64965FAF4EAF649737
:10470000AF96FFAFEEAFAF9765966FAD6597062E8C
:10471000000C770B66967FAF6EAF669780910202B2
:10472000882309F4F6C00E94F2686AA37BA38CA3D5
:104730009DA38091D606882309F4CFC00E94B56E50
:104740006496AEADBFAD64971C9111962C901197F5
:1047500012963C90129713960C91212F322D432DD7
:10476000502F27966FAD279728967FAD28972996CB
:104770008FAD29972A969FAD2A970E9439AF87FF60
:104780000CC027961FAF279728962FAE28972996FB
:104790003FAE29972A960FAF2A97212F322D432D0E
:1047A000502F23966FAD239724967FAD249725969F
:1047B0008FAD259726969FAD26970E94C9B51816EE
:1047C00064F423961FAF239724962FAE2497259643
:1047D0003FAE259726960FAF26976796BFAD679792
:1047E0002AA53EA54AA95EA9612F722D832D902F7F
:1047F000BB2309F458C00E94C9B518160CF06DC04F
:104800002AA13BA14CA15DA12419350946095709EC
:10481000E3962CAF3DAF4EAF5FAFE397DA01C9012E
:1048200088589341A109B109B7FD57C0D501C4010A
:104830004EA15FA168A579A5841B950BA60BB70BAC
:10484000B595A79597958795AF96EEADFFADAF97C8
:104850008083E3962CAD3DAD4EAD5FADE397A09662
:104860002CAF3DAF4EAF5FAFA0973AA527963FAFB5
:1048700027974EA528964FAF28975AA929965FAF3C
:1048800029976EA92A966FAF2A978AA19BA1ACA1FE
:10489000BDA16C968CAF9DAFAEAFBFAF6C97679666
:1048A0001FAE67971AC00E9439AF87FF16C08AA152
:1048B0009BA1ACA1BDA16C962CAD3DAD4EAD5FAD45
:1048C0006C97821B930BA40BB50BAC01BD01485830
:1048D00053416109710977FF52C620E030E040EA98
:1048E00051E46AA57EA58AA99EA90E94A3B39B0153
:1048F000AC01612F722D832D902F0E94C9B518161F
:104900007CF4ECE0F8E084918F010F5F1F4F811180
:1049100003C00E94DE6DD2C30E94D82EF801F3CFEF
:104920008AA19BA1ACA1BDA1A5962CAD3DAD4EAD7C
:104930005FADA597821B930BA40BB50BB7FDA7C06A
:104940000E941B6A8AE00E94D82E4AA15BA16CA13A
:104950007DA14053584F6F4F7F4FA5964CAF5DAF31
:104960006EAF7FAFA59768965FAD6897511169C02C
:10497000A9962CAD3DAD4EAD5FADA997612F722DBF
:10498000832D902F0E94C9B51816DCF520E030E089
:1049900040E050E4612F722D832D902F0E94A3B32D
:1049A000A9966CAF7DAF8EAF9FAFA9976AA17BA18F
:1049B0008CA19DA16058774C8E4F9F4FAD966CAFE8
:1049C0007DAF8EAF9FAFAD9720E030E040EE50E47A
:1049D0006AA57EA58AA99EA90E94A2B39B01AC01EB
:1049E00071E068967FAF6897612F722D832D902FAD
:1049F0000E94C9B518160CF44AC068961FAE689795
:104A000046C08AA19BA1ACA1BDA1AD962CAD3DAD88
:104A10004EAD5FADAD97821B930BA40BB50BB7FDED
:104A200036C03AAD3F3F29F0313031F048EE57E023
:104A300005C046EC57E002C04AEF57E069ED77E069
:104A400023C020E030E040EA51E46AA57EA58AA9AF
:104A50009EA90E94A2B39B01AC01612F722D832DF0
:104A6000902F0E9439AF87FF12C04AAD4F3F29F007
:104A7000413031F040EA57E005C04CE757E002C052
:104A800043EB57E060E977E08AAD0E94629F8AA11C
:104A90009BA1ACA1BDA1880F991FAA1FBB1F6C963B
:104AA0002CAD3DAD4EAD5FAD6C97821B930BA40B4F
:104AB000B50B84199509A609B70981389F44A2410D
:104AC000B10568F0EEE5F7E084918F010F5F1F4FAD
:104AD000882309F41ECF0E94D82EF801F5CF4EADE1
:104AE0005FAD66966EAD7FAD6697641775070CF087
:104AF00015CEE1E0F7E084918F010F5F1F4F88230F
:104B000021F00E94D82EF801F6CFB701A6018DEE54
:104B100096E00E94737C8AE00E94D82E2E964CADBF
:104B20005DAD6EAD7FAD2E9789ED96E00E94737CF2
:104B30008AE00E94D82E62964CAD5DAD6EAD7FAD21
:104B4000629785EC96E00E94737C8AE00E94D82EE2
:104B5000A1967FADA197772309F4B0C2C09223102C
:104B6000D0922410E0922510F09226102CEA35EC19
:104B700047E25EE32E966CAD7DAD8EAD9FAD2E9778
:104B80000E949EAF60931F1070932010809321109D
:104B9000909322102CEA35EC47E25EE362966CAD0E
:104BA0007DAD8EAD9FAD62970E947FB4609327105C
:104BB000709328108093291090932A107FC28491BB
:104BC0008F010F5F1F4F882321F00E94D82EF8011C
:104BD000F6CFEEEBF8E084918F010F5F1F4F882333
:104BE00009F46CC20E94D82EF801F5CF0E94A96585
:104BF00065C283E50E941632882349F00E94D431B1
:104C0000082F811106C080E00E94245002C000914C
:104C10007F068091890E90918A0EA0918B0EB091A3
:104C20008C0E89839A83AB83BC8380918D0E909187
:104C30008E0EA0918F0EB091900E8D839E83AF83C8
:104C4000B8878091910E9091920EA091930EB091A1
:104C5000940E89879A87AB87BC870E94F44F88237C
:104C600071F183E40E9416328111F3C528C09301CB
:104C70004EA15AA5682D7D2D8EA59AA90E94A3B399
:104C800020E030E040E05FE30E949EAFA20191018E
:104C90000E94A3B34B015C012DEB37E346E855EBD3
:104CA0000E94C9B587FD24C62DEB37E346E855E3DE
:104CB000C501B4010E9439AF18160CF419C686E577
:104CC0000E941632882399F00E94F44F882379F0CD
:104CD000EAEFF8E084917F01BFEFEB1AFB0A88232B
:104CE00021F00E94D82EF701F5CF0E946AA9802FEB
:104CF0000E942450011103C0E0EEF1E210C0809147
:104D00007F068111F9CFEBEDF8E084918F010F5F01
:104D10001F4F882389F30E94D82EF801F6CF849183
:104D20008F010F5F1F4F882321F00E94D82EF801BA
:104D3000F6CF80917F06811103C06EEF72E002C052
:104D40006AEF72E08DEC98E00E94A97C8AE00E94F4
:104D5000D82E4CE050E069E87EE0CE0101960E943A
:104D6000A0B6892B09F4AAC10E94434AA7C188E5CD
:104D70000E941632B82E89E40E941632A82E88238B
:104D800019F00E94B3311AC0BB20D1F00E94E33168
:104D900020E030E040E251E40E94A2B320E030E0A5
:104DA0004EEB52E40E94A3B322E936E74CEA5BE300
:104DB0000E949EAF0E94E7B4633010F4F62E02C04A
:104DC000FF24FA9489E50E941632E82E8AE40E94B4
:104DD0001632182F882319F00E94B3311AC0EE2022
:104DE000D1F00E94E33120E030E040E251E40E9443
:104DF000A2B320E030E04BEB52E40E94A3B32EEDCF
:104E00003AE34FEA5BE30E949EAF0E94E7B463304F
:104E100010F4062F01C00FEF8AE50E941632C82E4B
:104E2000811105C081E50E941632D82E01C0D12C17
:104E3000A11001C010E0212F30E0B11002C090E0BD
:104E400001C09E2D290F311D2130310519F0E6EEEC
:104E5000F1E205C0C11018C0D11016C0F8CF84917E
:104E60008F010F5F1F4F882319F0A2D7F801F7CFEA
:104E7000EFE2F9E084918F010F5F1F4F882309F45F
:104E80001DC196D7F801F6CFF7FE03C0E6EEF1E2BA
:104E900005C007FF15C0FACF8BD7F80184918F01A9
:104EA0000F5F1F4F8111F8CFE0E1F9E084918F018E
:104EB0000F5F1F4F882309F401C17AD7F801F6CF9D
:104EC0000E94E331A02F000FBB0B0F2DFF0C110B25
:104ED000DD2091F0F801EE0FFF1FE00FF11FEA0F48
:104EE000FB1FEE0FFF1FEE0FFF1FEE50F24F208152
:104EF00031814281538103C020E030E0A901F801F3
:104F0000EE0FFF1F0E0F1F1F0A0F1B1F000F111F99
:104F1000000F111F0E50124F0E94A3B3F8016083BF
:104F2000718382839383CAC00E94A274C7C00E9407
:104F30006B84C4C083E50E941632882319F00E9456
:104F4000D43181270E94DB7FB9C081E080931607AE
:104F50000E94056F10921607882309F4AFC0E0EE97
:104F6000F1E284918F010F5F1F4F882319F020D742
:104F7000F801F7CFEFE4F9E084918F010F5F1F4F45
:104F8000882309F49BC014D7F801F6CF8BE40E9464
:104F90005D328823A9F18BE40E945D328823B1F051
:104FA0000E94E3316B017C0120E030E0A9010E9406
:104FB000C9B587FD19C020E030E040E251E4C701E7
:104FC000B6010E9439AF18167CF003C0C12CD12C59
:104FD00076010E94A965C0929006D0929106E09257
:104FE0009206F09293066AC0EAE5F9E084918F0197
:104FF0000F5F1F4F882309F461C0DAD6F801F6CF9E
:10500000E0EEF1E284918F010F5F1F4F882319F0CA
:10501000CFD6F801F7CF409190065091910660915C
:1050200092067091930689E799E00E94737C8AE06A
:10503000BFD644C081E08093530283E50E945D3275
:10504000882339F00E94D431811138C00E94C79D55
:1050500035C083E50E941632F7CF0E94C2952EC05C
:105060000091E60480910310081769F083E50E941F
:105070005D32882319F00E94D43103C083E50E9479
:105080001632182F01C011E086E40E945D32882399
:1050900019F00E94E33103C060E070E0CB0120E032
:1050A00030E040E752E40E947FB4AB01BC01212F05
:1050B000802F0E94945102C00E94C2951092170E38
:1050C000E0916B06F0E0EE53FB4F8081882309F4FA
:1050D00052C40E94CA8C4FC40E94744E0E94109AFF
:1050E000EDCF60910002709101026A30710514F0F9
:1050F00069E070E084E092E00E94907C69E070E0FA
:105100008FEF91E00E94907C8AE052D60C94481672
:105110000E94E3310E94E7B4663971050CF06CC15E
:105120007093E7066093E6060E943D6D0E94E331AE
:1051300020E030E040EA50E40E94C9B5181614F4AB
:105140000E94D17C81E080930202809103108093C1
:10515000F4061EA21FA218A619A622961CAE1DAE0A
:105160001EAE1FAE22971AA223961FAE23975CE3B2
:1051700024965FAF24976CE125966FAF259776E470
:1051800026967FAF2697C12CD12C30E8E32E4FEB2B
:10519000F42E812C912C54016091E6067091E70663
:1051A000072E000C880B990B0E943FAF162F072F7C
:1051B000782E692E262F372F482F592FB601C70179
:1051C0000E9439AF8823D9F02091E2063091E3069E
:1051D0004091E4065091E506612F702F872D962DA2
:1051E0000E9439AF881F8827881F8AA38AAD882329
:1051F00051F09AA1992339F0809102025FCF1C2DC2
:105200000D2D7E2C6F2C0E94F2686B017C01DC015D
:10521000CB0122962CAD3DAD4EAD5FAD2297821BEA
:10522000930BA40BB50BB7FD39C0B701A6014851CC
:105230005C4F6F4F7F4F22964CAF5DAF6EAF7FAF2D
:1052400022970E941B6AEAE8F3E084912F015FEF46
:10525000451A550A882319F0ABD5F201F6CF81140F
:105260009104A104B104B1F0D501C4018053984F59
:10527000AF4FBF4FBC01CD016C197D098E099F094D
:1052800028EE33E040E050E00E9445B3CA01B90186
:10529000B5D702C08FE38CD58AE08AD50E94098EEB
:1052A0000E94F2686093180E7093190E80931A0E84
:1052B00090931B0E6091E2066AA77091E3067EA7A9
:1052C0008091E4068AAB9091E5069EAB9B01AC0110
:1052D000612F702F872D962D0E94A2B31B012C01E8
:1052E00020E030E0A9010E94C9B587FF04C057FA49
:1052F000509457F8509481149104A104B10459F4C6
:1053000020E030E040E85FE3C201B1010E9439AF24
:1053100087FF0DC00AC020E030E040E450E4C20145
:10532000B1010E94C9B5181614F446015701AAA18B
:10533000AA2309F445C02EA13FA148A559A52115CE
:1053400031054105510541F0D701C601821B930B80
:10535000A40BB50BB7FD34C02AA53EA54AA95EA98A
:1053600023966FAD239724967FAD249725968FAD16
:10537000259726969FAD26970E94A2B320E030E0A5
:1053800040EC5FE30E9439AF87FD36CFB701A6013D
:10539000405A55416F4F7F4F4EA35FA368A779A72F
:1053A0005AA523965FAF23976EA524966FAF2497D7
:1053B0007AA925967FAF25978EA926968FAF269737
:1053C00080910202882309F417CF81149104A1046B
:1053D000B10429F4C12ED02EE72CF62CDDCE90EDB1
:1053E000C91A97E0D90AE108F108C818D908EA08EB
:1053F000FB08F7FE01CFEECF66E970E091CE88E5BD
:105400000E945D32882309F455C00091F40610E033
:10541000DAD7000F111F000F111FF801EA52F24FE7
:10542000608371838283938310E089E50E945D32FB
:10543000882381F00091F40610E0C5D7000F111FFA
:10544000000F111FF801E252F24F608371838283D3
:10545000938310E08AE50E945D32882381F00091F9
:10546000F40610E0B0D7000F111F000F111FF80154
:10547000EA51F24F60837183828393831FCE11239D
:1054800009F41CCEE0EEF1E284918F010F5F1F4F13
:10549000882319F08DD4F801F7CFE0E1F6E084918C
:1054A0008F010F5F1F4F882311F40C94241B80D4AD
:1054B000F801F5CF11E0B9CF0E94C7A3FFCD0E943C
:1054C000A965BC2C60E08C2D0E9480670F3FBFEF68
:1054D0001B0759F48C2D0E94815431E020E0892B68
:1054E00009F030E0032F122F05C00130110561F0E3
:1054F00000E010E08B2D0E9481548017910709F481
:10550000DDCD0E94098EF6CF01E010E0F3CF5BD72E
:1055100020E030E040E050EC0E9439AF87FD10C041
:1055200052D720E030E040E050E40E94C9B51816A0
:1055300014F049D709C060E070E080E090E404C056
:1055400060E070E080E090EC2091790E30917A0E6E
:1055500040917B0E50917C0EE091B504E2FFAECD00
:105560000091DD061091DE060E949EAF0E94E7B416
:10557000600F711F7093DE066093DD069FCD4EAD08
:105580005FAD452B09F435C1A0964CAC5DAC6EAC5B
:105590007FACA097480E591E6A1E7B1EA0962CADAC
:1055A0003DAD4EAD5FADA097281B390B4A0B5B0B91
:1055B000CA01B9012EA13FA148A559A50E9436B341
:1055C000A30192010E9467B3D501C401820F931F0A
:1055D000A41FB51F84319105A105B105FCF04C0154
:1055E0005D018C3E9105A105B1052CF0ABEE8A2E34
:1055F000912CA12CB12C40E884169104A104B10493
:10560000DCF06EEF70E080E090E0681979098A09BB
:105610009B096EA37FA388A799A712C0F4E18F2EE0
:10562000912CA12CB12C84E190E0A0E0B0E08EA3FD
:105630009FA3A8A7B9A704C08EA29FA2A8A6B9A697
:10564000B501A40188E798E00E9443A94EA15FA19B
:1056500068A579A583E798E00E9443A923964FADFA
:10566000239724965FAD249725966FAD25972696B0
:105670007FAD26978CE698E00E94737C27964FAD0D
:10568000279728965FAD289729966FAD29972A9678
:105690007FAD2A9785E698E00E94737CAEADBFADE2
:1056A00013970CF4A6C06EA17FA188A599A50E94AE
:1056B0003FAF20E030E040E850E40E949EAF6B0135
:1056C0007C0123962FAD239724963FAD24972596F2
:1056D0004FAD259726965FAD269727966FAD2797F6
:1056E00028967FAD289729968FAD29972A969FAD4A
:1056F0002A970E94A2B32BED3FE049E450E40E94B8
:105700009EAF20E030E040E05FE30E949EAF9B014F
:10571000AC01C701B6010E947FB46B017C01C301DB
:10572000B2010E943FAF2FE632E143E85AE30E9404
:105730009EAF2B013C01B701A6018FE598E00E94C6
:10574000737CB301A20189E598E00E94737C2AE989
:1057500039E949E15FE3C701B6010E949EAF6B01E1
:105760007C019B01AC010E94A3B3A30192010E94A2
:105770007FB42E966CAF7DAF8EAF9FAF2E97A301F7
:105780009201C701B6010E949EAF20E030E040E0E8
:105790005EE30E949EAF62966CAF7DAF8EAF9FAF0F
:1057A0006297E9E4F8E084913F01BFEF6B1A7B0A4E
:1057B000882319F0FDD2F301F6CFB701A60183E4E7
:1057C00098E00E94737C2E964CAD5DAD6EAD7FADC2
:1057D0002E978DE398E00E94737C62964CAD5DAD90
:1057E0006EAD7FAD629787E398E00E94737C8AE09C
:1057F000DFD28EA19FA1A8A5B9A5880D991DAA1DCC
:10580000BB1DB595A79597958795AF96EEADFFAD66
:10581000AF9780832EAD3FAD2F5F3F4F3FAF2EAF91
:105820003AA523963FAF23974EA524964FAF2497D2
:105830005AA925965FAF25976EA926966FAF269732
:105840004AA05BA06CA07DA071E067967FAF6797D0
:1058500044C8B9D51B012C0113E0612C712CE8EC74
:10586000EEA3F2ECFAA7812CD12C28EC2EA732E47F
:105870003AAB115008F4FBC9A3E0AAA3812F90E032
:105880007C01EE0CFF1CE80EF91E9AA191509AA320
:105890009F3F79F3F7018AA1E80FF11DEE0FFF1F7B
:1058A000EE0FFF1FEE50F24F9080A180B280C380B8
:1058B000292D3A2D4B2D5C2D682D7D2D8EA59AA975
:1058C0000E94C9B5181624F4892CDA2CBEA6CAAADF
:1058D000292D3A2D4B2D5C2DB3018EA19AA50E9446
:1058E00039AF87FFD2CF692C7A2CBEA2CAA6CDCF02
:1058F00080E00E94245013E04CE0D42E115008F4B4
:10590000DEC9D19EC0011124FC01EE50F24F7F018F
:10591000A501940160857185828593850E94A2B35B
:10592000D70118966D937D938D939C931B97A5013A
:10593000940114966D917D918D919C9117970E9481
:10594000A2B3F7016483758386839783A5019401CD
:1059500060817181828193810E94A2B3D7016D938E
:105960007D938D939C931397C9CFE1100C9473167C
:10597000ECD50C948616CE58DF4F0FB6F894DEBFE8
:105980000FBECDBFDF91CF911F910F91FF90EF9090
:10599000DF90CF90BF90AF909F908F907F906F904F
:1059A0005F904F903F902F900895809101109091BB
:1059B0000210891759F0E92FF0E0EF57F04F80817E
:1059C0009F5F9F779093021090E008958FEF9FEF75
:1059D0000895CF92DF92EF92FF92CF93DF936B0106
:1059E0007C01EA012CE032E048EC51EC0E94C9B5A0
:1059F00087FD23C021E230E048EC53E4C701B60143
:105A00000E9439AF1816CCF0C880D980EA80FB809C
:105A100026E031E040E252ECC701B6010E94C9B570
:105A200087FD0BC0C1E021E230E845EC53E4C7013B
:105A3000B6010E9439AF18160CF4C0E08C2FDF912C
:105A4000CF91FF90EF90DF90CF900895FF920F934A
:105A50001F93CF93DF93FC0120812B3319F1D09159
:105A60006C06D430F8F4F62EBC01C091BD030C2FA7
:105A700010E0F0E6CF9FC001112486519B4F0E9499
:105A8000C1B6F801EE53FB4FF082CF5FC43018F47B
:105A9000C093BD0302C01092BD03DF5FD0936C06BC
:105AA00081E001C080E0DF91CF911F910F91FF90C5
:105AB0000895CF92DF92EF92FF92C0904F02D09064
:105AC0005002E0905102F0905202FC0180819181DD
:105AD000A281B38180934F0290935002A093510210
