:100000000C9466100C9497100C9497100C94971005
:100010000C9497100C9497100C9497100C949710C4
:100020000C9497100C9497100C9497100C949710B4
:100030000C9497100C9497100C9497100C949710A4
:100040000C9497100C940F7F0C9497100C949710AD
:100050000C9497100C9497100C947A5B0C94805825
:100060000C9497100C9461390C9497100C94971081
:100070000C9497100C9497100C9497100C94971064
:100080000C9497100C9497100C9497100C94971054
:100090000C9497100C9497100C9497100C94971044
:1000A0000C9497100C9497100C9497100C94971034
:1000B0000C9497100C9497100C9497100C94971024
:1000C0000C9497100C9497100C9497100C94971014
:1000D0000C9497100C9497100C9497100C94971004
:1000E0000C94971098569B568A568E569456D25614
:1000F0009F56A356A956AD56B156B756BB56BF56D6
:10010000D256C556C956CD5665576A576F57795757
:100110008357FC578D5795579D57A757B157BB57D6
:10012000CA57D457FC57DE57E857F257084AD73B0F
:100130003BCE016E84BCBFFDC12F3D6C74319ABDB6
:1001400056833DDA3D00C77F11BED9E4BB4C3E91DA
:100150006BAAAABE000000803F05A84CCDB2D44EC9
:10016000B93836A9020C50B9918688083CA6AAAACB
:100170002ABE000000803F004E414E494E4954596E
:10018000494E46CDCCCC3D0AD7233C17B7D1387762
:10019000CC2B329595E6241FB14F0A000020410078
:1001A00000C84200401C4620BCBE4CCA1B0E5AAEC2
:1001B000C59D74434F4D4D554E49434154494F4E93
:1001C0000044525952554E004552524F5253004925
:1001D0004E464F004543484F0047322F4733206279
:1001E000616420706172616D65746572730A0020CC
:1001F0005A3A200020593A200042656420583A209B
:10020000004D65736820706F696E742063616E6E57
:100210006F74206265207265736F6C7665640A0086
:100220005072696E742074696D653A200000013661
:10023000372603FFFFFF353C3D38FF0FFFFF312E10
:10024000303EFF13FFFFFF28390C0809FFFFFF1A9C
:100250001C18FFFF2A08440AFF4346696C616D655C
:100260006E7420757365643A200053746174733A38
:1002700020002C204C6F6E67657374206A6F623AA1
:100280002000546F74616C2074696D653A200053CE
:10029000746174733A20002C204661696C65643A7D
:1002A00020002C2046696E69736865643A2000500E
:1002B00072696E74733A200053746174733A20004B
:1002C000D401CF01C801C101B3016F666600444586
:1002D0004255473A004B494C4C45442E20004D3185
:1002E00031332053006F6B0020573A0020573A00FB
:1002F000544845524D414C5F50524F544543544928
:100300004F4E004155544F5245504F52545F534445
:100310005F53544154555300454D455247454E4354
:10032000595F50415253455200434153455F4C4938
:100330004748545F4252494748544E45535300542E
:100340004F47474C455F4C494748545300534F462D
:1003500054574152455F504F574552004255494C02
:10036000445F50455243454E54004C4556454C4918
:100370004E475F44415441005A5F50524F4245003E
:100380004155544F4C4556454C005052494E545FD0
:100390004A4F420050524F47524553530041555423
:1003A0004F5245504F52545F54454D5000564F4C9C
:1003B000554D455452494300454550524F4D005309
:1003C000455249414C5F584F4E5F584F4646004694
:1003D00049524D574152455F4E414D453A4D61722C
:1003E0006C696E204A313850545F313930333238BD
:1003F0005F313331315F484120534F555243455FA0
:10040000434F44455F55524C3A68747470733A2FA9
:100410002F6769746875622E636F6D2F61686172F2
:10042000736861632F46574A756C696132303138A1
:100430004D61726C696E2050524F544F434F4C5F68
:1004400056455253494F4E3A312E30204D41434884
:10045000494E455F545950453A4A756C6961205080
:10046000726F2053696E676C652041424C2045587D
:100470005452554445525F434F554E543A312055DE
:100480005549443A32663965376532322D35383947
:10049000622D346563392D626666352D31326637DB
:1004A00066366433393938630A002F2F20007A5FAB
:1004B00070726F62653A20007A5F6D61783A200051
:1004C000795F6D61783A2000785F6D696E3A20003F
:1004D0005265706F7274696E6720656E6473746FB5
:1004E00070207374617475730A00205400205200E8
:1004F000416363656C65726174696F6E3A20500088
:100500005741524E494E4721204C6F77205A204A7E
:1005100065726B206D6179206C65616420746F2059
:10052000756E77616E746564207061757365732E86
:100530000A0043290A0061626C656420286D696EB7
:100540002074656D702000436F6C64206578747250
:100550007564657320617265200023646566696E49
:10056000652044454641554C545F4B64200023644C
:100570006566696E652044454641554C545F4B693C
:10058000200023646566696E652044454641554CEC
:10059000545F4B702000504944204175746F74754E
:1005A0006E652066696E6973686564212050757494
:1005B00020746865206C617374204B702C204B692B
:1005C00020616E64204B6420636F6E7374616E747F
:1005D000732066726F6D2062656C6F7720696E7430
:1005E0006F20436F6E66696775726174696F6E2EF6
:1005F000680A00504944204175746F74756E652017
:100600006661696C6564212074696D656F75740A33
:1006100000453120544845524D414C2052554E41E1
:1006200057415900546865726D616C2052756E6156
:100630007761790045312048656174696E6720668D
:1006400061696C65640048656174696E6720666104
:10065000696C656400504944204175746F74756E0F
:1006600065206661696C6564212054656D706572F2
:10067000617475726520746F6F20686967680A001D
:10068000204B643A2000204B693A2000204B703AFE
:1006900020000A20436C6173736963205049442031
:1006A0000A002054753A2000204B753A2000206D36
:1006B00061783A2000206D696E3A200020643A206B
:1006C0000020626961733A200050494420417574EA
:1006D0006F74756E65206661696C65642120426186
:1006E00064206578747275646572206E756D6265DC
:1006F000720A00504944204175746F74756E65200C
:1007000073746172740A004E6F2063617365206CAC
:10071000696768740A00426564204C6576656C6997
:100720006E6720004661696C656420746F20656E99
:1007300061626C6520426564204C6576656C696E0B
:10074000670A004D65736820706F696E742063617D
:100750006E6E6F74206265207265736F6C7665646F
:100760000A004D34323120696E636F7272656374B2
:1007700020706172616D6574657220757361676563
:100780000A00454550524F4D204F4B0A003A200079
:1007900050726F6265205A204F6666736574003F21
:1007A0005A206F7574206F662072616E676520280D
:1007B0002D323020746F203230290A004163746971
:1007C00076652045787472756465723A2000496ECA
:1007D00076616C69642065787472756465720A006C
:1007E0002569730025696D202569730025696820D6
:1007F00025696D20256973002569642025696820B5
:1008000025696D2025697300256979202569642093
:100810002569682025696D2025697300656E7175ED
:10082000657565696E672022004C696E65204E759E
:100830006D626572206973206E6F74204C617374F1
:10084000204C696E65204E756D6265722B312C20CF
:100850004C617374204C696E653A20004B494C4CD6
:1008600045442E20005072696E7465722073746F57
:10087000707065642064756520746F206572726F96
:1008800072732E2046697820746865206572726FD5
:100890007220616E6420757365204D39393920747A
:1008A0006F20726573746172742E202854656D70A8
:1008B0006572617475726520697320726573657401
:1008C0002E205365742069742061667465722072ED
:1008D000657374617274696E67290A004E6F2043F4
:1008E0006865636B73756D2077697468206C696ED9
:1008F00065206E756D6265722C204C617374204C9E
:10090000696E653A2000636865636B73756D206D71
:1009100069736D617463682C204C617374204C6939
:100920006E653A20004D3131300020496E76616CA1
:100930006964206578747275646572200000000037
:100940000000000000000000000000C8430000C8D4
:10095000430000C84342696C696E656172204C6552
:1009600076656C696E6720477269643A0A00486F61
:100970006D696E67206661696C65640024F4D4302B
:1009800050C38E20C2A24017828B7011127A910D33
:10099000816CD90AA861E108C7586607615143060E
:1009A0001E4B5D05C145A7041A411104093D98037A
:1009B000713931034036DB0265339102D430540281
:1009C000802E1D02632CEE01752AC501B028A001FE
:1009D000102781018F2564012B244B01E022340173
:1009E000AC211F018D200D01801FFC00841EED0035
:1009F000971DDF00B81CD200E61BC600201BBC0000
:100A0000641AB200B219A8000A19A0006A18990065
:100A1000D117910040178B00B516840031167E0067
:100A2000B31579003A157300C7146F0058146A00A3
:100A3000EE1366008813630025135E00C7125B0087
:100A40006C12570015125400C111510070114F0063
:100A500021114B00D61049008D104700461044006C
:100A600002104200C00F4000800F3E00420F3C00C9
:100A7000060F3B00CB0E3800930E37005C0E35009E
:100A8000270E3400F30D3200C10D3100900D3000FF
:100A9000600D2E00320D2D00050D2C00D90C2B0001
:100AA000AE0C2900850C29005C0C2700350C2700B2
:100AB0000E0C2600E80B2400C40B2400A00B23001E
:100AC0007D0B23005A0B2100390B2100180B20004D
:100AD000F80A1F00D90A1E00BB0A1E009D0A1D004D
:100AE000800A1D00630A1C00470A1B002C0A1B0019
:100AF000110A1A00F7091A00DD091900C4091900C2
:100B0000AB091900920917007B0918006309170047
:100B10004C09160036091600200916000A091500AE
:100B2000F5081500E0081400CC081400B8081400FB
:100B3000A4081400900813007D0812006B0813002D
:100B4000580812004608120034081100230811004A
:100B50001208110001081100F0071000E007100052
:100B6000D0071000C0071000B0070F00A107100049
:100B700091070E0083070F0074070F0065070E0032
:100B800057070E0049070E003B070D002E070E0009
:100B900020070D0013070D0006070D00F9060C00D5
:100BA000ED060D00E0060C00D4060C00C8060C0093
:100BB000BC060C00B0060C00A4060B0099060C0045
:100BC0008D060B0082060B0077060B006C060B00EF
:100BD00061060A0057060B004C060A0042060A008E
:100BE00038060A002E060A0024060A001A060A0021
:100BF0001006090007060A00FD050900F4050900B2
:100C0000EB050900E2050900D9050900D005090036
:100C1000C7050900BE050900B5050800AD050800B7
:100C2000A50509009C050800940508008C0508002E
:100C3000840508007C050800740508006C050700A1
:100C4000650508005D050700560508004E0507000C
:100C50004705070040050800380507003105070073
:100C60002A050700230507001C05060016050700D6
:100C70000F0507000805060002050700FB04060033
:100C8000F5040700EE040600E8040600E20407008D
:100C9000DB040600D5040600CF040600C9040600E4
:100CA000C3040600BD040600B7040600B104050035
:100CB000AC040600A6040600A00405009B04060080
:100CC00095040500900406008A04050085040500CB
:100CD000800406007A040500750405007004050010
:100CE0006B04050066040500610405005C04050052
:100CF00057040500520405004D0405004804050092
:100D0000430405003E0404003A04050035040500D0
:100D1000300404002C04050027040400230405000B
:100D20001E0404001A040400160405001104040043
:100D30000D04040009040500040404000004040078
:100D4000FC030400F8030400F4030400F0030400AF
:100D5000EC030400E8030400E4030400E0030400DF
:100D6000DC030400D8030400D4030400D00304000F
:100D7000CC030400C8030300C503030024F404D912
:100D8000201BC40C5C0E9804C4095F026507710146
:100D9000F405F900FB04B30048048700C1036900AF
:100DA0005803550003034500BE023A008402310097
:100DB00053022A002902250004022000E4011C003D
:100DC000C8011900AF011700980114008401130035
:100DD000710110006101100051010E0043010D006E
:100DE00036010B002B010B0020010B00150109003F
:100DF0000C01090003010800FB000800F3000800D3
:100E0000EB000700E4000600DE000600D800060044
:100E1000D2000600CC000500C7000500C200050096
:100E2000BD000400B9000400B5000400B1000400D6
:100E3000AD000400A9000400A5000300A200030007
:100E40009F0004009B00030098000300950002002F
:100E500093000300900003008D0002008B0003004C
:100E60008800020086000200840003008100020066
:100E70007F0002007D0002007B000200790002007A
:100E80007700010076000200740002007200010089
:100E9000710002006F0002006D0001006C00020092
:100EA0006A0001006900020067000100660001009D
:100EB00065000100640002006200010061000100A1
:100EC000600001005F0002005D0001005C000100A5
:100ED0005B0001005A0001005900010058000100A8
:100EE00057000100560001005500010054000100A8
:100EF00053000000530001005200010051000100A6
:100F0000500001004F0001004E0000004E000100A3
:100F10004D0001004C0001004B0000004B0001009F
:100F20004A0001004900010048000000480001009B
:100F30004700010046000000460001004500000097
:100F4000450001004400010043000000430001008F
:100F50004200000042000100410000004100010089
:100F6000400001003F0000003F0001003E00000083
:100F70003E0001003D0000003D0001003C0000007B
:100F80003C0000003C0001003B0000003B00010071
:100F90003A0000003A000100390000003900010069
:100FA0003800000038000000380001003700000061
:100FB0003700010036000000360000003600010056
:100FC000350000003500000035000100340000004D
:100FD0003400000034000100330000003300000042
:100FE0003300010032000000320000003200010036
:100FF000310000003100000031000100300000002D
:1010000030000000300001002F0000002F00000021
:101010002F0000002F0001002E0000002E00000015
:101020002E0001002D0000002D0000002D0000000A
:101030002D0001002C0000002C0000002C000000FE
:101040002C0001002B0000002B0000002B000000F2
:101050002B0001002A0000002A0000002A000000E6
:101060002A000100290000002900000029000000DA
:1010700029000000290001002800000028000000CD
:1010800028000000280000002800010027000000C0
:1010900027000000270000002700000027000100B3
:1010A00026000000260000002600000026000000A8
:1010B000260001002500000025000000250000009A
:1010C000250000002500000025000100240000008C
:1010D000240000002400000024000000240001007F
:1010E0002300000023000000230000002300000074
:1010F0002300000023000000230001002200000064
:101100002200000022000000220000002200000057
:101110002200010021000000210000002100000049
:10112000210000002100000021000000210001003A
:10113000200000002000000020000000200000002F
:10114000200000002000000020000000200001001E
:101150001F0000001F0000001F0000001F00000013
:101160001F0000001F0000001F0001001E00000003
:101170001E0000001E0000001E00000039300000AC
:101180003325000087190000B00F0000DB080000C5
:10119000BD040000740200003F0100004861726459
:1011A000636F6465642044656661756C7420536583
:1011B0007474696E6773204C6F616465640A002003
:1011C0000300002003000032000000102700000090
:1011D000004843000048430000A0410000344200A2
:1011E00000204300002043F0F77B4400008C433A8A
:1011F0000A0020286D6D290020204D383531205AF5
:10120000005A2D50726F6265204F666673657400D8
:1012100020440020490020204D3330312050005020
:1012200049442073657474696E67733A0A00205AE2
:1012300000204A0020204732392057204900202032
:101240004D3432302053004175746F204265642064
:101250004C6576656C696E673A0A00205A00205921
:101260000020204D323036205800486F6D65206FC9
:1012700066667365743A0A00204500205A002059BA
:101280000020580020540020530020204D323035DB
:1012900020420020453C6D61785F655F6A65726B36
:1012A0003E0020583C6D61785F785F6A65726B3EE6
:1012B00020593C6D61785F795F6A65726B3E205A98
:1012C0003C6D61785F7A5F6A65726B3E004164765F
:1012D000616E6365643A20423C6D696E5F73656759
:1012E0006D656E745F74696D655F75733E20533C08
:1012F0006D696E5F66656564726174653E20543C1D
:101300006D696E5F74726176656C5F666565647247
:101310006174653E0020540020520020204D323080
:1013200034205000416363656C65726174696F6E4F
:101330002028756E6974732F7332293A20503C70DF
:1013400072696E745F616363656C3E20523C7265C6
:1013500074726163745F616363656C3E20543C74B6
:10136000726176656C5F616363656C3E0A0020455F
:1013700000205A0020590020204D323031205800E2
:101380004D6178696D756D20416363656C6572614F
:1013900074696F6E2028756E6974732F7332293AE1
:1013A0000A00204500205A0020590020204D3230EC
:1013B000332058004D6178696D756D2066656564F0
:1013C00072617465732028756E6974732F73293A7E
:1013D0000A00204500205A0020590020204D3932B3
:1013E00020580053746570732070657220756E69A3
:1013F000743A0A0020204D3230302044300A002058
:10140000204D3230302044002044697361626C65A5
:10141000640A0046696C616D656E7420736574744E
:10142000696E67733A002020473231202020203B2C
:1014300000FFFDFCFAF8F6F4F2F0EEECEAE9E7E57D
:10144000E3E1E0DEDCDAD9D7D5D4D2D0CFCDCBCA38
:10145000C8C7C5C3C2C0BFBDBCBAB9B7B6B4B3B2C2
:10146000B0AFADACAAA9A8A6A5A4A2A1A09E9D9C20
:101470009A99989795949392908F8E8D8B8A89885C
:10148000878684838281807F7E7D7B7A7978777678
:101490007574737271706F6E6D6C6B6A6968676674
:1014A0006564636261605F5E5D5C5B5A5958585762
:1014B00056555453525150504F4E4D4C4B4A4A4939
:1014C00048474646454443424241403F3E3E3D3CFC
:1014D0003B3B3A39383837363535343332323130B0
:1014E000302F2E2E2D2C2B2B2A2929282727262555
:1014F0002524232322212120201F1E1E1D1C1C1BEE
:101500001B1A191918181716161515141313121279
:101510001111100F0F0E0E0D0D0C0C0B0A0A0909FC
:101520000808070706060505040403030202010074
:10153000000000000100000001000080005555552A
:10154000000000400033333300AAAA2A0049922445
:101550000000002000C7711C0099991900D145179F
:1015600000555515003BB11300244912001111110B
:1015700000000010000F0F0F00E3380E0043790D3C
:1015800000CCCC0C00C3300C00E8A20B0064210B93
:1015900000AAAA0A00703D0A009DD80900427B09F2
:1015A0000092240900DCD308008888080010420853
:1015B0000000000800F0C10700878707007550078A
:1015C00000711C07003EEB0600A1BC0600699006F6
:1015D0000066660600703E06006118060017F405F6
:1015E0000074D105005BB00500B290050062720581
:1015F000005555050078390500B81E05000505059C
:10160000004EEC040087D40400A1BD040090A704A0
:101610000049920400C17D0400EE690400C756042D
:1016200000444404005C320400082104004110041A
:1016300000000004003FF00300F8E0030026D2039E
:1016400000C3C30300CCB503003AA803000A9B0300
:1016500000388E0300C08103009F750300D069032A
:1016600000505E03001D53030034480300913D0306
:10167000003333030016290300381F0300971503B6
:1016800000300C0300030303000BFA020049F102CF
:1016900000BAE802005CE002002DD802002DD00262
:1016A0000059C80200B0C0020031B90200DAB1022C
:1016B00000AAAA0200A0A30200BC9C0200FA9502A4
:1016C000005C8F0200DF88020082820200457C02FB
:1016D000002776020027700200436A02007C640241
:1016E00000D05E02003F590200C853020020284487
:1016F000525952554E2900473239204175746F2096
:10170000426564204C6576656C696E67003F2028F1
:101710004C2C522C462C4229206F7574206F662069
:10172000626F756E64732E0A003F285629657262D7
:101730006F7365206C6576656C20697320696D70C8
:101740006C61757369626C652028302D34292E0A0E
:1017500000426164205A2076616C75650A004E6F04
:101760002062696C696E65617220677269640A0043
:101770004732380A473239003E204E6F7420686F76
:101780006D65642E20456E7175657565696E67209F
:1017900047323820666F6C6C6F7765642062792001
:1017A0004732390A0050726F746563746564205063
:1017B000696E0A005374616E6461726420446576D8
:1017C000696174696F6E3A20002052616E67653AF4
:1017D0002000204D61783A2000204D696E3A2000AB
:1017E0004D65616E3A200046696E697368656421D3
:1017F0000A002072616E67653A2000206D61783AB8
:101800002000206D696E3A2000207369676D613A8F
:101810002000206D65616E3A20003A207A3A20005F
:10182000206F662000205A00205900205800476F82
:10183000696E6720746F3A00436C6F636B776973EE
:10184000650A00436F756E7465722D0020446972DD
:10185000656374696F6E3A2000202020616E676CAA
:10186000653A20005374617274696E672072616416
:101870006975733A2000506F736974696F6E696E91
:1018800067207468652070726F62652E2E2E0A00C4
:101890003F4E756D626572206F66206C65677320C0
:1018A000696E206D6F76656D656E74206E6F742045
:1018B000706C61757369626C652028302D31352933
:1018C0002E0A003F2028582C5929206F7574206F4C
:1018D0006620626F756E64732E0A003F53616D70EF
:1018E0006C652073697A65206E6F7420706C617509
:1018F0007369626C652028342D3530292E0A004D1D
:101900003438205A2D50726F6265205265706561BF
:10191000746162696C69747920546573740A003F5C
:101920002856296572626F7365206C6576656C2038
:10193000697320696D706C61757369626C652028CC
:10194000302D34292E0A004265642068656174696F
:101950006E67206661696C65640048656174696ED4
:1019600067206661696C6564004531204865617473
:10197000696E67206661696C6564004865617469B9
:101980006E67206661696C65640010006003500139
:101990002C0190012201D001180110020E017002E9
:1019A0000401E002FA006003F0000004E600B00465
:1019B000DC00A005D200B006C8000008BE00A009E7
:1019C000B400800BAA00D00DA00090109600C013A8
:1019D0008C0070178200901B780010206E00C024CD
:1019E0006400E02D500080353C00A03A2800A03D66
:1019F0001400003F0000A03FECFF4531204572720B
:101A00003A204D415854454D50004572723A204D90
:101A1000415854454D5020424544004D415854458D
:101A20004D502074726967676572656400453120A6
:101A30004572723A204D494E54454D5000457272E0
:101A40003A204D494E54454D5020424544004D49A1
:101A50004E54454D50207472696767657265640025
:101A6000202F002042403A0020403A000000210090
:101A7000240027002A002D0030003300010100005F
:101A8000040107010A0100002200250028002B00A4
:101A90002E003100340002010000050108010B0195
:101AA00020746F6F206C6F6E672065787472757329
:101AB000696F6E2070726576656E7465640A0020C9
:101AC000636F6C6420657874727573696F6E2070D3
:101AD000726576656E7465640A00454550524F4DD7
:101AE000206461746173697A65206572726F722E09
:101AF0000A00290A002062797465733B20637263CF
:101B0000200053657474696E67732053746F726537
:101B100064202800290A002062797465733B2063E1
:101B2000726320002073746F72656420736574742F
:101B3000696E6773207265747269657665642028C2
:101B400000202863616C63756C6174656429210AE7
:101B50000020213D2000454550524F4D2043524327
:101B6000206D69736D61746368202D202873746F14
:101B70007265642920002053697A653A2000496E15
:101B80006465783A2000204D61726C696E3D56356F
:101B900035290A0028454550524F4D3D00454550D6
:101BA000524F4D2076657273696F6E206D69736D4B
:101BB00061746368200000002000230026002900D3
:101BC0002C002F0032000001000003010601090172
:101BD00005050505070508080808020202020A0AA9
:101BE00008080404040401010101010101010303C7
:101BF000030303030303040707070C0C0C0C0C0C72
:101C00000C0C0202020206060606060606060B0B6E
:101C10000B0B0B0B0B0B01021020200808102040AF
:101C200010204080020102010804020101020408A0
:101C3000102040808040201008040201800402012E
:101C40008040201008040201080402010102040877
:101C500010204080010204081020408000000A0B80
:101C600002090C0D0E08070304010000000000002B
:101C70000000000000000000000000000000000064
:101C80000000000000000000121110000000000021
:101C90000000000000000000000000000000000044
:101CA00000004B494C4C45442E2000202D20496E0D
:101CB00076616C6964206578747275646572206EF3
:101CC000756D62657220210A002020506C616E6E75
:101CD000657242756666657242797465733A200072
:101CE0002046726565204D656D6F72793A2000431C
:101CF0006F6D70696C65643A204D617220323820D6
:101D0000323031390A00207C20417574686F723A94
:101D100020467261636B74616C20576F726B730A3B
:101D200000323031392D30332D32382031333A31D1
:101D30003100204C61737420557064617465643A9D
:101D400020004275696C643A204A313850545F3142
:101D500039303332385F313331315F48410A004620
:101D60007261636B74616C20576F726B73204A757C
:101D70006C69612050726F2053696E676C652041F9
:101D8000424C0A00312E312E390A004D61726C69C5
:101D90006E0020536F6674776172652052657365BB
:101DA000740A00205761746368646F67205265731A
:101DB00065740A002042726F776E206F757420522E
:101DC000657365740A002045787465726E616C20D5
:101DD00052657365740A00506F77657255700A001A
:101DE00073746172740A0020503A00205A3A00203D
:101DF000593A0020583A00656E6473746F7073200E
:101E00006869743A2000627573793A20706175735D
:101E1000656420666F7220696E7075740A00627561
:101E200073793A2070617573656420666F722075EE
:101E30007365720A00627573793A2070726F636518
:101E40007373696E670A004B494C4C45442E200061
:101E50004B494C4C20636175736564206279207432
:101E60006F6F206D75636820696E61637469766554
:101E70002074696D65202D2063757272656E742003
:101E8000636F6D6D616E643A20005072696E7465A7
:101E9000722068616C7465642E206B696C6C2829F3
:101EA0002063616C6C6564210A000000A0C1000021
:101EB000C8430000C84300004842000048420000F8
:101EC000A041000000005761726E696E673A2048B9
:101ED0006F6D696E672042756D7020446976697315
:101EE0006F72203C20310A000202040000A0400072
:101EF00000A040000000400000C8430000C84300AC
:101F000000C843FF01014572726F722077726974D5
:101F1000696E6720746F20454550524F4D210A006D
:101F2000205A3A0020423A0020436F756E742041D7
:101F30003A0020453A00205A3A0020593A00583ACF
:101F4000003A004361703A00205A002059005800BE
:101F500020204D61783A2000205A00205900580076
:101F600020204D696E3A20004F6E20004F666600BB
:101F7000536F667420656E6473746F70733A2000DB
:101F800020466C6F773A200020643A0020693A00BE
:101F900020703A00496E76616C69642065787472CD
:101FA000756465720A00546F6F20666172206672F4
:101FB0006F6D207265666572656E636520706F690E
:101FC0006E740A00526573656E643A20006F6B0090
:101FD00020746F6F206C6F6E6720657874727573F4
:101FE000696F6E2070726576656E7465640A002094
:101FF000636F6C6420657874727573696F6E20709E
:10200000726576656E7465640A00556E6B6E6F77E7
:102010006E20636F6D6D616E643A20220050726FA6
:1020200062696E67206661696C65640A0050524F90
:1020300042494E475F4641494C45440A00205A3ABE
:10204000200020593A200042656420583A200020A0
:1020500066697273740A005A0059005800486F6D1F
:102060006520006563686F3A004572726F723A00CE
:10207000453120544845524D414C2052554E415710
:1020800041590042454420544845524D414C20524C
:10209000554E4157415900546865726D616C20522C
:1020A000756E61776179006265640A002C2073792E
:1020B0007374656D2073746F70706564212048655A
:1020C000617465725F49443A20007A9B11241FBEF7
:1020D000CFEFD1E2DEBFCDBF00E00CBF13E0A0E048
:1020E000B2E0ECE7FFE401E00BBF02C007900D9205
:1020F000A430B107D9F72EE0A4E0B3E001C01D92EF
:10210000A036B207E1F710E1C6E6D0E100E006C074
:1021100021970109802FFE010E9473A7C536D107C0
:1021200080E00807A9F70E94FA950C94BCA70C94CC
:1021300000002F923F924F925F926F927F928F9208
:102140009F92AF92BF92CF92DF92EF92FF920F9346
:102150001F93CF93DF93CDB7DEB7CC58D1090FB61D
:10216000F894DEBF0FBECDBF11E010937E068091C4
:10217000F8048D3411F40C94981A843511F40C94ED
:10218000FE28873411F00C944A298091F60490912E
:10219000F7048C31910509F4AEC69CF484309105A6
:1021A0003CF482309105B4F597FF2DC00C94941A3D
:1021B0008430910509F4CCC54B9709F4FEC50C9405
:1021C000941A8A32910511F40C94F2184CF48D3162
:1021D000910509F42EC74E9709F42FC70C94941A51
:1021E0008B35910511F40C94CE198C35910511F4B1
:1021F0000C94D2198A35910511F00C94941A10920E
:1022000008030C944C298091450281110C945129AA
:102210000C944C2920914502222311F40C944C2952
:1022200011E0029709F010E00E94733482E50E94E9
:102230006734882309F43CC10E94ED336B017C01B3
:102240004090F60D5090F70D6090F80D7090F90DDC
:102250002091FA0D3091FB0D4091FC0D5091FD0D38
:102260002EA73FA748AB59AB80919C0690919D0645
:10227000A0919E06B0919F068AAB9BABACABBDAB69
:102280002091A0063091A1064091A2065091A3068C
:102290002AAF3BAF4CAF5DAF20E030E0A901C701F2
:1022A000B6010E942DA0882309F438C5A30192012C
:1022B0006AA97BA98CA99DA90E942DA081110DC09E
:1022C0002EA53FA548A959A96AAD7BAD8CAD9DADA2
:1022D0000E942DA0882309F421C520E030E0A90147
:1022E000C701B6010E942DA0881F8827881F1813D8
:1022F0000BC080E090E0A0E8BFE32A968CAF9DAFD2
:10230000AEAFBFAF2A970AC020E030E040E85FEBF5
:102310002A962CAF3DAF4EAF5FAF2A97A301920133
:102320006AA97BA98CA99DA90E9496A422966CAF4C
:102330007DAF8EAF9FAF22972EA53FA548A959A983
:102340006AAD7BAD8CAD9DAD0E9496A426966CAF18
:102350007DAF8EAF9FAF269722962CAD3DAD4EAD93
:102360005FAD2297CA01B9010E9492A04B015C01A6
:1023700026962CAD3DAD4EAD5FAD2697CA01B90195
:102380000E9492A09B01AC01C501B4010E9497A4D8
:102390000E9402A76EAB7FAB88AF99AF20E030E020
:1023A00040E05FE30E9492A04B015C01A70196010F
:1023B000C701B6010E9492A06B017C01A5019401A6
:1023C000C501B4010E9492A09B01AC01C701B601F6
:1023D0000E9496A40E9402A79B01AC012A966CADB4
:1023E0007DAD8EAD9FAD2A970E9492A04B015C01FE
:1023F0002AA93BA94CA95DA9C301B2010E9497A4D7
:1024000020E030E040E05FE30E9492A06B017C019D
:1024100026966CAD7DAD8EAD9FAD269790582EA9BA
:102420003FA948AD59AD0E9473A59B01AC01C50100
:10243000B4010E9492A09B01AC01C701B6010E94A9
:1024400097A4A30192010E9496A46B017C012AAD7E
:102450003BAD4CAD5DAD6EA57FA588A999A90E9445
:1024600097A420E030E040E05FE30E9492A02B01BF
:102470003C012EA93FA948AD59AD22966CAD7DAD6A
:102480008EAD9FAD22970E9473A59B01AC01C50143
:10249000B4010E9492A09B01AC01C301B2010E9451
:1024A00097A42EA53FA548A959A90E9496A414C097
:1024B00089E40E946734882329F00E94ED336B0180
:1024C0007C0103C0C12CD12C76018AE40E946734C0
:1024D0008823D9F00E94ED336AAF7BAF8CAF9DAFFC
:1024E00020E030E0A901C701B6010E942DA08111B2
:1024F0001AC020E030E0A9016AAD7BAD8CAD9DAD86
:102500000E942DA081110FC009C420E030E0A90174
:10251000C701B6010E942DA0882309F4FFC31AAE9B
:102520001BAE1CAE1DAED701C601B0588EA79FA72B
:10253000A8ABB9AB2AAD3BAD4CAD5DAD50582AABA5
:102540003BAB4CAB5DAB9C01AD01BC01CD010E942E
:1025500092A04B015C012AA93BA94CA95DA9CA0123
:10256000B9010E9492A09B01AC01C501B4010E9477
:1025700097A40E9402A766966CAF7DAF8EAF9FAF07
:1025800066978091F60D9091F70DA091F80DB0919E
:10259000F90D8EAB9FABA8AFB9AFA7019601BC01F7
:1025A000CD010E9497A42A966CAF7DAF8EAF9FAFEE
:1025B0002A972091FA0D3091FB0D4091FC0D50911E
:1025C000FD0D22962CAF3DAF4EAF5FAF22972AADE7
:1025D0003BAD4CAD5DAD22966CAD7DAD8EAD9FAD8E
:1025E00022970E9497A46A966CAF7DAF8EAF9FAF83
:1025F0006A9780919C0690919D06A0919E06B0914D
:102600009F0626968CAF9DAFAEAFBFAF26972A969A
:102610002CAD3DAD4EAD5FAD2A97BC01CD010E9402
:1026200096A46B017C012091A0063091A1064091F7
:10263000A2065091A3062E962CAF3DAF4EAF5FAFD2
:102640002E976A962CAD3DAD4EAD5FAD6A972E9636
:102650006CAD7DAD8EAD9FAD2E970E9496A44B01C3
:102660005C018091FE0D9091FF0DA091000EB09144
:10267000010E62968CAF9DAFAEAFBFAF62979C016B
:10268000AD016091A4067091A5068091A606909177
:10269000A7060E9496A42B013C012091A806309128
:1026A000A9064091AA065091AB06A2962CAF3DAF69
:1026B0004EAF5FAFA2978091020E9091030EA09152
:1026C000040EB091050E6E968CAF9DAFAEAFBFAF4E
:1026D0006E97A70196016EA57FA588A999A90E946A
:1026E00092A0A6966CAF7DAF8EAF9FAFA697A501C7
:1026F00094016AA97BA98CA99DA90E9492A09B0123
:10270000AC01A6966CAD7DAD8EAD9FADA6970E9437
:1027100097A4A6966CAF7DAF8EAF9FAFA697A5018D
:1027200094016EA57FA588A999A90E9492A04B014A
:102730005C01A70196016AA97BA98CA99DA90E94A9
:1027400092A09B01AC01C501B4010E9496A4A6967B
:102750002CAD3DAD4EAD5FADA6970E940AA56B01B5
:102760007C0120E030E0A9010E942DA087FF0AC073
:102770002BED3FE049EC50E4C701B6010E9497A45D
:102780006B017C01112351F02BED3FE049EC50E44B
:10279000C701B6010E9496A46B017C0120E030E0E5
:1027A000A901C701B6010E942DA0811126C026965D
:1027B0002CAD3DAD4EAD5FAD26976EA97FA988AD1E
:1027C00099AD0E942DA0811118C02E962CAD3DAD63
:1027D0004EAD5FAD2E9722966CAD7DAD8EAD9FADAB
:1027E00022970E942DA0811108C0ABEDCA2EAFE048
:1027F000DA2EA9ECEA2EA0E4FA2EA701960166963D
:102800006CAD7DAD8EAD9FAD66970E9492A04B01E1
:102810005C0120E030E0A901C301B2010E942DA0BB
:102820008823C9F0A5019401C501B4010E9492A0BA
:102830004B015C01A3019201C301B2010E9492A06D
:102840009B01AC01C501B4010E9497A40E9402A79C
:102850004B015C010DC020E030E0A901C501B401CD
:102860000E94BDA687FF04C0B7FAB094B7F8B09431
:102870002FE632E143E85AE3C501B4010E942DA0DE
:1028800087FF02C00C944C29C501B4010E940CA61C
:102890000E94E0A51B01672B19F422242394312CFC
:1028A000B10180E090E00E9431A04B015C019B01EE
:1028B000AC01C701B6010E9473A56EAB7FAB88AFB8
:1028C00099AFA5019401C301B2010E9473A5669658
:1028D0006CAF7DAF8EAF9FAF66976E962CAD3DAD62
:1028E0004EAD5FAD6E97A2966CAD7DAD8EAD9FADDA
:1028F000A2970E9496A4A50194010E9473A5A29696
:102900006CAF7DAF8EAF9FAFA2972EA93FA948AD08
:1029100059ADCA01B9010E9492A020E030E040E028
:102920005FE30E9492A09B01AC0160E070E080E850
:102930009FE30E9496A42E966CAF7DAF8EAF9FAFA3
:102940002E9762962CAD3DAD4EAD5FAD6297298757
:102950003A874B875C876E968CAD9DADAEADBFADB3
:102960006E978D879E87AF87B88B60913B02709181
:102970003C02072E000C880B990B0E9433A020917B
:1029800041023091420240914302509144020E9420
:1029900092A02AE037ED43E25CE30E9492A06AA78E
:1029A0007BA78CA79DA70E9474589B01AC0128535C
:1029B0003F4F4F4F5F4F62962CAF3DAF4EAF5FAF73
:1029C00062974EA45FA468A879A841E050E02496DD
:1029D0005FAF4EAF249759E15EAF24962EAD3FAD69
:1029E00024972215330509F43EC10E94245D0E94FC
:1029F0007458DC01CB0162962CAD3DAD4EAD5FADA0
:102A00006297821B930BA40BB50BB7FD10C00E94FD
:102A100074589B01AC0128533F4F4F4F5F4F629654
:102A20002CAF3DAF4EAF5FAF62970E94D17B3EAD02
:102A300031503EAF332309F441C02E962CAD3DAD4D
:102A40004EAD5FAD2E976AA97BA98CA99DA90E9466
:102A500092A06B017C012EA93FA948AD59ADB201EE
:102A6000C3010E9492A0A70196010E9497A47B0136
:102A70008C012E962CAD3DAD4EAD5FAD2E97B201C3
:102A8000C3010E9492A04B015C012EA93FA948AD51
:102A900059AD6AA97BA98CA99DA90E9492A09B010E
:102AA000AC01C501B4010E9496A42B013C01C701F1
:102AB000D8018AAB9BABACABBDAB53C024964EAD3B
:102AC0005FAD2497BA0180E090E00E9431A02EA96A
:102AD0003FA948AD59AD0E9492A04B015C010E94F4
:102AE00070A56B017C01C501B4010E94F8A64B01E1
:102AF0005C01A70196016EA57FA588A999A90E94EE
:102B000092A02B013C01A50194016AAD7BAD8CAD77
:102B10009DAD0E9492A09B01AC01C301B2010E9435
:102B200097A42B013C01A50194016EA57FA588A95E
:102B300099A90E9492A04B015C01A70196016AAD80
:102B40007BAD8CAD9DAD0E9492A09B01AC01C501F7
:102B5000B4010E9496A46AAB7BAB8CAB9DAB59E1F0
:102B60005EAF9201A3012A966CAD7DAD8EAD9FAD97
:102B70002A970E9497A469837A838B839C832AA9CE
:102B80003BA94CA95DA96A966CAD7DAD8EAD9FAD9C
:102B90006A970E9497A46D837E838F839887669639
:102BA0002CAD3DAD4EAD5FAD669769857A858B8561
:102BB0009C850E9497A469877A878B879C87A296B9
:102BC0002CAD3DAD4EAD5FADA2976D857E858F85F9
:102BD00098890E9497A46D877E878F87988B8091B4
:102BE0003A02882321F0CE0101960E949379E09069
:102BF000B10D1AA21BA21CA21DA289819A81AB81D0
:102C0000BC818E8B9F8BA88FB98F8D819E81AF8168
:102C1000B8858A8F9B8FAC8FBD8F89859A85AB8550
:102C2000BC858E8F9F8FA8A3B9A3AE01425E5F4F74
:102C3000BE01665E7F4FCE0146960E94BC6DCE01FE
:102C400082966C018E01065D1F4F9E01235F3F4FF0
:102C5000AE01425E5F4FBE01665E7F4F0C970E94E1
:102C60007D5E811151C0E090B10D1EA21FA218A679
:102C700019A680919C0690919D06A0919E06B09108
:102C80009F068E8B9F8BA88FB98F8091A006909105
:102C9000A106A091A206B091A3068A8F9B8FAC8F4C
:102CA000BD8F8091A4069091A506A091A606B09133
:102CB000A7068E8F9F8FA8A3B9A3AE01425E5F4F78
:102CC000BE01665E7F4FCE0146960E94BC6DDE015E
:102CD00096966D018E01065D1F4F28EA36E0AE0123
:102CE000425E5F4FBE01665E7F4FCE0146960E94F8
:102CF0007D5E80E1ECE9F6E0A6EFBDE001900D928B
:102D00008A95E1F70C944C292496EEADFFAD2497FB
:102D100031962496FFAFEEAF24975FCEE9E6F0E25E
:102D200084918F010F5F1F4F882321F00E94EB35A4
:102D3000F801F6CFE9EDF1E084918F010F5F1F4FAD
:102D4000882311F40C944C290E94EB35F801F4CF40
:102D500080E50E946734882329F00E94AD336B011F
:102D60007C0103C0C12CD12C760183E50E9467341D
:102D7000882361F00E94ED3320E030E04AE754E41C
:102D80000E9492A00E94E0A56B017C010E94FC6C55
:102D90000E947458C60ED71EE81EF91E0E94745871
:102DA000DC01CB018C199D09AE09BF09B7FD02C03A
:102DB0000C944C290E94D17BF1CF0E94378F811156
:102DC0000C944C2980E090E0A0E2B1E489839A83DE
:102DD000AB83BC8380E090E0A3ECB3E48D839E835F
:102DE000AF83B88780E090E0A0EAB1E489879A8752
:102DF000AB87BC8780E50E946734882319F00E9466
:102E0000BD3301C060E080E090E0A8ECB2E48EA3A6
:102E10009FA3A8A7B9A780E090E0A0EAB0E48AA3A6
:102E20009BA3ACA3BDA3613019F0623039F029C077
:102E3000BE016E5D7F4FCE01099644C029853A855B
:102E40004B855C856091FE0D7091FF0D8091000EA9
:102E50009091010E0E9497A46B017C0120E030E06C
:102E600048EC53E40E942DA087FD06C0C12CD12C54
:102E7000E8ECEE2EE3E4FE2ECE8ADF8AE88EF98EB1
:102E80001CC0A090FE0DB090FF0DC090000ED09021
:102E9000010EE984FA840B851C859501A601B70112
:102EA000C8010E94BDA6181614F075018601C7015D
:102EB000D8018E8B9F8BA88FB98FBE016E5D7F4F1F
:102EC000CE0146960E94CC30E090FE0DF090FF0DB2
:102ED0000091000E1091010E2D813E814F81588589
:102EE00069817A818B819C81DE0196966D010E94B9
:102EF000EF2F0C944C298091E50D8770873071F489
:102F00008FE40E946734882319F00E94DE3303C0E7
:102F10008FE40E94203481110C944C290E94FC6C97
:102F200080E00E94DE320E94D02F11E01093C40492
:102F300088E50E942034B82E89E50E942034082FAD
:102F40008AE50E942034B11004C0011104C0182782
:102F500005C0011102C010E001C0182FC857DF4F93
:102F60008883C858D0400E94E135C857DF4F888118
:102F7000C858D040111102C0882319F082E00E9485
:102F8000257A82E50E946734882361F00E94ED3340
:102F90006B017C0120E030E0A9010E942DA0882374
:102FA00069F105C0C12CD12C70E4E72EFE2C111163
:102FB00004C0B11002C0002381F1C092A406D092D7
:102FC000A506E092A606F092A7062091FE0D30918C
:102FD000FF0D4091000E5091010EC701B6010E94F5
:102FE000BDA618165CF419821A821B821C82BE01CF
:102FF0006F5F7F4F84EA96E00E94CC30111105C0CC
:10300000011103C0B11006C008C081E00E94257AFA
:103010001123C1F380E00E94257A0E94CA31809179
:10302000C3048093C4040E94B72F0E94F8850C94B7
:103030004C290E9472510C944C29C090F60DD090EE
:10304000F70DE090F80DF090F90D88E50E946734D7
:10305000811109C020E030E040E251E4C701B6012F
:103060000E9497A402C00E94ED336E8B7F8B888FE5
:10307000998FC090FA0DD090FB0DE090FC0DF09070
:10308000FD0D89E50E946734811109C020E030E020
:1030900040E251E4C701B6010E9497A402C00E9419
:1030A000ED339B01AC0169837A838B839C836E89AA
:1030B0007F89888D998D0E94077B882311F40C9459
:1030C0004C2980E00E94DE320E94D02F85E40E94CD
:1030D0006734882321F00E94DE33182F04C085E472
:1030E0000E94203411E086E50E946734882321F095
:1030F0000E94BD33262F01C021E0412FBE016F5F2A
:103100007F4FCE0146960E94C28F6B017C019B01CE
:10311000AC010E9443A781115FC08E889F88A88C54
:10312000B98C20E030E0A901C501B4010E942DA0B6
:1031300087FD05C027E137EB41E558E304C027E1EF
:1031400037EB41E558EBC501B4010E9497A4AB01F0
:10315000BC0189EF91E00E942C8089809A80AB802D
:10316000BC8020E030E0A901C501B4010E942DA07F
:1031700087FD05C027E137EB41E558E304C027E1AF
:1031800037EB41E558EBC501B4010E9497A4AB01B0
:10319000BC0184EF91E00E942C8020E030E0A90186
:1031A000C701B6010E942DA087FD05C027E137EBBE
:1031B00041E558E304C027E137EB41E558EBC7018F
:1031C000B6010E9497A4AB01BC018FEE91E00E9472
:1031D0002C808AE00E94EB350E94B72F0E94F88570
:1031E0000C944C2980914502882311F40C944C29AD
:1031F00089E40E946734182F882321F00E94BD3390
:10320000E62E01C0E12C8AE40E946734082F88234F
:1032100031F00E94BD33F62E111104C00BC0F12C09
:103220001123C1F0B2E0BE1510F00C94892EE1E03C
:10323000F2E004C0E2E0EF15D0F30CC084918F01FE
:103240000F5F1F4F882311F40C944C290E94EB351B
:10325000F801F4CF0E94E1351123F1F02091D3035E
:103260003091D4034E2D4203B001439F700D1124C1
:103270008091980490919904680F791F072E000C93
:10328000880B990B0E9433A060939C0670939D0657
:1032900080939E0690939F060023F1F02091D50322
:1032A0003091D6035F2D5203B001539F700D11244E
:1032B00020919A0430919B04620F731F072E000C1B
:1032C000880B990B0E9433A06093A0067093A1060F
:1032D0008093A2069093A30680E50E94673488231A
:1032E000E9F00E94DE338823A9F11123D9F020E010
:1032F00030E040E251E460919C0670919D0680911F
:103300009E0690919F060E9496A460939C067093DF
:103310009D0680939E0690939F0604C080E50E94C0
:103320002034E1CF0023B1F020E030E040E251E46E
:103330006091A0067091A1068091A2069091A306CB
:103340000E9496A46093A0067093A1068093A206A3
:103350009093A30686E40E9467348823D9F00E94E4
:10336000ED336B017C0120E030E0A9010E94BDA695
:10337000181684F420E030E040E752E4C701B601BB
:103380000E9473A5609341027093420280934302AE
:10339000909344020E94D1870C944C291093080307
:1033A0000C944C295AE4252E52E0352E60E9C62EA5
:1033B00066E0D62EE12CF12C00E010E0D1018D91D9
:1033C0001D010E946734882309F44EC00E94ED332A
:1033D0002B013C01133059F0F701EA51F24F2081E3
:1033E0003181428153810E9496A42B013C01F70157
:1033F000EA50F24F2081318142815381C301B201F1
:103400000E9496A44B015C012DEB37E346E855EB97
:103410000E94BDA687FD0AC02DEB37E346E855E3C1
:10342000C501B4010E942DA01816F4F4133051F414
:103430004092020E5092030E6092040E7092050E9E
:1034400001E012C0A5019401F601608171818281C1
:1034500093810E9497A4D6016D937D938D939C9345
:103460001397812F0E948A311F5FB4E0CB0ED11CCD
:10347000E4E0EE0EF11C143009F0A0CF002309F4B3
:103480004FC020E030E0A9016091020E7091030E60
:103490008091040E9091050E0E9497A42091180728
:1034A0003091190740911A0750911B070E9492A072
:1034B0000E94C8A660933C0770933D0780933E0727
:1034C00090933F0790918E0380918D03981719F088
:1034D0000E949E6C25C00E94FC6C80916F0081FB55
:1034E000992790F981FF05C080916F008D7F8093AF
:1034F0006F0040913C0750913D0760913E077091ED
:103500003F074093300E5093310E6093320E70930C
:10351000330E992329F080916F00826080936F00B1
:103520000E94F8850C944C290E94B1910C944C296E
:103530008091F6049091F7048C38910509F42EC41B
:103540000CF09BC08836910509F4E3C20CF054C01E
:103550008D34910509F4D7C14CF58A32910509F4EF
:1035600071C1B4F48231910509F491C48F31910590
:1035700009F443C1419711F00C94FB285F988A9895
:103580008091080181708093060112980C944C2957
:103590008B34910509F49EC10CF0A0C1C09711F0C5
:1035A0000C94FB280E94024C0C944C298335910505
:1035B00009F469C464F48135910509F454C40CF02C
:1035C0005EC48E34910509F4A2C10C94FB288535A4
:1035D000910509F491C40CF45AC48C35910511F08D
:1035E0000C94FB281AE4C12E12E0D12E0CE0E02E40
:1035F00007E0F02E10E09BC48037910509F43EC32C
:103600009CF48C36910509F435C33CF48A36910557
:1036100009F4F9C30CF462C314C48E36910509F49D
:10362000A5C20CF49DC3B5C28537910511F40C9465
:103630004C2974F48237910509F4F9C40CF422C3BF
:103640008337910511F00C94FB28EFECF3E0F5C4FF
:103650008737910509F49AC50CF44BC58837910555
:1036600009F418C68937910511F00C94FB281092C3
:10367000C4041092C3040C944C298F32F1E09F07CC
:1036800011F40C945F230CF050C08E3C910509F4AA
:1036900079C744F5893C910509F448C674F48E3B1A
:1036A000910509F499C3883C910509F4F9C58B3952
:1036B000910511F00C94FB282CC38C3C910509F466
:1036C0006DC60CF0E0C68B3C910511F00C94FB2804
:1036D000E4E7EE2EE4E0FE2E0AE412E0F4E0DF2E52
:1036E000D00E4CC6823E910509F482C78CF48C3D05
:1036F000910509F46DC78D3D910509F476C7833DA9
:10370000910511F00C94FB280E94DC840C944C2948
:103710008D3231E0930709F47BC70CF07CC782320D
:10372000914009F468C70C94FB288C3AA1E09A07F1
:1037300009F44BC774F58239E1E09E0711F40C944B
:10374000CA2694F4803921E0920711F40C94C12622
:1037500014F00C94C4268336914011F00C94FB288D
:10376000E9E6F0E20C94AA26843A51E0950711F4B8
:103770000C94D026853AA1E09A0711F40C94BA274C
:103780008A39914011F00C94FB280E9428830C94F4
:103790004C29873FE1E09E0711F40C94542894F4DF
:1037A000853F21E0920711F40C944E2814F00C94FC
:1037B0005128843F914011F00C94FB280E94F7732C
:1037C0000C944C29833553E0950711F40C9482280E
:1037D0003CF4883F914011F40C945F280C94FB2832
:1037E0008B38E3E09E0711F40C944C29873E9340FC
:1037F00011F40C94E8280C94FB280E9491936E8B92
:103800007F8B888F998FBE016F5F7F4FCE01469669
:103810000E942135E3E6F0E284918F010F5F1F4F94
:10382000882321F00E94EB35F801F6CFBE016F5FCF
:103830007F4F80E292E00E9462808AE00E94EB3536
:103840000C944C2983E50E946734882311F40C946E
:103850004C290E94CD33E82E80E50E9467348823EE
:1038600039F00E94CD33182F87FF03C00C944C29E8
:103870001DE089E40E946734882349F00E94DE330A
:10388000811111C0EDE2F2E08DE28E0F07C089E4F4
:103890000E942034F5CF31968E1729F09491191398
:1038A000FACF0C948F2E61E0812F0E9402576E2D6B
:1038B000812F0E94D356F12CB701812F0E943E57D1
:1038C000193011F00C944C29F0929104E09290047C
:1038D0000C944C290E948A800C944C298091B1044C
:1038E000813011F00C944C2982E08093B1040E9445
:1038F00074586093A9047093AA048093AB049093C6
:10390000AC040C944C290E94E8800C944C2983E56B
:103910000E946734811103C0E8EBF2E009C00E9405
:10392000BD336E347105C1F70E9458810C944C2947
:1039300084918F010F5F1F4F882321F00E94EB3588
:10394000F801F6CFEFEAF2E084918F010F5F1F4F8D
:10395000882321F00E94EB35F801F6CF6091B30483
:103960007091B40480E090E04AE00E94AD37E2EA52
:10397000F2E084918F010F5F1F4F882321F00E9496
:10398000EB35F801F6CF6091B5047091B60480E094
:1039900090E04AE00E94AD37E7E9F2E084918F01C0
:1039A0000F5F1F4F882321F00E94EB35F801F6CFFF
:1039B0006091B3047091B4048091B5049091B60401
:1039C000681B790B8091B104815021E030E0823096
:1039D00010F020E030E0621B730B80E090E04AE0E2
:1039E0000E94AD378AE00E94EB35EFE8F2E0849167
:1039F0008F010F5F1F4F882321F00E94EB35F801E4
:103A0000F6CF8091B7049091B804A091B904B09119
:103A1000BA048E8B9F8BA88FB98FBE016F5F7F4FCB
:103A2000CE0146960E942135E2E8F2E084918F01B2
:103A30000F5F1F4F811106C09E012F5F3F4F79011D
:103A4000890104C00E94EB35F801F0CFD8018D91B7
:103A50008D01882319F00E94EB35F8CF8091BB04CB
:103A60009091BC04A091BD04B091BE048E8B9F8B3D
:103A7000A88FB98FBE016F5F7F4FCE0146960E941F
:103A80002135E2E7F2E084918F010F5F1F4F882319
:103A900021F00E94EB35F801F6CFF70181917F010B
:103AA000882319F00E94EB35F8CF8AE00E94EB35AD
:103AB000EAE6F2E084918F010F5F1F4F882321F027
:103AC0000E94EB35F801F6CFEAE5F2E084918F0130
:103AD0000F5F1F4F882321F00E94EB35F801F6CFCE
:103AE00020E030E04AE754E46091BF047091C004E4
:103AF0008091C1049091C2040E9473A542E00E948B
:103B000069388DE60E94EB358AE00E94EB350C9413
:103B10004C2988E690E00E94133881110C944C29BE
:103B20008091F90483FF02C00C944C2983E50E9424
:103B300067348823B9F00E94ED330E94DBA57093AF
:103B400015046093140480E00E94FB5B0E94ED3337
:103B500020E030E04AEA52E40E942DA0181614F04A
:103B60000E94E8800E944A9B0C944C298EE40E949B
:103B70006734882311F40C944C290E94BD33609360
:103B8000090E70930A0E80930B0E90930C0E0C94FA
:103B90004C2983E50E942034882359F083E50E9454
:103BA0006734882319F00E94CD3301C080E08093F0
:103BB000F904E3E6F0E284918F010F5F1F4F882341
:103BC00021F00E94EB35F801F6CFEEECF2E08491A3
:103BD0008F010F5F1F4F882321F00E94EB35F80102
:103BE000F6CF8091F9048823A1F140ECC42E42E085
:103BF000D42EE12CF12C20E08091F90490E00E2CE1
:103C000002C0959587950A94E2F780FF17C0BB2400
:103C1000B394B20E222319F08CE20E94EB35F60128
:103C200025913491F901849189010F5F1F4F8823F9
:103C300021F00E94EB359801F5CF2B2DFFEFEF1A05
:103C4000FF0A32E0C30ED11C45E0E416F104A1F6F0
:103C50000CC0EAECF2E084918F010F5F1F4F8823C4
:103C600021F00E94EB35F801F6CF8AE00E94EB3597
:103C70000C944C29109200020C944C2985ED92E092
:103C80000E94A17B83E50E946734882369F00E942B
:103C9000CD338D3320F4809317020C944C298CE3A0
:103CA000809317020C944C29E3E6F0E284918F0193
:103CB0000F5F1F4F882321F00E94EB35F801F6CFEC
:103CC0004091170250E060E070E08EED92E00E94BB
:103CD0000F808AE00E94EB350C944C2989E690E035
:103CE0000E941338811111C0E5EEF2E084918F013A
:103CF0000F5F1F4F882321F00E94EB35F801F6CFAC
:103D00000E9466598AE00E94EB3510927E060C9460
:103D1000922E83E50E946734882311F40C944C2979
:103D20000E94CD33182F8D3308F01CE310938F06BB
:103D30000E9474586B017C01212F30E0A8EEB3E0A3
:103D40000E9487A4C60ED71EE81EF91EC0928B06DD
:103D5000D0928C06E0928D06F0928E060C944C293F
:103D60008DE690E00E94133881110C944C298091CB
:103D7000F90483FF02C00C944C2983E50E94673448
:103D800027968FAF279781110C94562982E50E94C0
:103D9000673481110C9456290C944C298091F904B4
:103DA00083FF02C00C944C2983E50E94673488236A
:103DB00011F40C944C290E94ED330E94DBA5663966
:103DC000710514F066E970E070930F0460930E04BF
:103DD0000E94B15B0C944C298091F90483FF02C0CE
:103DE0000C944C2983E50E94673427968FAF279760
:103DF00081110C94D62A82E50E94673481110C94BB
:103E0000D62A0C944C2980E50E946734811106C0A3
:103E100083E50E946734882361F006C00E94CD3399
:103E200081110C944C29F4CF0E94BD336F3F710572
:103E300010F06FEF70E070939104609390040C9415
:103E40004C2980E50E946734811106C010929104CC
:103E5000109290040C944C290E94BD33672B11F0F2
:103E60000C944C29F3CF0E94455C0E94666D109221
:103E70009104109290040E94A88F0C944C291092E7
:103E800007030C944C29109307030C944C2983E5E9
:103E90000E9467348823A1F00E94ED3320E030E0D7
:103EA0004AE754E40E9492A00E94E0A560937F0636
:103EB0007093800680938106909382060C944C291F
:103EC00088E50E94203481110C945B2C89E50E94C6
:103ED000203481110C945B2C8AE50E9420348111DE
:103EE0000C945B2C85E40E94203481110C945B2C93
:103EF0000E94666D0C944C2983E50E94203488232F
:103F000011F40C944C290E94ED3320E030E04AE794
:103F100054E40E9492A00E94E0A5609387067093EB
:103F200088068093890690938A060C944C29D601C2
:103F30008D916D010E942034882309F46DC01330E7
:103F400009F063C00E94ED334B015C0120E030E0DA
:103F500040EA51E40E942DA087FF4EC0A5019401C4
:103F6000609118077091190780911A0790911B07AB
:103F70000E9473A52B013C019B01AC01609164047C
:103F80007091650480916604909167040E9492A0EC
:103F9000609364047093650480936604909367044F
:103FA000A301920160918004709181048091820448
:103FB000909183040E9492A0609380047093810486
:103FC00080938204909383046091E8067091E906DF
:103FD0008091EA069091EB060E9431A0A301920124
:103FE0000E9492A00E94E0A56093E8067093E90603
:103FF0008093EA069093EB06809218079092190737
:10400000A0921A07B0921B0707C00E94ED33F70178
:1040100060837183828393831F5FF4E0EF0EF11C52
:10402000143009F084CF0E94B7820C944C290E946E
:10403000FC6C0E94F8850C944C2984918F010F5FD1
:104040001F4F882321F00E94EB35F801F6CF60E086
:104050008FEB93E00E94B48561E088EB93E00E94CF
:10406000B48561E08DEA93E00E94B48561E08DE95A
:1040700093E00E94B48560E084E993E00E94B485F7
:1040800061E08AE893E00E94B48561E080E893E013
:104090000E94B48561E088E793E00E94B48561E006
:1040A0008AE693E00E94B48560E08CE593E00E948C
:1040B000B48560E08DE493E00E94B48560E08FE316
:1040C00093E00E94B48560E089E293E00E94B485A9
:1040D00060E088E193E00E94B48560E083E093E0D3
:1040E0000E94B48561E080EF92E00E94B4850C9458
:1040F0004C290091F4041091F50483E0D12C40E0A8
:104100008150E9F0D8019C91292F2B7F2134C1F7F0
:1041100011962C912133A1F7913421F0953421F49B
:1041200041E002C0DD24D39498012E5F3F4F890106
:104130002F5F3F4FF80190819032C9F3E1CF4423C4
:1041400069F0E3E6F0E284917F012FEFE21AF20AD0
:10415000882321F00E94EB35F701F5CFDD2069F0CF
:10416000EAEAF4E084917F013FEFE31AF30A88233F
:1041700021F00E94EB35F701F5CFD8018D918D012B
:10418000882309F472CD0E94EB35F7CFE0EDF4E01F
:1041900084918F010F5F1F4F882321F00E94EB3520
:1041A000F801F6CFE8ECF4E084918F010F5F1F4F28
:1041B000882321F00E94EB35F801F6CF659903C002
:1041C0000AED12E002C00FED12E0F80181918F01BB
:1041D000882319F00E94EB35F8CF8AE00E94EB3576
:1041E000E0ECF4E084918F010F5F1F4F882321F0F2
:1041F0000E94EB35F801F6CF8091030180FD03C0EA
:104200000AED12E002C00FED12E0D8018D918D0190
:10421000882319F00E94EB35F8CF8AE00E94EB3535
:10422000E8EBF4E084918F010F5F1F4F882321F0AA
:104230000E94EB35F801F6CF4A9903C00AED12E06F
:1042400002C00FED12E0F80181918F01882319F06F
:104250000E94EB35F8CF8AE00E94EB35EEEAF4E0FD
:1042600084918F010F5F1F4F882321F00E94EB354F
:10427000F801F6CF7B9903C00AED12E002C00FED02
:1042800012E0D8018D918D01882309F4EECC0E94B3
:10429000EB35F7CF81E08093C4048093C304FCC75F
:1042A00088EC90E00E9413388111F6C784E40E94E4
:1042B00020348823C1F10E94ED3311E020E030E08A
:1042C000A9010E942DA0811101C010E010934E049D
:1042D000112349F10E94ED33E0910904B4E0EB9F12
:1042E000F0011124ED5AFB4F608371838283938325
:1042F00020E030E0A9016091530470915404809152
:104300005504909156040E942DA081110CC080E0AC
:1043100090E0A0EEBFE38093530490935404A093E5
:104320005504B09356040E940A6EB6C7ACEEEA2E4E
:10433000A6E0FA2E0AE412E0B4E0DB2ED00EF8017B
:1043400081918F010E942034882351F00E94ED3327
:104350000E94E0A5D7016D937D938D939C93139755
:10436000B4E0EB0EF11CD012EACF0E94688194C732
:10437000B4E0EB0EF11CD01609F48EC7F801819160
:104380008F010E942034882399F30E94ED33D701D6
:104390006D937D938D939C931397EACF83E50E9451
:1043A00067348823A1F00E94ED3360936C0470930E
:1043B0006D0480936E0490936F046093680470930F
:1043C000690480936A0490936B0410E001C011E0CB
:1043D00080E50E946734882359F00E94ED33609392
:1043E0006C0470936D0480936E0490936F0410E0DE
:1043F00082E50E946734882359F00E94ED33609370
:10440000700470937104809372049093730410E0AD
:1044100084E50E946734882359F00E94ED3360934D
:1044200068047093690480936A0490936B0434C7A2
:10443000112309F431C740916C0450916D046091CF
:104440006E0470916F0480EF94E00E942C80409184
:1044500070045091710460917204709173048DEE38
:1044600094E00E942C80409168045091690460910E
:104470006A0470916B048AEE94E00E942C808AE0BA
:104480000E94EB3509C782E40E942034882351F052
:104490000E94AD33609384047093850480938604F6
:1044A0009093870483E50E942034882351F00E9472
:1044B000ED3360938C0470938D0480938E049093FD
:1044C0008F0484E50E942034882351F00E94ED334C
:1044D000609388047093890480938A0490938B047A
:1044E00088E50E942034882351F00E94ED336093C8
:1044F00058047093590480935A0490935B0489E59F
:104500000E942034882351F00E94ED3360935C04B4
:1045100070935D0480935E0490935F048AE50E942B
:1045200020348823F1F00E94ED336093600470938F
:10453000610480936204909363042DEC3CEC4CEC9A
:104540005DE30E942DA0181664F0E0E0F5E0849190
:104550008F010F5F1F4F882321F00E94EB35F80178
:10456000F6CF85E40E942034882309F495C60E9482
:10457000ED336093640470936504809366049093B4
:1045800067048AC66AE4C62E62E0D62E76ECE72E71
:1045900074E0F72E10E0F60181916F010E94203443
:1045A000882359F00E94ED33D7016D937D938D934D
:1045B0009C931397812F0E948A311F5FB4E0EB0E0A
:1045C000F11C133041F70C94901A0E94E58664C6E2
:1045D00083E50E946734882309F45EC60E94BD33D8
:1045E00070933C0260933B0257C60E94688454C695
:1045F0000E94028451C68AE50E94673481110C949E
:10460000872C83E50E94673481110C94872C44C663
:104610000E94628341C683E50E942034182F8823BC
:1046200071F00E94ED330E94DBA57093100260933D
:104630000F0221E0672B09F020E02093920480E52F
:104640000E942034882359F020910F0230911002EB
:10465000232B11F00E94DE33809392041DC61111AA
:104660001BC6E3E6F0E284918F010F5F1F4F8823A2
:1046700021F00E94EB35F801F6CF80919204811170
:1046800003C069EE72E002C06CED72E087E495E071
:104690000E94628060910F027091100286E395E0A3
:1046A0000E944980E2E3F5E084918F010F5F1F4F84
:1046B000882309F4F1C50E94EB35F801F5CF85E4B4
:1046C0000E946734882321F00E94BD337B0102C021
:1046D000E12CF12C83E40E946734882331F00E949E
:1046E000BD33E0966FAFE09704C025E0E0962FAFB2
:1046F000E09785E50E946734882319F00E94DE3335
:1047000003C085E50E942034EC968FAFEC97F7FC50
:1047100007C0812C912C56E1A52E53E4B52E06C07E
:10472000812C912C4CE8A42E42E4B42E83E50E9407
:104730006734882321F00E94ED334B015C01E114C2
:10474000F10411F4109209040E9474582B013C01E9
:10475000EE2069F0E9ECF6E084918F010F5F1F4FC6
:10476000882309F499C50E94EB35F801F5CFE3EFF2
:10477000F6E084917F013FEFE31AF30A882321F0EA
:104780000E94EB35F701F5CFC501B4010E94DBA50E
:10479000072E000C880B990B0E9433A06AAF7EABEA
:1047A0008EAF23969FAF2397D301C20180549B42C3
:1047B000AE4FBF4FCC57DF4F88839983AA83BB830B
:1047C000C458D0400E94455C8FE78093080481E084
:1047D00080930002E7964CAE5DAE6EAE7FAEE7977B
:1047E000C458DF4F488259826A827B82CC57D040BE
:1047F000E3961FAEE397C058DF4F188219821A82E2
:104800001B82C058D04067961FAE679790E42B96E6
:104810009FAF2B97ACE12F96AFAF2F97B6E46B9677
:10482000BFAF6B9763961FAE63976F961FAE6F9780
:10483000A3961FAEA397A7961FAEA797AF961CAEE1
:104840001DAE1EAE1FAEAF97AB961CAE1DAE1EAE1C
:104850001FAEAB97C12CD12C76012FE730E040E0A2
:1048600050E02AAB3BAB4CAB5DAB3FE7832E912CCA
:10487000A12CB12CEB961CAE1DAE1EAE1FAEEB975D
:1048800031E0E2963FAFE29728961FAE1EAE289722
:1048900010E0212C312C00E0E0964FADE097042E83
:1048A000000C550BE1965FAF4EAFE197809100028F
:1048B000882309F4FDC00E9474586EA77FA788ABB7
:1048C00099AB8091FF03882309F4D4C00E94055D51
:1048D00010911004209011043090120400911304E0
:1048E000212F322D432D502F63966FAD63976F9616
:1048F0007FAD6F97A3968FADA397A7969FADA79710
:104900000E942DA087FF0CC063961FAF63976F9620
:104910002FAE6F97A3963FAEA397A7960FAFA7971B
:10492000212F322D432D502F67966FAD67972B9611
:104930007FAD2B972F968FAD2F976B969FAD6B9773
:104940000E94BDA6181664F467961FAF67972B9652
:104950002FAE2B972F963FAE2F976B960FAF6B977F
:10496000E2965FADE2972AAD3EA94EAD552309F41C
:1049700060C023965FAD2397612F722D832D902FFA
:104980000E94BDA618160CF075C08EA59FA5A8A9FB
:10499000B9A984199509A609B709C757DF4F8883B4
:1049A0009983AA83BB83C958D04088589341A109F1
:1049B000B109B7FD5FC0D501C4012AA93BA94CA923
:1049C0005DA9821B930BA40BB50BB595A795979585
:1049D000879580930804C757DF4F88819981AA8102
:1049E000BB81C958D040EB968CAF9DAFAEAFBFAF87
:1049F000EB979AAD63969FAF6397AEA96F96AFAFF3
:104A00006F97BEADA396BFAFA3972396EFAD239745
:104A1000A796EFAFA7972EA53FA548A959A9E79656
:104A20002CAF3DAF4EAF5FAFE797E2961FAEE29778
:104A300021C023965FAD2397612F722D832D902F78
:104A40000E942DA087FF16C08EA59FA5A8A9B9A971
:104A5000E7962CAD3DAD4EAD5FADE797821B930B56
:104A6000A40BB50BAC01BD01485853416109710954
:104A700077FF85C720E030E040EA51E46AAD7EA9C7
:104A80008EAD23969FAD23970E9497A49B01AC0106
:104A9000612F722D832D902F0E94BDA618167CF4D5
:104AA000E5E5F6E084918F010F5F1F4F811103C090
:104AB0000E94455CF1C30E94EB35F801F3CF8EA54F
:104AC0009FA5A8A9B9A9C458DF4F288139814A8177
:104AD0005B81CC57D040821B930BA40BB50BB7FD69
:104AE0009FC00E9466598AE00E94EB358EA59FA563
:104AF000A8A9B9A98053984FAF4FBF4FC458DF4FF3
:104B000088839983AA83BB83CC57D040E3969FAD1B
:104B1000E397911168C0C058DF4F288139814A81DD
:104B20005B81C058D040612F722D832D902F0E9441
:104B3000BDA618160CF040C020E030E040E050E484
:104B4000612F722D832D902F0E9497A4C058DF4FA4
:104B5000688379838A839B83C058D0402EA53FA564
:104B600048A959A920543B424E4F5F4FCC57DF4FC5
:104B7000288339834A835B83C458D04020E030E0E7
:104B800040EE50E46AAD7EA98EAD23969FAD23978B
:104B90000E9496A49B01AC0181E0E3968FAFE3975E
:104BA000612F722D832D902F0E94BDA61816C4F17F
:104BB000E3961FAEE39734C08EA59FA5A8A9B9A917
:104BC000CC57DF4F288139814A815B81C458D0405E
:104BD000821B930BA40BB50BB7FD22C044E356E038
:104BE00066E476E01AC020E030E040EA51E46AADC5
:104BF0007EA98EAD23969FAD23970E9496A49B011C
:104C0000AC01612F722D832D902F0E942DA087FF64
:104C100007C041E156E064E276E080E00E94249320
:104C20008EA59FA5A8A9B9A9880F991FAA1FBB1F68
:104C3000E7962CAD3DAD4EAD5FADE797821B930B74
:104C4000A40BB50B84199509A609B70981389F44AF
:104C5000A241B10568F0E3EFF5E084918F010F5FA9
:104C60001F4F882309F424CF0E94EB35F801F5CFBC
:104C700028964EAD5FAD2897E1968EAD9FADE1973A
:104C8000841795070CF012CEE6E9F5E084918F01C8
:104C90000F5F1F4F882321F00E94EB35F801F6CFFC
:104CA000B701A60182E895E00E942C808AE00E946C
:104CB000EB35AB964CAD5DAD6EAD7FADAB978EE693
:104CC00095E00E942C808AE00E94EB35AF964CADB7
:104CD0005DAD6EAD7FADAF978AE595E00E942C800B
:104CE0008AE00E94EB35EC969FADEC97992309F48E
:104CF000D3C2C092380ED092390EE0923A0EF092A2
:104D00003B0E2CEA35EC47E25EE3AB966CAD7DAD35
:104D10008EAD9FADAB970E9492A06093340E7093BE
:104D2000350E8093360E9093370E2CEA35EC47E221
:104D30005EE3AF966CAD7DAD8EAD9FADAF970E943B
:104D400073A560933C0E70933D0E80933E0E90933E
:104D50003F0EA2C284918F010F5F1F4F882321F065
:104D60000E94EB35F801F6CFE7E0F7E084918F0180
:104D70000F5F1F4F882309F48FC20E94EB35F801A3
:104D8000F5CF0E94FC6C88C281E00E94EA300E944C
:104D9000F88582C280E00E94EA300E94F8857CC2D9
:104DA00083E50E942034882349F00E94DE33082FD7
:104DB000811106C080E00E94DE3202C000915704DB
:104DC0008091F60D9091F70DA091F80DB091F90D2D
:104DD00089839A83AB83BC838091FA0D9091FB0DFC
:104DE000A091FC0DB091FD0D8D839E83AF83B8879C
:104DF0008091FE0D9091FF0DA091000EB091010EDB
:104E000089879A87AB87BC878091D3039091D4031D
:104E1000892B09F462C083E40E942034811122C7E7
:104E20005CC0F701AEA5EA0FF11DEE0FFF1FEE0FFC
:104E3000FF1FE952FC4F9080A180B280C380292DD2
:104E40003A2D4B2D5C2D682D7D2D8EA99EAD0E9497
:104E5000BDA6181624F4892CDA2CBEAACEAE292DB4
:104E60003A2D4B2D5C2DB3018AA99AAD0E942DA03D
:104E700087FF04C0692C7A2CBAAACAAEBEA5B1506D
:104E8000BEA7BF3F71F61111FDC693014AA95AADE5
:104E9000682D7D2D8EA99EAD0E9497A420E030E064
:104EA00040E05FE30E9492A0A20191010E9497A4BA
:104EB0004B015C012DEB37E346E855EB0E94BDA6A4
:104EC00087FDEBC62DEB37E346E855E3C501B4019A
:104ED0000E942DA018160CF4E0C686E50E9420342E
:104EE000882341F08091D3039091D403892B11F052
:104EF0000E94DA38802F0E94DE32011103C0E3E6FF
:104F0000F0E210C0809157048111F9CFE4E2F7E09C
:104F100084918F010F5F1F4F882389F30E94EB3527
:104F2000F801F6CF84918F010F5F1F4F882321F086
:104F30000E94EB35F801F6CF80915704811103C030
:104F400061EF72E002C06DEE72E086E197E00E94D0
:104F500062808AE00E94EB354CE050E066EF7DE035
:104F6000CE0101960E947BA7892B09F495C10E946E
:104F7000F88592C189E40E946734882321F00E9459
:104F8000BD33062F01C00FEF8AE40E9467348823E7
:104F900021F00E94BD33162F01C01FEF8AE50E9449
:104FA0002034F82E811105C081E50E942034D82ECE
:104FB00001C0D12C07FD02C017FF03C0E9E6F0E2F3
:104FC00005C0F1101AC0D11018C0F8CF84918F011C
:104FD0000F5F1F4F882321F00E94EB35F801F6CFB9
:104FE000E2E6F7E084918F010F5F1F4F882309F4F9
:104FF00053C10E94EB35F801F5CF033018F0E9E614
:10500000F0E206C01330D8F716C00E94EB35F80165
:1050100084918F010F5F1F4F8111F7CFE3E4F7E019
:1050200084918F010F5F1F4F882309F435C10E94BF
:10503000EB35F801F5CFE02E000FFF08012F110F1F
:10504000110B0E94ED33D701AA0FBB1FDD2081F0A9
:10505000FD01EE0DFF1DE00FF11FEE0FFF1FEE0F24
:10506000FF1FE952FC4F208131814281538103C0EF
:1050700020E030E0A901EA0EFB1E0E0D1F1D000FFF
:10508000111F000F111F09521C4F0E9497A4D80135
:105090006D937D938D939C931397FEC00E94EB7349
:1050A000FBC00E94034BF8C083E50E942034882394
:1050B00019F00E94DE3381270E94E846EDC081E0AE
:1050C00080939D040E94906E10929D04882309F4A1
:1050D000E3C0E3E6F0E284918F010F5F1F4F882366
:1050E00021F00E94EB35F801F6CFE2E8F7E0849179
:1050F0008F010F5F1F4F882309F4CEC00E94EB354C
:10510000F801F5CF8AE50E946734882309F438C096
:105110000E94ED336B017C0120E030E040EA51EC6D
:105120000E94BDA687FD13C020E030E040EA51E4B4
:10513000C701B6010E942DA018164CF0C092F20DC6
:10514000D092F30DE092F40DF092F50DA5C0E9E6D2
:10515000F0E284918F010F5F1F4F81110DC0EFE9C5
:10516000F7E084918F010F5F1F4F882309F494C0EB
:105170000E94EB35F801F5CF0E94EB35F801E9CF3D
:10518000E3E6F0E284918F010F5F1F4F882321F047
:105190000E94EB35F801F6CFE0E9F7E084918F014A
:1051A0000F5F1F4F882321F00E94EB35F801F6CFE7
:1051B0004091F20D5091F30D6091F40D7091F50D49
:1051C0008DE897E00E942C808AE00E94EB3564C055
:1051D00081E08093450283E50E946734882339F09B
:1051E0000E94DE33811158C00E94E78D55C083E5CF
:1051F0000E942034F7CF0E94B1914EC0F090F60487
:105200000E94FC6C1091570480E00E94DE32FF2067
:1052100029F1E3E6F0E284918F010F5F1F4F8823AD
:1052200021F00E94EB35F801F6CF84E50E94EB35C2
:105230006F2D70E080E090E04AE00E94AD3780E2A0
:105240000E94EB35EEECF7E084918F010F5F1F4F6A
:10525000882311F10E94EB35F801F6CF1092B10DC1
:10526000812F0E94DE32E3E6F0E284918F010F5F2E
:105270001F4F882321F00E94EB35F801F6CF609193
:10528000B10D70E08CEB97E00E9449808AE00E94AB
:10529000EB3502C00E94B19110927E060E94CA8D29
:1052A00041C50E9473340E94D187F6CF0E94ED332E
:1052B0000E94DBA5709315046093140480E00E94A3
:1052C000FB5B0E94ED3320E030E04AEA52E40E94AA
:1052D0002DA018161CF00E94E88002C00E948A804F
:1052E0000E944A9B81E0809300021AAA1BAA1CAA72
:1052F0001DAA6A961CAE1DAE1EAE1FAE6A971EA6F4
:105300002B961FAE2B975CE32F965FAF2F978CE108
:105310006B968FAF6B9796E463969FAF6397C12CA4
:10532000D12C20E8E22E3FEBF32E812C912C54015E
:105330006091140470911504072E000C880B990BD2
:105340000E9433A0162F072F782E692E262F372F75
:10535000482F592FB601C7010E942DA08823E1F0E4
:1053600020911004309111044091120450911304C3
:10537000612F702F872D962D0E942DA0881F8827C2
:10538000881F8EA72796AFAD2797AA2349F08823B9
:1053900039F08091000280CF1C2D0D2D7E2C6F2CBA
:1053A0000E9474586B017C01DC01CB016A962CAD24
:1053B0003DAD4EAD5FAD6A97821B930BA40BB50B51
:1053C000B7FD3DC0D701C60188519C4FAF4FBF4FBD
:1053D0006A968CAF9DAFAEAFBFAF6A970E94665919
:1053E000E8EEF2E084912F019FEF491A590A8823D1
:1053F00021F00E94EB35F201F5CF81149104A10454
:10540000B104B9F0D501C40188519C4FAF4FBF4FD3
:10541000BC01CD016C197D098E099F0928EE33E08E
:1054200040E050E00E9439A4CA01B9010E944F38FF
:1054300003C08FE30E94EB358AE00E94EB350E94A7
:10544000D17B0E9474586093830670938406809386
:10545000850690938606A0911004AAAFB09111041E
:10546000BEABE0911204EEAFF09113042396FFAFB0
:1054700023979D01AF01612F702F872D962D0E94DC
:1054800096A41B012C0120E030E0A9010E94BDA6DA
:1054900087FF04C057FA509457F850948114910430
:1054A000A104B10459F420E030E040E85FE3C20118
:1054B000B1010E942DA087FF0DC00AC020E030E09E
:1054C00040E850E4C201B1010E94BDA6181614F4D0
:1054D000460157012EA5222309F44CC08AA99BA995
:1054E000ACA9BDA9892B8A2B8B2B61F0D701C601F2
:1054F0002AA93BA94CA95DA9821B930BA40BB50B50
:10550000B7FD38C02AAD3EA94EAD23965FAD2397B7
:105510002B966FAD2B972F967FAD2F976B968FADF8
:105520006B9763969FAD63970E9496A420E030E04E
:1055300040EC5FE30E942DA087FD2BCFD701C60171
:10554000805A9541AF4FBF4F8AAB9BABACABBDAB65
:105550009AAD2B969FAF2B97AEA92F96AFAF2F97F3
:10556000BEAD6B96BFAF6B972396EFAD2397639657
:10557000EFAF639780910002882309F40ACF81146A
:105580009104A104B10429F4C12ED02EE72CF62CED
:10559000CFCEF8EECF1AF3E0DF0AE108F108C81821
:1055A000D908EA08FB08F7FEF4CEEECF0E94ED33EF
:1055B0000E94DBA5663971050CF07AC170930F0467
:1055C00060930E040E94B15B0E94ED3320E030E056
:1055D00040EA50E40E94BDA6181614F40E948A8086
:1055E00081E0809300028091B10D809309041AAA92
:1055F0001BAA1CAA1DAA6A961CAE1DAE1EAE1FAE2B
:105600006A971EA62B961FAE2B972CE32F962FAFD3
:105610002F973CE16B963FAF6B9746E463964FAF95
:105620006397C12CD12C80E8E82E9FEBF92E812CBA
:10563000912C540160910E0470910F04072E000C00
:10564000880B990B0E9433A0162F072F782E692EF6
:10565000262F372F482F592FB601C7010E942DA0A2
:105660008823E1F020910A0430910B0440910C044E
:1056700050910D04612F702F872D962D0E942DA023
:10568000881F8827881F8EA727965FAD27975523E9
:1056900049F0882339F080910002FECD1C2D0D2D9C
:1056A0007E2C6F2C0E9474586B017C01DC01CB01B5
:1056B0006A962CAD3DAD4EAD5FAD6A97821B930BE4
:1056C000A40BB50BB7FD3DC0D701C60188519C4F57
:1056D000AF4FBF4F6A968CAF9DAFAEAFBFAF6A976B
:1056E0000E946659ECEEF2E084912F019FEF491A77
:1056F000590A882321F00E94EB35F201F5CF81147D
:105700009104A104B104B9F0D501C4018053984FAC
:10571000AF4FBF4FBC01CD016C197D098E099F09A8
:1057200028EE33E040E050E00E9439A4CA01B901FC
:105730000E944F3803C08FE30E94EB358AE00E943D
:10574000EB350E94D17B0E9474586093830670935E
:1057500084068093850690938606A0910A04AAAFDA
:10576000B0910B04BEABE0910C04EEAFF0910D04D0
:105770002396FFAF23979D01AF01612F702F872DD7
:10578000962D0E9496A41B012C0120E030E0A90177
:105790000E94BDA687FF04C057FA509457F8509452
:1057A00081149104A104B10459F420E030E040E8F0
:1057B0005FE3C201B1010E942DA087FF0DC00AC0A6
:1057C00020E030E040E450E4C201B1010E94BDA6F7
:1057D000181614F4460157012EA5222309F44CC0D3
:1057E0008AA99BA9ACA9BDA9892B8A2B8B2B61F017
:1057F000D701C6012AA93BA94CA95DA9821B930B1D
:10580000A40BB50BB7FD38C02AAD3EA94EAD23960B
:105810005FAD23972B966FAD2B972F967FAD2F976C
:105820006B968FAD6B9763969FAD63970E9496A41E
:1058300020E030E040EC5FE30E942DA087FD2BCFFD
:10584000D701C601805A9541AF4FBF4F8AAB9BAB82
:10585000ACABBDAB9AAD2B969FAF2B97AEA92F9655
:10586000AFAF2F97BEAD6B96BFAF6B972396EFADE3
:1058700023976396EFAF639780910002882309F422
:105880000ACF81149104A104B10429F4C12ED02EB1
:10589000E72CF62CCFCEF0EDCF1AF7E0DF0AE108C7
:1058A000F108C818D908EA08FB08F7FEF4CEEECFD5
:1058B00066E970E083CE0E94FC6C88E5C1D788233E
:1058C00031F05F9A8091E50D8E7F8093E50D89E53B
:1058D000B7D7882331F08A9A8091E50D8D7F809328
:1058E000E50D8AE5ADD7882359F0809108018095B0
:1058F0008170809306018091E50D8B7F8093E50D8B
:1059000085E49ED7882309F4C7CC129AC5CC65D705
:1059100020E030E040E050EC0E942DA087FD10C058
:105920005CD720E030E040E050E40E94BDA61816AD
:1059300014F053D709C060E070E080E090E404C048
:1059400060E070E080E090EC209114073091150742
:105950004091160750911707E091E50DE2FF9CCCAE
:1059600000910604109107040E9492A00E94DBA5FA
:10597000600F711F70930704609306048DCC289606
:105980004EAD5FAD2897452B09F439C1EB964CAC71
:105990005DAC6EAC7FACEB97480E591E6A1E7B1E49
:1059A000EB962CAD3DAD4EAD5FADEB97281B390BA3
:1059B0004A0B5B0BCA01B9012AA93BA94CA95DA9F5
:1059C0000E942AA4A30192010E945BA4D501C401F4
:1059D000820F931FA41FB51F84319105A105B10546
:1059E000FCF04C015D018C3E9105A105B1052CF048
:1059F000ABEE8A2E912CA12CB12C40E88416910498
:105A0000A104B104DCF08EEF90E0A0E0B0E08819D2
:105A10009909AA09BB098AAB9BABACABBDAB12C061
:105A2000F4E18F2E912CA12CB12C24E130E040E048
:105A300050E02AAB3BAB4CAB5DAB04C08AAA9BAA3F
:105A4000ACAABDAAB501A40181EC96E00E94239BFB
:105A50004AA95BA96CA97DA98CEB96E00E94239BC7
:105A600067964FAD67972B965FAD2B972F966FADCF
:105A70002F976B967FAD6B9785EB96E00E942C80FD
:105A800063964FAD63976F965FAD6F97A3966FADBB
:105A9000A397A7967FADA7978EEA96E00E942C80E9
:105AA00028964EAD5FAD2897433051050CF4A7C042
:105AB0006AA97BA98CA99DA90E9433A020E030E0AF
:105AC00040E850E40E9492A06B017C0167962FADE4
:105AD00067972B963FAD2B972F964FAD2F976B96D1
