:100000000C9403150C9434150C9434150C9434157D
:100010000C9434150C9434150C9434150C9434153C
:100020000C9434150C9434150C9434150C9434152C
:100030000C9434150C9434150C9434150C9434151C
:100040000C9434150C94519E0C9434150C94341566
:100050000C9434150C9434150C944A780C942A742E
:100060000C9434150C949B3B0C9434150C9434155F
:100070000C9434150C9434150C9434150C943415DC
:100080000C9463A00C9434150C9434150C94341512
:100090000C9434150C9434150C9434150C943415BC
:1000A0000C9434150C9434150C9436A00C9434151F
:1000B0000C9434150C9434150C9434150C9409A03C
:1000C0000C9434150C9434150C9434150C9434158C
:1000D0000C9434150C9434150C9434150C9434157C
:1000E0000C94341543724672357239723F727D72C8
:1000F0004A724E72547258725C72627266726A729E
:100100007D72707274727872107315731A7324731F
:100110002E73A77338734073487352735C7366739E
:1001200075737F73A773897393739D73A8767677BE
:100130007B77A677B2778E7793779876084AD73B06
:100140003BCE016E84BCBFFDC12F3D6C74319ABDA6
:1001500056833DDA3D00C77F11BED9E4BB4C3E91CA
:100160006BAAAABE000000803F05A84CCDB2D44EB9
:10017000B93836A9020C50B9918688083CA6AAAABB
:100180002ABE000000803F004E414E494E4954595E
:10019000494E46CDCCCC3D0AD7233C17B7D1387752
:1001A000CC2B329595E6241FB14F0A000020410068
:1001B00000C84200401C4620BCBE4CCA1B0E5AAEB2
:1001C000C59D744C4556454C494E4700434F4D4DD7
:1001D000554E49434154494F4E0044525952554E91
:1001E000004552524F525300494E464F0045434836
:1001F0004F0047322F473320626164207061726183
:100200006D65746572730A004D65736820706F695F
:100210006E742063616E6E6F742062652072657308
:100220006F6C7665640A005072696E742074696D33
:10023000653A200046696C616D656E742075736562
:10024000643A200053746174733A20002C204C6F80
:100250006E67657374206A6F623A2000546F746130
:100260006C2074696D653A200053746174733A2090
:10027000002C204661696C65643A20002C20466998
:100280006E69736865643A20005072696E74733ADF
:10029000200053746174733A2000ED01E801E1011C
:1002A000DA01CC01C3016F66660044454255473A06
:1002B000004B494C4C45442E20004D3131332053E6
:1002C000006F6B0020573A0020573A0054484552BF
:1002D0004D414C5F50524F54454354494F4E00419D
:1002E00055544F5245504F52545F53445F535441FD
:1002F00054555300454D455247454E43595F504173
:100300005253455200434153455F4C494748545F5F
:100310004252494748544E45535300544F47474C67
:10032000455F4C494748545300534F465457415238
:10033000455F504F574552004255494C445F504528
:100340005243454E54004C4556454C494E475F4438
:10035000415441005A5F50524F4245004155544F5D
:100360004C4556454C005052494E545F4A4F42004E
:1003700050524F4752455353004155544F524550E8
:100380004F52545F54454D5000564F4C554D4554B7
:1003900052494300454550524F4D00534552494143
:1003A0004C5F584F4E5F584F4646004649524D5796
:1003B0004152455F4E414D453A4D61726C696E2028
:1003C0004A313850455F3139313030375F3132345E
:1003D000305F484120534F555243455F434F44459A
:1003E0005F55524C3A68747470733A2F2F67697472
:1003F0006875622E636F6D2F6168617273686163E7
:100400002F46574A756C6961323031384D61726CD4
:10041000696E2050524F544F434F4C5F56455253D4
:10042000494F4E3A312E30204D414348494E455FA9
:10043000545950453A4A756C69612050726F204496
:1004400075616C2041424C204558545255444552E8
:100450005F434F554E543A3220555549443A613521
:100460003264623563342D373535332D3436386296
:100470002D626138302D32373366386461396562F8
:1004800037350A002F2F20007A5F70726F62653A4D
:1004900020007A5F6D61783A2000795F6D61783A6B
:1004A0002000785F6D696E3A20005265706F72743B
:1004B000696E6720656E6473746F70207374617405
:1004C00075730A00205400205200416363656C6517
:1004D000726174696F6E3A2050003F4A206F7574E4
:1004E000206F662072616E67652028302E303120C3
:1004F000746F20302E33290A00546F6F20666172AA
:100500002066726F6D207265666572656E63652028
:10051000706F696E740A00205A002059005800203C
:10052000204D61783A2000205A00205900580020C0
:10053000204D696E3A20004F6E20004F66660053D2
:100540006F667420656E6473746F70733A20004830
:100550006F74656E64206F6666736574733A00200D
:10056000466C6F773A2000000136372603FFFFFF05
:10057000353C3D38FF0FFFFF312E303EFF13FFFFAC
:10058000FF28390C0809FFFFFF1A1C18FFFF2A2457
:10059000221EFFFF2C08440AFF4307FF454D323758
:1005A000322073746570203131205431205A2D6F00
:1005B00066667365743A20004D3237322073746575
:1005C000702031302064656C205A3A20004D32375B
:1005D0003220737465702039205A3A20004D32372A
:1005E0003220737465702038205A323A20004D3220
:1005F000373220737465702037205A3A20004D320C
:10060000373220737465702036205A3A20004D32FC
:10061000373220737465702035205A313A2000201B
:100620005A3A200020593A20004D32373220737454
:100630006570203420583A20004D323732207374D0
:1006400065702033205A3A20004D323732207361D2
:1006500076653A200020643A0020693A0020703A1A
:1006600000496E76616C69642065787472756465A2
:10067000720A0043290A0061626C656420286D6972
:100680006E2074656D702000436F6C642065787413
:100690007275646573206172652000236465666904
:1006A0006E652044454641554C545F4B6420002301
:1006B000646566696E652044454641554C545F4B00
:1006C00069200023646566696E652044454641558E
:1006D0004C545F4B702000504944204175746F7436
:1006E000756E652066696E69736865642120507552
:1006F0007420746865206C617374204B702C204BDF
:100700006920616E64204B6420636F6E7374616E48
:1007100074732066726F6D2062656C6F7720696EEE
:10072000746F20436F6E66696775726174696F6E6E
:100730002E680A00504944204175746F74756E65C7
:10074000206661696C6564212074696D656F7574DC
:100750000A0042454420544845524D414C205255D0
:100760004E4157415900546865726D616C20527555
:100770006E6177617900453120544845524D414CB6
:100780002052554E41574159004532205448455258
:100790004D414C2052554E4157415900426564200D
:1007A00068656174696E67206661696C656400489C
:1007B000656174696E67206661696C6564004531C6
:1007C0002048656174696E67206661696C656400C4
:1007D00045322048656174696E67206661696C65A1
:1007E0006400504944204175746F74756E652066CD
:1007F00061696C6564212054656D70657261747502
:10080000726520746F6F20686967680A00204B6406
:100810003A2000204B693A2000204B703A20000A11
:1008200020436C617373696320504944200A00209F
:1008300054753A2000204B753A2000206D61783ABB
:100840002000206D696E3A200020643A200020626A
:100850006961733A2000504944204175746F747582
:100860006E65206661696C65642120426164206563
:1008700078747275646572206E756D6265720A00B7
:10088000504944204175746F74756E6520737461AE
:1008900072740A004E6F2063617365206C6967682B
:1008A000740A003A200050726F6265205A204F6629
:1008B00066736574003F5A206F7574206F662072EE
:1008C000616E676520282D323020746F2032302908
:1008D0000A003C3C3C2067636F64655F540A00205B
:1008E0003A2041465445520A0020206375727265D1
:1008F0006E745F706F736974696F6E3D00203A208B
:100900004245464F52450A00202063757272656E5B
:10091000745F706F736974696F6E3D003E3E3E2078
:1009200067636F64655F5428002569730025696DEE
:1009300020256973002569682025696D2025697364
:1009400000256964202569682025696D2025697363
:100950000025697920256964202569682025696D4D
:1009600020256973002C20002C2000203A20737968
:100970006E635F706C616E5F706F736974696F6EC8
:100980000A00202063757272656E745F706F736900
:1009900074696F6E3D00656E7175657565696E672A
:1009A0002022004C696E65204E756D62657220696B
:1009B00073206E6F74204C617374204C696E6520D7
:1009C0004E756D6265722B312C204C617374204C16
:1009D000696E653A20004B494C4C45442E2000502E
:1009E00072696E7465722073746F707065642064D0
:1009F000756520746F206572726F72732E20466960
:100A00007820746865206572726F7220616E642050
:100A1000757365204D39393920746F207265737490
:100A20006172742E202854656D70657261747572E0
:100A3000652069732072657365742E205365742078
:100A40006974206166746572207265737461727472
:100A5000696E67290A004E6F20436865636B737582
:100A60006D2077697468206C696E65206E756D62A3
:100A700065722C204C617374204C696E653A2000BD
:100A8000636865636B73756D206D69736D61746305
:100A9000682C204C617374204C696E653A20004DBF
:100AA0003131300020496E76616C6964206578745C
:100AB00072756465722000000000000000000000F4
:100AC0000000000000B9430080C5430000C8430A8D
:100AD00020736F66745F656E6473746F705F6D61B1
:100AE00078203D20000A20736F66745F656E647322
:100AF000746F705F6D696E203D20000A20706F7307
:100B00006974696F6E5F7368696674203D200020A8
:100B1000617869733A0A20686F6D655F6F66667306
:100B20006574203D2000466F7220003C3C3C2064F0
:100B30006F5F626C6F636B696E675F6D6F76655F29
:100B4000746F0A003E3E3E20646F5F626C6F636BA1
:100B5000696E675F6D6F76655F746F00203A207312
:100B6000657475705F666F725F656E6473746F70C5
:100B70005F6F725F70726F62655F6D6F76650A009E
:100B8000202063757272656E745F706F736974692B
:100B90006F6E3D00203A20636C65616E5F75705F1B
:100BA00061667465725F656E6473746F705F6F7297
:100BB0005F70726F62655F6D6F76650A00202063FB
:100BC000757272656E745F706F736974696F6E3D74
:100BD00000646F5F70726F62655F72616973652830
:100BE000006465706C6F793A2000203A2073657458
:100BF0005F70726F62655F6465706C6F7965640ABF
:100C000000202063757272656E745F706F73697413
:100C1000696F6E3D00203A203C3C3C20646F5F7061
:100C2000726F62655F6D6F76650A00202063757272
:100C300072656E745F706F736974696F6E3D0020CA
:100C40003A203E3E3E20646F5F70726F62655F6D5A
:100C50006F76650A00202063757272656E745F702E
:100C60006F736974696F6E3D0072657365745F625E
:100C700065645F6C6576656C0A002028646F6E653C
:100C8000290A004578747261706F6C617465205B2D
:100C90000042696C696E656172204C6576656C69AD
:100CA0006E6720477269643A0A0024F4D43050C356
:100CB0008E20C2A24017828B7011127A910D816C26
:100CC000D90AA861E108C7586607615143061E4B5F
:100CD0005D05C145A7041A411104093D9803713906
:100CE00031034036DB0265339102D4305402802E4A
:100CF0001D02632CEE01752AC501B028A001102742
:100D000081018F2564012B244B01E0223401AC21A9
:100D10001F018D200D01801FFC00841EED00971D1A
:100D2000DF00B81CD200E61BC600201BBC00641A02
:100D3000B200B219A8000A19A0006A189900D117C8
:100D4000910040178B00B516840031167E00B31554
:100D500079003A157300C7146F0058146A00EE1337
:100D600066008813630025135E00C7125B006C12D7
:100D7000570015125400C111510070114F0021117C
:100D80004B00D61049008D10470046104400021059
:100D90004200C00F4000800F3E00420F3C00060F93
:100DA0003B00CB0E3800930E37005C0E3500270E4B
:100DB0003400F30D3200C10D3100900D3000600D94
:100DC0002E00320D2D00050D2C00D90C2B00AE0C81
:100DD0002900850C29005C0C2700350C27000E0C1F
:100DE0002600E80B2400C40B2400A00B23007D0B7D
:100DF00023005A0B2100390B2100180B2000F80AA0
:100E00001F00D90A1E00BB0A1E009D0A1D00800A91
:100E10001D00630A1C00470A1B002C0A1B00110A54
:100E20001A00F7091A00DD091900C4091900AB09F5
:100E30001900920917007B091800630917004C0973
:100E4000160036091600200916000A091500F508D3
:100E50001500E0081400CC081400B8081400A40819
:100E60001400900813007D0812006B081300580846
:100E7000120046081200340811002308110012085D
:100E8000110001081100F0071000E0071000D00762
:100E90001000C0071000B0070F00A1071000910755
:100EA0000E0083070F0074070F0065070E00570739
:100EB0000E0049070E003B070D002E070E0020070D
:100EC0000D0013070D0006070D00F9060C00ED06D6
:100ED0000D00E0060C00D4060C00C8060C00BC0691
:100EE0000C00B0060C00A4060B0099060C008D0641
:100EF0000B0082060B0077060B006C060B006106E8
:100F00000A0057060B004C060A0042060A00380683
:100F10000A002E060A0024060A001A060A00100615
:100F2000090007060A00FD050900F4050900EB05A4
:100F30000900E2050900D9050900D0050900C70527
:100F40000900BE050900B5050800AD050800A505A6
:100F500009009C050800940508008C05080084051C
:100F600008007C050800740508006C05070065058D
:100F700008005D050700560508004E0507004705F7
:100F800007004005080038050700310507002A055D
:100F90000700230507001C050600160507000F05BE
:100FA00007000805060002050700FB040600F5041B
:100FB0000700EE040600E8040600E2040700DB0474
:100FC0000600D5040600CF040600C9040600C304C9
:100FD0000600BD040600B7040600B1040500AC0419
:100FE0000600A6040600A00405009B040600950464
:100FF0000500900406008A040500850405008004AD
:1010000006007A04050075040500700405006B04F1
:10101000050066040500610405005C040500570432
:101020000500520405004D04050048040500430472
:1010300005003E0404003A040500350405003004B0
:1010400004002C04050027040400230405001E04EA
:1010500004001A04040016040500110404000D0421
:101060000400090405000404040000040400FC0357
:101070000400F8030400F4030400F0030400EC038C
:101080000400E8030400E4030400E0030400DC03BC
:101090000400D8030400D4030400D0030400CC03EC
:1010A0000400C8030300C503030024F404D9201B73
:1010B000C40C5C0E9804C4095F0265077101F40555
:1010C000F900FB04B30048048700C103690058031A
:1010D000550003034500BE023A008402310053026A
:1010E0002A002902250004022000E4011C00C80196
:1010F0001900AF0117009801140084011300710159
:1011000010006101100051010E0043010D00360175
:101110000B002B010B0020010B00150109000C0135
:10112000090003010800FB000800F3000800EB00C1
:101130000700E4000600DE000600D8000600D2002A
:101140000600CC000500C7000500C2000500BD0078
:101150000400B9000400B5000400B1000400AD00B3
:101160000400A9000400A5000300A20003009F00E2
:1011700004009B0003009800030095000200930008
:101180000300900003008D0002008B000300880024
:1011900002008600020084000300810002007F003C
:1011A00002007D0002007B0002007900020077004F
:1011B000010076000200740002007200010071005C
:1011C00002006F0002006D0001006C0002006A0066
:1011D000010069000200670001006600010065006F
:1011E0000100640002006200010061000100600073
:1011F00001005F0002005D0001005C0001005B0077
:1012000001005A0001005900010058000100570078
:101210000100560001005500010054000100530078
:101220000000530001005200010051000100500075
:1012300001004F0001004E0000004E0001004D0073
:1012400001004C0001004B0000004B0001004A006F
:10125000010049000100480000004800010047006B
:101260000100460000004600010045000000450066
:10127000010044000100430000004300010042005F
:101280000000420001004100000041000100400058
:1012900001003F0000003F0001003E0000003E0052
:1012A00001003D0000003D0001003C0000003C004A
:1012B00000003C0001003B0000003B0001003A0040
:1012C00000003A0001003900000039000100380038
:1012D000000038000000380001003700000037002F
:1012E0000100360000003600000036000100350025
:1012F000000035000000350001003400000034001B
:10130000000034000100330000003300000033000F
:101310000100320000003200000032000100310004
:1013200000003100000031000100300000003000FA
:101330000000300001002F0000002F0000002F00EF
:1013400000002F0001002E0000002E0000002E00E3
:1013500001002D0000002D0000002D0000002D00D8
:1013600001002C0000002C0000002C0000002C00CC
:1013700001002B0000002B0000002B0000002B00C0
:1013800001002A0000002A0000002A0000002A00B4
:1013900001002900000029000000290000002900A8
:1013A000000029000100280000002800000028009B
:1013B000000028000000280001002700000027008E
:1013C0000000270000002700000027000100260081
:1013D0000000260000002600000026000000260075
:1013E0000100250000002500000025000000250068
:1013F000000025000000250001002400000024005A
:10140000000024000000240000002400010023004C
:101410000000230000002300000023000000230040
:101420000000230000002300010022000000220031
:101430000000220000002200000022000000220024
:101440000100210000002100000021000000210017
:101450000000210000002100000021000100200008
:1014600000002000000020000000200000002000FC
:1014700000002000000020000000200001001F00EC
:1014800000001F0000001F0000001F0000001F00E0
:1014900000001F0000001F0001001E0000001E00D1
:1014A00000001E0000001E0000003930000033253F
:1014B000000087190000B00F0000DB080000BD0429
:1014C0000000740200003F010000526573656E6405
:1014D0003A200020746F6F206C6F6E6720657874FF
:1014E000727573696F6E2070726576656E7465646F
:1014F0000A0020636F6C6420657874727573696F7D
:101500006E2070726576656E7465640A006275732C
:10151000793A2070617573656420666F7220696E18
:101520007075740A00627573793A2070617573651D
:101530006420666F7220757365720A006275737934
:101540003A2070726F63657373696E670A004B4966
:101550004C4C45442E20004B494C4C206361757324
:10156000656420627920746F6F206D7563682069EF
:101570006E6163746976652074696D65202D2063E2
:10158000757272656E7420636F6D6D616E643A2062
:10159000005072696E7465722068616C7465642EA7
:1015A000206B696C6C28292063616C6C6564210A6E
:1015B00000000020C20080C5430000C8433C3C3C02
:1015C000207365745F617869735F69735F61745FCD
:1015D000686F6D652800203A200A0020206375722C
:1015E00072656E745F706F736974696F6E3D005DD4
:1015F000203D20003E20686F6D655F6F66667365F5
:10160000745B003E3E3E207365745F617869735F72
:1016100069735F61745F686F6D6528000000484200
:10162000000048420000A041000000005761726EB7
:10163000696E673A20486F6D696E672042756D70FC
:101640002044697669736F72203C20310A000202DF
:10165000040000A0400000A040000000400000B9CD
:10166000430080C5430000C8433C3C3C20686F6D8C
:1016700065617869732800203A203E204146544530
:1016800052207365745F617869735F69735F617419
:101690005F686F6D650A00202063757272656E74F5
:1016A0005F706F736974696F6E3D00486F6D652080
:1016B0003220536C6F773A0A004D6F766520417780
:1016C00061793A0A00486F6D652031204661737474
:1016D0003A0A00FF01013E3E3E20686F6D65617869
:1016E000697328006F6B004572726F7220777269A0
:1016F00074696E6720746F20454550524F4D210A22
:1017000000454550524F4D206461746173697A659C
:10171000206572726F722E0A00290A0020627974A5
:1017200065733B20637263200053657474696E6750
:10173000732053746F726564202800290A002062A8
:10174000797465733B2063726320002073746F7239
:1017500065642073657474696E6773207265747252
:101760006965766564202800202863616C63756C68
:101770006174656429210A0020213D2000454550FF
:10178000524F4D20435243206D69736D61746368FD
:10179000202D202873746F726564292000205369FE
:1017A0007A653A2000496E6465783A2000204D61E0
:1017B000726C696E3D563535290A002845455052F0
:1017C0004F4D3D00454550524F4D2076657273692F
:1017D0006F6E206D69736D6174636820004861727B
:1017E00064636F6465642044656661756C7420533E
:1017F000657474696E6773204C6F616465640A0078
:10180000F4010000F4010000320000001027000085
:1018100000009643000096430000A04100003442BF
:101820000000204300002043F0F77B4400008C437D
:10183000000020002300260029002C002F00320089
:101840000001000003010601090105050505070562
:1018500008080808020202020A0A0808040404042C
:101860000101010101010101030303030303030358
:10187000040707070C0C0C0C0C0C0C0C02020202E7
:1018800006060606060606060B0B0B0B0B0B0B0BD0
:101890000102102020080810204010204080020182
:1018A0000201080402010102040810204080804067
:1018B0002010080402018004020180402010080466
:1018C0000201080402010102040810204080010204
:1018D00004081020408000000A0B02090C0D0E08BD
:1018E00007030401000000000000000000000000E9
:1018F00000000000000000000000000000000000E8
:1019000000001211100000000000000000000000A4
:101910000000000000000000000000004B494C4C9B
:1019200045442E2000202D20496E76616C6964208C
:101930006578747275646572206E756D626572206B
:10194000210A002020506C616E6E657242756666D9
:10195000657242797465733A20002046726565208D
:101960004D656D6F72793A2000436F6D70696C65DB
:10197000643A204F637420203720323031390A0016
:10198000207C20417574686F723A20467261636BE7
:1019900074616C20576F726B730A00323031392DCD
:1019A00031302D30372031323A343000204C6173E1
:1019B0007420557064617465643A20004275696CE6
:1019C000643A204A313850455F3139313030375F21
:1019D000313234305F48410A00467261636B746192
:1019E0006C20576F726B73204A756C69612050725E
:1019F0006F204475616C2041424C0A00312E312E1B
:101A0000390A004D61726C696E0020536F667477FD
:101A10006172652052657365740A002057617463B2
:101A200068646F672052657365740A002042726FA4
:101A3000776E206F75742052657365740A002045B7
:101A4000787465726E616C2052657365740A00501B
:101A50006F77657255700A0073746172740A0020A2
:101A6000503A00205A3A0020593A0020583A00656E
:101A70006E6473746F7073206869743A20003A0A58
:101A80000020286D6D290020204D383531205A0066
:101A90005A2D50726F6265204F6666736574002020
:101AA000440020490020204D333031205000204494
:101AB0000020490020500020204D333031204500C7
:101AC0005049442073657474696E67733A0A002044
:101AD0005A00204A00202047323920572049002050
:101AE000204D3432302053004175746F20426564BC
:101AF000204C6576656C696E673A0A00205A0020B2
:101B0000590020580020204D323138205400486FB1
:101B100074656E64206F6666736574733A0A00209C
:101B20005A0020590020204D323036205800486F8E
:101B30006D65206F66667365743A0A00204A00205E
:101B4000540020530020204D323035204200204ADE
:101B50003C6A756E635F6465763E00416476616ED3
:101B60006365643A20423C6D696E5F7365676D65BD
:101B70006E745F74696D655F75733E20533C6D696B
:101B80006E5F66656564726174653E20543C6D6984
:101B90006E5F74726176656C5F66656564726174B0
:101BA000653E0020540020520020204D3230342069
:101BB0005000416363656C65726174696F6E2028C3
:101BC000756E6974732F7332293A20503C707269B4
:101BD0006E745F616363656C3E20523C7265747223
:101BE0006163745F616363656C3E20543C74726131
:101BF00076656C5F616363656C3E0A00204500207A
:101C00005A0020590020204D3230312058004D61BB
:101C100078696D756D20416363656C657261746987
:101C20006F6E2028756E6974732F7332293A0A001B
:101C3000204500205A0020590020204D323033200A
:101C400058004D6178696D756D20666565647261D7
:101C50007465732028756E6974732F73293A0A00AE
:101C6000204500205A0020590020204D39322058AC
:101C70000053746570732070657220756E69743AD4
:101C80000A0020204D3230302044300A0020204D00
:101C900032303020543120440020204D323030206A
:101CA00044002044697361626C65640A0046696C93
:101CB000616D656E742073657474696E67733A0044
:101CC0002020473231202020203B00FFFDFCFAF885
:101CD000F6F4F2F0EEECEAE9E7E5E3E1E0DEDCDA87
:101CE000D9D7D5D4D2D0CFCDCBCAC8C7C5C3C2C02F
:101CF000BFBDBCBAB9B7B6B4B3B2B0AFADACAAA9A8
:101D0000A8A6A5A4A2A1A09E9D9C9A9998979594F7
:101D10009392908F8E8D8B8A898887868483828127
:101D2000807F7E7D7B7A7978777675747372717037
:101D30006F6E6D6C6B6A696867666564636261602B
:101D40005F5E5D5C5B5A5958585756555453525113
:101D500050504F4E4D4C4B4A4A49484746464544E1
:101D600043424241403F3E3E3D3C3B3B3A3938389E
:101D700037363535343332323130302F2E2E2D2C4C
:101D80002B2B2A29292827272625252423232221EE
:101D90002120201F1E1E1D1C1C1B1B1A1919181880
:101DA000171616151514131312121111100F0F0E0A
:101DB0000E0D0D0C0C0B0A0A090908080707060688
:101DC00005050404030302020100000000000100F5
:101DD0000000010000800055555500000040003310
:101DE000333300AAAA2A004992240000002000C729
:101DF000711C0099991900D1451700555515003BE4
:101E0000B113002449120011111100000010000F3D
:101E10000F0F00E3380E0043790D00CCCC0C00C34B
:101E2000300C00E8A20B0064210B00AAAA0A007083
:101E30003D0A009DD80900427B090092240900DC7C
:101E4000D30800888808001042080000000800F04D
:101E5000C107008787070075500700711C07003E07
:101E6000EB0600A1BC0600699006006666060070DD
:101E70003E06006118060017F4050074D105005BEA
:101E8000B00500B290050062720500555505007856
:101E9000390500B81E0500050505004EEC04008755
:101EA000D40400A1BD040090A7040049920400C11D
:101EB0007D0400EE690400C7560400444404005C3D
:101EC0003204000821040041100400000004003F17
:101ED000F00300F8E0030026D20300C3C30300CCE4
:101EE000B503003AA803000A9B0300388E0300C024
:101EF0008103009F750300D0690300505E03001D3D
:101F000053030034480300913D03003333030016AC
:101F1000290300381F030097150300300C0300034A
:101F20000303000BFA020049F10200BAE802005C68
:101F3000E002002DD802002DD0020059C80200B0E6
:101F4000C0020031B90200DAB10200AAAA0200A060
:101F5000A30200BC9C0200FA9502005C8F0200DF25
:101F600088020082820200457C0200277602002758
:101F7000700200436A02007C640200D05E02003FEF
:101F8000590200C8530200486F6D696E6720666190
:101F9000696C6564003C3C3C20646F5F686F6D69F0
:101FA0006E675F6D6F766528005B00290A002C2044
:101FB000002C20003E3E3E20646F5F686F6D696EAE
:101FC000675F6D6F7665280041424C2041646A75F9
:101FD00073746D656E74205A0020480020570020ED
:101FE000590042696C696E656172204772696420AC
:101FF00058002028656E61626C6564290A002028FB
:1020000064697361626C6564290A0042494C494EF7
:10201000454152004175746F20426564204C6576DD
:10202000656C696E673A2000204E6F7A7A6C65297C
:102030000A0020262041626F766500202620536129
:102040006D65205A2061730020262042656C6F77F1
:10205000002D4261636B002028526967687400207C
:102060005A3A0020593A0050726F6265204F6666F6
:1020700073657420583A004649585F4D4F554E5489
:1020800045445F50524F42450A0050726F62653AB4
:102090002000436F72650A004D616368696E6520B8
:1020A000547970653A20003C3C3C204732380A00A5
:1020B0005261697365205A20286265666F726520D7
:1020C000686F6D696E672920746F20003E20656E11
:1020D0006473746F70732E656E61626C65287472C0
:1020E0007565290A003C3C3C204732380A003E20F6
:1020F000686F6D696E67206E6F74206E65656465CC
:10210000642C20736B69700A003E3E3E20473238D3
:102110000A003C3C3C204732390A0020636F72724F
:102120006563746564205A3A0047323920756E63DE
:102130006F72726563746564205A3A00203A203EDB
:102140002070726F62696E6720636F6D706C65746A
:10215000650A00202063757272656E745F706F731C
:102160006974696F6E3D00202844525952554E29BA
:1021700000473239204175746F20426564204C65F8
:1021800076656C696E67003F20284C2C522C462CDB
:102190004229206F7574206F6620626F756E6473BC
:1021A0002E0A003F2856296572626F7365206C65A0
:1021B00076656C20697320696D706C6175736962F6
:1021C0006C652028302D34292E0A00426164205A83
:1021D0002076616C75650A004E6F2062696C696ECD
:1021E00065617220677269640A003C3C3C2047329A
:1021F000390A003E204175746F2D6C6576656C2040
:102200006E6F74206E65656465642C20736B6970F5
:102210000A004732380A473239003E204E6F742098
:10222000686F6D65642E20456E7175657565696EA4
:10223000672047323820666F6C6C6F776564206268
:1022400079204732390A00203A203E3E3E2047326C
:10225000390A00202063757272656E745F706F7347
:102260006974696F6E3D001000600350012C01908D
:10227000012201D001180110020E0170020401E0D8
:1022800002FA006003F0000004E600B004DC00A0E5
:1022900005D200B006C8000008BE00A009B4008046
:1022A0000BAA00D00DA00090109600C0138C0070F7
:1022B000178200901B780010206E00C0246400E09C
:1022C0002D500080353C00A03A2800A03D140000AD
:1022D0003F0000A03FECFF4572723A204D41585438
:1022E000454D5020424544004D415854454D5020E5
:1022F0007472696767657265640045312045727262
:102300003A204D415854454D500045322045727297
:102310003A204D415854454D50004572723A204D77
:10232000494E54454D5020424544004D494E544578
:102330004D5020747269676765726564004531208D
:102340004572723A204D494E54454D500045322059
:102350004572723A204D494E54454D5000202F0091
:102360002040002042403A0020403A000000210076
:10237000240027002A002D00300033000101000056
:10238000040107010A0100002200250028002B009B
:102390002E003100340002010000050108010B018C
:1023A00020746F6F206C6F6E672065787472757320
:1023B000696F6E2070726576656E7465640A0020C0
:1023C000636F6C6420657874727573696F6E2070CA
:1023D000726576656E7465640A00205A3A00204280
:1023E0003A0020436F756E7420413A0020453A0050
:1023F000205A3A0020593A00583A003A0043617096
:102400003A00206F7574206F662072616E67650AEE
:1024100000536572766F20003A2000205365727673
:102420006F2000426564204C6576656C696E67209C
:10243000004661696C656420746F20656E61626C32
:102440006520426564204C6576656C696E670A009C
:102450004D65736820706F696E742063616E6E6F76
:1024600074206265207265736F6C7665640A004D36
:1024700034323120696E636F7272656374207061EB
:1024800072616D657465722075736167650A0045D8
:102490004550524F4D204F4B0A00496E76616C6992
:1024A000642065787472756465720A0041637469AA
:1024B00076652045787472756465723A2000203A1A
:1024C000204D6F7665206261636B0A002020646591
:1024D0007374696E6174696F6E3D002C20636F7256
:1024E0007265637465642063757272656E745F7083
:1024F0006F736974696F6E5B5A5F415849535D3DF4
:102500000046573A2053746F70205A2063726173EB
:10251000682C2065787065637465642063757272D9
:10252000656E745F706F736974696F6E5B5A5F413B
:102530005849535D3D00207D0A002C20004F6666FF
:1025400073657420546F6F6C205859206279207B1A
:10255000200046573A204368616E67696E672064C1
:10256000657374696E6174696F6E5B585F41584939
:10257000535D20746F2073746F7020637261736891
:102580002C2064657374696E6174696F6E5B585F4B
:10259000415849535D3D002C2073746F705F785F24
:1025A00063726173683D0046573A20746D705F78BE
:1025B0005F6D6F76653D002C2073746F705F7A5F7E
:1025C00063726173683D0046573A20746D705F7A9C
:1025D0005F6D6F76653D004E6F206D6F7665206F85
:1025E0006E20746F6F6C6368616E67650A00556E6C
:1025F0006B6E6F776E20636F6D6D616E643A202233
:1026000000203A203C3C3C2072756E5F7A5F70720D
:102610006F62650A00202063757272656E745F7068
:102620006F736974696F6E3D0020446973637265EE
:1026300070616E63793A00326E642050726F626529
:10264000205A3A00203A203C3C3C2072756E5F7A5A
:102650005F70726F62650A00202063757272656E2A
:10266000745F706F736974696F6E3D00534C4F57A0
:102670002050726F6265206661696C210A003173B7
:10268000742050726F6265205A3A00203A203C3C18
:102690003C2072756E5F7A5F70726F62650A00200F
:1026A0002063757272656E745F706F736974696FA1
:1026B0006E3D00464153542050726F626520666142
:1026C000696C210A00203A203E3E3E2072756E5F02
:1026D0007A5F70726F62650A00202063757272659E
:1026E0006E745F706F736974696F6E3D003C3C3C43
:1026F0002070726F62655F70740A0050726F626959
:102700006E67206661696C65640A0050524F4249E9
:102710004E475F4641494C45440A00205A3A200042
:1027200020593A200042656420583A2000203A207F
:102730000A00202063757272656E745F706F736932
:1027400074696F6E3D005F72656C617469766529AE
:102750000A002C20002C20002C20002C20003E3EC3
:102760003E2070726F62655F707428002066697227
:1027700073740A005A0059005800486F6D652000B4
:102780006563686F3A004572726F723A0042454461
:1027900020544845524D414C2052554E41574159C5
:1027A00000546865726D616C2052756E6177617955
:1027B00000453120544845524D414C2052554E4120
:1027C00057415900453220544845524D414C205202
:1027D000554E4157415900205A3A200020593A207D
:1027E0000042656420583A200050726F746563742B
:1027F00065642050696E0A005374616E646172648E
:1028000020446576696174696F6E3A2000205261D8
:102810006E67653A2000204D61783A2000204D69AE
:102820006E3A20004D65616E3A200046696E69730C
:10283000686564210A002072616E67653A20002095
:102840006D61783A2000206D696E3A20002073692E
:10285000676D613A2000206D65616E3A20003A2074
:102860007A3A2000206F662000205A00205900206C
:102870005800476F696E6720746F3A00436C6F634E
:102880006B776973650A00436F756E7465722D000E
:1028900020446972656374696F6E3A2000202020BD
:1028A000616E676C653A20005374617274696E677B
:1028B000207261646975733A2000506F736974699E
:1028C0006F6E696E67207468652070726F62652E26
:1028D0002E2E0A003F4E756D626572206F66206C69
:1028E00065677320696E206D6F76656D656E742007
:1028F0006E6F7420706C61757369626C652028302E
:102900002D3135292E0A003F2028582C5929206FB7
:102910007574206F6620626F756E64732E0A003FB7
:1029200053616D706C652073697A65206E6F7420D9
:10293000706C61757369626C652028342D3530299F
:102940002E0A004D3438205A2D50726F6265205285
:1029500065706561746162696C697479205465732E
:10296000740A003F2856296572626F7365206C6592
:1029700076656C20697320696D706C61757369622E
:102980006C652028302D34292E0A006265640A0007
:102990002C2073797374656D2073746F7070656427
:1029A00021204865617465725F49443A20004265A0
:1029B000642068656174696E67206661696C65642E
:1029C0000048656174696E67206661696C656400C2
:1029D00048656174696E67206661696C656400456D
:1029E000312048656174696E67206661696C656451
:1029F0000045322048656174696E67206661696CC4
:102A000065640000DCB511241FBECFEFD1E2DEBF4C
:102A1000CDBF00E00CBF13E0A0E0B2E0E4E2F5E8D7
:102A200001E00BBF02C007900D92A235B107D9F7A4
:102A30002FE0A2E5B3E001C01D92AE37B207E1F787
:102A400015E1C3E0D5E100E006C021970109802F20
:102A5000FE010E9447C2C230D10780E00807A9F7F3
:102A60000E9449B00C9490C20C9400002F923F92A7
:102A70004F925F926F927F928F929F92AF92BF928E
:102A8000CF92DF92EF92FF920F931F93CF93DF933A
:102A9000CDB7DEB7C457D1090FB6F894DEBF0FBE6D
:102AA000CDBF21E02093B504809193058D3409F4C6
:102AB0000FC4843511F40C94F22A873411F00C946D
:102AC0004A2B80919105909192058C31910509F4E2
:102AD0009FC28CF48430910534F48230910594F5D2
:102AE00097FF29C0F1C38430910509F4BEC14B970B
:102AF00009F4F0C1E9C38A32910509F492C25CF489
:102B00008D31910509F489C24E9709F0DDC30E9409
:102B100010A90C944C2B8B35910509F45EC38C35B0
:102B2000910509F45EC38A35910509F0CDC3109271
:102B300056030C944C2B80914F0281110C945A2B0C
:102B40000C944C2B20914F02222311F40C944C2B0B
:102B500011E0029709F010E00E943F6A19821A8280
:102B60001B821C821D821E821F82188682E50E94A3
:102B70005632882309F42CC10E94DC316B017C01A0
:102B800020913C0830913D0840913E0850913F080B
:102B90002AA33BA34CA35DA38090400890904108DA
:102BA000A0904208B09043088091090890910A08CB
:102BB000A0910B08B0910C088EA39FA3A8A7B9A75A
:102BC00020910D0830910E0840910F085091100887
:102BD0002AA73BA74CA75DA720E030E0A901C701C9
:102BE000B6010E94F5BA882309F408C12AA13BA1C5
:102BF0004CA15DA16EA17FA188A599A50E94F5BAFF
:102C000081110BC0A50194016AA57BA58CA59DA58A
:102C10000E94F5BA882309F4F1C020E030E0A90150
:102C2000C701B6010E94F5BA881F8827881F1813AC
:102C300009C080E090E0A0E8BFE38AAF9BAFACAFF3
:102C4000BDAF08C020E030E040E85FEB2AAF3BAF0B
:102C50004CAF5DAF2AA13BA14CA15DA16EA17FA1AC
:102C600088A599A50E945EBF6AAB7BAB8CAB9DAB80
:102C7000A50194016AA57BA58CA59DA50E945EBFB8
:102C80006EAB7FAB88AF99AF2AA93BA94CA95DA9D0
:102C9000CA01B9010E945ABB2B013C012EA93FA9D0
:102CA00048AD59ADCA01B9010E945ABB9B01AC01A4
:102CB000C301B2010E945FBF0E94CAC16EA77FA775
:102CC00088AB99AB20E030E040E05FE30E945ABB64
:102CD0002B013C01A7019601C701B6010E945ABB16
:102CE0006B017C01A3019201C301B2010E945ABB96
:102CF0009B01AC01C701B6010E945EBF0E94CAC120
:102D00009B01AC016AAD7BAD8CAD9DAD0E945ABB01
:102D10006B017C012EA13FA148A559A56AA17BA109
:102D20008CA19DA10E945FBF20E030E040E05FE306
:102D30000E945ABB2B013C016EA97FA988AD99ADB9
:102D400090582EA53FA548A959A90E943BC09B01B8
:102D5000AC01C701B6010E945ABB9B01AC01C30183
:102D6000B2010E945FBF2AA13BA14CA15DA10E94BC
:102D70005EBF69837A838B839C832AA53BA54CA580
:102D80005DA5C501B4010E945FBF20E030E040E0D6
:102D90005FE30E945ABB2B013C012EA53FA548A929
:102DA00059A96AA97BA98CA99DA90E943BC09B0136
:102DB000AC01C701B6010E945ABB9B01AC01C30123
:102DC000B2010E945FBFA50194010E945EBF12C0C4
:102DD00089E40E945632882331F00E94DC316983F5
:102DE0007A838B839C838AE40E945632882331F055
:102DF0000E94DC316D837E838F83988720E030E0F2
:102E0000A90169817A818B819C810E94F5BA811127
:102E10000BC020E030E0A9016D817E818F81988513
:102E20000E94F5BA882339F0612FCE0101960E94E5
:102E300031990C944C2BE6E8F7E284918F010F5FF7
:102E40001F4F882321F00E942C33F801F6CFE2EFC8
:102E5000F1E084918F010F5F1F4F882311F40C94D0
:102E60004C2B0E942C33F801F4CF80E50E9456329F
:102E7000882329F00E949C316B017C0103C0C12C86
:102E8000D12C760183E50E945632882361F00E949E
:102E9000DC3120E030E04AE754E40E945ABB0E9453
:102EA000A8C06B017C010E945A8A0E941E74C60E43
:102EB000D71EE81EF91E0E941E74DC01CB018C197E
:102EC0009D09AE09BF09B7FD02C00C944C2B0E94AE
:102ED0004E49F1CF0E94929581110C944C2B80E0C9
:102EE00090E0A0E2B1E489839A83AB83BC8380E065
:102EF00090E8A0ECB3E48D839E83AF83B88780E035
:102F000090E0A0EAB1E489879A87AB87BC8780E527
:102F10000E945632882319F00E94AC3101C060E053
:102F200080E090E0A8ECB2E48E8F9F8FA8A3B9A3B5
:102F300080E090E0A0EAB0E48A8F9B8FAC8FBD8FD9
:102F4000613019F0623039F029C0BE01665E7F4FF2
:102F5000CE01099644C029853A854B855C856091F0
:102F600044087091450880914608909147080E9456
:102F70005FBF6B017C0120E030E048EC53E40E942D
:102F8000F5BA87FD06C0C12CD12C58ECE52E53E4D0
:102F9000F52ECE8ADF8AE88EF98E1CC0A0904408F8
:102FA000B0904508C0904608D0904708E984FA845C
:102FB0000B851C859501A601B701C8010E9485C13A
:102FC000181614F075018601C701D8018E8B9F8BEE
:102FD000A88FB98FBE01665E7F4FCE0146960E94D4
:102FE000D138E0904408F0904508009146081091CF
:102FF00047082D813E814F81588569817A818B8177
:103000009C81DE015E966D010E94A3370C944C2BCF
:1030100080E00E9415690C944C2B0E94906C0C94DB
:103020004C2B80914F02882311F40C944C2B89E493
:103030000E945632182F882321F00E94AC31E62ED0
:1030400001C0E12C8AE40E945632082F882331F017
:103050000E94AC31F62E111104C00BC0F12C1123CB
:10306000C1F0B2E0BE1510F00C94DE30E8E0F2E002
:1030700004C0E2E0EF15D0F30CC084918F010F5F24
:103080001F4F882311F40C944C2B0E942C33F80111
:10309000F4CF0E9422331123F1F0209118073091D0
:1030A00019074E2D4203B001439F700D11248091EA
:1030B0002F0590913005680F791F072E000C880BA3
:1030C000990B0E94FBBA6093090870930A088093D9
:1030D0000B0890930C080023F1F020911A0730910F
:1030E0001B075F2D5203B001539F700D11242091D7
:1030F000310530913205620F731F072E000C880BCB
:10310000990B0E94FBBA60930D0870930E08809390
:103110000F089093100880E50E9456328823E9F04A
:103120000E94CD318823A9F11123D9F020E030E0AD
:1031300040E251E46091090870910A0880910B08FF
:1031400090910C080E945EBF6093090870930A0872
:1031500080930B0890930C0804C080E50E940F3206
:10316000E1CF0023B1F020E030E040E251E4609193
:103170000D0870910E0880910F08909110080E9420
:103180005EBF60930D0870930E0880930F089093B4
:10319000100886E40E9456328823D9F00E94DC3160
:1031A0006B017C0120E030E0A9010E9485C1181666
:1031B00084F420E030E040E752E4C701B6010E9409
:1031C0003BC060933F027093400280934102909312
:1031D00042020E948E4C0C944C2B209356030C946C
:1031E0004C2B30E6232E32E0332E47ECC42E44E045
:1031F000D42EE12CF12C00E010E0D1018D911D01C5
:103200000E945632882309F44EC00E94DC312B0103
:103210003C01133059F0F701E15EF74F2081318115
:10322000428153810E945EBF2B013C01F701E45CA7
:10323000F74F2081318142815381C301B2010E9445
:103240005EBF4B015C012DEB37E346E855EB0E9476
:1032500085C187FD0AC02DEB37E346E855E3C5017C
:10326000B4010E94F5BA1816F4F4133051F44092E8
:1032700048085092490860924A0870924B0801E051
:1032800012C0A5019401F601608171818281938150
:103290000E945FBFD6016D937D938D939C9313978E
:1032A000812F0E9436331F5FB4E0CB0ED11CE4E0C7
:1032B000EE0EF11C143009F0A0CF01110E9403960C
:1032C0000E9443910C944C2B0E946E9D0C944C2BAD
:1032D00080919105909192058B39910509F430C444
:1032E0000CF093C08936910509F40FC40CF050C05E
:1032F0008D34910509F4EEC154F58A32910509F433
:1033000088C1BCF48231910509F4D8C48F3191058C
:1033100009F45AC1419711F00C94EF2A5F988A98EA
:1033200080910801817080930601129847980C944F
:103330004C2B8B34910509F4B4C10CF0B6C1C09785
:1033400011F00C94EF2A0E94C5A30C944C2B8335EA
:10335000910509F4AFC464F48135910509F496C46C
:103360000CF0A4C48E34910509F4B8C10C94EF2A72
:103370008535910509F4D7C40CF4A0C48C359105AA
:1033800009F4ECC48836910509F4A9C20C94EF2A1B
:103390008137910509F48DC3B4F48D36910509F494
:1033A000F6C354F48B36910509F45EC40CF43EC4A4
:1033B000109200020C944C2B8F36910509F4D6C262
:1033C0000CF4C1C26EC38637910509F4A0C56CF434
:1033D0008337910509F43DC50CF435C58537910552
:1033E00011F40C944C2B0C94EF2A8837910509F4B6
:1033F0005FC60CF4D9C58937910509F460C68C38CD
:10340000910509F4E0C30C94EF2A8E32F1E09F0796
:1034100011F40C94A6260CF060C0833D910511F4C4
:103420000C949A2214F58B3C910509F4D6C674F4D9
:10343000883C910509F449C6893C910509F4AAC65E
:103440008E3B910511F00C94EF2ADBC38D3C910566
:1034500009F45AC70CF4E0C68E3C910511F00C94A7
:10346000EF2A0E94B6930C944C2B823E910511F4E6
:103470000C9400248CF48C3D910511F40C9487235A
:103480008D3D910511F40C9494238A3D910511F022
:103490000C94EF2A0C947A23883131E0930711F4CD
:1034A0000C94F5256CF48031914011F00C94EF2AC6
:1034B00083E50E940F32B82EE0E8F7E20C942B244B
:1034C0008232A1E09A0711F40C94F8258D329140D4
:1034D00011F40C9405260C94EF2A8C3AE1E09E0737
:1034E00009F480C7DCF5813921E0920711F40C94CE
:1034F000692A9CF4833641E0940711F40C944D2A18
:10350000803951E0950711F40C94662A8F3291406E
:1035100011F00C94EF2A0C94FA268A39B1E09B073B
:1035200009F4C3C264F48239914011F00C94EF2A7B
:1035300080E00E940E390E9443910C944C2B843AF7
:1035400021E0920711F40C946F2A853A914011F012
:103550000C94EF2A0E94638F0C944C2B873F41E020
:10356000940711F40C94782A94F4853FA1E09A070B
:1035700011F40C94722A14F00C94752A843F914033
:1035800011F00C94EF2A0E94B4590C944C2B833503
:10359000F3E09F0711F40C947B2A4CF4883F914090
:1035A00011F00C94EF2A0E94348F0C944C2B8B3822
:1035B00043E0940711F40C944C2B873E934011F494
:1035C0000C94DF2A0C94EF2A0E948EAD6E8B7F8BB9
:1035D000888F998FBE016F5F7F4FCE0146960E9404
:1035E0006232E0E8F7E284918F010F5F1F4F88237A
:1035F00021F00E942C33F801F6CFBE016F5F7F4FA0
:1036000087E292E00E94FFA08AE00E942C330C9493
:103610004C2B83E50E945632882311F40C944C2BDA
:103620000E94BC31E82E80E50E945632882339F092
:103630000E94BC31182F87FF03C00C944C2B1DE057
:1036400089E40E945632882349F00E94CD318111CD
:1036500011C0E7E6F5E086E38E0F07C089E40E941B
:103660000F32F5CF31968E1729F094911913FACFB6
:103670000C94E72E61E0812F0E94AD726E2D812F98
:103680000E947E72F12CB701812F0E94E9721930DD
:1036900011F00C944C2BF092F407E092F3070C9489
:1036A0004C2B0E9427A10C944C2B80914C0581300F
:1036B00011F00C944C2B82E080934C050E941E74F8
:1036C00060934405709345058093460590934705A4
:1036D0000C944C2B0E9485A10C944C2B83E50E94EA
:1036E0005632811103C0E2E9F2E009C00E94AC3118
:1036F0006E347105C1F70E94F5A10C944C2B849196
:103700008F010F5F1F4F882321F00E942C33F80197
:10371000F6CFE9E8F2E084918F010F5F1F4F882315
:1037200021F00E942C33F801F6CF60914E05709184
:103730004F0580E090E04AE00E947C35ECE7F2E043
:1037400084918F010F5F1F4F882321F00E942C333B
:10375000F801F6CF609150057091510580E090E03E
:103760004AE00E947C35E1E7F2E084918F010F5F2F
:103770001F4F882321F00E942C33F801F6CF60916F
:103780004E0570914F058091500590915105681B31
:10379000790B80914C05815021E030E0823010F0AF
:1037A00020E030E0621B730B80E090E04AE00E9472
:1037B0007C358AE00E942C33E9E6F2E084918F01A7
:1037C0000F5F1F4F882321F00E942C33F801F6CFA2
:1037D0008091520590915305A0915405B0915505E3
:1037E0008E8B9F8BA88FB98FBE016F5F7F4FCE01ED
:1037F00046960E946232ECE5F2E084918F010F5F01
:103800001F4F811105C0CE0101967C018C0104C0BF
:103810000E942C33F801F1CFD8018D918D018823BE
:1038200019F00E942C33F8CF8091560590915705DE
:10383000A0915805B09159058E8B9F8BA88FB98F99
:10384000BE016F5F7F4FCE0146960E946232ECE46C
:10385000F2E084918F010F5F1F4F882321F00E94B7
:103860002C33F801F6CFF70181917F01882319F0FD
:103870000E942C33F8CF8AE00E942C33E4E4F2E07B
:1038800084918F010F5F1F4F882321F00E942C33FA
:10389000F801F6CFE4E3F2E084918F010F5F1F4F50
:1038A000882321F00E942C33F801F6CF20E030E08D
:1038B0004AE754E460915A0570915B0580915C057C
:1038C00090915D050E943BC042E00E9438368DE633
:1038D0000E942C338AE00E942C330C944C2B88E6F7
:1038E00090E00E94E23581110C944C2B80912B08C2
:1038F00083FF02C00C944C2B83E50E945632882330
:10390000F1F00E94DC31F09094070F2D10E0000FD1
:10391000111F0057184F0E94A3C0D8016D937C93CC
:103920008F2D0E94CB780E94DC3120E030E04AEA03
:1039300052E40E94F5BA181614F00E9485A10E9464
:1039400018B60C944C2B8EE40E945632882311F446
:103950000C944C2B0E94AC3160935F08709360080C
:1039600080936108909362080C944C2B83E50E942D
:103970000F32882359F083E50E945632882319F0CC
:103980000E94BC3101C080E080932B08E0E8F7E2A0
:1039900084918F010F5F1F4F882321F00E942C33E9
:1039A000F801F6CFEAEAF2E084918F010F5F1F4F32
:1039B000882321F00E942C33F801F6CF80912B0848
:1039C0008823A1F10AE9C02E02E0D02EE12CF12CCF
:1039D00020E080912B0890E00E2C02C095958795F1
:1039E0000A94E2F780FF17C0BB24B394B20E2223DF
:1039F00019F08CE20E942C33F60125913491F901E3
:103A0000849189010F5F1F4F882321F00E942C337E
:103A10009801F5CF2B2DFFEFEF1AFF0A32E0C30E0E
:103A2000D11C46E0E416F104A1F636C0E6EAF2E065
:103A300084918F010F5F1F4F882371F10E942C33F7
:103A4000F801F6CF00E417E080E20E942C33D801A1
:103A50006D917D918D919D918D0142E00E9438364E
:103A60008CE20E942C33F8016481758186819781F4
:103A700042E00E9438368CE20E942C33D8011C961A
:103A80006D917D918D919C911F9742E00E943836F7
:103A9000B7E008341B07C1F68AE00E942C330C946F
:103AA0004C2B81EB92E00E941E490E94FA8F0C94ED
:103AB0004C2B83E50E945632882369F00E94BC316A
:103AC0008D3320F4809310020C944C2B8CE3809364
:103AD00010020C944C2BE0E8F7E284918F010F5F09
:103AE0001F4F882321F00E942C33F801F6CF40911C
:103AF000100250E060E070E08AEB92E00E9490A03B
:103B00008AE00E942C330C944C2B89E690E00E94B2
:103B1000E235811111C0E1ECF2E084918F010F5F79
:103B20001F4F882321F00E942C33F801F6CF0E940A
:103B300047758AE00E942C331092B5040C94E4304F
:103B400083E50E945632882311F40C944C2B0E947A
:103B5000BC31182F8D3308F01CE31093C6040E946B
:103B60001E746B017C01212F30E0A8EEB3E00E94AF
:103B70004FBFC60ED71EE81EF91EC092C204D092D7
:103B8000C304E092C404F092C5040C944C2B8DE65F
:103B900090E00E94E23581110C944C2B80912B080F
:103BA00083FF02C00C944C2B83E50E9456328AAFEF
:103BB00081110C945F2B82E50E94563281110C9486
:103BC0005F2B0C944C2B80912B0883FF02C00C942C
:103BD0004C2B83E50E945632882311F40C944C2B15
:103BE0000E94DC310E94A3C06639710514F066E9B9
:103BF00070E070938707609386070E9481780C9429
:103C00004C2B80912B0883FF02C00C944C2B83E536
:103C10000E9456328AAF81110C94E82C82E50E94F2
:103C2000563281110C94E82C0C944C2B80E50E94A8
:103C30005632811106C083E50E945632882361F016
:103C400006C00E94BC3181110C944C2BF4CF0E9411
:103C5000AC316F3F710510F06FEF70E07093F407B7
:103C60006093F3070C944C2B80E50E94563281112F
:103C700006C01092F4071092F3070C944C2B0E948C
:103C8000AC31672B11F00C944C2BF3CF0E942279AE
:103C90000E94C48A1092F4071092F30768EE73E052
:103CA00080E090E00E9474740C944C2B10925503A9
:103CB0000C944C2B209355030C944C2B83E50E94C1
:103CC00056328823A1F00E94DC3120E030E04AE740
:103CD00054E40E945ABB0E94A8C06093B60470933B
:103CE000B7048093B8049093B9040C944C2B88E5E6
:103CF0000E940F3281110C94602E89E50E940F32D0
:103D000081110C94602E8AE50E940F3281110C946F
:103D1000602E85E40E940F3281110C94602E0E9467
:103D2000C48A0C944C2B83E50E940F32882311F433
:103D30000C944C2B0E94DC3120E030E04AE754E444
:103D40000E945ABB0E94A8C06093BE047093BF0437
:103D50008093C0049093C1040C944C2B30E6C32E86
:103D600032E0D32E4CE4E42E48E0F42E10E0D601ED
:103D70008D916D010E940F32882309F459C01330D0
:103D800009F04FC00E94DC314B015C0120E030E0C3
:103D900040EA51E40E94F5BA87FF3AC0A5019401B8
:103DA000609158087091590880915A0890915B0869
:103DB0000E943BC02B013C019B01AC016091E307D9
:103DC0007091E4078091E5079091E6070E945ABB45
:103DD0006093E3077093E4078093E5079093E60709
:103DE000609118097091190980911A0990911B0925
:103DF0000E94F9BAA30192010E945ABB0E94A8C076
:103E0000609318097093190980931A0990931B09FC
:103E10008092580890925908A0925A08B0925B0874
:103E200007C00E94DC31F701608371838283938332
:103E30001F5FF4E0EF0EF11C143009F098CF0E94E0
:103E400054A30C944C2B0E945A8A0E9443910C94C8
:103E50004C2BEBEAF3E084918F010F5F1F4F882317
:103E600021F00E942C33F801F6CF60E08BE993E05B
:103E70000E94FF9061E084E993E00E94FF9061E07E
:103E800089E893E00E94FF9061E089E793E00E9457
:103E9000FF9060E080E793E00E94FF9061E086E69B
:103EA00093E00E94FF9061E08CE593E00E94FF9018
:103EB00061E084E593E00E94FF9061E086E493E096
:103EC0000E94FF9060E088E393E00E94FF9060E032
:103ED00089E293E00E94FF9060E08BE193E00E9412
:103EE000FF9060E085E093E00E94FF9060E084EF47
:103EF00092E00E94FF9060E08FED92E00E94FF90C0
:103F000061E08CEC92E00E94FF900C944C2B0091AD
:103F10008F051091900583E0D12C40E08150E9F0AD
:103F2000D8019C91292F2B7F2134C1F711962C9118
:103F30002133A1F7913421F0953421F441E002C0FE
:103F4000DD24D39498012E5F3F4F89012F5F3F4FAF
:103F5000F80190819032C9F3E1CF442369F0E0E8A1
:103F6000F7E284917F012FEFE21AF20A882321F011
:103F70000E942C33F701F5CFDD2069F0E4E8F4E08E
:103F800084917F013FEFE31AF30A882321F00E9416
:103F90002C33F701F5CFD8018D918D01882309F4D9
:103FA0007BCD0E942C33F7CFEAEAF4E084918F01B5
:103FB0000F5F1F4F882321F00E942C33F801F6CFAA
:103FC000E2EAF4E084918F010F5F1F4F882321F014
:103FD0000E942C33F801F6CF659903C002E113E08B
:103FE00002C007E113E0F80181918F01882319F0E5
:103FF0000E942C33F8CF8AE00E942C33EAE9F4E0E7
:1040000084918F010F5F1F4F882321F00E942C3372
:10401000F801F6CF8091030180FD03C002E113E0B7
:1040200002C007E113E0D8018D918D01882319F0BA
:104030000E942C33F8CF8AE00E942C33E2E9F4E0AE
:1040400084918F010F5F1F4F882321F00E942C3332
:10405000F801F6CF4A9903C002E113E002C007E17C
:1040600013E0F80181918F01882319F00E942C330D
:10407000F8CF8AE00E942C33E8E8F4E084918F01C5
:104080000F5F1F4F882321F00E942C33F801F6CFD9
:104090007B9903C002E113E002C007E113E0D801FD
:1040A0008D918D01882309F4F7CC0E942C33F7CF32
:1040B00081E080935F0580935E050C944C2B1092F9
:1040C0005F0510925E050C944C2B88EC90E00E94EA
:1040D000E23581110C944C2B84E40E940F3288232A
:1040E00009F454C00E94DC3111E020E030E0A90165
:1040F0000E94F5BA811101C010E01093B507112399
:1041000009F444C00E94DC31E0919407B4E0EB9FD5
:10411000F0011124E254F84F60837183828393830A
:1041200020E030E0A9016091BE077091BF07809147
:10413000C0079091C1070E94F5BA81110CC080E0C0
:1041400090E0A0EEBFE38093BE079093BF07A093DB
:10415000C007B093C10720E030E0A9016091C20719
:104160007091C3078091C4079091C5070E94F5BA6A
:1041700081110CC080E090E0A0EEBFE38093C20705
:104180009093C307A093C407B093C5070E94688BA0
:104190000C944C2B9CE1E92E99E0F92E00E612E0FC
:1041A00024E0D22ED00EF80181918F010E940F32AF
:1041B000882351F00E94DC310E94A8C0D7016D9382
:1041C0007D938D939C931397B4E0EB0EF11CD0126A
:1041D000EACF0E9405A20C944C2B07EDE02E07E0DD
:1041E000F02E00E612E084E0D82ED00EF801819186
:1041F0008F010E940F32882341F00E94DC31D701E9
:104200006D937D938D939C931397B4E0EB0EF11C0B
:10421000D012ECCF0C944C2B83E50E9456328823AD
:10422000A1F00E94DC316093CF077093D007809398
:10423000D1079093D2076093CB077093CC078093FC
:10424000CD079093CE0710E001C011E080E50E94F9
:104250005632882359F00E94DC316093CF07709367
:10426000D0078093D1079093D20710E082E50E9497
:104270005632882359F00E94DC316093D307709343
:10428000D4078093D5079093D60710E084E50E9469
:104290005632882361F00E94DC316093CB07709323
:1042A000CC078093CD079093CE070C944C2B112311
:1042B00011F40C944C2B4091CF075091D007609192
:1042C000D1077091D2078AEC94E00E94ADA0409192
:1042D000D3075091D4076091D5077091D60787EC2A
:1042E00094E00E94ADA04091CB075091CC07609123
:1042F000CD077091CE0784EC94E00E94ADA08AE0D7
:104300000E942C330C944C2B82E40E940F328823A1
:1043100051F00E949C316093E7077093E807809307
:10432000E9079093EA0783E50E940F32882351F052
:104330000E94DC316093EF077093F0078093F107E0
:104340009093F20784E50E940F32882351F00E9477
:10435000DC316093EB077093EC078093ED0790934B
:10436000EE078AE40E940F32882311F40C944C2B40
:104370000E94DC316B017C012AE037ED43E25CE313
:104380000E9485C187FD14C02AE939E949E95EE345
:10439000C701B6010E94F5BA181654F0C092C707BB
:1043A000D092C807E092C907F092CA070C944C2B30
:1043B000E6E8F7E284918F010F5F1F4F81110EC075
:1043C000EAEDF4E084918F010F5F1F4F882311F411
:1043D0000C944C2B0E942C33F801F4CF0E942C3308
:1043E000F801E8CF0E94929581110C944C2B11EBAF
:1043F000812E15E1912EECE3F8E0FBA3EAA39E01E8
:104400002F5F3F4F590103ED16E1190133E0300FE3
:104410003EA3F4016591759185919491AAA1BBA1E8
:10442000CD90DD90ED90FD90BBA3AAA3A7019601CE
:104430000E945EBF2B013C0120E030E040EA51ECDD
:104440000E9485C187FD10C020E030E040EA51E4C1
:10445000C301B2010E94F5BA181634F0F10140828E
:104460005182628273820DC0F80184911816B4F7EC
:10447000F7FAF094F7F8F094F101C082D182E28269
:10448000F382D101CD90DD90ED90FD901D0120E0F3
:1044900030E040EA51ECC701B6010E9485C187FFB8
:1044A00003C0E6E8F7E20BC020E030E040EA51E468
:1044B000C701B6010E94F5BA1816CCF4F2CF849168
:1044C0008F010F5F1F4F882321F00E942C33F801CA
:1044D000F6CFE9EFF4E084918F010F5F1F4F88233F
:1044E00011F40C944C2B0E942C33F801F4CFB4E05F
:1044F0008B0E911C0F5F1F4FEEA1E0138ACFB1E628
:10450000EB2EB5E0FB2E10E0F50181919191A19188
:10451000B1915F01F70181939193A193B1937F01D1
:10452000812F0E9436331F5F133071F70E94439131
:104530000C944C2BE0E8F7E284918F010F5F1F4F42
:10454000882321F00E942C33F801F6CF83E50E94E6
:104550000F32882321F00E94CD3180933802EFE39F
:10456000F5E084918F010F5F1F4F882321F00E9497
:104570002C33F801F6CF80913802811103C0EBE3B0
:10458000F5E002C0E7E3F5E084918F010F5F1F4F74
:10459000882321F00E942C33F801F6CFEFE2F5E0FA
:1045A00084918F010F5F1F4F882321F00E942C33CD
:1045B000F801F6CF20911F08309120084091210882
:1045C000509122086091D3047091D4048091D50455
:1045D0009091D6040E945FBFAB01BC018DE295E0D3
:1045E0000E94ADA020912308309124084091250815
:1045F000509126086091D7047091D8048091D90415
:104600009091DA040E945FBFAB01BC018AE295E0A1
:104610000E94ADA0209127083091280840912908D8
:1046200050912A086091DB047091DC048091DD04D4
:104630009091DE040E945FBFAB01BC0187E295E070
:104640000E94ADA0EFE1F5E084918F010F5F1F4F55
:10465000882321F00E942C33F801F6CF20911F0807
:104660003091200840912108509122086091110258
:104670007091120280911302909114020E945FBF08
:10468000AB01BC018DE195E00E94ADA02091230813
:104690003091240840912508509126086091150218
:1046A0007091160280911702909118020E945FBFCC
:1046B000AB01BC018AE195E00E94ADA020912708E2
:1046C000309128084091290850912A0860911902D8
:1046D00070911A0280911B0290911C020E945FBF90
:1046E000AB01BC0187E195E00E94ADA08AE00E9489
:1046F0002C33D2C78AED90E00E94E2358111CCC7FD
:1047000080919407882309F4C7C70C948D2E83E504
:104710000E945632882309F4BFC70E94AC317093BF
:104720003A0260933902B8C78DED90E00E94E235FD
:104730008111B2C783E50E9456328823C9F10091E6
:10474000940710E00E94AC31000F111FF801E65DE4
:10475000FD4F718360838091940790E07C01EE0CA3
:10476000FF1CEE0CFF1C8701025D1D4F880F991F77
:10477000FC01E65DFD4F60817181072E000C880B06
:10478000990B0E94FBBA2AE037ED43E25CE30E94FA
:104790005ABBF701EA54F84F20813181428153819D
:1047A0000E945ABBF801608371838283938374C72C
:1047B000E0E8F7E284918F010F5F1F4F882321F01B
:1047C0000E942C33F801F6CF85E40E942C338091AF
:1047D0009407805D0E942C33E0919407F0E0EE0F87
:1047E000FF1FE65DFD4F608171818FE595E00E94BE
:1047F000CAA085E20E942C338AE00E942C334CC769
:1048000080E50E940F32882309F446C70E94AC312C
:104810006B017C0183E50E945632882321F00E94BF
:10482000AC318B0102C00FEF1FEFC8010196039757
:1048300008F032C7D7FC30C79C2DE7E6F5E086E3E9
:104840008E0F2491921711F40C94E72E31968E134B
:10485000F8CF0C94EA2E84918F010F5F1F4F8823AD
:1048600021F00E942C33F801F6CF6B2D70E089E423
:1048700096E00E94CAA08AE00E942C330E94929582
:10488000882319F081E00E941569BB2041F0109245
:10489000540710925507109256071092570720E0C0
:1048A00040E050E060EA71E480E00E94118CE0E8B2
:1048B000F7E284918F010F5F1F4F882321F00E9440
:1048C0002C33F801F6CF409144085091450860918F
:1048D00046087091470889E396E00E94ADA08AE0FF
:1048E0000E942C3380E090E0A8E4B2E489839A83AC
:1048F000AB83BC83E0904408F090450800914608E3
:10490000109147089E012F5F3F4F690120E030E082
:1049100045E453E460E070E089E393E40E94A33748
:1049200080E090E0A0EAB1E489839A83AB83BC8302
:1049300080E090E0A0E7B1E48E8B9F8BA88FB98FC9
:10494000B601CE0146960E94D138E0E8F7E28491A4
:104950008F010F5F1F4F882321F00E942C33F80135
:10496000F6CF40913C0850913D0860913E0870910F
:104970003F0889E296E00E94ADA040914008509126
:104980004108609142087091430884E296E00E94D9
:10499000ADA040914408509145086091460870913F
:1049A00047088FE196E00E94ADA08AE00E942C3378
:1049B0000E9410A90E945A8AC0904408D0904508CD
:1049C000E0904608F0904708E0E8F7E284918F0114
:1049D0000F5F1F4F882321F00E942C33F801F6CF80
:1049E000B701A6018EE096E00E94ADA08AE00E9489
:1049F0002C3380E090E0A0EAB1E489839A83AB8312
:104A0000BC8380E090E0A0E7B1E48E8B9F8BA88F01
:104A1000B98FBE016F5F7F4FCE0146960E94D1389D
:104A2000E0E8F7E284918F010F5F1F4F882321F0A8
:104A30000E942C33F801F6CF40914408509145086C
:104A400060914608709147088EEF95E00E94ADA0F6
:104A50008AE00E942C3320E040E050E060EA71E4FC
:104A600081E00E94118CE0E8F7E284918F010F5FF2
:104A70001F4F882321F00E942C33F801F6CF40917C
:104A800044085091450860914608709147088EEEA1
:104A900095E00E94ADA08AE00E942C330E9410A9EC
:104AA0000E945A8A409044085090450860904608F9
:104AB00070904708E0E8F7E284918F010F5F1F4F85
:104AC000882321F00E942C33F801F6CFB301A20114
:104AD0008DED95E00E94ADA08AE00E942C3380E02D
:104AE00090E0A0EAB1E489839A83AB83BC8380E041
:104AF00090E0A0E7B1E48E8B9F8BA88FB98FBE01A9
:104B00006F5F7F4FCE0146960E94D138E0E8F7E212
:104B100084918F010F5F1F4F882321F00E942C3357
:104B2000F801F6CF4091440850914508609146083D
:104B3000709147088DEC95E00E94ADA08AE00E943C
:104B40002C33A7019601C301B2010E945FBF6B0124
:104B50007C01E0E8F7E284918F010F5F1F4F88230B
:104B600021F00E942C33F801F6CFB701A60188EBA3
:104B700095E00E94ADA08AE00E942C33BB2071F02A
:104B8000F7FAF094F7F8F094C0925407D0925507D2
:104B9000E0925607F09257070E94B459E0E8F7E216
:104BA00084918F010F5F1F4F882321F00E942C33C7
:104BB000F801F6CF40915407509155076091560780
:104BC000709157078DE995E00E94ADA08AE00E94A0
:104BD0002C3320E040E050E060EA71E480E00E9485
:104BE000118C81E00E94156957C50E94329054C50E
:104BF0008AE50E94563281110C94122F83E50E949F
:104C0000563281110C94122F47C585E40E9456320A
:104C1000811110C080E50E940F32882391F00E941C
:104C2000DC3160932A0F70932B0F80932C0F90939D
:104C30002D0F07C00E94BC31823060F3E6E8F7E236
:104C40006EC089E40E940F32882381F00E94DC311B
:104C50002CEA35EC47E25EE30E945ABB6093260FD4
:104C60007093270F8093280F9093290F84E40E945C
:104C70000F32882381F00E94DC312CEA35EC47E2C8
:104C80005EE30E943BC060932E0F70932F0F8093C2
:104C9000300F9093310FE0E8F7E284918F010F5FBE
:104CA0001F4F882321F00E942C33F801F6CF40914A
:104CB0002A0F50912B0F60912C0F70912D0F8DE5C5
:104CC00096E00E94ADA02CEA35EC47E25EE36091ED
:104CD000260F7091270F8091280F9091290F0E9425
:104CE0003BC0AB01BC0189E596E00E94ADA02CEA77
:104CF00035EC47E25EE360912E0F70912F0F8091AB
:104D0000300F9091310F0E945ABBAB01BC0185E579
:104D100096E00E94ADA08AE00E942C33BDC484912D
:104D20008F010F5F1F4F882321F00E942C33F80161
:104D3000F6CFE1E6F6E084918F010F5F1F4F8823E5
:104D400009F4AAC40E942C33F801F5CF83E50E9430
:104D50000F32182F882371F00E94DC310E94A3C00B
:104D6000709337026093360221E0672B09F020E050
:104D70002093F50780E50E940F32882359F0209197
:104D8000360230913702232B11F00E94CD318093EF
:104D9000F50782C4111180C4E0E8F7E284918F0125
:104DA0000F5F1F4F882321F00E942C33F801F6CFAC
:104DB0008091F507811103C061E273E002C064E1F4
:104DC00073E088E896E00E94FFA06091360270913F
:104DD000370287E796E00E94CAA0E3E7F6E08491F5
:104DE0008F010F5F1F4F882309F456C40E942C3394
:104DF000F801F5CF85E40E945632882321F00E9405
:104E0000AC318B0102C000E010E083E40E94563216
:104E1000882331F00E94AC3165966FAF659704C06E
:104E200035E065963FAF659785E50E945632882349
:104E300019F00E94CD3103C085E50E940F32A19682
:104E40008FAFA19717FD07C0812C912C96E1A92E59
:104E500093E4B92E06C0812C912C8CE8A82E82E414
:104E6000B82E83E50E945632882321F00E94DC315F
:104E70004B015C010230110510F4009394070E946D
:104E80001E742B013C01023068F0E6E5F8E08491E5
:104E90008F010F5F1F4F882309F4FEC30E942C333C
:104EA000F801F5CFE0E8F8E084916F014FEFC41A04
:104EB000D40A882321F00E942C33F601F5CF0AAFE3
:104EC000C501B4010E94A3C0072E000C880B990BEA
:104ED0000E94FBBA6AA77EA78AAB9EABD301C20130
:104EE00080549B42AE4FBF4FAD968CAF9DAFAEAFDF
:104EF000BFAFAD970E942279602F000F770BFB01A7
:104F0000E158F84F8FE7808381E0809300026C9630
:104F10004CAE5DAE6EAE7FAE6C97A5964CAE5DAE00
:104F20006EAE7FAEA59768961FAE6897A9961CAE29
:104F30001DAE1EAE1FAEA99723961FAE239790E419
:104F400024969FAF2497ACE12596AFAF2597B6E4A2
:104F50002696BFAF269727961FAE279728961FAE97
:104F6000289729961FAE29972A961FAE2A976296F0
:104F70001CAE1DAE1EAE1FAE62972E961CAE1DAEB1
:104F80001EAE1FAE2E97C12CD12C76012FE730E03C
:104F900040E050E02EA33FA348A759A7AFE78A2ED1
:104FA000912CA12CB12CA0961CAE1DAE1EAE1FAE36
:104FB000A09731E067963FAF67971FAE1EAE10E037
:104FC000212C312C00E0660F771F660F771FAB0195
:104FD0004857584F64965FAF4EAF6497AF96FFAF98
:104FE000EEAFAF9765968FAD6597082E000C990BC5
:104FF00066969FAF8EAF669780910002882309F472
:10500000F6C00E941E746AA37BA38CA39DA380910B
:105010007607882309F4CFC00E94F9796496AEAD73
:10502000BFAD64971C9111962C90119712963C90ED
:10503000129713960C91212F322D432D502F279626
:105040006FAD279728967FAD289729968FAD299722
:105050002A969FAD2A970E94F5BA87FF0CC0279623
:105060001FAF279728962FAE289729963FAE2997EE
:105070002A960FAF2A97212F322D432D502F23969A
:105080006FAD239724967FAD249725968FAD2597F6
:1050900026969FAD26970E9485C1181664F4239624
:1050A0001FAF239724962FAE249725963FAE2597C2
:1050B00026960FAF26976796BFAD67972AA53EA5A0
:1050C0004AA95EA9612F722D832D902FBB2309F46D
:1050D00058C00E9485C118160CF06DC02AA13BA1D2
:1050E0004CA15DA12419350946095709E5962CAF55
:1050F0003DAF4EAF5FAFE597DA01C90188589341E4
:10510000A109B109B7FD57C0D501C4012EA13FA126
:1051100048A559A5821B930BA40BB50BB595A79574
:1051200097958795AF96EEADFFADAF978083E596E7
:105130002CAD3DAD4EAD5FADE597A0962CAF3DAF2C
:105140004EAF5FAFA0973AA527963FAF27974EA5E2
:1051500028964FAF28975AA929965FAF29978EA90D
:105160002A968FAF2A972AA13BA14CA15DA16C96EC
:105170002CAF3DAF4EAF5FAF6C9767961FAE679792
:105180001AC00E94F5BA87FF16C08AA19BA1ACA1E4
:10519000BDA16C962CAD3DAD4EAD5FAD6C97821B45
:1051A000930BA40BB50BAC01BD01485853416109E9
:1051B000710977FF6FC620E030E040EA51E46AA54C
:1051C0007EA58AA99EA90E945FBF9B01AC01612FA9
:1051D000722D832D902F0E9485C118167CF4E2EE6B
:1051E000F7E084918F010F5F1F4F811103C00E9470
:1051F000227952C20E942C33F801F3CF8AA19BA1DD
:10520000ACA1BDA1A5962CAD3DAD4EAD5FADA597B2
:10521000821B930BA40BB50BB7FDA7C00E9447756B
:105220008AE00E942C338AA19BA1ACA1BDA180532E
:10523000984FAF4FBF4FA5968CAF9DAFAEAFBFAFEE
:10524000A59768969FAD6897911169C0A9962CADF6
:105250003DAD4EAD5FADA997612F722D832D902F7F
:105260000E9485C11816DCF520E030E040E050E4F3
:10527000612F722D832D902F0E945FBFA9966CAF76
:105280007DAF8EAF9FAFA9972AA13BA14CA15DA195
:1052900020543B424E4F5F4FAD962CAF3DAF4EAFCB
:1052A0005FAFAD9720E030E040EE50E46AA57EA508
:1052B0008AA99EA90E945EBF9B01AC0181E068960D
:1052C0008FAF6897612F722D832D902F0E9485C11B
:1052D00018160CF44AC068961FAE689746C08AA19B
:1052E0009BA1ACA1BDA1AD962CAD3DAD4EAD5FADCA
:1052F000AD97821B930BA40BB50BB7FD36C03AAD2F
:105300003F3F29F0313031F04EEB57E005C04CE91A
:1053100057E002C040ED57E06FEA77E023C020E09D
:1053200030E040EA51E46AA57EA58AA99EA90E94C0
:105330005EBF9B01AC01612F722D832D902F0E94C7
:10534000F5BA87FF12C04AAD4F3F29F0413031F026
:1053500046E757E005C042E557E002C049E857E09C
:1053600066E677E08AAD0E946FAB8AA19BA1ACA1F3
:10537000BDA1880F991FAA1FBB1F6C962CAD3DAD18
:105380004EAD5FAD6C97821B930BA40BB50B8419CC
:105390009509A609B70981389F44A241B10568F073
:1053A000E4E3F7E084918F010F5F1F4F882309F436
:1053B0001ECF0E942C33F801F5CF4EAD5FAD66963F
:1053C0008EAD9FAD6697841795070CF015CEE7ED6F
:1053D000F6E084918F010F5F1F4F882321F00E9418
:1053E0002C33F801F6CFB701A60183EC96E00E94BA
:1053F000ADA08AE00E942C332E964CAD5DAD6EAD13
:105400007FAD2E978FEA96E00E94ADA08AE00E94C1
:105410002C3362964CAD5DAD6EAD7FAD62978BE97E
:1054200096E00E94ADA08AE00E942C33A1969FAD29
:10543000A197992309F430C1C0922A0FD0922B0F63
:10544000E0922C0FF0922D0F2CEA35EC47E25EE350
:105450002E966CAD7DAD8EAD9FAD2E970E945ABB42
:105460006093260F7093270F8093280F9093290F36
:105470002CEA35EC47E25EE362966CAD7DAD8EAD15
:105480009FAD62970E943BC060932E0F70932F0FC9
:105490008093300F9093310FFFC0E6E8F7E28491DC
:1054A0008F010F5F1F4F882321F00E942C33F801DA
:1054B000F6CFE4E9F8E084918F010F5F1F4F882356
:1054C00009F4EAC00E942C33F801F5CF0E945A8AF1
:1054D000E3C081E00E940E390E944391DDC00E942A
:1054E0003092DAC00E94A959D7C00E94DD52D4C0C0
:1054F0000E94588FD1C08AE5D9D7882309F437C0D4
:105500005BD76B017C0120E030E040EA51EC0E9467
:1055100085C187FD13C020E030E040EA51E4C701B7
:10552000B6010E94F5BA18164CF0C0921B08D09232
:105530001C08E0921D08F0921E08AEC0E6E8F7E2F3
:1055400084918F010F5F1F4F81110DC0E5EBF8E0D3
:1055500084918F010F5F1F4F882309F49DC00E9423
:105560002C33F801F5CF0E942C33F801E9CFE0E8A5
:10557000F7E284918F010F5F1F4F882321F00E9473
:105580002C33F801F6CFE6EAF8E084918F010F5F43
:105590001F4F882321F00E942C33F801F6CF409151
:1055A0001B0850911C0860911D0870911E0883EA29
:1055B00098E00E94ADA08AE00E942C336DC081E08B
:1055C00080934F0283E572D7882331F0E6D68111AC
:1055D00063C00E94895260C083E521D7F8CF0E9442
:1055E0006E9D5AC0E0909105F09092051E2D80911D
:1055F0002B0885FF14C0B70177278CE199E00E9442
:10560000CAA089E20E942C338AE00E942C334CE32A
:1056100058E06DEF78E088E099E00E94EF388091E3
:105620001908181751F083E541D7882311F0B5D632
:1056300002C083E5F4D6182F01C011E086E436D706
:10564000882311F0B9D603C060E070E0CB0120E000
:1056500030E040E752E40E943BC0AB01BC01212F87
:105660008E2D0E94118C80912B0885FF15C04CE374
:1056700058E06FED78E089EE98E00E94EF38E2EDB7
:10568000F8E084918F010F5F1F4F882329F0E4D742
:10569000F801F7CF0E946E9D1092B504E0911507B6
:1056A000F0E0E359FA4F8081882309F48DC50E9408
:1056B000D9468AC50E943F6A0E948E4CEDCF7CD6A7
:1056C000F09094070F2D10E0000F111F0057184F96
:1056D0000E94A3C0D8016D937C938F2D0E94CB783C
:1056E0006BD620E030E04AEA52E40E94F5BA181680
:1056F0001CF00E9485A102C00E9427A10E9418B63A
:1057000081E0809300021EA21FA218A619A622966D
:105710001CAE1DAE1EAE1FAE22971AA223961FAE60
:1057200023975CE324965FAF24978CE125968FAF97
:10573000259796E426969FAF2697412C512CB0E8EA
:10574000CB2E1FEBD12E812C912C5401E09094078D
:10575000F12CF701EE0FFF1FE057F84F60817181C8
:10576000072E000C880B990B0E94FBBA162F072FEF
:10577000782E692E262F372F482F592FB201C601B8
:105780000E94F5BA8823E9F0F701EE0FFF1FEE0F34
:10579000FF1FE857F84F2081318142815381612FEB
:1057A000702F872D962D0E94F5BA881F8827881F95
:1057B0008AA3AAADAA2349F0882339F08091000278
:1057C0006BCF142D052D7C2C6D2C0E941E746B014B
:1057D0007C01DC01CB0122962CAD3DAD4EAD5FAD21
:1057E0002297821B930BA40BB50BB7FD3AC0D701D0
:1057F000C60188519C4FAF4FBF4F22968CAF9DAFD3
:10580000AEAFBFAF22970E944775E4ECF2E08491FF
:105810002F019FEF491A590A882319F01DD7F20169
:10582000F6CF81149104A104B104B9F0D501C401EB
:1058300088519C4FAF4FBF4FBC01CD016C197D0902
:105840008E099F0928EE33E040E050E00E9401BF3E
:10585000CA01B9010E941E3602C08FE3FDD68AE05C
:10586000FBD60E944E490E941E746093BA04709346
:10587000BB048093BC049093BD04E0919407A4E022
:10588000EA9FF0011124E857F84FB081BAA72181AF
:105890002EA732813AAB43814EAB2B2F3EA54AA9AE
:1058A0005EA9612F702F872D962D0E945EBF1B0170
:1058B0002C0120E030E0A9010E9485C187FF04C0CF
:1058C00057FA509457F8509481149104A104B104EC
:1058D00059F420E030E040E85FE3C201B1010E94EA
:1058E000F5BA87FF0DC00AC020E030E040E850E480
:1058F000C201B1010E9485C1181614F44601570176
:105900005AA1552309F448C08EA19FA1A8A5B9A505
:10591000892B8A2B8B2B61F0D701C6012EA13FA1C9
:1059200048A559A5821B930BA40BB50BB7FD34C03A
:105930002AA53EA54AA95EA923966FAD2397249672
:105940007FAD249725968FAD259726969FAD2697F8
:105950000E945EBF20E030E040EC5FE30E94F5BAB9
:1059600087FD2CCFD701C601805A9541AF4FBF4F5D
:105970008EA39FA3A8A7B9A79AA523969FAF239705
:10598000AEA52496AFAF2497BAA92596BFAF2597A9
:10599000EEA92696EFAF269780910002882309F49E
:1059A0000DCF81149104A104B10429F4412E502E8D
:1059B000C72CD62CCBCEF8EECF1AF3E0DF0AE108E5
:1059C000F108C818D908EA08FB08F7FEF7CEEECFB1
:1059D000F3D40E94A3C0663971050CF06EC17093B8
:1059E0008707609386070E948178E6D420E030E044
:1059F00040EA50E40E9485C1181614F40E9427A1C1
:105A000081E08093000280911908809394071EA280
:105A10001FA218A619A622961CAE1DAE1EAE1FAE62
:105A200022971AA223961FAE23972CE324962FAF1A
:105A300024973CE125963FAF259746E426964FAF45
:105A40002697C12CD12C50E8E52E6FEBF62E812C39
:105A5000912C54016091860770918707072E000CE6
:105A6000880B990B0E94FBBA162F072F782E692EF0
:105A7000262F372F482F592FB601C7010E94F5BA9C
:105A80008823D1F0209182073091830740918407C9
:105A900050918507612F702F872D962D0E94F5BAA2
:105AA000881F8827881F8AA35AAD552349F0882369
:105AB00039F080910002F0CD1C2D0D2D7E2C6F2C25
:105AC0000E941E746B017C01DC01CB0122962CAD7F
:105AD0003DAD4EAD5FAD2297821B930BA40BB50B72
