:100000000C944D130C947E130C947E130C947E135D
:100010000C947E130C947E130C947E130C947E131C
:100020000C947E130C947E130C947E130C947E130C
:100030000C947E130C947E130C947E130C947E13FC
:100040000C947E130C94F13F0C947E130C947E134D
:100050000C947E130C947E130C9450700C94306CA2
:100060000C947E130C94AC5F0C947E130C947E1352
:100070000C947E130C947E130C947E130C947E13BC
:100080000C94B1A10C947E130C947E130C947E13EB
:100090000C947E130C947E130C947E130C947E139C
:1000A0000C947E130C947E130C941A480C947E13BB
:1000B0000C947E130C947E130C947E130C94EC47DA
:1000C0000C947E130C947E130C947E130C947E136C
:1000D0000C947E130C947E130C947E130C947E135C
:1000E0000C947E13496A4C6A3B6A3F6A456A836A8C
:1000F000506A546A5A6A5E6A626A686A6C6A706AAE
:10010000836A766A7A6A7E6A166B1B6B206B2A6B2F
:10011000346BAD6B3E6B466B4E6B586B626B6C6BAE
:100120007B6B856BAD6B8F6B996BA36BAE6E7C6FCE
:10013000816FAC6FB86F946F996F9E6E084AD73B12
:100140003BCE016E84BCBFFDC12F3D6C74319ABDA6
:1001500056833DDA3D00C77F11BED9E4BB4C3E91CA
:100160006BAAAABE000000803F05A84CCDB2D44EB9
:10017000B93836A9020C50B9918688083CA6AAAABB
:100180002ABE000000803F004E414E494E4954595E
:10019000494E46CDCCCC3D0AD7233C17B7D1387752
:1001A000CC2B329595E6241FB14F0A000020410068
:1001B00000C84200401C4620BCBE4CCA1B0E5AAEB2
:1001C000C59D7447322F473320626164207061728D
:1001D000616D65746572730A003C3C3C204732389F
:1001E0000A005261697365205A20286265666F7241
:1001F0006520686F6D696E672920746F20003E204E
:10020000656E6473746F70732E656E61626C6528C1
:1002100074727565290A003C3C3C204732380A005C
:100220003E20686F6D696E67206E6F74206E656525
:100230006465642C20736B69700A003E3E3E204763
:1002400032380A00205A3A200020593A20004265EC
:100250006420583A20004D65736820706F696E7491
:100260002063616E6E6F74206265207265736F6CBF
:100270007665640A005072696E742074696D653A1F
:10028000200046696C616D656E7420757365643A13
:10029000200053746174733A20002C204C6F6E67F9
:1002A000657374206A6F623A2000546F74616C2029
:1002B00074696D653A200053746174733A20002CA0
:1002C000204661696C65643A20002C2046696E699D
:1002D000736865643A20005072696E74733A200046
:1002E00053746174733A20004B494C4C45442E20A2
:1002F000004D3131332053006F6B0020573A0020FE
:10030000573A007A5F70726F62653A20007A5F6DCB
:1003100061783A2000795F6D61783A2000785F6DEE
:10032000696E3A20005265706F7274696E6720655D
:100330006E6473746F70207374617475730A003F18
:100340004A206F7574206F662072616E6765202881
:10035000302E303120746F20302E33290A00204691
:100360006C6F773A2000000136372603FFFFFF3518
:100370003C3D38FF0FFFFF312E303EFF13FFFFFFE4
:1003800028390C0809FFFFFF1A1C18FFFF2A242236
:100390001EFFFF2C08440AFF4307FF45206F7574BA
:1003A000206F662072616E67650A00536572766F12
:1003B00020003A200020536572766F200020643AB6
:1003C0000020693A0020703A00496E76616C6964D9
:1003D0002065787472756465720A0043290A0061A9
:1003E000626C656420286D696E2074656D702000F4
:1003F000436F6C64206578747275646573206172F4
:1004000065200023646566696E6520444546415554
:100410004C545F4B64200023646566696E6520441C
:10042000454641554C545F4B69200023646566691D
:100430006E652044454641554C545F4B702000503A
:100440004944204175746F74756E652066696E69E4
:1004500073686564212050757420746865206C6130
:100460007374204B702C204B6920616E64204B64A8
:1004700020636F6E7374616E74732066726F6D208B
:1004800062656C6F7720696E746F20436F6E66696A
:100490006775726174696F6E2E680A005049442056
:1004A0004175746F74756E65206661696C65642151
:1004B0002074696D656F75740A0042454420544884
:1004C00045524D414C2052554E41574159005468B8
:1004D00065726D616C2052756E617761790045318E
:1004E00020544845524D414C2052554E4157415998
:1004F00000453220544845524D414C2052554E4102
:10050000574159004265642068656174696E6720CF
:100510006661696C65640048656174696E67206630
:1005200061696C65640045312048656174696E6776
:10053000206661696C6564004532204865617469B4
:100540006E67206661696C6564005049442041759E
:10055000746F74756E65206661696C6564212054E2
:10056000656D706572617475726520746F6F206857
:100570006967680A00204B643A2000204B693A20E2
:1005800000204B703A20000A20436C61737369634A
:1005900020504944200A002054753A2000204B7511
:1005A0003A2000206D61783A2000206D696E3A2073
:1005B0000020643A200020626961733A20005049AB
:1005C00044204175746F74756E65206661696C6551
:1005D00064212042616420657874727564657220BC
:1005E0006E756D6265720A00504944204175746FE2
:1005F00074756E652073746172740A004E6F2063A7
:10060000617365206C696768740A00426564204CF8
:100610006576656C696E6720004661696C6564206B
:10062000746F20656E61626C6520426564204C6564
:1006300076656C696E670A004D65736820706F6936
:100640006E742063616E6E6F7420626520726573D4
:100650006F6C7665640A004D34323120696E636FC9
:10066000727265637420706172616D657465722069
:1006700075736167650A00454550524F4D204F4BD9
:100680000A003A200050726F6265205A204F666659
:10069000736574003F5A206F7574206F6620726115
:1006A0006E676520282D323020746F203230290A81
:1006B000003C3C3C2067636F64655F540A00203A4D
:1006C0002041465445520A00202063757272656EBF
:1006D000745F706F736974696F6E3D00203A2042D9
:1006E00045464F52450A00202063757272656E744C
:1006F0005F706F736974696F6E3D003E3E3E2067A8
:10070000636F64655F5428002028646F6E65290A52
:10071000004578747261706F6C617465205B004293
:10072000696C696E656172204C6576656C696E678F
:1007300020477269643A0A00486F6D696E672066E7
:1007400061696C6564003C3C3C20646F5F686F6D60
:10075000696E675F6D6F766528005B00290A002C63
:1007600020002C20003E3E3E20646F5F686F6D6964
:100770006E675F6D6F7665280041424C2041646A68
:100780007573746D656E74205A0020480020570000
:1007900020590042696C696E656172204772696414
:1007A0002058002028656E61626C6564290A00206B
:1007B0002864697361626C6564290A0042494C4986
:1007C0004E454152004175746F20426564204C656E
:1007D00076656C696E673A2000204E6F7A7A6C6598
:1007E000290A0020262041626F76650020262053CA
:1007F000616D65205A2061730020262042656C6F70
:1008000077002D4261636B0020285269676874008D
:10081000205A3A0020593A0050726F6265204F66A4
:100820006673657420583A004649585F4D4F554EDF
:100830005445445F50524F42450A0050726F626502
:100840003A2000436F72650A004D616368696E6506
:1008500020547970653A20003C3C3C204732390AEC
:100860000020636F72726563746564205A3A0047B2
:10087000323920756E636F72726563746564205AD5
:100880003A00203A203E2070726F62696E672063E2
:100890006F6D706C6574650A0020206375727265F7
:1008A0006E745F706F736974696F6E3D00202844C9
:1008B000525952554E2900473239204175746F20E4
:1008C000426564204C6576656C696E67003F202840
:1008D0004C2C522C462C4229206F7574206F6620B8
:1008E000626F756E64732E0A003F28562965726226
:1008F0006F7365206C6576656C20697320696D7017
:100900006C61757369626C652028302D34292E0A5C
:1009100000426164205A2076616C75650A004E6F52
:100920002062696C696E65617220677269640A0091
:100930003C3C3C204732390A003E204175746F2D03
:100940006C6576656C206E6F74206E656564656499
:100950002C20736B69700A004732380A473239001D
:100960003E204E6F7420686F6D65642E20456E7159
:1009700075657565696E672047323820666F6C6CE7
:100980006F776564206279204732390A00203A2067
:100990003E3E3E204732390A002020637572726560
:1009A0006E745F706F736974696F6E3D0024F4D468
:1009B0003050C38E20C2A24017828B7011127A91E0
:1009C0000D816CD90AA861E108C7586607615143D7
:1009D000061E4B5D05C145A7041A411104093D9847
:1009E00003713931034036DB0265339102D4305450
:1009F00002802E1D02632CEE01752AC501B028A0CD
:100A000001102781018F2564012B244B01E0223442
:100A100001AC211F018D200D01801FFC00841EED03
:100A200000971DDF00B81CD200E61BC600201BBCCF
:100A300000641AB200B219A8000A19A0006A189935
:100A400000D117910040178B00B516840031167E37
:100A500000B31579003A157300C7146F0058146A73
:100A600000EE1366008813630025135E00C7125B57
:100A7000006C12570015125400C111510070114F33
:100A80000021114B00D61049008D1047004610443C
:100A90000002104200C00F4000800F3E00420F3C99
:100AA00000060F3B00CB0E3800930E37005C0E356E
:100AB00000270E3400F30D3200C10D3100900D30CF
:100AC00000600D2E00320D2D00050D2C00D90C2BD1
:100AD00000AE0C2900850C29005C0C2700350C2782
:100AE000000E0C2600E80B2400C40B2400A00B23EE
:100AF000007D0B23005A0B2100390B2100180B201D
:100B000000F80A1F00D90A1E00BB0A1E009D0A1D1C
:100B100000800A1D00630A1C00470A1B002C0A1BE8
:100B200000110A1A00F7091A00DD091900C4091991
:100B300000AB091900920917007B09180063091717
:100B4000004C09160036091600200916000A09157E
:100B500000F5081500E0081400CC081400B80814CB
:100B600000A4081400900813007D0812006B0813FD
:100B7000005808120046081200340811002308111A
:100B8000001208110001081100F0071000E0071022
:100B900000D0071000C0071000B0070F00A1071019
:100BA0000091070E0083070F0074070F0065070E02
:100BB0000057070E0049070E003B070D002E070ED9
:100BC0000020070D0013070D0006070D00F9060CA5
:100BD00000ED060D00E0060C00D4060C00C8060C63
:100BE00000BC060C00B0060C00A4060B0099060C15
:100BF000008D060B0082060B0077060B006C060BBF
:100C00000061060A0057060B004C060A0042060A5D
:100C10000038060A002E060A0024060A001A060AF0
:100C2000001006090007060A00FD050900F4050981
:100C300000EB050900E2050900D9050900D0050906
:100C400000C7050900BE050900B5050800AD050887
:100C500000A50509009C050800940508008C0508FE
:100C600000840508007C050800740508006C050771
:100C700000650508005D050700560508004E0507DC
:100C80000047050700400508003805070031050743
:100C9000002A050700230507001C050600160507A6
:100CA000000F0507000805060002050700FB040603
:100CB00000F5040700EE040600E8040600E204075D
:100CC00000DB040600D5040600CF040600C90406B4
:100CD00000C3040600BD040600B7040600B1040505
:100CE00000AC040600A6040600A00405009B040650
:100CF0000095040500900406008A0405008504059B
:100D000000800406007A04050075040500700405DF
:100D1000006B04050066040500610405005C040521
:100D20000057040500520405004D04050048040561
:100D300000430405003E0404003A040500350405A0
:100D400000300404002C04050027040400230405DB
:100D5000001E0404001A0404001604050011040413
:100D6000000D040400090405000404040000040448
:100D700000FC030400F8030400F4030400F003047F
:100D800000EC030400E8030400E4030400E00304AF
:100D900000DC030400D8030400D4030400D00304DF
:100DA00000CC030400C8030300C503030024F404BB
:100DB000D9201BC40C5C0E9804C4095F026507713E
:100DC00001F405F900FB04B30048048700C103697E
:100DD000005803550003034500BE023A0084023167
:100DE0000053022A002902250004022000E4011C0D
:100DF00000C8011900AF0117009801140084011305
:100E000000710110006101100051010E0043010D3D
:100E10000036010B002B010B0020010B001501090E
:100E2000000C01090003010800FB000800F30008A2
:100E300000EB000700E4000600DE000600D8000614
:100E400000D2000600CC000500C7000500C2000566
:100E500000BD000400B9000400B5000400B10004A6
:100E600000AD000400A9000400A5000300A20003D7
:100E7000009F0004009B00030098000300950002FF
:100E80000093000300900003008D0002008B00031C
:100E90000088000200860002008400030081000236
:100EA000007F0002007D0002007B0002007900024A
:100EB0000077000100760002007400020072000159
:100EC00000710002006F0002006D0001006C000262
:100ED000006A00010069000200670001006600016D
:100EE0000065000100640002006200010061000171
:100EF00000600001005F0002005D0001005C000175
:100F0000005B0001005A0001005900010058000177
:100F10000057000100560001005500010054000177
:100F20000053000000530001005200010051000175
:100F300000500001004F0001004E0000004E000173
:100F4000004D0001004C0001004B0000004B00016F
:100F5000004A00010049000100480000004800016B
:100F60000047000100460000004600010045000067
:100F7000004500010044000100430000004300015F
:100F80000042000000420001004100000041000159
:100F900000400001003F0000003F0001003E000053
:100FA000003E0001003D0000003D0001003C00004B
:100FB000003C0000003C0001003B0000003B000141
:100FC000003A0000003A0001003900000039000139
:100FD0000038000000380000003800010037000031
:100FE0000037000100360000003600000036000126
:100FF000003500000035000000350001003400001D
:101000000034000000340001003300000033000011
:101010000033000100320000003200000032000105
:1010200000310000003100000031000100300000FC
:101030000030000000300001002F0000002F0000F1
:10104000002F0000002F0001002E0000002E0000E5
:10105000002E0001002D0000002D0000002D0000DA
:10106000002D0001002C0000002C0000002C0000CE
:10107000002C0001002B0000002B0000002B0000C2
:10108000002B0001002A0000002A0000002A0000B6
:10109000002A0001002900000029000000290000AA
:1010A000002900000029000100280000002800009D
:1010B0000028000000280000002800010027000090
:1010C0000027000000270000002700000027000183
:1010D0000026000000260000002600000026000078
:1010E000002600010025000000250000002500006A
:1010F000002500000025000000250001002400005C
:10110000002400000024000000240000002400014E
:101110000023000000230000002300000023000043
:101120000023000000230000002300010022000033
:101130000022000000220000002200000022000027
:101140000022000100210000002100000021000019
:10115000002100000021000000210000002100010A
:1011600000200000002000000020000000200000FF
:1011700000200000002000000020000000200001EE
:10118000001F0000001F0000001F0000001F0000E3
:10119000001F0000001F0000001F0001001E0000D3
:1011A000001E0000001E0000001E000000043700AA
:1011B000001E290000511B000058100000100900FB
:1011C00000CC040000780200004101000062656468
:1011D0000A002C2073797374656D2073746F7070BE
:1011E000656421204865617465725F49443A200056
:1011F0004265642068656174696E67206661696C28
:1012000065640048656174696E67206661696C6534
:10121000640048656174696E67206661696C656425
:101220000045312048656174696E67206661696CAC
:1012300065640045322048656174696E67206661A7
:10124000696C656400526573656E643A20002074B1
:101250006F6F206C6F6E6720657874727573696F3D
:101260006E2070726576656E7465640A0020636F27
:101270006C6420657874727573696F6E2070726526
:1012800076656E7465640A00627573793A207061E0
:101290007573656420666F7220696E7075740A00DC
:1012A000627573793A2070617573656420666F7238
:1012B00020757365720A00627573793A2070726FD7
:1012C00063657373696E670A004B494C4C45442E45
:1012D00020004B494C4C2063617573656420627932
:1012E00020746F6F206D75636820696E6163746927
:1012F00076652074696D65202D2063757272656E48
:101300007420636F6D6D616E643A20005072696E77
:101310007465722068616C7465642E206B696C6CF6
:1013200028292063616C6C6564210A00000020C2DA
:101330000080C5430000C8433C3C3C207365745F9B
:10134000617869735F69735F61745F686F6D652849
:1013500000203A200A00202063757272656E745F67
:10136000706F736974696F6E3D005D203D20003EB3
:1013700020686F6D655F6F66667365745B003E3EE7
:101380003E207365745F617869735F69735F617430
:101390005F686F6D65280000004842000048420009
:1013A00000A041000000005761726E696E673A202C
:1013B000486F6D696E672042756D7020446976696B
:1013C000736F72203C20310A000202040000A0402A
:1013D0000000A040000000400000B9430080C54369
:1013E0000000C8433C3C3C20686F6D6561786973C0
:1013F0002800203A203E204146544552207365740F
:101400005F617869735F69735F61745F686F6D6551
:101410000A00202063757272656E745F706F736965
:1014200074696F6E3D00486F6D65203220536C6F9C
:10143000773A0A004D6F766520417761793A0A0064
:10144000486F6D65203120466173743A0A00FF01D0
:10145000013E3E3E20686F6D656178697328006FBC
:101460006B004572726F722077726974696E6720C3
:10147000746F20454550524F4D210A002569730075
:1014800025696D20256973002569682025696D200F
:1014900025697300256964202569682025696D2008
:1014A00025697300256979202569642025696820EC
:1014B00025696D20256973002C20002C2000203A1E
:1014C0002073796E635F706C616E5F706F736974A7
:1014D000696F6E0A00202063757272656E745F70AA
:1014E0006F736974696F6E3D00656E7175657565C2
:1014F000696E672022004C696E65204E756D6265CD
:1015000072206973206E6F74204C617374204C6973
:101510006E65204E756D6265722B312C204C6173A7
:1015200074204C696E653A20004B494C4C45442E62
:1015300020005072696E7465722073746F707065EC
:10154000642064756520746F206572726F72732EEB
:101550002046697820746865206572726F72206118
:101560006E6420757365204D39393920746F20728F
:101570006573746172742E202854656D7065726194
:10158000747572652069732072657365742E2053BB
:101590006574206974206166746572207265737465
:1015A000617274696E67290A004E6F204368656333
:1015B0006B73756D2077697468206C696E65206E39
:1015C000756D6265722C204C617374204C696E6578
:1015D0003A2000636865636B73756D206D69736D88
:1015E000617463682C204C617374204C696E653A99
:1015F00020004D3131300020496E76616C696420E5
:101600006578747275646572200000000000000047
:101610000000000000000000B9430080C543000046
:10162000C8430A20736F66745F656E6473746F706D
:101630005F6D6178203D20000A20736F66745F65DE
:101640006E6473746F705F6D696E203D20000A20B8
:10165000706F736974696F6E5F7368696674203D3B
:10166000200020617869733A0A20686F6D655F6FAA
:101670006666736574203D2000466F7220003C3C16
:101680003C20646F5F626C6F636B696E675F6D6F48
:1016900076655F746F0A003E3E3E20646F5F626C49
:1016A0006F636B696E675F6D6F76655F746F002047
:1016B0003A2073657475705F666F725F656E6473F0
:1016C000746F705F6F725F70726F62655F6D6F765F
:1016D000650A00202063757272656E745F706F73A7
:1016E0006974696F6E3D00203A20636C65616E5FBE
:1016F00075705F61667465725F656E6473746F7038
:101700005F6F725F70726F62655F6D6F76650A0002
:10171000202063757272656E745F706F736974698F
:101720006F6E3D00646F5F70726F62655F726169BA
:10173000736528006465706C6F793A2000203A2048
:101740007365745F70726F62655F6465706C6F79EA
:1017500065640A00202063757272656E745F706F35
:10176000736974696F6E3D00203A203C3C3C2064F4
:101770006F5F70726F62655F6D6F76650A00202023
:1017800063757272656E745F706F736974696F6E82
:101790003D00203A203E3E3E20646F5F70726F62D3
:1017A000655F6D6F76650A00202063757272656EE5
:1017B000745F706F736974696F6E3D0072657365F5
:1017C000745F6265645F6C6576656C0A000000207A
:1017D000002300260029002C002F00320000010009
:1017E00000030106010901050505050705080808AC
:1017F00008020202020A0A080804040404010101A2
:1018000001010101010303030303030303040707A9
:10181000070C0C0C0C0C0C0C0C0202020206060647
:1018200006060606060B0B0B0B0B0B0B0B0102102F
:1018300020200808102040102040800201020108EA
:10184000040201010204081020408080402010089A
:1018500004020180040201804020100804020108F3
:101860000402010102040810204080010204081053
:1018700020408000000A0B02090C0D0E080703042B
:101880000100000000000000000000000000000057
:101890000000000000000000000000000000001236
:1018A0001110000000000000000000000000000017
:1018B0000000000000000000004B494C4C45442E45
:1018C0002000202D20496E76616C69642065787453
:1018D0007275646572206E756D62657220210A00F2
:1018E0002020506C616E6E6572427566666572424C
:1018F000797465733A20002046726565204D656DE8
:101900006F72793A2000436F6D70696C65643A209C
:101910004D617220203220323032300A00207C208B
:10192000417574686F723A20467261636B74616CC2
:1019300020576F726B730A00323032302D30332DE6
:1019400030322031383A333100204C6173742055E5
:101950007064617465643A20004275696C643A2071
:101960004A313850465F3230303330325F313833AD
:10197000315F48410A00467261636B74616C2057A5
:101980006F726B73204A756C69612050726F2044CE
:1019900075616C2041424C203234560A00312E31A0
:1019A0002E390A004D61726C696E0020536F6674A7
:1019B000776172652052657365740A0020576174FF
:1019C0006368646F672052657365740A0020427211
:1019D0006F776E206F75742052657365740A0020EE
:1019E00045787465726E616C2052657365740A0087
:1019F000506F77657255700A0073746172740A00D3
:101A000020503A00205A3A0020593A0020583A0013
:101A1000656E6473746F7073206869743A20004C4B
:101A20004556454C494E4700434F4D4D554E494351
:101A30004154494F4E0044525952554E004552525E
:101A40004F525300494E464F004543484F00491AF4
:101A5000441A3D1A361A281A1F1A6F666600444542
:101A60004255473A00205A3A0020423A0020436F3C
:101A7000756E7420413A0020453A00205A3A002001
:101A8000593A00583A003A004361703A00544845C8
:101A9000524D414C5F50524F54454354494F4E00B4
:101AA0004155544F5245504F52545F53445F535425
:101AB0004154555300454D455247454E43595F509B
:101AC000415253455200434153455F4C49474854A6
:101AD0005F4252494748544E45535300544F47477D
:101AE0004C455F4C494748545300534F4654574167
:101AF00052455F504F574552004255494C445F5044
:101B0000455243454E54004C4556454C494E475F5F
:101B100044415441005A5F50524F42450041555490
:101B20004F4C4556454C005052494E545F4A4F4227
:101B30000050524F4752455353004155544F524560
:101B4000504F52545F54454D5000564F4C554D45E3
:101B50005452494300454550524F4D005345524958
:101B6000414C5F584F4E5F584F4646004649524DD4
:101B7000574152455F4E414D453A4D61726C696E19
:101B8000204A313850465F3230303330325F31389E
:101B900033315F484120534F555243455F434F44D3
:101BA000455F55524C3A68747470733A2F2F6769C9
:101BB000746875622E636F6D2F61686172736861FE
:101BC000632F46574A756C6961323031384D617206
:101BD0006C696E2050524F544F434F4C5F564552E4
:101BE00053494F4E3A312E30204D414348494E45DE
:101BF0005F545950453A4A756C69612050726F20A4
:101C00004475616C2041424C203234562045585472
:101C100052554445525F434F554E543A3220555524
:101C200049443A30313038613539392D33623935EC
:101C30002D343138362D613633362D3036396562E4
:101C4000353938373963300A002F2F2000205400EF
:101C5000205200416363656C65726174696F6E3A0E
:101C6000205000205A00205900580020204D617853
:101C70003A2000205A00205900580020204D696E5B
:101C80003A20004F6E20004F666600536F66742046
:101C9000656E6473746F70733A2000486F74656E7C
:101CA00064206F6666736574733A00546F6F2066C4
:101CB00061722066726F6D207265666572656E6313
:101CC0006520706F696E740A00496E76616C696494
:101CD0002065787472756465720A00416374697670
:101CE000652045787472756465723A2000203A2048
:101CF0004D6F7665206261636B0A00202064657316
:101D000074696E6174696F6E3D002C20636F72722E
:101D100065637465642063757272656E745F706F5D
:101D2000736974696F6E5B5A5F415849535D3D003A
:101D300046573A2053746F70205A2063726173685B
:101D40002C206578706563746564206375727265B4
:101D50006E745F706F736974696F6E5B5A5F415820
:101D600049535D3D00207D0A002C20004F666673BC
:101D7000657420546F6F6C205859206279207B2045
:101D80000046573A204368616E67696E6720646554
:101D90007374696E6174696F6E5B585F4158495323
:101DA0005D20746F2073746F702063726173682C90
:101DB0002064657374696E6174696F6E5B585F410E
:101DC0005849535D3D002C2073746F705F785F63DA
:101DD000726173683D0046573A20746D705F785F9A
:101DE0006D6F76653D002C2073746F705F7A5F6352
:101DF000726173683D0046573A20746D705F7A5F78
:101E00006D6F76653D004E6F206D6F7665206F6E4D
:101E100020746F6F6C6368616E67650A0010006004
:101E20000350012C0190012201D001180110020E73
:101E30000170020401E002FA006003F0000004E611
:101E400000B004DC00A005D200B006C8000008BE47
:101E500000A009B400800BAA00D00DA0009010963D
:101E600000C0138C0070178200901B780010206E49
:101E700000C0246400E02D500080353C00A03A28CA
:101E800000A03D1400003F0000A03FECFF4572722F
:101E90003A204D415854454D5020424544004D4153
:101EA0005854454D502074726967676572656400C7
:101EB0004531204572723A204D415854454D5000ED
:101EC0004532204572723A204D415854454D5000DC
:101ED0004572723A204D494E54454D50204245447A
:101EE000004D494E54454D502074726967676572C4
:101EF0006564004531204572723A204D494E544583
:101F00004D50004532204572723A204D494E54459D
:101F10004D5000202F002040002042403A00204039
:101F20003A0000002100240027002A002D00300084
:101F3000330001010000040107010A010000220032
:101F4000250028002B002E00310034000201000083
:101F5000050108010B01454550524F4D2064617445
:101F60006173697A65206572726F722E0A00290AA0
:101F7000002062797465733B2063726320005365AF
:101F80007474696E67732053746F726564202800DF
:101F9000290A002062797465733B20637263200014
:101FA0002073746F7265642073657474696E6773EF
:101FB0002072657472696576656420280020286344
:101FC000616C63756C6174656429210A0020213D90
:101FD0002000454550524F4D20435243206D6973B8
:101FE0006D61746368202D202873746F7265642995
:101FF00020002053697A653A2000496E6465783A7A
:102000002000204D61726C696E3D563535290A00FD
:1020100028454550524F4D3D00454550524F4D20AB
:1020200076657273696F6E206D69736D6174636834
:10203000200020746F6F206C6F6E6720657874725B
:102040007573696F6E2070726576656E7465640A6B
:102050000020636F6C6420657874727573696F6EAD
:102060002070726576656E7465640A0048617264FA
:10207000636F6465642044656661756C74205365A4
:102080007474696E6773204C6F616465640A00E85C
:10209000030000E8030000320000001027000000E9
:1020A000009643000096430000A041000034420027
:1020B00000C8420000C842F0F7FB4300000C433A5E
:1020C0000A0020286D6D290020204D383531205A16
:1020D000005A2D50726F6265204F666673657400FA
:1020E00020440020490020204D3330312050002072
:1020F000440020490020500020204D33303120453D
:10210000005049442073657474696E67733A0A001D
:10211000205A00204A002020473239205720490009
:1021200020204D3432302053004175746F204265B9
:1021300064204C6576656C696E673A0A00205A0027
:1021400020590020580020204D32313820540048BA
:102150006F74656E64206F6666736574733A0A0007
:10216000205A0020590020204D3230362058004897
:102170006F6D65206F66667365743A0A00204A00C9
:1021800020540020530020204D32303520420020C2
:102190004A3C6A756E635F6465763E0041647661B1
:1021A0006E6365643A20423C6D696E5F7365676D6E
:1021B000656E745F74696D655F75733E20533C6D29
:1021C000696E5F66656564726174653E20543C6D3E
:1021D000696E5F74726176656C5F66656564726175
:1021E00074653E0020540020520020204D323034CF
:1021F000205000416363656C65726174696F6E2085
:1022000028756E6974732F7332293A20503C7072AE
:10221000696E745F616363656C3E20523C726574E5
:10222000726163745F616363656C3E20543C7472D9
:102230006176656C5F616363656C3E0A00204500F2
:10224000205A0020590020204D3230312058004DB6
:102250006178696D756D20416363656C6572617449
:10226000696F6E2028756E6974732F7332293A0A6C
:1022700000204500205A0020590020204D323033E4
:102280002058004D6178696D756D206665656472D2
:10229000617465732028756E6974732F73293A0A07
:1022A00000204500205A0020590020204D393220BE
:1022B000580053746570732070657220756E697470
:1022C0003A0A0020204D3230302044300A002020CD
:1022D0004D32303020543120440020204D323030F7
:1022E0002044002044697361626C65640A00466999
:1022F0006C616D656E742073657474696E67733A92
:10230000002020473231202020203B0050726F7483
:1023100065637465642050696E0A005374616E646D
:1023200061726420446576696174696F6E3A200059
:102330002052616E67653A2000204D61783A200096
:10234000204D696E3A20004D65616E3A2000466965
:102350006E6973686564210A002072616E67653A70
:102360002000206D61783A2000206D696E3A2000CF
:10237000207369676D613A2000206D65616E3A20B7
:10238000003A207A3A2000206F662000205A002070
:102390005900205800476F696E6720746F3A0043F8
:1023A0006C6F636B776973650A00436F756E746554
:1023B000722D0020446972656374696F6E3A200063
:1023C000202020616E676C653A200053746172743E
:1023D000696E67207261646975733A2000506F738B
:1023E0006974696F6E696E67207468652070726FBA
:1023F00062652E2E2E0A003F4E756D626572206F4B
:1024000066206C65677320696E206D6F76656D65FB
:102410006E74206E6F7420706C61757369626C6588
:102420002028302D3135292E0A003F2028582C59DC
:1024300029206F7574206F6620626F756E64732E2D
:102440000A003F53616D706C652073697A65206E78
:102450006F7420706C61757369626C652028342D0F
:102460003530292E0A004D3438205A2D50726F62B3
:1024700065205265706561746162696C6974792068
:10248000546573740A003F2856296572626F73653C
:10249000206C6576656C20697320696D706C617560
:1024A0007369626C652028302D34292E0A00556E20
:1024B0006B6E6F776E20636F6D6D616E643A202274
:1024C00000203A203C3C3C2072756E5F7A5F70724F
:1024D0006F62650A00202063757272656E745F70AA
:1024E0006F736974696F6E3D002044697363726530
:1024F00070616E63793A00326E642050726F62656B
:10250000205A3A00203A203C3C3C2072756E5F7A9B
:102510005F70726F62650A00202063757272656E6B
:10252000745F706F736974696F6E3D00534C4F57E1
:102530002050726F6265206661696C210A003173F8
:10254000742050726F6265205A3A00203A203C3C59
:102550003C2072756E5F7A5F70726F62650A002050
:102560002063757272656E745F706F736974696FE2
:102570006E3D00464153542050726F626520666183
:10258000696C210A00203A203E3E3E2072756E5F43
:102590007A5F70726F62650A0020206375727265DF
:1025A0006E745F706F736974696F6E3D003C3C3C84
:1025B0002070726F62655F70740A0050726F62699A
:1025C0006E67206661696C65640A0050524F42492B
:1025D0004E475F4641494C45440A00205A3A200084
:1025E00020593A200042656420583A2000203A20C1
:1025F0000A00202063757272656E745F706F736974
:1026000074696F6E3D005F72656C617469766529EF
:102610000A002C20002C20002C20002C20003E3E04
:102620003E2070726F62655F707428002066697268
:1026300073740A005A0059005800486F6D652000F5
:102640006563686F3A004572726F723A00424544A2
:1026500020544845524D414C2052554E4157415906
:1026600000546865726D616C2052756E6177617996
:1026700000453120544845524D414C2052554E4161
:1026800057415900453220544845524D414C205243
:10269000554E4157415900004AAD11241FBECFEF9E
:1026A000D1E2DEBFCDBF00E00CBF13E0A0E0B2E09E
:1026B000EEEDF3E701E00BBF02C007900D92A235EB
:1026C000B107D9F72EE0A2E5B3E001C01D92A8380A
:1026D000B207E1F713E1CDE4D3E100E006C02197B2
:1026E0000109802FFE010E94A4B9CC34D10780E0FB
:1026F0000807A9F70E949FA70C94EDB90C9400005D
:102700002F923F924F925F926F927F928F929F9201
:10271000AF92BF92CF92DF92EF92FF920F931F93EF
:10272000CF93DF93CDB7DEB7C059D1090FB6F89478
:10273000DEBF0FBECDBF11E0109385098091DB0A8B
:102740008D3411F40C94E71D843511F40C94B72BDF
:10275000873411F00C94162C8091D90A9091DA0AE2
:102760008C31910509F4AEC69CF4843091053CF49B
:1027700082309105B4F597FF2DC00C94E31D843091
:10278000910509F4CCC54B9709F4FEC50C94E31DE3
:102790008A32910511F40C94411C4CF48D31910551
:1027A00009F496C74E9709F497C70C94E31D8B352F
:1027B000910511F40C941D1D8C35910511F40C94A8
:1027C000211D8A35910511F00C94E31D10925603DA
:1027D0000C94182C8091060281110C94262C0C94D8
:1027E000182C20910602222311F40C94182C11E0CD
:1027F000029709F010E00E94B03382E50E941F5753
:10280000882309F43CC10E94A5566B017C014090CD
:102810006E0D50906F0D6090700D7090710D209145
:10282000720D3091730D4091740D5091750D2EA75E
:102830003FA748AB59AB8091A3099091A409A091FF
:10284000A509B091A6098AAB9BABACABBDAB2091FF
:10285000A7093091A8094091A9095091AA092AAF66
:102860003BAF4CAF5DAF20E030E0A901C701B6013E
:102870000E943FB2882309F438C5A30192016AA9D6
:102880007BA98CA99DA90E943FB281110DC02EA5E4
:102890003FA548A959A96AAD7BAD8CAD9DAD0E94FD
:1028A0003FB2882309F421C520E030E0A901C70127
:1028B000B6010E943FB2881F8827881F18130BC0DB
:1028C00080E090E0A0E8BFE32A968CAF9DAFAEAF6A
:1028D000BFAF2A970AC020E030E040E85FEB2A96BD
:1028E0002CAF3DAF4EAF5FAF2A97A30192016AA90B
:1028F0007BA98CA99DA90E94A8B622966CAF7DAF3A
:102900008EAF9FAF22972EA53FA548A959A96AADC2
:102910007BAD8CAD9DAD0E94A8B626966CAF7DAF09
:102920008EAF9FAF269722962CAD3DAD4EAD5FADDD
:102930002297CA01B9010E94A4B24B015C012696FC
:102940002CAD3DAD4EAD5FAD2697CA01B9010E94D9
:10295000A4B29B01AC01C501B4010E94A9B60E94BA
:1029600014B96EAB7FAB88AF99AF20E030E040E0A8
:102970005FE30E94A4B24B015C01A7019601C7016D
:10298000B6010E94A4B26B017C01A5019401C501AE
:10299000B4010E94A4B29B01AC01C701B6010E9420
:1029A000A8B60E9414B99B01AC012A966CAD7DAD0E
:1029B0008EAD9FAD2A970E94A4B24B015C012AA95B
:1029C0003BA94CA95DA9C301B2010E94A9B620E0B0
:1029D00030E040E05FE30E94A4B26B017C012696E8
:1029E0006CAD7DAD8EAD9FAD269790582EA93FA9B9
:1029F00048AD59AD0E9485B79B01AC01C501B4013A
:102A00000E94A4B29B01AC01C701B6010E94A9B605
:102A1000A30192010E94A8B66B017C012AAD3BADD7
:102A20004CAD5DAD6EA57FA588A999A90E94A9B6F8
:102A300020E030E040E05FE30E94A4B22B013C01C3
:102A40002EA93FA948AD59AD22966CAD7DAD8EAD96
:102A50009FAD22970E9485B79B01AC01C501B401CF
:102A60000E94A4B29B01AC01C301B2010E94A9B6AD
:102A70002EA53FA548A959A90E94A8B614C089E46B
:102A80000E941F57882329F00E94A5566B017C01E4
:102A900003C0C12CD12C76018AE40E941F578823E1
:102AA000D9F00E94A5566AAF7BAF8CAF9DAF20E0F6
:102AB00030E0A901C701B6010E943FB281111AC0DE
:102AC00020E030E0A9016AAD7BAD8CAD9DAD0E94E8
:102AD0003FB281110FC009C420E030E0A901C70155
:102AE000B6010E943FB2882309F4FFC31AAE1BAEA1
:102AF0001CAE1DAED701C601B0588EA79FA7A8ABCC
:102B0000B9AB2AAD3BAD4CAD5DAD50582AAB3BAB3C
:102B10004CAB5DAB9C01AD01BC01CD010E94A4B2E8
:102B20004B015C012AA93BA94CA95DA9CA01B901C5
:102B30000E94A4B29B01AC01C501B4010E94A9B6D8
:102B40000E9414B966966CAF7DAF8EAF9FAF66974B
:102B500080916E0D90916F0DA091700DB091710DDF
:102B60008EAB9FABA8AFB9AFA7019601BC01CD0159
:102B70000E94A9B62A966CAF7DAF8EAF9FAF2A9701
:102B80002091720D3091730D4091740D5091750D1F
:102B900022962CAF3DAF4EAF5FAF22972AAD3BAD33
:102BA0004CAD5DAD22966CAD7DAD8EAD9FAD2297E7
:102BB0000E94A9B66A966CAF7DAF8EAF9FAF6A9741
:102BC0008091A3099091A409A091A509B091A609AB
:102BD00026968CAF9DAFAEAFBFAF26972A962CAD91
:102BE0003DAD4EAD5FAD2A97BC01CD010E94A8B6A8
:102BF0006B017C012091A7093091A8094091A90996
:102C00005091AA092E962CAF3DAF4EAF5FAF2E97D5
:102C10006A962CAD3DAD4EAD5FAD6A972E966CAD0C
:102C20007DAD8EAD9FAD2E970E94A8B64B015C0185
:102C30008091760D9091770DA091780DB091790DDE
:102C400062968CAF9DAFAEAFBFAF62979C01AD01F6
:102C50006091AB097091AC098091AD099091AE097A
:102C60000E94A8B62B013C012091AF093091B00918
:102C70004091B1095091B209A2962CAF3DAF4EAF31
:102C80005FAFA29780917A0D90917B0DA0917C0D02
:102C9000B0917D0D6E968CAF9DAFAEAFBFAF6E970E
:102CA000A70196016EA57FA588A999A90E94A4B243
:102CB000A6966CAF7DAF8EAF9FAFA697A50194018E
:102CC0006AA97BA98CA99DA90E94A4B29B01AC0111
:102CD000A6966CAD7DAD8EAD9FADA6970E94A9B6B0
:102CE000A6966CAF7DAF8EAF9FAFA697A50194015E
:102CF0006EA57FA588A999A90E94A4B24B015C0189
:102D0000A70196016AA97BA98CA99DA90E94A4B2DA
:102D10009B01AC01C501B4010E94A8B6A6962CADDA
:102D20003DAD4EAD5FADA6970E941CB76B017C0117
:102D300020E030E0A9010E943FB287FF0AC02BEDDE
:102D40003FE049EC50E4C701B6010E94A9B66B010F
:102D50007C01112351F02BED3FE049EC50E4C70119
:102D6000B6010E94A8B66B017C0120E030E0A90109
:102D7000C701B6010E943FB2811126C026962CAD34
:102D80003DAD4EAD5FAD26976EA97FA988AD99ADDB
:102D90000E943FB2811118C02E962CAD3DAD4EADB4
:102DA0005FAD2E9722966CAD7DAD8EAD9FAD229717
:102DB0000E943FB2811108C03BEDC32E3FE0D32EED
:102DC00039ECE32E30E4F32EA701960166966CAD44
:102DD0007DAD8EAD9FAD66970E94A4B24B015C01A4
:102DE00020E030E0A901C301B2010E943FB2882374
:102DF000C9F0A5019401C501B4010E94A4B24B0120
:102E00005C01A3019201C301B2010E94A4B29B0123
:102E1000AC01C501B4010E94A9B60E9414B94B01CE
:102E20005C010DC020E030E0A901C501B4010E94A1
:102E3000CFB887FF04C0B7FAB094B7F8B0942FE6C4
:102E400032E143E85AE3C501B4010E943FB287FF73
:102E500002C00C94182CC501B4010E941EB80E9437
:102E6000F2B71B01672B19F422242394312CB101F2
:102E700080E090E00E9443B24B015C019B01AC01F9
:102E8000C701B6010E9485B76EAB7FAB88AF99AF23
:102E9000A5019401C301B2010E9485B766966CAF8B
:102EA0007DAF8EAF9FAF66976E962CAD3DAD4EADAC
:102EB0005FAD6E97A2966CAD7DAD8EAD9FADA297C6
:102EC0000E94A8B6A50194010E9485B7A2966CAF96
:102ED0007DAF8EAF9FAFA2972EA93FA948AD59AD48
:102EE000CA01B9010E94A4B220E030E040E05FE3F3
:102EF0000E94A4B29B01AC0160E070E080E89FE317
:102F00000E94A8B62E966CAF7DAF8EAF9FAF2E9766
:102F100062962CAD3DAD4EAD5FAD629729873A8785
:102F20004B875C876E968CAD9DADAEADBFAD6E9799
:102F30008D879E87AF87B88B6091120270911302C4
:102F4000072E000C880B990B0E9445B2209140027D
:102F50003091410240914202509143020E94A4B23A
:102F60002AE037ED43E25CE30E94A4B26AA77BA7A4
:102F70008CA79DA70E94246C9B01AC0128533F4F56
:102F80004F4F5F4F62962CAF3DAF4EAF5FAF629732
:102F90004EA45FA468A879A841E050E024965FAFF2
:102FA0004EAF249759E15EAF24962EAD3FAD2497E6
:102FB0002215330509F43EC10E946D3D0E94246C28
:102FC000DC01CB0162962CAD3DAD4EAD5FAD62979D
:102FD000821B930BA40BB50BB7FD10C00E94246C91
:102FE0009B01AC0128533F4F4F4F5F4F62962CAF70
:102FF0003DAF4EAF5FAF62970E946D4C3EAD31501A
:103000003EAF332309F441C02E962CAD3DAD4EADFD
:103010005FAD2E976AA97BA98CA99DA90E94A4B235
:103020006B017C012EA93FA948AD59ADB201C30186
:103030000E94A4B2A70196010E94A9B67B018C014F
:103040002E962CAD3DAD4EAD5FAD2E97B201C301B6
:103050000E94A4B24B015C012EA93FA948AD59AD15
:103060006AA97BA98CA99DA90E94A4B29B01AC016D
:10307000C501B4010E94A8B62B013C01C701D801CB
:103080008AAB9BABACABBDAB53C024964EAD5FAD32
:103090002497BA0180E090E00E9443B22EA93FA994
:1030A00048AD59AD0E94A4B24B015C010E9482B7A9
:1030B0006B017C01C501B4010E940AB94B015C019E
:1030C000A70196016EA57FA588A999A90E94A4B21F
:1030D0002B013C01A50194016AAD7BAD8CAD9DAD8A
:1030E0000E94A4B29B01AC01C301B2010E94A9B627
:1030F0002B013C01A50194016EA57FA588A999A982
:103100000E94A4B24B015C01A70196016AAD7BADA0
:103110008CAD9DAD0E94A4B29B01AC01C501B40170
:103120000E94A8B66AAB7BAB8CAB9DAB59E15EAF9E
:103130009201A3012A966CAD7DAD8EAD9FAD2A970D
:103140000E94A9B669837A838B839C832AA93BA9B1
:103150004CA95DA96A966CAD7DAD8EAD9FAD6A97A9
:103160000E94A9B66D837E838F83988766962CAD67
:103170003DAD4EAD5FAD669769857A858B859C8543
:103180000E94A9B669877A878B879C87A2962CAD07
:103190003DAD4EAD5FADA2976D857E858F859889DB
:1031A0000E94A9B66D877E878F87988B80911102C8
:1031B000882321F0CE0101960E946649E09084099F
:1031C0001AA21BA21CA21DA289819A81AB81BC817B
:1031D0008E8B9F8BA88FB98F8D819E81AF81B88593
:1031E0008A8F9B8FAC8FBD8F89859A85AB85BC8577
:1031F0008E8F9F8FA8A3B9A3AE01425E5F4FBE0121
:10320000665E7F4FCE0146960E949D8DCE018296CE
:103210006C018E01065D1F4F9E01235F3F4FAE0183
:10322000425E5F4FBE01665E7F4F0C970E94A37C9B
:10323000811151C0E09084091EA21FA218A619A6F0
:103240008091A3099091A409A091A509B091A60924
:103250008E8B9F8BA88FB98F8091A7099091A80919
:10326000A091A909B091AA098A8F9B8FAC8FBD8FBD
:103270008091AB099091AC09A091AD09B091AE09D4
:103280008E8F9F8FA8A3B9A3AE01425E5F4FBE0190
:10329000665E7F4FCE0146960E949D8DDE0196961A
:1032A0006D018E01065D1F4F2FEA39E0AE01425ECF
:1032B0005F4FBE01665E7F4FCE0146960E94A37CA3
:1032C00080E1E3EAF9E0AEE6BDE001900D928A9577
:1032D000E1F70C94182C2496EEADFFAD24973196AF
:1032E0002496FFAFEEAF24975FCEE6E4F6E284913A
:1032F0008F010F5F1F4F882321F00E94F557F801BF
:10330000F6CFE3ECF1E084918F010F5F1F4F88232C
:1033100011F40C94182C0E94F557F801F4CF80E5B5
:103320000E941F57882329F00E9465566B017C017B
:1033300003C0C12CD12C760183E50E941F5788233E
:1033400061F00E94A55620E030E04AE754E40E9474
:10335000A4B20E94F2B76B017C010E94DD8C0E9436
:10336000246CC60ED71EE81EF91E0E94246CDC01D8
:10337000CB018C199D09AE09BF09B7FD02C00C94A1
:10338000182C0E946D4CF1CF0E94859D81110C94E8
:10339000182C80E090E0A0E2B1E489839A83AB83AB
:1033A000BC8380E090E8A0ECB3E48D839E83AF8380
:1033B000B88780E090E0A0EAB1E489879A87AB877C
:1033C000BC8780E50E941F57882319F00E9475561C
:1033D00001C060E080E090E0A8ECB2E48EA39FA37F
:1033E000A8A7B9A780E090E0A0EAB0E48AA39BA3D5
:1033F000ACA3BDA3613019F0623039F029C0BE0121
:103400006E5D7F4FCE01099644C029853A854B8574
:103410005C856091760D7091770D8091780D90911B
:10342000790D0E94A9B66B017C0120E030E048ECE8
:1034300053E40E943FB287FD06C0C12CD12C98EC0A
:10344000E92E93E4F92ECE8ADF8AE88EF98E1CC02D
:10345000A090760DB090770DC090780DD090790D3A
:10346000E984FA840B851C859501A601B701C80182
:103470000E94CFB8181614F075018601C701D80153
:103480008E8B9F8BA88FB98FBE016E5D7F4FCE0153
:1034900046960E94135DE090760DF090770D0091B6
:1034A000780D1091790D2D813E814F81588569816C
:1034B0007A818B819C81DE0196966D010E94E55B8D
:1034C0000C94182C80918A0D85FF0EC0EBE3F2E07E
:1034D00084918F010F5F1F4F882321F00E94F557C1
:1034E000F801F6CF0E94F2318091690D8770873024
:1034F00071F58FE40E941F57882369F00E94965649
:10350000882329F180918A0D85FD02C00C94182C26
:10351000E0E2F2E004C08FE40E94D856F1CF84913B
:103520008F010F5F1F4F882321F00E94F557F8018C
:10353000F6CFE7E1F2E084918F010F5F1F4F882300
:1035400011F40C94182C0E94F557F801F4CF0E9446
:10355000DD8C80E00E94BD5EA090840921E040E007
:1035600050E0BA0180E00E948F600E94375E809137
:103570008A0D85FF0CC0EEEFF1E084918F010F5FA3
:103580001F4F882321F00E94F557F801F6CF11E074
:103590001093A70A88E50E94D856B82E89E50E94A4
:1035A000D856082F8AE50E94D856F82EB11004C0CC
:1035B000011104C0182705C0011102C010E001C0AC
:1035C000182F0E94EB57111102C0FF2019F082E062
:1035D0000E940A4A82E50E941F57882361F00E94D8
:1035E000A5566B017C0120E030E0A9010E943FB2AA
:1035F0008823D1F105C0C12CD12C80E4E82EFE2C0B
:10360000111104C0B11002C00023E9F1C092AB094E
:10361000D092AC09E092AD09F092AE092091760DFE
:103620003091770D4091780D5091790DC701B60119
:103630000E94CFB81816C4F480918A0D85FF09C086
:10364000B701A60182EE91E00E94FBA18AE00E94F0
:10365000F55719821A821B821C82BE016F5F7F4F51
:103660008BEA99E00E94135D111105C0011103C09E
:10367000B11006C008C081E00E940A4A1123C1F3BC
:1036800080E00E940A4A0E94615E8091A60A8093AF
:10369000A70A0E94135E21E040E050E0BA018A2DA3
:1036A0000E948F600E94B86680918A0D85FD02C0DD
:1036B0000C94182CE9EDF1E084918F010F5F1F4FFE
:1036C000882311F40C94182C0E94F557F801F4CFBC
:1036D0000E9401360C94182CC0906E0DD0906F0D86
:1036E000E090700DF090710D88E50E941F578111D8
:1036F00009C020E030E040E251E4C701B6010E9479
:10370000A9B602C00E94A5566E8B7F8B888F998FB9
:10371000C090720DD090730DE090740DF090750D07
:1037200089E50E941F57811109C020E030E040E286
:1037300051E4C701B6010E94A9B602C00E94A55675
:103740009B01AC0169837A838B839C836E897F891B
:10375000888D998D0E94A14B882311F40C94182C0C
:1037600080E00E94BD5E0E94375E85E40E941F5784
:10377000882321F00E949656182F04C085E40E94E9
:10378000D85611E086E50E941F57882321F00E9439
:103790007556262F01C021E0412FBE016F5F7F4F7C
:1037A000CE0146960E94F69D6B017C019B01AC0107
:1037B0000E9455B981115FC08E889F88A88CB98CF2
:1037C00020E030E0A901C501B4010E943FB287FDAD
:1037D00005C027E137EB41E558E304C027E137EBAB
:1037E00041E558EBC501B4010E94A9B6AB01BC018B
:1037F0008EE492E00E94FBA189809A80AB80BC801D
:1038000020E030E0A901C501B4010E943FB287FD6C
:1038100005C027E137EB41E558E304C027E137EB6A
:1038200041E558EBC501B4010E94A9B6AB01BC014A
:1038300089E492E00E94FBA120E030E0A901C701E9
:10384000B6010E943FB287FD05C027E137EB41E595
:1038500058E304C027E137EB41E558EBC701B60157
:103860000E94A9B6AB01BC0184E492E00E94FBA1D6
:103870008AE00E94F5570E94135E0E94B8660C947D
:10388000182C80910602882311F40C94182C89E4DA
:103890000E941F57182F882321F00E947556E62E8C
:1038A00001C0E12C8AE40E941F57082F882331F0C1
:1038B0000E947556F62E111104C00BC0F12C112375
:1038C000C1F0B3E0BE1510F00C94D131E6E5F2E0A2
:1038D00004C0E3E0EF15D0F30CC084918F010F5FBB
:1038E0001F4F882311F40C94182C0E94F557F801EF
:1038F000F4CF0E94EB571123F1F02091090D309184
:103900000A0D4E2D4203B001439F700D112480918A
:10391000B20C9091B30C680F791F072E000C880B26
:10392000990B0E9445B26093A3097093A4098093F8
:10393000A5099093A6090023F1F020910B0D309179
:103940000C0D5F2D5203B001539F700D1124209177
:10395000B40C3091B50C620F731F072E000C880B4E
:10396000990B0E9445B26093A7097093A8098093B0
:10397000A9099093AA0980E50E941F578823E9F0BE
:103980000E9496568823A9F11123D9F020E030E057
:1039900040E251E46091A3097091A4098091A509C6
:1039A0009091A6090E94A8B66093A3097093A409F8
:1039B0008093A5099093A60904C080E50E94D8567B
:1039C000E1CF0023B1F020E030E040E251E460912B
:1039D000A7097091A8098091A9099091AA090E944C
:1039E000A8B66093A7097093A8098093A90990933A
:1039F000AA0986E40E941F578823D9F00E94A55681
:103A00006B017C0120E030E0A9010E94CFB81816BC
:103A100084F420E030E040E752E4C701B6010E94A0
:103A200085B7609340027093410280934202909365
:103A300043020E94AD4F0C94182C109356030C9423
:103A4000182CA4E52A2EA2E03A2EB7E9CB2EB9E035
:103A5000DB2EE12CF12C00E010E0D1018D911D0155
:103A60000E941F57882309F44EC00E94A5562B01BF
:103A70003C01133059F0F701E258F24F20813181B7
:103A8000428153810E94A8B62B013C01F701E25903
:103A9000F24F2081318142815381C301B2010E94E2
:103AA000A8B64B015C012DEB37E346E855EB0E94CD
:103AB000CFB887FD0AC02DEB37E346E855E3C501D3
:103AC000B4010E943FB21816F4F4133051F440923E
:103AD0007A0D50927B0D60927C0D70927D0D01E00D
:103AE00012C0A5019401F6016081718182819381E8
:103AF0000E94A9B6D6016D937D938D939C931397E5
:103B0000812F0E94FF571F5FB4E0CB0ED11CE4E071
:103B1000EE0EF11C143009F0A0CF002309F44FC0C1
:103B200020E030E0A90160917A0D70917B0D8091C9
:103B30007C0D90917D0D0E94A9B62091770E309159
:103B4000780E4091790E50917A0E0E94A4B20E9494
:103B5000DAB86093B70D7093B80D8093B90D909358
:103B6000BA0D9091950D8091960D981719F00E94BD
:103B70007F8C25C00E94DD8C80916F0081FB99278E
:103B800090F981FF05C080916F008D7F80936F0059
:103B90004091B70D5091B80D6091B90D7091BA0D6B
:103BA00040934C0850934D0860934E0870934F0813
:103BB000992329F080916F00826080936F000E94AA
:103BC000B8660C94182C0E94CEA00C94182C8091EE
:103BD000D90A9091DA0A8B39910509F44CC30CF09B
:103BE00099C08936910509F42BC30CF053C08D346C
:103BF000910509F4D8C154F58A32910509F472C1CE
:103C0000BCF48231910509F4DAC38F31910509F4CE
:103C100044C1419711F00C94B42B5F988A9880911D
:103C20000801817080930601129847980C94182C13
:103C30008B34910509F49EC10CF0A0C1C09711F01E
:103C40000C94B42B0E9484960C94182C8335910507
:103C500009F4B1C364F48135910509F498C30CF0FB
:103C6000A6C38E34910509F4A2C10C94B42B8535FA
:103C7000910509F4D9C30CF4A2C38C35910509F45C
:103C8000EEC38836910511F00C94B42B0E94D269D2
:103C90000C94182C8137910509F4A6C2B4F48D3622
:103CA000910509F40FC354F48B36910509F45DC3F3
:103CB0000CF43DC3109200020C94182C8F36910521
:103CC00009F48AC20CF475C28BC28637910509F4D7
:103CD000D4C36CF48337910509F4CBC30CF4C3C38C
:103CE0008537910511F40C94182C0C94B42B88375B
:103CF000910509F44EC40CF4C4C38937910509F445
:103D00004FC48C38910511F00C94B42B0E94BA6901
:103D10000C94182C8F32F1E09F0709F484C70CF043
:103D200054C0833D910509F424C514F58B3C9105DD
:103D300009F4A5C474F4883C910509F437C4893C9E
:103D4000910509F498C48E3B910511F00C94B42BA5
:103D5000D7C28D3C910509F49AC40CF494C48E3CEE
:103D6000910511F00C94B42B0E9491680C94182CBE
:103D7000823E910509F47FC58CF48C3D910509F4D0
:103D8000FCC48D3D910509F407C58A3D910511F0EC
:103D90000C94B42B0E94E7630C94182C823231E00F
:103DA000930709F43EC634F48831914009F48FC575
:103DB0000C94B42B8D32A1E09A0709F43FC68E32E1
:103DC000914009F4DCC60C94B42B8C3AE1E09E07D8
:103DD00009F4CBC474F5823921E0920711F40C94F4
:103DE000BA2994F4803941E0940711F40C94B12974
:103DF00014F00C94B4298336914011F00C94B42B38
:103E0000E6E4F6E20C949A29843AB1E09B0711F4B7
:103E10000C94C029853AE1E09E0711F40C94752AB0
:103E20008A39914011F00C94B42B0E94AE630C942B
:103E3000182C873F21E0920711F40C940D2B94F479
:103E4000853F41E0940711F40C94072B14F00C9477
:103E50000A2B843F914011F00C94B42B0E94F77709
:103E60000C94182C8335B3E09B0711F40C943B2B76
:103E70003CF4883F914011F40C94182B0C94B42B13
:103E80008B3823E0920711F40C94182C873E934052
:103E900011F40C94A12B0C94B42B0E941F3F6E8B39
:103EA0007F8B888F998FBE016F5F7F4FCE014696C3
:103EB0000E942B57E0E4F6E284918F010F5F1F4FC1
:103EC000882321F00E94F557F801F6CFBE016F5FFD
:103ED0007F4F85E792E00E944DA28AE00E94F5574D
:103EE0000C94182C83E50E941F57882311F40C941E
:103EF000182C0E948556E82E80E50E941F578823C3
:103F000039F00E948556182F87FF03C00C94182C97
:103F10001DE089E40E941F57882349F00E949656AD
:103F2000811111C0E6E6F3E086E38E0F07C089E455
:103F30000E94D856F5CF31968E1729F09491191317
:103F4000FACF0C94782F61E0812F0E94B36A6E2D16
:103F5000812F0E94846AF12CB701812F0E94EF6AA1
:103F6000193011F00C94182CF092F70CE092F60C2A
:103F70000C94182C0E9475A20C94182C8091940A11
:103F8000813011F00C94182C82E08093940A0E94E6
:103F9000246C60938C0A70938D0A80938E0A9093A0
:103FA0008F0A0C94182C0E94D3A20C94182C83E531
:103FB0000E941F57811103C0E0EEF2E009C00E9489
:103FC00075566E347105C1F70E9443A30C94182CEA
:103FD00084918F010F5F1F4F882321F00E94F557B6
:103FE000F801F6CFE7EDF2E084918F010F5F1F4FEC
:103FF000882321F00E94F557F801F6CF6091960AC8
:104000007091970A80E090E04AE00E94455AEAECFD
:10401000F2E084918F010F5F1F4F882321F00E94EF
:10402000F557F801F6CF6091980A7091990A80E0EF
:1040300090E04AE00E94455AEFEBF2E084918F0154
:104040000F5F1F4F882321F00E94F557F801F6CF2C
:104050006091960A7091970A8091980A9091990AB6
:10406000681B790B8091940A815021E030E0823006
:1040700010F020E030E0621B730B80E090E04AE03B
:104080000E94455A8AE00E94F557E7EBF2E08491DE
:104090008F010F5F1F4F882321F00E94F557F80111
:1040A000F6CF80919A0A90919B0AA0919C0AB091B8
:1040B0009D0A8E8B9F8BA88FB98FBE016F5F7F4F3C
:1040C000CE0146960E942B57EAEAF2E084918F01D6
:1040D0000F5F1F4F811106C0AE014F5F5F4F7A0126
:1040E0008A0104C00E94F557F801F0CFD8018D91E4
:1040F0008D01882319F00E94F557F8CF80919E0A10
:1041000090919F0AA091A00AB091A10A8E8B9F8BDB
:10411000A88FB98FBE016F5F7F4FCE0146960E9478
:104120002B57EAE9F2E084918F010F5F1F4F88233C
:1041300021F00E94F557F801F6CFF70181917F0138
:10414000882319F00E94F557F8CF8AE00E94F557AE
:10415000E2E9F2E084918F010F5F1F4F882321F085
:104160000E94F557F801F6CFE2E8F2E084918F0162
:104170000F5F1F4F882321F00E94F557F801F6CFFB
:1041800020E030E04AE754E46091A20A7091A30A6B
:104190008091A40A9091A50A0E9485B742E00E94EE
:1041A000015B8DE60E94F5578AE00E94F5570C945A
:1041B000182C8EE40E941F57882311F40C94182C9D
:1041C0000E94755660938E0D70938F0D8093900DA5
:1041D0009093910D0C94182C0E9443690C94182C08
:1041E00088EE92E00E943D4C83E50E941F57882391
:1041F00069F00E9485568D3320F4809314020C944C
:10420000182C8CE3809314020C94182CE0E4F6E252
:1042100084918F010F5F1F4F882321F00E94F55773
:10422000F801F6CF4091140250E060E070E081EFB9
:1042300092E00E94DEA18AE00E94F5570C94182CAF
:1042400089E690E00E94AB5A811111C0E8EFF2E0DC
:1042500084918F010F5F1F4F882321F00E94F55733
:10426000F801F6CF0E944D6D8AE00E94F55710923A
:1042700085090C94D83183E50E941F57882311F4D7
:104280000C94182C0E948556182F8D3308F01CE3CF
:10429000109396090E94246C6B017C01212F30E061
:1042A000A8EEB3E00E9499B6C60ED71EE81EF91E0E
:1042B000C0929209D0929309E0929409F0929509E4
:1042C0000C94182C8DE690E00E94AB5A81110C944E
:1042D000182C80918A0D83FF02C00C94182C83E562
:1042E0000E941F5727968FAF279781110C942A2C75
:1042F00082E50E941F5781110C942A2C0C94182CD3
:1043000080918A0D83FF02C00C94182C83E50E94D3
:104310001F5727968FAF279781110C94C22D82E5E6
:104320000E941F5781110C94C22D0C94182C80E50B
:104330000E941F57811106C083E50E941F578823E2
:1043400061F006C00E94855681110C94182CF4CFA0
:104350000E9475566F3F710510F06FEF70E070931B
:10436000F70C6093F60C0C94182C80E50E941F57F4
:10437000811106C01092F70C1092F60C0C94182CB8
:104380000E947556672B11F00C94182CF3CF0E94E5
:1043900028710E94478D1092F70C1092F60C68EE6F
:1043A00073E080E090E00E947A6C0C94182C1092DC
:1043B00055030C94182C109355030C94182C83E57A
:1043C0000E941F578823A1F00E94A55620E030E0EC
:1043D0004AE754E40E94A4B20E94F2B760938609AF
:1043E0007093870980938809909389090C94182CFD
:1043F00088E50E94D85681110C94472F89E50E94C8
:10440000D85681110C94472F8AE50E94D856811105
:104410000C94472F85E40E94D85681110C94472FA5
:104420000E94478D0C94182C83E50E94D85688234F
:1044300011F40C94182C0E94A55620E030E04AE7B5
:1044400054E40E94A4B20E94F2B760938E09709364
:104450008F0980939009909391090C94182C0E94D5
:10446000B9680C94182C0E94DD8C0E94B8660C94DC
:10447000182C0E9469660C94182C0E9417660C94E4
:10448000182CE5E2F3E084918F010F5F1F4F882322
:1044900021F00E94F557F801F6CFEDE1F3E08491A9
:1044A0008F010F5F1F4F882321F00E94F557F801FD
:1044B000F6CF659903C002E113E002C007E113E003
:1044C000D8018D918D01882319F00E94F557F8CFFE
:1044D0008AE00E94F557E5E1F3E084918F010F5FD8
:1044E0001F4F882321F00E94F557F801F6CF8091E5
:1044F000030180FD03C002E113E002C007E113E005
:10450000F80181918F01882319F00E94F557F8CFA7
:104510008AE00E94F557EDE0F3E084918F010F5F90
:104520001F4F882321F00E94F557F801F6CF4A99D2
:1045300003C002E113E002C007E113E0D8018D914E
:104540008D01882319F00E94F557F8CF8AE00E9468
:10455000F557E3E0F3E084918F010F5F1F4F88234D
:1045600021F00E94F557F801F6CF7B9903C002E1D4
:1045700013E002C007E113E0F80181918F01882365
:1045800019F00E94F557F8CF8AE00E94F5570C9475
:10459000182C81E08093A70A8093A60A0C94182C0B
:1045A0001092A70A1092A60A0C94182C88EC90E09E
:1045B0000E94AB5A81110C94182C84E40E94D856A6
:1045C000882309F454C00E94A55611E020E030E091
:1045D000A9010E943FB2811101C010E01093B80CF4
:1045E000112309F444C00E94A556E091910C24E0E7
:1045F000E29FF0011124EF53F34F608371838283B4
:10460000938320E030E0A9016091C10C7091C20C4D
:104610008091C30C9091C40C0E943FB281110CC0D8
:1046200080E090E0A0EEBFE38093C10C9093C20CB9
:10463000A093C30CB093C40C20E030E0A9016091BA
:10464000C50C7091C60C8091C70C9091C80C0E944B
:104650003FB281110CC080E090E0A0EEBFE38093F8
:10466000C50C9093C60CA093C70CB093C80C0E94C5
:10467000EB8D0C94182C0E94F2650C94182C0E945F
:10468000D0650C94182C0E9459650C94182C82E467
:104690000E94D856882351F00E9465566093EA0C18
:1046A0007093EB0C8093EC0C9093ED0C83E50E94DF
:1046B000D856882351F00E94A5566093F20C70934F
:1046C000F30C8093F40C9093F50C84E50E94D8567B
:1046D000882351F00E94A5566093EE0C7093EF0C66
:1046E0008093F00C9093F10C8AE40E94D8568823B2
:1046F00011F40C94182C0E94A5566B017C012AE041
:1047000037ED43E25CE30E94CFB887FD14C02AE98D
:1047100039E949E95EE3C701B6010E943FB21816C4
:1047200054F0C092CA0CD092CB0CE092CC0CF09218
:10473000CD0C0C94182CE6E4F6E284918F010F5F07
:104740001F4F81110EC0EFE3F3E084918F010F5FE3
:104750001F4F882311F40C94182C0E94F557F80170
:10476000F4CF0E94F557F801E8CF0E94A5670C949A
:10477000182C0E947B640C94182C83E50E941F5710
:10478000882311F40C94182C0E9475567093130210
:10479000609312020C94182C8DED90E00E94AB5A9D
:1047A00081110C94182C83E50E941F578823D9F19E
:1047B0000091910C10E00E947556000F111FF80136
:1047C000E25DFD4F718360838091910C90E07C01EC
:1047D000EE0CFF1CEE0CFF1C87010E5C1D4F880FBA
:1047E000991FFC01E25DFD4F60817181072E000C75
:1047F000880B990B0E9445B22AE037ED43E25CE357
:104800000E94A4B2F701E754F34F20813181428125
:1048100053810E94A4B2D8016D937D938D939C9394
:1048200013970C94182CE0E4F6E284918F010F5F4B
:104830001F4F882321F00E94F557F801F6CF85E439
:104840000E94F5578091910C805D0E94F557E09190
:10485000910CF0E0EE0FFF1FE25DFD4F6081718172
:104860008EE593E00E9418A285E20E94F5578AE047
:104870000E94F557DDC780E50E94D856882309F4C9
:10488000D7C70E9475566B017C0183E50E941F57B4
:10489000882321F00E9475568B0102C00FEF1FEF95
:1048A000C8010196039708F0C3C7D7FE01C0C0C76F
:1048B0009C2DE6E6F3E086E38E0F2491921711F427
:1048C0000C94782F31968E13F8CF0C947B2F80E5C3
:1048D0000E94D856882309F4ABC70E9475566B0115
:1048E0007C018B01672B09F07EC083E50E94D856BE
:1048F000882339F00E94755688E29EE00E94414765
:1049000097C7E0E4F6E284917F01BFEFEB1AFB0A60
:10491000882321F00E94F557F701F5CF60E070E0A1
:1049200085EB93E00E9418A280912A0E28E532E0E0
:104930006901C81AD10887FDD394CC0CDD1CCC0CBE
:10494000DD1C0D2C000CEE08FF088091290E28E8D4
:1049500030E04901881A910887FD9394880C991CCE
:10496000880C991C092C000CAA08BB088091280E01
:104970008F3FB9F090E0FC01EE0FFF1F8E0F9F1FDD
:10498000FC01E554F24F01811281E3E0000F111F99
:10499000EA95E1F7F4E016950795FA95E1F70E5FD1
:1049A0001F4F98012F5F3F4FC901330FAA0BBB0B5D
:1049B0009C01AD01281939094A095B09A4EBB0E053
:1049C0000E9489B6A7019601281939094A095B098D
:1049D0000E946DB6B90182EB93E00E9418A28AE0B2
:1049E0000E94F55725C7E6E4F6E284918F010F5F38
:1049F0001F4F882321F00E94F557F801F6CFB6012A
:104A00008BEA93E00E9418A2ECE9F3E084918F0115
:104A10000F5F1F4F882309F40BC70E94F557F80159
:104A2000F5CF8AE50E941F5781110C94A32F83E5CF
:104A30000E941F5781110C94A32FFAC685E40E948F
:104A40001F57811110C080E50E94D856882391F02D
:104A50000E94A55660935408709355088093560899
:104A60009093570807C00E948556823060F3E6E4B1
:104A7000F6E26EC089E40E94D856882381F00E9435
:104A8000A5562CEA35EC47E25EE30E94A4B260939F
:104A9000500870935108809352089093530884E40F
:104AA0000E94D856882381F00E94A5562CEA35EC46
:104AB00047E25EE30E9485B76093580870935908F7
:104AC00080935A0890935B08E0E4F6E284918F01AA
:104AD0000F5F1F4F882321F00E94F557F801F6CF92
:104AE00040915408509155086091560870915708AC
:104AF00085EC93E00E94FBA12CEA35EC47E25EE3F3
:104B0000609150087091510880915208909153081B
:104B10000E9485B7AB01BC0181EC93E00E94FBA130
:104B20002CEA35EC47E25EE3609158087091590831
:104B300080915A0890915B080E94A4B2AB01BC011D
:104B40008DEB93E00E94FBA18AE00E94F55770C6AE
:104B500084918F010F5F1F4F882321F00E94F5572A
:104B6000F801F6CFE9ECF3E084918F010F5F1F4F5E
:104B7000882309F45DC60E94F557F801F5CF83E557
:104B80000E94D856182F882371F00E94A5560E94C3
:104B9000EDB770933B0260933A0221E0672B09F076
:104BA00020E02093F80C80E50E94D856882359F025
:104BB00020913A0230913B02232B11F00E9496562D
:104BC0008093F80C35C6111133C6E0E4F6E2849107
:104BD0008F010F5F1F4F882321F00E94F557F801C6
:104BE000F6CF8091F80C811103C061E273E002C03E
:104BF00064E173E080EF93E00E944DA260913A027D
:104C000070913B028FED93E00E9418A2EBEDF3E070
:104C100084918F010F5F1F4F882309F409C60E94FA
:104C2000F557F801F5CF85E40E941F57882321F03E
:104C30000E9475568B0102C000E010E083E40E94E0
:104C40001F57882331F00E947556E3966FAFE397A4
:104C500004C025E0E3962FAFE39785E50E941F5738
:104C6000882319F00E94965603C085E50E94D85605
:104C7000EF968FAFEF9717FD07C0812C912C66E15F
:104C8000A62E63E4B62E06C0812C912C5CE8A52EDE
:104C900052E4B52E83E50E941F57882321F00E941D
:104CA000A5564B015C010230110510F40093910CE4
:104CB0000E94246C2B013C01023068F0EEEBF5E021
:104CC00084918F010F5F1F4F882309F4B1C50E94A3
:104CD000F557F801F5CFE8EEF5E084916F013FEF6D
:104CE000C31AD30A882321F00E94F557F601F5CFA5
:104CF00027960FAF2797C501B4010E94EDB7072E85
:104D0000000C880B990B0E9445B26AAF7EAB8EAF48
:104D100023969FAF2397D301C20180549B42AE4F8D
:104D2000BF4FC957DF4F88839983AA83BB83C75876
:104D3000D0400E942871602F000F770BFB01E458D0
:104D4000F34F8FE7808381E080930002EA964CAEB8
:104D50005DAE6EAE7FAEEA97C158DF4F4882598292
:104D60006A827B82CF57D040E6961FAEE697CD573A
:104D7000DF4F188219821A821B82C358D0402B96AB
:104D80001FAE2B9790E42F969FAF2F97ACE16B96B9
:104D9000AFAF6B97B6E46396BFAF63976F961FAEE6
:104DA0006F97A3961FAEA397A7961FAEA797A89637
:104DB0001FAEA897E0961CAE1DAE1EAE1FAEE097CC
:104DC000AC961CAE1DAE1EAE1FAEAC97C12CD12C46
:104DD00076012FE730E040E050E02AAB3BAB4CAB34
:104DE0005DAB3FE7832E912CA12CB12CEE961CAE2F
:104DF0001DAE1EAE1FAEEE9731E0E5963FAFE597D4
:104E000068961FAE1EAE689710E0212C312C00E092
:104E1000660F771F660F771FAB014B57534FE29614
:104E20005FAF4EAFE297C557DF4FF983E883CB58AA
:104E3000D040E3968FADE397082E000C990BE496D3
:104E40009FAF8EAFE49780910002882309F403C1DD
:104E50000E94246C6EA77FA788AB99AB8091730CDE
:104E6000882309F4DAC00E94FF71E296AEADBFADAF
:104E7000E2971C9111962C90119712963C901297E4
:104E800013960C91212F322D432D502F6F966FAD1D
:104E90006F97A3967FADA397A7968FADA797A89678
:104EA0009FADA8970E943FB287FF0CC06F961FAFBF
:104EB0006F97A3962FAEA397A7963FAEA797A896F6
:104EC0000FAFA897212F322D432D502F2B966FAD6A
:104ED0002B972F967FAD2F976B968FAD6B97639621
:104EE0009FAD63970E94CFB8181664F42B961FAF3E
:104EF0002B972F962FAE2F976B963FAE6B9763969F
:104F00000FAF6397E596BFADE5972AAD3EA94EADCD
:104F100023965FAD2397612F722D832D902FBB2396
:104F200009F460C00E94CFB818160CF076C02EA508
:104F30003FA548A959A92419350946095709C35756
:104F4000DF4F288339834A835B83CD58D040DA0111
:104F5000C90188589341A109B109B7FD5EC0D501C7
:104F6000C4012AA93BA94CA95DA9821B930BA40BE0
:104F7000B50BB595A79597958795C557DF4FE881F0
:104F8000F981CB58D0408083C357DF4F28813981C6
:104F90004A815B81CD58D040EE962CAF3DAF4EAFED
:104FA0005FAFEE973AAD6F963FAF6F974EA9A3965E
:104FB0004FAFA3975EADA7965FAFA79723968FAD30
:104FC0002397A8968FAFA8972EA53FA548A959A9C2
:104FD000EA962CAF3DAF4EAF5FAFEA97E5961FAEB6
:104FE000E5971BC00E943FB287FF17C08EA59FA503
:104FF000A8A9B9A9EA962CAD3DAD4EAD5FADEA9733
:10500000821B930BA40BB50BAC01BD014858534157
:105010006109710977FD01C0D1C720E030E040EAA5
:1050200051E46AAD7EA98EAD23969FAD23970E9471
:10503000A9B69B01AC01612F722D832D902F0E9488
:10504000CFB818167CF4EAE4F5E084918F010F5F85
:105050001F4F811103C00E942871EAC30E94F557B7
:10506000F801F3CF8EA59FA5A8A9B9A9C158DF4F14
:10507000288139814A815B81CF57D040821B930BB5
:10508000A40BB50BB7FDBCC00E944D6D8AE00E9419
:10509000F5578EA59FA5A8A9B9A98053984FAF4FE2
:1050A000BF4FC158DF4F88839983AA83BB83CF57F3
:1050B000D040E6969FADE697911176C0CD57DF4F71
:1050C000288139814A815B81C358D040612F722D7C
:1050D000832D902F0E94CFB818160CF041C020E00D
:1050E00030E040E050E4612F722D832D902F0E941C
:1050F000A9B6CD57DF4F688379838A839B83C358D2
:10510000D0402EA53FA548A959A920543B424E4F57
:105110005F4FC957DF4F288339834A835B83C75862
:10512000D04020E030E040EE50E46AAD7EA98EAD84
:1051300023969FAD23970E94A8B69B01AC0181E006
:10514000E6968FAFE697612F722D832D902F0E94E8
:10515000CFB818160CF454C0E6961FAEE69750C0B0
:105160008EA59FA5A8A9B9A9C957DF4F2881398164
:105170004A815B81C758D040821B930BA40BB50BAF
:10518000B7FD3EC027963FAD27973F3F29F031300E
:1051900031F046E255E005C044E055E002C048E386
:1051A00055E067E175E027C020E030E040EA51E4D7
:1051B0006AAD7EA98EAD23969FAD23970E94A8B6B7
:1051C0009B01AC01612F722D832D902F0E943FB265
:1051D00087FF16C027964FAD27974F3F29F04130E4
:1051E00031F04EED54E005C04AEB54E002C041EF0F
:1051F00054E06EEC74E027968FAD27970E94003D37
:105200008EA59FA5A8A9B9A9880F991FAA1FBB1F82
:10521000EA962CAD3DAD4EAD5FADEA97821B930B88
:10522000A40BB50B84199509A609B70981389F44C9
:10523000A241B10568F0ECE9F4E084918F010F5FC1
:105240001F4F882309F407CF0E94F557F801F5CFC7
:1052500068964EAD5FAD6897E4968EAD9FADE497CE
:10526000841795070CF0EFCDEFE3F4E084918F0104
:105270000F5F1F4F882321F00E94F557F801F6CFEA
:10528000B701A6018BE294E00E94FBA18AE00E9494
:10529000F557AC964CAD5DAD6EAD7FADAC9787E18B
:1052A00094E00E94FBA18AE00E94F557E0964CAD85
:1052B0005DAD6EAD7FADE09783E094E00E94FBA111
:1052C0008AE00E94F557EF969FADEF97992309F476
:1052D000AFC2C0925408D0925508E0925608F0929E
:1052E00057082CEA35EC47E25EE3AC966CAD7DAD39
:1052F0008EAD9FADAC970E94A4B26093500870939E
:10530000510880935208909353082CEA35EC47E2F9
:105310005EE3E0966CAD7DAD8EAD9FADE0970E94F3
:1053200085B7609358087093590880935A089093F2
:105330005B087EC284918F010F5F1F4F882321F08D
:105340000E94F557F801F6CFECEFF5E084918F015C
:105350000F5F1F4F882309F46BC20E94F557F801B5
:10536000F5CF0E94DD8C64C281E00E94505D0E94F6
:10537000B8665EC280E00E94505D0E94B86658C266
:1053800083E50E94D856882349F00E949656082F3C
:10539000811106C080E00E94BD5E02C00091C90C70
:1053A00080916E0D90916F0DA091700DB091710D67
:1053B00089839A83AB83BC838091720D9091730D26
:1053C000A091740DB091750D8D839E83AF83B887C6
:1053D0008091760D9091770DA091780DB091790D17
:1053E00089879A87AB87BC878091090D90910A0DB8
:1053F000892B71F183E40E94D856811159C728C0C6
:1054000093014EA95EAD6A2D7F2D8AA99AAD0E94A7
:10541000A9B620E030E040E05FE30E94A4B2A20120
:1054200091010E94A9B62B013C012DEB37E346E820
:1054300055EB0E94CFB887FD88C72DEB37E346E8D0
:1054400055E3C301B2010E943FB218160CF47DC7A8
:1054500086E50E94D856882341F08091090D9091ED
:105460000A0D892B11F00E940CA7802F0E94BD5EAF
:10547000011103C0E0E4F6E210C08091C90C811173
:10548000F9CFE9E1F6E084918F010F5F1F4F882388
:1054900089F30E94F557F801F6CF84918F010F5FD1
:1054A0001F4F882321F00E94F557F801F6CF809115
:1054B000C90C811103C069E273E002C065E273E0C8
:1054C0008BE096E00E944DA28AE00E94F5574CE0E6
:1054D00050E06EE67DE0CE0101960E94ACB9892BCA
:1054E00009F4A6C10E94B866A3C189E40E941F57AF
:1054F000882321F00E947556162F01C01FEF8AE401
:105500000E941F57882321F00E947556062F01C064
:105510000FEF8AE50E94D856F82E811105C081E56B
:105520000E94D856D82E01C0D12C17FD02C007FF0B
:1055300003C0E6E4F6E205C0F1101AC0D11018C0AD
:10554000F8CF84918F010F5F1F4F882321F00E94B5
:10555000F557F801F6CFE7E5F6E084918F010F5F8C
:105560001F4F882309F464C10E94F557F801F5CF55
:10557000143018F0E6E4F6E206C00430D8F716C09E
:105580000E94F557F80184918F010F5F1F4F811121
:10559000F7CFE8E3F6E084918F010F5F1F4F882378
:1055A00009F446C10E94F557F801F5CFE12E110F1D
:1055B000FF08002E000C110B0E94A556D701AA0F60
:1055C000BB1FAA0FBB1FDD2071F0FD01E00FF11F13
:1055D000EE0FFF1FEE0FFF1FE35FF24F20813181BF
:1055E0004281538103C020E030E0A9010A0F1B1F54
:1055F000000F111F000F111F035F124F0E94A9B669
:10560000D8016D937D938D939C93139711C10E9444
:10561000EB770EC10E9458950BC183E50E94D856C6
:10562000882319F00E94965681270E94B59000C1E8
:1056300081E08093B70C0E944F721092B70C8823C0
:1056400009F4F6C0E0E4F6E284918F010F5F1F4F8A
:10565000882321F00E94F557F801F6CFE7E7F6E03E
:1056600084918F010F5F1F4F882309F4E1C00E94CE
:10567000F557F801F5CF8AE50E941F57882309F4F2
:1056800038C00E94A5566B017C0120E030E040EA62
:1056900051EC0E94CFB887FD13C020E030E040EA13
:1056A00051E4C701B6010E943FB218164CF0C092F7
:1056B0006A0DD0926B0DE0926C0DF0926D0DB8C03A
:1056C000E6E4F6E284918F010F5F1F4F81110DC058
:1056D000E4E9F6E084918F010F5F1F4F882309F4FE
:1056E000A7C00E94F557F801F5CF0E94F557F801C1
:1056F000E9CFE0E4F6E284918F010F5F1F4F88232A
:1057000021F00E94F557F801F6CFE5E8F6E0849124
:105710008F010F5F1F4F882321F00E94F557F8017A
:10572000F6CF40916A0D50916B0D60916C0D7091A8
:105730006D0D82E896E00E94FBA18AE00E94F55779
:1057400077C081E08093060283E50E941F5788237B
:1057500039F00E94965681116BC00E94975568C01F
:1057600083E50E94D856F7CF0E94CEA061C0009179
:10577000D90A1091DA0AF02E80918A0D85FF14C0A3
:10578000B80177278BEF96E00E9418A289E20E9469
:10579000F5578AE00E94F5574EE65DE06CED76E045
:1057A00087EE96E00E94315D80918409F81669F0D9
:1057B00083E50E941F57882319F00E94965603C064
:1057C00083E50E94D856F82E02C0FF24F39486E4A5
:1057D0000E941F57882319F00E94A55603C060E05D
:1057E00070E0CB0120E030E040E752E40E9485B752
:1057F000AB01BC012F2D802F0E948F6080918A0DFC
:1058000085FF16C04EE65DE06EEB76E088EC96E034
:105810000E94315DE1EBF6E084918F010F5F1F4F35
:10582000882331F00E94F557F801F6CF0E94CEA0F0
:1058300010928509E0915D0CF0E0EB54F54F80810A
:10584000882309F4B5C50E94F849B2C589D70E94DA
:10585000AD4FEECF0E94A556F090910C0F2D10E0A9
:10586000000F111F0357134F0E94EDB7F80171830A
:1058700060838F2D0E94D1700E94A55620E030E0F9
:105880004AEA52E40E943FB218161CF00E94D3A2CA
:1058900002C00E9475A20E9453A381E0809300027F
:1058A0001AAA1BAA1CAA1DAA6A961CAE1DAE1EAE81
:1058B0001FAE6A971EA62B961FAE2B97FCE32F9662
:1058C000FFAF2F972CE16B962FAF6B9736E4639663
:1058D0003FAF6397412C512CE0E8CE2EFFEBDF2E3B
:1058E000812C912C5401E090910CF12CF701EE0FDA
:1058F000FF1FE357F34F60817181072E000C880B67
:10590000990B0E9445B2162F072F782E692E262F4D
:10591000372F482F592FB201C6010E943FB288236A
:10592000F9F0F701EE0FFF1FEE0FFF1FEB57F34FDC
:105930002081318142815381612F702F872D962DD7
:105940000E943FB2881F8827881F8EA727964FADD9
:105950002797442349F0882339F08091000268CFCB
:10596000142D052D7C2C6D2C0E94246C6B017C0168
:10597000DC01CB016A962CAD3DAD4EAD5FAD6A97B3
:10598000821B930BA40BB50BB7FD3DC0D701C6011D
:1059900088519C4FAF4FBF4F6A968CAF9DAFAEAF53
:1059A000BFAF6A970E944D6DEBEFF2E084912F013B
:1059B0009FEF491A590A882321F00E94F557F201F6
:1059C000F5CF81149104A104B104B9F0D501C4014B
:1059D00088519C4FAF4FBF4FBC01CD016C197D0961
:1059E0008E099F0928EE33E040E050E00E944BB65C
:1059F000CA01B9010E94E75A03C08FE30E94F5571C
:105A00008AE00E94F5570E946D4C0E94246C6093BE
:105A10008A0970938B0980938C0990938D09E0918A
:105A2000910CA4E0EA9FF0011124EB57F34FB081F1
:105A3000BAAF21812EAB32813EAF438123964FAF67
:105A400023972B2F3EA94EAD23965FAD2397612F51
:105A5000702F872D962D0E94A8B61B012C0120E0E7
:105A600030E0A9010E94CFB887FF04C057FA5094D4
:105A700057F8509481149104A104B10459F420E022
:105A800030E040E85FE3C201B1010E943FB287FF0E
:105A90000DC00AC020E030E040E850E4C201B1018E
:105AA0000E94CFB8181614F4460157015EA555237D
:105AB00009F44CC08AA99BA9ACA9BDA9892B8A2B42
:105AC0008B2B61F0D701C6012AA93BA94CA95DA97E
:105AD000821B930BA40BB50BB7FD38C02AAD3EA9B2
