:100000000C944B100C947C100C947C100C947C1071
:100010000C947C100C947C100C947C100C947C1030
:100020000C947C100C947C100C947C100C947C1020
:100030000C947C100C947C100C947C100C947C1010
:100040000C947C100C9463630C947C100C947C10C6
:100050000C947C100C947C100C94373E0C94173A42
:100060000C947C100C9472620C947C100C947C1098
:100070000C947C100C947C100C947C100C947C10D0
:100080000C9475650C947C100C947C100C947C1072
:100090000C947C100C947C100C947C100C947C10B0
:1000A0000C947C100C947C100C9448650C947C107F
:1000B0000C947C100C947C100C947C100C941B659C
:1000C0000C947C100C947C100C947C100C947C1080
:1000D0000C947C100C947C100C947C100C947C1070
:1000E0000C947C1081378437733777377D37BB3773
:1000F00088378C37923796379A37A037A437A83786
:10010000BB37AE37B237B6379B38A038A538AF38D3
:10011000B9383239C338CB38D338DD38E738F1381D
:1001200000390A39323914391E392839923C603D78
:10013000653D903D9C3D783D7D3D823C084AD73BE6
:100140003BCE016E84BCBFFDC12F3D6C74319ABDA6
:1001500056833DDA3D00C77F11BED9E4BB4C3E91CA
:100160006BAAAABE000000803F05A84CCDB2D44EB9
:10017000B93836A9020C50B9918688083CA6AAAABB
:100180002ABE000000803F004E414E494E4954595E
:10019000494E46CDCCCC3D0AD7233C17B7D1387752
:1001A000CC2B329595E6241FB14F0A000020410068
:1001B00000C84200401C4620BCBE4CCA1B0E5AAEB2
:1001C000C59D74434F4D4D554E49434154494F4E83
:1001D0000044525952554E004552524F5253004915
:1001E0004E464F004543484F0047322F4733206269
:1001F000616420706172616D65746572730A0020BC
:100200006F6620004D424C2047323920706F696E76
:1002100074200059206F7574206F662072616E67BC
:10022000652028312D33292E0A0058206F7574203F
:100230006F662072616E67652028312D33292E0A82
:10024000004D6573682070726F62696E6720646F1D
:100250006E652E0A005374617274206D6573682098
:1002600070726F62696E6720776974682022473206
:1002700039205331222066697273742E0A00473286
:10028000392053320053746174653A20004D657310
:100290006820626564206C6576656C696E672068AD
:1002A0006173206E6F20646174612E0A0053206FA9
:1002B0007574206F662072616E67652028302D3559
:1002C000292E0A004D65736820706F696E74206373
:1002D000616E6E6F74206265207265736F6C7665F7
:1002E000640A005072696E742074696D653A20006A
:1002F000E401DF01D801D101C3016F666600444506
:100300004255473A004B494C4C45442E20004D3154
:1003100031332053006F6B0020573A005448455248
:100320004D414C5F50524F54454354494F4E00414C
:1003300055544F5245504F52545F53445F535441AC
:1003400054555300454D455247454E43595F504122
:100350005253455200434153455F4C494748545F0F
:100360004252494748544E45535300544F47474C17
:10037000455F4C494748545300534F4654574152E8
:10038000455F504F574552004255494C445F5045D8
:100390005243454E54004C4556454C494E475F44E8
:1003A000415441005A5F50524F4245004155544F0D
:1003B0004C4556454C005052494E545F4A4F4200FE
:1003C00050524F4752455353004155544F52455098
:1003D0004F52545F54454D5000564F4C554D455467
:1003E00052494300454550524F4D005345524941F3
:1003F0004C5F584F4E5F584F4646004649524D5746
:100400004152455F4E414D453A4D61726C696E20D7
:100410004A313850445F3139303530345F30383309
:10042000365F484120534F555243455F434F444543
:100430005F55524C3A68747470733A2F2F67697421
:100440006875622E636F6D2F616861727368616396
:100450002F46574A756C6961323031384D61726C84
:10046000696E2050524F544F434F4C5F5645525384
:10047000494F4E3A312E30204D414348494E455F59
:10048000545950453A4A756C69612050726F204446
:1004900075616C2045585452554445525F434F5541
:1004A0004E543A3220555549443A353661316363EA
:1004B00038642D326263312D343539322D6238661D
:1004C000352D3663316332616563616630630A00DE
:1004D0002F2F2000205400205200416363656C657B
:1004E000726174696F6E3A2050005741524E494E06
:1004F0004721204C6F77205A204A65726B206D612E
:1005000079206C65616420746F20756E77616E74FC
:100510006564207061757365732E0A00000020C247
:100520000080C5430000C843546F6F20666172208D
:1005300066726F6D207265666572656E63652070A8
:100540006F696E740A00FF0101205A00205900589B
:100550000020204D61783A2000205A002059005890
:100560000020204D696E3A20004F6E20004F6666D5
:1005700000536F667420656E6473746F70733A20F5
:1005800000486F74656E64206F6666736574733AB5
:100590000020466C6F773A2000000136372603FFB3
:1005A000FFFF353C3D38FF0FFFFF312E303EFF137C
:1005B000FFFFFF28FF0C0809FFFFFF1A1C18FFFFB1
:1005C0002A24221EFFFF2C08440AFF4307FF452070
:1005D0006F7574206F662072616E67650A005365DF
:1005E00072766F20003A200020536572766F2000EB
:1005F00020643A0020693A0020703A00496E766122
:100600006C69642065787472756465720A004329A8
:100610000A0061626C656420286D696E2074656DE6
:10062000702000436F6C6420657874727564657324
:100630002061726520004E6F2063617365206C69D4
:100640006768740A004D65736820706F696E742066
:1006500063616E6E6F74206265207265736F6C7675
:1006600065640A004D34323120696E636F727265C1
:10067000637420706172616D657465722075736159
:1006800067650A00454550524F4D204F4B0A006F99
:100690006B00205A3A0020593A0020583A00656E03
:1006A0006473746F7073206869743A200024F4D402
:1006B0003050C38E20C2A24017828B7011127A91E3
:1006C0000D816CD90AA861E108C7586607615143DA
:1006D000061E4B5D05C145A7041A411104093D984A
:1006E00003713931034036DB0265339102D4305453
:1006F00002802E1D02632CEE01752AC501B028A0D0
:1007000001102781018F2564012B244B01E0223445
:1007100001AC211F018D200D01801FFC00841EED06
:1007200000971DDF00B81CD200E61BC600201BBCD2
:1007300000641AB200B219A8000A19A0006A189938
:1007400000D117910040178B00B516840031167E3A
:1007500000B31579003A157300C7146F0058146A76
:1007600000EE1366008813630025135E00C7125B5A
:10077000006C12570015125400C111510070114F36
:100780000021114B00D61049008D1047004610443F
:100790000002104200C00F4000800F3E00420F3C9C
:1007A00000060F3B00CB0E3800930E37005C0E3571
:1007B00000270E3400F30D3200C10D3100900D30D2
:1007C00000600D2E00320D2D00050D2C00D90C2BD4
:1007D00000AE0C2900850C29005C0C2700350C2785
:1007E000000E0C2600E80B2400C40B2400A00B23F1
:1007F000007D0B23005A0B2100390B2100180B2020
:1008000000F80A1F00D90A1E00BB0A1E009D0A1D1F
:1008100000800A1D00630A1C00470A1B002C0A1BEB
:1008200000110A1A00F7091A00DD091900C4091994
:1008300000AB091900920917007B0918006309171A
:10084000004C09160036091600200916000A091581
:1008500000F5081500E0081400CC081400B80814CE
:1008600000A4081400900813007D0812006B081300
:10087000005808120046081200340811002308111D
:10088000001208110001081100F0071000E0071025
:1008900000D0071000C0071000B0070F00A107101C
:1008A0000091070E0083070F0074070F0065070E05
:1008B0000057070E0049070E003B070D002E070EDC
:1008C0000020070D0013070D0006070D00F9060CA8
:1008D00000ED060D00E0060C00D4060C00C8060C66
:1008E00000BC060C00B0060C00A4060B0099060C18
:1008F000008D060B0082060B0077060B006C060BC2
:100900000061060A0057060B004C060A0042060A60
:100910000038060A002E060A0024060A001A060AF3
:10092000001006090007060A00FD050900F4050984
:1009300000EB050900E2050900D9050900D0050909
:1009400000C7050900BE050900B5050800AD05088A
:1009500000A50509009C050800940508008C050801
:1009600000840508007C050800740508006C050774
:1009700000650508005D050700560508004E0507DF
:100980000047050700400508003805070031050746
:10099000002A050700230507001C050600160507A9
:1009A000000F0507000805060002050700FB040606
:1009B00000F5040700EE040600E8040600E2040760
:1009C00000DB040600D5040600CF040600C90406B7
:1009D00000C3040600BD040600B7040600B1040508
:1009E00000AC040600A6040600A00405009B040653
:1009F0000095040500900406008A0405008504059E
:100A000000800406007A04050075040500700405E2
:100A1000006B04050066040500610405005C040524
:100A20000057040500520405004D04050048040564
:100A300000430405003E0404003A040500350405A3
:100A400000300404002C04050027040400230405DE
:100A5000001E0404001A0404001604050011040416
:100A6000000D04040009040500040404000004044B
:100A700000FC030400F8030400F4030400F0030482
:100A800000EC030400E8030400E4030400E00304B2
:100A900000DC030400D8030400D4030400D00304E2
:100AA00000CC030400C8030300C503030024F404BE
:100AB000D9201BC40C5C0E9804C4095F0265077141
:100AC00001F405F900FB04B30048048700C1036981
:100AD000005803550003034500BE023A008402316A
:100AE0000053022A002902250004022000E4011C10
:100AF00000C8011900AF0117009801140084011308
:100B000000710110006101100051010E0043010D40
:100B10000036010B002B010B0020010B0015010911
:100B2000000C01090003010800FB000800F30008A5
:100B300000EB000700E4000600DE000600D8000617
:100B400000D2000600CC000500C7000500C2000569
:100B500000BD000400B9000400B5000400B10004A9
:100B600000AD000400A9000400A5000300A20003DA
:100B7000009F0004009B0003009800030095000202
:100B80000093000300900003008D0002008B00031F
:100B90000088000200860002008400030081000239
:100BA000007F0002007D0002007B0002007900024D
:100BB000007700010076000200740002007200015C
:100BC00000710002006F0002006D0001006C000265
:100BD000006A000100690002006700010066000170
:100BE0000065000100640002006200010061000174
:100BF00000600001005F0002005D0001005C000178
:100C0000005B0001005A000100590001005800017A
:100C1000005700010056000100550001005400017A
:100C20000053000000530001005200010051000178
:100C300000500001004F0001004E0000004E000176
:100C4000004D0001004C0001004B0000004B000172
:100C5000004A00010049000100480000004800016E
:100C6000004700010046000000460001004500006A
:100C70000045000100440001004300000043000162
:100C8000004200000042000100410000004100015C
:100C900000400001003F0000003F0001003E000056
:100CA000003E0001003D0000003D0001003C00004E
:100CB000003C0000003C0001003B0000003B000144
:100CC000003A0000003A000100390000003900013C
:100CD0000038000000380000003800010037000034
:100CE0000037000100360000003600000036000129
:100CF0000035000000350000003500010034000020
:100D00000034000000340001003300000033000014
:100D10000033000100320000003200000032000108
:100D200000310000003100000031000100300000FF
:100D30000030000000300001002F0000002F0000F4
:100D4000002F0000002F0001002E0000002E0000E8
:100D5000002E0001002D0000002D0000002D0000DD
:100D6000002D0001002C0000002C0000002C0000D1
:100D7000002C0001002B0000002B0000002B0000C5
:100D8000002B0001002A0000002A0000002A0000B9
:100D9000002A0001002900000029000000290000AD
:100DA00000290000002900010028000000280000A0
:100DB0000028000000280000002800010027000093
:100DC0000027000000270000002700000027000186
:100DD000002600000026000000260000002600007B
:100DE000002600010025000000250000002500006D
:100DF000002500000025000000250001002400005F
:100E00000024000000240000002400000024000151
:100E10000023000000230000002300000023000046
:100E20000023000000230000002300010022000036
:100E3000002200000022000000220000002200002A
:100E4000002200010021000000210000002100001C
:100E5000002100000021000000210000002100010D
:100E60000020000000200000002000000020000002
:100E700000200000002000000020000000200001F1
:100E8000001F0000001F0000001F0000001F0000E6
:100E9000001F0000001F0000001F0001001E0000D6
:100EA000001E0000001E0000001E0000003930007F
:100EB000003325000087190000B00F0000DB080098
:100EC00000BD040000740200003F01000020746FA8
:100ED0006F206C6F6E6720657874727573696F6EC2
:100EE0002070726576656E7465640A0020636F6CAD
:100EF0006420657874727573696F6E2070726576A0
:100F0000656E7465640A00486F6D696E672066617E
:100F1000696C656400206E6F7420656E746572651F
:100F2000642E0A0050726F746563746564205069A2
:100F30006E0A0046696C616D656E74207573656438
:100F40003A200053746174733A20002C204C6F6E69
:100F500067657374206A6F623A2000546F74616C25
:100F60002074696D653A200053746174733A2000EF
:100F70002C204661696C65643A20002C2046696E1D
:100F800069736865643A20005072696E74733A2020
:100F90000053746174733A200020573A00205A3A83
:100FA0000020423A0020436F756E7420413A0020C1
:100FB000453A00205A3A0020593A00583A003A007F
:100FC0004361703A0023646566696E652044454656
:100FD00041554C545F4B64200023646566696E651F
:100FE0002044454641554C545F4B692000236465BD
:100FF00066696E652044454641554C545F4B7020F0
:1010000000504944204175746F74756E652066699F
:101010006E6973686564212050757420746865205A
:101020006C617374204B702C204B6920616E6420BE
:101030004B6420636F6E7374616E74732066726F9D
:101040006D2062656C6F7720696E746F20436F6EE0
:1010500066696775726174696F6E2E680A0050491F
:1010600044204175746F74756E65206661696C65A6
:1010700064212074696D656F75740A0042454420CF
:10108000544845524D414C2052554E41574159000C
:10109000546865726D616C2052756E61776179007C
:1010A000453120544845524D414C2052554E4157F0
:1010B000415900453220544845524D414C2052552B
:1010C0004E41574159004265642068656174696EFC
:1010D00067206661696C65640048656174696E6764
:1010E000206661696C6564004531204865617469FA
:1010F0006E67206661696C656400453220486561F1
:1011000074696E67206661696C65640050494420AB
:101110004175746F74756E65206661696C656421D4
:101120002054656D706572617475726520746F6F9F
:1011300020686967680A00204B643A2000204B69E8
:101140003A2000204B703A20000A20436C617373F0
:10115000696320504944200A002054753A20002039
:101160004B753A2000206D61783A2000206D696E41
:101170003A200020643A200020626961733A20001E
:10118000504944204175746F74756E6520666169BD
:101190006C656421204261642065787472756465B1
:1011A00072206E756D6265720A0050494420417567
:1011B000746F74756E652073746172740A00100028
:1011C000600350012C0190012201D001180110028E
:1011D0000E0170020401E002FA006003F000000456
:1011E000E600B004DC00A005D200B006C80000088C
:1011F000BE00A009B400800BAA00D00DA000901082
:101200009600C0138C0070178200901B780010208D
:101210006E00C0246400E02D500080353C00A03AF0
:101220002800A03D1400003F0000A03FECFF4B4908
:101230004C4C45442E2000202D20496E76616C696F
:1012400064206578747275646572206E756D626570
:101250007220210A004572723A204D415854454D82
:101260005020424544004D415854454D5020747221
:1012700069676765726564004531204572723A207E
:101280004D415854454D50004532204572723A2028
:101290004D415854454D50004572723A204D494ECB
:1012A00054454D5020424544004D494E54454D5003
:1012B0002074726967676572656400453120457204
:1012C000723A204D494E54454D50004532204572EA
:1012D000723A204D494E54454D5000202F00204079
:1012E000002042403A0020403A0000002100240043
:1012F00027002A002D003000330001010000040106
:1013000007010A0100002200250028002B002E0002
:101310003100340002010000050108010B0100004A
:1013200020002300260029002C002F00320000019D
:101330000000030106010901050505050705080868
:101340000808020202020A0A08080404040401014F
:101350000101010101010303030303030303040764
:1013600007070C0C0C0C0C0C0C0C020202020606FB
:101370000606060606060B0B0B0B0B0B0B0B0102EE
:101380001020200808102040102040800201020197
:10139000080402010102040810204080804020104F
:1013A00008040201800402018040201008040201A8
:1013B0000804020101020408102040800102040810
:1013C0001020408000000A0B02090C0D0E080703D4
:1013D0000401000000000000000000000000000008
:1013E00000000000000000000000000000000000FD
:1013F00012111000000000000000000000000000BA
:1014000000000000000000000000454550524F4D14
:10141000206461746173697A65206572726F722EDF
:101420000A00290A002062797465733B20637263A5
:10143000200053657474696E67732053746F72650E
:1014400064202800290A002062797465733B2063B8
:10145000726320002073746F726564207365747406
:10146000696E677320726574726965766564202899
:1014700000202863616C63756C6174656429210ABE
:101480000020213D2000454550524F4D20435243FE
:10149000206D69736D61746368202D202873746FEB
:1014A0007265642920002053697A653A2000496EEC
:1014B0006465783A2000204D61726C696E3D563546
:1014C00035290A0028454550524F4D3D00454550AD
:1014D000524F4D2076657273696F6E206D69736D22
:1014E000617463682000426564204C6576656C69B0
:1014F0006E6720004661696C656420746F20656EBC
:1015000061626C6520426564204C6576656C696E2D
:10151000670A004D65736820426564204C657665F6
:101520006C20646174613A0A00496E76616C69648A
:101530002065787472756465720A00416374697617
:10154000652045787472756465723A20002C2063BA
:101550006F727265637465642063757272656E7410
:101560005F706F736974696F6E5B5A5F415849535E
:101570005D3D0046573A2053746F70205A206372C5
:101580006173682C20657870656374656420637589
:101590007272656E745F706F736974696F6E5B5A97
:1015A0005F415849535D3D0046573A204368616E9C
:1015B00067696E672064657374696E6174696F6EC4
:1015C0005B585F415849535D20746F2073746F708E
:1015D0002063726173682C2064657374696E617432
:1015E000696F6E5B585F415849535D3D00526573AA
:1015F000656E643A200020746F6F206C6F6E6720F8
:10160000657874727573696F6E2070726576656E39
:101610007465640A0020636F6C6420657874727569
:1016200073696F6E2070726576656E7465640A000A
:10163000627573793A2070617573656420666F72A4
:1016400020696E7075740A00627573793A20706152
:101650007573656420666F7220757365720A006227
:101660007573793A2070726F63657373696E670A78
:10167000004B494C4C45442E20004B494C4C2063B8
:10168000617573656420627920746F6F206D756376
:101690006820696E6163746976652074696D652080
:1016A0002D2063757272656E7420636F6D6D616E4F
:1016B000643A20005072696E7465722068616C74BF
:1016C00065642E206B696C6C28292063616C6C65E5
:1016D00064210A002020506C616E6E65724275664E
:1016E00066657242797465733A20002046726565BA
:1016F000204D656D6F72793A2000436F6D70696C93
:1017000065643A204D617920203420323031390A25
:1017100000207C20417574686F723A2046726163C4
:101720006B74616C20576F726B730A003230313901
:101730002D30352D30342030383A333600204C618E
:10174000737420557064617465643A200042756951
:101750006C643A204A313850445F31393035303486
:101760005F303833365F48410A00467261636B74FC
:10177000616C20576F726B73204A756C69612050E1
:10178000726F204475616C0A00312E312E390A00C7
:101790004D61726C696E0020536F6674776172657B
:1017A0002052657365740A00205761746368646F22
:1017B000672052657365740A002042726F776E204D
:1017C0006F75742052657365740A002045787465DE
:1017D000726E616C2052657365740A00506F776594
:1017E0007255700A0073746172740A0000004842F6
:1017F000000048420000A041000000005761726EE6
:10180000696E673A20486F6D696E672042756D702A
:101810002044697669736F72203C20310A0002020D
:10182000040000A0400000A040000000400000B9FB
:10183000430080C5430000C8434572726F72207731
:10184000726974696E6720746F20454550524F4D20
:10185000210A002569730025696D2025697300251B
:1018600069682025696D2025697300256964202534
:1018700069682025696D202569730025697920250F
:101880006964202569682025696D202569730065D4
:101890006E7175657565696E672022004C696E65AD
:1018A000204E756D626572206973206E6F74204CD6
:1018B000617374204C696E65204E756D6265722B84
:1018C000312C204C617374204C696E653A20004BBA
:1018D000494C4C45442E20005072696E746572204C
:1018E00073746F707065642064756520746F206513
:1018F00072726F72732E2046697820746865206555
:1019000072726F7220616E6420757365204D393973
:101910003920746F20726573746172742E2028549C
:10192000656D70657261747572652069732072658A
:101930007365742E20536574206974206166746524
:10194000722072657374617274696E67290A004E41
:101950006F20436865636B73756D207769746820C9
:101960006C696E65206E756D6265722C204C6173BA
:1019700074204C696E653A2000636865636B73750B
:101980006D206D69736D617463682C204C61737494
:10199000204C696E653A20004D3131300020496E8F
:1019A00076616C6964206578747275646572200074
:1019B0000000000000000000000000000000B9432B
:1019C0000080C5430000C84348617264636F64656A
:1019D000642044656661756C742053657474696E27
:1019E0006773204C6F616465640A00200300002067
:1019F00003000032000000102700000000484300F0
:101A00000048430000A04100003442000020430091
:101A1000002043F0F77B4400008C4320286D6D29A3
:101A20000020440020490020204D33303120500058
:101A300020440020490020500020204D3330312028
:101A400045005049442073657474696E67733A0A9F
:101A500000205A00205900202047323920533320DB
:101A6000580020204D3432302053004D65736820DB
:101A7000426564204C6576656C696E673A0A0020A1
:101A80005A0020590020580020204D32313820546F
:101A900000486F74656E64206F6666736574733A90
:101AA0000A00205A0020590020204D32303620589C
:101AB00000486F6D65206F66667365743A0A002092
:101AC0004500205A0020590020580020540020537F
:101AD0000020204D32303520420020453C6D617899
:101AE0005F655F6A65726B3E0020583C6D61785F90
:101AF000785F6A65726B3E20593C6D61785F795FF3
:101B00006A65726B3E205A3C6D61785F7A5F6A65E8
:101B1000726B3E00416476616E6365643A20423CBC
:101B20006D696E5F7365676D656E745F74696D6511
:101B30005F75733E20533C6D696E5F6665656472C8
:101B40006174653E20543C6D696E5F7472617665A8
:101B50006C5F66656564726174653E0020540020A8
:101B6000520020204D323034205000416363656CB8
:101B700065726174696F6E2028756E6974732F7356
:101B800032293A20503C7072696E745F61636365FC
:101B90006C3E20523C726574726163745F61636372
:101BA000656C3E20543C74726176656C5F61636362
:101BB000656C3E0A00204500205A00205900202074
:101BC0004D3230312058004D6178696D756D20417E
:101BD0006363656C65726174696F6E2028756E69E8
:101BE00074732F7332293A0A00204500205A0020CE
:101BF000590020204D3230332058004D6178696DF6
:101C0000756D206665656472617465732028756EF4
:101C10006974732F73293A0A00204500205A002066
:101C2000590020204D3932205800537465707320BC
:101C300070657220756E69743A0A0020204D32304A
:101C4000302044300A0020204D32303020543120E2
:101C5000440020204D32303020440020446973611C
:101C6000626C65640A0046696C616D656E74207310
:101C7000657474696E67733A002020473231202002
:101C800020203B007A5F6D61783A2000795F6D61BA
:101C9000783A2000785F6D696E3A20005265706F67
:101CA0007274696E6720656E6473746F70207374EC
:101CB000617475730A000A4D6561737572656420FD
:101CC000706F696E74733A0A005A206F66667365A6
:101CD000743A20004E756D20582C593A20332C331D
:101CE0000A00FFFDFCFAF8F6F4F2F0EEECEAE9E7A0
:101CF000E5E3E1E0DEDCDAD9D7D5D4D2D0CFCDCB65
:101D0000CAC8C7C5C3C2C0BFBDBCBAB9B7B6B4B3F1
:101D1000B2B0AFADACAAA9A8A6A5A4A2A1A09E9D51
:101D20009C9A99989795949392908F8E8D8B8A898F
:101D300088878684838281807F7E7D7B7A797877AD
:101D4000767574737271706F6E6D6C6B6A696867AB
:101D5000666564636261605F5E5D5C5B5A5958589A
:101D60005756555453525150504F4E4D4C4B4A4A72
:101D70004948474646454443424241403F3E3E3D36
:101D80003C3B3B3A393838373635353433323231EB
:101D900030302F2E2E2D2C2B2B2A29292827272691
:101DA000252524232322212120201F1E1E1D1C1C2B
:101DB0001B1B1A19191818171616151514131312B8
:101DC000121111100F0F0E0E0D0D0C0C0B0A0A093B
:101DD00009080807070606050504040303020201B3
:101DE00000000000000100000001000080005555C7
:101DF00055000000400033333300AAAA2A0049925C
:101E0000240000002000C7711C0099991900D145D9
:101E10001700555515003BB113002449120011114C
:101E20001100000010000F0F0F00E3380E0043797F
:101E30000D00CCCC0C00C3300C00E8A20B006421D8
:101E40000B00AAAA0A00703D0A009DD80900427B37
:101E5000090092240900DCD3080088880800104299
:101E6000080000000800F0C10700878707007550D0
:101E70000700711C07003EEB0600A1BC060069903C
:101E8000060066660600703E06006118060017F43C
:101E9000050074D105005BB00500B29005006272C8
:101EA00005005555050078390500B81E05000505E3
:101EB00005004EEC040087D40400A1BD040090A7E7
:101EC000040049920400C17D0400EE690400C75675
:101ED0000400444404005C32040008210400411062
:101EE0000400000004003FF00300F8E0030026D2E5
:101EF0000300C3C30300CCB503003AA803000A9B48
:101F00000300388E0300C08103009F750300D06971
:101F10000300505E03001D53030034480300913D4D
:101F200003003333030016290300381F03009715FD
:101F30000300300C0300030303000BFA020049F115
:101F40000200BAE802005CE002002DD802002DD0A9
:101F5000020059C80200B0C0020031B90200DAB173
:101F60000200AAAA0200A0A30200BC9C0200FA95EB
:101F700002005C8F0200DF88020082820200457C42
:101F800002002776020027700200436A02007C6488
:101F90000200D05E02003F590200C8530200556E95
:101FA0006B6E6F776E20636F6D6D616E643A202289
:101FB000002066697273740A005A0059005800487C
:101FC0006F6D6520006563686F3A004572726F72CD
:101FD0003A0042454420544845524D414C20525508
:101FE0004E4157415900546865726D616C205275BD
:101FF0006E6177617900453120544845524D414C1E
:102000002052554E415741590045322054484552BF
:102010004D414C2052554E41574159006265640A6A
:10202000002C2073797374656D2073746F70706504
:102030006421204865617465725F49443A2000421A
:1020400065642068656174696E67206661696C65A6
:10205000640048656174696E67206661696C6564D7
:102060000048656174696E67206661696C6564002B
:1020700045312048656174696E67206661696C65E9
:10208000640045322048656174696E672066616945
:102090006C656400239511241FBECFEFD1E2DEBF33
:1020A000CDBF00E00CBF13E0A0E0B2E0E6E0F3E457
:1020B00001E00BBF02C007900D92A031B107D9F724
:1020C0002FE0A0E1B3E001C01D92A831B207E1F713
:1020D00010E1CBE4D0E100E006C021970109802F98
:1020E000FE010E9438A1CA34D10780E00807A9F791
:1020F0000E94B97A0C9481A10C9400004F925F92D7
:102100006F927F928F929F92AF92BF92CF92DF9207
:10211000EF92FF920F931F93CF93DF93F8948FEF7B
:102120009FEF90938900809388000AE0D02EC0E052
:10213000D0E0CC24C394789480912A0690912B0609
:10214000A0912C06B0912D06892B8A2B8B2B09F0A0
:10215000E2C18091AE0E8823D1F01092AE0E809134
:10216000AC0E9091AD0E892B91F01092EB05109270
:10217000AD0E1092AC0E9091F20D8091F30D981768
:1021800031F08091F30D8F5F8F708093F30D80910C
:10219000AC0E9091AD0E892B09F4BDC1409126067D
:1021A0005091270660912806709129069091190692
:1021B00000912206109123062091240630912506D5
:1021C000041B150B260B370B892F90E0A0E0B0E025
:1021D000081719072A073B0710F4D901C801282F4F
:1021E000840F951FA61FB71F80932606909327067E
:1021F000A0932806B09329068091840090918500D1
:1022000080968090000690900106A0900206B09003
:1022100003064091F0055091F1056091F20570912F
:10222000F305480D591D6A1D7B1D40930006509310
:102230000106609302067093030677FD1CC0889A1E
:102240008090400390904103A0904203B0904303DC
:102250004091E105042E000C550B660B770B480DE1
:10226000591D6A1D7B1D40934003509341036093A9
:102270004203709343038090040690900506A0905B
:102280000606B09007064091F4055091F50560915F
:10229000F6057091F705480D591D6A1D7B1D409389
:1022A000040650930506609306067093070677FDB3
:1022B0001CC08E9A8090440390904503A0904603E2
:1022C000B09047034091E205042E000C550B660BBD
:1022D000770B480D591D6A1D7B1D40934403509395
:1022E00045036093460370934703809008069090DF
:1022F0000906A0900A06B0900B064091F80550918F
:10230000F9056091FA057091FB05480D591D6A1D8C
:102310007B1D409308065093090660930A0670934C
:102320000B0677FD21C030910B013095387030934A
:1023300009018090480390904903A0904A03B0900F
:102340004B034091E305042E000C550B660B770BF5
:10235000480D591D6A1D7B1D409348035093490346
:1023600060934A0370934B0380900C0690900D0687
:10237000A0900E06B0900F064091FC055091FD050F
:102380006091FE057091FF05480D591D6A1D7B1D6A
:1023900040930C0650930D0660930E0670930F0643
:1023A00077FD22C03091E605311102C0149A01C0B8
:1023B000419A80904C0390904D03A0904E03B090B2
:1023C0004F034091E405042E000C550B660B770B70
:1023D000480D591D6A1D7B1D40934C0350934D03BE
:1023E00060934E0370934F03409184005091850099
:1023F00048175907C8F340910006509101066091B3
:1024000002067091030677FD15C08090EC05909050
:10241000ED05A090EE05B090EF05481959096A093D
:102420007B09409300065093010660930206709367
:1024300003068898409104065091050660910606AF
:102440007091070677FD15C08090EC059090ED0522
:10245000A090EE05B090EF05481959096A097B096B
:102460004093040650930506609306067093070692
:102470008E98409108065091090660910A06709165
:102480000B0677FD19C08090EC059090ED05A090AB
:10249000EE05B090EF05481959096A097B09409388
:1024A00008065093090660930A0670930B06309154
:1024B0000B0138703093090140910C0650910D06C4
:1024C00060910E0670910F0677FD1BC08090EC05A1
:1024D0009090ED05A090EE05B090EF0548195909D0
:1024E0006A097B0940930C0650930D0660930E0613
:1024F00070930F063091E605311102C0149801C0A7
:102500004198215041F04091840050918500481736
:102510005907C8F375CE80912A0690912B06A09199
:102520002C06B0912D06892B8A2B8B2B09F0D9C54F
:10253000E091AC0EF091AD0E309739F18091260606
:1025400090912706A0912806B09129064091220675
:1025500050912306609124067091250684179507F3
:10256000A607B707C8F01092EB051092AD0E1092B7
:10257000AC0E9091F20D8091F30D981731F080918F
:10258000F30D8F5F8F708093F30D10ED412E17E0E8
:10259000512E612C712CD7C340911E0650911F06FD
:1025A0006091200670912106481759076A077B073A
:1025B00008F49CC180901A0690901B06A0901C06FF
:1025C000B0901D0686A997A9A0ADB1AD8816990651
:1025D000AA06BB0608F06EC181149104A104B104DF
:1025E00049F48091E7059091E805A091E905B09143
:1025F000EA055CC190E040E0882D392D2A2D50E09D
:1026000060E070E0E0E0F0E0A0E0B0E0F091A90D63
:10261000F89F712DEE27A091AA0DA89F700DE11DC6
:102620001090AB0D189EE00DF39F700DE11DA39F60
:10263000E00DF29FE00D572F6E2F579FF12DAA2727
:10264000BB275E9FF00DA11DB91F679FF00DA11D57
:10265000B91F6E9FA00DB11D5A2F6B2F579F412D93
:10266000AA27BB275E9F400DA11DB91F679F400D84
:10267000A11DB91F6E9FA00DB11D5A2F6B2FFF27F3
:102680008091E7053091E8052091E90500903B072E
:10269000092A09F483C0A0913C07A59FF119890B71
:1026A000390B290BB0913D07B59FF0198109390B02
:1026B000290B40913E07459F80193109290BA69FA0
:1026C000F0198109390B290BB69F80193109290BA3
:1026D000469F30192109579F412DAA27BB275E9F8E
:1026E000400DA11DB91F679F400DA11DB91F6E9F11
:1026F000A00DB11D5A2F6B2FA0914007A59FF10D82
:10270000891F391F291FB0914107B59FF00D811D09
:10271000391F291F40914207459F800D311D291FF8
:10272000A69FF00D811D391F291FB69F800D311DF9
:10273000291F469F300D211D579F412DAA27BB27DA
:102740005E9F400DA11DB91F679F400DA11DB91FC0
:102750006E9FA00DB11D5A2F6B2FA0914407A59F0E
:10276000F119890B390B290BB0914507B59FF01969
:102770008109390B290B40914607459F8019310982
:10278000290BA69FF0198109390B290BB69F8019D7
:102790003109290B469F3019210982C0A0913C07BD
:1027A000A59FF10D891F391F291FB0913D07B59FC6
:1027B000F00D811D391F291F40913E07459F800D57
:1027C000311D291FA69FF00D811D391F291FB69F9E
:1027D000800D311D291F469F300D211D579F412D12
:1027E000AA27BB275E9F400DA11DB91F679F400D03
:1027F000A11DB91F6E9FA00DB11D5A2F6B2FA09167
:102800004007A59FF119890B390B290BB09141079E
:10281000B59FF0198109390B290B40914207459F5B
:1028200080193109290BA69FF0198109390B290B51
:10283000B69F80193109290B469F30192109579FEE
:10284000412DAA27BB275E9F400DA11DB91F679F81
:10285000400DA11DB91F6E9FA00DB11D5A2F6B2FEA
:10286000A0914407A59FF10D891F391F291FB09121
:102870004507B59FF00D811D391F291F409146075F
:10288000459F800D311D291FA69FF00D811D391F09
:10289000291FB69F800D311D291F469F300D211D18
:1028A000112490E0932BA0E0B0E0A22B2DEA3EE0B3
:1028B00041E011C082A993A9A4A9B5A9F7CFB69503
:1028C000A79597958795440F2C5F3F4F5EE0293C75
:1028D000350709F44DC4F901459055906590749001
:1028E000481659066A067B0650F342C44091150605
:1028F00050911606609117067091180648175907EF
:102900006A077B0708F0B4C18091140681111EC0CC
:10291000DF01AE5BBF4FED90FD900D911C911397C1
:102920001D962D913D914D915C9162A973A984A949
:1029300095A90E94A363C0921406E091AC0EF09199
:10294000AD0E82A993A9A4A9B5A983C18090100650
:1029500090901106A0901206B090130682AD93AD30
:10296000A4ADB5AD88169906AA06BB0608F06BC1E2
:1029700081149104A104B10449F48091E705909178
:10298000E805A091E905B091EA0563C190E040E057
:10299000882D392D2A2D50E060E070E0E0E0F0E075
:1029A000A0E0B0E0F091A90DF89F712DEE27A09165
:1029B000AA0DA89F700DE11D1090AB0D189EE00DA3
:1029C000F39F700DE11DA39FE00DF29FE00D572FC7
:1029D0006E2F579FF12DAA27BB275E9FF00DA11DDB
:1029E000B91F679FF00DA11DB91F6E9FA00DB11DEE
:1029F0005A2F6B2F579F412DAA27BB275E9F400D53
:102A0000A11DB91F679F400DA11DB91F6E9FA00D8D
:102A1000B11D5A2F6B2FFF278091E7053091E805F4
:102A20002091E90500903B07092A09F483C0A09191
:102A30003C07A59FF119890B390B290BB0913D0774
:102A4000B59FF0198109390B290B40913E07459F2D
:102A500080193109290BA69FF0198109390B290B1F
:102A6000B69F80193109290B469F30192109579FBC
:102A7000412DAA27BB275E9F400DA11DB91F679F4F
:102A8000400DA11DB91F6E9FA00DB11D5A2F6B2FB8
:102A9000A0914007A59FF10D891F391F291FB091F3
:102AA0004107B59FF00D811D391F291F4091420735
:102AB000459F800D311D291FA69FF00D811D391FD7
:102AC000291FB69F800D311D291F469F300D211DE6
:102AD000579F412DAA27BB275E9F400DA11DB91FFF
:102AE000679F400DA11DB91F6E9FA00DB11D5A2FEC
:102AF0006B2FA0914407A59FF119890B390B290B66
:102B0000B0914507B59FF0198109390B290B409108
:102B10004607459F80193109290BA69FF0198109A5
:102B2000390B290BB69F80193109290B469F3019A3
:102B3000210982C0A0913C07A59FF10D891F391F73
:102B4000291FB0913D07B59FF00D811D391F291F29
:102B500040913E07459F800D311D291FA69FF00D16
:102B6000811D391F291FB69F800D311D291F469FCA
:102B7000300D211D579F412DAA27BB275E9F400D79
:102B8000A11DB91F679F400DA11DB91F6E9FA00D0C
:102B9000B11D5A2F6B2FA0914007A59FF119890BEA
:102BA000390B290BB0914107B59FF0198109390BF9
:102BB000290B40914207459F80193109290BA69F97
:102BC000F0198109390B290BB69F80193109290B9E
:102BD000469F30192109579F412DAA27BB275E9F89
:102BE000400DA11DB91F679F400DA11DB91F6E9F0C
:102BF000A00DB11D5A2F6B2FA0914407A59FF10D79
:102C0000891F391F291FB0914507B59FF00D811D00
:102C1000391F291F40914607459F800D311D291FEF
:102C2000A69FF00D811D391F291FB69F800D311DF4
:102C3000291F469F300D211D112490E0932BA0E009
:102C4000B0E0A22B06C0E15BFF4F80819181A281A1
:102C5000B3812DEA3EE041E0F90185909590A59081
:102C6000B49088169906AA06BB0608F4E4C2EFC21F
:102C70008091270290912802A0912902B0912A0206
:102C8000B7FF59C0E95BFF4F80819181A281B38179
:102C90002DEA3EE041E0F90185909590A590B49031
:102CA00088169906AA06BB0658F4B695A795979577
:102CB0008795440F2C5F3F4FFEE0293C3F0759F7B3
:102CC0004093190680329105A105B10508F450C35F
:102CD0008097A109B1098115F8E09F07A105B10509
:102CE00008F421C324E0929FF00111249F01235591
:102CF000354FF901329645915491EE27859FB001E9
:102D0000849F610D7E1F06946E1F7E1F1124AB01F0
:102D100060E070E0F90185919491A0E0B0E0841B3F
:102D2000950BA60BB70B8093270290932802A093D4
:102D30002902B0932A024090270250902802609006
:102D4000290270902A028091AC0E9091AD0E892BD1
:102D500009F0BFC10E943B649093AD0E8093AC0E0E
:102D6000892B09F4B6C1E091AC0EF091AD0E8081D3
:102D700083FF48C085899689A789B08D418D528D82
:102D8000638D748D8C019D01040F151F261F371F45
:102D90000093400310934103209342033093430375
:102DA000841B950BA60BB70B8093440390934503AC
:102DB000A0934603B0934703858D968DA78DB0A150
:102DC0008093480390934903A0934A03B0934B0325
:102DD00081A192A1A3A1B4A180934C0390934D0330
:102DE000A0934E03B0934F039091F20D8091F30D99
:102DF000981709F4AFCF8091F30D8F5F8F70809398
:102E0000F30DA8CF458956896789708D018D128D84
:102E1000238D348DCF018A5B9F4F7C014017510772
:102E20006207730789F4411551056105710579F051
:102E3000DC019C91A92FA1708A2F8C259695917009
:102E40008927A91302C004C081E0826001C080E02C
:102E5000858C968CA78CB0A081149104A104B10438
:102E600009F084608093EB05109210061092110611
:102E7000109212061092130610921A0610921B0658
:102E800010921C0610921D0685A196A1A7A1B0A5BF
:102E90008093220690932306A0932406B0932506E0
:102EA000442455243201481A590A6A0A7B0A40927E
:102EB0000C0650920D0660920E0670920F0640921C
:102EC00008065092090660920A0670920B0640921C
:102ED000040650920506609206067092070640921C
:102EE0000006509201066092020670920306440F9B
:102EF000551F661F771F4093F0055093F1056093AF
:102F0000F2057093F305000F111F221F331F00936A
:102F1000F4051093F5052093F6053093F705880C1A
:102F2000991CAA1CBB1C8092F8059092F905A092EE
:102F3000FA05B092FB0541A152A163A174A1440F0F
:102F4000551F661F771F4093FC055093FD05609346
:102F5000FE057093FF05880F991FAA1FBB1F809362
:102F6000EC059093ED05A093EE05B093EF0510925C
:102F7000260610922706109228061092290682A58E
:102F800093A5A4A5B5A580931E0690931F06A093B4
:102F90002006B093210686A597A5A0A9B1A9809384
:102FA000150690931606A0931706B093180681A5F0
:102FB0008093E605F70190812091E50592130AC000
:102FC0002091260230E0482F082E000C550B4217A6
:102FD000530731F09093E505809326020E94F56334
:102FE00080918A0381110E9490728FEF9FEFDC0124
:102FF0008093270290932802A0932902B0932A027B
:10300000E091AC0EF091AD0EDF01DE96ED90FD90FB
:103010000D911C9122A933A944A955A9E55BFF4F45
:1030200060817181828193810E94A3631092140652
:10303000E091AC0EF091AD0EE55BFF4F8081918188
:10304000A281B3812DEA3EE041E0F901859095909F
:10305000A590B49088169906AA06BB0658F4B695B2
:10306000A79597958795440F2C5F3F4F5EE0293CCD
:10307000350759F74093190680329105A105B1052E
:1030800008F49EC18097A109B1098115E8E09E0767
:10309000A105B10508F471C1F4E09F9F90011124CE
:1030A0002355354FF901329645915491EE27859F6E
:1030B000B001849F610D7E1F06946E1F7E1F112438
:1030C000F90145905490612C712C461A570A6108F9
:1030D000710840922A0650922B0660922C0670923C
:1030E0002D0680912A0690912B06A0912C06B09176
:1030F0002D06AC01BD01009721E0A207B10520F02B
:103100004FEF5FEF60E070E0841B950BA60BB70BF1
:1031100080932A0690932B06A0932C06B0932D063D
:10312000F89480918400909185004096DA94DD2097
:1031300041F0C40FD51FC817D90710F40C949B1089
:1031400001C0EC01D0938900C09388007894DF918E
:10315000CF911F910F91FF90EF90DF90CF90BF9094
:10316000AF909F908F907F906F905F904F90089559
:103170004093190680329105A105B10508F456C0A7
:103180008097A109B109811528E09207A105B10531
:10319000F0F044E0949F900111242355354FF9013C
:1031A000329645915491EE27859FB001849F610D21
:1031B0007E1F06946E1F7E1F1124F90145905490C6
:1031C000612C712C461A570A6108710822C0AC01A3
:1031D000BD017695679557954795FA01EC7FAF014C
:1031E0004355594FFA0125913491FA013296659170
:1031F00074918770869FA001879F500D1124B3E0C2
:1032000056954795BA95E1F7241B350B2901612C9A
:10321000712C840C951CA61CB71C80921A069092E7
:103220001B06A0921C06B0921D068DCD80E290E098
:10323000A0E0B0E0A5CFB695A79597958795440FE8
:103240002C5F3F4FEEE0293C3E0709F005CD40934F
:10325000190680329105A105B10508F45FC0809779
:10326000A109B109811558E09507A105B105F0F054
:10327000E4E09E9F900111242355354FF9013296C9
:1032800045915491EE27859FB001849F610D7E1F6B
:1032900006946E1F7E1F1124F90145905490612CF5
:1032A000712C461A570A6108710823C0AC01BD0190
:1032B0007695679557954795FA01EC7FAF01435591
:1032C000594FFA0125913491FA0132964591549162
:1032D0008770849FB001859F700D1124CB01F3E0AE
:1032E00096958795FA95E1F7281B390B2901612CF2
:1032F000712C8091100690911106A0911206B09148
:103300001306840D951DA61DB71D8093100690937E
:103310001106A0931206B093130615CD80E290E03B
:10332000A0E0B0E09CCFAC01BD01769567955795C4
:103330004795FA01EC7FAF014355594FFA012591AA
:103340003491FA013296459154918770849FB0016F
:10335000859F700D1124CB0143E0969587954A9582
:10336000E1F7A901481B590BCA01A0E0B0E0DBCC92
:1033700080E290E0A0E0B0E0ABCCAC01BD0176957E
:10338000679557954795FA01EC7F9F012355394F73
:10339000F90145905490F901329625913491877046
:1033A000829FA001839F500D1124CA01A3E096952E
:1033B0008795AA95E1F7481A590A612C712C89CE94
:1033C00080E290E0A0E0B0E05DCE2F923F924F927D
:1033D0005F926F927F928F929F92AF92BF92CF92A5
:1033E000DF92EF92FF920F931F93CF93DF93CDB7AE
:1033F000DEB76C970FB6F894DEBF0FBECDBF1C01D1
:103400005B018A019C01295B3F4FD9018D919D9100
:103410000D90BC91A02D8D8B9E8BAF8BB88FBC0176
:10342000CD010E94E3996B017C01F501208131817E
:10343000428153810E94449A0E94099F0E948C9F5E
:103440006D877E878F87988BD8012D913D914D9107
:103450005C91C701B6010E94449A0E94099F0E9494
:103460008C9F698B7A8B8B8B9C8B2D853E854F85B2
:103470005889283731054105510540F488E790E027
:10348000A0E0B0E08D879E87AF87B88B29893A8905
:103490004B895C89283731054105510540F488E79F
:1034A00090E0A0E0B0E0898B9A8BAB8BBC8B910154
:1034B0002D5A3F4FD9018D919D910D90BC91A02D1A
:1034C00089879A87AB87BC87BC01CD010E94E599AB
:1034D0002B013C016D857E858F8598890E94E3993B
:1034E00069837A838B839C8320E030E0A901C30148
:1034F000B2010E94DF99882329F1A7019601C70133
:10350000B6010E94449A4B015C0129813A814B81AA
:103510005C81CA01B9010E94449A9B01AC01C501BA
:10352000B4010E94429E4B015C01A3019201C301C0
:10353000B2010E94439E9B01AC01C501B4010E94EF
:103540001F9F03C060E070E0CB010E94099F0E94B2
:103550008C9F6D837E838F83988769857A858B8521
:103560009C8590958095709561957F4F8F4F9F4F6B
:103570000E94E5994B015C0169897A898B899C8954
:103580000E94E39969877A878B879C8720E030E0E7
:10359000A901C501B4010E94DF99882349F1298559
:1035A0003A854B855C85CA01B9010E94449A698FAE
:1035B0007A8F8B8F9C8FA7019601C701B6010E945D
:1035C000449A9B01AC01698D7A8D8B8D9C8D0E94F4
:1035D000429E6B017C01A5019401C501B4010E94CA
:1035E000439E9B01AC01C701B6010E941F9F03C00F
:1035F00060E070E0CB010E94B89FF10185A096A029
:10360000A7A0B0A4750164012D813E814F8158852A
:10361000C21AD30AE40AF50A0E948C9FC61AD70A76
:10362000E80AF90AF7FE9FC020E030E0A901C301D3
:10363000B2010E94DF99882309F443C0A3019201DB
:10364000C301B2010E94439E6B017C01C501B4011C
:103650000E94E3999B01AC01C701B6010E94449A04
:103660006B017C0129813A814B815C81CA01B901DE
:103670000E94449A9B01AC01C701B6010E94429E80
:103680006B017C0129853A854B855C85CA01B901AE
:103690000E94449A9B01AC01C701B6010E94439E5F
:1036A0006B017C0120E030E040E850E4C301B2014E
:1036B0000E94449A9B01AC01C701B6010E941F9F62
:1036C00003C060E070E0CB010E94099F8B017C0188
:1036D00020E030E0A9010E9469A0181624F000E063
:1036E00010E0E12CF12CB801C7010E948C9F6D8382
:1036F0007E838F83988786169706A806B90620F4DE
:103700008D829E82AF82B88629813A814B815C810D
:10371000CA01B9010E94449A6B017C01A301920184
:10372000C301B2010E94439E4B015C016D817E8109
:103730008F8198850E94E3999B01AC01C501B4017A
:103740000E94449A9B01AC01C701B6010E94439EAE
:103750000E94AEA00E948C9F6D8B7E8B8F8B988F6A
:10376000C12CD12C76016D897E898F89988D2D850C
:103770003E854F855889621B730B840B950B0E9405
:10378000E399A30192010E941F9F20E034E244EFDD
:1037900059E40E94449A0E948C9F4B015C016D8900
:1037A0007E898F89988D29893A894B895C89621B2A
:1037B000730B840B950B0E94E399A30192010E9465
:1037C0001F9F20E034E244EF59E40E94449A0E9493
:1037D0008C9F2B013C01C501B4010E949C6E698342
:1037E0007A838B839C83C301B2010E949C6E2D81DE
:1037F0003E814F815885D1019A962D933D934D93EB
:103800005C939D9789019A010C0D1D1D2E1D3F1D76
:10381000F10106A717A720AB31ABE55BFF4F2D8564
:103820003E854F8558892083318342835383D696C2
:103830008D929D92AD92BC92D997F10142AE53AE5A
:1038400064AE75AEFE9629813A814B815C812083FE
:10385000318342835383349660837183828393835D
:103860008D899E89AF89B88DF10182AB93ABA4ABF2
:10387000B5ABE15BFF4F29893A894B895C8920838D
:103880003183428353836C960FB6F894DEBF0FBE2C
:10389000CDBFDF91CF911F910F91FF90EF90DF90FF
:1038A000CF90BF90AF909F908F907F906F905F90E0
:1038B0004F903F902F9008952F923F924F925F929A
:1038C0006F927F928F929F92AF92BF92CF92DF9230
:1038D000EF92FF920F931F93CF93DF93CDB7DEB795
:1038E000C857D1090FB6F894DEBF0FBECDBFE09127
:1038F0005206F0915306EF2B11F00C944129669675
:10390000DFAECEAE66976196EFAE619779016A0140
:103910005B01FC01209128043091290440912A0484
:1039200050912B0460817181828193810E94449A1D
:103930000E9474A0AE966CAF7DAF8EAF9FAFAE9776
:1039400020912C0430912D0440912E0450912F048D
:10395000D5016D917D918D919C910E94449A0E9418
:1039600074A0E2966CAF7DAF8EAF9FAFE2972091CF
:103970003004309131044091320450913304F60107
:1039800060817181828193810E94449A0E9474A017
:10399000E6966CAF7DAF8EAF9FAFE6972091340473
:1039A000309135044091360450913704D7016D9120
:1039B0007D918D919C910E94449A0E9474A06C9676
:1039C0006CAF7DAF8EAF9FAF6C978091560483FF35
:1039D0000EC06C96CCACDDACEEACFFAC6C97C0927C
:1039E000140ED092150EE092160EF092170ED8011A
:1039F0003C9011962C9011971296CC901297CDAACC
:103A00001396DC90DAAE8091F20D9091F30D891B44
:103A10008F708F3019F40E94004AF5CFE090F20DBC
:103A2000E796EFAEE7978091F20DC82ED12CD8AA79
:103A3000CFA68091080E9091090EA0910A0EB09128
:103A40000B0EAE96CCACDDACEEACFFACAE97C81AAC
:103A5000D90AEA0AFB0ACEAADFAAE8AEF9AE80913B
:103A60000C0E90910D0EA0910E0EB0910F0EE296DD
:103A7000CCACDDACEEACFFACE297C81AD90AEA0ACE
:103A8000FB0A2696CCAEDDAEEEAEFFAE2697809159
:103A9000100E9091110EA091120EB091130EE69699
:103AA0004CAC5DAC6EAC7FACE697481A590A6A0A1A
:103AB0007B0A8091140E9091150EA091160EB09174
:103AC000170E6C96CCACDDACEEACFFAC6C97C81AA4
:103AD000D90AEA0AFB0A09F4A0C061963FAD6197D2
:103AE00024E0329F80011124F801E95AF94F6081E6
:103AF00071818281938120914904211134C00E94F7
:103B0000879F2091220230912302621773075CF590
:103B10006C96CCACDDACEEACFFAC6C97C092140EE6
:103B2000D092150EE092160EF092170EE5ECFFE122
:103B300084917F012FEFE21AF20A882321F00E947C
:103B4000885FF701F5CFECEEFEE084917F013FEF57
:103B5000E31AF30A882321F00E94885FF701F5CF6A
:103B6000C12CD12C7601C701B6010E94E599F8015C
:103B7000EA5EFD4F20813181428153810E94449A47
:103B80004B015C0120E030E0A9010E9469A087FFA1
:103B900004C0B7FAB094B7F8B0946091340470914F
:103BA000350480913604909137040E94879F9B01D1
:103BB000AC01A8ECB0E00E94299E0E94E5999B010F
:103BC000AC01C501B4010E9469A018164CF56C96B1
:103BD000CCACDDACEEACFFAC6C97C092140ED092C6
:103BE000150EE092160EF092170EE5ECFFE18491AF
:103BF0008F010F5F1F4F882321F00E94885FF8011B
:103C0000F6CFEDECFEE084918F010F5F1F4F88230C
:103C100021F00E94885FF801F6CFC12CD12C7601EB
:103C20008EA99FA9A8ADB9AD8827B7FD839599271F
:103C3000AA27BB27182F1295107F26962CAD3DADD5
:103C40004EAD5FAD269757FD106277FC14608EA8CD
:103C50009FA8A8ACB9AC26968CAD9DADAEADBFAD5E
:103C60002697880E991EAA1EBB1EB7FC11602EA9AE
:103C70003FA948AD59AD26968CAD9DADAEADBFAD5B
:103C80002697281B390B4A0B5B0B29AB3AAB4BAB86
:103C90005CAB57FD1260F7FC1860C701B6010E94CB
:103CA000E5996196CFAC6197A4E0CA9EF00111241A
:103CB000EA5EFD4F20813181428153810E94449A06
:103CC0002A966CAF7DAF8EAF9FAF2A9720E030E091
:103CD000A9010E9469A087FF08C02A966CAD7DAD3E
:103CE0008EAD9FAD2A97905806C02A966CAD7DADDB
:103CF0008EAD9FAD2A9720E030E040E05FE30E9468
:103D0000439E0E948C9F22966CAF7DAF8EAF9FAF7B
:103D100022978DE5EFA4F8A88E9DF0018F9DF00D00
:103D20001124E752F84F1082EA5BFF4F1083950190
:103D30008401B7FE07C00027112798010819190947
:103D40002A093B098DE5CFA4D8A88C9DF0018D9D53
:103D5000F00D1124E752F84F058B168B278B308F0F
:103D600049A95AA96BA97CA977FF07C070956095EE
:103D7000509541955F4F6F4F7F4F8DE5EFA4F8A8A9
:103D80008E9DF0018F9DF00D1124E752F84F418F69
:103D9000528F638F748F7301620177FE07C0CC244A
:103DA000DD247601C418D508E608F708EDE5AFA5CF
:103DB000B8A9EA9FC001EB9F900D1124FC01E752C6
:103DC000F84FC58ED68EE78EF0A222968CAD9DADB3
:103DD000AEADBFAD229781A392A3A3A3B4A32B96AC
:103DE0000FAF2B972F961FAF2F97F22FE32F0417AC
:103DF00015072607370740F42B964FAF2B972F96C2
:103E00005FAF2F97F62FE72F2B968FAD2B972F961F
:103E10009FAD2F97AF2FBE2F8C159D05AE05BF050B
:103E200010F4D701C6012296CCACDDACEEACFFACF1
:103E300022978C159D05AE05BF0510F4D701C6016C
:103E4000EDE5FE2ECFA4D8A8FC9CF001FD9CF00D62
:103E50001124E752F84F85A396A3A7A3B0A706970E
:103E6000A105B10510F40C943A29DF01A95ABF4FFE
:103E700080916F03909170038D939C936196DFAC5A
:103E80006197D1A6012B022B032B21F4452B462B46
:103E9000472B11F05F988A988DE5EFA4F8A88E9DC6
:103EA000F0018F9DF00D1124E752F84F858D968D0E
:103EB000A78DB0A1892B8A2B8B2B29F0809108012B
:103EC0008170809306012296CCACDDACEEACFFACE9
:103ED0002297CD28CE28CF2811F40C94432912988C
:103EE0004798E090D403F090D5030091D603109149
:103EF000D7039701A801632D722D8DA99AAD0E9459
:103F0000DF9987FF04C03E2C2F2C0DAB1AAFC09059
:103F1000B407D090B507E090B607F090B707649665
:103F2000CCAEDDAEEEAEFFAE64976EA97FA988ADD4
:103F300099AD0E94E599A70196010E94449A6EAB43
:103F40007FAB88AF99AF698B7A8B8B8B9C8BC09042
:103F5000B807D090B907E090BA07F090BB072E964B
:103F6000CCAEDDAEEEAEFFAE2E9726966CAD7DAD3F
:103F70008EAD9FAD26970E94E599A70196010E94FC
:103F8000449A6B017C016D8B7E8B8F8B988FC30164
:103F9000B2010E94E5992091BC073091BD07409184
:103FA000BE075091BF070E94449A26966CAF7DAF22
:103FB0008EAF9FAF269769877A878B879C87C501CD
:103FC000B4010E94E59964962CAD3DAD4EAD5FAD58
:103FD00064970E94449A69837A838B839C8369A93E
:103FE0007AA98BA99CA90E94E5992E962CAD3DAD8E
:103FF0004EAD5FAD2E970E94449A6D837E838F8372
:1040000098872091C0073091C1074091C207509115
:10401000C3072A966CAD7DAD8EAD9FAD2A970E94E9
:10402000449A4B015C016D877E878F87988B8DE565
:104030002FA538A9829FF001839FF00D1124E7522C
:10404000F84F458856886788708C36E043165104CF
:104050006104710430F5818D928DA38DB48D069726
:10406000A105B105F0F4858D968DA78DB0A10697B9
:10407000A105B105B0F420E030E0A901C501B4010B
:104080000E9469A087FF04C0B7FAB094B7F8B09453
:104090008DE5CFA4D8A88C9DF0018D9DF00D112445
:1040A00052C06696AEADBFAD66978D909D90AD90B7
:1040B000BC9020E030E0A901C501B4010E94DF9965
:1040C000811139C02EA93FA948AD59ADCA01B90126
:1040D0000E94449A4B015C01A7019601C701B601F9
:1040E0000E94449A9B01AC01C501B4010E94439E09
:1040F0006B017C0126962CAD3DAD4EAD5FAD269794
:10410000CA01B9010E94449A9B01AC01C701B601E2
:104110000E94439E0E94AEA02DE5CFA4D8A82C9D5E
:10412000F0012D9DF00D1124E752F84F6587768739
:104130008787908B0EC08DE5EFA4F8A88E9DF001C7
:104140008F9DF00D1124E752F84F85869686A7863D
:10415000B08A8DE5CFA4D8A88C9DF0018D9DF00D7F
:104160001124E752F84FC584D684E784F08864961A
:10417000CCAEDDAEEEAEFFAE6497A701960160E077
:1041800070E080E89FE30E941F9F68966CAF7DAF50
:104190008EAF9FAF68979B01AC01632D722D8DA9E7
:1041A0009AAD0E94449A4B015C018091F20D90916E
:1041B000F00D891B8F7027968FAF2797A50194016B
:1041C00060E074E284E799E40E941F9F0E9474A05B
:1041D0006B017C0127968FAD279782508630C0F502
:1041E0008091D8039091D903A091DA03B091DB03B9
:1041F000C816D906EA06FB0658F58C199D09AE09C2
:10420000BF09BC01CD01660F771F881F991F279634
:104210004FAD2797042F10E020E030E0A90198016E
:104220000E94EB9DCA01B9010E94E3990E9474A00B
:104230006C0D7D1D8E1D9F1D0E94E3999B01AC019D
:1042400060E074E284E799E40E941F9F4B015C01E7
:10425000A501940164966CAD7DAD8EAD9FAD649764
:104260000E94449A9B01AC010E94449AA0966CAFB4
:104270007DAF8EAF9FAFA0978DE5CFA4D8A88C9DC2
:1042800080018D9D100D11240752184FA096CCACC3
:10429000DDACEEACFFACA097D8011196CD92DD92CB
:1042A000ED92FC9214979596CD90DD90ED90FC9058
:1042B0009897CAAEDBAEECAEFDAEC701B6010E9468
:1042C000E3996EAB7FAB88AF99AFA50194010E94D3
:1042D000449A0E94099F0E948C9FA4966CAF7DAF68
:1042E0008EAF9FAFA497F801E95BFF4F60837183A6
:1042F00082839383FE0131962C96FFAFEEAF2C970D
:104300009E01235E3F4F24963FAF2EAF249744EA91
:1043100053E0AA965FAF4EAFAA97CE0141969EA7F3
:104320008DA760963FAF2EAF6097312C212C90E87F
:1043300099ABAFE3ADAB2C96EEADFFAD2C97619191
:104340007191819191912C96FFAFEEAF2C97A501C1
:1043500094010E94449A6B017C016096AEADBFADA2
:1043600060976D937D938D939D936096BFAFAEAF35
:10437000609720E030E0A9010E9469A087FF04C097
:10438000F7FAF094F7F8F094AA96AEADBFADAA97FD
:104390002D913D914D915D91AA96BFAFAEAFAA9779
:1043A000A8962CAF3DAF4EAF5FAFA897C701B6013F
:1043B0000E9469A01816D4F4A7019601A8966CADC6
:1043C0007DAD8EAD9FADA8970E941F9F7B018C0194
:1043D0009B01AC01632D722D89A99DA90E9469A042
:1043E000181624F43E2C2F2C09AB1DAB2C96CEAC0A
:1043F000DFAC2C97EDA4FEA4CE14DF0409F09BCF14
:1044000020E030E040E85FE3632D722D89A99DA98B
:104410000E94DF9987FF5AC07E012DE2E20EF11C57
:1044200024960EAD1FAD2497232D322D49A95DA9E9
:10443000D8016D917D918D919C910E94449AF801D3
:1044400061937193819391938F01EE15FF0561F74D
:104450002DE5CFA4D8A82C9DC0012D9D900D112431
:104460009C012752384F79018901095B1F4FA4969F
:104470006CAD7DAD8EAD9FADA4970E94E399232DC9
:10448000322D49A95DA90E94449A0E948C9FD801AF
:104490006D937D938D939C931397232D322D49A972
:1044A0005DA9632D722D89A99DA90E94449A9B0143
:1044B000AC01A0966CAD7DAD8EAD9FADA0970E9476
:1044C000449AF701618372838383948368962CAD49
:1044D0003DAD4EAD5FAD68976EA97FA988AD99AD32
:1044E0000E94449A69AB7AAB8BAB9CAB41145104EC
:1044F0006104710459F58DE5CFA4D8A88C9DF00115
:104500008D9DF00D1124E752F84F818D928DA38D72
:10451000B48D892B8A2B8B2BC9F4858D968DA78D15
:10452000B0A1892B8A2B8B2B89F42091B403309175
:10453000B5034091B6035091B70369A97AA98BA935
:104540009CA90E94449A0E94099F29C22296CCAC41
:10455000DDACEEACFFAC2297CD28CE28CF2849F0B9
:104560006091BC037091BD038091BE039091BF0325
:1045700008C06091B8037091B9038091BA0390911B
:10458000BB0329A93AA94BA95CA90E94449A0E949D
:10459000099F0E948C9F6B017C018091B0079091D4
:1045A000B107A091B207B091B3072AAD3BAD4CADB6
:1045B0005DAD82179307A407B50708F4E2C0411464
:1045C00051046104710441F12091790330917A031F
:1045D00040917B0350917C032C153D054E055F05F2
:1045E000D8F46AAD7BAD8CAD9DAD0E94DC9D4B01D6
:1045F0005C01A7019601C301B2010E94DC9D8616F1
:104600009706A806B90640F4C501B401A3019201BA
:104610000E94EB9D69017A018DE54FA558A9849F01
:10462000F001859FF00D1124E752F84F818C928C98
:10463000A38CB48C81149104A104B10441F12091A4
:104640007D0330917E0340917F03509180032C15B0
:104650003D054E055F05D8F46AAD7BAD8CAD9DADD3
:104660000E94DC9D2B013C01A7019601C501B4010C
:104670000E94DC9D461657066806790640F4C30181
:10468000B201A50194010E94EB9D69017A018DE5BB
:10469000AFA5B8A98A9FF0018B9FF00D1124E752B6
:1046A000F84F858C968CA78CB0A081149104A1043E
:1046B000B10441F120918103309182034091830341
:1046C000509184032C153D054E055F05D8F46AAD65
:1046D0007BAD8CAD9DAD0E94DC9D2B013C01A70103
:1046E0009601C501B4010E94DC9D46165706680676
:1046F000790640F4C301B201A50194010E94EB9D2B
:1047000069017A018DE52FA538A9829FF001839F69
:10471000F00D1124E752F84F81A092A0A3A0B4A0FD
:1047200081149104A104B10409F43DC120918503D1
:104730003091860340918703509188032C153D05E5
:104740004E055F0508F02FC16AAD7BAD8CAD9DAD08
:104750000E94DC9D2B013C01A7019601C501B4011B
:104760000E94DC9D461657066806790608F01BC1B4
:10477000C301B201A50194010E94EB9D69017A0178
:1047800012C14114510461047104A9F160917903CB
:1047900070917A0380917B0390917C036C157D0569
:1047A0008E059F0540F50E94E3992EA93FA948ADCB
:1047B00059AD0E94449A4B015C01C301B2010E94B1
:1047C000E3992B013C01C701B6010E94E399A301C3
:1047D00092010E94449AA50194010E9469A01816B2
:1047E00054F4A3019201C501B4010E941F9F0E94CD
:1047F0008C9F6B017C018DE54FA558A9849FF0012A
:10480000859FF00D1124E752F84F418C528C638C38
:10481000748C4114510461047104A9F160917D0309
:1048200070917E0380917F03909180036C157D05CC
:104830008E059F0540F50E94E3992EA93FA948AD3A
:1048400059AD0E94449A4B015C01C301B2010E9420
:10485000E3992B013C01C701B6010E94E399A30132
:1048600092010E94449AA50194010E9469A0181621
:1048700054F4A3019201C501B4010E941F9F0E943C
:104880008C9F6B017C018DE5AFA5B8A98A9FF001D3
:104890008B9FF00D1124E752F84F458C568C678C96
:1048A00070A04114510461047104A9F16091810365
:1048B0007091820380918303909184036C157D0530
:1048C0008E059F0540F50E94E3992EA93FA948ADAA
:1048D00059AD0E94449A4B015C01C301B2010E9490
:1048E000E3992B013C01C701B6010E94E399A301A2
:1048F00092010E94449AA50194010E9469A0181691
:1049000054F4A3019201C501B4010E941F9F0E94AB
:104910008C9F6B017C018DE52FA538A9829FF0014A
:10492000839FF00D1124E752F84F81A092A0A3A01D
:10493000B4A081149104A104B104A9F1609185038C
:104940007091860380918703909188036C157D0593
:104950008E059F0540F50E94E3992EA93FA948AD19
:1049600059AD0E94449A2B013C01C501B4010E943B
:10497000E3994B015C01C701B6010E94E399A501CF
:1049800094010E94449AA30192010E9469A0181602
:1049900054F4A5019401C301B2010E941F9F0E941B
:1049A0008C9F6B017C018DE54FA558A9849F8001E8
:1049B000859F100D11240752184FF801ED5AFF4F33
:1049C000C082D182E282F382C701B6010E94E399DC
:1049D00029A93AA94BA95CA90E941F9F68966CAFB0
:1049E0007DAF8EAF9FAF6897D80151966D937D9341
:1049F0008D939C9354971196CD90DD90ED90FC9003
:104A000014972E96CCAEDDAEEEAEFFAE2E97C7015C
:104A1000B6010E94AEA0162F072F382E292EE0ECEB
:104A2000F3E06E96FFAFEEAF6E973E01FDE26F0EC4
:104A3000711C20EC33E060963FAF2EAF6097249658
:104A40004EAC5FAC249769AB7DAB8AAF9EAB1EAE1C
:104A5000D201CD90DD90ED90FD902D0120E030E071
:104A6000A901C701B6010E9469A087FF04C0F7FA37
:104A7000F094F7F8F0946096EEADFFAD60978190FA
:104A80009190A190B1906096FFAFEEAF6097A501B5
:104A90009401C701B6010E9469A018160CF03FC02E
:104AA000FEADFF2329F1A5019401612F702F832D05
:104AB000922D0E94449A4B015C0129A93DA94AAD5F
:104AC0005EA9C701B6010E94449AA50194010E9403
:104AD00069A0181614F5A7019601C501B4010E943A
:104AE0001F9F69AB7DAB8AAF9EAB21E02EAF17C095
:104AF000A7019601C501B4010E941F9F9B01AC0153
:104B000069A97DA98AAD9EA90E94449A69AB7DAB33
:104B10008AAF9EAB31E03EAF02C041E04EAF4614DB
:104B2000570409F095CFC9A8A596CFAEA597DDA8E3
:104B3000A996DFAEA997EAACE896EFAEE897FEA893
:104B4000E996FFAEE9972796CFAC2797CC2009F4DA
:104B500054C1C090F40DD090F50DE090F60DF0909A
:104B6000F70D2DEB37E346E855E3C701B6010E9488
:104B7000DF9987FD42C1C701B6010E94AEA06B015B
:104B80007C019B01AC01612F702F832D922D0E941F
:104B9000DF9987FD04C01C2D0D2D3E2C2F2C960176
:104BA000A701612F702F832D922D0E941F9FA49625
:104BB0006CAF7DAF8EAF9FAFA49728EF3DE06096BE
:104BC0003FAF2EAF6097C12CD12C40E8E42E4FE3CD
:104BD000F42E2296CCAEDDAEEEAEFFAE2297279637
:104BE0001FAE27976096AEADBFAD60976D917D917A
:104BF0008D919D916096BFAFAEAF6097A4962CAD9E
:104C00003DAD4EAD5FADA4970E94449A6B017C010F
:104C10002496EEADFFAD249781909190A190B19034
:104C20002496FFAFEEAF24972796FFAD2797FF237B
:104C3000B1F022962CAD3DAD4EAD5FAD22970E94F6
:104C4000449A6B017C0122962CAD3DAD4EAD5FAD1B
:104C50002297C501B4010E94449A4B015C01A50151
:104C60009401C701B6010E9469A020E030E0A901CB
:104C700018162CF5C501B4010E9469A018164CF055
:104C800020E030E0A901C701B6010E94DF9987FF4B
:104C900005C0A5019401C701B60124C02401350156
:104CA00077FA709477F87094A3019201C701B60166
:104CB0000E9469A018165CF52601370128C0C501BD
:104CC000B4010E94DF9987FD09C020E030E0A9010E
:104CD000C701B6010E9469A018164CF4A7019601FD
:104CE000C501B4010E94429E2B013C0110C0260167
:104CF000370177FA709477F87094A5019401C30195
:104D0000B2010E9469A0181614F0240135016E96B4
:104D1000AEADBFAD6E97CD90DD90ED90FD906E96EF
:104D2000BFAFAEAF6E97A7019601C301B2010E945B
:104D300069A01816ECF4A3019201C701B6010E9404
:104D40001F9F9B01AC0122966CAD7DAD8EAD9FADDA
:104D500022970E94449A22966CAF7DAF8EAF9FAF90
:104D600022972796BFAD2797BF5F2796BFAF27979C
:104D70006096EEADFFAD6097E850FE4009F032CF8F
:104D80002796CFAC2797CC2081F022962CAD3DAD55
:104D90004EAD5FAD2297612F702F832D922D0E9413
:104DA000449A162F072F382E292E24EA30E74DE794
:104DB0005FE3612F702F832D922D0E94449A6B0127
:104DC0007C019B01AC0160912E0670912F068091B1
:104DD0003006909131060E9469A0181654F4A7017C
:104DE000960169A97DA98AAD9EA90E9469A018169D
:104DF00024F019AB0DAB3AAE2EAAA5968FADA597B0
:104E0000A9969FADA997E896AFADE897E996BFAD93
:104E1000E99780932E0690932F06A0933006B093C7
:104E200031068DE5EFA4F8A88E9D80018F9D100DB1
:104E300011240752184F29A93DA94AAD5EA969A9B5
:104E40007DA98AAD9EA90E94449AD80119966D93B6
:104E50007D938D939C931C978BE097EDA3E2BBE32E
:104E6000F80185839683A783B087108168966CAD1F
:104E70007DAD8EAD9FAD689790589B01AC010E94AF
:104E8000439E64962CAD3DAD4EAD5FAD64970E94E0
:104E9000449A9B01AC016BE077ED83E29BE30E94B7
:104EA000429E9B01AC012E966CAD7DAD8EAD9FAD4B
:104EB0002E970E94DF99181614F481E001C083E058
:104EC000182B8DE5CFA4D8A88C9DF0018D9DF00DF9
:104ED0001124E752F84F108380E1FE017D96A8EF80
:104EE000BDE001900D928A95E1F72E96CCACDDAC39
:104EF000EEACFFAC2E97C092F40DD092F50DE0927F
:104F0000F60DF092F70DAE96CCACDDACEEACFFAC8E
:104F1000AE97C092080ED092090EE0920A0EF0925F
:104F20000B0EE296CCACDDACEEACFFACE297C092DF
:104F30000C0ED0920D0EE0920E0EF0920F0EE69631
:104F4000CCACDDACEEACFFACE697C092100ED092CC
:104F5000110EE092120EF092130E6C96CCACDDACFA
:104F6000EEACFFAC6C97C092140ED092150EE0928E
:104F7000160EF092170E9091F20D8091F30D98138A
:104F800003C084E68093EF0DE7968FADE7978F5FC0
:104F90008F708093F20D8091F20D9091F10D815000
:104FA0008F70891306C0D090F30D8090F20D9DE5AF
:104FB0009BC0F090F20D8FEF8F0D8F708FA7B09088
:104FC000F10D8091F20DB81206C0D090F10DDFA660
:104FD000C12CD12C6FC0C12CD12CEFA4EB14A9F3A0
:104FE000EFA48E2C912C3DE5F32EF89C8001F99CCA
:104FF000100D11240752184FD8018C9183FD2CC03D
:105000000EAB1EAF0115110549F11996EC901997D9
:10501000E9AA1A96FC901A97FDAA1B96EC901B978A
:10502000EAAE1C96AC901C9715964D905D906D90D5
:105030007C90189729A93F2D4E2D5A2DC301B201FE
:105040000E94DF99811129C1C114D10439F0D60120
:105050008C9180FD22C102C0CEAADEAE8FA5815008
:105060008F708FA78091F10DB81649F0CFA4CB14A3
:1050700009F4ABCF81E08B0D8F70B82EF3CFCEA8A3
:10508000DEACABCFFFA48F2C912C2DE5289D8001A9
:10509000299D100D11240752184FD8018C9183FDC2
:1050A00015C05801C114D10459F48FA58F5F8F70BA
:1050B0008FA765018091F20DFFA4F812E3CF73CFA3
:1050C000C6010E94A57A8111F0CF5EC15601EDCFD5
:1050D0008FEF880D8F70989FF0011124E752F84FE1
:1050E000208123FF03C0882E8D10F2CF212C312C7C
:1050F000412C512C1FA619AA712C612C00E010E044
:10510000E12CF12CD81409F475C02DE52D9D8001FA
:1051100011240752184FD8018C9183FD19C01596A0
:105120006D917D918D919C9118970E94AEA0C62E95
:10513000B72EA82E992EE114F10409F44DC0F70101
:10514000808180FD0AC0D8018C9180FD06C044C0DA
:10515000CFA4B9A8A72C962C44C0F7018081816008
:105160008083C7010E94A57A811132C0F701618155
:105170007281838194810E94AEA09B01AC0160E0AA
:1051800070E080E89FE30E941F9F1B012C019B01A0
:10519000AC016C2D7B2D8A2D992D0E94449A698338
:1051A0007A838B839C83A20191016FA579A9872DB6
:1051B000962D0E94449A6D8F7E8F8F8F98A3AE019B
:1051C0004F5F5F4FBE01635E7F4FC7010E94E519CD
:1051D000D7018C918E7F8C932C2C3B2C4A2C592CF4
:1051E000780181E08D0D8F70D82ECFA6B9AA7A2CC8
:1051F000692C88CF01151105E9F1F80180818160E2
:105200008083C7010E94A57A811130C0D801119610
:105210006D917D918D919C9114970E94AEA09B0100
:10522000AC0160E070E080E89FE30E941F9F6B018B
:105230007C012DEC3CEC4CE45DE30E94449A6983D4
:105240007A838B839C83A7019601B101C2010E94DE
:10525000449A6D8F7E8F8F8F98A3AE014F5F5F4F03
:10526000BE01635E7F4FC8010E94E519F80180818D
:105270008E7F808380916F00826080936F0081E0D9
:10528000FAC080E0F8C0E090D003F090D103009124
:10529000D2031091D3030C94791F8DE5E82EE89C7E
:1052A000F001E99CF00D1124E752F84F808181FD57
:1052B0003FC0C114D10431F0F601C580D680E7802B
:1052C000F08408C02BE0C22E27EDD22E23E2E22E7E
:1052D0002BE3F22E2DE5289DF001299DF00D1124E0
:1052E000E752F84F81899289A389B489BC01CD0125
:1052F00090589B01AC010E94439ED8011D962D91B0
:105300003D914D915C9150970E94449A9B01AC0154
:10531000C701B6010E94429E1B016C019B01AC01BA
:1053200069A97DA98AAD9A2D0E94DF9987FF04C0E3
:1053300029A83DA8CAACDA2C9101A601C301B2018B
:105340000E94DF99882309F489CEBDE5B89DC0018C
:10535000B99D900D1124FC01E752F84F4F01808157
:1053600081608083C8010E94A57A882329F0D40136
:105370008C918E7F8C9372CEC101D601F40185830E
:105380009683A783B0876ACED6018C9181FD50C0E9
:10539000D60115962D913D914D915C91189729ABB1
:1053A0003AAB4BAB5CAB1501B5E02B0E311CF801F1
:1053B0004580568067807084A301920169A97AA90B
:1053C0008BA99CA90E94DF9987FF32C0F6018189D1
:1053D0009289A389B489BC01CD0190589B01AC018D
:1053E0000E94439ED6011D962D913D914D915C9159
:1053F00050970E94449A9B01AC0169A97AA98BA994
:105400009CA90E94429E6B017C01A30192010E9413
:10541000DF9987FF0DC0D8018C9181608C93C50105
:105420000E94A57A8823E9F0F80180818E7F80832D
:105430009DE5D92ED89CF001D99CF00D1124E7529E
:10544000F84F218532854385548565817681878132
:1054500090850E94DF99811128CEEFA4E092F10D92
:1054600024CED101CD92DD92ED92FC921397CFA480
:10547000C092F10DDDCFC858DF4F0FB6F894DEBFF4
:105480000FBECDBFDF91CF911F910F91FF90EF9095
:10549000DF90CF90BF90AF909F908F907F906F9054
:1054A0005F904F903F902F9008958091F20D9091D2
:1054B000F30D891B8F708F3019F40E94004AF5CFCD
:1054C0008091F20D8F5F8F70E091F20D9DE59E9FB0
:1054D000F0011124E752F84FDF011D929A95E9F788
:1054E00098E090834091080E5091090E60910A0E49
:1054F00070910B0E458B568B678B708F40910C0E05
:1055000050910D0E60910E0E70910F0E418F528FC3
:10551000638F748F4091100E5091110E6091120E96
:105520007091130E458F568F678F70A34091140EA4
:105530005091150E6091160E7091170E41A352A353
:1055400063A374A32091F20D9091F30D291303C06E
:1055500094E69093EF0D8093F20D80916F0082603E
:1055600080936F0008959091F20D8091F30D98173C
:1055700019F00E94004AF7CF80915206909153068D
:10558000892BB9F70895CF92DF92EF92FF92CF93D4
:10559000DF93C82F8230D0F580916F0081FBDD272B
:1055A000D0F981FF05C080916F008D7F80936F00DF
:1055B00080E0C13081F40E94877A6B017C0181E038
:1055C0000E94877AA7019601261B370B480B590BBF
:1055D000CA01B9010BC00E94877A6B017C0181E08E
:1055E0000E94877A6C0D7D1D8E1D9F1D0E94E5997E
:1055F00020E030E040E05FE30E94449ADD2351F078
:1056000020916F00226020936F0004C00E94877A6F
:105610000E94E59934E0C39FF0011124EC54F84F47
:1056200020813181428153810E94449ADF91CF9140
:10563000FF90EF90DF90CF9008959091F20D8091C0
:10564000F30D981719F00E94004AF7CF8091520687
:1056500090915306892BB9F70C943B4DCF93DF9370
:1056600090916F0091FB222720F991FF05C0909146
:105670006F009D7F90936F0094E0899FE00111245B
:10568000FE01E155F14F6081718182819381222376
:1056900029F020916F00226020936F000E94E5990D
:1056A000CC54D84F288139814A815B810E94449A29
:1056B000DF91CF910895CF93DF9320913C04222373
:1056C00091F0EC01BC016C5F7F4F0E94B66F9B01B3
:1056D000AC01688579858A859B850E94429E688792
:1056E00079878A879B87DF91CF910895CF93DF9346
:1056F00020913C04222379F0EA010E94B66F9B01BD
:10570000AC01688179818A819B810E94439E688374
:1057100079838A839B83DF91CF9108957F928F92C3
:105720009F92AF92BF92CF92DF92EF92FF920F9330
:105730001F93CF93DF9370909303C8E1D4E09EE171
:10574000C92E92E0D92E26E1E22E22E0F22E0BE8BD
:1057500013E0772059F1F80180809180A280B38016
:1057600020E030E0A901C501B4010E94DF9988233F
:10577000E9F020E030E040E05FE3C501B4010E94C1
:10578000449A9B01AC010E94449A2BED3FE049E40E
:1057900050E40E94449A9B01AC0160E070E080E814
:1057A0009FE30E941F9F4B015C0106C0812C912C3E
:1057B00080E8A82E8FE3B82E89929992A992B99287
:1057C000F601619171916F01072E000C880B990B06
:1057D0000E94E5992AE037ED43E25CE30E94449A97
:1057E000A50194010E94449AF701619371938193FA
:1057F00091937F010C5F1F4FF4E0C032DF0709F087
:10580000A8CFDF91CF911F910F91FF90EF90DF9084
:10581000CF90BF90AF909F908F907F9008952F92E0
:105820003F924F925F926F927F928F929F92AF9230
:10583000BF92CF92DF92EF92FF920F931F93CF937D
:10584000DF93CDB7DEB7ED970FB6F894DEBF0FBE8E
:10585000CDBF85E40E94B25E882321F00E94085EDD
:105860006B0102C0C12CD12C83E40E94B25E88235C
:1058700021F00E94085E162F01C015E085E50E9408
:10588000B25E882319F00E94295E03C085E50E945C
:105890006B5E8BA7D7FC07C0812C912C06E1A02E54
:1058A00003E4B02E06C0812C912CBCE8AB2EB2E4F0
:1058B000BB2E83E50E94B25E882321F00E94385EF1
:1058C0004B015C0102E0C016D10410F4C092200428
:1058D0000E940B3A2B013C0121E02C1568F4E0E812
:1058E000F1E184918F010F5F1F4F882309F4CDC32D
:1058F0000E94885FF801F5CFEAEAF1E184917F0127
:105900003FEFE31AF30A882321F00E94885FF70132
:10591000F5CFCD86C501B4010E94879F072E000CEC
:10592000880B990B0E94E59969877A878B879C87FA
:10593000D301C20180549B42AE4FBF4F8CAB9DAB95
:10594000AEABBFAB0E940F3F6C2DCC0C770B9B0115
:105950002C5A394F8FE7D9018C9381E0809325022F
:105960004BA25CA26DA27EA24CA65DA66EA67FA6EF
:105970001AA218AA19AA1AAA1BAA188A00E4098B43
:105980000CE10A8B06E40B8B1C8A1D8A1E8A1F8A77
:105990001C8E1D8E1E8E1F8E188E198E1A8E1B8EBB
:1059A000C12CD12C76018FE790E0A0E0B0E08D8390
:1059B0009E83AF83B887FFE78F2E912CA12CB12C4B
:1059C0001FA218A619A61AA601E01F861E86212C62
:1059D000312C1CAE1DAE660F771F660F771FDB01E3
:1059E000A95AB94FB9A3A8A339AF28AFE12F110F16
:1059F000FF0BFBAFEAAF80912502882309F4B4C006
:105A00000E940B3A69837A838B839C838091510631
:105A1000882309F48EC00E944A3FA8A1B9A12C9006
:105A200011963C90119712961C9112971CAF1396E9
:105A30001C911DAF91014CAD512F6C897D898E89D0
:105A40009F890E94DF9987FF06C02C8A3D8A1CAD82
:105A50001E8B1DAD1F8B91014CAD5DAD68897989A1
:105A60008A899B890E9469A0181634F4288A398A89
:105A70001CAD1A8B1DAD1B8B29853A854B855C852A
:105A8000B1018CAD9DAD0023E1F10E9469A0181613
:105A90000CF04FC049815A816B817C8144195509B2
:105AA00066097709DB01CA0188589341A109B10948
:105AB000B7FD3FC0D501C4010D811E812F813885FE
:105AC000801B910BA20BB30BB595A7959795879566
:105AD000E8ADF9AD80834FA358A769A77AA70985D8
