:100000000C9403150C9434150C9434150C9434157D
:100010000C9434150C9434150C9434150C9434153C
:100020000C9434150C9434150C9434150C9434152C
:100030000C9434150C9434150C9434150C9434151C
:100040000C9434150C94D58C0C9434150C943415F4
:100050000C9434150C9434150C947D660C945F62EA
:100060000C9434150C94313E0C9434150C943415C6
:100070000C9434150C9434150C9434150C943415DC
:100080000C94E58E0C9434150C9434150C943415A2
:100090000C9434150C9434150C9434150C943415BC
:1000A0000C9434150C9434150C94B88E0C943415AF
:1000B0000C9434150C9434150C9434150C948B8ECC
:1000C0000C9434150C9434150C9434150C9434158C
:1000D0000C9434150C9434150C9434150C9434157C
:1000E0000C94341578607B606A606E607460B260F6
:1000F0007F60836089608D60916097609B609F6086
:10010000B260A560A960AD6045614A614F61596107
:100110006361DC616D6175617D61876191619B6186
:10012000AA61B461DC61BE61C861D261DD64AB65A6
:10013000B065DB65E765C365C865CD64084AD73B34
:100140003BCE016E84BCBFFDC12F3D6C74319ABDA6
:1001500056833DDA3D00C77F11BED9E4BB4C3E91CA
:100160006BAAAABE000000803F05A84CCDB2D44EB9
:10017000B93836A9020C50B9918688083CA6AAAABB
:100180002ABE000000803F004E414E494E4954595E
:10019000494E46CDCCCC3D0AD7233C17B7D1387752
:1001A000CC2B329595E6241FB14F0A000020410068
:1001B00000C84200401C4620BCBE4CCA1B0E5AAEB2
:1001C000C59D744C4556454C494E4700434F4D4DD7
:1001D000554E49434154494F4E0044525952554E91
:1001E000004552524F525300494E464F0045434836
:1001F0004F0047322F473320626164207061726183
:100200006D65746572730A004D65736820706F695F
:100210006E742063616E6E6F742062652072657308
:100220006F6C7665640A0046696C616D656E74205A
:10023000757365643A200053746174733A20002C1E
:10024000204C6F6E67657374206A6F623A200054A9
:100250006F74616C2074696D653A20005374617429
:10026000733A20002C204661696C65643A20002CAA
:100270002046696E69736865643A20005072696E41
:1002800074733A200053746174733A2000ED01E8EE
:1002900001E101DA01CC01C3016F66660044454209
:1002A00055473A004B494C4C45442E20004D3131C6
:1002B000332053006F6B0020573A0020573A003F1D
:1002C0004A206F7574206F662072616E6765202802
:1002D000302E303120746F20302E33290A00546FB5
:1002E0006F206661722066726F6D2072656665723E
:1002F000656E636520706F696E740A00205A002075
:100300005900580020204D61783A2000205A0020E2
:100310005900580020204D696E3A20004F6E200091
:100320004F666600536F667420656E6473746F70F9
:10033000733A2000486F74656E64206F666673655B
:1003400074733A0020466C6F773A2000000136370C
:100350002603FFFFFF353C3D38FF0FFFFF312E30F6
:100360003EFF13FFFFFF28390C0809FFFFFF1A1C8F
:1003700018FFFF2A24221EFFFF2C08440AFF430710
:10038000FF454D323732207374657020313120546F
:1003900031205A2D6F66667365743A20004D3237EE
:1003A0003220737465702031302064656C205A3AB5
:1003B00020004D32373220737465702039205A3A4C
:1003C00020004D32373220737465702038205A3245
:1003D0003A20004D32373220737465702037205A2E
:1003E0003A20004D32373220737465702036205A1F
:1003F0003A20004D32373220737465702035205A10
:10040000313A2000205A3A200020593A20004D323B
:1004100037322073746570203420583A20004D32F2
:10042000373220737465702033205A3A20004D32E1
:10043000373220736176653A2000206F7574206F23
:10044000662072616E67650A00536572766F2000E0
:100450003A200020536572766F200020643A002015
:10046000693A0020703A00496E76616C69642065D3
:10047000787472756465720A0043290A0061626CBF
:10048000656420286D696E2074656D702000436F6F
:100490006C64206578747275646573206172652080
:1004A0000023646566696E652044454641554C5499
:1004B0005F4B64200023646566696E652044454691
:1004C00041554C545F4B69200023646566696E6535
:1004D0002044454641554C545F4B702000504944E0
:1004E000204175746F74756E652066696E697368F6
:1004F0006564212050757420746865206C61737484
:10050000204B702C204B6920616E64204B6420636B
:100510006F6E7374616E74732066726F6D206265A6
:100520006C6F7720696E746F20436F6E66696775B4
:10053000726174696F6E2E680A00504944204175DB
:10054000746F74756E65206661696C6564212074D2
:10055000696D656F75740A004245442054484552E0
:100560004D414C2052554E415741590054686572D7
:100570006D616C2052756E61776179004531205450
:100580004845524D414C2052554E41574159004526
:100590003220544845524D414C2052554E4157410E
:1005A00059004265642068656174696E6720666100
:1005B000696C65640048656174696E67206661698D
:1005C0006C65640045312048656174696E6720661A
:1005D00061696C65640045322048656174696E67C5
:1005E000206661696C656400504944204175746FF0
:1005F00074756E65206661696C6564212054656D53
:10060000706572617475726520746F6F20686967B8
:10061000680A00204B643A2000204B693A200020F1
:100620004B703A20000A20436C6173736963205059
:100630004944200A002054753A2000204B753A2086
:1006400000206D61783A2000206D696E3A2000200C
:10065000643A200020626961733A200050494420C6
:100660004175746F74756E65206661696C6564218F
:1006700020426164206578747275646572206E75BD
:100680006D6265720A00504944204175746F74753B
:100690006E652073746172740A004E6F206361731B
:1006A00065206C696768740A00426564204C657651
:1006B000656C696E6720004661696C656420746FC3
:1006C00020656E61626C6520426564204C657665CC
:1006D0006C696E670A004D65736820706F696E748F
:1006E0002063616E6E6F74206265207265736F6C3B
:1006F0007665640A004D34323120696E636F727220
:1007000065637420706172616D65746572207573C4
:100710006167650A00454550524F4D204F4B0A0016
:100720003A200050726F6265205A204F66667365EA
:1007300074003F5A206F7574206F662072616E6777
:100740006520282D323020746F203230290A003C79
:100750003C3C2067636F64655F540A00203A204187
:10076000465445520A00202063757272656E745FAC
:10077000706F736974696F6E3D00203A2042454680
:100780004F52450A00202063757272656E745F7067
:100790006F736974696F6E3D003E3E3E2067636F04
:1007A00064655F5428002569730025696D202569FB
:1007B00073002569682025696D2025697300256906
:1007C00064202569682025696D20256973002569E5
:1007D0007920256964202569682025696D202569AF
:1007E00073002C20002C2000203A2073796E635F68
:1007F000706C616E5F706F736974696F6E0A002050
:100800002063757272656E745F706F736974696F5F
:100810006E3D00656E7175657565696E67202200B5
:100820004C696E65204E756D626572206973206E2D
:100830006F74204C617374204C696E65204E756D29
:100840006265722B312C204C617374204C696E658B
:100850003A20004B494C4C45442E20005072696EA2
:100860007465722073746F707065642064756520A0
:10087000746F206572726F72732E204669782074CF
:100880006865206572726F7220616E642075736591
:10089000204D39393920746F207265737461727418
:1008A0002E202854656D70657261747572652069BB
:1008B000732072657365742E2053657420697420EB
:1008C00061667465722072657374617274696E67B3
:1008D000290A004E6F20436865636B73756D20773E
:1008E000697468206C696E65206E756D6265722C26
:1008F000204C617374204C696E653A200063686512
:10090000636B73756D206D69736D617463682C2002
:100910004C617374204C696E653A20004D31313062
:100920000020496E76616C69642065787472756424
:1009300065722000000000000000000000000000C0
:100940000000B9430080C5430000C8430A20736F0C
:1009500066745F656E6473746F705F6D6178203D5F
:1009600020000A20736F66745F656E6473746F7025
:100970005F6D696E203D20000A20706F7369746995
:100980006F6E5F7368696674203D2000206178692E
:10099000733A0A20686F6D655F6F666673657420D1
:1009A0003D2000466F7220003C3C3C20646F5F623B
:1009B0006C6F636B696E675F6D6F76655F746F0AEE
:1009C000003E3E3E20646F5F626C6F636B696E67D2
:1009D0005F6D6F76655F746F00203A207365747584
:1009E000705F666F725F656E6473746F705F6F7255
:1009F0005F70726F62655F6D6F76650A00202063BD
:100A0000757272656E745F706F736974696F6E3D35
:100A100000203A20636C65616E5F75705F6166747B
:100A200065725F656E6473746F705F6F725F707212
:100A30006F62655F6D6F76650A0020206375727264
:100A4000656E745F706F736974696F6E3D00646F7B
:100A50005F70726F62655F726169736528006465BB
:100A6000706C6F793A2000203A207365745F707261
:100A70006F62655F6465706C6F7965640A00202041
:100A800063757272656E745F706F736974696F6E8F
:100A90003D00203A203C3C3C20646F5F70726F62E6
:100AA000655F6D6F76650A00202063757272656EF2
:100AB000745F706F736974696F6E3D00203A203EF9
:100AC0003E3E20646F5F70726F62655F6D6F76652A
:100AD0000A00202063757272656E745F706F7369AF
:100AE00074696F6E3D0072657365745F6265645F03
:100AF0006C6576656C0A002028646F6E65290A00B3
:100B00004578747261706F6C617465205B00426936
:100B10006C696E656172204C6576656C696E6720E4
:100B2000477269643A0A0024F4D43050C38E20C25C
:100B3000A24017828B7011127A910D816CD90AA88C
:100B400061E108C7586607615143061E4B5D05C148
:100B500045A7041A411104093D9803713931034036
:100B600036DB0265339102D4305402802E1D0263BD
:100B70002CEE01752AC501B028A001102781018F34
:100B80002564012B244B01E0223401AC211F018D8F
:100B9000200D01801FFC00841EED00971DDF00B8B2
:100BA0001CD200E61BC600201BBC00641AB200B2B7
:100BB00019A8000A19A0006A189900D117910040DD
:100BC000178B00B516840031167E00B31579003AF4
:100BD000157300C7146F0058146A00EE136600887E
:100BE00013630025135E00C7125B006C12570015DB
:100BF000125400C111510070114F0021114B00D649
:100C00001049008D1047004610440002104200C0F9
:100C10000F4000800F3E00420F3C00060F3B00CB10
:100C20000E3800930E37005C0E3500270E3400F3AB
:100C30000D3200C10D3100900D3000600D2E0032DC
:100C40000D2D00050D2C00D90C2B00AE0C290085B4
:100C50000C29005C0C2700350C27000E0C2600E840
:100C60000B2400C40B2400A00B23007D0B23005A8F
:100C70000B2100390B2100180B2000F80A1F00D9A6
:100C80000A1E00BB0A1E009D0A1D00800A1D00638B
:100C90000A1C00470A1B002C0A1B00110A1A00F745
:100CA000091A00DD091900C4091900AB09190092DD
:100CB0000917007B091800630917004C0916003654
:100CC000091600200916000A091500F5081500E0AC
:100CD000081400CC081400B8081400A408140090EC
:100CE0000813007D0812006B081300580812004614
:100CF0000812003408110023081100120811000125
:100D0000081100F0071000E0071000D0071000C025
:100D1000071000B0070F00A107100091070E008315
:100D2000070F0074070F0065070E0057070E0049F4
:100D3000070E003B070D002E070E0020070D0013C5
:100D4000070D0006070D00F9060C00ED060D00E08A
:100D5000060C00D4060C00C8060C00BC060C00B043
:100D6000060C00A4060B0099060C008D060B0082F1
:100D7000060B0077060B006C060B0061060A005795
:100D8000060B004C060A0042060A0038060A002E2E
:100D9000060A0024060A001A060A001006090007BF
:100DA000060A00FD050900F4050900EB050900E24B
:100DB000050900D9050900D0050900C7050900BECD
:100DC000050900B5050800AD050800A50509009C4A
:100DD000050800940508008C050800840508007CBF
:100DE000050800740508006C050700650508005D2E
:100DF000050700560508004E050700470507004097
:100E000005080038050700310507002A05070023FB
:100E10000507001C050600160507000F050700085A
:100E200005060002050700FB040600F5040700EEB6
:100E3000040600E8040600E2040700DB040600D50F
:100E4000040600CF040600C9040600C3040600BD62
:100E5000040600B7040600B1040500AC040600A6B1
:100E6000040600A00405009B0406009504050090FC
:100E70000406008A04050085040500800406007A43
:100E800004050075040500700405006B0405006688
:100E9000040500610405005C0405005704050052C8
:100EA0000405004D04050048040500430405003E08
:100EB0000404003A04050035040500300404002C45
:100EC00004050027040400230405001E0404001A7E
:100ED00004040016040500110404000D04040009B4
:100EE0000405000404040000040400FC030400F8EA
:100EF000030400F4030400F0030400EC030400E81E
:100F0000030400E4030400E0030400DC030400D84D
:100F1000030400D4030400D0030400CC030400C87D
:100F2000030300C503030024F404D9201BC40C5C94
:100F30000E9804C4095F0265077101F405F900FB0E
:100F400004B30048048700C1036900580355000337
:100F5000034500BE023A008402310053022A0029F0
:100F600002250004022000E4011C00C8011900AFA2
:100F70000117009801140084011300710110006131
:100F800001100051010E0043010D0036010B002B32
:100F9000010B0020010B00150109000C01090003E1
:100FA000010800FB000800F3000800EB000700E464
:100FB000000600DE000600D8000600D2000600CCC5
:100FC000000500C7000500C2000500BD000400B90F
:100FD000000400B5000400B1000400AD000400A945
:100FE000000400A5000300A20003009F0004009B72
:100FF0000003009800030095000200930003009096
:101000000003008D0002008B0003008800020086B0
:1010100000020084000300810002007F0002007DC6
:101020000002007B000200790002007700010076D8
:101030000002007400020072000100710002006FE3
:101040000002006D0001006C0002006A00010069EE
:1010500000020067000100660001006500010064F5
:101060000002006200010061000100600001005FF9
:101070000002005D0001005C0001005B0001005AFD
:1010800000010059000100580001005700010056FE
:1010900000010055000100540001005300000053FE
:1010A0000001005200010051000100500001004FFA
:1010B0000001004E0000004E0001004D0001004CF8
:1010C0000001004B0000004B0001004A00010049F4
:1010D00000010048000000480001004700010046F0
:1010E00000000046000100450000004500010044EA
:1010F00000010043000000430001004200000042E4
:101100000001004100000041000100400001003FDB
:101110000000003F0001003E0000003E0001003DD5
:101120000000003D0001003C0000003C0000003CCD
:101130000001003B0000003B0001003A0000003AC3
:1011400000010039000000390001003800000038BB
:1011500000000038000100370000003700010036B1
:1011600000000036000000360001003500000035A8
:10117000000000350001003400000034000000349D
:101180000001003300000033000000330001003292
:101190000000003200000032000100310000003188
:1011A000000000310001003000000030000000307D
:1011B0000001002F0000002F0000002F0000002F72
:1011C0000001002E0000002E0000002E0001002D66
:1011D0000000002D0000002D0000002D0001002C5B
:1011E0000000002C0000002C0000002C0001002B4F
:1011F0000000002B0000002B0000002B0001002A43
:101200000000002A0000002A0000002A0001002936
:10121000000000290000002900000029000000292A
:10122000000100280000002800000028000000281D
:101230000000002800010027000000270000002710
:101240000000002700000027000100260000002603
:1012500000000026000000260000002600010025F6
:1012600000000025000000250000002500000025EA
:1012700000000025000100240000002400000024DC
:1012800000000024000000240001002300000023CF
:1012900000000023000000230000002300000023C2
:1012A00000000023000100220000002200000022B4
:1012B00000000022000000220000002200010021A6
:1012C000000000210000002100000021000000219A
:1012D000000000210000002100010020000000208B
:1012E000000000200000002000000020000000207E
:1012F00000000020000000200001001F0000001F6F
:101300000000001F0000001F0000001F0000001F61
:101310000000001F0001001E0000001E0000001E53
:101320000000001E00000039300000332500008757
:10133000190000B00F0000DB080000BD04000074BD
:101340000200003F010000486F6D696E6720666112
:10135000696C6564003C3C3C20646F5F686F6D693C
:101360006E675F6D6F766528005B00290A002C2090
:10137000002C20003E3E3E20646F5F686F6D696EFA
:10138000675F6D6F7665280041424C2041646A7545
:1013900073746D656E74205A002048002057002039
:1013A000590042696C696E656172204772696420F8
:1013B00058002028656E61626C6564290A00202847
:1013C00064697361626C6564290A0042494C494E44
:1013D000454152004175746F20426564204C65762A
:1013E000656C696E673A2000204E6F7A7A6C6529C9
:1013F0000A0020262041626F766500202620536176
:101400006D65205A2061730020262042656C6F773D
:10141000002D4261636B00202852696768740020C8
:101420005A3A0020593A0050726F6265204F666642
:1014300073657420583A004649585F4D4F554E54D5
:1014400045445F50524F42450A0050726F62653A00
:101450002000436F72650A004D616368696E652004
:10146000547970653A20003C3C3C204732380A00F1
:101470005261697365205A20286265666F72652023
:10148000686F6D696E672920746F20003E20656E5D
:101490006473746F70732E656E61626C652874720C
:1014A0007565290A003C3C3C204732380A003E2042
:1014B000686F6D696E67206E6F74206E6565646518
:1014C000642C20736B69700A003E3E3E2047323820
:1014D0000A003C3C3C204732390A0020636F72729C
:1014E0006563746564205A3A0047323920756E632B
:1014F0006F72726563746564205A3A00203A203E28
:101500002070726F62696E6720636F6D706C6574B6
:10151000650A00202063757272656E745F706F7368
:101520006974696F6E3D00202844525952554E2906
:1015300000473239204175746F20426564204C6544
:1015400076656C696E67003F20284C2C522C462C27
:101550004229206F7574206F6620626F756E647308
:101560002E0A003F2856296572626F7365206C65EC
:1015700076656C20697320696D706C617573696242
:101580006C652028302D34292E0A00426164205ACF
:101590002076616C75650A004E6F2062696C696E19
:1015A00065617220677269640A003C3C3C204732E6
:1015B000390A003E204175746F2D6C6576656C208C
:1015C0006E6F74206E65656465642C20736B697042
:1015D0000A004732380A473239003E204E6F7420E5
:1015E000686F6D65642E20456E7175657565696EF1
:1015F000672047323820666F6C6C6F7765642062B5
:1016000079204732390A00203A203E3E3E204732B8
:10161000390A00202063757272656E745F706F7393
:101620006974696F6E3D00000020002300260029C8
:10163000002C002F00320000010000030106010908
:101640000105050505070508080808020202020A47
:101650000A08080404040401010101010101010355
:1016600003030303030303040707070C0C0C0C0C10
:101670000C0C0C0202020206060606060606060B03
:101680000B0B0B0B0B0B0B0102102020080810207A
:1016900040102040800201020108040201010204FE
:1016A00008102040808040201008040201800402BD
:1016B0000180402010080402010804020101020414
:1016C0000810204080010204081020408000000A19
:1016D0000B02090C0D0E08070304010000000000B6
:1016E00000000000000000000000000000000000FA
:1016F00000000000000000000012111000000000B7
:1017000000000000000000000000000000000000D9
:101710000000004B494C4C45442E2000202D204910
:101720006E76616C69642065787472756465722088
:101730006E756D62657220210A002020506C616E0A
:101740006E657242756666657242797465733A2099
:10175000002046726565204D656D6F72793A2000F4
:10176000436F6D70696C65643A204D61722020335F
:1017700020323032300A00207C20417574686F724C
:101780003A20467261636B74616C20576F726B73A1
:101790000A00323032302D30332D30332031393A97
:1017A000343000204C61737420557064617465643A
:1017B0003A20004275696C643A204A313850455FDE
:1017C0003230303330335F313934305F48410A00D2
:1017D000467261636B74616C20576F726B73204A41
:1017E000756C69612050726F204475616C204142B4
:1017F0004C0A00312E312E390A004D61726C696E2F
:101800000020536F6674776172652052657365744A
:101810000A00205761746368646F672052657365BE
:10182000740A002042726F776E206F7574205265C3
:101830007365740A002045787465726E616C20527D
:10184000657365740A00506F77657255700A00738E
:10185000746172740A0020503A00205A3A002059EC
:101860003A0020583A00656E6473746F7073206894
:1018700069743A200020746F6F206C6F6E6720656A
:101880007874727573696F6E2070726576656E74A8
:1018900065640A0020636F6C6420657874727573E8
:1018A000696F6E2070726576656E7465640A006299
:1018B0007573793A2070617573656420666F722064
:1018C000696E7075740A00627573793A207061757B
:1018D00073656420666F7220757365720A006275A5
:1018E00073793A2070726F63657373696E670A006B
:1018F0004B494C4C45442E20004B494C4C206361D5
:101900007573656420627920746F6F206D756368EC
:1019100020696E6163746976652074696D65202D38
:101920002063757272656E7420636F6D6D616E6495
:101930003A20005072696E7465722068616C74653B
:10194000642E206B696C6C28292063616C6C656463
:10195000210A00000020C20080C5430000C8433CAB
:101960003C3C207365745F617869735F69735F6184
:10197000745F686F6D652800203A200A002020639C
:10198000757272656E745F706F736974696F6E3DA6
:10199000005D203D20003E20686F6D655F6F6666CC
:1019A0007365745B003E3E3E207365745F617869C9
:1019B000735F69735F61745F686F6D652800000015
:1019C0004842000048420000A0410000000057616A
:1019D000726E696E673A20486F6D696E6720427556
:1019E0006D702044697669736F72203C20310A0063
:1019F0000202040000A0400000A0400000004000DF
:101A000000B9430080C5430000C8433C3C3C20680B
:101A10006F6D65617869732800203A203E20414649
:101A2000544552207365745F617869735F69735FB1
:101A300061745F686F6D650A00202063757272655E
:101A40006E745F706F736974696F6E3D00486F6D7F
:101A500065203220536C6F773A0A004D6F7665200F
:101A6000417761793A0A00486F6D652031204661FF
:101A700073743A0A00FF01013E3E3E20686F6D65B7
:101A80006178697328006F6B004572726F722077FE
:101A9000726974696E6720746F20454550524F4DCE
:101AA000210A001000600350012C0190012201D096
:101AB00001180110020E0170020401E002FA006038
:101AC00003F0000004E600B004DC00A005D200B082
:101AD00006C8000008BE00A009B400800BAA00D010
:101AE0000DA00090109600C0138C0070178200901B
:101AF0001B780010206E00C0246400E02D50008090
:101B0000353C00A03A2800A03D1400003F0000A092
:101B10003FECFF4572723A204D415854454D5020DC
:101B2000424544004D415854454D502074726967F8
:101B30006765726564004531204572723A204D41F7
:101B40005854454D50004532204572723A204D415F
:101B50005854454D50004572723A204D494E5445F7
:101B60004D5020424544004D494E54454D5020743F
:101B70007269676765726564004531204572723A23
:101B8000204D494E54454D50004532204572723A21
:101B9000204D494E54454D5000202F00204000203C
:101BA00042403A0020403A00000021002400270073
:101BB0002A002D003000330001010000040107015C
:101BC0000A0100002200250028002B002E00310011
:101BD000340002010000050108010B014545505287
:101BE0004F4D206461746173697A65206572726F0C
:101BF000722E0A00290A002062797465733B206303
:101C00007263200053657474696E67732053746F38
:101C1000726564202800290A002062797465733B8C
:101C20002063726320002073746F72656420736593
:101C30007474696E67732072657472696576656421
:101C4000202800202863616C63756C6174656429C9
:101C5000210A0020213D2000454550524F4D204390
:101C60005243206D69736D61746368202D20287361
:101C7000746F7265642920002053697A653A2000E8
:101C8000496E6465783A2000204D61726C696E3D42
:101C9000563535290A0028454550524F4D3D0045DF
:101CA0004550524F4D2076657273696F6E206D6995
:101CB000736D61746368200020746F6F206C6F6EA9
:101CC0006720657874727573696F6E2070726576BF
:101CD000656E7465640A0020636F6C6420657874B7
:101CE000727573696F6E2070726576656E74656467
:101CF0000A00205A3A0020423A0020436F756E7461
:101D000020413A0020453A00205A3A0020593A0032
:101D1000583A003A004361703A00544845524D41E8
:101D20004C5F50524F54454354494F4E0041555417
:101D30004F5245504F52545F53445F535441545592
:101D40005300454D455247454E43595F504152530C
:101D5000455200434153455F4C494748545F425206
:101D6000494748544E45535300544F47474C455FED
:101D70004C494748545300534F4654574152455FCE
:101D8000504F574552004255494C445F50455243CD
:101D9000454E54004C4556454C494E475F444154CE
:101DA00041005A5F50524F4245004155544F4C45F7
:101DB00056454C005052494E545F4A4F42005052D3
:101DC0004F4752455353004155544F5245504F527F
:101DD000545F54454D5000564F4C554D4554524953
:101DE0004300454550524F4D0053455249414C5FC9
:101DF000584F4E5F584F4646004649524D57415244
:101E0000455F4E414D453A4D61726C696E204A31D5
:101E10003850455F3230303330335F313934305FE2
:101E2000484120534F555243455F434F44455F550A
:101E3000524C3A68747470733A2F2F6769746875DE
:101E4000622E636F6D2F61686172736861632F46E4
:101E5000574A756C6961323031384D61726C696E08
:101E60002050524F544F434F4C5F56455253494FA9
:101E70004E3A312E30204D414348494E455F54592A
:101E800050453A4A756C69612050726F2044756103
:101E90006C2041424C2045585452554445525F43B2
:101EA0004F554E543A3220555549443A61353264C3
:101EB000623563342D373535332D343638622D6233
:101EC0006138302D323733663864613965623735B1
:101ED0000A002F2F20002054002052004163636528
:101EE0006C65726174696F6E3A205000496E76615C
:101EF0006C69642065787472756465720A00416368
:101F0000746976652045787472756465723A20004C
:101F1000203A204D6F7665206261636B0A002020B5
:101F200064657374696E6174696F6E3D002C206323
:101F30006F727265637465642063757272656E7426
:101F40005F706F736974696F6E5B5A5F4158495374
:101F50005D3D0046573A2053746F70205A206372DB
:101F60006173682C2065787065637465642063759F
:101F70007272656E745F706F736974696F6E5B5AAD
:101F80005F415849535D3D00207D0A002C20004FE1
:101F9000666673657420546F6F6C2058592062799F
:101FA000207B200046573A204368616E67696E6760
:101FB0002064657374696E6174696F6E5B585F410C
:101FC0005849535D20746F2073746F702063726181
:101FD00073682C2064657374696E6174696F6E5BDD
:101FE000585F415849535D3D002C2073746F705FFA
:101FF000785F63726173683D0046573A20746D7074
:102000005F785F6D6F76653D002C2073746F705F35
:102010007A5F63726173683D0046573A20746D7051
:102020005F7A5F6D6F76653D004E6F206D6F7665F0
:10203000206F6E20746F6F6C6368616E67650A0055
:10204000205A3A200020593A200042656420583A2C
:1020500020005072696E742074696D653A200050DA
:10206000726F7465637465642050696E0A005374FE
:10207000616E6461726420446576696174696F6E33
:102080003A20002052616E67653A2000204D617849
:102090003A2000204D696E3A20004D65616E3A206D
:1020A0000046696E6973686564210A002072616E7A
:1020B00067653A2000206D61783A2000206D696ED6
:1020C0003A2000207369676D613A2000206D6561D8
:1020D0006E3A20003A207A3A2000206F66200020D5
:1020E0005A00205900205800476F696E6720746FAE
:1020F0003A00436C6F636B776973650A00436F75D1
:102100006E7465722D0020446972656374696F6E28
:102110003A2000202020616E676C653A20005374DD
:10212000617274696E67207261646975733A200028
:10213000506F736974696F6E696E6720746865208B
:1021400070726F62652E2E2E0A003F4E756D6265AD
:1021500072206F66206C65677320696E206D6F76E4
:10216000656D656E74206E6F7420706C6175736937
:10217000626C652028302D3135292E0A003F202839
:10218000582C5929206F7574206F6620626F756E08
:1021900064732E0A003F53616D706C652073697A19
:1021A00065206E6F7420706C61757369626C652058
:1021B00028342D3530292E0A004D3438205A2D5020
:1021C000726F6265205265706561746162696C69E5
:1021D000747920546573740A003F28562965726229
:1021E0006F7365206C6576656C20697320696D700E
:1021F0006C61757369626C652028302D34292E0A54
:102200000048617264636F6465642044656661754B
:102210006C742053657474696E6773204C6F6164CD
:1022200065640A00F4010000F401000032000000BF
:102230001027000000009643000096430000A041D4
:10224000000034420000204300002043F0F77B44AC
:1022500000008C433A0A0020286D6D290020204D93
:10226000383531205A005A2D50726F6265204F6602
:10227000667365740020440020490020204D3330EF
:102280003120500020440020490020500020204DE3
:102290003330312045005049442073657474696EB1
:1022A00067733A0A00205A00204A0020204732393A
:1022B000205720490020204D3432302053004175F2
:1022C000746F20426564204C6576656C696E673A70
:1022D0000A00205A0020590020580020204D323199
:1022E00038205400486F74656E64206F66667365AD
:1022F00074733A0A00205A0020590020204D3230D1
:1023000036205800486F6D65206F66667365743AB5
:102310000A00204A0020540020530020204D323073
:1023200035204200204A3C6A756E635F6465763EE4
:1023300000416476616E6365643A20423C6D696E6B
:102340005F7365676D656E745F74696D655F7573E6
:102350003E20533C6D696E5F6665656472617465AD
:102360003E20543C6D696E5F74726176656C5F6689
:10237000656564726174653E00205400205200203F
:10238000204D323034205000416363656C657261CA
:1023900074696F6E2028756E6974732F7332293AD1
:1023A00020503C7072696E745F616363656C3E209F
:1023B000523C726574726163745F616363656C3E05
:1023C00020543C74726176656C5F616363656C3E3A
:1023D0000A00204500205A0020590020204D3230AC
:1023E000312058004D6178696D756D2041636365DA
:1023F0006C65726174696F6E2028756E6974732FD5
:102400007332293A0A00204500205A002059002042
:10241000204D3230332058004D6178696D756D2044
:102420006665656472617465732028756E6974737E
:102430002F73293A0A00204500205A002059002015
:10244000204D3932205800537465707320706572C6
:1024500020756E69743A0A0020204D3230302044D5
:10246000300A0020204D32303020543120440020EA
:10247000204D3230302044002044697361626C6525
:10248000640A0046696C616D656E742073657474CE
:10249000696E67733A002020473231202020203BAC
:1024A000007A5F70726F62653A20007A5F6D6178C2
:1024B0003A2000795F6D61783A2000785F6D696E2F
:1024C0003A20005265706F7274696E6720656E64A1
:1024D00073746F70207374617475730A00FFFDFC70
:1024E000FAF8F6F4F2F0EEECEAE9E7E5E3E1E0DE33
:1024F000DCDAD9D7D5D4D2D0CFCDCBCAC8C7C5C3E3
:10250000C2C0BFBDBCBAB9B7B6B4B3B2B0AFADAC60
:10251000AAA9A8A6A5A4A2A1A09E9D9C9A999897B5
:1025200095949392908F8E8D8B8A898887868483E9
:102530008281807F7E7D7B7A7978777675747372FD
:1025400071706F6E6D6C6B6A6968676665646362F3
:1025500061605F5E5D5C5B5A5958585756555453DD
:10256000525150504F4E4D4C4B4A4A4948474646AF
:10257000454443424241403F3E3E3D3C3B3B3A396D
:10258000383837363535343332323130302F2E2E1D
:102590002D2C2B2B2A2929282727262525242323C0
:1025A00022212120201F1E1E1D1C1C1B1B1A191955
:1025B0001818171616151514131312121111100FDF
:1025C0000F0E0E0D0D0C0C0B0A0A0909080807075F
:1025D00006060505040403030202010000000000D2
:1025E000010000000100008000555555000000402A
:1025F0000033333300AAAA2A0049922400000020A5
:1026000000C7711C0099991900D14517005555153F
:10261000003BB113002449120011111100000010F9
:10262000000F0F0F00E3380E0043790D00CCCC0CE7
:1026300000C3300C00E8A20B0064210B00AAAA0A18
:1026400000703D0A009DD80900427B0900922409D0
:1026500000DCD30800888808001042080000000849
:1026600000F0C107008787070075500700711C073D
:10267000003EEB0600A1BC060069900600666606F7
:1026800000703E06006118060017F4050074D105BD
:10269000005BB00500B2900500627205005555055B
:1026A0000078390500B81E0500050505004EEC044C
:1026B0000087D40400A1BD040090A704004992043F
:1026C00000C17D0400EE690400C7560400444404C0
:1026D000005C3204000821040041100400000004E2
:1026E000003FF00300F8E0030026D20300C3C30359
:1026F00000CCB503003AA803000A9B0300388E0300
:1027000000C08103009F750300D0690300505E0381
:10271000001D53030034480300913D03003333038D
:102720000016290300381F030097150300300C031F
:1027300000030303000BFA020049F10200BAE802A9
:10274000005CE002002DD802002DD0020059C80222
:1027500000B0C0020031B90200DAB10200AAAA0238
:1027600000A0A30200BC9C0200FA9502005C8F024C
:1027700000DF88020082820200457C020027760288
:102780000027700200436A02007C640200D05E02EF
:10279000003F590200C8530200556E6B6E6F776E92
:1027A00020636F6D6D616E643A202200203A203CF8
:1027B0003C3C2072756E5F7A5F70726F62650A00D2
:1027C000202063757272656E745F706F73697469CF
:1027D0006F6E3D002044697363726570616E63794A
:1027E0003A00326E642050726F6265205A3A0020BF
:1027F0003A203C3C3C2072756E5F7A5F70726F626B
:10280000650A00202063757272656E745F706F7365
:102810006974696F6E3D00534C4F572050726F6260
:1028200065206661696C210A003173742050726FF3
:102830006265205A3A00203A203C3C3C2072756E7A
:102840005F7A5F70726F62650A0020206375727232
:10285000656E745F706F736974696F6E3D00464199
:1028600053542050726F6265206661696C210A00C2
:10287000203A203E3E3E2072756E5F7A5F70726F26
:1028800062650A00202063757272656E745F706FF6
:10289000736974696F6E3D003C3C3C2070726F62DE
:1028A000655F70740A0050726F62696E67206661BE
:1028B000696C65640A0050524F42494E475F464179
:1028C000494C45440A00205A3A200020593A200039
:1028D00042656420583A2000203A200A00202063F4
:1028E000757272656E745F706F736974696F6E3D37
:1028F000005F72656C6174697665290A002C20009E
:102900002C20002C20002C20003E3E3E2070726FB8
:1029100062655F707428002066697273740A005AD9
:102920000059005800486F6D6520006563686F3A74
:10293000004572726F723A00424544205448455235
:102940004D414C2052554E415741590054686572D3
:102950006D616C2052756E6177617900453120544C
:102960004845524D414C2052554E41574159004522
:102970003220544845524D414C2052554E4157410A
:1029800059006265640A002C2073797374656D20A8
:1029900073746F7070656421204865617465725F3F
:1029A00049443A20004265642068656174696E6735
:1029B000206661696C65640048656174696E6720B2
:1029C0006661696C65640048656174696E6720665C
:1029D00061696C65640045312048656174696E67A2
:1029E000206661696C6564004532204865617469E0
:1029F0006E67206661696C656400526573656E641C
:102A00003A200000CEB511241FBECFEFD1E2DEBFC9
:102A1000CDBF00E00CBF13E0A0E0B2E0E8E9F4E8CD
:102A200001E00BBF02C007900D92A235B107D9F7A4
:102A30002FE0A2E5B3E001C01D92AA39B207E1F789
:102A400015E1C3E0D5E100E006C021970109802F20
:102A5000FE010E9401C2C230D10780E00807A9F739
:102A60000E94C9AF0C944AC20C9400002F923F926E
:102A70004F925F926F927F928F929F92AF92BF928E
:102A8000CF92DF92EF92FF920F931F93CF93DF933A
:102A9000CDB7DEB7C059D1090FB6F894DEBF0FBE6F
:102AA000CDBF11E010932106809187048D3409F485
:102AB000CAC7843511F40C94FE2D873411F00C94A0
:102AC000572E80918504909186048C31910509F4EC
:102AD0000BC68CF48430910534F48230910594F562
:102AE00097FF29C0ACC78430910509F4C9C54B973D
:102AF00009F4CAC5A4C78A32910509F4FEC55CF47D
:102B00008D31910509F4F5C54E9709F098C70E94DB
:102B1000CC970C94592E8B35910509F4CAC68C3587
:102B2000910509F4CAC68A35910509F088C7109243
:102B300056030C94592E80914F0281110C94672EEC
:102B40000C94592E20914F02222311F40C94592EEB
:102B500011E0029709F010E00E94E34A82E50E942A
:102B6000A435882309F43CC10E942A356B017C01FD
:102B70004090D80D5090D90D6090DA0D7090DB0D1B
:102B80002091DC0D3091DD0D4091DE0D5091DF0D77
:102B90002EA73FA748AB59AB80913F0690914006C6
:102BA000A0914106B09142068AAB9BABACABBDABEA
:102BB00020914306309144064091450650914606C7
:102BC0002AAF3BAF4CAF5DAF20E030E0A901C701B9
:102BD000B6010E949CBA882309F438C5A30192016A
:102BE0006AA97BA98CA99DA90E949CBA81110DC0DC
:102BF0002EA53FA548A959A96AAD7BAD8CAD9DAD69
:102C00000E949CBA882309F421C520E030E0A90184
:102C1000C701B6010E949CBA881F8827881F181315
:102C20000BC080E090E0A0E8BFE32A968CAF9DAF98
:102C3000AEAFBFAF2A970AC020E030E040E85FEBBC
:102C40002A962CAF3DAF4EAF5FAF2A97A3019201FA
:102C50006AA97BA98CA99DA90E9405BF22966CAF89
:102C60007DAF8EAF9FAF22972EA53FA548A959A94A
:102C70006AAD7BAD8CAD9DAD0E9405BF26966CAF55
:102C80007DAF8EAF9FAF269722962CAD3DAD4EAD5A
:102C90005FAD2297CA01B9010E9401BB4B015C01E3
:102CA00026962CAD3DAD4EAD5FAD2697CA01B9015C
:102CB0000E9401BB9B01AC01C501B4010E9406BF8B
:102CC0000E9471C16EAB7FAB88AF99AF20E030E05E
:102CD00040E05FE30E9401BB4B015C01A70196014C
:102CE000C701B6010E9401BB6B017C01A5019401E3
:102CF000C501B4010E9401BB9B01AC01C701B60133
:102D00000E9405BF0E9471C19B01AC012A966CAD67
:102D10007DAD8EAD9FAD2A970E9401BB4B015C013A
:102D20002AA93BA94CA95DA9C301B2010E9406BF13
:102D300020E030E040E05FE30E9401BB6B017C01DA
:102D400026966CAD7DAD8EAD9FAD269790582EA981
:102D50003FA948AD59AD0E94E2BF9B01AC01C5013E
:102D6000B4010E9401BB9B01AC01C701B6010E94E6
:102D700006BFA30192010E9405BF6B017C012AAD31
:102D80003BAD4CAD5DAD6EA57FA588A999A90E940C
:102D900006BF20E030E040E05FE30E9401BB2B0172
:102DA0003C012EA93FA948AD59AD22966CAD7DAD31
:102DB0008EAD9FAD22970E94E2BF9B01AC01C50181
:102DC000B4010E9401BB9B01AC01C301B2010E948E
:102DD00006BF2EA53FA548A959A90E9405BF14C04A
:102DE00089E40E94A435882329F00E942A356B01CA
:102DF0007C0103C0C12CD12C76018AE40E94A43549
:102E00008823D9F00E942A356AAF7BAF8CAF9DAF83
:102E100020E030E0A901C701B6010E949CBA8111EF
:102E20001AC020E030E0A9016AAD7BAD8CAD9DAD4C
:102E30000E949CBA81110FC009C420E030E0A901B2
:102E4000C701B6010E949CBA882309F4FFC31AAED9
:102E50001BAE1CAE1DAED701C601B0588EA79FA7F2
:102E6000A8ABB9AB2AAD3BAD4CAD5DAD50582AAB6C
:102E70003BAB4CAB5DAB9C01AD01BC01CD010E94F5
:102E800001BB4B015C012AA93BA94CA95DA9CA0160
:102E9000B9010E9401BB9B01AC01C501B4010E94B4
:102EA00006BF0E9471C166966CAF7DAF8EAF9FAFBB
:102EB00066978091D80D9091D90DA091DA0DB091BF
:102EC000DB0D8EAB9FABA8AFB9AFA7019601BC01DC
:102ED000CD010E9406BF2A966CAF7DAF8EAF9FAF2B
:102EE0002A972091DC0D3091DD0D4091DE0D50913F
:102EF000DF0D22962CAF3DAF4EAF5FAF22972AADCC
:102F00003BAD4CAD5DAD22966CAD7DAD8EAD9FAD54
:102F100022970E9406BF6A966CAF7DAF8EAF9FAFBF
:102F20006A9780913F0690914006A0914106B0912A
:102F3000420626968CAF9DAFAEAFBFAF26972A96BE
:102F40002CAD3DAD4EAD5FAD2A97BC01CD010E94C9
:102F500005BF6B017C0120914306309144064091EE
:102F60004506509146062E962CAF3DAF4EAF5FAF53
:102F70002E976A962CAD3DAD4EAD5FAD6A972E96FD
:102F80006CAD7DAD8EAD9FAD2E970E9405BF4B0100
:102F90005C018091E00D9091E10DA091E20DB09166
:102FA000E30D62968CAF9DAFAEAFBFAF62979C0151
:102FB000AD01609147067091480680914906909155
:102FC0004A060E9405BF2B013C0120914B0630911F
:102FD0004C0640914D0650914E06A2962CAF3DAF47
:102FE0004EAF5FAFA2978091E40D9091E50DA09157
:102FF000E60DB091E70D6E968CAF9DAFAEAFBFAF53
:103000006E97A70196016EA57FA588A999A90E9430
:1030100001BBA6966CAF7DAF8EAF9FAFA697A50103
:1030200094016AA97BA98CA99DA90E9401BB9B015F
:10303000AC01A6966CAD7DAD8EAD9FADA6970E94FE
:1030400006BFA6966CAF7DAF8EAF9FAFA697A501CA
:1030500094016EA57FA588A999A90E9401BB4B0187
:103060005C01A70196016AA97BA98CA99DA90E9470
:1030700001BB9B01AC01C501B4010E9405BFA6962E
:103080002CAD3DAD4EAD5FADA6970E9479BF6B01F3
:103090007C0120E030E0A9010E949CBA87FF0AC0B1
:1030A0002BED3FE049EC50E4C701B6010E9406BF9A
:1030B0006B017C01112351F02BED3FE049EC50E412
:1030C000C701B6010E9405BF6B017C0120E030E022
:1030D000A901C701B6010E949CBA811126C026969B
:1030E0002CAD3DAD4EAD5FAD26976EA97FA988ADE5
:1030F00099AD0E949CBA811118C02E962CAD3DADA1
:103100004EAD5FAD2E9722966CAD7DAD8EAD9FAD71
:1031100022970E949CBA811108C01BEDC12E1FE0AE
:10312000D12E19ECE12E10E4F12EA701960166963E
:103130006CAD7DAD8EAD9FAD66970E9401BB4B011E
:103140005C0120E030E0A901C301B2010E949CBAF9
:103150008823C9F0A5019401C501B4010E9401BBF7
:103160004B015C01A3019201C301B2010E9401BBAA
:103170009B01AC01C501B4010E9406BF0E9471C150
:103180004B015C010DC020E030E0A901C501B40194
:103190000E942CC187FF04C0B7FAB094B7F8B0946E
:1031A0002FE632E143E85AE3C501B4010E949CBA1C
:1031B00087FF02C00C94592EC501B4010E947BC048
:1031C0000E944FC01B01672B19F422242394312C39
:1031D000B10180E090E00E94A0BA4B015C019B012C
:1031E000AC01C701B6010E94E2BF6EAB7FAB88AFF6
:1031F00099AFA5019401C301B2010E94E2BF669696
:103200006CAF7DAF8EAF9FAF66976E962CAD3DAD28
:103210004EAD5FAD6E97A2966CAD7DAD8EAD9FADA0
:10322000A2970E9405BFA50194010E94E2BFA29649
:103230006CAF7DAF8EAF9FAFA2972EA93FA948ADCF
:1032400059ADCA01B9010E9401BB20E030E040E065
:103250005FE30E9401BB9B01AC0160E070E080E88D
:103260009FE30E9405BF2E966CAF7DAF8EAF9FAFE0
:103270002E9762962CAD3DAD4EAD5FAD629729871E
:103280003A874B875C876E968CAD9DADAEADBFAD7A
:103290006E978D879E87AF87B88B60911B02709168
:1032A0001C02072E000C880B990B0E94A2BA2091D9
:1032B0004B0230914C0240914D0250914E020E94BF
:1032C00001BB2AE037ED43E25CE30E9401BB6AA741
:1032D0007BA78CA79DA70E9453629B01AC0128533A
:1032E0003F4F4F4F5F4F62962CAF3DAF4EAF5FAF3A
:1032F00062974EA45FA468A879A841E050E02496A4
:103300005FAF4EAF249759E15EAF24962EAD3FAD2F
:1033100024972215330509F43EC10E94B7AA0E94E2
:103320005362DC01CB0162962CAD3DAD4EAD5FAD7D
:103330006297821B930BA40BB50BB7FD10C00E94C4
:1033400053629B01AC0128533F4F4F4F5F4F629632
:103350002CAF3DAF4EAF5FAF62970E9403573EADBB
:1033600031503EAF332309F441C02E962CAD3DAD14
:103370004EAD5FAD2E976AA97BA98CA99DA90E942D
:1033800001BB6B017C012EA93FA948AD59ADB2012B
:10339000C3010E9401BBA70196010E9406BF7B01E9
:1033A0008C012E962CAD3DAD4EAD5FAD2E97B2018A
:1033B000C3010E9401BB4B015C012EA93FA948AD8E
:1033C00059AD6AA97BA98CA99DA90E9401BB9B014B
:1033D000AC01C501B4010E9405BF2B013C01C7012E
:1033E000D8018AAB9BABACABBDAB53C024964EAD02
:1033F0005FAD2497BA0180E090E00E94A0BA2EA9A8
:103400003FA948AD59AD0E9401BB4B015C010E9430
:10341000DFBF6B017C01C501B4010E9467C14B0194
:103420005C01A70196016EA57FA588A999A90E94B4
:1034300001BB2B013C01A50194016AAD7BAD8CADB4
:103440009DAD0E9401BB9B01AC01C301B2010E9472
:1034500006BF2B013C01A50194016EA57FA588A99B
:1034600099A90E9401BB4B015C01A70196016AADBD
:103470007BAD8CAD9DAD0E9401BB9B01AC01C50134
:10348000B4010E9405BF6AAB7BAB8CAB9DAB59E12D
:103490005EAF9201A3012A966CAD7DAD8EAD9FAD5E
:1034A0002A970E9406BF69837A838B839C832AA90B
:1034B0003BA94CA95DA96A966CAD7DAD8EAD9FAD63
:1034C0006A970E9406BF6D837E838F839887669676
:1034D0002CAD3DAD4EAD5FAD669769857A858B8528
:1034E0009C850E9406BF69877A878B879C87A296F6
:1034F0002CAD3DAD4EAD5FADA2976D857E858F85C0
:1035000098890E9406BF6D877E878F87988B8091F0
:103510001A02882321F0CE0101960E94FC53E0900C
:1035200020061AA21BA21CA21DA289819A81AB812E
:10353000BC818E8B9F8BA88FB98F8D819E81AF812F
:10354000B8858A8F9B8FAC8FBD8F89859A85AB8517
:10355000BC858E8F9F8FA8A3B9A3AE01425E5F4F3B
:10356000BE01665E7F4FCE0146960E94C283CE01A9
:1035700082966C018E01065D1F4F9E01235F3F4FB7
:10358000AE01425E5F4FBE01665E7F4F0C970E94A8
:10359000D072811151C0E09020061EA21FA218A671
:1035A00019A680913F0690914006A0914106B091E6
:1035B00042068E8B9F8BA88FB98F80914306909186
:1035C0004406A0914506B09146068A8F9B8FAC8F2A
:1035D000BD8F8091470690914806A0914906B09111
:1035E0004A068E8F9F8FA8A3B9A3AE01425E5F4F9C
:1035F000BE01665E7F4FCE0146960E94C283DE0109
:1036000096966D018E01065D1F4F2BE436E0AE01EC
:10361000425E5F4FBE01665E7F4FCE0146960E94BE
:10362000D07280E1EFE3F6E0A8EDBDE001900D92ED
:103630008A95E1F70C94592E2496EEADFFAD2497B0
:1036400031962496FFAFEEAF24975FCEE1E3F9E227
:1036500084918F010F5F1F4F882321F00E947A36DB
:10366000F801F6CFE2EFF1E084918F010F5F1F4F79
:10367000882311F40C94592E0E947A36F801F4CF65
:103680000E94A74A0C94592E0E9474A581110C9493
:10369000592E80E090E0A0E2B1E489839A83AB8365
:1036A000BC8380E090E8A0ECB3E48D839E83AF837D
:1036B000B88780E090E0A0EAB1E489879A87AB8779
:1036C000BC8780E50E94A435882319F00E94FA3453
:1036D00001C060E06E8BBE016F5F7F4FCE014696EA
:1036E0000E9425A20C94592E80E00E947D490C94E2
:1036F000592E0E94344D0C94592E80914F028823EC
:1037000011F40C94592E89E40E94A435182F8823B3
:1037100021F00E94FA34E62E01C0E12C8AE40E94D6
:10372000A435082F882331F00E94FA34F62E1111A7
:1037300004C00BC0F12C1123C1F033E03E1510F092
:103740000C942C34E8E0F2E004C043E04F15D0F3D1
:103750000CC084918F010F5F1F4F882311F40C94CC
:10376000592E0E947A36F801F4CF0E947036112348
:10377000F1F02091730D3091740D5E2D5203B00164
:10378000539F700D11248091FD069091FE06680FE5
:10379000791F072E000C880B990B0E94A2BA609328
:1037A0003F067093400680934106909342060023A3
:1037B000F1F02091750D3091760D4F2D4203B0013F
:1037C000439F700D11242091FF0630910007620F76
:1037D000731F072E000C880B990B0E94A2BA6093EE
:1037E000430670934406809345069093460680E511
:1037F0000E94A4358823E9F00E941B358823A9F193
:103800001123D9F020E030E040E251E460913F061E
:103810007091400680914106909142060E9405BF3A
:1038200060933F0670934006809341069093420652
:1038300004C080E50E945D35E1CF0023B1F020E0B7
:1038400030E040E251E4609143067091440680917B
:103850004506909146060E9405BF6093430670930B
:103860004406809345069093460686E40E94A4355C
:103870008823D9F00E942A356B017C0120E030E0DA
:10388000A9010E942CC1181684F420E030E040E722
:1038900052E4C701B6010E94E2BF60934B027093ED
:1038A0004C0280934D0290934E020E944D5A0C940C
:1038B000592E109356030C94592EF0E62F2EF2E059
:1038C0003F2EA3E3CA2EA6E0DA2EE12CF12C00E075
:1038D00010E0D1018D911D010E94A435882309F4C7
:1038E0004EC00E942A352B013C01133059F0F701DC
:1038F000E851F24F20813181428153810E9405BFFE
:103900002B013C01F701E852F24F208131814281C5
:103910005381C301B2010E9405BF4B015C012DEB35
:1039200037E346E855EB0E942CC187FD0AC02DEB1A
:1039300037E346E855E3C501B4010E949CBA181666
:10394000F4F4133051F44092E40D5092E50D60927E
:10395000E60D7092E70D01E012C0A5019401F60199
:1039600060817181828193810E9406BFD6016D932F
:103970007D938D939C931397812F0E9484361F5FB4
:10398000B4E0CB0ED11CE4E0EE0EF11C143009F0D3
:10399000A0CF002309F44FC020E030E0A9016091DE
:1039A000E40D7091E50D8091E60D9091E70D0E9478
:1039B00006BF20919407309195074091960750914A
:1039C00097070E9401BB0E9437C16093210E70933C
:1039D000220E8093230E9093240E9091FF0D8091E0
:1039E000000E981719F00E94A48225C00E9402833D
:1039F00080916F0081FB992790F981FF05C080912C
:103A00006F008D7F80936F004091210E5091220EA8
:103A10006091230E7091240E4093BC0E5093BD0E06
:103A20006093BE0E7093BF0E992329F080916F00B2
:103A3000826080936F000E94158A0C94592E0E9418
:103A4000C5A80C94592E80918504909186048B39D9
:103A5000910509F404C40CF08CC08936910509F471
:103A6000E3C30CF049C08D34910509F4C2C11CF5C3
:103A70008A32910509F45CC184F48231910509F41C
:103A8000A4C48F31910509F44FC1419711F00C94F2
:103A9000FB2D0E94435A0C94592E8B34910509F446
:103AA0008FC10CF091C1C09711F00C94FB2D0E94B6
:103AB00047920C94592E8335910509F482C464F41D
:103AC0008135910509F475C40CF077C48E349105E5
:103AD00009F493C10C94FB2D8535910509F479C443
:103AE0000CF473C48C35910509F477C488369105BC
:103AF00009F484C20C94FB2D8137910509F468C345
:103B0000B4F48D36910509F4D1C354F48B36910584
:103B100009F43DC40CF41DC4109200020C94592EFB
:103B20008F36910509F4B1C20CF49CC249C38637A3
:103B3000910509F460C46CF48337910509F457C406
:103B40000CF44FC48537910511F40C94592E0C9444
:103B5000FB2D8837910509F456C40CF450C48937FD
:103B6000910509F457C48C38910509F4BDC30C9430
:103B7000FB2D8E32F1E09F0711F40C940F280CF00E
:103B800060C0833D910509F48BC544F58B3C9105DC
:103B900009F44EC474F4883C910509F441C4893C8D
:103BA000910509F441C48E3B910511F00C94FB2D55
:103BB000B9C38D3C910509F443C40CF43DC48E3C5B
:103BC000910511F00C94FB2DB0E6CB2EB2E0DB2E6C
:103BD00015E5E12E14E0F12E10E0A7C4823E910518
:103BE00009F4CCC674F48C3D910509F449C68D3DA9
:103BF000910509F454C68A3D910511F00C94FB2DF2
:103C000030C6883131E0930711F40C94B72664F480
:103C10008031914011F00C94FB2D83E50E945D35BD
:103C2000B82EEBE2F9E2D9C68232A1E09A0711F48C
:103C30000C9461278D32914011F40C946E270C94F2
:103C4000FB2D8C3AE1E09E0709F481C4CCF5813963
:103C500021E0920711F40C94062C9CF4833641E089
:103C6000940711F40C94EA2B803951E0950711F474
:103C70000C94032C8F32914011F00C94FB2D0C947A
:103C800063288A39B1E09B0709F49EC264F4823943
:103C9000914011F00C94FB2D80E00E94D53B0E94D6
:103CA000158A0C94592E843A21E0920711F40C9451
:103CB0000C2C853A914011F40C94C12C0C94FB2DE2
:103CC000873F41E0940711F40C94592D94F4853FFB
:103CD000A1E09A0711F40C94532D14F00C94562D76
:103CE000843F914011F00C94FB2D0E94246E0C94A3
:103CF000592E8335F3E09F0711F40C94862D3CF484
:103D0000883F914011F40C94632D0C94FB2D8B385B
:103D100043E0940711F40C94592E873E934011F41C
:103D20000C94EB2D0C94FB2D0E9492970C94592E21
:103D300083E50E94A435882311F40C94592E0E9427
:103D40000A35E82E80E50E94A435882339F00E94C8
:103D50000A35182F87FF03C00C94592E1DE089E403
:103D60000E94A435882349F00E941B35811111C09F
:103D7000ECE4F3E086E38E0F07C089E40E945D3532
:103D8000F5CF31968E1729F094911913FACF0C9430
:103D9000D93161E0812F0E94E2606E2D812F0E9457
:103DA000B360F12CB701812F0E941E61193011F010
:103DB0000C94592EF0924207E09241070C94592E30
:103DC0000E94A98F0C94592E80914004813011F0EB
:103DD0000C94592E82E0809340040E9453626093B9
:103DE00038047093390480933A0490933B040C9404
:103DF000592E0E9407900C94592E83E50E94A435F9
:103E0000811103C0E5E8F2E009C00E94FA346E3483
:103E10007105C1F70E9477900C94592E84918F01FF
:103E20000F5F1F4F882321F00E947A36F801F6CFEA
:103E3000ECE7F2E084918F010F5F1F4F882321F0A0
:103E40000E947A36F801F6CF6091420470914304E3
:103E500080E090E04AE00E94CA38EFE6F2E0849108
:103E60008F010F5F1F4F882321F00E947A36F801DF
:103E7000F6CF609144047091450480E090E04AE000
:103E80000E94CA38E4E6F2E084918F010F5F1F4F71
:103E9000882321F00E947A36F801F6CF609142041F
:103EA000709143048091440490914504681B790B00
:103EB00080914004815021E030E0823010F020E019
:103EC00030E0621B730B80E090E04AE00E94CA3849
:103ED0008AE00E947A36ECE5F2E084918F010F5F70
:103EE0001F4F882321F00E947A36F801F6CF809187
:103EF000460490914704A0914804B09149048E8BE8
:103F00009F8BA88FB98FBE016F5F7F4FCE01469602
:103F10000E94B035EFE4F2E084918F010F5F1F4FF4
:103F2000811105C0CE0101967C018C0104C00E9464
:103F30007A36F801F1CFD8018D918D01882319F0DF
:103F40000E947A36F8CF80914A0490914B04A09158
:103F50004C04B0914D048E8B9F8BA88FB98FBE01FE
:103F60006F5F7F4FCE0146960E94B035EFE3F2E0DF
:103F700084918F010F5F1F4F882321F00E947A36B2
:103F8000F801F6CFF70181917F01882319F00E9493
:103F90007A36F8CF8AE00E947A36E7E3F2E084913D
:103FA0008F010F5F1F4F882321F00E947A36F8019E
:103FB000F6CFE7E2F2E084918F010F5F1F4F882375
:103FC00021F00E947A36F801F6CF20E030E04AE78F
:103FD00054E460914E0470914F048091500490918C
:103FE00051040E94E2BF42E00E9486398DE60E94A1
:103FF0007A368AE00E947A360C94592E88E690E050
:104000000E94303981110C94592E8091F40D83FF58
:1040100002C00C94592E83E50E94A4358823F1F048
:104020000E942A35F090DC060F2D10E0000F111FC2
:104030000852194F0E944AC0D8016D937C938F2D6E
:104040000E94FE660E942A3520E030E04AEA52E4EF
:104050000E949CBA181614F00E9407900E9483B523
:104060000C94592E8EE40E94A435882311F40C94EC
:10407000592E0E94FA346093F80D7093F90D8093D5
:10408000FA0D9093FB0D0C94592E83E50E945D353B
:10409000882359F083E50E94A435882319F00E94F3
:1040A0000A3501C080E08093F40DEBE2F9E28491DF
:1040B0008F010F5F1F4F882321F00E947A36F8018D
:1040C000F6CFEDE9F2E084918F010F5F1F4F882357
:1040D00021F00E947A36F801F6CF8091F40D882302
:1040E000A1F15DE8C52E52E0D52EE12CF12C20E0A7
:1040F0008091F40D90E00E2C02C0959587950A945E
:10410000E2F780FF17C0BB24B394B20E222319F04C
:104110008CE20E947A36F60125913491F90184915E
:1041200089010F5F1F4F882321F00E947A36980182
:10413000F5CF2B2DFFEFEF1AFF0A32E0C30ED11C93
:1041400046E0E416F104A1F636C0E9E9F2E0849114
:104150008F010F5F1F4F882371F10E947A36F8019B
:10416000F6CF07EB1DE080E20E947A36D8016D9110
:104170007D918D919D918D0142E00E9486398CE266
:104180000E947A36F801648175818681978142E0C8
:104190000E9486398CE20E947A36D8011C966D9175
:1041A0007D918D919C911F9742E00E948639BDE0E0
:1041B0000F3B1B07C1F68AE00E947A360C94592EF9
:1041C00084EA92E00E94D3560E941D880C94592ED6
:1041D00083E50E94A435882369F00E940A358D3357
:1041E00020F480931D020C94592E8CE380931D02C1
:1041F0000C94592EEBE2F9E284918F010F5F1F4F6F
:10420000882321F00E947A36F801F6CF40911D02F2
:1042100050E060E070E08DEA92E00E94128F8AE048
:104220000E947A360C94592E89E690E00E9430392B
:10423000811111C0E4EBF2E084918F010F5F1F4FF9
:10424000882321F00E947A36F801F6CF0E947C6321
:104250008AE00E947A36109221060C94323483E56B
:104260000E94A435882311F40C94592E0E940A351B
:10427000182F8D3308F01CE3109332060E9453620E
:104280006B017C01212F30E0A8EEB3E00E94F6BE66
:10429000C60ED71EE81EF91EC0922E06D0922F061B
:1042A000E0923006F09231060C94592E8DE690E0A3
:1042B0000E94303981110C94592E8091F40D83FFA6
:1042C00002C00C94592E83E50E94A43527968FAF27
:1042D000279781110C946C2E82E50E94A4358111E0
:1042E0000C946C2E0C94592E8091F40D83FF02C017
:1042F0000C94592E83E50E94A435882311F40C9464
:10430000592E0E942A350E944AC06639710514F060
:1043100066E970E07093CF066093CE060E94B466A3
:104320000C94592E8091F40D83FF02C00C94592EE9
:1043300083E50E94A43527968FAF279781110C94AF
:10434000FF2F82E50E94A43581110C94FF2F0C945D
:10435000592E80E50E94A435811106C083E50E9494
:10436000A435882361F006C00E940A3581110C949F
:10437000592EF4CF0E94FA346F3F710510F06FEFA1
:1043800070E070934207609341070C94592E80E5CA
:104390000E94A435811106C0109242071092410775
:1043A0000C94592E0E94FA34672B11F00C94592E5C
:1043B000F3CF0E94008C0C94592E109255030C944C
:1043C000592E109355030C94592E0E94A38B0C94D4
:1043D000592E0E948B8B0C94592E0E94028B0C94A8
:1043E000592E0E9402830E94158A0C94592E0E9415
:1043F000C6890C94592E0E9474890C94592E0E94DF
:1044000044A30C94592E81E080935304809352046A
:104410000C94592E10925304109252040C94592E5D
:104420000E940F890C94592E0E94EB880C94592EEF
:104430000E94C9880C94592E0E9455880C94592EBC
:1044400082E40E945D35882351F00E94EA34609333
:10445000350770933607809337079093380783E5C5
:104460000E945D35882351F00E942A3560933D07F4
:1044700070933E0780933F079093400784E50E9426
:104480005D35882351F00E942A3560933907709377
:104490003A0780933B0790933C078AE40E945D357E
:1044A000882311F40C94592E0E942A356B017C014B
:1044B0002AE037ED43E25CE30E942CC187FD14C083
:1044C0002AE939E949E95EE3C701B6010E949CBACD
:1044D000181654F0C0921507D0921607E0921707ED
:1044E000F09218070C94592EE1E3F9E284918F01C0
:1044F0000F5F1F4F81110EC0EFEBF2E084918F012F
:104500000F5F1F4F882311F40C94592E0E947A36A6
:10451000F801F4CF0E947A36F801E8CF1F5FF4E08B
:10452000EF0EF11C133009F486CAD6018D916D018E
:104530000E945D35882391F30E942A35F70160833C
:10454000718382839383812F0E948436E7CF0E94F8
:1045500074A581110C94592EA3E58A2EA9E19A2EF7
:1045600028ED3DE03FA72EA7AE014F5F5F4F5A01F8
:1045700005E71AE11A0153E0500F5AABF4016591B7
:10458000759185919491AEA5BFA5CD90DD90ED90EC
:10459000FD90BFA7AEA7A70196010E9405BF2B0102
:1045A0003C0120E030E040EA51EC0E942CC187FD44
:1045B00010C020E030E040EA51E4C301B2010E94A3
:1045C0009CBA181634F0F1014082518262827382E3
:1045D0000EC0F80184911816B4F7F7FAF094F7F8C2
:1045E000F094D101CD92DD92ED92FC921397D1011E
:1045F000CD90DD90ED90FD901D0120E030E040EA8F
:1046000051ECC701B6010E942CC187FF03C0E1E352
:10461000F9E20BC020E030E040EA51E4C701B60106
:104620000E949CBA1816CCF4F2CF84918F010F5FD0
:104630001F4F882321F00E947A36F801F6CFEEED65
:10464000F2E084918F010F5F1F4F882311F40C94C7
:10465000592E0E947A36F801F4CFB4E08B0E911CEB
:104660000F5F1F4FEAA9E01389CFF5E5EF2EF4E0C5
:10467000FF2E10E0F50181919191A191B1915F011F
:10468000F70181939193A193B1937F01812F0E94B0
:1046900084361F5F133071F70E94158A0C94592ECF
:1046A000EBE2F9E284918F010F5F1F4F882321F025
:1046B0000E947A36F801F6CF83E50E945D358823A3
:1046C00021F00E941B3580931A02E4E2F3E084910A
:1046D0008F010F5F1F4F882321F00E947A36F80167
:1046E000F6CF80911A02811103C0E0E2F3E002C02C
:1046F000ECE1F3E084918F010F5F1F4F882321F0DD
:104700000E947A36F801F6CFE4E1F3E084918F015C
:104710000F5F1F4F882321F00E947A36F801F6CFF1
:104720002091E80D3091E90D4091EA0D5091EB0D8B
:1047300060914F06709150068091510690915206FB
:104740000E9406BFAB01BC0182E193E00E942F8F63
:104750002091EC0D3091ED0D4091EE0D5091EF0D4B
:1047600060915306709154068091550690915606BB
:104770000E9406BFAB01BC018FE093E00E942F8F27
:104780002091F00D3091F10D4091F20D5091F30D0B
:1047900060915706709158068091590690915A067B
:1047A0000E9406BFAB01BC018CE093E00E942F8FFA
:1047B000E4E0F3E084918F010F5F1F4F882321F025
:1047C0000E947A36F801F6CF2091E80D3091E90D7C
:1047D0004091EA0D5091EB0D60911E0270911F0205
:1047E00080912002909121020E9406BFAB01BC0182
:1047F00082E093E00E942F8F2091EC0D3091ED0D1F
:104800004091EE0D5091EF0D6091220270912302C4
:1048100080912402909125020E9406BFAB01BC0149
:104820008FEF92E00E942F8F2091F00D3091F10DCB
:104830004091F20D5091F30D609126027091270284
:1048400080912802909129020E9406BFAB01BC0111
:104850008CEF92E00E942F8F8AE00E947A360C94AF
:10486000592E8AED90E00E94303981110C94592E16
:104870008091DC06882311F40C94592E0C947F311E
:1048800083E50E94A435882311F40C94592E0E94CC
:10489000FA3470931C0260931B020C94592E8DED18
:1048A00090E00E94303981110C94592E83E50E94CA
:1048B000A4358823D1F10091DC0610E00E94FA347F
:1048C000000F111FF801E35DFD4F7183608380913C
:1048D000DC0690E07C01EE0CFF1CEE0CFF1C870157
:1048E0000F5C1D4F880F991FFC01E35DFD4F608138
:1048F0007181072E000C880B990B0E94A2BA2AE046
:1049000037ED43E25CE30E9401BBF701EC5FF84F37
:1049100020813181428153810E9401BBF801608373
:104920007183828393830C94592EEBE2F9E2849194
:104930008F010F5F1F4F882321F00E947A36F80104
:10494000F6CF85E40E947A368091DC06805D0E9475
:104950007A36E091DC06F0E0EE0FFF1FE35DFD4FDD
:104960006081718184E493E00E944C8F85E20E9413
:104970007A368AE00E947A360C94592E80E50E949D
:104980005D35882311F40C94592E0E94FA346B0182
:104990007C0183E50E94A435882321F00E94FA342B
:1049A0008B0102C00FEF1FEFC8010196039710F0B3
:1049B0000C94592ED7FE02C00C94592E9C2DECE479
:1049C000F3E086E38E0F2491921711F40C94D93101
:1049D00031968E13F8CF0C94DC3184918F010F5FE8
:1049E0001F4F882321F00E947A36F801F6CF6B2DF5
:1049F00070E08EE294E00E944C8F8AE00E947A364A
:104A00000E9474A5882319F081E00E947D49BB2093
:104A100041F01092CB0D1092CC0D1092CD0D109252
:104A2000CE0D20E040E050E060EA71E480E00E94BA
:104A3000FD84EBE2F9E284918F010F5F1F4F882321
:104A400021F00E947A36F801F6CF4091E00D5091A6
:104A5000E10D6091E20D7091E30D8EE194E00E9412
:104A60002F8F8AE00E947A3680E090E0A8E4B2E4DA
:104A700089839A83AB83BC83E090E00DF090E10DD5
:104A80000091E20D1091E30D9E012F5F3F4F6901F0
:104A900020E030E045E453E460E070E089E393E433
:104AA0000E946A3A80E090E0A0EAB1E489839A83A8
:104AB000AB83BC8380E090E0A0E7B1E48E8B9F8B5A
:104AC000A88FB98FB601CE0146960E94983BEBE2C3
:104AD000F9E284918F010F5F1F4F882321F00E941C
:104AE0007A36F801F6CF4091D80D5091D90D6091EA
:104AF000DA0D7091DB0D8EE094E00E942F8F4091D3
:104B0000DC0D5091DD0D6091DE0D7091DF0D89E0BF
:104B100094E00E942F8F4091E00D5091E10D609143
:104B2000E20D7091E30D84E094E00E942F8F8AE003
:104B30000E947A360E94CC970E940283C090E00DBA
:104B4000D090E10DE090E20DF090E30DEBE2F9E2A0
:104B500084918F010F5F1F4F882321F00E947A36C6
:104B6000F801F6CFB701A60183EF93E00E942F8FE3
:104B70008AE00E947A3680E090E0A0EAB1E489837E
:104B80009A83AB83BC8380E090E0A0E7B1E48E8B96
:104B90009F8BA88FB98FBE016F5F7F4FCE01469666
:104BA0000E94983BEBE2F9E284918F010F5F1F4F67
:104BB000882321F00E947A36F801F6CF4091E00D6B
:104BC0005091E10D6091E20D7091E30D83EE93E061
:104BD0000E942F8F8AE00E947A3620E040E050E069
:104BE00060EA71E481E00E94FD84EBE2F9E28491E5
:104BF0008F010F5F1F4F882321F00E947A36F80142
:104C0000F6CF4091E00D5091E10D6091E20D709171
:104C1000E30D83ED93E00E942F8F8AE00E947A36A5
:104C20000E94CC970E9402834090E00D5090E10DCD
:104C30006090E20D7090E30DEBE2F9E284918F0158
:104C40000F5F1F4F882321F00E947A36F801F6CFBC
:104C5000B301A20182EC93E00E942F8F8AE00E94B0
:104C60007A3680E090E0A0EAB1E489839A83AB834E
:104C7000BC8380E090E0A0E7B1E48E8B9F8BA88F8F
:104C8000B98FBE016F5F7F4FCE0146960E94983B61
:104C9000EBE2F9E284918F010F5F1F4F882321F02F
:104CA0000E947A36F801F6CF4091E00D5091E10D67
:104CB0006091E20D7091E30D82EB93E00E942F8FE3
:104CC0008AE00E947A36A7019601C301B2010E94D0
:104CD00006BF6B017C01EBE2F9E284918F010F5F6B
:104CE0001F4F882321F00E947A36F801F6CFB701D2
:104CF000A6018DE993E00E942F8F8AE00E947A3608
:104D0000BB2071F0F7FAF094F7F8F094C092CB0D55
:104D1000D092CC0DE092CD0DF092CE0D0E94246E7B
:104D2000EBE2F9E284918F010F5F1F4F882321F09E
:104D30000E947A36F801F6CF4091CB0D5091CC0D00
:104D40006091CD0D7091CE0D82E893E00E942F8F7F
:104D50008AE00E947A3620E040E050E060EA71E4A8
:104D600080E00E94FD8481E00E947D49A2C780E529
:104D70000E945D35882309F49CC70E94FA346B01B8
:104D80007C018B01672B09F07EC083E50E945D35B5
:104D9000882339F00E94FA3482E99EE00E94E08D77
:104DA00088C7EBE2F9E284917F013FEFE31AF30A4F
:104DB000882321F00E947A36F701F5CF60E070E099
:104DC00083E594E00E944C8F8091940E28E532E0B8
:104DD0006901C81AD10887FDD394CC0CDD1CCC0C1A
:104DE000DD1C0D2C000CEE08FF088091930E28E8C6
:104DF00030E04901881A910887FD9394880C991C2A
:104E0000880C991C092C000CAA08BB088091920EF2
:104E10008F3FB9F090E0FC01EE0FFF1F8E0F9F1F38
:104E2000FC01EB5DF14F01811281E3E0000F111FE6
:104E3000EA95E1F7F4E016950795FA95E1F70E5F2C
:104E40001F4F98012F5F3F4FC901330FAA0BBB0BB8
:104E50009C01AD01281939094A095B09A4EBB0E0AE
:104E60000E94E6BEA7019601281939094A095B0983
:104E70000E94CABEB90180E594E00E944C8F8AE08E
:104E80000E947A3616C7E1E3F9E284918F010F5F41
:104E90001F4F882321F00E947A36F801F6CFB60121
:104EA00089E494E00E944C8FEAE3F4E084918F015E
:104EB0000F5F1F4F882309F4FCC60E947A36F80161
:104EC000F5CF8AE50E94A43581110C94043283E564
:104ED0000E94A43581110C940432EBC685E40E9433
:104EE000A435811110C080E50E945D35882391F0C2
:104EF0000E942A356093C40E7093C50E8093C60E2F
:104F00009093C70E07C00E940A35823060F3E1E338
:104F1000F9E26EC089E40E945D35882381F00E9429
:104F20002A352CEA35EC47E25EE30E9401BB609330
:104F3000C00E7093C10E8093C20E9093C30E84E492
:104F40000E945D35882381F00E942A352CEA35ECD9
:104F500047E25EE30E94E2BF6093C80E7093C90E01
:104F60008093CA0E9093CB0EEBE2F9E284918F010D
:104F70000F5F1F4F882321F00E947A36F801F6CF89
:104F80004091C40E5091C50E6091C60E7091C70E2F
:104F900083E694E00E942F8F2CEA35EC47E25EE333
:104FA0006091C00E7091C10E8091C20E9091C30E9F
:104FB0000E94E2BFAB01BC018FE594E00E942F8FFD
:104FC0002CEA35EC47E25EE36091C80E7091C90EA1
:104FD0008091CA0E9091CB0E0E9401BBAB01BC0127
:104FE0008BE594E00E942F8F8AE00E947A3661C69A
:104FF00084918F010F5F1F4F882321F00E947A3622
:10500000F801F6CFE7E6F4E084918F010F5F1F4FC0
:10501000882309F44EC60E947A36F801F5CF83E55D
:105020000E945D35182F882371F00E942A350E9456
:105030004AC070933A026093390221E0672B09F06D
:1050400020E02093430780E50E945D35882359F0D6
:105050002091390230913A02232B11F00E941B3526
:105060008093430726C6111124C6EBE2F9E284912E
:105070008F010F5F1F4F882321F00E947A36F801BD
:10508000F6CF80914307811103C062E173E002C053
:105090006FE273E08EE894E00E94818F60913902A4
:1050A00070913A028DE794E00E944C8FE9E7F4E0BA
:1050B00084918F010F5F1F4F882309F4FAC50E9466
:1050C0007A36F801F5CF85E40E94A435882321F0D3
:1050D0000E94FA348B0102C000E010E083E40E94D9
:1050E000A435882331F00E94FA34E3966FAFE3973A
:1050F00004C045E0E3964FAFE39785E50E94A435F1
:10510000882319F00E941B3503C085E50E945D3598
:10511000EF968FAFEF9717FD07C0812C912C66E1BA
:10512000A62E63E4B62E06C0812C912C5CE8A52E39
:1051300052E4B52E83E50E94A435882321F00E9415
:105140002A354B015C010230110510F40093DC0696
:105150000E9453622B013C01023068F0ECE5F6E05E
:1051600084918F010F5F1F4F882309F4A2C50E940D
:105170007A36F801F5CFE6E8F6E084916F015FEF4B
:10518000C51AD50A882321F00E947A36F601F5CF98
:1051900027960FAF2797C501B4010E944AC0072E7A
:1051A000000C880B990B0E94A2BA6AAF7EAB8EAF3F
:1051B00023969FAF2397D301C20180549B42AE4FE9
:1051C000BF4FC957DF4F88839983AA83BB83C758D2
:1051D000D0400E945567602F000F770BFB01E95309
:1051E000F94F8FE7808381E080930002EA964CAE0E
:1051F0005DAE6EAE7FAEEA97C158DF4F48825982EE
:105200006A827B82CF57D040E6961FAEE697CD5795
:10521000DF4F188219821A821B82C358D0402B9606
:105220001FAE2B9790E42F969FAF2F97ACE16B9614
:10523000AFAF6B97B6E46396BFAF63976F961FAE41
:105240006F97A3961FAEA397A7961FAEA797A89692
:105250001FAEA897E0961CAE1DAE1EAE1FAEE09727
:10526000AC961CAE1DAE1EAE1FAEAC97C12CD12CA1
:1052700076012FE730E040E050E02AAB3BAB4CAB8F
:105280005DAB3FE7832E912CA12CB12CEE961CAE8A
:105290001DAE1EAE1FAEEE9731E0E5963FAFE5972F
:1052A00068961FAE1EAE689710E0212C312C00E0EE
:1052B000660F771F660F771FAB014053594FE29679
:1052C0005FAF4EAFE297C557DF4FF983E883CB5806
:1052D000D040E3968FADE397082E000C990BE4962F
:1052E0009FAF8EAFE49780910002882309F403C139
:1052F0000E9453626EA77FA788AB99AB8091BE06D0
:10530000882309F4DAC00E942C68E296AEADBFADE6
:10531000E2971C9111962C90119712963C9012973F
:1053200013960C91212F322D432D502F6F966FAD78
:105330006F97A3967FADA397A7968FADA797A896D3
:105340009FADA8970E949CBA87FF0CC06F961FAFB5
:105350006F97A3962FAEA397A7963FAEA797A89651
:105360000FAFA897212F322D432D502F2B966FADC5
:105370002B972F967FAD2F976B968FAD6B9763967C
:105380009FAD63970E942CC1181664F42B961FAF33
:105390002B972F962FAE2F976B963FAE6B976396FA
:1053A0000FAF6397E596BFADE5972AAD3EA94EAD29
:1053B00023965FAD2397612F722D832D902FBB23F2
:1053C00009F460C00E942CC118160CF076C02EA5FE
:1053D0003FA548A959A92419350946095709C357B2
:1053E000DF4F288339834A835B83CD58D040DA016D
:1053F000C90188589341A109B109B7FD5EC0D50123
:10540000C4012AA93BA94CA95DA9821B930BA40B3B
:10541000B50BB595A79597958795C557DF4FE8814B
:10542000F981CB58D0408083C357DF4F2881398121
:105430004A815B81CD58D040EE962CAF3DAF4EAF48
:105440005FAFEE973AAD6F963FAF6F974EA9A396B9
:105450004FAFA3975EADA7965FAFA79723968FAD8B
:105460002397A8968FAFA8972EA53FA548A959A91D
:10547000EA962CAF3DAF4EAF5FAFEA97E5961FAE11
:10548000E5971BC00E949CBA87FF17C08EA59FA5F9
:10549000A8A9B9A9EA962CAD3DAD4EAD5FADEA978E
:1054A000821B930BA40BB50BAC01BD0148585341B3
:1054B0006109710977FD01C0DFC720E030E040EAF3
:1054C00051E46AAD7EA98EAD23969FAD23970E94CD
:1054D00006BF9B01AC01612F722D832D902F0E947E
:1054E0002CC118167CF4E8EEF5E084918F010F5F73
:1054F0001F4F811103C00E945567DBC30E947A369B
:10550000F801F3CF8EA59FA5A8A9B9A9C158DF4F6F
:10551000288139814A815B81CF57D040821B930B10
:10552000A40BB50BB7FDBCC00E947C638AE00E944F
:105530007A368EA59FA5A8A9B9A98053984FAF4FD9
:10554000BF4FC158DF4F88839983AA83BB83CF574E
:10555000D040E6969FADE697911176C0CD57DF4FCC
:10556000288139814A815B81C358D040612F722DD7
:10557000832D902F0E942CC118160CF041C020E002
:1055800030E040E050E4612F722D832D902F0E9477
:1055900006BFCD57DF4F688379838A839B83C358C7
:1055A000D0402EA53FA548A959A920543B424E4FB3
:1055B0005F4FC957DF4F288339834A835B83C758BE
:1055C000D04020E030E040EE50E46AAD7EA98EADE0
:1055D00023969FAD23970E9405BF9B01AC0181E0FC
:1055E000E6968FAFE697612F722D832D902F0E9444
:1055F0002CC118160CF454C0E6961FAEE69750C0A6
:105600008EA59FA5A8A9B9A9C957DF4F28813981BF
:105610004A815B81C758D040821B930BA40BB50B0A
:10562000B7FD3EC027963FAD27973F3F29F0313069
:1056300031F044EC55E005C042EA55E002C046EDC9
:1056400055E065EB75E027C020E030E040EA51E42A
:105650006AAD7EA98EAD23969FAD23970E9405BFAC
:105660009B01AC01612F722D832D902F0E949CBA5B
:1056700087FF16C027964FAD27974F3F29F041303F
:1056800031F04CE755E005C048E555E002C04FE871
:1056900055E06CE675E027968FAD27970E944AAAE1
:1056A0008EA59FA5A8A9B9A9880F991FAA1FBB1FDE
:1056B000EA962CAD3DAD4EAD5FADEA97821B930BE4
:1056C000A40BB50B84199509A609B70981389F4425
:1056D000A241B10568F0EAE3F5E084918F010F5F24
:1056E0001F4F882309F407CF0E947A36F801F5CFBF
:1056F00068964EAD5FAD6897E4968EAD9FADE4972A
:10570000841795070CF0EFCDEDEDF4E084918F0157
:105710000F5F1F4F882321F00E947A36F801F6CFE1
:10572000B701A60189EC94E00E942F8F8AE00E94C5
:105730007A36AC964CAD5DAD6EAD7FADAC9785EB7A
:1057400094E00E942F8F8AE00E947A36E0964CAD5A
:105750005DAD6EAD7FADE09781EA94E00E942F8F42
:105760008AE00E947A36EF969FADEF97992309F46D
:10577000A0C2C092C40ED092C50EE092C60EF092A6
:10578000C70E2CEA35EC47E25EE3AC966CAD7DAD1E
:105790008EAD9FADAC970E9401BB6093C00E70931D
:1057A000C10E8093C20E9093C30E2CEA35EC47E2F3
:1057B0005EE3E0966CAD7DAD8EAD9FADE0970E944F
:1057C000E2BF6093C80E7093C90E8093CA0E909387
:1057D000CB0E6FC2E1E3F9E284918F010F5F1F4F9F
:1057E000882321F00E947A36F801F6CFEAE9F6E044
:1057F00084918F010F5F1F4F882309F45AC20E94C2
:105800007A36F801F5CF0E94028353C281E00E94EC
:10581000D53B0E94158A4DC283E50E945D358823E1
:1058200049F00E941B35082F811106C080E00E94BC
:10583000423D02C0009114078091D80D9091D90D7E
:10584000A091DA0DB091DB0D89839A83AB83BC8381
:105850008091DC0D9091DD0DA091DE0DB091DF0DFA
:105860008D839E83AF83B8878091E00D9091E10D89
:10587000A091E20DB091E30D89879A87AB87BC8731
:105880008091730D9091740D892B71F183E40E94C6
:105890005D35811169C728C093014EA95EAD6A2D9F
:1058A0007F2D8AA99AAD0E9406BF20E030E040E03B
:1058B0005FE30E9401BBA20191010E9406BF2B0180
:1058C0003C012DEB37E346E855EB0E942CC187FDE8
:1058D00097C72DEB37E346E855E3C301B2010E94B9
:1058E0009CBA18160CF48CC786E50E945D35882397
:1058F00041F08091730D9091740D892B11F00E94ED
:1059000036AF802F0E94423D011103C0EBE2F9E265
:1059100010C0809114078111F9CFE7EBF6E0849174
:105920008F010F5F1F4F882389F30E947A36F80199
:10593000F6CF84918F010F5F1F4F882321F00E94C3
:105940007A36F801F6CF80911407811103C06AE11D
:1059500073E002C066E173E089EA96E00E94818FFD
:105960008AE00E947A364CE050E068ED7DE0CE019E
:1059700001960E9409C2892B09F49BC10E94158AD5
:1059800098C189E40E94A435882321F00E94FA344A
:10599000162F01C01FEF8AE40E94A435882321F04E
:1059A0000E94FA34062F01C00FEF8AE50E945D3590
:1059B000F82E811105C081E50E945D35D82E01C009
:1059C000D12C17FD02C007FF03C0E1E3F9E205C0D7
:1059D000F1101AC0D11018C0F8CF84918F010F5F59
:1059E0001F4F882321F00E947A36F801F6CFE5EFA9
:1059F000F6E084918F010F5F1F4F882309F459C18E
:105A00000E947A36F801F5CF143018F0E1E3F9E29C
:105A100006C00430D8F716C00E947A36F801849187
:105A20008F010F5F1F4F8111F7CFE6EDF6E08491F4
:105A30008F010F5F1F4F882309F43BC10E947A3604
:105A4000F801F5CFE12E110FFF08002E000C110B0D
:105A50000E942A35D701AA0FBB1FAA0FBB1FDD204A
:105A600071F0FD01E00FF11FEE0FFF1FEE0FFF1FA2
:105A7000E958F24F208131814281538103C020E0F7
:105A800030E0A9010A0F1B1F000F111F000F111F8B
:105A90000958124F0E9406BFD8016D937D938D93D4
:105AA0009C93139706C10E94186E03C10E94669DC5
:105AB00000C183E50E945D35882311F0BCD78127A2
:105AC0000E94C398F6C081E0809302070E947C6820
:105AD00010920207882309F4ECC0EBE2F9E284910A
