:100000000C94E90D0C941A0E0C941A0E0C941A0E02
:100010000C941A0E0C941A0E0C941A0E0C941A0EC0
:100020000C941A0E0C941A0E0C941A0E0C941A0EB0
:100030000C941A0E0C941A0E0C941A0E0C941A0EA0
:100040000C941A0E0C9495420C941A0E0C941A0EE1
:100050000C941A0E0C941A0E0C944B5B0C9433589F
:100060000C941A0E0C949D180C941A0E0C941A0EE3
:100070000C941A0E0C941A0E0C941A0E0C941A0E60
:100080000C941A0E0C941A0E0C941A0E0C941A0E50
:100090000C941A0E0C941A0E0C941A0E0C941A0E40
:1000A0000C941A0E0C941A0E0C941A0E0C941A0E30
:1000B0000C941A0E0C941A0E0C941A0E0C941A0E20
:1000C0000C941A0E0C941A0E0C941A0E0C941A0E10
:1000D0000C941A0E0C941A0E0C941A0E0C941A0E00
:1000E0000C941A0E9C559F558E5592559855D65581
:1000F000A355A755AD55B155B555BB55BF55C355BE
:10010000D655C955CD55D155B656BB56C056CA560B
:10011000D4564D57DE56E656EE56F85602570C5753
:100120001B5725574D572F5739574357084AD73B29
:100130003BCE016E84BCBFFDC12F3D6C74319ABDB6
:1001400056833DDA3D00C77F11BED9E4BB4C3E91DA
:100150006BAAAABE000000803F05A84CCDB2D44EC9
:10016000B93836A9020C50B9918688083CA6AAAACB
:100170002ABE000000803F004E414E494E4954596E
:10018000494E46CDCCCC3D0AD7233C17B7D1387762
:10019000CC2B329595E6241FB14F0A000020410078
:1001A00000C84200401C4620BCBE4CCA1B0E5AAEC2
:1001B000C59D74434F4D4D554E49434154494F4E93
:1001C0000044525952554E004552524F5253004925
:1001D0004E464F004543484F0047322F4733206279
:1001E000616420706172616D65746572730A0020CC
:1001F0006F6620004D424C2047323920706F696E87
:1002000074200059206F7574206F662072616E67CC
:10021000652028312D32292E0A0058206F75742050
:100220006F662072616E67652028312D32292E0A93
:10023000004D6573682070726F62696E6720646F2D
:100240006E652E0A005374617274206D65736820A8
:1002500070726F62696E6720776974682022473216
:1002600039205331222066697273742E0A00473296
:10027000392053320053746174653A20004D657320
:100280006820626564206C6576656C696E672068BD
:100290006173206E6F20646174612E0A0053206FB9
:1002A0007574206F662072616E67652028302D3569
:1002B000292E0A004D65736820706F696E74206383
:1002C000616E6E6F74206265207265736F6C766507
:1002D000640A005072696E742074696D653A20007A
:1002E000D401CF01C801C101B3016F666600444566
:1002F0004255473A004B494C4C45442E20004D3165
:1003000031332053006F6B0020573A0020573A00DA
:10031000544845524D414C5F50524F544543544907
:100320004F4E004155544F5245504F52545F534425
:100330005F53544154555300454D455247454E4334
:10034000595F50415253455200434153455F4C4918
:100350004748545F4252494748544E45535300540E
:100360004F47474C455F4C494748545300534F460D
:1003700054574152455F504F574552004255494CE2
:10038000445F50455243454E54004C4556454C49F8
:100390004E475F44415441005A5F50524F4245001E
:1003A0004155544F4C4556454C005052494E545FB0
:1003B0004A4F420050524F47524553530041555403
:1003C0004F5245504F52545F54454D5000564F4C7C
:1003D000554D455452494300454550524F4D0053E9
:1003E000455249414C5F584F4E5F584F4646004674
:1003F00049524D574152455F4E414D453A4D61720C
:100400006C696E204A313852585F323030333032A6
:100410005F313833315F484120534F555243455F78
:10042000434F44455F55524C3A68747470733A2F89
:100430002F6769746875622E636F6D2F61686172D2
:10044000736861632F46574A756C69613230313881
:100450004D61726C696E2050524F544F434F4C5F48
:1004600056455253494F4E3A312E30204D41434864
:10047000494E455F545950453A4A756C696120416F
:100480006476616E63656420455854525544455204
:100490005F434F554E543A3120555549443A6236E0
:1004A0003863613064392D363064322D343435632D
:1004B0002D623233342D65393066386164363961E6
:1004C00030380A002F2F20002054002052004163B2
:1004D00063656C65726174696F6E3A2050003F4AC3
:1004E000206F7574206F662072616E6765202830FA
:1004F0002E303120746F20302E33290A0000000086
:10050000000000484300005243546F6F2066617240
:100510002066726F6D207265666572656E63652018
:10052000706F696E740A00FF0101205A00205900A3
:10053000580020204D61783A2000205A00205900B0
:10054000580020204D696E3A20004F6E20004F6603
:100550006600536F667420656E6473746F70733ACF
:10056000200020466C6F773A2000000136372603C2
:10057000FFFFFF353C3D38FF0FFFFF312E303EFFC0
:1005800013FFFFFF28FF0C0809FFFFFF1A1C18FFCD
:10059000FF2A08440AFF4320643A0020693A0020F9
:1005A000703A00496E76616C696420657874727582
:1005B0006465720A0043290A0061626C6564202840
:1005C0006D696E2074656D702000436F6C642065EA
:1005D000787472756465732061726520004E6F20B7
:1005E00063617365206C696768740A004D657368A0
:1005F00020706F696E742063616E6E6F7420626527
:10060000207265736F6C7665640A004D3432312058
:10061000696E636F727265637420706172616D657B
:100620007465722075736167650A00454550524FC5
:100630004D204F4B0A0041637469766520457874FC
:1006400072756465723A2000496E76616C69642047
:1006500065787472756465720A00205A3A002059F0
:100660003A0020583A00656E6473746F70732068A6
:1006700069743A20002569730025696D2025697326
:10068000002569682025696D202569730025696446
:10069000202569682025696D202569730025697901
:1006A00020256964202569682025696D20256973E6
:1006B00000656E7175657565696E672022004C690D
:1006C0006E65204E756D626572206973206E6F7461
:1006D000204C617374204C696E65204E756D6265A7
:1006E000722B312C204C617374204C696E653A205A
:1006F000004B494C4C45442E20005072696E746585
:10070000722073746F707065642064756520746FF7
:10071000206572726F72732E204669782074686546
:10072000206572726F7220616E6420757365204D52
:1007300039393920746F20726573746172742E2098
:100740002854656D706572617475726520697320D7
:1007500072657365742E2053657420697420616618
:100760007465722072657374617274696E67290AA8
:10077000004E6F20436865636B73756D20776974F5
:1007800068206C696E65206E756D6265722C204CF8
:10079000617374204C696E653A2000636865636B11
:1007A00073756D206D69736D617463682C204C6185
:1007B0007374204C696E653A20004D313130002051
:1007C000496E76616C6964206578747275646572CF
:1007D00020000000000000000000000000000000F9
:1007E00048430000484300005243486F6D696E67FC
:1007F000206661696C656400206E6F7420656E749C
:10080000657265642E0A0050726F74656374656466
:100810002050696E0A0046696C616D656E742075C2
:100820007365643A200053746174733A20002C207D
:100830004C6F6E67657374206A6F623A2000546F64
:1008400074616C2074696D653A200053746174732F
:100850003A20002C204661696C65643A20002C2007
:1008600046696E69736865643A20005072696E74F7
:10087000733A200053746174733A200020746F6FD0
:10088000206C6F6E6720657874727573696F6E2067
:1008900070726576656E7465640A0020636F6C64BF
:1008A00020657874727573696F6E207072657665F5
:1008B0006E7465640A00627573793A2070617573AD
:1008C000656420666F7220696E7075740A006275C7
:1008D00073793A2070617573656420666F72207554
:1008E0007365720A00627573793A2070726F63657E
:1008F0007373696E670A004B494C4C45442E2000C7
:100900004B494C4C20636175736564206279207497
:100910006F6F206D75636820696E616374697665B9
:100920002074696D65202D2063757272656E742068
:10093000636F6D6D616E643A20005072696E74650C
:10094000722068616C7465642E206B696C6C282958
:100950002063616C6C6564210A002020506C616E1C
:100960006E657242756666657242797465733A2087
:10097000002046726565204D656D6F72793A2000E2
:10098000436F6D70696C65643A204D61722020324E
:1009900020323032300A00207C20417574686F723A
:1009A0003A20467261636B74616C20576F726B738F
:1009B0000A00323032302D30332D30322031383A87
:1009C000333100204C617374205570646174656428
:1009D0003A20004275696C643A204A313852585FB7
:1009E0003230303330325F313833315F48410A00C2
:1009F000467261636B74616C20576F726B73204A2F
:100A0000756C696120416476616E6365640A0031CA
:100A10002E312E390A004D61726C696E0020536FC1
:100A20006674776172652052657365740A00205799
:100A300061746368646F672052657365740A00208F
:100A400042726F776E206F75742052657365740AF9
:100A5000002045787465726E616C20526573657410
:100A60000A00506F77657255700A00737461727472
:100A70000A0000004842000048420000A041000077
:100A800000005761726E696E673A20486F6D696E3B
:100A9000672042756D702044697669736F72203CDF
:100AA00020310A000202040000A0400000A0400023
:100AB0000000400000484300004843000052434506
:100AC00072726F722077726974696E6720746F201A
:100AD000454550524F4D210A0020286D6D290020B8
:100AE000440020490020204D33303120500050492F
:100AF000442073657474696E67733A0A00205A0063
:100B0000205900202047323920533320580020201C
:100B10004D3432302053004D6573682042656420A7
:100B20004C6576656C696E673A0A00205A00205958
:100B30000020204D323036205800486F6D65206F00
:100B400066667365743A0A00204A002054002053F8
:100B50000020204D323035204200204A3C6A756E1C
:100B6000635F6465763E00416476616E6365643AF6
:100B700020423C6D696E5F7365676D656E745F746E
:100B8000696D655F75733E20533C6D696E5F666588
:100B90006564726174653E20543C6D696E5F747269
:100BA0006176656C5F66656564726174653E0020A0
:100BB000540020520020204D323034205000416338
:100BC00063656C65726174696F6E2028756E6974F7
:100BD000732F7332293A20503C7072696E745F61D2
:100BE0006363656C3E20523C726574726163745F2E
:100BF000616363656C3E20543C74726176656C5F22
:100C0000616363656C3E0A00204500205A0020594C
:100C10000020204D3230312058004D6178696D75CB
:100C20006D20416363656C65726174696F6E202825
:100C3000756E6974732F7332293A0A0020450020BB
:100C40005A0020590020204D3230332058004D6189
:100C500078696D756D206665656472617465732071
:100C600028756E6974732F73293A0A002045002095
:100C70005A0020590020204D393220580053746505
:100C800070732070657220756E69743A0A002020B6
:100C90004D3230302044300A0020204D3230302098
:100CA00044002044697361626C65640A0046696CA3
:100CB000616D656E742073657474696E67733A0054
:100CC0002020473231202020203B007A5F6D617860
:100CD0003A2000795F6D61783A2000785F6D696E27
:100CE0003A20005265706F7274696E6720656E6499
:100CF00073746F70207374617475730A000A4D65A4
:100D000061737572656420706F696E74733A0A005E
:100D10005A206F66667365743A20004E756D2058D0
:100D20002C593A20322C320A0024F4D43050C38E8D
:100D300020C2A24017828B7011127A910D816CD95A
:100D40000AA861E108C7586607615143061E4B5D5A
:100D500005C145A7041A411104093D9803713931B1
:100D6000034036DB0265339102D4305402802E1DDD
:100D700002632CEE01752AC501B028A0011027815D
:100D8000018F2564012B244B01E0223401AC211F8B
:100D9000018D200D01801FFC00841EED00971DDFDA
:100DA00000B81CD200E61BC600201BBC00641AB2AF
:100DB00000B219A8000A19A0006A189900D1179169
:100DC0000040178B00B516840031167E00B31579EC
:100DD000003A157300C7146F0058146A00EE1366CA
:100DE000008813630025135E00C7125B006C125766
:100DF0000015125400C111510070114F0021114B08
:100E000000D61049008D10470046104400021042E1
:100E100000C00F4000800F3E00420F3C00060F3B19
:100E200000CB0E3800930E37005C0E3500270E34D1
:100E300000F30D3200C10D3100900D3000600D2E19
:100E400000320D2D00050D2C00D90C2B00AE0C2905
:100E500000850C29005C0C2700350C27000E0C26A1
:100E600000E80B2400C40B2400A00B23007D0B23FF
:100E7000005A0B2100390B2100180B2000F80A1F23
:100E800000D90A1E00BB0A1E009D0A1D00800A1D13
:100E900000630A1C00470A1B002C0A1B00110A1AD7
:100EA00000F7091A00DD091900C4091900AB091976
:100EB00000920917007B091800630917004C0916F6
:100EC0000036091600200916000A091500F5081554
:100ED00000E0081400CC081400B8081400A408149A
:100EE00000900813007D0812006B081300580812C8
:100EF00000460812003408110023081100120811DE
:100F00000001081100F0071000E0071000D00710E2
:100F100000C0071000B0070F00A107100091070ED6
:100F20000083070F0074070F0065070E0057070EB8
:100F30000049070E003B070D002E070E0020070D8D
:100F40000013070D0006070D00F9060C00ED060D55
:100F500000E0060C00D4060C00C8060C00BC060C11
:100F600000B0060C00A4060B0099060C008D060BC1
:100F70000082060B0077060B006C060B0061060A68
:100F80000057060B004C060A0042060A0038060A03
:100F9000002E060A0024060A001A060A0010060996
:100FA0000007060A00FD050900F4050900EB050924
:100FB00000E2050900D9050900D0050900C70509A7
:100FC00000BE050900B5050800AD050800A5050926
:100FD000009C050800940508008C0508008405089D
:100FE000007C050800740508006C0507006505080D
:100FF000005D050700560508004E05070047050778
:10100000004005080038050700310507002A0507DC
:1010100000230507001C050600160507000F05073D
:10102000000805060002050700FB040600F504079A
:1010300000EE040600E8040600E2040700DB0406F4
:1010400000D5040600CF040600C9040600C3040648
:1010500000BD040600B7040600B1040500AC040698
:1010600000A6040600A00405009B040600950405E4
:1010700000900406008A040500850405008004062B
:10108000007A04050075040500700405006B040572
:101090000066040500610405005C040500570405B2
:1010A00000520405004D04050048040500430405F2
:1010B000003E0404003A0405003504050030040431
:1010C000002C04050027040400230405001E04046A
:1010D000001A04040016040500110404000D0404A1
:1010E00000090405000404040000040400FC0304D7
:1010F00000F8030400F4030400F0030400EC03040C
:1011000000E8030400E4030400E0030400DC03043B
:1011100000D8030400D4030400D0030400CC03046B
:1011200000C8030300C503030024F404D9201BC432
:101130000C5C0E9804C4095F0265077101F405F99F
:1011400000FB04B30048048700C10369005803553D
:101150000003034500BE023A008402310053022A14
:10116000002902250004022000E4011C00C8011926
:1011700000AF0117009801140084011300710110E1
:10118000006101100051010E0043010D0036010BFA
:10119000002B010B0020010B00150109000C0109B7
:1011A0000003010800FB000800F3000800EB000743
:1011B00000E4000600DE000600D8000600D20006AB
:1011C00000CC000500C7000500C2000500BD0004FA
:1011D00000B9000400B5000400B1000400AD000433
:1011E00000A9000400A5000300A20003009F000462
:1011F000009B000300980003009500020093000389
:1012000000900003008D0002008B000300880002A4
:10121000008600020084000300810002007F0002BB
:10122000007D0002007B00020079000200770001CF
:1012300000760002007400020072000100710002DA
:10124000006F0002006D0001006C0002006A0001E6
:1012500000690002006700010066000100650001EE
:1012600000640002006200010061000100600001F2
:10127000005F0002005D0001005C0001005B0001F6
:10128000005A0001005900010058000100570001F8
:1012900000560001005500010054000100530000F9
:1012A00000530001005200010051000100500001F4
:1012B000004F0001004E0000004E0001004D0001F3
:1012C000004C0001004B0000004B0001004A0001EF
:1012D00000490001004800000048000100470001EB
:1012E00000460000004600010045000000450001E6
:1012F00000440001004300000043000100420000E0
:1013000000420001004100000041000100400001D6
:10131000003F0000003F0001003E0000003E0001D1
:10132000003D0000003D0001003C0000003C0000CA
:10133000003C0001003B0000003B0001003A0000BF
:10134000003A0001003900000039000100380000B7
:1013500000380000003800010037000000370001AD
:1013600000360000003600000036000100350000A5
:10137000003500000035000100340000003400009A
:10138000003400010033000000330000003300018E
:101390000032000000320000003200010031000085
:1013A000003100000031000100300000003000007A
:1013B00000300001002F0000002F0000002F00006F
:1013C000002F0001002E0000002E0000002E000162
:1013D000002D0000002D0000002D0000002D000158
:1013E000002C0000002C0000002C0000002C00014C
:1013F000002B0000002B0000002B0000002B000140
:10140000002A0000002A0000002A0000002A000133
:101410000029000000290000002900000029000028
:10142000002900010028000000280000002800001A
:10143000002800000028000100270000002700000D
:101440000027000000270000002700010026000000
:1014500000260000002600000026000000260001F3
:1014600000250000002500000025000000250000E8
:1014700000250000002500010024000000240000D9
:1014800000240000002400000024000100230000CC
:1014900000230000002300000023000000230000C0
:1014A00000230000002300010022000000220000B1
:1014B00000220000002200000022000000220001A3
:1014C0000021000000210000002100000021000098
:1014D0000021000000210000002100010020000088
:1014E000002000000020000000200000002000007C
:1014F000002000000020000000200001001F00006C
:10150000001F0000001F0000001F0000001F00005F
:10151000001F0000001F0001001E0000001E000050
:10152000001E0000001E000000043700001E2900FD
:1015300000511B00005810000010090000CC0400EE
:101540000078020000410100006265640A002C205E
:1015500073797374656D2073746F70706564212086
:101560004865617465725F49443A200042656420B1
:1015700068656174696E67206661696C65640048BE
:10158000656174696E67206661696C6564004531E8
:101590002048656174696E67206661696C656400E6
:1015A00048656174696E67206661696C65640045B1
:1015B0004550524F4D206461746173697A652065AE
:1015C00072726F722E0A00290A00206279746573A4
:1015D0003B20637263200053657474696E677320E7
:1015E00053746F726564202800290A0020627974A0
:1015F00065733B2063726320002073746F726564AF
:101600002073657474696E6773207265747269659E
:10161000766564202800202863616C63756C6174B2
:10162000656429210A0020213D2000454550524F84
:101630004D20435243206D69736D61746368202DA2
:10164000202873746F7265642920002053697A65BD
:101650003A2000496E6465783A2000204D61726C32
:10166000696E3D563535290A0028454550524F4D83
:101670003D00454550524F4D2076657273696F6E3F
:10168000206D69736D6174636820004861726463E2
:101690006F6465642044656661756C74205365747D
:1016A00074696E6773204C6F616465640A00E803B7
:1016B0000000E803000032000000102700000000D6
:1016C0004843000048430000A041000034420000AD
:1016D000204300002043F0F77B4400008C431000BF
:1016E000600350012C0190012201D0011801100269
:1016F0000E0170020401E002FA006003F000000431
:10170000E600B004DC00A005D200B006C800000866
:10171000BE00A009B400800BAA00D00DA00090105C
:101720009600C0138C0070178200901B7800102068
:101730006E00C0246400E02D500080353C00A03ACB
:101740002800A03D1400003F0000A03FECFF4B49E3
:101750004C4C45442E2000202D20496E76616C694A
:1017600064206578747275646572206E756D62654B
:101770007220210A004531204572723A204D4158AD
:1017800054454D50004572723A204D415854454DD4
:101790005020424544004D415854454D50207472EC
:1017A00069676765726564004531204572723A2049
:1017B0004D494E54454D50004572723A204D494EA8
:1017C00054454D5020424544004D494E54454D50DE
:1017D0002074726967676572656400202F0020427B
:1017E000403A0020403A0000002100240027002A4F
:1017F000002D003000330001010000040107010A40
:101800000100002200250028002B002E00310034AA
:101810000002010000050108010B01000020002367
:1018200000260029002C002F0032000001000003D8
:101830000106010901050505050705080808080254
:101840000202020A0A080804040404010101010159
:101850000101010303030303030303040707070C48
:101860000C0C0C0C0C0C0C020202020606060606FE
:101870000606060B0B0B0B0B0B0B0B0102102020AB
:1018800008081020401020408002010201080402D4
:10189000010102040810204080804020100804024A
:1018A00001800402018040201008040201080402A3
:1018B00001010204081020408001020408102040A9
:1018C0008000000A0B02090C0D0E0807030401003A
:1018D0000000000000000000000000000000000008
:1018E00000000000000000000000000000121110C5
:1018F00000000000000000000000000000000000E8
:1019000000000000000000205A3A0020423A002067
:10191000436F756E7420413A0020453A00205A3AD0
:101920000020593A00583A003A004361703A0023C7
:10193000646566696E652044454641554C545F4B6D
:1019400064200023646566696E6520444546415500
:101950004C545F4B69200023646566696E652044C2
:10196000454641554C545F4B70200050494420413E
:1019700075746F74756E652066696E6973686564E9
:10198000212050757420746865206C617374204B3D
:10199000702C204B6920616E64204B6420636F6E55
:1019A0007374616E74732066726F6D2062656C6F04
:1019B0007720696E746F20436F6E66696775726118
:1019C00074696F6E2E680A00504944204175746F27
:1019D00074756E65206661696C6564212074696D3B
:1019E000656F75740A00453120544845524D414C8D
:1019F0002052554E4157415900546865726D616CD3
:101A00002052756E617761790045312048656174B7
:101A1000696E67206661696C656400486561746918
:101A20006E67206661696C656400504944204175A9
:101A3000746F74756E65206661696C6564212054ED
:101A4000656D706572617475726520746F6F206862
:101A50006967680A00204B643A2000204B693A20ED
:101A600000204B703A20000A20436C617373696355
:101A700020504944200A002054753A2000204B751C
:101A80003A2000206D61783A2000206D696E3A207E
:101A90000020643A200020626961733A20005049B6
:101AA00044204175746F74756E65206661696C655C
:101AB00064212042616420657874727564657220C7
:101AC0006E756D6265720A00504944204175746FED
:101AD00074756E652073746172740A0042656420C7
:101AE0004C6576656C696E6720004661696C65645B
:101AF00020746F20656E61626C6520426564204CC5
:101B00006576656C696E670A004D6573682042658D
:101B100064204C6576656C20646174613A0A0052F9
:101B20006573656E643A20006F6B0020746F6F20E0
:101B30006C6F6E6720657874727573696F6E207054
:101B4000726576656E7465640A0020636F6C64204C
:101B5000657874727573696F6E2070726576656EE4
:101B60007465640A00556E6B6E6F776E20636F6DDF
:101B70006D616E643A2022002066697273740A00F7
:101B80005A0059005800486F6D6520006563686F02
:101B90003A004572726F723A0045312054484552FE
:101BA0004D414C2052554E41574159004245442029
:101BB000544845524D414C2052554E4157415900D1
:101BC000546865726D616C2052756E617761790041
:101BD000008511241FBECFEFD1E2DEBFCDBF00E0F4
:101BE0000CBF12E0A0E0B2E0E6E0F2E201E00BBFE1
:101BF00002C007900D92A83FB107D9F72DE0A8EFDA
:101C0000B2E001C01D92AA30B207E1F71DE0C9EEB3
:101C1000DDE000E006C021970109802FFE010E944F
:101C2000B890C83ED10780E00807A9F70E94516A22
:101C30000C9401910C94000080919F0C9091A00C49
:101C4000891759F0E92FF0E0E15EF34F80819F5F43
:101C50009F779093A00C90E008958FEF9FEF0895E9
:101C6000FF920F931F93CF93DF93FC0120812B33BF
:101C700019F1D091B805D430F8F4F62EBC01C0911A
:101C8000C2050C2F10E0F0E6CF9FC00111248A5C42
:101C90009B4F0E94E190F801E759F94FF082CF5F26
:101CA000C43018F4C093C20502C01092C205DF5FB1
:101CB000D093B80581E001C080E0DF91CF911F9102
:101CC0000F91FF900895CF9320E030E0A90160913B
:101CD0001C0470911D0480911E0490911F040E94A9
:101CE0007889811130C020E030E0A90160912004A2
:101CF0007091210480912204909123040E9478899C
:101D0000811121C020E030E0A9016091240470918C
:101D1000250480912604909127040E947889C1E0CF
:101D2000811112C020E030E0A90160912804709177
:101D3000290480912A0490912B040E9478898111B2
:101D400003C0C0E001C0C1E08C2FCF910895CF93B4
:101D500090912E048917C9F0C82F0E94A635C11191
:101D600012C04FEC53E06BEC73E087EC93E00E9401
:101D7000653680E080932E04882339F087EC93E069
:101D8000CF910C944B369FDFF5CFCF910895CF9232
:101D9000DF92EF920F931F93CF93DF93CDB7DEB710
:101DA00060970FB6F894DEBF0FBECDBFE0902D0454
:101DB000E7ECF3E080859185A285B3854481558168
:101DC00066817781008111812281338109831A83A1
:101DD0002B833C834D835E836F83788789879A87C3
:101DE000AB87BC871D861E861F86188AAE01475F9B
:101DF0005F4FBE016B5F7F4FCE0101960E9465363B
:101E0000CE010D966C0102E012E023ED33E0AE014D
:101E1000475F5F4FBE016B5F7F4F0C970E943B1A7D
:101E200060960FB6F894DEBF0FBECDBFDF91CF91A5
:101E30001F910F91EF90DF90CF9008954F925F9296
:101E40006F927F928F929F92AF92BF92CF92DF92CA
:101E5000EF92FF920F931F93CF93DF93CDB7DEB72F
:101E60002C970FB6F894DEBF0FBECDBF6D837E8377
:101E70008F83988729873A874B875C87470158016A
:101E800036018091020290910302A0910402B09168
:101E9000050289839A83AB83BC83D601CD90DD9004
:101EA000ED90FC9020E030E0A901C701B6010E944E
:101EB0007889811106C0EAE7FAE0C590D590E590EF
:101EC000F490A50194016091CF037091D0038091AB
:101ED000D1039091D2030E94788987FF11C0C092EC
:101EE0000202D0920302E0920402F0920502809274
:101EF000CF039092D003A092D103B092D20347DFD8
:101F0000F301408051806280738020E030E0A901BD
:101F1000C301B2010E947889811107C085E5482E6E
:101F2000542C85E0682E83E4782E40920202509271
:101F3000030260920402709205028D819E81AF813E
:101F4000B8858093C7039093C803A093C903B09347
:101F5000CA0389859A85AB85BC858093CB03909312
:101F6000CC03A093CD03B093CE0311DFA501940160
:101F70006091CF037091D0038091D1039091D203EF
:101F80000E94E68F18168CF4C0920202D0920302CF
:101F9000E0920402F09205028092CF039092D00367
:101FA000A092D103B092D203F2DE0E94A6358981BD
:101FB0009A81AB81BC818093020290930302A0932B
:101FC0000402B09305022C960FB6F894DEBF0FBE44
:101FD000CDBFDF91CF911F910F91FF90EF90DF90D8
:101FE000CF90BF90AF909F908F907F906F905F90B9
:101FF0004F900895CF92DF92EF92FF920F931F932D
:102000006B01FC01E080F18002811381E7ECF3E0D9
:1020100024813581468157816081718182819381DC
:102020000DDF1F910F91FF90EF90DF90CF900895FB
:102030000F931F93CF93DF9394E0899FE0011124C6
:102040008E0109521C4FFE01E554FC4FDE01A85CD5
:10205000BC4F2D913D914D915C9160817181828148
:1020600093810E94C08DF801608371838283938382
:10207000FE01EE52F84F85919591A591B491FE0124
:10208000ED51FC4F80839183A283B383FE01E25222
:10209000F84F85919591A591B491C95FDD4F8883E3
:1020A0009983AA83BB83DF91CF911F910F910895EC
:1020B0000F931F93CF93DF93CDB7DEB72C970FB657
:1020C000F894DEBF0FBECDBFE7ECF3E080859185CD
:1020D000A285B38544815581668177810081118114
:1020E0002281338109831A832B833C834D835E8352
:1020F0006F83788789879A87AB87BC87AE01475FF4
:102100005F4FBE016B5F7F4FCE0101960E94653627
:1021100023ED33E0AE01475F5F4FBE016B5F7F4F42
:10212000CE0101960E949E2A2C960FB6F894DEBF2F
:102130000FBECDBFDF91CF911F910F9108952F92C8
:102140003F924F925F926F927F929F92AF92BF9217
:10215000CF92DF92EF92FF920F931F93CF93DF9373
:10216000CDB7DEB764970FB6F894DEBF0FBECDBF14
:102170002A013B01902EA12E6901082F10E0F801E1
:10218000E95DFA4FE491BB24B3941E160CF4B12C14
:10219000FF24F39420E030E0A901C301B2010E94C2
:1021A000E68F18160CF0F12C000F111F000F111FF5
:1021B000C80189539C4F1C01FC01108211821282BC
:1021C000138276DFF1014082518262827382E09055
:1021D0002D0420E030E0A901692D7A2DC6010E946E
:1021E0007889811108C0F801EE58F54F85919591D5
:1021F000A591B49103C0892D9A2DD601898B9A8B14
:10220000AB8BBC8B8091CF039091D003A091D10375
:10221000B091D2034091CB035091CC036091CD0398
:102220007091CE030091C7031091C8032091C90398
:102230003091CA0309831A832B833C834D835E83C9
:102240006F83788789879A87AB87BC871D861E86B0
:102250001F86188AAE01475F5F4FBE016B5F7F4FDD
:10226000CE0101960E946536CE010D966C018E015D
:102270000F5E1F4F23ED33E0AE01475F5F4FBE019E
:102280006B5F7F4F0C970E943B1A0E94A635BF14CC
:1022900059F08091B605882319F01092B60504C054
:1022A0008AEE97E00E94533164960FB6F894DEBF31
:1022B0000FBECDBFDF91CF911F910F91FF90EF9097
:1022C000DF90CF90BF90AF909F907F906F905F9086
:1022D0004F903F902F9008958091C0059091C10537
:1022E000009731F04AE050E060E070E00C94CC8759
:1022F00060E070E0CB0108958091C0059091C10528
:10230000009731F04AE050E060E070E00C94A48661
:1023100060E070E0CB010895EFDF97FD0AC0ECDFCD
:102320006F3F71058105910509F02CF4E5DF862FDB
:10233000089580E008958FEF08958091C0059091F1
:10234000C105892B31F0E8DF91E0811103C090E0F5
:1023500001C091E0892F08950F931F93CF9380912F
:10236000C0059091C1050097F1F0FC018F01C1916A
:102370002C2F2F7D89F0C53411F0C536B9F7F8013F
:10238000108260E070E00E943E85F801C083562F05
:10239000472F382F292F0BC060E070E0CF911F919D
:1023A0000F910C943E8550E040E030E020E0652F36
:1023B000742F832F922FCF911F910F9108958154E5
:1023C0008A3108F041C0A82FB0E04091120350912B
:1023D0001303609114037091150304C076956795FB
:1023E000579547958A95D2F740FF2EC0E091BA0CD9
:1023F000F091BB0CA850BD4F8C918823E9F0E80FF9
:10240000F11D808190ED980F9A3098F08E3211F482
:1024100081810CC08D3211F08B3271F4818190ED8D
:10242000980F9A3030F08E3239F4828180538A309E
:1024300018F49E2F8F2F02C090E080E09093C0058B
:102440008093C10581E0089580E00895B8DF882376
:1024500041F081E02091C0053091C105232B09F4A2
:1024600080E00895AF92BF92CF92DF92EF92FF92F9
:102470000F931F93CF93DF938AE3A82E82E0B82EA9
:1024800098E1E92E93E0F92E07EC13E027EDC22E38
:1024900023E0D22EC0E0D0E0F50181915F018FDF13
:1024A000882319F159DFFE01E15DFB4F20812111E5
:1024B00004C020913304222341F0F80120813181AE
:1024C000428153810E94C08D0AC0C330D10539F0CA
:1024D000F60120813181428153810E94BF8DF70135
:1024E00060837183828393830AC0F8018081918124
:1024F000A281B381F70180839183A283B383219664
:10250000F4E0EF0EF11C0C5F1F4F84E0C80ED11CED
:10251000C430D10509F0C0CF86E498DF8823B9F034
:102520001BDF20E030E0A9010E94E68F18167CF442
:1025300013DF20E030E040E752E40E949C8E60937D
:10254000020270930302809304029093050280912B
:10255000350483FD2AC06091240370912503809186
:102560002603909127032091D3033091D403409107
:10257000D5035091D603E0913E06EE23B1F00E94C0
:10258000BF8D9B01AC0160914F0670915006809108
:102590005106909152060E94C08D60934F06709331
:1025A00050068093510690935206DF91CF911F9170
:1025B0000F91FF90EF90DF90CF90BF90AF90089574
:1025C0004F925F926F927F92AF92BF92CF92DF92C3
:1025D000EF92FF92CF93DF93EB01FC016081718159
:1025E000828193812CE3C22ED12CE12CF12CA70106
:1025F00096010E94848DB62EA72ECA01B901A701AB
:1026000096010E94848D6B017C01CA01B90128E109
:1026100030E040E050E00E94848D2B013C01C90174
:102620006DE671E00E94889061157105D9F0AF9256
:10263000BF92DF92CF925F924F929F938F937F933F
:102640006F938DE996E09F938F93DF93CF930E94D2
:1026500049898DB79EB70E960FB6F8949EBF0FBEF0
:102660008DBF61C00097C9F0AF92BF92DF92CF9249
:102670005F924F929F938F938DE896E09F938F93F5
:10268000DF93CF930E944989EDB7FEB73C960FB612
:10269000F894FEBF0FBEEDBF46C041145104610463
:1026A0007104B9F0AF92BF92DF92CF925F924F92D6
:1026B00081E896E09F938F93DF93CF930E9449899F
:1026C0008DB79EB70A960FB6F8949EBF0FBE8DBF0A
:1026D0002AC0C114D104E104F104A9F0AF92BF9261
:1026E000DF92CF9289E796E09F938F93DF93CF930A
:1026F0000E944989EDB7FEB738960FB6F894FEBF31
:102700000FBEEDBF10C0AF92BF9285E796E09F93DA
:102710008F93DF93CF930E9449890F900F900F9072
:102720000F900F900F90DF91CF91FF90EF90DF907F
:10273000CF90BF90AF907F906F905F904F90089533
:1027400080E1E7ECF3E0A8E1B3E001900D928A9517
:10275000E1F708958F929F92AF92BF92FF920F93ED
:102760001F93CF93DF9300D01F921F92CDB7DEB798
:10277000182F9091FA039770973051F48FE466DE2A
:10278000882311F0DADD02C08FE419DE8111AFC0B9
:102790000E94A63580E0DBDA80910202909103026C
:1027A000A0910402B091050280932A0690932B0613
:1027B000A0932C06B0932D068091140290911502DF
:1027C000909329068093280684E690E09093150262
:1027D0008093140281E080937903111115C088E57C
:1027E000EEDDF82E89E5EBDD082F8AE5E8DDF11056
:1027F00006C001110FC081110EC0F02E09C00023C8
:1028000049F0F02E182F07C0FF24F39401E081E077
:1028100011E001C010E08D8393DF8D81111102C0A2
:10282000882319F082E00E94A12D82E50FDE882323
:1028300081F192DD4B015C0120E030E0A9010E94B2
:102840007889882331F1111104C0F11002C00023EE
:1028500079F18092200390922103A0922203B092FA
:1028600023032091CF033091D0034091D1035091A5
:10287000D203C501B4010E94E68F181654F41982E0
:102880001A821B821C82BE016F5F7F4F80E293E041
:10289000B1DB111105C0011103C0F11006C008C061
:1028A00081E00E94A12D1123C1F380E00E94A12D9F
:1028B000FFDB809178038093790380912A069091C1
:1028C0002B06A0912C06B0912D06809302029093C6
:1028D0000302A0930402B093050280912806909110
:1028E000290690931502809314020E94B0650F9000
:1028F0000F900F900F900F90DF91CF911F910F913C
:10290000FF90BF90AF909F908F90089591E090932B
:1029100068069091C00095FFFCCF8093C600089593
:10292000CF93DF93E2E9FBE18491EF0121968823C5
:1029300019F0ECDFFE01F8CFE7E0F8E08491EF0159
:102940002196882319F0E2DFFE01F8CFDF91CF91C5
:102950000895CF93DF93E8EFF7E08491EF0121969C
:10296000882319F0D3DFFE01F8CFDF91CF910895CE
:10297000BF92CF92DF92EF92FF920F931F93CF936C
:10298000DF93CDB7DEB76E970FB6F894DEBF0FBEFC
:10299000CDBF60911603709117036115710551F158
:1029A0004DE150E0CE0101967C010E9420891E8EEF
:1029B000F7018F010E191F09B190BB2021F19AE098
:1029C000B912F7CF20C0B70181EB96E00E94254AEB
:1029D00082E29CDF8AE09ADFBB2051F10F5F1F4F3C
:1029E0008091160390911703080F191F1093170376
:1029F0000093160381E02091160330911703232BD7
:102A0000D1F480E018C0F701E00FF11F108260E000
:102A1000C70126D9882371F3ECE8FBE184916F01AB
:102A20009FEFC91AD90A882371F270DFF601F6CF39
:102A300000E010E0DBCF6E960FB6F894DEBF0FBE5D
:102A4000CDBFDF91CF911F910F91FF90EF90DF905D
:102A5000CF90BF9008958F929F92AF92BF92CF92E6
:102A6000DF92EF92FF920F931F93CF93DF9380DF5C
:102A7000811128C18091B805843008F023C1DCD8C9
:102A8000AC0197FD1FC1982F2091BD0C3091BE0C59
:102A90008A3019F09D3009F0E3C010922706211505
:102AA000310519F40E946940E5CFF901E953FA4F65
:102AB00010821092BE0C1092BD0C27EC35E0E9019B
:102AC00088812F5F3F4F8032D1F38E018E3409F021
:102AD00086C0209709F483C06AEB77E0CE010E949C
:102AE0002F89FF24F394892B11F4F12C09C06EE493
:102AF00070E0CE0104960E94CD90009709F0EC01A1
:102B00004AE050E060E070E0CE0101960E94A486A9
:102B10006093C3057093C4058093C5059093C60563
:102B20008090BF0C9090C00CA090C10CB090C20CD3
:102B30002FEF821A920AA20AB20A681579058A054D
:102B40009B0529F0F11003C08EEB96E02AC06AE2E3
:102B500070E0C8010E94F6909C01009701F1982F47
:102B6000901BC0E0992339F09150F801E90FF11D55
:102B70008081C827F7CF4AE050E060E070E0C901EB
:102B800001960E94A486CC2ED12CE12CF12C6C1540
:102B90007D058E059F0599F08BE997E002C081E7DE
:102BA00097E0DF91CF911F910F91FF90EF90DF9011
:102BB000CF90BF90AF909F908F900C946C69809154
:102BC000C3059091C405A091C505B091C605809339
:102BD000BF0C9093C00CA093C10CB093C20C809119
:102BE0001E0281111BC067E470E0C8010E94CD90F5
:102BF0000097A1F04AE050E060E070E001960E948A
:102C0000A4866430710550F4EAEFF6E08491EF0198
:102C10002196882319F07ADEFE01F8CF6AED72E082
:102C2000C8010E94D890892B11F410921F026FEDF9
:102C300072E0C8010E94D890892B21F481EF96E0C0
:102C40000E94533164EE72E0C8010E94D890892B33
:102C500011F40E94F76061E087EC95E001D80ACF9B
:102C60002F3531050CF006CF9C35C1F40E941C0EA7
:102C700097FD00CF209127062111FCCE2091BD0C9D
:102C80003091BE0CA9014F5F5F4F5093BE0C409333
:102C9000BD0CF901E953FA4F8083ECCE9B3319F454
:102CA00081E080932706809127068111E3CEC90138
:102CB00001969093BE0C8093BD0CF901E953FA4F35
:102CC0004083D8CEDF91CF911F910F91FF90EF906D
:102CD000DF90CF90BF90AF909F908F9008958F928C
:102CE0009F92AF92BF92EF92FF921F93CF93DF9389
:102CF000CDB7DEB7A0970FB6F894DEBF0FBECDBF3D
:102D0000611571058105910579F110E0842E912CF2
:102D1000A12CB12CEE24E394F12CEC0EFD1EE10E5F
:102D2000F11C17FDFA94A50194010E94848DF7010E
:102D30006083B901CA011F5F6115710581059105A5
:102D400049F7115010F1E1E0F0E0EC0FFD1FE10F49
:102D5000F11D17FDFA9580818A3010F097E301C0CC
:102D600090E3890FD3DDEDCF80E3A0960FB6F89402
:102D7000DEBF0FBECDBFDF91CF911F91FF90EF90CF
:102D8000BF90AF909F908F90C1CDA0960FB6F89452
:102D9000DEBF0FBECDBFDF91CF911F91FF90EF90AF
:102DA000BF90AF909F908F900895EF92FF920F93F6
:102DB0001F93CF93DF937C0184E548DBD82F8823D2
:102DC00021F1AADAC82F1816E4F4ECE8FBE18491AB
:102DD0008F010F5F1F4F882319F098DDF801F7CF9F
:102DE0008DE494DDB70180E090E04AE078DF6C2F5D
:102DF000CC0F770B8FEB97E00E940C4A8AE086DDC0
:102E000008C08093F303D0E004C080912D04809328
:102E1000F3038D2FDF91CF911F910F91FF90EF90D2
:102E20000895CF92DF92EF92FF926B017C0197FFA2
:102E30000AC08DE26BDDF094E094D094C094C11C84
:102E4000D11CE11CF11C4AE0C701B601FF90EF90D4
:102E5000DF90CF9044CF8F929F92AF92BF92CF924C
:102E6000DF92EF92FF92CF936B017C01B42E20E0B2
:102E700030E0A9010E94788987FF06C08DE246DD17
:102E8000F7FAF094F7F8F094C0E060E070E080E0CA
:102E90009FE3CB1541F02DEC3CEC4CEC5DE30E9444
:102EA000DD89CF5FF6CF9B01AC01C701B6010E945F
:102EB000C08D6B017C010E94098F4B015C014AE0CF
:102EC0000EDFCC2379F1C501B4010E947C899B01FE
:102ED000AC01C701B6010E94BF8D6B017C018EE27F
:102EE00015DD20E030E040E251E4C701B6010E9468
:102EF000DD894B015C010E94048F6B01770FEE08A6
:102F0000FF08C701B6018DDFC701B6010E947E89A7
:102F10009B01AC01C501B4010E94BF8D6B017C0116
:102F2000C150F9F6CF91FF90EF90DF90CF90BF9016
:102F3000AF909F908F900895EF92FF920F931F9301
:102F4000CF93DF93CDB7DEB769970FB6F894DEBFA6
:102F50000FBECDBF83E57ADA811103C0E4E7F8E064
:102F600006C0CAD96E347105C9F7DFD1D9C08491C2
:102F70008F010F5F1F4F882319F0C8DCF801F7CFCE
:102F8000EBE6F8E084918F010F5F1F4F882319F063
:102F9000BDDCF801F7CF609143067091440680E0F4
:102FA00090E04AE09CDEEEE5F8E084918F010F5F4F
:102FB0001F4F882319F0AADCF801F7CF609145066E
:102FC0007091460680E090E04AE089DEE3E5F8E0B3
:102FD00084918F010F5F1F4F882319F097DCF80150
:102FE000F7CF609143067091440680914506909119
:102FF0004606681B790B80914803815021E030E040
:10300000823010F020E030E0621B730B80E090E033
:103010004AE065DE8AE07ADCEBE4F8E084918F0137
:103020000F5F1F4F882319F071DCF801F7CF8091F3
:10303000470690914806A0914906B0914A068E8BAA
:103040009F8BA88FB98FBE016F5F7F4FCE014696D1
:10305000B7DAEEE3F8E084918F010F5F1F4F811123
:1030600005C0CE0101967C018C0103C04FDCF80144
:10307000F2CFF80181918F01882311F047DCF9CF5D
:1030800080914B0690914C06A0914D06B0914E0652
:103090008E8B9F8BA88FB98FBE016F5F7F4FCE0144
:1030A00046968EDAEEE2F8E084918F010F5F1F4FB3
:1030B000882319F02BDCF801F7CFF70181917F010C
:1030C000882311F023DCF9CF8AE020DCE6E2F8E087
:1030D00084918F010F5F1F4F882319F017DCF801CF
:1030E000F7CFE6E1F8E084918F010F5F1F4F88234F
:1030F00019F00CDCF801F7CF20E030E04AE754E4A7
:1031000060914F0670915006809151069091520641
:103110000E949C8E42E09FDE8DE6F8DB8AE0F6DBC3
:1031200069960FB6F894DEBF0FBECDBFDF91CF9189
:103130001F910F91FF90EF9008951F920F920FB67D
:103140000F9211240BB60F922F938F939F93EF93AF
:10315000FF932091A00CE0919F0C81E08E0F8F7760
:103160009091C600821729F0F0E0E15EF34F908362
:10317000E82FE0939F0CFF91EF919F918F912F91FA
:103180000F900BBE0F900FBE0F901F901895CF930E
:10319000C0914803C13009F446C0C23059F40E94BE
:1031A000C34160936D0B70936E0B80936F0B909384
:1031B000700B18C01092710B1092720B1092730B5F
:1031C0001092740B10924403109245031092460320
:1031D0001092470310926D0B10926E0B10926F0BB2
:1031E0001092700B81E0809348030E9427586093EF
:1031F000710B7093720B8093730B9093740BC230AE
:10320000A1F0809143069091440601969093440664
:103210008093430610923F0610924006109241069A
:103220001092420602C080E001C081E0CF91089573
:1032300080913E06882341F040E150E063E370E076
:1032400083E496E00C94468D0895CF92DF92EF923E
:10325000FF920F931F93809148038150823010F0AA
:1032600080E05CC0109248030E942758609344039A
:1032700070934503809346039093470380914506DE
:103280009091460601969093460680934506C0901D
:103290003F06D0904006E0904106F09042060E9422
:1032A000C34160933F06709340068093410690931C
:1032B0004206009147061091480620914906309138
:1032C0004A060C191D092E093F09DC01CB01800FAC
:1032D000911FA21FB31F8093470690934806A093A7
:1032E0004906B0934A060E94C34100914B061091D3
:1032F0004C0620914D0630914E06061717072807F9
:10330000390750F40E94C34160934B0670934C06FA
:1033100080934D0690934E068BDF81E01F910F91B5
:10332000FF90EF90DF90CF90089581E080933E066C
:10333000E3E4F6E080E1DF011D928A95E9F778DFAA
:1033400066E182E390E00C94678D86E438D8809340
:10335000F80B882349F000D8609328027093290263
:1033600080932A0290932B0283E529D8882351F079
:103370000E94AC1160932402709325028093260270
:103380009093270282E41BD8882351F00E94AC114D
:103390006093200270932102809322029093230273
:1033A00008958F929F92AF92BF92CF92DF92EF9249
:1033B000FF920F931F93CF93DF9300D01F92CDB74F
:1033C000DEB78FE7882E83E0982E9BEFA92E93E03F
:1033D000B92E08E613E0C12CD12C7601C394F40178
:1033E00061917191819191914F01F50121913191FB
:1033F000419151915F0129833A834B835C830E9401
:103400007C8929813A814B815C810E94DD890E94FF
:10341000098FF80161937193819391938F01C6167F
:10342000D706E806F90610F46B017C01FFE88F1659
:10343000F3E09F06A1F66FEF7FEFCB01A7019601A6
:103440000E94848D2093640630936506409366063F
:10345000509367060F900F900F900F90DF91CF91D0
:103460001F910F91FF90EF90DF90CF90BF90AF90A2
:103470009F908F9008952F923F924F925F926F92FC
:103480007F928F929F92AF92BF92CF92DF92EF92F4
:10349000FF920F931F93CF93DF93CDB7DEB7C7593A
:1034A000D1090FB6F894DEBF0FBECDBFE091FE0B81
:1034B000F091FF0BEF2B11F00C944E24AE96DFAE83
:1034C000CEAEAE976596EFAE659779016A015B0166
:1034D000FC012091FB033091FC034091FD035091CE
:1034E000FE0360817181828193810E94DD890E9447
:1034F000F18FC557DF4F688379838A839B83CB58CD
:10350000D0402091FF03309100044091010450917C
:103510000204D5016D917D918D919C910E94DD8970
:103520000E94F18FC157DF4F688379838A839B8321
:10353000CF58D040209103043091040440910504F9
:1035400050910604F60160817181828193810E940D
:10355000DD890E94F18FCD56DF4F688379838A839E
:103560009B83C359D04020910704309108044091B7
:10357000090450910A04D7016D917D918D919C9120
:103580000E94DD890E94F18FE7966CAF7DAF8EAF10
:103590009FAFE7978091350483FF0EC0E796CCACD0
:1035A000DDACEEACFFACE797C092E80CD092E90C32
:1035B000E092EA0CF092EB0CD801BC912496BFAFDC
:1035C0002497F801F1812896FFAF2897D801129629
:1035D000BC912C96BFAF2C97F801F3816196FFAF99
:1035E00061978091C60C9091C70C891B8F708F30AA
:1035F00019F40E948331F5CFC090C60CC956DF4F35
:10360000C882C759D0408091C60C282E312C809199
:10361000DC0C9091DD0CA091DE0CB091DF0CC55755
:10362000DF4FC880D980EA80FB80CB58D040C81AD1
:10363000D90AEA0AFB0A6096CCAEDDAEEEAEFFAE6A
:1036400060978091E00C9091E10CA091E20CB09118
:10365000E30CC157DF4FC880D980EA80FB80CF5888
:10366000D040C81AD90AEA0AFB0A6C96CCAEDDAE85
:10367000EEAEFFAE6C978091E40C9091E50CA091BA
:10368000E60CB091E70CCD56DF4F488059806A8038
:103690007B80C359D040481A590A6A0A7B0A809134
:1036A000E80C9091E90CA091EA0CB091EB0CE79634
:1036B000CCACDDACEEACFFACE797C81AD90AEA0A8D
:1036C000FB0A09F49AC060914E0370914F038091F8
:1036D00050039091510320911B04211130C00E948E
:1036E000048F20911C0230911D02621773073CF574
:1036F000E796CCACDDACEEACFFACE797C092E80C43
:10370000D092E90CE092EA0CF092EB0CECE8FBE1D1
:1037100084918F010F5F1F4F882319F0F7D8F801AC
:10372000F7CFEBE9F8E084918F010F5F1F4F8823FB
:1037300019F0ECD8F801F7CFC12CD12C7601C701D4
:10374000B6010E947E8965963FAD659724E0329F61
:10375000F0011124EA5EFD4F2081318142815381C5
:103760000E94DD894B015C0120E030E0A9010E944C
:10377000E68F87FF04C0B7FAB094B7F8B0946091B1
:103780000704709108048091090490910A040E9432
:10379000048F9B01AC01A8ECB0E00E94A68D0E94B2
:1037A0007E899B01AC01C501B4010E94E68F181609
:1037B0003CF5E796CCACDDACEEACFFACE797C09245
:1037C000E80CD092E90CE092EA0CF092EB0CECE8F9
:1037D000FBE184918F010F5F1F4F882319F096D86A
:1037E000F801F7CFECE7F8E084918F010F5F1F4FEE
:1037F000882319F08BD8F801F7CFC12CD12C760192
:1038000060968CAD9DADAEADBFAD60978827B7FD1E
:1038100083959927AA27BB27182F1295107F6C969E
:103820002CAD3DAD4EAD5FAD6C9757FD106277FC92
:10383000146060968CAC9DACAEACBFAC60976C96DF
:103840008CAD9DADAEADBFAD6C97880E991EAA1E16
:10385000BB1EB7FC116060962CAD3DAD4EAD5FADAB
:1038600060976C968CAD9DADAEADBFAD6C97281BCF
:10387000390B4A0B5B0B23962CAF3DAF4EAF5FAFBE
:10388000239757FD1260F7FC1860C701B6010E942C
:103890007E896596CFAC6597A4E0CA9EF00111249D
:1038A000EA5EFD4F20813181428153810E94DD8992
:1038B000A0966CAF7DAF8EAF9FAFA09720E030E0B9
:1038C000A9010E94E68F87FF08C0A0966CAD7DAD70
:1038D0008EAD9FADA097905806C0A0966CAD7DAD03
:1038E0008EAD9FADA09720E030E040E05FE30E9406
:1038F000C08D0E94098FAC966CAF7DAF8EAF9FAF2D
:10390000AC978DE4829DF001839DF00D1124E25768
:10391000F94F108216AB95018401B7FE07C000274E
:1039200011279801081919092A093B098DE4829D7C
:10393000F001839DF00D1124E257F94F058B168B92
:10394000278B308F23964CAD5DAD6EAD7FAD239749
:1039500077FF07C070956095509541955F4F6F4F09
:103960007F4F8DE4829DF001839DF00D1124E2577D
:10397000F94F418F528F638F748F7301620177FE0D
:1039800007C0CC24DD247601C418D508E608F70862
:10399000EDE4E29DC001E39D900D1124FC01E2578E
:1039A000F94FC58ED68EE78EF0A2AC968CAD9DAD4C
:1039B000AEADBFADAC9781A392A3A3A3B4A3A196D0
:1039C0000FAFA197A5961FAFA597F22FE32F04176E
:1039D00015072607370740F4A1964FAFA197A59684
:1039E0005FAFA597F62FE72FA1968FADA197A5966C
:1039F0009FADA597AF2FBE2F8C159D05AE05BF05BA
:103A000010F4D701C601AC96CCACDDACEEACFFAC8B
:103A1000AC978C159D05AE05BF0510F4D701C60106
:103A2000FDE4FF2EF29CF001F39CF00D1124E2570F
:103A3000F94F85A396A3A7A3B0A70697A105B10543
:103A400008F425C7DF01A95BBF4F80915E03909109
:103A50005F038D939C936596DFAC6597D1A6012B90
:103A6000022B032B21F4452B462B472B11F05F989B
:103A70008A988DE4829DF001839DF00D1124E25718
:103A8000F94F858D968DA78DB0A1892B8A2B8B2B15
:103A900029F080910801817080930601AC96CCAC2E
:103AA000DDACEEACFFACAC97CD28CE28CF2809F426
:103AB000F7C680916306882319F0815080936306CE
:103AC0006596DFAC6597D11004C0129880E28093B0
:103AD0006306E090B303F090B4030091B503109136
:103AE000B6039701A80124966FAD249728967FAD61
:103AF00028972C968FAD2C9761969FAD61970E9469
:103B0000788987FF0CC02496EFAE24972896FFAEE5
:103B100028972C960FAF2C9761961FAF6197C09096
:103B20002E06D0902F06E0903006F0903106689671
:103B3000CCAEDDAEEEAEFFAE689760966CAD7DADFF
:103B40008EAD9FAD60970E947E89A70196010E946D
:103B5000DD8960966CAF7DAF8EAF9FAF6097698B4C
:103B60007A8B8B8B9C8BC0903206D0903306E09082
:103B70003406F0903506A896CCAEDDAEEEAEFFAEC4
:103B8000A8976C966CAD7DAD8EAD9FAD6C970E9485
:103B90007E89A70196010E94DD896B017C016D8BF6
:103BA0007E8B8F8B988FC301B2010E947E892091FA
:103BB00036063091370640913806509139060E94FA
:103BC000DD89A4966CAF7DAF8EAF9FAFA497698758
:103BD0007A878B879C87C501B4010E947E8968968D
:103BE0002CAD3DAD4EAD5FAD68970E94DD89E3968B
:103BF0006CAF7DAF8EAF9FAFE39769837A838B8382
:103C00009C8323966CAD7DAD8EAD9FAD23970E94B6
:103C10007E89A8962CAD3DAD4EAD5FADA8970E94B4
:103C2000DD89EB966CAF7DAF8EAF9FAFEB976D8369
:103C30007E838F83988720913A0630913B0640918E
:103C40003C0650913D06A0966CAD7DAD8EAD9FAD0E
:103C5000A0970E94DD89A0966CAF7DAF8EAF9FAF1D
:103C6000A0976D877E878F87988B8DE4829DF0016A
:103C7000839DF00D1124E257F94F458856886788D7
:103C8000708C26E0421651046104710408F018C6D5
:103C9000818D928DA38DB48D0697A105B10508F095
:103CA0000FC6858D968DA78DB0A10697A105B1058C
:103CB00008F006C620E030E0A901A0966CAD7DAD0D
:103CC0008EAD9FADA0970E94E68F87FFF2C5A096AC
:103CD0008CAD9DADAEADBFADA097B0582DE4229D8B
:103CE000F001239DF00D1124E257F94F8587968747
:103CF000A787B08B8DE4829DF001839DF00D112488
:103D0000E257F94FC584D684E784F088A896CCAEF4
:103D1000DDAEEEAEFFAEA897A701960160E070E0C1
:103D200080E89FE30E949C8E60966CAF7DAF8EAF63
:103D30009FAF60979B01AC0124966FAD24972896A6
:103D40007FAD28972C968FAD2C9761969FAD61978C
:103D50000E94DD894B015C018091C60C9091C40CDE
:103D6000891B8F70AF968FAFAF97A501940160E06C
:103D700074E284E799E40E949C8E0E94F18F6B01AB
:103D80007C01AF968FADAF978250863008F4EFC5B7
:103D9000A5019401A8966CAD7DAD8EAD9FADA897A1
:103DA0000E94DD899B01AC010E94DD89EF966CAF1A
:103DB0007DAF8EAF9FAFEF978DE4829D8001839D95
:103DC000100D11240257194FEF96CCACDDACEEACC0
:103DD000FFACEF97D8011196CD92DD92ED92FC9257
:103DE00014979596CD90DD90ED90FC909897649601
:103DF000CCAEDDAEEEAEFFAE6497C701B6010E9459
:103E00007C896C966CAF7DAF8EAF9FAF6C97A50130
:103E100094010E94DD890E94868E0E94098FC158FC
:103E2000DF4F688379838A839B83CF57D040F80123
:103E300067AB70AF81AF92AF9E012F5F3F4FAE96E1
:103E40003FAF2EAFAE97AE01435D5F4F66965FAF5B
:103E50004EAF66978FE893E0C757DF4F998388830B
:103E6000C958D040DE015196BEAFADAFC957DF4F44
:103E700059834883C758D0401FAE24961FAE24975D
:103E8000B0E82896BFAF2897EFE32C96EFAF2C97BA
:103E9000AE96AEADBFADAE976D917D918D919D917A
:103EA000AE96BFAFAEAFAE97A50194010E94DD897B
:103EB0006B017C01C957DF4FE881F981C758D040B9
:103EC0006193719381939193C957DF4FF983E8838D
:103ED000C758D04020E030E0A9010E94E68F87FF5C
:103EE00004C0F7FAF094F7F8F094C757DF4FA881B1
:103EF000B981C958D0402D913D914D915D91C757E1
:103F0000DF4FB983A883C958D040CD57DF4F2883EE
:103F100039834A835B83C358D040C701B6010E94EE
:103F2000E68F18160CF45DC5AE96CEACDFACAE973E
:103F3000EDACFEACCE14DF0409F0AACF20E030E0F7
:103F400040E85FE36FAD24967FAD249728968FAD50
:103F500028972C969FAD2C970E94788987FF72C076
:103F60008E01035C1F4F2FAD24963FAD24972896FA
:103F70004FAD28972C965FAD2C976696AEADBFAD32
:103F800066976D917D918D919C910E94DD896696D9
:103F9000EEADFFAD669761937193819391936696B1
:103FA000FFAFEEAF6697E017F107E9F68DE4829D6B
:103FB0008001839D100D11240257194FC158DF4F06
:103FC000688179818A819B81CF57D0400E947C890A
:103FD0002FAD24963FAD249728964FAD28972C9669
:103FE0005FAD2C970E94DD890E94098FD801D7967A
:103FF0006D937D938D939C93DA972FAD24963FAD6F
:10400000249728964FAD28972C965FAD2C976FADCF
:1040100024967FAD249728968FAD28972C969FAD38
:104020002C970E94DD899B01AC01EF966CAD7DADB4
:104030008EAD9FADEF970E94DD89F8016183728399
:104040008383948360962CAD3DAD4EAD5FAD60979C
:104050006C966CAD7DAD8EAD9FAD6C970E94DD8989
:1040600023966CAF7DAF8EAF9FAF23974114510461
:104070006104710409F4DFC4AC96CCACDDACEEACE9
:10408000FFACAC97CD28CE28CF2809F401C56091AC
:10409000A7037091A8038091A9039091AA03239686
:1040A0002CAD3DAD4EAD5FAD23970E94DD890E94E2
:1040B000868E0E94098F6B017C018091640690912D
:1040C0006506A0916606B091670664962CAD3DAD7D
:1040D0004EAD5FAD649782179307A407B50708F448
:1040E00094C5411451046104710409F0DAC48DE4EB
:1040F000829DF001839DF00D1124E257F94F818CD0
:10410000928CA38CB48C81149104A104B10409F0A5
:10411000F5C48DE4829DF001839DF00D1124E257DA
:10412000F94F858C968CA78CB0A081149104A104C2
:10413000B10409F010C58DE4829DF001839DF00D5E
:104140001124E257F94F81A092A0A3A0B4A081143A
:104150009104A104B10409F02BC58DE4829D800176
:10416000839D100D11240257194FF801ED5BFF4F8D
:10417000C082D182E282F382C701B6010E947C89AB
:104180006B017C0123962CAD3DAD4EAD5FAD239709
:104190000E949C8E23966CAF7DAF8EAF9FAF23970E
:1041A000D80151966D937D938D939C9354972DEBED
:1041B00037E346E051E4C701B6010E94DD890E9461
:1041C000098FF80162AB73AB84AB95AB60962CADF5
:1041D0003DAD4EAD5FAD6097E3966CAD7DAD8EAD00
:1041E0009FADE3970E94DD896C966CAF7DAF8EAF7B
:1041F0009FAF6C9760962CAD3DAD4EAD5FAD6097B7
:10420000EB966CAD7DAD8EAD9FADEB970E94DD89D9
:10421000AC966CAF7DAF8EAF9FAFAC9760962CAD78
:104220003DAD4EAD5FAD6097A4966CAD7DAD8EADEE
:104230009FADA4970E94DD8968966CAF7DAF8EAF6D
:104240009FAF689760962CAD3DAD4EAD5FAD60976A
:10425000A0966CAD7DAD8EAD9FADA0970E94DD891F
:10426000A0966CAF7DAF8EAF9FAFA097AF96CFAC4F
:10427000AF97CC2009F47BC6D090C80CA196DFAED6
:10428000A197E090C90CAD96EFAEAD97F090CA0C37
:10429000AF96FFAEAF97C090CB0CE096CFAEE09755
:1042A0002DEB37E346E855E36D2D7E2D8F2D9C2DAC
:1042B0000E94788987FD5BC68090530690905406D3
:1042C000A0905506B0905606C0905706D09058065C
:1042D000E0905906F0905A0620915B0630915C06FA
:1042E00040915D0650915E0627962CAF3DAF4EAFD4
:1042F0005FAF279780915F0690916006A09161065D
:10430000B09162062B968CAF9DAFAEAFBFAF2B972F
:10431000C501B40190586C962CAD3DAD4EAD5FAD6E
:104320006C970E94DD892B013C01AC962CAD3DAD14
:104330004EAD5FADAC97C701B6010E94DD899B0110
:10434000AC01C301B2010E94BF8D2B013C016896F4
:104350002CAD3DAD4EAD5FAD689727966CAD7DAD94
:104360008EAD9FAD27970E94DD899B01AC01C301F3
:10437000B2010E94BF8D2B013C01A0962CAD3DAD3A
:104380004EAD5FADA0972B966CAD7DAD8EAD9FAD64
:104390002B970E94DD899B01AC01C301B2010E94F1
:1043A000BF8D2B013C012FEE3FEF4FE75FE30E94F3
:1043B000E68F18160CF4D4C52FEE3FEF4FE75FEBF6
:1043C000C301B2010E94788987FF08C06FEE462EB4
:1043D00055245A946FE7662E6FEB762EA501940153
:1043E0006C966CAD7DAD8EAD9FAD6C970E94BF8D10
:1043F0006D8F7E8F8F8F98A3A7019601AC966CADC1
:104400007DAD8EAD9FADAC970E94BF8D69A37AA3A1
:104410008BA39CA327962CAD3DAD4EAD5FAD2797EA
:1044200068966CAD7DAD8EAD9FAD68970E94BF8DD7
:104430006DA37EA38FA398A72B962CAD3DAD4EAD5B
:104440005FAD2B97A0966CAD7DAD8EAD9FADA09767
:104450000E94BF8D69A77AA78BA79CA7DE015D96F6
:104460002596BFAFAEAF2597FE01BD96FEAFEDAF6F
:104470008D01C12CD12C7601D8018D909D90AD90ED
:10448000BD908D0120E030E0A901C501B4010E947A
:104490007889882371F0A5019401C501B4010E94B7
:1044A000DD899B01AC01C701B6010E94C08D6B0183
:1044B0007C01EDADFEAD0E171F07F1F6C701B60189
:1044C0000E942B909B01AC0160E070E080E89FE3CC
:1044D0000E949C8E6B017C0125960EAD1FAD259729
:1044E000A7019601D8016D917D918D919C910E94BB
:1044F000DD89F80161937193819391938F012DADC3
:104500003EADE217F30761F70FE713E0CFAC289653
:10451000CFAE28972196DFAC21972C96DFAE2C9753
:104520002296EFAC22972D96EFAE2D972396FFACF7
:1045300023976196FFAE61972596AEADBFAD2597E7
:10454000CD90DD90ED90FD902596BFAFAEAF259755
:1045500020E030E0A901C701B6010E9478898111ED
:104560006CC40C5F1F4F2596CEACDFAC2597EDAC2D
:10457000FEACCE14DF0401F7A301920160E070E00D
:1045800080E89FE30E94BF8D20E030E040E05FE3E1
:104590000E94DD890E942B906B017C012091AB036E
:1045A0003091AC034091AD035091AE0328966FADAE
:1045B00028972C967FAD2C972D968FAD2D976196D1
:1045C0009FAD61970E94DD89A70196010E94DD8958
:1045D0004B015C01A701960160E070E080E89FE379
:1045E0000E94BF8D9B01AC01C501B4010E949C8E4D
:1045F0007B018C0120E030E040E85FE3A8966CADE1
:104600007DAD8EAD9FADA8970E94788987FD4DC482
:104610008DE4829DF001839DF00D1124E257F94F46
:10462000A180B280C380D4809501A601B701C801E2
:104630000E94788987FD02C075018601A1962FAD81
:10464000A197AD963FADAD97AF964FADAF97E096C2
:104650005FADE097B701C8010E94788987FD0CC063
:10466000A196EFACA197AD96FFACAD97AF960FAD0D
:10467000AF97E0961FADE0976C962CAD3DAD4EAD7B
:104680005FAD6C97209353063093540640935506C4
:1046900050935606AC968CAD9DADAEADBFADAC970C
:1046A0008093570690935806A0935906B0935A06E4
:1046B00068962CAD3DAD4EAD5FAD689720935B061F
:1046C00030935C0640935D0650935E06A0968CADD9
:1046D0009DADAEADBFADA09780935F069093600691
:1046E000A0936106B09362062DE4229DC001239D34
:1046F000900D1124DC01A257B94F6D01C701D801FB
:10470000F60181879287A387B48723966CAD7DAD30
:104710008EAD9FAD239790589B01AC010E94C08D38
:10472000D6011D962D913D914D915C9150970E941F
:10473000DD899B01AC016BE077ED83E29BE30E9496
:10474000BF8D9B01AC018BE097EDA3E2BBE3F601CB
:1047500085839683A783B0871081C180D280E38050
:10476000F480C701B6010E94788918160CF004C4C1
:1047700081E0182B8DE4829DF001839DF00D1124C2
:10478000E257F94F108380E1FE01BD96ACECBCE02E
:1047900001900D928A95E1F7C092C80CD092C90C95
:1047A000E092CA0CF092CB0CC557DF4FC880D9807D
:1047B000EA80FB80CB58D040C092DC0CD092DD0C5C
:1047C000E092DE0CF092DF0CC157DF4FC880D98039
:1047D000EA80FB80CF58D040C092E00CD092E10C30
:1047E000E092E20CF092E30CCD56DF4FC880D98006
:1047F000EA80FB80C359D040C092E40CD092E50C13
:10480000E092E60CF092E70CE796CCACDDACEEACB7
:10481000FFACE797C092E80CD092E90CE092EA0C6A
:10482000F092EB0C9091C60C8091C70C981303C0CA
:1048300084E68093C30CC956DF4F8881C759D040A6
:104840008F5F8F708093C60C8091C60C9091C50CC1
:1048500081508F70891392C3D090C70C8090C60C82
:104860009DE48D102EC4212C312C412C512C1FAED7
:1048700024961FAE2497712C612C00E010E0E12CEF
:10488000F12CD8102BC40115110509F0A2C4809198
:104890006F00826080936F0081E0D9C580E0D7C54A
:1048A000E090AF03F090B0030091B1031091B20318
:1048B00018C9A0968CAD9DADAEADBFADA0970ECA88
:1048C000AE96AEADBFADAE978D909D90AD90BC90C5
:1048D00020E030E0A901C501B4010E94788981116E
:1048E00039C060962CAD3DAD4EAD5FAD6097CA014D
:1048F000B9010E94DD894B015C01A7019601C70146
:10490000B6010E94DD899B01AC01C501B4010E9482
:10491000C08D6B017C01A4962CAD3DAD4EAD5FAD5D
:10492000A497CA01B9010E94DD899B01AC01C701AE
:10493000B6010E94C08D0E942B902DE4229DF001B3
:10494000239DF00D1124E257F94F658776878787FD
:10495000908BD0C98DE4829DF001839DF00D1124D0
:10496000E257F94F85869686A786B08AC3C980919B
:10497000B7039091B803A091B903B091BA03C816D8
:10498000D906EA06FB0608F003CA8C199D09AE0990
:10499000BF09BC01CD01660F771F881F991FAF9615
:1049A0004FADAF97042F10E020E030E0A90198014F
:1049B0000E94848DCA01B9010E947C890E94F18FF6
:1049C0006C0D7D1D8E1D9F1D0E947C899B01AC017D
:1049D00060E074E284E799E40E949C8E4B015C01E4
:1049E000D7C9A7019601CD57DF4F688179818A81A8
:1049F0009B81C358D0400E949C8E7B018C019B01FF
:104A0000AC016FAD24967FAD249728968FAD289783
:104A10002C969FAD2C970E94E68F18160CF084CA36
:104A2000EFAE2496FFAE249728960FAF28972C96CA
:104A30001FAF2C9779CA8DE4829DF001839DF00D04
:104A40001124E257F94F818D928DA38DB48D892B5E
:104A50008A2B8B2B09F010CB858D968DA78DB0A15D
:104A6000892B8A2B8B2B09F007CB20919F03309148
:104A7000A0034091A1035091A20323966CAD7DAD9C
:104A80008EAD9FAD23970E94DD890E94868ED0C196
:104A90006091A3037091A4038091A5039091A60354
:104AA000FECA209168033091690340916A035091D6
:104AB0006B032C153D054E055F0508F018CB649679
:104AC0006CAD7DAD8EAD9FAD64970E94758D4B0131
:104AD0005C01A7019601C301B2010E94758D861683
:104AE0009706A806B90608F002CBC501B401A301D8
:104AF00092010E94848D69017A01F9CA20916C03A8
:104B000030916D0340916E0350916F032C153D055C
:104B10004E055F0508F0FDCA64966CAD7DAD8EADA7
:104B20009FAD64970E94758D2B013C01A7019601F2
:104B3000C501B4010E94758D4616570668067906B0
:104B400008F0E7CAC301B201A50194010E94848D57
:104B500069017A01DECA209170033091710340919E
:104B60007203509173032C153D054E055F0508F047
:104B7000E2CA64966CAD7DAD8EAD9FAD64970E9428
:104B8000758D2B013C01A7019601C501B4010E945E
:104B9000758D461657066806790608F0CCCAC3011B
:104BA000B201A50194010E94848D69017A01C3CAF2
:104BB00020917403309175034091760350917703EF
:104BC0002C153D054E055F0508F0C7CA64966CAD0F
:104BD0007DAD8EAD9FAD64970E94758D2B013C011C
:104BE000A7019601C501B4010E94758D46165706AE
:104BF0006806790608F0B1CAC301B201A5019401A3
:104C00000E94848D69017A01A8CA4114510461048B
:104C10007104B9F1609168037091690380916A032E
:104C200090916B036C157D058E059F0550F50E94D4
:104C30007C896C962CAD3DAD4EAD5FAD6C970E94FE
:104C4000DD894B015C01C301B2010E947C892B010B
:104C50003C01C701B6010E947C89A30192010E9418
:104C6000DD89A50194010E94E68F181654F4A30172
:104C70009201C501B4010E949C8E0E94098F6B01B4
:104C80007C018DE4829DF001839DF00D1124E2579B
:104C9000F94F418C528C638C748C41145104610423
:104CA0007104B9F160916C0370916D0380916E0392
:104CB00090916F036C157D058E059F0550F50E9440
:104CC0007C896C962CAD3DAD4EAD5FAD6C970E946E
:104CD000DD894B015C01C301B2010E947C892B017B
:104CE0003C01C701B6010E947C89A30192010E9488
:104CF000DD89A50194010E94E68F181654F4A301E2
:104D00009201C501B4010E949C8E0E94098F6B0123
:104D10007C018DE4829DF001839DF00D1124E2570A
:104D2000F94F458C568C678C70A041145104610476
:104D30007104B9F1609170037091710380917203F5
:104D4000909173036C157D058E059F0550F50E94AB
:104D50007C896C962CAD3DAD4EAD5FAD6C970E94DD
:104D6000DD894B015C01C301B2010E947C892B01EA
:104D70003C01C701B6010E947C89A30192010E94F7
:104D8000DD89A50194010E94E68F181654F4A30151
:104D90009201C501B4010E949C8E0E94098F6B0193
:104DA0007C018DE4829DF001839DF00D1124E2577A
:104DB000F94F81A092A0A3A0B4A081149104A104F2
:104DC000B10409F4CAC960917403709175038091AC
:104DD0007603909177036C157D058E059F0508F08D
:104DE000BCC90E947C896C962CAD3DAD4EAD5FADCB
:104DF0006C970E94DD892B013C01C501B4010E9422
:104E00007C894B015C01C701B6010E947C89A50128
:104E100094010E94DD89A30192010E94E68F181679
:104E20000CF09BC9A5019401C301B2010E949C8EA4
:104E30000E94098F6B017C0190C9F801608171812A
:104E4000828193810E947C89A70196010E949C8E99
:104E50006B017C0120E030E0A9010E94E68F87FF12
:104E600004C0F7FAF094F7F8F094A7019601289699
:104E70006FAD28972C967FAD2C972D968FAD2D97E3
:104E800061969FAD61970E94E68F18160CF069CB72
:104E90002896CFAE28972C96DFAE2C972D96EFAEA6
:104EA0002D976196FFAE61975CCBA3019201C30180
:104EB000B2010E94DD8923EC38EB42E35FEB0E94F4
:104EC000DD8923EF36E64FE55FE30E94BF8DA30146
:104ED00092010E94DD892BED3FE049EC5FE30E94E7
:104EE000C08D2CEE31E548E35EE30E94BF8D4B019F
:104EF0005C0124EE3BEC46E150E40E94E68F18167C
:104F00000CF086CBA50194016BED7FE089E490E481
:104F10000E94BF8D9B01AC01A8966CAD7DAD8EAD9E
:104F20009FADA8970E949C8E28962FAD28972C960F
:104F30003FAD2C972D964FAD2D9761965FAD619744
:104F40000E94DD895B016C019B01AC01B701C801C6
:104F50000E94E68F18160CF05BCB7501860158CBCA
:104F60004BE0E42E57EDF52E03E21BE351CBE12C91
:104F7000F12C00E010E080CB83E0FBCBF090C60C7E
:104F80008FEF8F0D8F708FAFB090C50C8091C60CD6
:104F9000B81206C0D090C50CDFAEC12CD12C83C096
:104FA000C12CD12CEFACEB14A9F3EFAC8E2C912CCF
:104FB0003DE4F32EF89C8001F99C100D112402575A
:104FC000194FD8018C9183FD38C02D960FAF2D97C6
:104FD00061961FAF619701151105A9F11996EC9023
:104FE00019972496EFAE24971A96FC901A97289654
:104FF000FFAE28971B96EC901B972C96EFAE2C9744
:105000001C96AC901C9715964D905D906D907C9081
:10501000189724962FAD24973F2D4E2D5A2DC3015E
:10502000B2010E947889811112C1C114D10459F0D2
:10503000D6018C9180FD0BC106C02D96CFAE2D9769
:105040006196DFAE61978FAD81508F708FAF809189
:10505000C50CB81649F0CFACCB1409F49BCF81E056
:105060008B0D8F70B82EF3CF2D96CFAC2D97619608
:10507000DFAC619797CFFFAC8F2C912C2DE4289D4E
:105080008001299D100D11240257194FD8018C91D0
:1050900083FD15C05801C114D10459F48FAD8F5F41
:1050A0008F708FAF65018091C60CFFACF812E3CF13
:1050B000D3CBC6010E9481428111F0CF4BC1560172
:1050C000EDCF8FEF880D8F70989FF0011124E2577C
:1050D000F94F208123FFC7CB882EC3CB2DE42D9D14
:1050E000800111240257194FD8018C9183FD19C0FA
:1050F00015966D917D918D919C9118970E942B90A2
:10510000C62EB72EA82E992EE114F10409F451C031
:10511000F701808180FD0CC0D8018C9180FD08C012
:1051200048C0CFAC2496BFAC2497A72C962C46C081
:10513000F701808181608083C7010E9481428111D3
:1051400034C0F70161817281838194810E942B9028
:105150009B01AC0160E070E080E89FE30E949C8EC0
:105160001B012C019B01AC016C2D7B2D8A2D992DEF
:105170000E94DD8969837A838B839C83A2019101DC
:105180006FAD24967FAD2497872D962D0E94DD89E3
:105190006D8F7E8F8F8F98A3AE014F5F5F4FBE01E3
:1051A000635E7F4FC7010E94E136D7018C918E7FED
:1051B0008C932C2C3B2C4A2C592C780181E08D0DA2
:1051C0008F70D82ECFAE2496BFAE24977A2C692C40
:1051D00058CBF801808181608083C7010E948142A1
:1051E000811130C0D80111966D917D918D919C9166
:1051F00014970E942B909B01AC0160E070E080E866
:105200009FE30E949C8E6B017C012DEC3CEC4CE4F6
:105210005DE30E94DD8969837A838B839C83A70188
:105220009601B101C2010E94DD896D8F7E8F8F8F43
:1052300098A3AE014F5F5F4FBE01635E7F4FC80111
:105240000E94E136F80180818E7F808320CB8DE43F
:10525000E82EE89CF001E99CF00D1124E257F94F8B
:10526000808181FD45C0C114D10431F0F601C580B3
:10527000D680E780F08408C02BE0C22E27EDD22E26
:1052800023E2E22E2BE3F22E2DE4289DF001299D4E
:10529000F00D1124E257F94F81899289A389B489CD
:1052A000BC01CD0190589B01AC010E94C08DD8017A
:1052B0001D962D913D914D915C9150970E94DD89F5
:1052C0009B01AC01C701B6010E94BF8D1B016C019F
:1052D0009B01AC0124966FAD249728967FAD28974B
:1052E0002C968FAD2C979A2D0E94788987FF0AC043
:1052F00024962FAC249728963FAC28972C96CFACB9
:105300002C97DA2C9101A601C301B2010E94788981
:10531000882309F498CEBDE4B89DC001B99D900DD5
:105320001124FC01E257F94F4F0180818160808395
:10533000C8010E948142882329F0D4018C918E7F7C
:105340008C9381CEC101D601F40185839683A78316
:10535000B08779CED6018C9181FD56C0D6011596C5
:105360002D913D914D915C91189727962CAF3DAFB3
:105370004EAF5FAF27971501B5E02B0E311CF8013A
:105380004580568067807084A301920127966CAD9A
:105390007DAD8EAD9FAD27970E94788987FF34C081
:1053A000F60181899289A389B489BC01CD01905805
:1053B0009B01AC010E94C08DD6011D962D913D919F
:1053C0004D915C9150970E94DD899B01AC0127961D
:1053D0006CAD7DAD8EAD9FAD27970E94BF8D6B01EB
:1053E0007C01A30192010E94788987FF0DC0D8013A
:1053F0008C9181608C93C5010E9481428823E9F0E1
:10540000F80180818E7F80839DE4D92ED89CF001A5
:10541000D99CF00D1124E257F94F2185328543853F
:10542000548565817681878190850E947889811174
:1054300035CEEFACE092C50C31CED101CD92DD92EC
:10544000ED92FC921397CFACC092C50CDDCFC9563C
:10545000DF4F0FB6F894DEBF0FBECDBFDF91CF9107
:105460001F910F91FF90EF90DF90CF90BF90AF9082
:105470009F908F907F906F905F904F903F902F9074
:1054800008958091C60C9091C70C891B8F708F3046
:1054900011F439D7F6CF8091C60C8F5F8F70E091F1
:1054A000C60C9DE49E9FF0011124E257F94FDF01E5
:1054B0001D929A95E9F798E090834091DC0C509109
:1054C000DD0C6091DE0C7091DF0C458B568B678B89
:1054D000708F4091E00C5091E10C6091E20C709162
:1054E000E30C418F528F638F748F4091E40C509185
:1054F000E50C6091E60C7091E70C458F568F678F35
:1055000070A34091E80C5091E90C6091EA0C709105
:10551000EB0C41A352A363A374A32091C60C9091FA
:10552000C70C291303C094E69093C30C8093C60C58
:1055300080916F00826080936F000895CF92DF9218
:10554000EF92FF92CF93DF936B017A01E9012091F3
:10555000FB033091FC034091FD035091FE03FC01DD
:1055600060817181828193810E94DD890E94F18F27
:105570006093DC0C7093DD0C8093DE0C9093DF0C59
:105580002091FF03309100044091010450910204E6
:10559000F60160817181828193810E94DD890E9480
:1055A000F18F6093E00C7093E10C8093E20C909388
:1055B000E30C20E030E0A901F70160817181828174
:1055C00093810E94C08D2091030430910404409186
:1055D0000504509106040E94DD890E94F18F6093BA
:1055E000E40C7093E50C8093E60C9093E70C20910B
:1055F0000704309108044091090450910A0468811D
:1056000079818A819B810E94DD890E94F18F60935C
:10561000E80C7093E90C8093EA0C9093EB0C90915A
:10562000C60C8091C70C981739F0DF91CF91FF908D
:10563000EF90DF90CF9025CF0E94A63580916F002C
:1056400081FB222720F981FF05C080916F008D7FAB
:1056500080936F008091DC0C9091DD0CA091DE0CAA
:10566000B091DF0C4091E00C5091E10C6091E20CA4
:105670007091E30C6C017D01C40ED51EE61EF71E71
:10568000C0922803D0922903E0922A03F0922B03C0
:10569000841B950BA60BB70B80932C0390932D03C3
:1056A000A0932E03B0932F038091E40C9091E50C0E
:1056B000A091E60CB091E70C8093300390933103F6
:1056C000A0933203B09333038091E80C9091E90CDE
:1056D000A091EA0CB091EB0C8093340390933503C6
:1056E000A0933603B0933703222329F080916F00F3
:1056F000826080936F00DF91CF91FF90EF90DF90F9
:10570000CF900895EF92FF920F931F93CF93DF9363
:10571000CDB7DEB72C970FB6F894DEBF0FBECDBF66
:105720000BEF13E08EE2E82E86E0F82EF8012191CF
:105730003191419151918F0160E070E080E89FE3E9
:105740000E949C8EF70161937193819391937F01E5
:10575000F4E00B301F0751F78091C7039091C80305
:10576000A091C903B091CA0389839A83AB83BC8398
:105770008091CB039091CC03A091CD03B091CE0347
:105780008D839E83AF83B8878091CF039091D003A0
:10579000A091D103B091D20389879A87AB87BC8748
:1057A000AE01475F5F4FBE016B5F7F4FCE01019639
:1057B0000E94653623ED33E0AE01475F5F4FBE01C7
:1057C0006B5F7F4FCE010196B9DE0E94D1192C96F6
:1057D0000FB6F894DEBF0FBECDBFDF91CF911F9102
:1057E0000F91FF90EF9008958F929F92AF92BF928A
:1057F000CF92DF92EF92FF920F93CF93DF931F929E
:10580000CDB7DEB77C015B016A0149018091EB0BEA
:105810008823F1F0F70140815181C40ED51ED18259
:10582000C08223C001111EC0BE016F5F7F4FC40143
:105830000E94AB69F701408151814F5F5F4F5183F7
:105840004083FFEFAF1ABF0A81E0C81AD10869F0A0
:10585000F701808191810E943E8D898390912C0473
:105860009111E0CFF5018083DFCF0F90DF91CF91D1
:105870000F91FF90EF90DF90CF90BF90AF909F90EF
:105880008F9008958F929F92AF92BF92CF92DF92A6
:10589000EF92FF920F931F93CF93DF931F921F926C
:1058A000CDB7DEB7E091EB0BE11107C069017C01D8
:1058B0005B018B01040F151F22C0FC012081318187
:1058C000420F531F5183408342C0F7018080918073
:1058D000F50161915F016983C4016A830E943E8D75
:1058E0006A81681310C0BE016F5F7F4FC6010E94BE
:1058F000AB69F70180819181019691838083A01625
:10590000B10619F724C0C4010E94678DC4010E942A
:105910003E8D9981891739F3ECE8FBE184918F0181
:105920000F5F1F4F882321F00E948614F801F6CFE5
:10593000EFEBFAE084918F010F5F1F4F882321F076
:105940000E948614F801F6CF81E08093EB0B0F9054
:105950000F90DF91CF911F910F91FF90EF90DF900B
:10596000CF90BF90AF909F908F900895CF93DF938B
:10597000CDB7DEB72C970FB6F894DEBF0FBECDBF04
:105980008091C7039091C803A091C903B091CA0345
:1059900089839A83AB83BC838091CB039091CC03A2
:1059A000A091CD03B091CE038D839E83AF83B88742
:1059B0008091CF039091D003A091D103B091D203F5
:1059C00089879A87AB87BC870E94D1190E947C3651
:1059D00080E00E94181081E00E94181082E00E946E
:1059E000181090DE4CE050E067EC73E0CE010196B9
:1059F0000E94C090892B51F02C960FB6F894DEBF10
:105A00000FBECDBFDF91CF910C94B0652C960FB631
:105A1000F894DEBF0FBECDBFDF91CF910895CF9236
:105A2000DF92EF92FF92CF93DF93EC01C090E303FC
:105A3000D090E403E090E503F090E603A70196011F
:105A4000688179818A819B810E94788987FF04C05F
:105A5000C882D982EA82FB82C090E703D090E80333
:105A6000E090E903F090EA03A70196016C817D8143
:105A70008E819F810E94788987FF04C0CC82DD825D
:105A8000EE82FF82C0900702D0900802E0900902E7
:105A9000F0900A02A7019601688179818A819B8131
:105AA0000E94E68F181624F4C882D982EA82FB820B
:105AB000C0900B02D0900C02E0900D02F0900E020C
:105AC000A70196016C817D818E819F810E94E68F66
:105AD000181624F4CC82DD82EE82FF82C090EB03A4
