:100000000C946C0F0C949D0F0C949D0F0C949D0FF1
:100010000C949D0F0C949D0F0C949D0F0C949D0FB0
:100020000C949D0F0C949D0F0C949D0F0C949D0FA0
:100030000C949D0F0C949D0F0C949D0F0C949D0F90
:100040000C949D0F0C94C1640C949D0F0C949D0F07
:100050000C949D0F0C949D0F0C94FD310C94002F6B
:100060000C949D0F0C940D1A0C949D0F0C949D0FE5
:100070000C949D0F0C949D0F0C949D0F0C949D0F50
:100080000C949D0F0C949D0F0C949D0F0C949D0F40
:100090000C949D0F0C949D0F0C949D0F0C949D0F30
:1000A0000C949D0F0C949D0F0C949D0F0C949D0F20
:1000B0000C949D0F0C949D0F0C949D0F0C949D0F10
:1000C0000C949D0F0C949D0F0C949D0F0C949D0F00
:1000D0000C949D0F0C949D0F0C949D0F0C949D0FF0
:1000E0000C949D0F692C6C2C5B2C5F2C652CA32C25
:1000F000702C742C7A2C7E2C822C882C8C2C902C9E
:10010000A32C962C9A2C9E2C832D882D8D2D972DEB
:10011000A12D1A2EAB2DB32DBB2DC52DCF2DD92D35
:10012000E82DF22D1A2EFC2D062E102E084AD73B54
:100130003BCE016E84BCBFFDC12F3D6C74319ABDB6
:1001400056833DDA3D00C77F11BED9E4BB4C3E91DA
:100150006BAAAABE000000803F05A84CCDB2D44EC9
:10016000B93836A9020C50B9918688083CA6AAAACB
:100170002ABE000000803F004E414E494E4954596E
:10018000494E46CDCCCC3D0AD7233C17B7D1387762
:10019000CC2B329595E6241FB14F0A000020410078
:1001A00000C84200401C4620BCBE4CCA1B0E5AAEC2
:1001B000C59D74434F4D4D554E49434154494F4E93
:1001C0000044525952554E004552524F5253004925
:1001D0004E464F004543484F0047322F4733206279
:1001E000616420706172616D65746572730A0020CC
:1001F0006F6620004D424C2047323920706F696E87
:1002000074200059206F7574206F662072616E67CC
:10021000652028312D33292E0A0058206F7574204F
:100220006F662072616E67652028312D33292E0A92
:10023000004D6573682070726F62696E6720646F2D
:100240006E652E0A005374617274206D65736820A8
:1002500070726F62696E6720776974682022473216
:1002600039205331222066697273742E0A00473296
:10027000392053320053746174653A20004D657320
:100280006820626564206C6576656C696E672068BD
:100290006173206E6F20646174612E0A0053206FB9
:1002A0007574206F662072616E67652028302D3569
:1002B000292E0A004D65736820706F696E74206383
:1002C000616E6E6F74206265207265736F6C766507
:1002D000640A005072696E742074696D653A20007A
:1002E000D401CF01C801C101B3016F666600444566
:1002F0004255473A004B494C4C45442E20004D3165
:1003000031332053006F6B0020573A0020573A00DA
:10031000544845524D414C5F50524F544543544907
:100320004F4E004155544F5245504F52545F534425
:100330005F53544154555300454D455247454E4334
:10034000595F50415253455200434153455F4C4918
:100350004748545F4252494748544E45535300540E
:100360004F47474C455F4C494748545300534F460D
:1003700054574152455F504F574552004255494CE2
:10038000445F50455243454E54004C4556454C49F8
:100390004E475F44415441005A5F50524F4245001E
:1003A0004155544F4C4556454C005052494E545FB0
:1003B0004A4F420050524F47524553530041555403
:1003C0004F5245504F52545F54454D5000564F4C7C
:1003D000554D455452494300454550524F4D0053E9
:1003E000455249414C5F584F4E5F584F4646004674
:1003F00049524D574152455F4E414D453A4D61720C
:100400006C696E204A313852455F313930333238A9
:100410005F313331315F484120534F555243455F7F
:10042000434F44455F55524C3A68747470733A2F89
:100430002F6769746875622E636F6D2F61686172D2
:10044000736861632F46574A756C69613230313881
:100450004D61726C696E2050524F544F434F4C5F48
:1004600056455253494F4E3A312E30204D41434864
:10047000494E455F545950453A4A756C696120456B
:100480007874656E646564204558545255444552ED
:100490005F434F554E543A3120555549443A3862DE
:1004A0006561313437342D373130622D3462393063
:1004B0002D386135302D38323337656161656335EC
:1004C00030660A002F2F2000205400205200416384
:1004D00063656C65726174696F6E3A2050005741B4
:1004E000524E494E4721204C6F77205A204A657260
:1004F0006B206D6179206C65616420746F20756E6E
:1005000077616E746564207061757365732E0A007F
:10051000000020C100007A4300009643546F6F2012
:100520006661722066726F6D207265666572656EB7
:10053000636520706F696E740A00FF0101205A0024
:10054000205900580020204D61783A2000205A00A0
:10055000205900580020204D696E3A20004F6E202F
:10056000004F666600536F667420656E6473746F27
:1005700070733A200020466C6F773A2000000136F5
:10058000372603FFFFFF353C3D38FF0FFFFF312EBD
:10059000303EFF13FFFFFF28FF0C0809FFFFFF1A83
:1005A0001C18FFFF2A08440AFF4320643A00206910
:1005B0003A0020703A00496E76616C696420657873
:1005C0007472756465720A0043290A0061626C6581
:1005D0006420286D696E2074656D702000436F6C17
:1005E000642065787472756465732061726520009B
:1005F0004E6F2063617365206C696768740A004DF3
:1006000065736820706F696E742063616E6E6F74BD
:10061000206265207265736F6C7665640A004D34E4
:10062000323120696E636F7272656374207061721B
:10063000616D657465722075736167650A00454573
:1006400050524F4D204F4B0A00416374697665202C
:1006500045787472756465723A2000496E76616CF3
:1006600069642065787472756465720A00205A3A6C
:100670000020593A0020583A00656E6473746F7018
:1006800073206869743A20002569730025696D201C
:10069000256973002569682025696D202569730027
:1006A000256964202569682025696D202569730006
:1006B00025697920256964202569682025696D20D0
:1006C00025697300656E7175657565696E672022B1
:1006D000004C696E65204E756D62657220697320ED
:1006E0006E6F74204C617374204C696E65204E757A
:1006F0006D6265722B312C204C617374204C696ED5
:10070000653A20004B494C4C45442E2000507269FC
:100710006E7465722073746F7070656420647565A3
:1007200020746F206572726F72732E204669782074
:10073000746865206572726F7220616E64207573D3
:1007400065204D39393920746F2072657374617278
:10075000742E202854656D70657261747572652001
:1007600069732072657365742E20536574206974F3
:100770002061667465722072657374617274696E4B
:1007800067290A004E6F20436865636B73756D209F
:1007900077697468206C696E65206E756D6265722C
:1007A0002C204C617374204C696E653A200063689C
:1007B00065636B73756D206D69736D617463682C0F
:1007C000204C617374204C696E653A20004D3131C4
:1007D000300020496E76616C6964206578747275AA
:1007E00064657220000000000000000000000000AE
:1007F0000000007A4300007A4300009643486F6D82
:10080000696E67206661696C656400206E6F742094
:10081000656E74657265642E0A0050726F7465634C
:100820007465642050696E0A0046696C616D656E7E
:100830007420757365643A200053746174733A20B0
:10084000002C204C6F6E67657374206A6F623A20CB
:1008500000546F74616C2074696D653A20005374A4
:100860006174733A20002C204661696C65643A20FB
:10087000002C2046696E69736865643A20005072E6
:10088000696E74733A200053746174733A200024C3
:10089000F4D43050C38E20C2A24017828B70111244
:1008A0007A910D816CD90AA861E108C75866076181
:1008B0005143061E4B5D05C145A7041A41110409A9
:1008C0003D9803713931034036DB0265339102D420
:1008D000305402802E1D02632CEE01752AC501B032
:1008E00028A001102781018F2564012B244B01E0F2
:1008F000223401AC211F018D200D01801FFC0084DA
:100900001EED00971DDF00B81CD200E61BC60020BC
:100910001BBC00641AB200B219A8000A19A0006A30
:10092000189900D117910040178B00B5168400313B
:10093000167E00B31579003A157300C7146F00587E
:10094000146A00EE1366008813630025135E00C767
:10095000125B006C12570015125400C11151007047
:10096000114F0021114B00D61049008D1047004651
:1009700010440002104200C00F4000800F3E0042B1
:100980000F3C00060F3B00CB0E3800930E37005C87
:100990000E3500270E3400F30D3200C10D310090EA
:1009A0000D3000600D2E00320D2D00050D2C00D9EC
:1009B0000C2B00AE0C2900850C29005C0C2700359F
:1009C0000C27000E0C2600E80B2400C40B2400A00A
:1009D0000B23007D0B23005A0B2100390B2100183B
:1009E0000B2000F80A1F00D90A1E00BB0A1E009D3A
:1009F0000A1D00800A1D00630A1C00470A1B002C08
:100A00000A1B00110A1A00F7091A00DD091900C4AF
:100A1000091900AB091900920917007B0918006336
:100A20000917004C09160036091600200916000A9D
:100A3000091500F5081500E0081400CC081400B8EA
:100A4000081400A4081400900813007D0812006B1D
:100A50000813005808120046081200340811002339
:100A60000811001208110001081100F0071000E041
:100A7000071000D0071000C0071000B0070F00A13A
:100A800007100091070E0083070F0074070F006521
:100A9000070E0057070E0049070E003B070D002EFA
:100AA000070E0020070D0013070D0006070D00F9C3
:100AB000060C00ED060D00E0060C00D4060C00C884
:100AC000060C00BC060C00B0060C00A4060B009936
:100AD000060C008D060B0082060B0077060B006CDF
:100AE000060B0061060A0057060B004C060A00427E
:100AF000060A0038060A002E060A0024060A001A12
:100B0000060A001006090007060A00FD050900F4A0
:100B1000050900EB050900E2050900D9050900D027
:100B2000050900C7050900BE050900B5050800ADA7
:100B3000050800A50509009C050800940508008C1F
:100B4000050800840508007C050800740508006C91
:100B5000050700650508005D050700560508004EFD
:100B60000507004705070040050800380507003164
:100B70000507002A050700230507001C05060016C7
:100B80000507000F0507000805060002050700FB22
:100B9000040600F5040700EE040600E8040600E27F
:100BA000040700DB040600D5040600CF040600C9D4
:100BB000040600C3040600BD040600B7040600B125
:100BC000040500AC040600A6040600A00405009B72
:100BD00004060095040500900406008A04050085BB
:100BE000040500800406007A040500750405007001
:100BF0000405006B04050066040500610405005C43
:100C000004050057040500520405004D0405004882
:100C1000040500430405003E0404003A04050035C1
:100C2000040500300404002C0405002704040023FC
:100C30000405001E0404001A040400160405001133
:100C40000404000D04040009040500040404000069
:100C5000040400FC030400F8030400F4030400F09F
:100C6000030400EC030400E8030400E4030400E0D0
:100C7000030400DC030400D8030400D4030400D000
:100C8000030400CC030400C8030300C503030024CD
:100C9000F404D9201BC40C5C0E9804C4095F0265DF
:100CA000077101F405F900FB04B30048048700C193
:100CB0000369005803550003034500BE023A00844F
:100CC00002310053022A002902250004022000E418
:100CD000011C00C8011900AF01170098011400841D
:100CE000011300710110006101100051010E004359
:100CF000010D0036010B002B010B0020010B00152C
:100D00000109000C01090003010800FB000800F3C1
:100D1000000800EB000700E4000600DE000600D833
:100D2000000600D2000600CC000500C7000500C286
:100D3000000500BD000400B9000400B5000400B1C6
:100D4000000400AD000400A9000400A5000300A2F7
:100D50000003009F0004009B00030098000300951F
:100D600000020093000300900003008D0002008B3E
:100D70000003008800020086000200840003008156
:100D80000002007F0002007D0002007B000200796B
:100D90000002007700010076000200740002007279
:100DA000000100710002006F0002006D0001006C84
:100DB0000002006A0001006900020067000100668D
:100DC0000001006500010064000200620001006192
:100DD000000100600001005F0002005D0001005C96
:100DE0000001005B0001005A000100590001005899
:100DF0000001005700010056000100550001005499
:100E00000001005300000053000100520001005196
:100E1000000100500001004F0001004E0000004E94
:100E20000001004D0001004C0001004B0000004B90
:100E30000001004A0001004900010048000000488C
:100E40000001004700010046000000460001004587
:100E50000000004500010044000100430000004381
:100E6000000100420000004200010041000000417A
:100E7000000100400001003F0000003F0001003E73
:100E80000000003E0001003D0000003D0001003C6C
:100E90000000003C0000003C0001003B0000003B63
:100EA0000001003A0000003A00010039000000395A
:100EB0000001003800000038000000380001003751
:100EC0000000003700010036000000360000003648
:100ED000000100350000003500000035000100343D
:100EE0000000003400000034000100330000003333
:100EF0000000003300010032000000320000003228
:100F0000000100310000003100000031000100301C
:100F100000000030000000300001002F0000002F12
:100F20000000002F0000002F0001002E0000002E06
:100F30000000002E0001002D0000002D0000002DFB
:100F40000000002D0001002C0000002C0000002CEF
:100F50000000002C0001002B0000002B0000002BE3
:100F60000000002B0001002A0000002A0000002AD7
:100F70000000002A000100290000002900000029CB
:100F800000000029000000290001002800000028BE
:100F900000000028000000280000002800010027B1
:100FA00000000027000000270000002700000027A5
:100FB0000001002600000026000000260000002698
:100FC000000000260001002500000025000000258B
:100FD000000000250000002500000025000100247D
:100FE0000000002400000024000000240000002471
:100FF0000001002300000023000000230000002364
:101000000000002300000023000000230001002254
:101010000000002200000022000000220000002248
:10102000000000220001002100000021000000213A
:10103000000000210000002100000021000000212C
:10104000000100200000002000000020000000201F
:101050000000002000000020000000200000002010
:101060000001001F0000001F0000001F0000001F03
:101070000000001F0000001F0000001F0001001EF4
:101080000000001E0000001E0000001E00000039CD
:101090003000003325000087190000B00F0000DB8E
:1010A000080000BD040000740200003F010000625F
:1010B0007573793A2070617573656420666F72206C
:1010C000696E7075740A00627573793A2070617583
:1010D00073656420666F7220757365720A006275AD
:1010E00073793A2070726F63657373696E670A0073
:1010F0004B494C4C45442E20004B494C4C206361DD
:101100007573656420627920746F6F206D756368F4
:1011100020696E6163746976652074696D65202D40
:101120002063757272656E7420636F6D6D616E649D
:101130003A20005072696E7465722068616C746543
:10114000642E206B696C6C28292063616C6C65646B
:10115000210A002020506C616E6E657242756666D1
:10116000657242797465733A200020467265652085
:101170004D656D6F72793A2000436F6D70696C65D3
:10118000643A204D617220323820323031390A0001
:10119000207C20417574686F723A20467261636BDF
:1011A00074616C20576F726B730A00323031392DC5
:1011B00030332D32382031333A313100204C6173D5
:1011C0007420557064617465643A20004275696CDE
:1011D000643A204A313852455F3139303332385F12
:1011E000313331315F48410A00467261636B74618B
:1011F0006C20576F726B73204A756C69612045785B
:1012000074656E6465640A00312E312E390A004D12
:1012100061726C696E0020536F667477617265202D
:1012200052657365740A00205761746368646F6760
:101230002052657365740A002042726F776E206FCA
:1012400075742052657365740A0020457874657260
:101250006E616C2052657365740A00506F77657219
:1012600055700A0073746172740A000000484200ED
:101270000048420000A041000000005761726E6902
:101280006E673A20486F6D696E672042756D7020F9
:1012900044697669736F72203C20310A00020204AF
:1012A0000000A0400000A0400000004000007A4381
:1012B00000007A43000096434572726F7220777285
:1012C0006974696E6720746F20454550524F4D21F7
:1012D0000A001000600350012C0190012201D0018E
:1012E000180110020E0170020401E002FA0060030E
:1012F000F0000004E600B004DC00A005D200B00657
:10130000C8000008BE00A009B400800BAA00D00DE0
:10131000A00090109600C0138C0070178200901BE4
:10132000780010206E00C0246400E02D500080354D
:101330003C00A03A2800A03D1400003F0000A03F60
:10134000ECFF4B494C4C45442E2000202D20496E8B
:1013500076616C6964206578747275646572206E5C
:10136000756D62657220210A004531204572723A1E
:10137000204D415854454D50004572723A204D4120
:101380005854454D5020424544004D415854454D18
:101390005020747269676765726564004531204545
:1013A00072723A204D494E54454D50004572723A82
:1013B000204D494E54454D5020424544004D494E24
:1013C00054454D50207472696767657265640020EA
:1013D0002F002042403A0020403A00000021002423
:1013E0000027002A002D0030003300010100000416
:1013F0000107010A0100002200250028002B002E11
:10140000003100340002010000050108010B010059
:101410000020002300260029002C002F00320000AD
:10142000010000030106010901050505050705087E
:10143000080808020202020A0A0808040404040157
:101440000101010101010103030303030303030479
:101450000707070C0C0C0C0C0C0C0C020202020609
:10146000060606060606060B0B0B0B0B0B0B0B01F9
:1014700002102020080810204010204080020102A5
:10148000010804020101020408102040808040206D
:1014900010080402018004020180402010080402A8
:1014A0000108040201010204081020408001020426
:1014B000081020408000000A0B02090C0D0E0807DE
:1014C0000304010000000000000000000000000014
:1014D000000000000000000000000000000000000C
:1014E00000121110000000000000000000000000C9
:1014F000000000000000000000000020746F6F205A
:101500006C6F6E6720657874727573696F6E20708A
:10151000726576656E7465640A0020636F6C642082
:10152000657874727573696F6E2070726576656E1A
:101530007465640A00454550524F4D2064617461E2
:1015400073697A65206572726F722E0A00290A002B
:101550002062797465733B20637263200053657465
:1015600074696E67732053746F7265642028002954
:101570000A002062797465733B2063726320002047
:1015800073746F7265642073657474696E67732019
:10159000726574726965766564202800202863612D
:1015A0006C63756C6174656429210A0020213D20FB
:1015B00000454550524F4D20435243206D69736D95
:1015C00061746368202D202873746F72656429200C
:1015D000002053697A653A2000496E6465783A20A4
:1015E00000204D61726C696E3D563535290A002820
:1015F000454550524F4D3D00454550524F4D207688
:10160000657273696F6E206D69736D6174636820B4
:1016100000205A3A0020423A0020436F756E742031
:10162000413A0020453A00205A3A0020593A0058E1
:101630003A003A004361703A0023646566696E655A
:101640002044454641554C545F4B6420002364655B
:1016500066696E652044454641554C545F4B692090
:101660000023646566696E652044454641554C54C7
:101670005F4B702000504944204175746F74756E43
:10168000652066696E6973686564212050757420F1
:10169000746865206C617374204B702C204B69203A
:1016A000616E64204B6420636F6E7374616E74733B
:1016B0002066726F6D2062656C6F7720696E746F43
:1016C00020436F6E66696775726174696F6E2E680C
:1016D0000A00504944204175746F74756E65206628
:1016E00061696C6564212074696D656F75740A00A9
:1016F000453120544845524D414C2052554E41579A
:10170000415900546865726D616C2052756E617745
:1017100061790045312048656174696E67206661B2
:10172000696C65640048656174696E67206661690B
:101730006C656400504944204175746F74756E6522
:10174000206661696C6564212054656D7065726105
:101750007475726520746F6F20686967680A00206D
:101760004B643A2000204B693A2000204B703A200D
:10177000000A20436C617373696320504944200A56
:10178000002054753A2000204B753A2000206D61EE
:10179000783A2000206D696E3A200020643A2000DB
:1017A00020626961733A2000504944204175746F8A
:1017B00074756E65206661696C65642120426164A0
:1017C000206578747275646572206E756D626572DD
:1017D0000A00504944204175746F74756E6520731A
:1017E000746172740A00426564204C6576656C69A8
:1017F0006E6720004661696C656420746F20656EB9
:1018000061626C6520426564204C6576656C696E2A
:10181000670A004D65736820426564204C657665F3
:101820006C20646174613A0A00526573656E643AB3
:1018300020006F6B0020746F6F206C6F6E672065E7
:101840007874727573696F6E2070726576656E74E8
:1018500065640A0020636F6C642065787472757328
:10186000696F6E2070726576656E7465640A007AC1
:101870005F6D61783A2000795F6D61783A20007879
:101880005F6D696E3A20005265706F7274696E67A1
:1018900020656E6473746F70207374617475730A5D
:1018A000000A4D6561737572656420706F696E74AE
:1018B000733A0A005A206F66667365743A20004EC8
:1018C000756D20582C593A20332C330A00FFFDFC4B
:1018D000FAF8F6F4F2F0EEECEAE9E7E5E3E1E0DE4F
:1018E000DCDAD9D7D5D4D2D0CFCDCBCAC8C7C5C3FF
:1018F000C2C0BFBDBCBAB9B7B6B4B3B2B0AFADAC7D
:10190000AAA9A8A6A5A4A2A1A09E9D9C9A999897D1
:1019100095949392908F8E8D8B8A89888786848305
:101920008281807F7E7D7B7A797877767574737219
:1019300071706F6E6D6C6B6A69686766656463620F
:1019400061605F5E5D5C5B5A5958585756555453F9
:10195000525150504F4E4D4C4B4A4A4948474646CB
:10196000454443424241403F3E3E3D3C3B3B3A3989
:10197000383837363535343332323130302F2E2E39
:101980002D2C2B2B2A2929282727262525242323DC
:1019900022212120201F1E1E1D1C1C1B1B1A191971
:1019A0001818171616151514131312121111100FFB
:1019B0000F0E0E0D0D0C0C0B0A0A0909080807077B
:1019C00006060505040403030202010000000000EE
:1019D0000100000001000080005555550000004046
:1019E0000033333300AAAA2A0049922400000020C1
:1019F00000C7711C0099991900D14517005555155C
:101A0000003BB11300244912001111110000001015
:101A1000000F0F0F00E3380E0043790D00CCCC0C03
:101A200000C3300C00E8A20B0064210B00AAAA0A34
:101A300000703D0A009DD80900427B0900922409EC
:101A400000DCD30800888808001042080000000865
:101A500000F0C107008787070075500700711C0759
:101A6000003EEB0600A1BC06006990060066660613
:101A700000703E06006118060017F4050074D105D9
:101A8000005BB00500B29005006272050055550577
:101A90000078390500B81E0500050505004EEC0468
:101AA0000087D40400A1BD040090A704004992045B
:101AB00000C17D0400EE690400C7560400444404DC
:101AC000005C3204000821040041100400000004FE
:101AD000003FF00300F8E0030026D20300C3C30375
:101AE00000CCB503003AA803000A9B0300388E031C
:101AF00000C08103009F750300D0690300505E039E
:101B0000001D53030034480300913D0300333303A9
:101B10000016290300381F030097150300300C033B
:101B200000030303000BFA020049F10200BAE802C5
:101B3000005CE002002DD802002DD0020059C8023E
:101B400000B0C0020031B90200DAB10200AAAA0254
:101B500000A0A30200BC9C0200FA9502005C8F0268
:101B600000DF88020082820200457C0200277602A4
:101B70000027700200436A02007C640200D05E020B
:101B8000003F590200C853020048617264636F64E9
:101B900065642044656661756C742053657474696E
:101BA0006E6773204C6F616465640A00E80300008F
:101BB000E803000032000000102700000000484346
:101BC000000048430000A0410000344200002043D0
:101BD00000002043F0F77B4400008C4320286D6D0B
:101BE000290020440020490020204D33303120506E
:101BF000005049442073657474696E67733A0A0033
:101C0000205A0020590020204732392053332058D1
:101C10000020204D3432302053004D65736820423F
:101C20006564204C6576656C696E673A0A00205AD7
:101C30000020590020204D323036205800486F6D6A
:101C400065206F66667365743A0A00204500205A65
:101C50000020590020580020540020530020204D1F
:101C600032303520420020453C6D61785F655F6A07
:101C700065726B3E0020583C6D61785F785F6A65E5
:101C8000726B3E20593C6D61785F795F6A65726B5B
:101C90003E205A3C6D61785F7A5F6A65726B3E00E8
:101CA000416476616E6365643A20423C6D696E5FA3
:101CB0007365676D656E745F74696D655F75733E9E
:101CC00020533C6D696E5F66656564726174653E44
:101CD00020543C6D696E5F74726176656C5F6665F9
:101CE0006564726174653E0020540020520020201B
:101CF0004D323034205000416363656C657261740D
:101D0000696F6E2028756E6974732F7332293A20BB
:101D1000503C7072696E745F616363656C3E205203
:101D20003C726574726163745F616363656C3E20CD
:101D3000543C74726176656C5F616363656C3E0AE6
:101D400000204500205A0020590020204D3230311B
:101D50002058004D6178696D756D20416363656C35
:101D600065726174696F6E2028756E6974732F7364
:101D700032293A0A00204500205A0020590020202C
:101D80004D3230332058004D6178696D756D206695
:101D900065656472617465732028756E6974732F4C
:101DA00073293A0A00204500205A002059002020BB
:101DB0004D3932205800537465707320706572205D
:101DC000756E69743A0A0020204D3230302044305C
:101DD0000A0020204D3230302044002044697361D5
:101DE000626C65640A0046696C616D656E7420738F
:101DF000657474696E67733A002020473231202081
:101E000020203B006265640A002C2073797374659E
:101E10006D2073746F70706564212048656174650E
:101E2000725F49443A2000426564206865617469C4
:101E30006E67206661696C65640048656174696EEF
:101E400067206661696C656400453120486561748E
:101E5000696E67206661696C6564004865617469D4
:101E60006E67206661696C656400556E6B6E6F7796
:101E70006E20636F6D6D616E643A2022002066698A
:101E80007273740A005A0059005800486F6D65203B
:101E9000006563686F3A004572726F723A004531AF
:101EA00020544845524D414C2052554E41574159BE
:101EB0000042454420544845524D414C2052554E15
:101EC0004157415900546865726D616C2052756EBE
:101ED0006177617900008D8911241FBECFEFD1E2B7
:101EE000DEBFCDBF00E00CBF12E0A0E0B2E0E2E751
:101EF000FBE201E00BBF02C007900D92A83EB107C4
:101F0000D9F72EE0A8EEB2E001C01D92A832B207C8
:101F1000E1F71FE0CCE6DFE000E006C02197010911
:101F2000802FFE010E946295CB36D10780E0080722
:101F3000A9F70E94D26E0C94B7950C940000809182
:101F4000420790914307891759F0E92FF0E0EE53CB
:101F5000F94F80819F5F9F779093430790E00895AA
:101F60008FEF9FEF0895FF920F931F93CF93DF930F
:101F7000FC0120812B3319F1D0919405D430F8F471
:101F8000F62EBC01C091AB050C2F10E0F0E6CF9F00
:101F9000C00111248E5E9B4F0E949795F801EB596A
:101FA000F94FF082CF5FC43018F4C093AB0502C084
:101FB0001092AB05DF5FD093940581E001C080E013
:101FC000DF91CF911F910F91FF900895CF93DF93F1
:101FD000CEEADDE020E030E0A901688179818A81E4
:101FE0009B810E94158E81111DC020E030E0A90167
:101FF0006C817D818E819F810E94158E811112C01E
:1020000020E030E0A901688579858A859B850E945A
:10201000158E811107C02C968DE0C23DD807D1F6F0
:1020200080E001C081E0DF91CF910895CF9390913E
:102030000A048917C9F0C82F0E942642C11112C094
:1020400046EA5DE062EA7DE08EE99DE00E94E942B9
:1020500080E080930A04882339F08EE99DE0CF91D7
:102060000C94CE42B3DFF5CFCF910895CF92DF929B
:10207000EF920F931F93CF93DF93CDB7DEB76097A7
:102080000FB6F894DEBF0FBECDBFE0900904EEE9B5
:10209000FDE080859185A285B38544815581668167
:1020A0007781008111812281338109831A832B83F7
:1020B0003C834D835E836F83788789879A87AB875C
:1020C000BC871D861E861F86188AAE01475F5F4F3C
:1020D000BE016B5F7F4FCE0101960E94E942CE01A7
:1020E0000D966C0102E012E02AEA3DE0AE01475F86
:1020F0005F4FBE016B5F7F4F0C970E94A7336096C6
:102100000FB6F894DEBF0FBECDBFDF91CF911F9108
:102110000F91EF90DF90CF9008954F925F926F9262
:102120007F928F929F92AF92BF92CF92DF92EF9267
:10213000FF920F931F93CF93DF93CDB7DEB72C970A
:102140000FB6F894DEBF0FBECDBF6D837E838F8345
:10215000988729873A874B875C8747015801360162
:102160008091020290910302A0910402B0910502B5
:1021700089839A83AB83BC83D601CD90DD90ED90AB
:10218000FC9020E030E0A901C701B6010E94158E45
:10219000811106C0E3E7F2E1C590D590E590F49097
:1021A000A50194016091A60D7091A70D8091A80DD5
:1021B0009091A90D0E94158E87FF11C0C092020256
:1021C000D0920302E0920402F09205028092A60DE2
:1021D0009092A70DA092A80DB092A90D47DFF30130
:1021E000408051806280738020E030E0A901C3010B
:1021F000B2010E94158E811107C085E5482E542C2E
:1022000085E0682E83E4782E409202025092030209
:1022100060920402709205028D819E81AF81B88523
:1022200080939E0D90939F0DA093A00DB093A10D50
:1022300089859A85AB85BC858093A20D9093A30D6B
:10224000A093A40DB093A50D11DFA5019401609199
:10225000A60D7091A70D8091A80D9091A90D0E94D7
:10226000839418168CF4C0920202D0920302E0927A
:102270000402F09205028092A60D9092A70DA09202
:10228000A80DB092A90DF2DE0E94264289819A81A2
:10229000AB81BC818093020290930302A09304025D
:1022A000B09305022C960FB6F894DEBF0FBECDBFDB
:1022B000DF91CF911F910F91FF90EF90DF90CF9022
:1022C000BF90AF909F908F907F906F905F904F9056
:1022D0000895CF92DF92EF92FF920F931F936B01BD
:1022E000FC01E080F18002811381EEE9FDE02481B0
:1022F00035814681578160817181828193810DDFB3
:102300001F910F91FF90EF90DF90CF9008950F9362
:102310001F93CF93DF9394E0899FE00111248E01F6
:102320000D531C4FFE01E954FC4FDE01A85DBC4F6C
:102330002D913D914D915C9160817181828193815C
:102340000E945D92F8016083718382839383FE0112
:10235000EB51F84F85919591A591B491FE01E15310
:10236000FC4F80839183A283B383FE01EF50F84F2B
:1023700085919591A591B491C95FDD4F888399832B
:10238000AA83BB83DF91CF911F910F9108950F9383
:102390001F93CF93DF93CDB7DEB72C970FB6F8948A
:1023A000DEBF0FBECDBFEEE9FDE080859185A28541
:1023B000B3854481558166817781008111812281B5
:1023C000338109831A832B833C834D835E836F8320
:1023D000788789879A87AB87BC87AE01475F5F4F55
:1023E000BE016B5F7F4FCE0101960E94E9422AEA4F
:1023F0003DE0AE01475F5F4FBE016B5F7F4FCE0197
:1024000001960E94B0672C960FB6F894DEBF0FBEFF
:10241000CDBFDF91CF911F910F9108952F923F92E1
:102420004F925F926F927F929F92AF92BF92CF92A4
:10243000DF92EF92FF920F931F93CF93DF93CDB76D
:10244000DEB764970FB6F894DEBF0FBECDBF2A018A
:102450003B01902EA12E6901082F10E0F801E65CE7
:10246000FA4FE491BB24B3941E160CF4B12CFF2454
:10247000F39420E030E0A901C301B2010E948394EB
:1024800018160CF0F12C000F111F000F111FC801BE
:102490008256924F1C01FC0110821182128213821B
:1024A00076DFF1014082518262827382E0900904FA
:1024B00020E030E0A901692D7A2DC6010E94158E19
:1024C000811108C0F801E559FD4E85919591A591BE
:1024D000B49103C0892D9A2DD601898B9A8BAB8B31
:1024E000BC8B8091A60D9091A70DA091A80DB091E5
:1024F000A90D4091A20D5091A30D6091A40D709172
:10250000A50D00919E0D10919F0D2091A00D309171
:10251000A10D09831A832B833C834D835E836F83D4
:10252000788789879A87AB87BC871D861E861F861A
:10253000188AAE01475F5F4FBE016B5F7F4FCE01D0
:1025400001960E94E942CE010D966C018E010F5E4C
:102550001F4F2AEA3DE0AE01475F5F4FBE016B5F50
:102560007F4F0C970E94A7330E942642BF1459F058
:1025700080919205882319F01092920504C08DEF86
:1025800097E00E94EE2864960FB6F894DEBF0FBE67
:10259000CDBFDF91CF911F910F91FF90EF90DF9012
:1025A000CF90BF90AF909F907F906F905F904F9033
:1025B0003F902F9008958091A9059091AA050097CA
:1025C00031F04AE050E060E070E00C94698C60E02B
:1025D00070E0CB0108958091A9059091AA0500971C
:1025E00031F04AE050E060E070E00C94418B60E034
:1025F00070E0CB010895EFDF97FD0AC0ECDF6F3F7D
:1026000071058105910509F02CF4E5DF862F089509
:1026100080E008958FEF08958091A9059091AA0513
:10262000892B31F0E8DF91E0811103C090E001C017
:1026300091E0892F08950F931F93CF938091A9055F
:102640009091AA050097F1F0FC018F01C1912C2F08
:102650002F7D89F0C53411F0C536B9F7F801108225
:1026600060E070E00E94DB89F801C083562F472F9D
:10267000382F292F0BC060E070E0CF911F910F9190
:102680000C94DB8950E040E030E020E0652F742FAF
:10269000832F922FCF911F910F91089581548A31EA
:1026A00008F041C0A82FB0E040910203509103030D
:1026B000609104037091050304C076956795579562
:1026C00047958A95D2F740FF2EC0E0919C0DF0917E
:1026D0009D0DA851BD4F8C918823E9F0E80FF11DA5
:1026E000808190ED980F9A3098F08E3211F48181AC
:1026F0000CC08D3211F08B3271F4818190ED980F06
:102700009A3030F08E3239F4828180538A3018F456
:102710009E2F8F2F02C090E080E09093A9058093B8
:10272000AA0581E0089580E00895B8DF882341F08C
:1027300081E02091A9053091AA05232B09F480E0BE
:102740000895AF92BF92CF92DF92EF92FF920F93D4
:102750001F93CF93DF938AE3A82E82E0B82E98E0F0
:10276000E92E93E0F92E0EE91DE023ECC22E23E0C2
:10277000D22EC0E0D0E0F50181915F018FDF882388
:1027800019F159DFFE01E55FFB4F2081211104C0E3
:1027900020910F04222341F0F801208131814281F0
:1027A00053810E945D920AC0C330D10539F0F60111
:1027B00020813181428153810E945C92F7016083C4
:1027C0007183828393830AC0F80180819181A28101
:1027D000B381F70180839183A283B3832196F4E0D0
:1027E000EF0EF11C0C5F1F4F84E0C80ED11CC430EB
:1027F000D10509F0C0CF86E498DF8823B9F01BDF4C
:1028000020E030E0A9010E94839418167CF413DFC5
:1028100020E030E040E752E40E94399360930202E6
:102820007093030280930402909305028091110437
:1028300083FD2AC0609114037091150380911603E3
:10284000909117032091AA0D3091AB0D4091AC0DE2
:102850005091AD0DE0917107EE23B1F00E945C92B2
:102860009B01AC016091820770918307809184077E
:10287000909185070E945D92609382077093830711
:102880008093840790938507DF91CF911F910F91DB
:10289000FF90EF90DF90CF90BF90AF9008954F9250
:1028A0005F926F927F92AF92BF92CF92DF92EF9240
:1028B000FF92CF93DF93EB01FC01608171818281F4
:1028C00093812CE3C22ED12CE12CF12CA70196018F
:1028D0000E942192B62EA72ECA01B901A701960126
:1028E0000E9421926B017C01CA01B90128E130E00C
:1028F00040E050E00E9421922B013C01C9016DE6AD
:1029000071E00E94329561157105D9F0AF92BF92C6
:10291000DF92CF925F924F929F938F937F936F93AB
:1029200080EB96E09F938F93DF93CF930E94E68D89
:102930008DB79EB70E960FB6F8949EBF0FBE8DBF93
:1029400061C00097C9F0AF92BF92DF92CF925F92C1
:102950004F929F938F9380EA96E09F938F93DF939C
:10296000CF930E94E68DEDB7FEB73C960FB6F89474
:10297000FEBF0FBEEDBF46C0411451046104710497
:10298000B9F0AF92BF92DF92CF925F924F9284E9FB
:1029900096E09F938F93DF93CF930E94E68D8DB740
:1029A0009EB70A960FB6F8949EBF0FBE8DBF2AC081
:1029B000C114D104E104F104A9F0AF92BF92DF92F7
:1029C000CF928CE896E09F938F93DF93CF930E94F2
:1029D000E68DEDB7FEB738960FB6F894FEBF0FBE82
:1029E000EDBF10C0AF92BF9288E896E09F938F939F
:1029F000DF93CF930E94E68D0F900F900F900F9072
:102A00000F900F90DF91CF91FF90EF90DF90CF90DC
:102A1000BF90AF907F906F905F904F90089580E14E
:102A2000EEE9FDE0A8E0B3E001900D928A95E1F7B0
:102A300008958F929F92AF92BF92FF920F931F9330
:102A4000CF93DF9300D01F921F92CDB7DEB7182F20
:102A50009091E6039770973051F48FE466DE8823F7
:102A600011F0DADD02C08FE419DE8111AFC00E94DF
:102A7000264280E0DBDA8091020290910302A0916D
:102A80000402B09105028093130690931406A0935C
:102A90001506B0931606809114029091150290933A
:102AA00012068093110684E690E0909315028093BD
:102AB000140281E080936903111115C088E5EEDDF1
:102AC000F82E89E5EBDD082F8AE5E8DDF11006C078
:102AD00001110FC081110EC0F02E09C0002349F072
:102AE000F02E182F07C0FF24F39401E081E011E0DD
:102AF00001C010E08D8393DF8D81111102C0882306
:102B000019F082E00E943F2582E50FDE882381F1E3
:102B100092DD4B015C0120E030E0A9010E94158E9E
:102B2000882331F1111104C0F11002C0002379F1A2
:102B30008092100390921103A0921203B09213039B
:102B40002091A60D3091A70D4091A80D5091A90D8F
:102B5000C501B4010E948394181654F419821A8294
:102B60001B821C82BE016F5F7F4F80E193E0B1DB6F
:102B7000111105C0011103C0F11006C008C081E0A9
:102B80000E943F251123C1F380E00E943F25FFDB17
:102B900080916803809369038091130690911406D5
:102BA000A0911506B091160680930202909303023D
:102BB000A0930402B0930502809111069091120631
:102BC00090931502809314020E9476560F900F90F6
:102BD0000F900F900F90DF91CF911F910F91FF9069
:102BE000BF90AF909F908F90089591E0909364066E
:102BF0009091C00095FFFCCF8093C6000895CF93BD
:102C0000DF93E7E9FEE18491EF012196882319F033
:102C1000ECDFFE01F8CFEAE1F8E08491EF012196C4
:102C2000882319F0E2DFFE01F8CFDF91CF910895FC
:102C3000CF93DF93EBE0F8E08491EF0121968823B6
:102C400019F0D3DFFE01F8CFDF91CF910895BF9245
:102C5000CF92DF92EF92FF920F931F93CF93DF9368
:102C6000CDB7DEB76E970FB6F894DEBF0FBECDBFFF
:102C700060910603709107036115710551F14DE1F3
:102C800050E0CE0101967C010E94BD8D1E8EF701A1
:102C90008F010E191F09B190BB2021F19AE0B912E2
:102CA000F7CF20C0B70184EC96E00E94146682E260
:102CB0009CDF8AE09ADFBB2051F10F5F1F4F8091AC
:102CC000060390910703080F191F10930703009341
:102CD000060381E02091060330910703232BD1F4F2
:102CE00080E018C0F701E00FF11F108260E0C7011B
:102CF0003AD9882371F3E1E9FEE184916F019FEFF6
:102D0000C91AD90A882371F270DFF601F6CF00E004
:102D100010E0DBCF6E960FB6F894DEBF0FBECDBFCE
:102D2000DF91CF911F910F91FF90EF90DF90CF90A7
:102D3000BF9008958F929F92AF92BF92CF92DF92F1
:102D4000EF92FF920F931F93CF93DF9380DF811158
:102D500028C180919405843008F023C1F0D8AC01DB
:102D600097FD1FC1982F2091D30D3091D40D8A303B
:102D700019F09D3009F0E3C01092100621153105BD
:102D800019F40E94C96AE5CFF901E055FA4F1082A3
:102D90001092D40D1092D30D20EB35E0E90188811B
:102DA0002F5F3F4F8032D1F38E018E3409F086C001
:102DB000209709F483C06DEC77E0CE010E94CC8DA2
:102DC000FF24F394892B11F4F12C09C06EE470E018
:102DD000CE0104960E948395009709F0EC014AE029
:102DE00050E060E070E0CE0101960E94418B60935C
:102DF000AC057093AD058093AE059093AF058090C0
:102E0000D50D9090D60DA090D70DB090D80D2FEF86
:102E1000821A920AA20AB20A681579058A059B05E8
:102E200029F0F11003C081ED96E02AC06AE270E05B
:102E3000C8010E94AC959C01009701F1982F901B4E
:102E4000C0E0992339F09150F801E90FF11D80811C
:102E5000C827F7CF4AE050E060E070E0C901019672
:102E60000E94418BCC2ED12CE12CF12C6C157D05D0
:102E70008E059F0599F08EEA97E002C084E897E0FE
:102E8000DF91CF911F910F91FF90EF90DF90CF9046
:102E9000BF90AF909F908F900C94C66D8091AC05C1
:102EA0009091AD05A091AE05B091AF058093D50D81
:102EB0009093D60DA093D70DB093D80D80911E029C
:102EC00081111BC067E470E0C8010E9483950097E0
:102ED000A1F04AE050E060E070E001960E94418B72
:102EE0006430710550F4EDE0F7E08491EF01219634
:102EF000882319F07ADEFE01F8CF6AEC72E0C8018F
:102F00000E948E95892B11F410921F026FEC72E0D3
:102F1000C8010E948E95892B21F484E097E00E94DD
:102F2000EE2864ED72E0C8010E948E95892B11F4A1
:102F30000E94BA5161E080EB95E015D80ACF2F3599
:102F400031050CF006CF9C35C1F40E949F0F97FD10
:102F500000CF209110062111FCCE2091D30D30918D
:102F6000D40DA9014F5F5F4F5093D40D4093D30D03
:102F7000F901E055FA4F8083ECCE9B3319F481E0E0
:102F800080931006809110068111E3CEC90101964D
:102F90009093D40D8093D30DF901E055FA4F4083FF
:102FA000D8CEDF91CF911F910F91FF90EF90DF90DE
:102FB000CF90BF90AF909F908F9008958F929F92E7
:102FC000AF92BF92EF92FF921F93CF93DF93CDB753
:102FD000DEB7A0970FB6F894DEBF0FBECDBF611568
:102FE00071058105910579F110E0842E912CA12CB9
:102FF000B12CEE24E394F12CEC0EFD1EE10EF11C3D
:1030000017FDFA94A50194010E942192F7016083B3
:10301000B901CA011F5F611571058105910549F765
:10302000115010F1E1E0F0E0EC0FFD1FE10FF11D98
:1030300017FDFA9580818A3010F097E301C090E384
:10304000890FD3DDEDCF80E3A0960FB6F894DEBFF5
:103050000FBECDBFDF91CF911F91FF90EF90BF903A
:10306000AF909F908F90C1CDA0960FB6F894DEBF21
:103070000FBECDBFDF91CF911F91FF90EF90BF901A
:10308000AF909F908F900895EF92FF920F931F93B0
:10309000CF93DF937C0184E548DBD82F882321F18F
:1030A000AADAC82F1816E4F4E1E9FEE184918F0151
:1030B0000F5F1F4F882319F098DDF801F7CF8DE4DB
:1030C00094DDB70180E090E04AE078DF6C2FCC0F10
:1030D000770B82ED97E00E94FB658AE086DD08C0F1
:1030E0008093DF03D0E004C0809109048093DF0364
:1030F0008D2FDF91CF911F910F91FF90EF90089549
:10310000CF92DF92EF92FF926B017C0197FF0AC092
:103110008DE26BDDF094E094D094C094C11CD11C7E
:10312000E11CF11C4AE0C701B601FF90EF90DF906F
:10313000CF9044CF8F929F92AF92BF92CF92DF9267
:10314000EF92FF92CF936B017C01B42E20E030E030
:10315000A9010E94158E87FF06C08DE246DDF7FAB1
:10316000F094F7F8F094C0E060E070E080E09FE356
:10317000CB1541F02DEC3CEC4CEC5DE30E947A8EDB
:10318000CF5FF6CF9B01AC01C701B6010E945D92F3
:103190006B017C010E94A6934B015C014AE00EDFAB
:1031A000CC2379F1C501B4010E94198E9B01AC01B9
:1031B000C701B6010E945C926B017C018EE215DDB5
:1031C00020E030E040E251E4C701B6010E947A8E6F
:1031D0004B015C010E94A1936B01770FEE08FF0881
:1031E000C701B6018DDFC701B6010E941B8E9B018E
:1031F000AC01C501B4010E945C926B017C01C1501D
:10320000F9F6CF91FF90EF90DF90CF90BF90AF9005
:103210009F908F900895EF92FF920F931F93CF93FB
:10322000DF93CDB7DEB769970FB6F894DEBF0FBE58
:10323000CDBF83E57ADA811103C0E7E8F8E007C083
:10324000CAD96E347105C9F70E940667D9C0849146
:103250008F010F5F1F4F882319F0C7DCF801F7CFEC
:10326000EEE7F8E084918F010F5F1F4F882319F07C
:10327000BCDCF801F7CF609176077091770780E0AA
:1032800090E04AE09BDEE1E7F8E084918F010F5F78
:103290001F4F882319F0A9DCF801F7CF6091780758
:1032A0007091790780E090E04AE088DEE6E6F8E099
:1032B00084918F010F5F1F4F882319F096DCF8016E
:1032C000F7CF60917607709177078091780790919A
:1032D0007907681B790B80913803815021E030E039
:1032E000823010F020E030E0621B730B80E090E051
:1032F0004AE064DE8AE079DCEEE5F8E084918F0153
:103300000F5F1F4F882319F070DCF801F7CF809111
:103310007A0790917B07A0917C07B0917D078E8BF7
:103320009F8BA88FB98FBE016F5F7F4FCE014696EE
:10333000B6DAE1E5F8E084918F010F5F1F4F81114C
:1033400005C0CE0101967C018C0103C04EDCF80162
:10335000F2CFF80181918F01882311F046DCF9CF7B
:1033600080917E0790917F07A0918007B09181079F
:103370008E8B9F8BA88FB98FBE016F5F7F4FCE0161
:1033800046968DDAE1E4F8E084918F010F5F1F4FDC
:10339000882319F02ADCF801F7CFF70181917F012A
:1033A000882311F022DCF9CF8AE01FDCE9E3F8E0A2
:1033B00084918F010F5F1F4F882319F016DCF801ED
:1033C000F7CFE9E2F8E084918F010F5F1F4F882368
:1033D00019F00BDCF801F7CF20E030E04AE754E4C5
:1033E000609182077091830780918407909185078F
:1033F0000E94399342E09EDE8DE6F7DB8AE0F5DB42
:1034000069960FB6F894DEBF0FBECDBFDF91CF91A6
:103410001F910F91FF90EF9008951F920F920FB69A
:103420000F9211240BB60F922F938F939F93EF93CC
:10343000FF9320914307E091420781E08E0F8F7741
:103440009091C600821729F0F0E0EE53F94F908377
:10345000E82FE0934207FF91EF919F918F912F9179
:103460000F900BBE0F900FBE0F901F9018954F92AC
:103470005F926F927F928F929F92AF92BF92CF9204
:10348000DF92EF92FF920F931F93CF93DF93F89405
:103490008FEF9FEF90938900809388000AE0D02EF1
:1034A000C0E0D0E0CC24C3947894809160069091E1
:1034B0006106A0916206B0916306892B8A2B8B2B43
:1034C00009F0D6C180915C0D8823D1F010925C0D7B
:1034D00080915A0D90915B0D892B91F010922006EE
:1034E00010925B0D10925A0D9091DC0D8091DD0DC4
:1034F000981731F08091DD0D8F5F8F708093DD0D17
:1035000080915A0D90915B0D892B09F4B1C14091C6
:103510005C0650915D0660915E0670915F06909129
:103520004F06009158061091590620915A06309185
:103530005B06041B150B260B370B892F90E0A0E0D0
:10354000B0E0081719072A073B0710F4D901C80192
:10355000282F840F951FA61FB71F80935C0690939A
:103560005D06A0935E06B0935F0680918400909103
:1035700085004E968090360690903706A0903806CB
:10358000B090390640912606509127066091280692
:1035900070912906480D591D6A1D7B1D4093360602
:1035A00050933706609338067093390677FD1CC038
:1035B000889A8090180390901903A0901A03B090F5
:1035C0001B0340911706042E000C550B660B770B5E
:1035D000480D591D6A1D7B1D409318035093190314
:1035E00060931A0370931B0380903A0690903B06F9
:1035F000A0903C06B0903D0640912A0650912B06C3
:1036000060912C0670912D06480D591D6A1D7B1D79
:1036100040933A0650933B0660933C0670933D06F8
:1036200077FD1CC08E9A80901C0390901D03A09083
:103630001E03B0901F0340911806042E000C550B7A
:10364000660B770B480D591D6A1D7B1D40931C03AB
:1036500050931D0360931E0370931F0380903E06DA
:1036600090903F06A0904006B090410640912E06F3
:1036700050912F066091300670913106480D591D0A
:103680006A1D7B1D40933E0650933F0660934006A3
:103690007093410677FD21C030910B013095387051
:1036A000309309018090200390902103A090220381
:1036B000B090230340911906042E000C550B660BA5
:1036C000770B480D591D6A1D7B1D409320035093B5
:1036D000210360932203709323038090420690900D
:1036E0004306A0904406B0904506409132065091A2
:1036F00033066091340670913506480D591D6A1DD8
:103700007B1D40934206509343066093440670939A
:10371000450677FD1CC0149A8090240390902503E1
:10372000A0902603B090270340911A06042E000CA7
:10373000550B660B770B480D591D6A1D7B1D409379
:10374000240350932503609326037093270340912D
:1037500084005091850048175907C8F340913606F8
:1037600050913706609138067091390677FD15C083
:103770008090220690902306A0902406B090250603
:10378000481959096A097B09409336065093370650
:103790006093380670933906889840913A065091A4
:1037A0003B0660913C0670913D0677FD15C0809008
:1037B000220690902306A0902406B0902506481972
:1037C00059096A097B0940933A0650933B06609376
:1037D0003C0670933D068E9840913E0650913F0600
:1037E000609140067091410677FD19C080902206D5
:1037F00090902306A0902406B090250648195909F8
:103800006A097B0940933E0650933F066093400649
:103810007093410630910B0138703093090140914B
:10382000420650914306609144067091450677FD2B
:1038300015C08090220690902306A0902406B09098
:103840002506481959096A097B0940934206509395
:10385000430660934406709345061498215041F046
:10386000409184005091850048175907C8F381CED4
:103870008091600690916106A0916206B091630606
:10388000892B8A2B8B2B09F0D9C5E0915A0DF09129
:103890005B0D309739F180915C0690915D06A091A7
:1038A0005E06B0915F0640915806509159066091AE
:1038B0005A0670915B0684179507A607B707C8F0EC
:1038C0001092200610925B0D10925A0D9091DC0D13
:1038D0008091DD0D981731F08091DD0D8F5F8F7035
:1038E0008093DD0D10ED412E17E0512E612C712CCF
:1038F000D7C3409154065091550660915606709179
:103900005706481759076A077B0708F49CC180903F
:10391000500690905106A0905206B090530686A98A
:1039200097A9A0ADB1AD88169906AA06BB0608F006
:103930006EC181149104A104B10449F480911C0664
:1039400090911D06A0911E06B0911F065CC190E0EB
:1039500040E0882D392D2A2D50E060E070E0E0E055
:10396000F0E0A0E0B0E0F091560DF89F712DEE2749
:10397000A091570DA89F700DE11D1090580D189E35
:10398000E00DF39F700DE11DA39FE00DF29FE00D90
:10399000572F6E2F579FF12DAA27BB275E9FF00D43
:1039A000A11DB91F679FF00DA11DB91F6E9FA00D2E
:1039B000B11D5A2F6B2F579F412DAA27BB275E9F02
:1039C000400DA11DB91F679F400DA11DB91F6E9F1E
:1039D000A00DB11D5A2F6B2FFF2780911C0630912F
:1039E0001D0620911E0600909C05092A09F483C03B
:1039F000A0919D05A59FF119890B390B290BB09159
:103A00009E05B59FF0198109390B290B40919F053F
:103A1000459F80193109290BA69FF0198109390B9F
:103A2000290BB69F80193109290B469F30192109AE
:103A3000579F412DAA27BB275E9F400DA11DB91F8F
:103A4000679F400DA11DB91F6E9FA00DB11D5A2F7C
:103A50006B2FA091A105A59FF10D891F391F291F6B
:103A6000B091A205B59FF00D811D391F291F40910E
:103A7000A305459F800D311D291FA69FF00D811DB7
:103A8000391F291FB69F800D311D291F469F300DFC
:103A9000211D579F412DAA27BB275E9F400DA11DC9
:103AA000B91F679F400DA11DB91F6E9FA00DB11DCD
:103AB0005A2F6B2FA091A505A59FF119890B390BE2
:103AC000290BB091A605B59FF0198109390B290B77
:103AD0004091A705459F80193109290BA69FF01930
:103AE0008109390B290BB69F80193109290B469F93
:103AF0003019210982C0A0919D05A59FF10D891F54
:103B0000391F291FB0919E05B59FF00D811D391FEA
:103B1000291F40919F05459F800D311D291FA69F9C
:103B2000F00D811D391F291FB69F800D311D291FE2
:103B3000469F300D211D579F412DAA27BB275E9F11
:103B4000400DA11DB91F679F400DA11DB91F6E9F9C
:103B5000A00DB11D5A2F6B2FA091A105A59FF119A2
:103B6000890B390B290BB091A205B59FF01981097A
:103B7000390B290B4091A305459F80193109290B69
:103B8000A69FF0198109390B290BB69F80193109BD
:103B9000290B469F30192109579F412DAA27BB2782
:103BA0005E9F400DA11DB91F679F400DA11DB91F4C
:103BB0006E9FA00DB11D5A2F6B2FA091A505A59F3B
:103BC000F10D891F391F291FB091A605B59FF00D72
:103BD000811D391F291F4091A705459F800D311D6B
:103BE000291FA69FF00D811D391F291FB69F800D2B
:103BF000311D291F469F300D211D112490E0932B6C
:103C0000A0E0B0E0A22B2FE830E141E011C082A992
:103C100093A9A4A9B5A9F7CFB695A7959795879528
:103C2000440F2C5F3F4F50E12B3A350709F44CC449
:103C3000F9014590559065907490481659066A06AA
:103C40007B0650F341C440914B0650914C06609165
:103C50004D0670914E06481759076A077B0708F012
:103C6000B4C180914A0681111EC0DF01AE5BBF4F17
:103C7000ED90FD900D911C9113971D962D913D9106
:103C80004D915C9162A973A984A995A90E940165CF
:103C9000C0924A06E0915A0DF0915B0D82A993A95A
:103CA000A4A9B5A983C18090460690904706A0902C
:103CB0004806B090490682AD93ADA4ADB5AD881667
:103CC0009906AA06BB0608F06BC181149104A104F1
:103CD000B10449F480911C0690911D06A0911E0626
:103CE000B0911F0663C190E040E0882D392D2A2D48
:103CF00050E060E070E0E0E0F0E0A0E0B0E0F091E3
:103D0000560DF89F712DEE27A091570DA89F700DAD
:103D1000E11D1090580D189EE00DF39F700DE11DF0
:103D2000A39FE00DF29FE00D572F6E2F579FF12DAF
:103D3000AA27BB275E9FF00DA11DB91F679FF00D3D
:103D4000A11DB91F6E9FA00DB11D5A2F6B2F579F3C
:103D5000412DAA27BB275E9F400DA11DB91F679F5C
:103D6000400DA11DB91F6E9FA00DB11D5A2F6B2FC5
:103D7000FF2780911C0630911D0620911E060090A1
:103D80009C05092A09F483C0A0919D05A59FF119FE
:103D9000890B390B290BB0919E05B59FF01981094C
:103DA000390B290B40919F05459F80193109290B3B
:103DB000A69FF0198109390B290BB69F801931098B
:103DC000290B469F30192109579F412DAA27BB2750
:103DD0005E9F400DA11DB91F679F400DA11DB91F1A
:103DE0006E9FA00DB11D5A2F6B2FA091A105A59F0D
:103DF000F10D891F391F291FB091A205B59FF00D44
:103E0000811D391F291F4091A305459F800D311D3C
:103E1000291FA69FF00D811D391F291FB69F800DF8
:103E2000311D291F469F300D211D579F412DAA2767
:103E3000BB275E9F400DA11DB91F679F400DA11DAF
:103E4000B91F6E9FA00DB11D5A2F6B2FA091A50514
:103E5000A59FF119890B390B290BB091A605B59FC8
:103E6000F0198109390B290B4091A705459F80194D
:103E70003109290BA69FF0198109390B290BB69F2F
:103E800080193109290B469F3019210982C0A09160
:103E90009D05A59FF10D891F391F291FB0919E0512
:103EA000B59FF00D811D391F291F40919F05459F2A
:103EB000800D311D291FA69FF00D811D391F291F5F
:103EC000B69F800D311D291F469F300D211D579F24
:103ED000412DAA27BB275E9F400DA11DB91F679FDB
:103EE000400DA11DB91F6E9FA00DB11D5A2F6B2F44
:103EF000A091A105A59FF119890B390B290BB09150
:103F0000A205B59FF0198109390B290B4091A30532
:103F1000459F80193109290BA69FF0198109390B9A
:103F2000290BB69F80193109290B469F30192109A9
:103F3000579F412DAA27BB275E9F400DA11DB91F8A
:103F4000679F400DA11DB91F6E9FA00DB11D5A2F77
:103F50006B2FA091A505A59FF10D891F391F291F62
:103F6000B091A605B59FF00D811D391F291F409105
:103F7000A705459F800D311D291FA69FF00D811DAE
:103F8000391F291FB69F800D311D291F469F300DF7
:103F9000211D112490E0932BA0E0B0E0A22B06C0DD
:103FA000E15BFF4F80819181A281B3812FE830E1F5
:103FB00041E0F90185909590A590B49088169906F6
:103FC000AA06BB0608F4E3C2EEC2809121029091DA
:103FD0002202A0912302B0912402B7FF59C0E95BED
:103FE000FF4F80819181A281B3812FE830E141E0D0
:103FF000F90185909590A590B49088169906AA0627
:10400000BB0658F4B695A79597958795440F2C5FF6
:104010003F4FF0E12B3A3F0759F740934F0680326C
:104020009105A105B10508F44FC38097A109B10915
:104030008115F8E09F07A105B10508F420C324E02D
:10404000929FF00111249F012157334FF9013296BD
:1040500045915491EE27859FB001849F610D7E1F8D
:1040600006946E1F7E1F1124AB0160E070E0F90121
:1040700085919491A0E0B0E0841B950BA60BB70B43
:104080008093210290932202A0932302B0932402F2
:1040900040902102509022026090230270902402EE
:1040A00080915A0D90915B0D892B09F0BFC10E9440
:1040B0008C6590935B0D80935A0D892B09F4B6C1E2
:1040C000E0915A0DF0915B0D808183FF48C0858996
:1040D0009689A789B08D418D528D638D748D8C0129
:1040E0009D01040F151F261F371F009318031093FF
:1040F000190320931A0330931B03841B950BA60B03
:10410000B70B80931C0390931D03A0931E03B093E1
:104110001F03858D968DA78DB0A18093200390936A
:104120002103A0932203B093230381A192A1A3A111
:10413000B4A18093240390932503A0932603B09306
:1041400027039091DC0D8091DD0D981709F4AFCF16
:104150008091DD0D8F5F8F708093DD0DA8CF458935
:1041600056896789708D018D128D238D348DCF0115
:104170008A5B9F4F7C01401751076207730789F4E0
:10418000411551056105710579F0DC019C91A92F5C
:10419000A1708A2F8C25969591708927A91302C04A
:1041A00004C081E0826001C080E0858C968CA78C81
:1041B000B0A081149104A104B10409F0846080933B
:1041C000200610924606109247061092480610925A
:1041D0004906109250061092510610925206109203
:1041E000530685A196A1A7A1B0A5809358069093E8
:1041F0005906A0935A06B0935B0644245524320115
:10420000481A590A6A0A7B0A4092420650924306AB
:10421000609244067092450640923E0650923F06D8
:10422000609240067092410640923A0650923B06D8
:1042300060923C0670923D064092360650923706D8
:104240006092380670923906440F551F661F771F1B
:1042500040932606509327066093280670932906FC
:10426000000F111F221F331F00932A0610932B06E5
:1042700020932C0630932D06880C991CAA1CBB1C7D
:1042800080922E0690922F06A0923006B0923106B0
:1042900041A152A163A174A1440F551F661F771F4E
:1042A000409332065093330660933406709335067C
:1042B000880F991FAA1FBB1F809322069093230685
:1042C000A0932406B093250610925C0610925D061A
:1042D00010925E0610925F0682A593A5A4A5B5A5CF
:1042E0008093540690935506A0935606B0935706B4
:1042F00086A597A5A0A9B1A980934B0690934C06DB
:10430000A0934D06B0934E0681A580932106F70138
:10431000908120911B0692130AC02091200230E068
:10432000482F082E000C550B4217530731F090937D
:104330001B06809320020E945365809169038111BE
:104340000E945A5F8FEF9FEFDC01809321029093D0
:104350002202A0932302B0932402E0915A0DF0911F
:104360005B0DDF01DE96ED90FD900D911C9122A971
:1043700033A944A955A9E55BFF4F60817181828112
:1043800093810E94016510924A06E0915A0DF091C6
:104390005B0DE55BFF4F80819181A281B3812FE8A6
:1043A00030E141E0F90185909590A590B490881690
:1043B0009906AA06BB0658F4B695A79597958795D2
:1043C000440F2C5F3F4F50E12B3A350759F740938C
:1043D0004F0680329105A105B10508F49DC1809773
:1043E000A109B1098115E8E09E07A105B10508F40E
:1043F00070C1F4E09F9F900111242157334FF901C0
:10440000329645915491EE27859FB001849F610DAE
:104410007E1F06946E1F7E1F1124F9014590549053
:10442000612C712C461A570A610871084092600687
:1044300050926106609262067092630680916006F7
:1044400090916106A0916206B0916306AC01BD0136
:10445000009721E0A207B10520F04FEF5FEF60E089
:1044600070E0841B950BA60BB70B809360069093AE
:104470006106A0936206B0936306F894809184006D
:10448000909185004096DA94DD2039F0C40FD51F55
:10449000C817D90708F408C801C0EC01D0938900F7
:1044A000C09388007894DF91CF911F910F91FF9076
:1044B000EF90DF90CF90BF90AF909F908F907F90C4
:1044C0006F905F904F90089540934F068032910512
:1044D000A105B10508F456C08097A109B10981155D
:1044E00028E09207A105B105F0F044E0949F900107
:1044F00011242157334FF901329645915491EE27FB
:10450000859FB001849F610D7E1F06946E1F7E1FE4
:104510001124F90145905490612C712C461A570AC8
:104520006108710822C0AC01BD0176956795579569
:104530004795FA01EC7FAF014157574FFA0125919A
:104540003491FA013296659174918770869FA0012B
:10455000879F500D1124B3E056954795BA95E1F722
:10456000241B350B2901612C712C840C951CA61C75
:10457000B71C8092500690925106A0925206B092BB
:1045800053068ECD80E290E0A0E0B0E0A5CFB695D6
:10459000A79597958795440F2C5F3F4FE0E12B3A05
:1045A0003E0709F006CD40934F0680329105A105E4
:1045B000B10508F45FC08097A109B109811558E0E1
:1045C0009507A105B105F0F0E4E09E9F900111244C
:1045D0002157334FF901329645915491EE27859F2B
:1045E000B001849F610D7E1F06946E1F7E1F1124F3
:1045F000F90145905490612C712C461A570A6108B4
:10460000710823C0AC01BD01769567955795479514
:10461000FA01EC7FAF014157574FFA0125913491D0
:10462000FA013296459154918770849FB001859F1D
:10463000700D1124CB01F3E096958795FA95E1F77B
:10464000281B390B2901612C712C80914606909111
:104650004706A0914806B0914906840D951DA61DF8
:10466000B71D8093460690934706A0934806B093E3
:10467000490616CD80E290E0A0E0B0E09CCFAC010E
:10468000BD017695679557954795FA01EC7FAF0187
:104690004157574FFA0125913491FA0132964591CD
:1046A00054918770849FB001859F700D1124CB01B8
:1046B00043E0969587954A95E1F7A901481B590B68
:1046C000CA01A0E0B0E0DCCC80E290E0A0E0B0E085
:1046D000ACCCAC01BD017695679557954795FA012D
:1046E000EC7F9F012157374FF90145905490F90114
:1046F0003296259134918770829FA001839F500D3F
:104700001124CA01A3E096958795AA95E1F7481A66
:10471000590A612C712C8ACE80E290E0A0E0B0E0D2
:104720005ECE8F929F92AF92BF92CF92DF92EF9226
:10473000FF920F93CF93DF931F92CDB7DEB77C012B
:104740005B016A0149018091C1068823F1F0F701FC
:1047500040815181C40ED51ED182C08223C0011177
:104760001EC0BE016F5F7F4FC4010E94056EF7013E
:10477000408151814F5F5F4F51834083FFEFAF1AFC
:10478000BF0A81E0C81AD10869F0F70180819181E0
:104790000E94DB918983909108049111E0CFF5018B
:1047A0008083DFCF0F90DF91CF910F91FF90EF903B
:1047B000DF90CF90BF90AF909F908F9008958F9291
:1047C0009F92AF92BF92CF92DF92EF92FF920F93A0
:1047D0001F93CF93DF931F921F92CDB7DEB7E09167
:1047E000C106E11107C069017C015B018B01040F67
:1047F000151F22C0FC0120813181420F531F5183BC
:10480000408342C0F70180809180F50161915F0192
:104810006983C4016A830E94DB916A81681310C0B6
:10482000BE016F5F7F4FC6010E94056EF701808158
:104830009181019691838083A016B10619F724C057
:10484000C4010E940492C4010E94DB9199818917DE
:1048500039F3E1E9FEE184918F010F5F1F4F882357
:1048600021F00E94F515F801F6CFE8EBF2E1849112
:104870008F010F5F1F4F882321F00E94F515F8016B
:10488000F6CF81E08093C1060F900F90DF91CF911A
:104890001F910F91FF90EF90DF90CF90BF90AF905E
:1048A0009F908F900895CF93DF93CDB7DEB72C976D
:1048B0000FB6F894DEBF0FBECDBF80919E0D9091D4
:1048C0009F0DA091A00DB091A10D89839A83AB8318
:1048D000BC838091A20D9091A30DA091A40DB091E5
:1048E000A50D8D839E83AF83B8878091A60D90918F
:1048F000A70DA091A80DB091A90D89879A87AB87C4
:10490000BC870E9446670E94014380E00E94871195
:1049100081E00E94871182E00E9487110E949568C1
:104920004CE050E06EE97DE0CE0101960E94769564
:10493000892B51F02C960FB6F894DEBF0FBECDBF79
:10494000DF91CF910C9476562C960FB6F894DEBF7B
:104950000FBECDBFDF91CF910895CF92DF92EF923E
:10496000FF92CF93DF93EC01C090CF03D090D003A0
:10497000E090D103F090D203A7019601688179817C
:104980008A819B810E94158E87FF04C0C882D982CC
:10499000EA82FB82C090D303D090D403E090D50389
:1049A000F090D603A70196016C817D818E819F8155
:1049B0000E94158E87FF04C0CC82DD82EE82FF82CA
:1049C000C0900702D0900802E0900902F0900A021D
:1049D000A7019601688179818A819B810E948394D5
:1049E000181624F4C882D982EA82FB82C0900B0296
:1049F000D0900C02E0900D02F0900E02A7019601FB
:104A00006C817D818E819F810E948394181624F48D
:104A1000CC82DD82EE82FF82C090D703D090D80393
:104A2000E090D903F090DA03A701960168857985B3
:104A30008A859B850E94158E87FF04C0C886D9860B
:104A4000EA86FB86C0900F02D0901002E09011021F
:104A5000F0901202A7019601688579858A859B8569
:104A60000E948394181624F4C886D986EA86FB86A9
:104A7000DF91CF91FF90EF90DF90CF9008954F920C
:104A80005F926F927F928F929F92AF92BF92DF92CE
:104A9000EF92FF920F931F93CF93DF93D82EC82FDF
:104AA000D0E0FE01E65CFA4F64917E01EE0CFF1C43
:104AB000EE0CFF1CF701E455FD4E459055906590B6
:104AC0007490062E000C770B880B990B0E941B8E9E
:104AD0004B015C0120E030E040EC5FE3C301B20138
:104AE0000E947A8EA50194010E947A8EAB01BC01CE
:104AF00000E010E098018D2D0E940E12F701E056A3
:104B0000FD4E2591359145915491C501B4010E9406
:104B10007A8E4B015C0120E030E0A9010E94158EE5
:104B2000882309F448C000E010E09801B501A40111
:104B300070588D2D0E940E12FE01E356FD4E4491D9
:104B4000411117C0E1E9FEE18491EF01219688232C
:104B500021F00E94F515FE01F7CFEBE7F2E1849119
:104B6000EF012196882321F00E94F515FE01F7CF71
:104B70004AE0F701E559FD4E4590559065907490D7
:104B8000642F70E080E090E00E941B8E9B01AC01DE
:104B9000C301B2010E9439932B013C01A50194018C
:104BA000C501B4010E945D92AB01BC019301820179
:104BB0008D2D0E940E1281E090E00D2C01C0880F17
:104BC0000A94EAF79091E603982B9093E60390916C
:104BD000D20D892B8093D20DF701E85DFC4F108236
:104BE0001182128213828D2D0E948711F701E05FDE
:104BF000FA4F85919591A591B491E701C256D24F94
:104C000088839983AA83BB830E94C711F701E85F59
:104C1000FC4F88819981AA81BB8180839183A28383
:104C2000B383DF91CF911F910F91FF90EF90DF90B1
:104C3000BF90AF909F908F907F906F905F904F90BC
:104C40000895EF92FF920F931F93CF93DF931F92DC
:104C50001F92CDB7DEB782E08093C0001092C500EE
:104C600080E18093C4008091C10080618093C10085
:104C70008091C10088608093C1008091C1008068EC
:104C80008093C10010926406E4E6F2E184918F0102
:104C90000F5F1F4F882321F00E94F515F801F6CF12
:104CA000E1E9FEE184918F010F5F1F4F882321F01E
:104CB0000E94F515F801F6CF14B710FF0DC0EBE513
:104CC000F2E184917F019FEFE91AF90A882321F02C
:104CD0000E94F515F701F5CF11FF0DC0EAE4F2E1EE
:104CE00084917F019FEFE91AF90A882321F00E943D
:104CF000F515F701F5CF12FF0DC0E8E3F2E184915D
:104D00007F019FEFE91AF90A882321F00E94F51527
:104D1000F701F5CF13FF0DC0E7E2F2E184917F01C7
:104D20009FEFE91AF90A882321F00E94F515F7018F
:104D3000F5CF15FF0CC0E6E1F2E184918F010F5F22
:104D40001F4F882321F00E94F515F801F6CF14BEFD
:104D5000EFE0F2E184918F010F5F1F4F882321F074
:104D60000E94F515F801F6CF80E20E94F515E8E003
:104D7000F2E184918F010F5F1F4F882321F00E9481
:104D8000F515F801F6CFE1E9FEE184918F010F5F9F
:104D90001F4F882321F00E94F515F801F6CFE9EEA8
:104DA000F1E184918F010F5F1F4F882321F00E9452
:104DB000F515F801F6CFE1E9FEE184918F010F5F6F
:104DC0001F4F882321F00E94F515F801F6CFECEC77
:104DD000F1E184918F010F5F1F4F882321F00E9422
:104DE000F515F801F6CF8AE00E94F515E1E9FEE13C
:104DF00084918F010F5F1F4F882321F00E94F515CA
:104E0000F801F6CFECEBF1E184918F010F5F1F4FBA
:104E1000882321F00E94F515F801F6CFEBEAF1E1C5
:104E200084918F010F5F1F4F882321F00E94F51599
:104E3000F801F6CFE0E9F1E184918F010F5F1F4F98
:104E4000882321F00E94F515F801F6CFE1E9FEE193
:104E500084918F010F5F1F4F882321F00E94F51569
:104E6000F801F6CFE9E7F1E184918F010F5F1F4F61
:104E7000882321F00E94F515F801F6CFE1E9FEE163
:104E800084918F010F5F1F4F882321F00E94F51539
:104E9000F801F6CF2091220E3091230ECE0101961B
:104EA0002115310519F488529E4002C0821B930BD4
:104EB0009A83898369817A818AE691E10E94FB6500
:104EC00060ED75E083E591E10E94FB658AE00E9458
:104ED000F51581E0809365068093660680936706EA
:104EE000809368060E94B4648CE0E7EBF3E0AEE9DF
:104EF000BDE001900D928A95E1F70E94C711249AB6
:104F000080910101806280930101809101018064A0
:104F10008093010187ED80937A0010927E001092B9
:104F20007D0080917D00806280937D0080917D0076
:104F3000806480937D0080E888BD80916E008460ED
:104F400080936E006AEF70E080E090E0DED685E04E
:104F500090E09093720D8093710D60E08091270234
:104F60009091280297D720E030E040EA50E40E9478
:104F7000158E87FF0AC080912702909128024097E2
:104F80009093280280932702E8CF83E191E09093E9
:104F900039028093380260E08091980690919906DA
:104FA00079D720E030E849E853E40E94839418164A
:104FB00054F48091980690919906409690939906A2
:104FC00080939806E8CF80912502909126020E9456
:104FD000EC3220E030E040EA50E40E94158E87FF7A
:104FE0000AC0809125029091260240979093260254
:104FF00080932502E8CF80919606909197060E94B3
:10500000EC3220E030E046E153E40E94839418162D
:1050100054F4809196069091970640969093970647
:1050200080939606E8CF1092380310926D0D10927F
:105030006E0D10926F0D1092700D1092340310923D
:10504000350310923603109237031092690D1092B7
:105050006A0D10926B0D10926C0D82E390E00E942D
:10506000DB91863119F00E94066708C040E150E0EC
:1050700063E370E086E797E00E94CB9191E0909324
:1050800071076D98759A809104018E7F8093040159
:1050900080910501809581708093030152985A9AFE
:1050A0001092690310926803819A879A80910A018D
:1050B000826080930A010E9A3B9A579A5F9A829A6D
:1050C0008A9A80910701816080930701809108018D
:1050D00080958170809306010A9A129A3F9A479AA6
:1050E000809A88985F9A8091E6038E7F8093E6038A
:1050F000869A8E988A9A8091E6038D7F8093E60344
:1051000080910A01886080930A0180910B01887068
:105110008093090180910801809581708093060138
:105120008091E6038B7F8093E6030C9A1498129A81
:10513000809180008C7F8093800080918100877EA9
:10514000886080938100809180008F7380938000BD
:1051500080918100887F82608093810020E030E42C
:10516000309389002093880010928500109284006B
:1051700080916F00826080936F00909369037894B0
:105180000E94536598E288E10FB6F894A895809341
:1051900060000FBE909360000F900F90DF91CF9151
:1051A0001F910F91FF90EF9008955F9A8091E60311
:1051B0008E7F8093E6038A9A8091E6038D7F8093A9
:1051C000E6038091080180958170809306018091AB
:1051D000E6038B7F8093E603129A0895E7E9FEE1E8
:1051E0008491EF012196882321F00E94F515FE019C
:1051F000F7CFE3E3F1E18491EF012196882321F0D9
:105200000E94F515FE01F7CF0E94C832CEDF2FEFC6
:105210008BE49DE1215080409040E1F700C0000008
:10522000F8942FEF84E39CE0215080409040E1F718
:1052300000C000000E94C832A895FECF2F923F9276
:105240004F925F926F927F928F929F92AF92BF9296
:10525000CF92DF92EF92FF920F931F93CF93DF9342
:1052600000D0CDB7DEB7C0D56B017C0180910602BE
:10527000882309F468C080911004882309F463C06E
:105280004091690650916A0660916B0670916C06B8
:1052900097018601041B150B260B370B37FD66C0E3
:1052A000833019F134F481300CF44DC0E1E9FEE1B2
:1052B00006C0843009F047C0E1E9FEE12EC08491C8
:1052C0008F010F5F1F4F882321F00E94F515F80111
:1052D000F6CFEEEDF0E184918F010F5F1F4F882331
:1052E00091F10E94F515F801F6CFE1E9FEE1849114
:1052F0008F010F5F1F4F882321F00E94F515F801E1
:10530000F6CFE7ECF0E184918F010F5F1F4F882308
:10531000D1F00E94F515F801F6CF84918F010F5F4F
:105320001F4F882321F00E94F515F801F6CFEFEA10
:10533000F0E184918F010F5F1F4F882321F00E94BD
:10534000F515F801F6CF2091060230E0A8EEB3E0A3
:105350000E944D92C60ED71EE81EF91EC092690625
:10536000D0926A06E0926B06F0926C0680919405EA
:10537000843010F40E949A1637D5C0905403D09010
:105380005503E0905603F0905703C114D104E10493
:10539000F10471F1009144031091450320914603FB
:1053A000309147030C0D1D1D2E1D3F1D6B017C010F
:1053B000C01AD10AE20AF30AF7FC1AC0E7E9FEE1D3
:1053C00084918F010F5F1F4F882321F00E94F515F4
:1053D000F801F6CF60919C0D70919D0D89EF90E1E1
:1053E0000E9414668AE00E94F51580EF90E1F6DED7
:1053F000C0905003D0905103E0905203F0905303BB
:10540000C114D104E104F104D9F13091DC0D2091F3
:10541000DD0D321749F06093440370934503809388
:105420004603909347032CC0009144031091450319
:1054300020914603309147030C0D1D1D2E1D3F1D6D
:10544000DC01CB01801B910BA20BB30BB7FD18C085
:105450005F9A8091E6038E7F8093E6038A9A80911B
:10546000E6038D7F8093E60380910801809581702B
:10547000809306018091E6038B7F8093E603129A66
:105480009091DC0D8091DD0D981791F0E091DD0D8C
:105490000DE5E09FF0011124E352F84F6081809107
:1054A000DD0D9091DC0D891729F08F5F8F70F9CF9A
:1054B00060914E0370E089E0FFD2809195068823C9
:1054C00009F4FEC00091300210913102C090320206
:1054D000CB82D0903302DA82609142037091430311
:1054E0006E5F7F4F072E000C880B990B0E941B8E5E
:1054F0009801A6010E94158E87FDE2C0F090DD0D97
:10550000212C312CE12C19828091DC0DF81609F444
:1055100062C08F2D90E02DE5289FF001299FF00DAE
:105520001124EA57F84F458956896789708D452BB4
:10553000462B472B81F4418D528D638D748D452B05
:10554000462B472B41F4458D568D678D70A1452B19
:10555000462B472BD9F14DE5489F9001499F300DCF
:105560001124C9018A57984F6C01FC016181728135
:10557000838194810E94C8944B015C01F60161A172
:1055800072A183A194A10E94198E2B013C01F60106
:1055900065A176A187A190A50E94198E9B01AC01FF
:1055A000C301B2010E943993A50194010E947A8E31
:1055B0005B016C019B01AC01B1018E2D99810E94B0
:1055C000158E87FF03C01501EC2CD98281E08F0D69
:1055D0008F70F82E99CF209134023091350240918E
:1055E000360250913702B1018E2D99810E947A8E38
:1055F0009B01AC01B8018B819A810E945D926B0185
:105600007C0198014B815A810E94158E87FD16C03E
:1056100000912C0210912D02F0912E02FB8320911B
:105620002F022A8398014F2F5A81B601C7010E9489
:10563000839418161CF08601EB82FA82C0906D06E6
:10564000D0906E06E0906F06F0907006A70196016C
:10565000B8018B819A810E94158E87FF1CC020E0C3
:1056600037ED43EA5CE3B8018B819A810E947A8E20
:105670004B015C0128E431EE4AE75FE3C701B60164
:105680000E947A8E9B01AC01C501B4010E945D921B
:105690008B018B839A83C801AB81BA8180936D069D
:1056A00090936E06A0936F06B0937006B801CD017B
:1056B0000E94A193709343036093420380E01ED73E
:1056C0000E94C96A10913803113009F08AC0809194
:1056D000810681110BC088D360937D0670937E068E
:1056E00080937F06909380061093810680917506C3
:1056F00081110CC079D36093710670937206809308
:1057000073069093740681E0809375066DD36B01E8
:105710007C0180917D0690917E06A0917F06B091DC
:10572000800697018601081B190B2A0B3B0BD90138
:10573000C80180319742A105B105A0F180907207A0
:1057400090907307A0907407B09075070E94216C29
:105750006093720770937307809374079093750733
:1057600000917A0710917B0720917C0730917D078B
:10577000081919092A093B09DC01CB01800F911F87
:10578000A21FB31F80937A0790937B07A0937C0797
:10579000B0937D07C0927D06D0927E06E0927F0690
:1057A000F09280068091710690917206A091730626
:1057B000B0917406A7019601281B390B4A0B5B0BAD
:1057C000DA01C90180389E4EA105B10550F0C092A2
:1057D0007106D0927206E0927306F09274060E94EF
:1057E0008C6680913D03882309F442C0FDD200916C
:1057F000390310913A0320913B0330913C03DC01C3
:10580000CB01801B910BA20BB30BB7FD31C0ECD2C7
:105810006B017C0120913D0330E0A8EEB3E00E94D3
:105820004D92DC01CB018C0D9D1DAE1DBF1D8093E3
:10583000390390933A03A0933B03B0933C03C6D340
:105840008AE00F900F900F90DF91CF911F910F91F1
:10585000FF90EF90DF90CF90BF90AF909F908F9090
:105860007F906F905F904F903F902F900C94F51524
:105870000F900F900F90DF91CF911F910F91FF909C
:10588000EF90DF90CF90BF90AF909F908F907F90E0
:105890006F905F904F903F902F90089590E0FC01A3
:1058A0003197E231F10508F04EC08827EE58FF4FDE
:1058B0008F4F0C946295809180008F7703C0809108
:1058C00080008F7D80938000089580918000877F85
:1058D000F9CF84B58F7702C084B58F7D84BD0895DC
:1058E0008091B0008F7703C08091B0008F7D80934E
:1058F000B0000895809190008F7707C0809190004C
:105900008F7D03C080919000877F809390000895E1
:105910008091A0008F7707C08091A0008F7D03C089
:105920008091A000877F8093A0000895809120013E
:105930008F7707C0809120018F7D03C08091200167
:10594000877F8093200108953FB7F8948091B8062F
:105950009091B906A091BA06B091BB0626B5A89B56
:1059600005C02F3F19F00196A11DB11D3FBFBA2FF1
:10597000A92F982F8827820F911DA11DB11DBC0151
:10598000CD0142E0660F771F881F991F4A95D1F716
:105990000895CF93DF93282F30E0F901EB54FB4EAD
:1059A0008491F901E159FB4ED491F901E75DFB4E79
:1059B000C491CC2389F0811171DFEC2FF0E0EE0F60
:1059C000FF1FE15FFB4EA591B491EC91ED2381E0C7
:1059D00090E021F480E002C080E090E0DF91CF9180
:1059E00008951F93CF93DF93282F30E0F901EB54F4
:1059F000FB4E8491F901E159FB4ED491F901E75D29
:105A0000FB4EC491CC23C1F0162F811147DFEC2F40
:105A1000F0E0EE0FFF1FEB50FC4EA591B4918FB755
:105A2000F894111105C09C91ED2FE095E92302C077
:105A3000EC91ED2BEC938FBFDF91CF911F910895E7
:105A4000CF93DF9390E0FC01E159FB4E2491FC01E0
:105A5000E75DFB4E8491882361F190E0880F991FE8
:105A6000FC01E552FC4EC591D491FC01EB50FC4E7B
:105A7000A591B491611109C09FB7F89488812095D0
:105A800082238883EC912E230BC0623061F49FB790
:105A9000F8943881822F809583238883EC912E2B74
:105AA0002C939FBF06C08FB7F894E8812E2B2883D4
:105AB0008FBFDF91CF9108951F93CF93DF93182F5E
:105AC000EB0161E0BDDF209711F460E004C0CF3F3F
:105AD000D10531F461E0812FDF91CF911F9181CF0A
