:100000000C9472130C94A3130C94A3130C94A313C9
:100010000C94A3130C94A3130C94A3130C94A31388
:100020000C94A3130C94A3130C94A3130C94A31378
:100030000C94A3130C94A3130C94A3130C94A31368
:100040000C94A3130C94BB600C94A3130C94A313F3
:100050000C94A3130C94A3130C94BA6E0C94A28F5B
:100060000C94A3130C94931D0C94A3130C94A3133E
:100070000C94A3130C94A3130C94A3130C94A31328
:100080000C94A3130C94A3130C94A3130C94A31318
:100090000C94A3130C94A3130C94A3130C94A31308
:1000A0000C94A3130C94A3130C94A3130C94A313F8
:1000B0000C94A3130C94A3130C94A3130C94A313E8
:1000C0000C94A3130C94A3130C94A3130C94A313D8
:1000D0000C94A3130C94A3130C94A3130C94A313C8
:1000E0000C94A313F28DF58DE48DE88DEE8D2C8E9E
:1000F000F98DFD8D038E078E0B8E118E158E198E48
:100100002C8E1F8E238E278EBE8EC38EC88ED28ECF
:10011000DC8E558FE68EEE8EF68E008F0A8F148F52
:10012000238F2D8F558F378F418F4B8F084AD73BA9
:100130003BCE016E84BCBFFDC12F3D6C74319ABDB6
:1001400056833DDA3D00C77F11BED9E4BB4C3E91DA
:100150006BAAAABE000000803F05A84CCDB2D44EC9
:10016000B93836A9020C50B9918688083CA6AAAACB
:100170002ABE000000803F004E414E494E4954596E
:10018000494E46CDCCCC3D0AD7233C17B7D1387762
:10019000CC2B329595E6241FB14F0A000020410078
:1001A00000C84200401C4620BCBE4CCA1B0E5AAEC2
:1001B000C59D744C4556454C494E4700434F4D4DE7
:1001C000554E49434154494F4E0044525952554EA1
:1001D000004552524F525300494E464F0045434846
:1001E0004F0047322F473320626164207061726193
:1001F0006D65746572730A003C3C3C204732380AD6
:10020000005261697365205A20286265666F7265C5
:1002100020686F6D696E672920746F20003E20652D
:100220006E6473746F70732E656E61626C65287492
:10023000727565290A003C3C3C204732380A003E72
:1002400020686F6D696E67206E6F74206E656564DF
:1002500065642C20736B69700A003E3E3E20473275
:10026000380A00205A3A200020593A20004265649A
:1002700020583A20004D65736820706F696E7420B5
:1002800063616E6E6F74206265207265736F6C7649
:1002900065640A005072696E742074696D653A2055
:1002A00000DD01D801D101CA01BC01B3016F66664E
:1002B0000044454255473A004B494C4C45442E209A
:1002C000004D3131332053006F6B00544845524D7F
:1002D000414C5F50524F54454354494F4E00415595
:1002E000544F5245504F52545F53445F53544154FE
:1002F000555300454D455247454E43595F50415275
:1003000053455200434153455F4C494748545F426F
:1003100052494748544E45535300544F47474C4564
:100320005F4C494748545300534F46545741524538
:100330005F504F574552004255494C445F5045521B
:1003400043454E54004C4556454C494E475F444149
:100350005441005A5F50524F4245004155544F4C52
:100360004556454C005052494E545F4A4F4200504A
:10037000524F4752455353004155544F5245504FE9
:1003800052545F54454D5000564F4C554D455452B4
:10039000494300454550524F4D0053455249414C49
:1003A0005F584F4E5F584F4646004649524D5741A1
:1003B00052455F4E414D453A4D61726C696E204A1F
:1003C000313850555F3139313131385F313533395A
:1003D0005F484120534F555243455F434F44455F6B
:1003E00055524C3A68747470733A2F2F6769746869
:1003F00075622E636F6D2F61686172736861632F20
:1004000046574A756C6961323031384D61726C699A
:100410006E2050524F544F434F4C5F5645525349F4
:100420004F4E3A312E30204D414348494E455F549E
:100430005950453A4A756C69612050726F20536972
:100440006E676C652041424C20323456204558542A
:1004500052554445525F434F554E543A31205555FD
:1004600049443A31306431323062392D6535346572
:100470002D346631322D626366612D37613335303C
:10048000353935613466320A002F2F2000205400A0
:10049000205200416363656C65726174696F6E3AE6
:1004A0002050003F4A206F7574206F662072616E85
:1004B00067652028302E303120746F20302E33298C
:1004C0000A000000A0C10000C8430000C843546FE8
:1004D0006F206661722066726F6D2072656665724C
:1004E000656E636520706F696E740A00FF010120FC
:1004F000466C6F773A2000000136372603FFFFFF76
:10050000353C3D38FF0FFFFF312E303EFF13FFFF1C
:10051000FF28390C0809FFFFFF1A1C18FFFF2A08E3
:10052000440AFF4320643A0020693A0020703A00F0
:10053000496E76616C696420657874727564657261
:100540000A0043290A0061626C656420286D696EA7
:100550002074656D702000436F6C64206578747240
:10056000756465732061726520004E6F206361734E
:1005700065206C696768740A004D65736820706F48
:10058000696E742063616E6E6F742062652072659F
:10059000736F6C7665640A004D34323120696E6386
:1005A0006F727265637420706172616D65746572DB
:1005B0002075736167650A00454550524F4D204FC5
:1005C0004B0A003F5A206F7574206F662072616E6F
:1005D000676520282D323020746F203230290A00C0
:1005E0003A200050726F6265205A204F666673652C
:1005F000740041637469766520457874727564652A
:10060000723A2000496E76616C6964206578747274
:10061000756465720A003C3C3C2067636F64655FEB
:10062000540A00203A2041465445520A00202063D3
:10063000757272656E745F706F736974696F6E3D09
:1006400000203A204245464F52450A00202063755B
:100650007272656E745F706F736974696F6E3D005E
:100660003E3E3E2067636F64655F5428006F6B00F9
:1006700020503A00205A3A0020593A0020583A00B7
:10068000656E6473746F7073206869743A20002516
:1006900069730025696D2025697300256968202527
:1006A000696D202569730025696420256968202506
:1006B000696D2025697300256979202569642025E5
:1006C00069682025696D20256973002C20002C2085
:1006D00000203A2073796E635F706C616E5F706F9B
:1006E000736974696F6E0A00202063757272656E9B
:1006F000745F706F736974696F6E3D00656E7175BC
:10070000657565696E672022004B494C4C45442E47
:1007100020005072696E7465722073746F7070651A
:10072000642064756520746F206572726F72732E19
:100730002046697820746865206572726F72206146
:100740006E6420757365204D39393920746F2072BD
:100750006573746172742E202854656D70657261C2
:10076000747572652069732072657365742E2053E9
:100770006574206974206166746572207265737493
:10078000617274696E67290A004E6F204368656361
:100790006B73756D2077697468206C696E65206E67
:1007A000756D6265722C204C617374204C696E65A6
:1007B0003A2000636865636B73756D206D69736DB6
:1007C000617463682C204C617374204C696E653AC7
:1007D00020004C696E65204E756D626572206973EC
:1007E000206E6F74204C617374204C696E65204ECE
:1007F000756D6265722B312C204C617374204C69CD
:100800006E653A20004D3131300020496E76616CC2
:100810006964206578747275646572200000000058
:100820000000000000000000000000C8430000C8F5
:10083000430000C8430A20736F66745F656E64737B
:10084000746F705F6D6178203D20000A20736F66C1
:10085000745F656E6473746F705F6D696E203D20A8
:10086000000A20706F736974696F6E5F73686966E0
:1008700074203D200020617869733A0A20686F6D0A
:10088000655F6F6666736574203D2000466F722059
:10089000003C3C3C20646F5F626C6F636B696E6709
:1008A0005F6D6F76655F746F0A003E3E3E20646F39
:1008B0005F626C6F636B696E675F6D6F76655F74A7
:1008C0006F00203A2073657475705F666F725F65A4
:1008D0006E6473746F705F6F725F70726F62655F6A
:1008E0006D6F76650A00202063757272656E745FA5
:1008F000706F736974696F6E3D00203A20636C6598
:10090000616E5F75705F61667465725F656E64735A
:10091000746F705F6F725F70726F62655F6D6F761C
:10092000650A00202063757272656E745F706F7364
:100930006974696F6E3D00646F5F70726F62655FAE
:10094000726169736528006465706C6F793A200084
:10095000203A207365745F70726F62655F646570C2
:100960006C6F7965640A00202063757272656E741D
:100970005F706F736974696F6E3D00203A203C3C74
:100980003C20646F5F70726F62655F6D6F76650AA1
:1009900000202063757272656E745F706F73697486
:1009A000696F6E3D00203A203E3E3E20646F5F70CE
:1009B000726F62655F6D6F76650A002020637572E5
:1009C00072656E745F706F736974696F6E3D0072EB
:1009D000657365745F6265645F6C6576656C0A005B
:1009E0002028646F6E65290A004578747261706F03
:1009F0006C617465205B0024F4D43050C38E20C237
:100A0000A24017828B7011127A910D816CD90AA8BD
:100A100061E108C7586607615143061E4B5D05C179
:100A200045A7041A411104093D9803713931034067
:100A300036DB0265339102D4305402802E1D0263EE
:100A40002CEE01752AC501B028A001102781018F65
:100A50002564012B244B01E0223401AC211F018DC0
:100A6000200D01801FFC00841EED00971DDF00B8E3
:100A70001CD200E61BC600201BBC00641AB200B2E8
:100A800019A8000A19A0006A189900D1179100400E
:100A9000178B00B516840031167E00B31579003A25
:100AA000157300C7146F0058146A00EE13660088AF
:100AB00013630025135E00C7125B006C125700150C
:100AC000125400C111510070114F0021114B00D67A
:100AD0001049008D1047004610440002104200C02B
:100AE0000F4000800F3E00420F3C00060F3B00CB42
:100AF0000E3800930E37005C0E3500270E3400F3DD
:100B00000D3200C10D3100900D3000600D2E00320D
:100B10000D2D00050D2C00D90C2B00AE0C290085E5
:100B20000C29005C0C2700350C27000E0C2600E871
:100B30000B2400C40B2400A00B23007D0B23005AC0
:100B40000B2100390B2100180B2000F80A1F00D9D7
:100B50000A1E00BB0A1E009D0A1D00800A1D0063BC
:100B60000A1C00470A1B002C0A1B00110A1A00F776
:100B7000091A00DD091900C4091900AB091900920E
:100B80000917007B091800630917004C0916003685
:100B9000091600200916000A091500F5081500E0DD
:100BA000081400CC081400B8081400A4081400901D
:100BB0000813007D0812006B081300580812004645
:100BC0000812003408110023081100120811000156
:100BD000081100F0071000E0071000D0071000C057
:100BE000071000B0070F00A107100091070E008347
:100BF000070F0074070F0065070E0057070E004926
:100C0000070E003B070D002E070E0020070D0013F6
:100C1000070D0006070D00F9060C00ED060D00E0BB
:100C2000060C00D4060C00C8060C00BC060C00B074
:100C3000060C00A4060B0099060C008D060B008222
:100C4000060B0077060B006C060B0061060A0057C6
:100C5000060B004C060A0042060A0038060A002E5F
:100C6000060A0024060A001A060A001006090007F0
:100C7000060A00FD050900F4050900EB050900E27C
:100C8000050900D9050900D0050900C7050900BEFE
:100C9000050900B5050800AD050800A50509009C7B
:100CA000050800940508008C050800840508007CF0
:100CB000050800740508006C050700650508005D5F
:100CC000050700560508004E0507004705070040C8
:100CD00005080038050700310507002A050700232D
:100CE0000507001C050600160507000F050700088C
:100CF00005060002050700FB040600F5040700EEE8
:100D0000040600E8040600E2040700DB040600D540
:100D1000040600CF040600C9040600C3040600BD93
:100D2000040600B7040600B1040500AC040600A6E2
:100D3000040600A00405009B04060095040500902D
:100D40000406008A04050085040500800406007A74
:100D500004050075040500700405006B04050066B9
:100D6000040500610405005C0405005704050052F9
:100D70000405004D04050048040500430405003E39
:100D80000404003A04050035040500300404002C76
:100D900004050027040400230405001E0404001AAF
:100DA00004040016040500110404000D04040009E5
:100DB0000405000404040000040400FC030400F81B
:100DC000030400F4030400F0030400EC030400E84F
:100DD000030400E4030400E0030400DC030400D87F
:100DE000030400D4030400D0030400CC030400C8AF
:100DF000030300C503030024F404D9201BC40C5CC6
:100E00000E9804C4095F0265077101F405F900FB3F
:100E100004B30048048700C1036900580355000368
:100E2000034500BE023A008402310053022A002921
:100E300002250004022000E4011C00C8011900AFD3
:100E40000117009801140084011300710110006162
:100E500001100051010E0043010D0036010B002B63
:100E6000010B0020010B00150109000C0109000312
:100E7000010800FB000800F3000800EB000700E495
:100E8000000600DE000600D8000600D2000600CCF6
:100E9000000500C7000500C2000500BD000400B940
:100EA000000400B5000400B1000400AD000400A976
:100EB000000400A5000300A20003009F0004009BA3
:100EC00000030098000300950002009300030090C7
:100ED0000003008D0002008B0003008800020086E2
:100EE00000020084000300810002007F0002007DF8
:100EF0000002007B0002007900020077000100760A
:100F00000002007400020072000100710002006F14
:100F10000002006D0001006C0002006A000100691F
:100F20000002006700010066000100650001006426
:100F30000002006200010061000100600001005F2A
:100F40000002005D0001005C0001005B0001005A2E
:100F5000000100590001005800010057000100562F
:100F6000000100550001005400010053000000532F
:100F70000001005200010051000100500001004F2B
:100F80000001004E0000004E0001004D0001004C29
:100F90000001004B0000004B0001004A0001004925
:100FA0000001004800000048000100470001004621
:100FB000000000460001004500000045000100441B
:100FC0000001004300000043000100420000004215
:100FD0000001004100000041000100400001003F0D
:100FE0000000003F0001003E0000003E0001003D07
:100FF0000000003D0001003C0000003C0000003CFF
:101000000001003B0000003B0001003A0000003AF4
:1010100000010039000000390001003800000038EC
:1010200000000038000100370000003700010036E2
:1010300000000036000000360001003500000035D9
:1010400000000035000100340000003400000034CE
:1010500000010033000000330000003300010032C3
:1010600000000032000000320001003100000031B9
:1010700000000031000100300000003000000030AE
:101080000001002F0000002F0000002F0000002FA3
:101090000001002E0000002E0000002E0001002D97
:1010A0000000002D0000002D0000002D0001002C8C
:1010B0000000002C0000002C0000002C0001002B80
:1010C0000000002B0000002B0000002B0001002A74
:1010D0000000002A0000002A0000002A0001002968
:1010E000000000290000002900000029000000295C
:1010F000000100280000002800000028000000284F
:101100000000002800010027000000270000002741
:101110000000002700000027000100260000002634
:101120000000002600000026000000260001002527
:10113000000000250000002500000025000000251B
:10114000000000250001002400000024000000240D
:101150000000002400000024000100230000002300
:1011600000000023000000230000002300000023F3
:1011700000000023000100220000002200000022E5
:1011800000000022000000220000002200010021D7
:1011900000000021000000210000002100000021CB
:1011A00000000021000000210001002000000020BC
:1011B00000000020000000200000002000000020AF
:1011C00000000020000000200001001F0000001FA0
:1011D0000000001F0000001F0000001F0000001F93
:1011E0000000001F0001001E0000001E0000001E85
:1011F0000000001E00000039300000332500008789
:10120000190000B00F0000DB080000BD04000074EE
:101210000200003F010000426564204C6576656C69
:10122000696E6720004661696C656420746F206593
:101230006E61626C6520426564204C6576656C6900
:101240006E670A00526573656E643A200020746F01
:101250006F206C6F6E6720657874727573696F6E3E
:101260002070726576656E7465640A0020636F6C29
:101270006420657874727573696F6E20707265761C
:10128000656E7465640A00627573793A20706175E1
:1012900073656420666F7220696E7075740A0062EF
:1012A0007573793A2070617573656420666F72207A
:1012B000757365720A00627573793A2070726F6394
:1012C000657373696E670A004B494C4C45442E2088
:1012D000004B494C4C206361757365642062792032
:1012E000746F6F206D75636820696E6163746976D1
:1012F000652074696D65202D2063757272656E744A
:1013000020636F6D6D616E643A200020746F6F20F2
:101310006C6F6E6720657874727573696F6E20707C
:10132000726576656E7465640A0020636F6C642074
:10133000657874727573696F6E2070726576656E0C
:101340007465640A0048617264636F646564204474
:10135000656661756C742053657474696E6773207B
:101360004C6F616465640A00580200005802000076
:1013700032000000102700000000484300004843EE
:101380000000A041000034420000A0420000A04242
:10139000F0F7FB4300000C433A0A0020286D6D294A
:1013A0000020204D383531205A005A2D50726F627E
:1013B00065204F6666736574002044002049002054
:1013C000204D3330312050005049442073657474EF
:1013D000696E67733A0A00205A00204A00202047AD
:1013E0003239205720490020204D3432302053001C
:1013F0004175746F20426564204C6576656C696E3A
:10140000673A0A00205A0020590020204D32303619
:10141000205800486F6D65206F66667365743A0AE0
:1014200000204A0020540020530020204D32303547
:10143000204200204A3C6A756E635F6465763E0018
:10144000416476616E6365643A20423C6D696E5F0B
:101450007365676D656E745F74696D655F75733E06
:1014600020533C6D696E5F66656564726174653EAC
:1014700020543C6D696E5F74726176656C5F666561
:101480006564726174653E00205400205200202083
:101490004D323034205000416363656C6572617475
:1014A000696F6E2028756E6974732F7332293A2024
:1014B000503C7072696E745F616363656C3E20526C
:1014C0003C726574726163745F616363656C3E2036
:1014D000543C74726176656C5F616363656C3E0A4F
:1014E00000204500205A0020590020204D32303184
:1014F0002058004D6178696D756D20416363656C9E
:1015000065726174696F6E2028756E6974732F73CC
:1015100032293A0A00204500205A00205900202094
:101520004D3230332058004D6178696D756D2066FD
:1015300065656472617465732028756E6974732FB4
:1015400073293A0A00204500205A00205900202023
:101550004D393220580053746570732070657220C5
:10156000756E69743A0A0020204D323030204430C4
:101570000A0020204D32303020440020446973613D
:10158000626C65640A0046696C616D656E742073F7
:10159000657474696E67733A0020204732312020E9
:1015A00020203B007A5F70726F62653A20007A5F9C
:1015B0006D61783A2000795F6D61783A2000785F3C
:1015C0006D696E3A20005265706F7274696E6720A3
:1015D000656E6473746F70207374617475730A0040
:1015E000000000010000000100008000555555007A
:1015F0000000400033333300AAAA2A004992240095
:1016000000002000C7711C0099991900D1451700EE
:10161000555515003BB1130024491200111111005A
:10162000000010000F0F0F00E3380E0043790D008B
:10163000CCCC0C00C3300C00E8A20B0064210B00E2
:10164000AAAA0A00703D0A009DD80900427B090041
:1016500092240900DCD308008888080010420800A2
:1016600000000800F0C107008787070075500700D9
:10167000711C07003EEB0600A1BC06006990060045
:1016800066660600703E06006118060017F4050045
:1016900074D105005BB00500B290050062720500D0
:1016A0005555050078390500B81E050005050500EB
:1016B0004EEC040087D40400A1BD040090A70400F0
:1016C00049920400C17D0400EE690400C75604007D
:1016D000444404005C32040008210400411004006A
:1016E000000004003FF00300F8E0030026D20300EE
:1016F000C3C30300CCB503003AA803000A9B030050
:10170000388E0300C08103009F750300D069030079
:10171000505E03001D53030034480300913D030055
:101720003333030016290300381F03009715030005
:10173000300C0300030303000BFA020049F102001E
:10174000BAE802005CE002002DD802002DD00200B1
:1017500059C80200B0C0020031B90200DAB102007B
:10176000AAAA0200A0A30200BC9C0200FA950200F3
:101770005C8F0200DF88020082820200457C02004A
:101780002776020027700200436A02007C64020090
:10179000D05E02003F590200C853020042696C69E2
:1017A0006E656172204C6576656C696E6720477264
:1017B00069643A0A00486F6D696E67206661696CFA
:1017C0006564003C3C3C20646F5F686F6D696E67C8
:1017D0005F6D6F766528005B00290A002C20002CC5
:1017E00020003E3E3E20646F5F686F6D696E675FEC
:1017F0006D6F7665280041424C2041646A757374B0
:101800006D656E74205A0020480020570020590052
:1018100042696C696E656172204772696420580084
:101820002028656E61626C6564290A00202864695D
:101830007361626C6564290A0042494C494E454116
:1018400052004175746F20426564204C6576656C6A
:10185000696E673A2000204E6F7A7A6C65290A001B
:1018600020262041626F76650020262053616D6539
:10187000205A2061730020262042656C6F7700207B
:1018800028416C69676E6564205769746800205A46
:101890003A0020593A0050726F6265204F666673B5
:1018A000657420583A004649585F4D4F554E54458F
:1018B000445F50524F42450A0050726F62653A20B1
:1018C00000436F72650A004D616368696E6520545C
:1018D0007970653A20003C3C3C204732390A0020B0
:1018E000636F72726563746564205A3A00473239D7
:1018F00020756E636F72726563746564205A3A0076
:10190000203A203E2070726F62696E6720636F6DAF
:10191000706C6574650A00202063757272656E7460
:101920005F706F736974696F6E3D0020284452596F
:1019300052554E2900473239204175746F20426557
:1019400064204C6576656C696E67003F20284C2CDE
:10195000522C462C4229206F7574206F6620626FCE
:10196000756E64732E0A003F2856296572626F7384
:1019700065206C6576656C20697320696D706C619B
:10198000757369626C652028302D34292E0A004257
:101990006164205A2076616C75650A004E6F206282
:1019A000696C696E65617220677269640A003C3C0B
:1019B0003C204732390A003E204175746F2D6C651A
:1019C00076656C206E6F74206E65656465642C208E
:1019D000736B69700A004732380A473239003E207B
:1019E0004E6F7420686F6D65642E20456E7175654D
:1019F0007565696E672047323820666F6C6C6F774B
:101A00006564206279204732390A00203A203E3E40
:101A10003E204732390A00202063757272656E7469
:101A20005F706F736974696F6E3D00454550524F2A
:101A30004D206461746173697A65206572726F729A
:101A40002E0A00290A002062797465733B206372B4
:101A500063200053657474696E67732053746F72EA
:101A60006564202800290A002062797465733B2090
:101A700063726320002073746F72656420736574F1
:101A800074696E6773207265747269657665642027
:101A90002800202863616C63756C6174656429217A
:101AA0000A0020213D2000454550524F4D20435211
:101AB00043206D69736D61746368202D20287374F1
:101AC0006F7265642920002053697A653A200049C5
:101AD0006E6465783A2000204D61726C696E3D56E7
:101AE0003535290A0028454550524F4D3D004545A2
:101AF00050524F4D2076657273696F6E206D697319
:101B00006D617463682000FFFDFCFAF8F6F4F2F0F2
:101B1000EEECEAE9E7E5E3E1E0DEDCDAD9D7D5D4BB
:101B2000D2D0CFCDCBCAC8C7C5C3C2C0BFBDBCBA57
:101B3000B9B7B6B4B3B2B0AFADACAAA9A8A6A5A4C4
:101B4000A2A1A09E9D9C9A99989795949392908F0C
:101B50008E8D8B8A8988878684838281807F7E7D33
:101B60007B7A797877767574737271706F6E6D6C3D
:101B70006B6A696867666564636261605F5E5D5C2D
:101B80005B5A5958585756555453525150504F4E0E
:101B90004D4C4B4A4A4948474646454443424241D8
:101BA000403F3E3E3D3C3B3B3A3938383736353591
:101BB000343332323130302F2E2E2D2C2B2B2A293C
:101BC0002928272726252524232322212120201FD9
:101BD0001E1E1D1C1C1B1B1A19191818171616156A
:101BE0001514131312121111100F0F0E0E0D0D0CF0
:101BF0000C0B0A0A0909080807070606050504046C
:101C00000303020201000046696C616D656E742079
:101C1000757365643A200053746174733A20002C24
:101C2000204C6F6E67657374206A6F623A200054AF
:101C30006F74616C2074696D653A2000537461742F
:101C4000733A20002C204661696C65643A20002CB0
:101C50002046696E69736865643A20005072696E47
:101C600074733A200053746174733A20005072699F
:101C70006E7465722068616C7465642E206B696C8B
:101C80006C28292063616C6C6564210A0020205057
:101C90006C616E6E657242756666657242797465D6
:101CA000733A20002046726565204D656D6F72792C
:101CB0003A2000436F6D70696C65643A204E6F7610
:101CC00020313820323031390A00207C20417574AF
:101CD000686F723A20467261636B74616C20576F53
:101CE000726B730A00323031392D31312D31382089
:101CF00031353A333900204C61737420557064617A
:101D00007465643A20004275696C643A204A31383F
:101D100050555F3139313131385F313533395F48B2
:101D2000410A00467261636B74616C20576F726B7D
:101D300073204A756C69612050726F2053696E6719
:101D40006C652041424C203234560A00312E312E2F
:101D5000390A004D61726C696E0020536F667477AA
:101D60006172652052657365740A0020576174635F
:101D700068646F672052657365740A002042726F51
:101D8000776E206F75742052657365740A00204564
:101D9000787465726E616C2052657365740A0050C8
:101DA0006F77657255700A0073746172740A003C33
:101DB0003C3C207365745F617869735F69735F6130
:101DC000745F686F6D652800203A200A0020206348
:101DD000757272656E745F706F736974696F6E3D52
:101DE000005D203D20003E20686F6D655F6F666678
:101DF0007365745B003E3E3E207365745F61786975
:101E0000735F69735F61745F686F6D6528000000C0
:101E10004842000048420000A04100000000576115
:101E2000726E696E673A20486F6D696E6720427501
:101E30006D702044697669736F72203C20310A000E
:101E40000202040000A0400000A04000000040008A
:101E500000C8430000C8430000C8433C3C3C206825
:101E60006F6D65617869732800203A203E204146F5
:101E7000544552207365745F617869735F69735F5D
:101E800061745F686F6D650A00202063757272650A
:101E90006E745F706F736974696F6E3D00486F6D2B
:101EA00065203220536C6F773A0A004D6F766520BB
:101EB000417761793A0A00486F6D652031204661AB
:101EC00073743A0A003E3E3E20686F6D6561786922
:101ED0007328004572726F722077726974696E6739
:101EE00020746F20454550524F4D210A00626564B1
:101EF0000A002C2073797374656D2073746F707091
:101F0000656421204865617465725F49443A200028
:101F10004265642068656174696E67206661696CFA
:101F200065640048656174696E67206661696C6507
:101F3000640045312048656174696E672066616997
:101F40006C65640048656174696E67206661696CE0
:101F50006564001000600350012C0190012201D043
:101F600001180110020E0170020401E002FA006083
:101F700003F0000004E600B004DC00A005D200B0CD
:101F800006C8000008BE00A009B400800BAA00D05B
:101F90000DA00090109600C0138C00701782009066
:101FA0001B780010206E00C0246400E02D500080DB
:101FB000353C00A03A2800A03D1400003F0000A0DE
:101FC0003FECFF4531204572723A204D415854454F
:101FD0004D50004572723A204D415854454D5020A5
:101FE000424544004D415854454D50207472696734
:101FF0006765726564004531204572723A204D492B
:102000004E54454D50004572723A204D494E54454C
:102010004D5020424544004D494E54454D5020748A
:10202000726967676572656400202F002042403A3C
:102030000020403A00000020002300260029002C48
:10204000002F003200000100000301060109010514
:10205000050505070508080808020202020A0A0821
:102060000804040404010101010101010103030347
:102070000303030303040707070C0C0C0C0C0C0CE4
:102080000C0202020206060606060606060B0B0BEB
:102090000B0B0B0B0B010210202008081020401026
:1020A000204080020102010804020101020408101C
:1020B000204080804020100804020180040201803A
:1020C0004020100804020108040201010204081063
:1020D000204080010204081020408000000A0B020A
:1020E000090C0D0E080703040100000000000000A9
:1020F00000000000000000000000000000000000E0
:10210000000000000000001211100000000000009C
:1021100000000000000000000000000000000000BF
:1021200000556E6B6E6F776E20636F6D6D616E64C0
:102130003A202200203A203C3C3C2072756E5F7AA7
:102140005F70726F62650A00202063757272656E3F
:10215000745F706F736974696F6E3D0020446973BA
:1021600063726570616E63793A00326E64205072FA
:102170006F6265205A3A00203A203C3C3C20727540
:102180006E5F7A5F70726F62650A002020637572FD
:1021900072656E745F706F736974696F6E3D005322
:1021A0004C4F572050726F6265206661696C210A3E
:1021B000003173742050726F6265205A3A00203AE1
:1021C000203C3C3C2072756E5F7A5F70726F626576
:1021D0000A00202063757272656E745F706F736998
:1021E00074696F6E3D00464153542050726F6265B2
:1021F000206661696C210A00203A203E3E3E207232
:10220000756E5F7A5F70726F62650A002020637579
:102210007272656E745F706F736974696F6E3D0082
:102220003C3C3C2070726F62655F70740A005072B3
:102230006F62696E67206661696C65640A0050525E
:102240004F42494E475F4641494C45440A00205A97
:102250003A200020593A200042656420583A200074
:10226000203A200A00202063757272656E745F70D8
:102270006F736974696F6E3D005F72656C6174693C
:102280007665290A002C20002C20002C20002C2010
:10229000003E3E3E2070726F62655F7074280020C1
:1022A00066697273740A005A0059005800486F6DCD
:1022B0006520006563686F3A004572726F723A007C
:1022C000453120544845524D414C2052554E4157BE
:1022D00041590042454420544845524D414C2052FA
:1022E000554E4157415900546865726D616C2052DA
:1022F000756E617761790050726F7465637465649F
:102300002050696E0A005374616E646172642044E7
:102310006576696174696F6E3A20002052616E675C
:10232000653A2000204D61783A2000204D696E3AD0
:1023300020004D65616E3A200046696E69736865DC
:1023400064210A002072616E67653A2000206D6189
:10235000783A2000206D696E3A2000207369676D1D
:10236000613A2000206D65616E3A20003A207A3A89
:102370002000206F662000205A00205900205800BD
:10238000476F696E6720746F3A00436C6F636B77B9
:102390006973650A00436F756E7465722D00204481
:1023A0006972656374696F6E3A2000202020616E47
:1023B000676C653A20005374617274696E672072AD
:1023C00061646975733A2000506F736974696F6E48
:1023D000696E67207468652070726F62652E2E2E9C
:1023E0000A003F4E756D626572206F66206C6567EE
:1023F0007320696E206D6F76656D656E74206E6FEB
:102400007420706C61757369626C652028302D31A1
:1024100035292E0A003F2028582C5929206F757421
:10242000206F6620626F756E64732E0A003F5361E1
:102430006D706C652073697A65206E6F7420706CA6
:1024400061757369626C652028342D3530292E0A38
:10245000004D3438205A2D50726F626520526570DD
:102460006561746162696C69747920546573740A7A
:10247000003F2856296572626F7365206C6576652A
:102480006C20697320696D706C61757369626C652D
:102490002028302D34292E0A0020573A0020573AA0
:1024A00000205A3A0020423A0020436F756E742093
:1024B000413A0020453A00205A3A0020593A005843
:1024C0003A003A004361703A00205A0020590058FF
:1024D0000020204D61783A2000205A0020590058F1
:1024E0000020204D696E3A20004F6E20004F666636
:1024F00000536F667420656E6473746F70733A2056
:102500000023646566696E652044454641554C5418
:102510005F4B64200023646566696E652044454610
:1025200041554C545F4B69200023646566696E65B4
:102530002044454641554C545F4B7020005049445F
:10254000204175746F74756E652066696E69736875
:102550006564212050757420746865206C61737403
:10256000204B702C204B6920616E64204B642063EB
:102570006F6E7374616E74732066726F6D20626526
:102580006C6F7720696E746F20436F6E6669677534
:10259000726174696F6E2E680A005049442041755B
:1025A000746F74756E65206661696C656421207452
:1025B000696D656F75740A00453120544845524D68
:1025C000414C2052554E4157415900546865726D37
:1025D000616C2052756E61776179004531204865E4
:1025E0006174696E67206661696C65640048656145
:1025F00074696E67206661696C65640050494420A7
:102600004175746F74756E65206661696C656421CF
:102610002054656D706572617475726520746F6F9A
:1026200020686967680A00204B643A2000204B69E3
:102630003A2000204B703A20000A20436C617373EB
:10264000696320504944200A002054753A20002034
:102650004B753A2000206D61783A2000206D696E3C
:102660003A200020643A200020626961733A200019
:10267000504944204175746F74756E6520666169B8
:102680006C656421204261642065787472756465AC
:1026900072206E756D6265720A0050494420417562
:1026A000746F74756E652073746172740A00000033
:1026B0002100240027002A002D00300033000101F2
:1026C0000000040107010A01000022002500280083
:1026D0002B002E003100340002010000050108012A
:1026E0000B01CCA511241FBECFEFD1E2DEBFCDBFC1
:1026F00000E00CBF13E0A0E0B2E0EAE8F4E601E09D
:102700000BBF02C007900D92A633B107D9F72EE098
:10271000A6E3B3E001C01D92A93AB207E1F713E1C5
:10272000C2E7D3E100E006C021970109802FFE0136
:102730000E94FAB1C137D10780E00807A9F70E94CB
:10274000EC8F0C9443B20C9400008091450790915B
:102750004607981759F0E92FF0E0EB53F94F8081C5
:102760009F5F9F779093460790E008958FEF9FEFCC
:102770000895CF92DF92EF920F931F93CF93DF9341
:10278000CDB7DEB760970FB6F894DEBF0FBECDBFF2
:10279000E090510EEBE6FEE080859185A285B38541
:1027A0004481558166817781008111812281338145
:1027B00009831A832B833C834D835E836F837887E1
:1027C00089879A87AB87BC871D861E861F86188AD5
:1027D000AE01475F5F4FBE016B5F7F4FCE01019639
:1027E0000E947A43CE010D966C0102E412E027E7C5
:1027F0003EE0AE01475F5F4FBE016B5F7F4F0C97BE
:102800000E94963260960FB6F894DEBF0FBECDBF21
:10281000DF91CF911F910F91EF90DF90CF900895AE
:10282000FF920F931F93CF93DF93FC0120812B33F3
:1028300019F1D091F905D430F8F4F62EBC01C0910D
:102840000D060C2F10E0F0E6CF9FC001112489582F
:102850009B4F0E9423B2F801E359FB4FF082CF5FF8
:10286000C43018F4C0930D0602C010920D06DF5F4D
:10287000D093F90581E001C080E0DF91CF911F91F5
:102880000F91FF9008958091630E85FF06C06AEF57
:1028900078E083E299E00E94C4758091750690917A
:1028A0007606A0917706B0917806809342029093C5
:1028B0004302A0934402B093450280917306909125
:1028C000740690933D0280933C0208958091630EBC
:1028D00085FF06C062EC78E086EE98E00E94C47541
:1028E0008091420290914302A0914402B09145022E
:1028F0008093750690937606A0937706B09378063A
:1029000080913C0290913D029093740680937306EF
:1029100084E690E090933D0280933C0208950F93EB
:102920001F93CF93DF93CDB7DEB72C970FB6F894F4
:10293000DEBF0FBECDBF8091630E85FF06C061ED87
:1029400076E088EE96E00E94C4758091730E9091B7
:10295000740EA091750EB091760E40916F0E50914D
:10296000700E6091710E7091720E00916B0E10914D
:102970006C0E20916D0E30916E0E09831A832B839D
:102980003C834D835E836F83788789879A87AB8783
:10299000BC87AE01475F5F4FBE016B5F7F4FCE01CB
:1029A00001960E947A4327E73EE0AE01475F5F4F02
:1029B000BE016B5F7F4FCE0101960E949E652C96F3
:1029C0000FB6F894DEBF0FBECDBFDF91CF911F9140
:1029D0000F9108951F93CF93DF93CDB7DEB72C9758
:1029E0000FB6F894DEBF0FBECDBF882331F0209123
:1029F000540330915503232BA1F190916C04891756
:102A000081F1182F0E9414438CE0EEE4F2E0DE0125
:102A1000119601900D928A95E1F7CE0101960E94E0
:102A2000062F10936C04111117C00E946A2E8FE4B8
:102A300097E00E9462438091570790915807A091B8
:102A40005907B0915A078093730E9093740EA09318
:102A5000750EB093760E04C08BE69EE00E94624332
:102A60005EDF2C960FB6F894DEBF0FBECDBFDF91B0
:102A7000CF911F9108958091E5039091E60300970F
:102A800031F04AE050E060E070E00C94E2A760E0D2
:102A900070E0CB010895EFDF97FD0AC0ECDF6F3FD8
:102AA00071058105910509F02CF4E5DF862F089565
:102AB00080E008958FEF08958091E5039091E603FB
:102AC000892B31F0E8DF91E0811103C090E001C073
:102AD00091E0892F08950F931F93CF938091E50381
:102AE0009091E603009711F1FC018F01C1912C2F09
:102AF0002F7DA9F0C53411F0C536B9F7F801108261
:102B000060E070E08091E5039091E6030E948FA65B
:102B1000F801C083562F472F382F292F0BC060E0B4
:102B200070E0CF911F910F910C948FA650E040E080
:102B300030E020E0652F742F832F922FCF911F91CB
:102B40000F91089581548A3108F042C0E82FF0E0D7
:102B5000409150035091510360915203709153037F
:102B600004C076956795579547958A95D2F7842F37
:102B7000817040FF2FC0EA5CFC4F9081992309F1DE
:102B8000E0913F0EF091400EE90FF11D908120ED94
:102B9000290F2A3098F09E3211F491810CC09D3299
:102BA00011F09B3271F4918120ED290F2A3030F021
:102BB0009E3239F4928190539A3018F42E2F9F2F21
:102BC00002C020E090E02093E5039093E60308958F
:102BD00080E008950895B6DF882341F081E02091D8
:102BE000E5033091E603232B09F480E008952F924A
:102BF0003F924F925F926F927F928F929F92AF928D
:102C0000BF92CF92DF92EF92FF920F931F93CF93D9
:102C1000DF93EB01FC0180809180A280B380C5012D
:102C2000B40120E831E541E050E00E94ADAEC901B9
:102C30006DE671E00E94D3B16B017C01C501B40166
:102C400020E13EE040E050E00E94ADAECA01B90193
:102C500028E130E040E050E00E94ADAE362E272E55
:102C6000062F172F8CE3482E512C612C712CC50197
:102C7000B401A30192010E94ADAEB62EA72ECA01E7
:102C8000B901A30192010E94ADAECB01C114D104E0
:102C9000D9F0AF92BF927F936F932F923F92FF92A2
:102CA000EF92DF92CF9287EB96E09F938F93DF9323
:102CB000CF930E9460AA8DB79EB70E960FB6F89478
:102CC0009EBF0FBE8DBF5CC0E114F104C9F0AF928E
:102CD000BF927F936F932F923F92FF92EF9287EA7A
:102CE00096E09F938F93DF93CF930E9460AAEDB7F6
:102CF000FEB73C960FB6F894FEBF0FBEEDBF40C0C6
:102D0000012BB9F0AF92BF927F936F932F923F92B6
:102D10008BE996E09F938F93DF93CF930E9460AAF5
:102D20008DB79EB70A960FB6F8949EBF0FBE8DBFA3
:102D300027C0892BA9F0AF92BF927F936F9383E94D
:102D400096E09F938F93DF93CF930E9460AAEDB795
:102D5000FEB738960FB6F894FEBF0FBEEDBF10C099
:102D6000AF92BF928FE896E09F938F93DF93CF93BC
:102D70000E9460AA0F900F900F900F900F900F90ED
:102D8000DF91CF911F910F91FF90EF90DF90CF9047
:102D9000BF90AF909F908F907F906F905F904F907B
:102DA0003F902F90089580E1EBE6FEE0A1E4BEE0C5
:102DB00001900D928A95E1F708959091C00095FFDA
:102DC000FCCF8093C6000895CF93DF938091630E6C
:102DD00085FF0AC0EFECF9E08491EF01219688238A
:102DE00019F0EBDFFE01F8CF80E0F4DD109257031D
:102DF00010925603109255031092540310925B03E5
:102E000010925A031092590310925803EBE2F4E027
:102E10002BE634E080E090E0A0ECBFE78083918374
:102E2000A283B38384839583A683B78380879187A6
:102E3000A287B38784879587A687B78770962E1752
:102E40003F0761F7DF91CF910895AF92BF92CF9284
:102E5000DF92EF92FF920F931F93CF93DF93082F90
:102E600010E0E801CC0FDD1FCC0FDD1F9E01295AB9
:102E7000314F7901CE0189509C4F5C01FE01E2582F
:102E8000FC4F6F012081318142815381FC016081BF
:102E90007181828193810E940BAFF70160837183FE
:102EA00082839383FE01E35EF74F85919591A5910F
:102EB000B4919E012E51324F7901F90180839183A3
:102EC000A283B383FE01E75DF74F85919591A591AC
:102ED000B491CA5DDD4F88839983AA83BB838091B7
:102EE000630E85FF37C0F801E65BFD4F60818CE81B
:102EF00098E00E941162F5014081518162817381E5
:102F000085E798E00E94DB61F60140815181628192
:102F1000738181E698E00E94DB61F7014081518175
:102F2000628173818BE498E00E94DB614881598162
:102F30006A817B8185E398E00E94DB618AE0DF9112
:102F4000CF911F910F91FF90EF90DF90CF90BF90A6
:102F5000AF9033CFDF91CF911F910F91FF90EF9002
:102F6000DF90CF90BF90AF900895CF92DF92EF9215
:102F7000FF920F931F93CF93DF938091F9058430D5
:102F800008F01AC1E2DBAC0197FD16C1982F209121
:102F9000650E3091660E8A3019F09D3009F0DBC065
:102FA000109272062115310519F40E945D72E5CF69
:102FB000F901EE5EF94F10821092660E1092650EC6
:102FC000C2E1D6E0FE018191803211F4EF01FACF27
:102FD0008E3409F07EC0209709F47BC065E078E06C
:102FE000CE010E9446AA8C01892B41F06EE470E06C
:102FF000CE0104960E940FB2009709F4CE014AE078
:1030000050E060E070E001960E94E2A760930E0637
:1030100070930F068093100690931106C090670E70
:10302000D090680EE090690EF0906A0E2FEFC21AF1
:10303000D20AE20AF20A6C157D058E059F0529F079
:10304000012B19F482ED97E02AC06AE270E0CE010C
:103050000E9438B29C01009701F1982F9C1B10E050
:10306000992339F09150FE01E90FF11D8081182755
:10307000F7CF4AE050E060E070E0C90101960E949D
:10308000E2A7012F10E020E030E06017710782070F
:10309000930779F083EB97E002C089E897E0DF912E
:1030A000CF911F910F91FF90EF90DF90CF900C94F4
:1030B000E57580910E0690910F06A0911006B091D3
:1030C00011068093670E9093680EA093690EB093DB
:1030D0006A0E8091090281111CC067E470E0CE0184
:1030E0000E940FB20097A9F04AE050E060E070E063
:1030F00001960E94E2A76430710558F4E2E1F7E01E
:1031000084918F010F5F1F4F882319F056DEF8015D
:10311000F7CF66EF72E0CE010E941AB2892B11F44C
:1031200010920A026BEF72E0CE010E941AB2892B54
:1031300021F489E097E00E94436D60E073E0CE01E6
:103140000E941AB2892B11F40E94338361E082E15C
:1031500096E066DB12CF2F3531050CF00ECF9C3593
:10316000B9F4F3DA97FD09CF20917206211105CF4A
:103170002091650E3091660EA9014F5F5F4F50930D
:10318000660E4093650EF901EE5EF94F8083F5CE31
:103190009B3319F481E0809372068091720681114D
:1031A000ECCEC90101969093660E8093650EF901ED
:1031B000EE5EF94F4083E1CEDF91CF911F910F91E9
:1031C000FF90EF90DF90CF900895BF92CF92DF9263
:1031D000EF92FF920F931F93CF93DF93CDB7DEB79C
:1031E0006E970FB6F894DEBF0FBECDBF6091C207D9
:1031F0007091C3076115710551F14DE150E0CE01A9
:1032000001967C010E9437AA1E8EF7018F010E19CC
:103210001F09B190BB2021F19AE0B912F7CF20C06D
:10322000B7018CEF96E00E94256282E2C6DD8AE05B
:10323000C4DDBB2051F10F5F1F4F8091C2079091F9
:10324000C307080F191F1093C3070093C20781E03B
:103250002091C2073091C307232BD1F480E018C01E
:10326000F701E00FF11F108260E0C701D9DA88236F
:1032700071F3E3EBF2E284916F019FEFC91AD90A6F
:10328000882371F29ADDF601F6CF00E010E0DBCF83
:103290006E960FB6F894DEBF0FBECDBFDF91CF9113
:1032A0001F910F91FF90EF90DF90CF90BF90089506
:1032B0008F929F92AF92BF92EF92FF920F931F93C4
:1032C000CF93DF93CDB7DEB7A0970FB6F894DEBFEC
:1032D0000FBECDBF611571058105910589F100E033
:1032E000842E912CA12CB12C102FEE24E394F12CE0
:1032F000EC0EFD1EE00EF11C07FDFA94A5019401F1
:103300000E94ADAEF7016083B901CA010F5F61157C
:1033100071058105910541F71F3F21F1E1E0F0E0E2
:10332000EC0FFD1FE10FF11D17FDFA9580818A302A
:1033300010F097E301C090E3890F3FDD1150ECCF0F
:1033400080E3A0960FB6F894DEBF0FBECDBFDF912D
:10335000CF911F910F91FF90EF90BF90AF909F90F2
:103360008F902BCDA0960FB6F894DEBF0FBECDBFC9
:10337000DF91CF911F910F91FF90EF90BF90AF9091
:103380009F908F900895EF92FF920F931F93CF938A
:10339000DF937C0184E51FDCD82F882321F17BDBC0
:1033A000C82F1816E4F4E3EBF2E284918F010F5F6B
:1033B0001F4F882319F001DDF801F7CF8DE4FDDC04
:1033C000B70180E090E04AE073DF6C2FCC0F770B01
:1033D0008AE098E00E94F8618AE0EFDC08C0809300
:1033E0002A04D0E004C08091510E80932A048D2FCE
:1033F000DF91CF911F910F91FF90EF900895CF92A1
:10340000DF92EF92FF926B017C0197FF0AC08DE281
:10341000D4DCF094E094D094C094C11CD11CE11C85
:10342000F11C4AE0C701B601FF90EF90DF90CF900A
:103430003FCF8F929F92AF92BF92CF92DF92EF9247
:10344000FF92CF936B017C01B42E20E030E0A90104
:103450000E948EAA87FF06C08DE2AFDCF7FAF094D7
:10346000F7F8F094C0E060E070E080E09FE3CB15F7
:1034700041F02DEC3CEC4CEC5DE30E94F3AACF5FF5
:10348000F6CF9B01AC01C701B6010E940BAF6B01E7
:103490007C010E9454B04B015C014AE009DFCC235F
:1034A00079F1C501B4010E9492AA9B01AC01C70148
:1034B000B6010E940AAF6B017C018EE27EDC20E047
:1034C00030E040E251E4C701B6010E94F3AA4B018B
:1034D0005C010E944FB06B01770FEE08FF08C70137
:1034E000B6018DDFC701B6010E9494AA9B01AC0111
:1034F000C501B4010E940AAF6B017C01C150F9F60D
:10350000CF91FF90EF90DF90CF90BF90AF909F90C2
:103510008F9008954F925F926F927F928F929F92B9
:10352000AF92BF92CF92DF92EF92FF920F931F93D1
:10353000CF93DF9300D000D0CDB7DEB74B01290188
:103540003A01E982FA820B831C83FC0184919F017A
:103550002F5F3F4F3E832D83882321F02EDCED81AA
:10356000FE81F4CF88E229DC42E0C301B20161DFD1
:1035700049815A816B817C818EEC96E00E94DB61EF
:10358000B601A5018BEC96E00E94DB6189E215DCB7
:103590008114910449F0F40184913FEF831A930A56
:1035A0008823D1F00ADCF7CF8AE026960FB6F8948C
:1035B000DEBF0FBECDBFDF91CF911F910F91FF9066
:1035C000EF90DF90CF90BF90AF909F908F907F90C3
:1035D0006F905F904F90F1CB26960FB6F894DEBFB8
:1035E0000FBECDBFDF91CF911F910F91FF90EF9054
:1035F000DF90CF90BF90AF909F908F907F906F9013
:103600005F904F9008954F925F926F927F92AF922A
:10361000BF92CF92DF92EF92FF920F931F93CF93BF
:10362000DF93CDB7DEB762970FB6F894DEBF0FBE5B
:10363000CDBF69837A838B839C832D833E834F83A5
:10364000588727013801DA8AC98A8091420290910D
:103650004302A0914402B091450289879A87AB87C3
:10366000BC878091630E85FF39C020915F0E309139
:10367000600E4091610E5091620EC801B7010E9428
:103680000BAF5B016C0120915B0E30915C0E4091A1
:103690005D0E50915E0E6D817E818F8198850E94B6
:1036A0000BAF6D877E878F87988B2091570E309157
:1036B000580E4091590E50915A0E69817A818B8132
:1036C0009C810E940BAF9B01AC01ED84FE840F85B1
:1036D000188960E070E08AEA98E01CDFA989BA895D
:1036E000AC901196BC90119712960C91129713966C
:1036F0001C9120E030E0A901B501C8010E948EAA0A
:10370000811108C0E6E1FEE185919591A591B49102
:103710005C018D012091730E3091740E4091750EF5
:103720005091760EC301B2010E9431B118169CF47B
:10373000C501D8018093420290934302A0934402B2
:10374000B09345024092730E5092740E6092750EC3
:103750007092760E0ED8E989FA89C080D180E28015
:10376000F38020E030E0A901C701B6010E948EAAD3
:10377000811108C0C0903E02D0903F02E09040020C
:10378000F0904102C0924202D0924302E092440281
:10379000F092450289819A81AB81BC8180936B0E46
:1037A00090936C0EA0936D0EB0936E0E8D819E81E2
:1037B000AF81B88580936F0E9093700EA093710EB9
:1037C000B093720E0E94B9132091730E3091740E53
:1037D0004091750E5091760EC301B2010E948EAADF
:1037E00087FF14C0C501D801809342029093430221
:1037F000A0934402B09345024092730E5092740E0F
:103800006092750E7092760E0E94B9130E94144356
:1038100089859A85AB85BC8580934202909343024B
:10382000A0934402B09345028091630E85FF0CC0C3
:10383000E1E9F8E084913F019FEF691A790A882352
:1038400019F0BBDAF301F6CF62960FB6F894DEBF3B
:103850000FBECDBFDF91CF911F910F91FF90EF90E1
:10386000DF90CF90BF90AF907F906F905F904F9020
:103870000895CF92DF92EF92FF920F931F936A0108
:10388000E090730EF090740E0091750E1091760E0C
:10389000FB012081318142815381FC016081718172
:1038A00082819381B0DE1F910F91FF90EF90DF90A6
:1038B000CF900895CF92DF92EF92FF920F931F93D4
:1038C0006B01FC01E080F18002811381EBE6FEE0F8
:1038D0002481358146815781608171818281938104
:1038E00092DE1F910F91FF90EF90DF90CF9008959F
:1038F0001F93CF93DF93CDB7DEB728970FB6F89419
:10390000DEBF0FBECDBF69837A838B839C832D83FB
:103910003E834F8358878091630E85FF06C065EA1A
:1039200079E08BEB99E00E94C4750E94AC75BE01F2
:103930006B5F7F4FCE010196BDDF1091F7051870C8
:103940001092F7050E946A2E8FE497E00E9462436E
:103950008091570790915807A0915907B0915A0745
:103960008093730E9093740EA093750EB093760EA1
:103970000E948F148091630E85FF06C06BE779E08B
:1039800081E999E00E94C47581E0111180E02896D8
:103990000FB6F894DEBF0FBECDBFDF91CF911F9160
:1039A0000895BF92CF92DF92EF92FF920F931F93F1
:1039B000CF93DF93CDB7DEB728970FB6F894DEBF6D
:1039C0000FBECDBFB82E8091630E85FF0EC060E59F
:1039D00079E087E699E00E94C4756B2D70E087E47A
:1039E00099E00E94F8618AE0E8D98091C007B81692
:1039F00009F488C0BB2009F463C08091630E85FF81
:103A00000CC040E050E060EA70E487E399E00E9477
:103A1000DB6189E2D2D98AE0D0D980E090E0A0EAE7
:103A2000B0E48D839E83AF83B887C090530ED0904F
:103A3000540EE090550EF090560E20E030E0A901B3
:103A4000C701B6010E948EAA87FF0CC0A70196018C
:103A500060E070E080EA90E40E940AAF6D837E83AC
:103A60008F83988720E030E048EC53E46D817E81BD
:103A70008F8198850E9431B1181644F480E090E05F
:103A8000A8ECB3E48D839E83AF83B8872D813E81FC
:103A90004F8158856091730E7091740E8091750EF0
:103AA0009091760E0E948EAA87FF0AC019821A8210
:103AB0001B821C82BE016F5F7F4FCE010596FADE2E
:103AC00060916B0E70916C0E80916D0E90916E0EE8
:103AD00020916F0E3091700E4091710E5091720EC8
:103AE00019821A821B821C82E090730EF090740E71
:103AF0000091750E1091760EFE0131966F0183DDF7
:103B0000B092C00780E028960FB6F894DEBF0FBED3
:103B1000CDBFDF91CF911F910F91FF90EF90DF907C
:103B2000CF90BF9008951F920F920FB60F9211245D
:103B30000BB60F922F938F939F93EF93FF93209148
:103B40004607E091450781E08E0F8F779091C60080
:103B5000281729F0F0E0EB53F94F9083E82FE0931A
:103B60004507FF91EF919F918F912F910F900BBE81
:103B70000F900FBE0F901F9018952F923F924F926B
:103B80005F926F927F928F929F92AF92BF92CF92ED
:103B9000DF92EF92FF920F931F93CF93DF93CDB7F6
:103BA000DEB72E970FB6F894DEBF0FBECDBFF894E8
:103BB0008FEF9FEF90938900809388008AE0B82E62
:103BC0001E861D86AA24A39478948091C1069091A4
:103BD000C206A091C306B091C406892B8A2B8B2BF9
:103BE00009F0D5C18091850E8823D1F01092850E01
:103BF0008091830E9091840E892B91F01092820611
:103C00001092840E1092830E90916D0380916C033C
:103C1000981731F080916C038F5F8F7080936C03E5
:103C20008091830E9091840E892B09F4B0C100918C
:103C3000BD061091BE062091BF063091C00680914E
:103C4000B9069091BA06A091BB06B091BC0640910E
:103C5000B00650E060E070E0801B910BA20BB30B4C
:103C6000481759076A077B0710F4DB01CA01482F80
:103C7000800F911FA21FB31F8093BD069093BE06B5
:103C8000A093BF06B093C0068091840090918500F8
:103C90008096C0909706D0909806E0909906F09094
:103CA0009A06009187061091880620918906309126
:103CB0008A060C0D1D1D2E1D3F1D009397061093A7
:103CC00098062093990630939A0637FD1CC0889A6F
:103CD00000915C0310915D0320915E0330915F03BE
:103CE000C09079060C2C000CDD08EE08FF080C0DC6
:103CF0001D1D2E1D3F1D00935C0310935D0320933B
:103D00005E0330935F03C0909B06D0909C06E090CA
:103D10009D06F0909E0600918B0610918C062091D6
:103D20008D0630918E060C0D1D1D2E1D3F1D00931E
:103D30009B0610939C0620939D0630939E0637FDAC
:103D40001CC08E9A00916003109161032091620360
:103D500030916303C0907A060C2C000CDD08EE084D
:103D6000FF080C0D1D1D2E1D3F1D009360031093B9
:103D700061032093620330936303C0909F06D09049
:103D8000A006E090A106F090A20600918F06109187
:103D9000900620919106309192060C0D1D1D2E1D4E
:103DA0003F1D00939F061093A0062093A106309319
:103DB000A20637FD21C020910B0120952870209389
:103DC000090100916403109165032091660330910D
:103DD0006703C0907B060C2C000CDD08EE08FF0882
:103DE0000C0D1D1D2E1D3F1D0093640310936503D4
:103DF0002093660330936703C090A306D090A40677
:103E0000E090A506F090A606009193061091940606
:103E100020919506309196060C0D1D1D2E1D3F1DFF
:103E20000093A3061093A4062093A5063093A6063C
:103E300037FD1CC0149A009168031091690320910A
:103E40006A0330916B03C0907C060C2C000CDD08DB
:103E5000EE08FF080C0D1D1D2E1D3F1D009368036D
:103E60001093690320936A0330936B0320918400BD
:103E70003091850028173907C8F3009197061091F3
:103E800098062091990630919A0637FD15C0C0908A
:103E90008306D0908406E0908506F09086060C1983
:103EA0001D092E093F090093970610939806209349
:103EB000990630939A06889800919B0610919C066B
:103EC00020919D0630919E0637FD15C0C090830657
:103ED000D0908406E0908506F09086060C191D09A6
:103EE0002E093F0900939B0610939C0620939D0684
:103EF00030939E068E9800919F061091A006209107
:103F0000A1063091A20637FD19C0C0908306D0905B
:103F10008406E0908506F09086060C191D092E098E
:103F20003F0900939F061093A0062093A1063093AB
:103F3000A20620910B012870209309010091A3068D
:103F40001091A4062091A5063091A60637FD15C054
:103F5000C0908306D0908406E0908506F090860697
:103F60000C191D092E093F090093A3061093A406FE
:103F70002093A5063093A6061498415041F0209155
:103F800084003091850028173907C8F381CE8091CD
:103F9000C1069091C206A091C306B091C406892BB8
:103FA0008A2B8B2B09F0EDC5E091830EF091840EE6
:103FB000309709F45CC78091BD069091BE06A09130
:103FC000BF06B091C0064091B9065091BA06609103
:103FD000BB067091BC0684179507A607B707D0F0FB
:103FE000109282061092840E1092830E90916D03AF
:103FF00080916C03981709F43AC780916C038F5F26
:104000008F7080936C0300EDC02E07E0D02EE12C62
:10401000F12CE4C34091B5065091B6066091B70605
:104020007091B806481759076A077B0708F4A4C1BE
:104030004090B1065090B2066090B3067090B406FE
:1040400086A997A9A0ADB1AD481659066A067B06A8
:1040500008F076C1411451046104710449F480915F
:104060007E0690917F06A0918006B091810664C182
:10407000B0E0A981842D352D262DFA81EB817C813C
:104080006D815E814F8198855091DD0D589F712D16
:1040900066274091DE0D489F700D611D1090DF0D69
:1040A000189E600D539F700D611D439F600D529FC0
:1040B000600DF72FE62FF79F512D44279927F69F84
:1040C000500D411D9B1FE79F500D411D9B1FE69FFB
:1040D000400D911DF42FE92FF79FA12D442799271B
:1040E000F69FA00D411D9B1FE79FA00D411D9B1F2B
:1040F000E69F400D911DF42FE92F552780917E06F4
:1041000030917F062091800600900C060B2A09F45E
:1041100083C0409108064F9F51198B0B3B0B2B0B13
:10412000909109069F9F501981093B0B2B0BA09181
:104130000A06AF9F801931092B0B4E9F5019810938
:104140003B0B2B0B9E9F801931092B0BAE9F301917
:104150002109F79FA12D44279927F69FA00D411D06
:104160009B1FE79FA00D411D9B1FE69F400D911DCA
:10417000F42FE92F409104064F9F510D8B1F3B1FD9
:104180002B1F909105069F9F500D811D3B1F2B1FDC
:10419000A0910606AF9F800D311D2B1F4E9F500D25
:1041A000811D3B1F2B1F9E9F800D311D2B1FAE9F1E
:1041B000300D211DF79FA12D44279927F69FA00DB3
:1041C000411D9B1FE79FA00D411D9B1FE69F400DBA
:1041D000911DF42FE92F409100064F9F51198B0B31
:1041E0003B0B2B0B909101069F9F501981093B0BB4
:1041F0002B0BA0910206AF9F801931092B0B4E9F0C
:10420000501981093B0B2B0B9E9F801931092B0BF9
:10421000AE9F3019210982C0409108064F9F510D71
:104220008B1F3B1F2B1F909109069F9F500D811DD7
:104230003B1F2B1FA0910A06AF9F800D311D2B1F26
:104240004E9F500D811D3B1F2B1F9E9F800D311DCA
:104250002B1FAE9F300D211DF79FA12D44279927BD
:10426000F69FA00D411D9B1FE79FA00D411D9B1FA9
:10427000E69F400D911DF42FE92F409104064F9FBA
:1042800051198B0B3B0B2B0B909105069F9F5019DF
:1042900081093B0B2B0BA0910606AF9F80193109BA
:1042A0002B0B4E9F501981093B0B2B0B9E9F8019A6
:1042B00031092B0BAE9F30192109F79FA12D4427FF
:1042C0009927F69FA00D411D9B1FE79FA00D411D43
:1042D0009B1FE69F400D911DF42FE92F4091000692
:1042E0004F9F510D8B1F3B1F2B1F909101069F9FCE
:1042F000500D811D3B1F2B1FA0910206AF9F800D0B
:10430000311D2B1F4E9F500D811D3B1F2B1F9E9F4C
:10431000800D311D2B1FAE9F300D211D1124A9834F
:10432000FA83EB837C836D835E834F83988790E071
:10433000932BA0E0B0E0A22B27EF31E111E011C0F8
:1043400082A993A9A4A9B5A9F7CFB695A7959795E2
:104350008795110F2C5F3F4F42E12331340709F459
:1043600066C4F901459155916591749148175907B3
:104370006A077B0750F35BC44091AC065091AD06D1
:104380006091AE067091AF06481759076A077B0720
:1043900008F0B3C18091AB0681111EC0DF01AE5B96
:1043A000BF4FED90FD900D911C9113971D962D918F
:1043B0003D914D915C9162A973A984A995A90E9430
:1043C000FB60A092AB06E091830EF091840E42A8B0
:1043D00053A864A875A882C18091A7069091A806E9
:1043E000A091A906B091AA0642AD53AD64AD75ADDA
:1043F00084179507A607B70708F06AC10097A105BB
:10440000B10549F440907E0650907F06609080068A
:104410007090810663C130E04985482E292F8A2F8C
:104420006A855B859C853090DD0D349C912D22241E
:104430008090DE0D849C900D211C1090DF0D149C4B
:10444000200C329E900D211C829E200C389E200C48
:10445000692F522D699F312C88249924629D300C3C
:10446000811C931E599F300C811C931E529D800C01
:10447000911C682D592D699F412D88249924629D96
:10448000400D811C931E599F400D811C931E529D0F
:10449000800C911C682D592D332440907E0620916C
:1044A0007F068091800600900C06032A09F483C0E1
:1044B00080900806869E3118430A230B830B909048
:1044C0000906969E30184108230B830B40910A067B
:1044D000469F40182109830B859E30184108230B05
:1044E000830B959E40182109830B459F2019810954
:1044F000699F412D88249924629D400D811C931E43
:10450000599F400D811C931E529D800C911C682D5B
:10451000592D80900406869E310C431E231F831F55
:1045200090900506969E300C411C231F831F4091DE
:104530000606469F400C211D831F859E300C411CA2
:10454000231F831F959E400C211D831F459F200D17
:10455000811D699F412D88249924629D400D811CF5
:10456000931E599F400D811C931E529D800C911CDF
:10457000682D592D80900006869E3118430A230B22
:10458000830B90900106969E30184108230B830BF5
:1045900040910206469F40182109830B859E3018E2
:1045A0004108230B830B959E40182109830B459FDF
:1045B0002019810982C080900806869E310C431E16
:1045C000231F831F90900906969E300C411C231FC9
:1045D000831F40910A06469F400C211D831F859E24
:1045E000300C411C231F831F959E400C211D831FEF
:1045F000459F200D811D699F412D88249924629D2E
:10460000400D811C931E599F400D811C931E529D8D
:10461000800C911C682D592D80900406869E3118BF
:10462000430A230B830B90900506969E3018410891
:10463000230B830B40910606469F40182109830BEC
:10464000859E30184108230B830B959E4018210945
:10465000830B459F20198109699F412D8824992446
:10466000629D400D811C931E599F400D811C931E1D
:10467000529D800C911C682D592D80900006869EBD
:10468000310C431E231F831F90900106969E300C11
:10469000411C231F831F40910206469F400C211D91
:1046A000831F859E300C411C231F831F959E400C49
:1046B000211D831F459F200D811D112449876A8775
:1046C0005B879C87512C522A612C712C682A06C06A
:1046D000E15BFF4F408051806280738087EF91E102
:1046E00021E0FC0145915591659174914415550562
:1046F0006605770508F4FBC205C380910C02909112
:104700000D02A0910E02B0910F02B7FF5FC0E95BEE
:10471000FF4FC080D180E280F38087EF91E121E0FC
:10472000FC0145915591659174914C155D056E059F
:104730007F0550F4F694E794D794C794220F04961B
:10474000A2E183319A0761F72093B00680E2C81690
:10475000D104E104F10428F470E2C72ED12CE12C3D
:10476000F12C20E2C21AD108E108F108C11438E0A6
:10477000D306E104F10408F433C344E0D49EC0013D
:1047800011248950924FFC013296259134917C2D51
:104790006627739FA001729F410D561F0694461F06
:1047A000561F112460E070E0FC0125913491C9018D
:1047B000A0E0B0E0841B950BA60BB70B80930C0216
:1047C00090930D02A0930E02B0930F02C0900C02C2
:1047D000D0900D02E0900E02F0900F028091830EB7
:1047E0009091840E892B09F0C4C10E948961909335
:1047F000840E8093830E892B09F4BBC1E091830E54
:10480000F091840E808183FF48C085899689A789AD
:10481000B08D418D528D638D748D8C019D01040F7F
:10482000151F261F371F00935C0310935D03209311
:104830005E0330935F03841B950BA60BB70B80932D
:10484000600390936103A0936203B0936303858D2B
:10485000968DA78DB0A18093640390936503A09378
:104860006603B093670381A192A1A3A1B4A1809331
:10487000680390936903A0936A03B0936B039091CC
:104880006D0380916C03981709F4AFCF80916C038E
:104890008F5F8F7080936C03A8CF45895689678995
:1048A000708D418C528C638C748C44155505660553
:1048B0007705B1F44115510561057105A1F0DF01DE
:1048C000AA5BBF4F9C9191FB222720F99170392F51
:1048D0003A2581E0321301C080E0291302C004C0F0
:1048E00081E0826001C080E0C58CD68CE78CF0A0AE
:1048F000C114D104E104F10409F0846080938206BC
:104900001092A7061092A8061092A9061092AA0665
:104910001092B1061092B2061092B3061092B4062D
:1049200085A196A1A7A1B0A58093B9069093BA06D8
:10493000A093BB06B093BC06002711279801081B63
:10494000190B2A0B3B0B0093A3061093A40620938C
:10495000A5063093A60600939F061093A006209309
:10496000A1063093A20600939B0610939C06209309
:104970009D0630939E060093970610939806209309
:10498000990630939A06440F551F661F771F409370
:104990008706509388066093890670938A06440CB4
:1049A000551C661C771C40928B0650928C066092B8
:1049B0008D0670928E06CC0CDD1CEE1CFF1CC09286
:1049C0008F06D0929006E0929106F092920641A155
:1049D00052A163A174A1440F551F661F771F409316
:1049E0009306509394066093950670939606880FED
:1049F000991FAA1FBB1F8093830690938406A093E0
:104A00008506B09386061092BD061092BE061092DF
:104A1000BF061092C00682A593A5A4A5B5A5809354
:104A2000B5069093B606A093B706B093B80686A5D0
:104A300097A5A0A9B1A98093AC069093AD06A093C9
:104A4000AE06B093AF0641A5EA5BFF4F508180915F
:104A50007D0658130AC080910B0290E0242F042E8B
:104A6000000C330B2817390731F050937D06409323
:104A70000B020E944D610E94CD468FEF9FEFDC013B
:104A800080930C0290930D02A0930E02B0930F023C
:104A9000E091830EF091840EDF01DE96ED90FD90A3
:104AA0000D911C9122A933A944A955A9E55BFF4F9B
:104AB00060817181828193810E94FB601092AB06BC
:104AC000E091830EF091840EE55BFF4F40805180B2
:104AD0006280738087EF91E121E0FC01459155915F
:104AE00065917491441555056605770558F47694DB
:104AF000679457944794220F049643E152E1481774
:104B0000590759F72093B00650E245165104610445
:104B1000710428F4F0E24F2E512C612C712C90E29C
:104B2000491A5108610871084114A8E05A06610445
:104B3000710408F479C1B4E05B9EC001112489506E
:104B4000924FFC01329625913491742D6627739F04
:104B5000A001729F410D561F0694461F561F112437
:104B6000FC01C590D490E12CF12CC41AD50AE108BF
:104B7000F108C092C106D092C206E092C306F0923C
:104B8000C4068091C1069091C206A091C306B0915F
:104B9000C406AC01BD01009721E0A207B10520F0D9
:104BA0004FEF5FEF60E070E0841B950BA60BB70B37
:104BB0008093C1069093C206A093C306B093C40627
:104BC000F89480918400909185004096BA94BB201F
:104BD00061F0AD85BE85A40FB51FBE87AD87A81750
:104BE000B90710F40C94E41D02C09E878D872D85B3
:104BF0003E85309389002093880078942E960FB6D6
:104C0000F894DEBF0FBECDBFDF91CF911F910F9102
:104C1000FF90EF90DF90CF90BF90AF909F908F90DC
:104C20007F906F905F904F903F902F9008951093DA
:104C3000B00680329105A105B10520F480E290E034
:104C4000A0E0B0E08097A109B109811528E09207A2
:104C5000A105B105F0F044E0949F90011124295082
:104C6000324FF901329645915491EE27859FB0015C
:104C7000849F610D7E1F06946E1F7E1F1124F90113
:104C8000C590D490E12CF12CC61AD70AE108F1089E
:104C900021C0AC01BD017695679557954795FA01FE
:104CA000EC7F9F012950364FF901C590D490F9014E
:104CB0003296459154918770849F9001859F300D65
:104CC000112413E0369527951A95E1F7C21AD30AF5
:104CD000E12CF12C4C0C5D1C6E1C7F1C4092B1062B
:104CE0005092B2066092B3067092B40677CD769475
:104CF000679457944794220F049652E183319507A5
:104D000009F0EFCC2093B00670E24716510461041D
:104D1000710428F4A0E24A2E512C612C712C50E22F
:104D2000451A510861087108411478E0570661047A
:104D30007104F8F0A4E05A9EC00111248950924FEA
:104D4000FC01329625913491B42D6627B39FA001C2
:104D5000B29F410D561F0694461F561F1124FC0199
:104D6000C590D490E12CF12CC41AD50AE108F108C1
:104D700022C0D301C201B695A79597958795FC01EE
:104D8000EC7FCF018950964FFC01C590D490FC0177
:104D9000329625913491442D4770429FC001439F24
:104DA000900D1124F3E096958795FA95E1F7C81ACE
:104DB000D90AE12CF12C8091A7069091A806A09128
:104DC000A906B091AA068C0D9D1DAE1DBF1D809336
:104DD000A7069093A806A093A906B093AA06FECCB6
:104DE000D701C601B695A79597958795FC01EC7FED
:104DF000CF018950964FFC0125913491FC013296E8
:104E0000459154916C2D6770649FC001659F900D12
:104E1000112463E0969587956A95E1F7281B390B75
:104E2000C901A0E0B0E0CACCD301C201B695A795F4
:104E300097958795FC01EC7FCF018950964FFC0137
:104E4000C590D490FC01329625913491442D477041
:104E5000429FC001439F900D1124E3E096958795F2
:104E6000EA95E1F7C81AD90AE12CF12C82CE80ED3F
:104E7000C82E87E0D82EE12CF12CB7CC2F923F9290
:104E80004F925F926F927F928F929F92AF92BF925A
:104E9000CF92DF92EF92FF920F931F93CF93DF9306
:104EA00000D01F92CDB7DEB70E94968F6B017C01B8
:104EB00080910002882309F47BC0809176048823C6
:104EC00009F476C040918F07509190076091910747
:104ED0007091920797018601041B150B260B370B67
:104EE00037FD79C0833051F134F481300CF460C067
:104EF000E3EBF2E206C0843009F05AC0E3EBF2E2E1
:104F00003BC084918F010F5F1F4F1B830A8388234F
:104F100029F00E94DD16EA81FB81F3CFE6EBF2E196
:104F200084918F010F5F1F4F1B830A83882309F42D
:104F30003FC00E94DD16EA81FB81F2CFE3EBF2E293
:104F400084918F010F5F1F4F1B830A83882329F0F1
:104F50000E94DD16EA81FB81F3CFEFE9F2E1849153
:104F60008F010F5F1F4F1B830A83882309F10E9463
:104F7000DD16EA81FB81F3CF84918F010F5F1F4F14
:104F80001B830A83882329F00E94DD16EA81FB81B6
:104F9000F3CFE7E8F2E184918F010F5F1F4F1B838E
:104FA0000A83882329F00E94DD16EA81FB81F3CF72
:104FB0002091000230E0A8EEB3E00E94FBAEC60EE6
:104FC000D71EE81EF91EC0928F07D0929007E0927C
:104FD0009107F09292078091F905843030F40E9495
:104FE000E518811102C00E94B5170E94968FC090EB
:104FF0009E03D0909F03E090A003F090A103C11402
:10500000D104E104F10491F100915B0710915C0778
:1050100020915D0730915E070C0D1D1D2E1D3F1D5B
:105020006B017C01C01AD10AE20AF30AF7FC1EC028
:10503000E9EBF2E284918F010F5F1F4F1B830A831C
:10504000882329F00E94DD16EA81FB81F3CF60916D
:105050003F0E7091400E81ED92E10E9425628AE040
:105060000E94DD1688EC92E10E94436DC0909A0385
:10507000D0909B03E0909C03F0909D03C114D10459
:10508000E104F104D9F130916D0320916C033217E2
:1050900049F060935B0770935C0780935D07909382
:1050A0005E072CC000915B0710915C0720915D07A3
:1050B00030915E070C0D1D1D2E1D3F1DDC01CB0127
:1050C000801B910BA20BB30BB7FD18C05F9A8091A8
:1050D000520E8E7F8093520E8A9A8091520E8D7F4F
:1050E0008093520E80910801809581708093060113
:1050F0008091520E8B7F8093520E129A90916D0385
:1051000080916C03981791F0E0916C031DE5E19F8D
:10511000F0011124ED59F74F608180916C0390915B
:105120006D03981729F08F5F8F70F9CF6091980306
:1051300070E089E00E94978E8091F00D882309F439
:10514000FBC000911E0210911F02C0902002CC8271
:10515000D0902102DA8260918F03709190036E5F8C
:105160007F4F072E000C880B990B0E9494AA980180
:10517000A6010E948EAA87FDDFC0F0906C03212C4F
:10518000312CE12C198280916D038F1509F460C0D8
:105190008F2D90E02DE5289FF001299FF00D11241F
:1051A000E45FF74F458956896789708D452B462BFB
:1051B000472B81F4418D528D638D748D452B462B89
:1051C000472B41F4458D568D678D70A1452B462B9D
:1051D000472BC9F14DE5489F9001499F300D11249F
:1051E000C901845F974F6C01FC01618172818381E9
:1051F00094810E9476B14B015C01F60161A172A11C
:1052000083A194A10E9492AA2B013C01F60165A101
:1052100076A187A190A50E9492AA9B01AC01C3012F
:10522000B2010E94E7AFA50194010E94F3AA5B01BD
:105230006C0191014E2D59810E9431B118161CF458
:105240001501EC2CD98281E08F0D8F70F82E9BCF49
:105250002091220230912302409124025091250294
:10526000B1018E2D99810E94F3AA98014C815A8137
:105270000E940BAF6B017C019B01AC01B8018C81DA
:105280009A810E9431B11816B4F000911A0210915F
:105290001B02F0911C02FC8320911D022A839801BD
:1052A0004F2F5A81B601C7010E9431B118161CF068
:1052B0008601EC82FA82C0909307D0909407E09028
:1052C0009507F090960798014C815A81C701B60165
:1052D0000E9431B11816D4F420E037ED43EA5CE3C4
:1052E000B8018C819A810E94F3AA4B015C0128E4E9
:1052F00031EE4AE75FE3C701B6010E94F3AAA501B8
:1053000094010E940BAF8B018C839A83C801AC81FE
:10531000BA818093930790939407A0939507B093D5
:105320009607B801CD010E944FB07093900360932F
:105330008F0380E00E943D6F0E945D72C0908E03DB
:10534000C9820C2D013009F08DC08091A707811111
:105350000CC00E94968F6093A3077093A40780935C
:10536000A5079093A607C092A70780919B0781117C
:105370000DC00E94968F6093970770939807809353
:10538000990790939A0781E080939B070E94968FDC
:105390006B017C018091A3079091A407A091A507C0
:1053A000B091A607A7019601281B390B4A0B5B0B8E
:1053B000DA01C90180319742A105B105A0F18090C1
:1053C000F6079090F707A090F807B090F9070E94B1
:1053D000C88C6093F6077093F7078093F807909353
:1053E000F9070091FE071091FF0720910008309106
:1053F0000108081919092A093B09DC01CB01800FB2
:10540000911FA21FB31F8093FE079093FF07A093E5
:105410000008B0930108C092A307D092A407E092BD
:10542000A507F092A6078091970790919807A09101
:105430009907B0919A0797018601081B190B2A0B4F
:105440003B0BD901C80180389E4EA105B10550F033
:10545000C0929707D0929807E0929907F0929A0726
:105460000E94846380919503882309F444C00E94BC
:10547000968F0091910310919203209193033091A4
:105480009403DC01CB01801B910BA20BB30BB7FD86
:1054900032C00E94968F6B017C012091950330E011
:1054A000A8EEB3E00E94FBAEC60ED71EE81EF91EA2
:1054B000C0929103D0929203E0929303F0929403EE
:1054C0000E94376E8AE00F900F900F900F90DF913F
:1054D000CF911F910F91FF90EF90DF90CF90BF90F1
:1054E000AF909F908F907F906F905F904F903F9084
:1054F0002F900C94DD160F900F900F900F90DF916E
:10550000CF911F910F91FF90EF90DF90CF90BF90C0
:10551000AF909F908F907F906F905F904F903F9053
:105520002F9008955F9A8091520E8E7F8093520E35
:105530008A9A8091520E8D7F8093520E809108013D
:1055400080958170809306018091520E8B7F8093AD
:10555000520E129A08952F923F924F925F926F923D
:105560007F928F929F92AF92BF92CF92DF92EF92F3
:10557000FF920F931F93CF93DF93CDB7DEB7CC5439
:10558000D1090FB6F894DEBF0FBECDBF80913B02AC
:10559000882321F081E49EE00E940E688091630ED2
:1055A00083FDA9C0C0904D0ED0904E0EE0904F0EDE
:1055B000F090500E2091770E3091780E4091790E38
:1055C00050917A0EC701B6010E948EAA882309F471
:1055D00092C080912904811133C06091FD0D7091BA
:1055E000FE0D8091FF0D9091000E0E944FB0209112
:1055F0000702309108026217730714F5C092770E04
:10560000D092780EE092790EF0927A0EE3EBF2E20D
:1056100084917F019FEFE91AF90A882321F00E9403
:10562000DD16F701F5CFECE6F2E184917F01AFEFF3
:10563000EA1AFA0A882321F00E94DD16F701F5CF55
:1056400080904D0E90904E0EA0904F0EB090500E48
:105650002091770E3091780E4091790E50917A0E0C
:10566000C501B4010E940AAF6B017C0120E030E06B
:10567000A9010E9431B187FF04C0F7FAF094F7F84E
:10568000F094E091510EB4E0EB9FF0011124EF5F34
:10569000FD4F2081318142815381C701B6010E94B3
:1056A000F3AA20E030E048E453E40E9431B1181638
:1056B00014F58092770E9092780EA092790EB092A7
:1056C0007A0EE3EBF2E284917F019FEFE91AF90A87
:1056D000882321F00E94DD16F701F5CFEDE4F2E119
:1056E00084917F01AFEFEA1AFA0A882321F00E9421
:1056F000DD16F701F5CF80916C04C090410ED0907B
:10570000420EE090430EF090440E8090450E909033
:10571000460EA090470EB090480E60913C027091EA
:105720003D02811151C0072E000C880B990B0E947D
:1057300094AA209142023091430240914402509138
:1057400045020E94F3AA2AE037ED43E25CE30E949F
:10575000F3AA69AB7AAB8BAB9CAB7090510E809186
:10576000490E90914A0EA0914B0EB0914C0EC982F9
:10577000DA82EB82FC82898A9A8AAB8ABC8A89A304
:105780009AA3ABA3BCA31DA61EA61FA618AAAE0172
:105790004F5D5F4FBE016F5E7F4FCE0101960E944D
:1057A0007A43FE01BD966F01E72C8E010F5C1F4FFF
:1057B0002DE43EE0AE014F5D5F4FBE016F5E7F4F57
:1057C000CE010196B3D6B8C0072E000C880B990BFA
:1057D0000E9494AA209142023091430240914402D7
:1057E000509145020E94F3AA2AE037ED43E25CE3C0
:1057F0000E94F3AA6DA77EA78FA798AB20916B0E8E
:1058000030916C0E40916D0E50916E0EC701B60135
:105810000E940AAF25966CAF7DAF8EAF9FAF2597E4
:1058200020916F0E3091700E4091710E5091720E5A
:10583000C501B4010E940AAF2B013C0120E030E019
:10584000A90125966CAD7DAD8EAD9FAD25970E94CB
:105850008EAA882309F493C02091730E3091740EA0
:105860004091750E5091760E6091490E70914A0EDE
:1058700080914B0E90914C0E0E940AAF29966CAF0E
:105880007DAF8EAF9FAF29972091770E3091780E24
:105890004091790E50917A0E60914D0E70914E0E9E
:1058A00080914F0E9091500E0E940AAF21966CAFDE
:1058B0007DAF8EAF9FAF219725962CAD3DAD4EAD00
:1058C0005FAD2597CA01B9010E94F3AA6B017C0163
:1058D000A3019201C301B2010E94F3AA9B01AC0192
:1058E000C701B6010E940BAF6B017C0129962CAD5C
:1058F0003DAD4EAD5FAD2997CA01B9010E94F3AA33
:105900009B01AC01C701B6010E940BAF0E9476B1AA
:105910006B017C012DEB37E346E855E30E948EAA2C
:1059200087FD6AC02DEB37E346E855E3C701B601B2
:105930000E948EAA87FF78C080E1E1E4FEE0ABE63A
:10594000BEE001900D928A95E1F7C45BDF4F0FB680
:10595000F894DEBF0FBECDBFDF91CF911F910F91A5
:10596000FF90EF90DF90CF90BF90AF909F908F907F
:105970007F906F905F904F903F902F90089520E020
:1059800030E0A901C301B2010E948EAA811164CF47
:105990007090510E19AA1AAA1BAA1CAAC982DA82EF
:1059A000EB82FC828D829E82AF82B8868091490E06
:1059B00090914A0EA0914B0EB0914C0E89879A8718
:1059C000AB87BC87AE01475F5F4FBE016B5F7F4F08
:1059D000CE0101960E947A43FE01F1966F01E72CF9
:1059E0008E01035D1F4F2DE43EE0AE01475F5F4F28
:1059F000BE016B5F7F4FE4CE20E030E0A90121962D
:105A00006CAD7DAD8EAD9FAD21970E9431B12196D9
:105A1000CCACDDACEEACFFAC219787FF83CFF7FABF
:105A2000F094F7F8F0947ECF20E030E040EA50E4C4
:105A3000C701B6010E94E7AF0E9454B01B01672B5B
:105A400019F422242394312CB10180E090E00E94CB
:105A500092AA9B01AC0160E070E080E89FE30E94A5
:105A6000E7AF4B015C019B01AC01C701B6010E948D
:105A7000F3AA2D966CAF7DAF8EAF9FAF2D97A5018A
:105A8000940125966CAD7DAD8EAD9FAD25970E949E
:105A9000F3AA698B7A8B8B8B9C8BA5019401C30134
:105AA000B2010E94F3AA6D8B7E8B8F8B988FA5011C
:105AB000940129966CAD7DAD8EAD9FAD29970E9466
:105AC000F3AA698F7A8F8B8F9C8FA5019401219601
:105AD0006CAD7DAD8EAD9FAD21970E94F3AA6D8F09
